{
  "_format": "hh-sol-artifact-1",
  "contractName": "Ausys",
  "sourceName": "contracts/AuSys.sol",
  "abi": [
    {
      "inputs": [
        {
          "internalType": "contract IERC20",
          "name": "token",
          "type": "address"
        }
      ],
      "stateMutability": "nonpayable",
      "type": "constructor"
    },
    {
      "inputs": [],
      "name": "AlreadySettled",
      "type": "error"
    },
    {
      "inputs": [],
      "name": "DriverMaxAssignment",
      "type": "error"
    },
    {
      "inputs": [],
      "name": "DriverNotSigned",
      "type": "error"
    },
    {
      "inputs": [],
      "name": "InvalidAddress",
      "type": "error"
    },
    {
      "inputs": [],
      "name": "InvalidAmount",
      "type": "error"
    },
    {
      "inputs": [],
      "name": "InvalidCaller",
      "type": "error"
    },
    {
      "inputs": [],
      "name": "InvalidETA",
      "type": "error"
    },
    {
      "inputs": [],
      "name": "InvalidNode",
      "type": "error"
    },
    {
      "inputs": [],
      "name": "JourneyIncomplete",
      "type": "error"
    },
    {
      "inputs": [],
      "name": "JourneyNotInProgress",
      "type": "error"
    },
    {
      "inputs": [],
      "name": "JourneyNotPending",
      "type": "error"
    },
    {
      "inputs": [],
      "name": "NotJourneyParticipant",
      "type": "error"
    },
    {
      "inputs": [],
      "name": "ReceiverNotSigned",
      "type": "error"
    },
    {
      "inputs": [],
      "name": "RewardAlreadyPaid",
      "type": "error"
    },
    {
      "inputs": [],
      "name": "SenderNotSigned",
      "type": "error"
    },
    {
      "anonymous": false,
      "inputs": [
        {
          "indexed": true,
          "internalType": "address",
          "name": "admin",
          "type": "address"
        }
      ],
      "name": "AdminSet",
      "type": "event"
    },
    {
      "anonymous": false,
      "inputs": [
        {
          "indexed": true,
          "internalType": "address",
          "name": "driver",
          "type": "address"
        },
        {
          "indexed": true,
          "internalType": "bytes32",
          "name": "journeyId",
          "type": "bytes32"
        }
      ],
      "name": "DriverAssigned",
      "type": "event"
    },
    {
      "anonymous": false,
      "inputs": [
        {
          "indexed": true,
          "internalType": "address",
          "name": "from",
          "type": "address"
        },
        {
          "indexed": false,
          "internalType": "uint256",
          "name": "amount",
          "type": "uint256"
        }
      ],
      "name": "FundsEscrowed",
      "type": "event"
    },
    {
      "anonymous": false,
      "inputs": [
        {
          "indexed": true,
          "internalType": "address",
          "name": "to",
          "type": "address"
        },
        {
          "indexed": false,
          "internalType": "uint256",
          "name": "amount",
          "type": "uint256"
        }
      ],
      "name": "FundsRefunded",
      "type": "event"
    },
    {
      "anonymous": false,
      "inputs": [
        {
          "indexed": true,
          "internalType": "bytes32",
          "name": "journeyId",
          "type": "bytes32"
        },
        {
          "indexed": true,
          "internalType": "address",
          "name": "sender",
          "type": "address"
        },
        {
          "indexed": false,
          "internalType": "uint256",
          "name": "refundedAmount",
          "type": "uint256"
        }
      ],
      "name": "JourneyCanceled",
      "type": "event"
    },
    {
      "anonymous": false,
      "inputs": [
        {
          "indexed": true,
          "internalType": "bytes32",
          "name": "journeyId",
          "type": "bytes32"
        },
        {
          "indexed": true,
          "internalType": "address",
          "name": "sender",
          "type": "address"
        },
        {
          "indexed": true,
          "internalType": "address",
          "name": "receiver",
          "type": "address"
        }
      ],
      "name": "JourneyCreated",
      "type": "event"
    },
    {
      "anonymous": false,
      "inputs": [
        {
          "indexed": true,
          "internalType": "bytes32",
          "name": "journeyId",
          "type": "bytes32"
        },
        {
          "indexed": false,
          "internalType": "enum Ausys.JourneyStatus",
          "name": "newStatus",
          "type": "uint8"
        }
      ],
      "name": "JourneyStatusUpdated",
      "type": "event"
    },
    {
      "anonymous": false,
      "inputs": [
        {
          "indexed": true,
          "internalType": "address",
          "name": "node",
          "type": "address"
        },
        {
          "indexed": false,
          "internalType": "uint256",
          "name": "amount",
          "type": "uint256"
        }
      ],
      "name": "NodeFeeDistributed",
      "type": "event"
    },
    {
      "anonymous": false,
      "inputs": [
        {
          "indexed": true,
          "internalType": "bytes32",
          "name": "orderId",
          "type": "bytes32"
        },
        {
          "indexed": true,
          "internalType": "address",
          "name": "buyer",
          "type": "address"
        },
        {
          "indexed": true,
          "internalType": "address",
          "name": "seller",
          "type": "address"
        },
        {
          "indexed": false,
          "internalType": "address",
          "name": "token",
          "type": "address"
        },
        {
          "indexed": false,
          "internalType": "uint256",
          "name": "tokenId",
          "type": "uint256"
        },
        {
          "indexed": false,
          "internalType": "uint256",
          "name": "tokenQuantity",
          "type": "uint256"
        },
        {
          "indexed": false,
          "internalType": "uint256",
          "name": "requestedTokenQuantity",
          "type": "uint256"
        },
        {
          "indexed": false,
          "internalType": "uint256",
          "name": "price",
          "type": "uint256"
        },
        {
          "indexed": false,
          "internalType": "uint256",
          "name": "txFee",
          "type": "uint256"
        },
        {
          "indexed": false,
          "internalType": "uint8",
          "name": "currentStatus",
          "type": "uint8"
        },
        {
          "indexed": false,
          "internalType": "address[]",
          "name": "nodes",
          "type": "address[]"
        },
        {
          "components": [
            {
              "components": [
                {
                  "internalType": "string",
                  "name": "lat",
                  "type": "string"
                },
                {
                  "internalType": "string",
                  "name": "lng",
                  "type": "string"
                }
              ],
              "internalType": "struct Ausys.Location",
              "name": "startLocation",
              "type": "tuple"
            },
            {
              "components": [
                {
                  "internalType": "string",
                  "name": "lat",
                  "type": "string"
                },
                {
                  "internalType": "string",
                  "name": "lng",
                  "type": "string"
                }
              ],
              "internalType": "struct Ausys.Location",
              "name": "endLocation",
              "type": "tuple"
            },
            {
              "internalType": "string",
              "name": "startName",
              "type": "string"
            },
            {
              "internalType": "string",
              "name": "endName",
              "type": "string"
            }
          ],
          "indexed": false,
          "internalType": "struct Ausys.ParcelData",
          "name": "locationData",
          "type": "tuple"
        }
      ],
      "name": "OrderCreated",
      "type": "event"
    },
    {
      "anonymous": false,
      "inputs": [
        {
          "indexed": true,
          "internalType": "bytes32",
          "name": "orderId",
          "type": "bytes32"
        }
      ],
      "name": "OrderSettled",
      "type": "event"
    },
    {
      "anonymous": false,
      "inputs": [
        {
          "indexed": true,
          "internalType": "bytes32",
          "name": "orderId",
          "type": "bytes32"
        },
        {
          "indexed": false,
          "internalType": "enum Ausys.OrderStatus",
          "name": "newStatus",
          "type": "uint8"
        }
      ],
      "name": "OrderStatusUpdated",
      "type": "event"
    },
    {
      "anonymous": false,
      "inputs": [
        {
          "indexed": true,
          "internalType": "address",
          "name": "previousOwner",
          "type": "address"
        },
        {
          "indexed": true,
          "internalType": "address",
          "name": "newOwner",
          "type": "address"
        }
      ],
      "name": "OwnershipTransferred",
      "type": "event"
    },
    {
      "anonymous": false,
      "inputs": [
        {
          "indexed": true,
          "internalType": "bytes32",
          "name": "role",
          "type": "bytes32"
        },
        {
          "indexed": true,
          "internalType": "bytes32",
          "name": "previousAdminRole",
          "type": "bytes32"
        },
        {
          "indexed": true,
          "internalType": "bytes32",
          "name": "newAdminRole",
          "type": "bytes32"
        }
      ],
      "name": "RoleAdminChanged",
      "type": "event"
    },
    {
      "anonymous": false,
      "inputs": [
        {
          "indexed": true,
          "internalType": "bytes32",
          "name": "role",
          "type": "bytes32"
        },
        {
          "indexed": true,
          "internalType": "address",
          "name": "account",
          "type": "address"
        },
        {
          "indexed": true,
          "internalType": "address",
          "name": "sender",
          "type": "address"
        }
      ],
      "name": "RoleGranted",
      "type": "event"
    },
    {
      "anonymous": false,
      "inputs": [
        {
          "indexed": true,
          "internalType": "bytes32",
          "name": "role",
          "type": "bytes32"
        },
        {
          "indexed": true,
          "internalType": "address",
          "name": "account",
          "type": "address"
        },
        {
          "indexed": true,
          "internalType": "address",
          "name": "sender",
          "type": "address"
        }
      ],
      "name": "RoleRevoked",
      "type": "event"
    },
    {
      "anonymous": false,
      "inputs": [
        {
          "indexed": true,
          "internalType": "address",
          "name": "seller",
          "type": "address"
        },
        {
          "indexed": false,
          "internalType": "uint256",
          "name": "amount",
          "type": "uint256"
        }
      ],
      "name": "SellerPaid",
      "type": "event"
    },
    {
      "anonymous": false,
      "inputs": [
        {
          "indexed": true,
          "internalType": "address",
          "name": "user",
          "type": "address"
        },
        {
          "indexed": true,
          "internalType": "bytes32",
          "name": "id",
          "type": "bytes32"
        }
      ],
      "name": "emitSig",
      "type": "event"
    },
    {
      "inputs": [],
      "name": "ADMIN_ROLE",
      "outputs": [
        {
          "internalType": "bytes32",
          "name": "",
          "type": "bytes32"
        }
      ],
      "stateMutability": "view",
      "type": "function"
    },
    {
      "inputs": [],
      "name": "DEFAULT_ADMIN_ROLE",
      "outputs": [
        {
          "internalType": "bytes32",
          "name": "",
          "type": "bytes32"
        }
      ],
      "stateMutability": "view",
      "type": "function"
    },
    {
      "inputs": [],
      "name": "DISPATCHER_ROLE",
      "outputs": [
        {
          "internalType": "bytes32",
          "name": "",
          "type": "bytes32"
        }
      ],
      "stateMutability": "view",
      "type": "function"
    },
    {
      "inputs": [],
      "name": "DRIVER_ROLE",
      "outputs": [
        {
          "internalType": "bytes32",
          "name": "",
          "type": "bytes32"
        }
      ],
      "stateMutability": "view",
      "type": "function"
    },
    {
      "inputs": [
        {
          "internalType": "address",
          "name": "driver",
          "type": "address"
        },
        {
          "internalType": "bytes32",
          "name": "journeyID",
          "type": "bytes32"
        }
      ],
      "name": "assignDriverToJourneyId",
      "outputs": [],
      "stateMutability": "nonpayable",
      "type": "function"
    },
    {
      "inputs": [
        {
          "internalType": "address",
          "name": "",
          "type": "address"
        },
        {
          "internalType": "bytes32",
          "name": "",
          "type": "bytes32"
        }
      ],
      "name": "customerHandOff",
      "outputs": [
        {
          "internalType": "bool",
          "name": "",
          "type": "bool"
        }
      ],
      "stateMutability": "view",
      "type": "function"
    },
    {
      "inputs": [
        {
          "internalType": "address",
          "name": "",
          "type": "address"
        },
        {
          "internalType": "bytes32",
          "name": "",
          "type": "bytes32"
        }
      ],
      "name": "driverDeliverySigned",
      "outputs": [
        {
          "internalType": "bool",
          "name": "",
          "type": "bool"
        }
      ],
      "stateMutability": "view",
      "type": "function"
    },
    {
      "inputs": [
        {
          "internalType": "address",
          "name": "",
          "type": "address"
        },
        {
          "internalType": "bytes32",
          "name": "",
          "type": "bytes32"
        }
      ],
      "name": "driverPickupSigned",
      "outputs": [
        {
          "internalType": "bool",
          "name": "",
          "type": "bool"
        }
      ],
      "stateMutability": "view",
      "type": "function"
    },
    {
      "inputs": [
        {
          "internalType": "address",
          "name": "",
          "type": "address"
        },
        {
          "internalType": "uint256",
          "name": "",
          "type": "uint256"
        }
      ],
      "name": "driverToJourneyId",
      "outputs": [
        {
          "internalType": "bytes32",
          "name": "",
          "type": "bytes32"
        }
      ],
      "stateMutability": "view",
      "type": "function"
    },
    {
      "inputs": [
        {
          "internalType": "bytes32",
          "name": "id",
          "type": "bytes32"
        }
      ],
      "name": "getOrder",
      "outputs": [
        {
          "components": [
            {
              "internalType": "bytes32",
              "name": "id",
              "type": "bytes32"
            },
            {
              "internalType": "address",
              "name": "token",
              "type": "address"
            },
            {
              "internalType": "uint256",
              "name": "tokenId",
              "type": "uint256"
            },
            {
              "internalType": "uint256",
              "name": "tokenQuantity",
              "type": "uint256"
            },
            {
              "internalType": "uint256",
              "name": "price",
              "type": "uint256"
            },
            {
              "internalType": "uint256",
              "name": "txFee",
              "type": "uint256"
            },
            {
              "internalType": "address",
              "name": "buyer",
              "type": "address"
            },
            {
              "internalType": "address",
              "name": "seller",
              "type": "address"
            },
            {
              "internalType": "bytes32[]",
              "name": "journeyIds",
              "type": "bytes32[]"
            },
            {
              "internalType": "address[]",
              "name": "nodes",
              "type": "address[]"
            },
            {
              "components": [
                {
                  "components": [
                    {
                      "internalType": "string",
                      "name": "lat",
                      "type": "string"
                    },
                    {
                      "internalType": "string",
                      "name": "lng",
                      "type": "string"
                    }
                  ],
                  "internalType": "struct Ausys.Location",
                  "name": "startLocation",
                  "type": "tuple"
                },
                {
                  "components": [
                    {
                      "internalType": "string",
                      "name": "lat",
                      "type": "string"
                    },
                    {
                      "internalType": "string",
                      "name": "lng",
                      "type": "string"
                    }
                  ],
                  "internalType": "struct Ausys.Location",
                  "name": "endLocation",
                  "type": "tuple"
                },
                {
                  "internalType": "string",
                  "name": "startName",
                  "type": "string"
                },
                {
                  "internalType": "string",
                  "name": "endName",
                  "type": "string"
                }
              ],
              "internalType": "struct Ausys.ParcelData",
              "name": "locationData",
              "type": "tuple"
            },
            {
              "internalType": "enum Ausys.OrderStatus",
              "name": "currentStatus",
              "type": "uint8"
            },
            {
              "internalType": "bytes32",
              "name": "contractualAgreement",
              "type": "bytes32"
            }
          ],
          "internalType": "struct Ausys.Order",
          "name": "",
          "type": "tuple"
        }
      ],
      "stateMutability": "view",
      "type": "function"
    },
    {
      "inputs": [
        {
          "internalType": "bytes32",
          "name": "role",
          "type": "bytes32"
        }
      ],
      "name": "getRoleAdmin",
      "outputs": [
        {
          "internalType": "bytes32",
          "name": "",
          "type": "bytes32"
        }
      ],
      "stateMutability": "view",
      "type": "function"
    },
    {
      "inputs": [
        {
          "internalType": "bytes32",
          "name": "id",
          "type": "bytes32"
        }
      ],
      "name": "getjourney",
      "outputs": [
        {
          "components": [
            {
              "components": [
                {
                  "components": [
                    {
                      "internalType": "string",
                      "name": "lat",
                      "type": "string"
                    },
                    {
                      "internalType": "string",
                      "name": "lng",
                      "type": "string"
                    }
                  ],
                  "internalType": "struct Ausys.Location",
                  "name": "startLocation",
                  "type": "tuple"
                },
                {
                  "components": [
                    {
                      "internalType": "string",
                      "name": "lat",
                      "type": "string"
                    },
                    {
                      "internalType": "string",
                      "name": "lng",
                      "type": "string"
                    }
                  ],
                  "internalType": "struct Ausys.Location",
                  "name": "endLocation",
                  "type": "tuple"
                },
                {
                  "internalType": "string",
                  "name": "startName",
                  "type": "string"
                },
                {
                  "internalType": "string",
                  "name": "endName",
                  "type": "string"
                }
              ],
              "internalType": "struct Ausys.ParcelData",
              "name": "parcelData",
              "type": "tuple"
            },
            {
              "internalType": "bytes32",
              "name": "journeyId",
              "type": "bytes32"
            },
            {
              "internalType": "enum Ausys.JourneyStatus",
              "name": "currentStatus",
              "type": "uint8"
            },
            {
              "internalType": "address",
              "name": "sender",
              "type": "address"
            },
            {
              "internalType": "address",
              "name": "receiver",
              "type": "address"
            },
            {
              "internalType": "address",
              "name": "driver",
              "type": "address"
            },
            {
              "internalType": "uint256",
              "name": "journeyStart",
              "type": "uint256"
            },
            {
              "internalType": "uint256",
              "name": "journeyEnd",
              "type": "uint256"
            },
            {
              "internalType": "uint256",
              "name": "bounty",
              "type": "uint256"
            },
            {
              "internalType": "uint256",
              "name": "ETA",
              "type": "uint256"
            }
          ],
          "internalType": "struct Ausys.Journey",
          "name": "",
          "type": "tuple"
        }
      ],
      "stateMutability": "view",
      "type": "function"
    },
    {
      "inputs": [
        {
          "internalType": "bytes32",
          "name": "role",
          "type": "bytes32"
        },
        {
          "internalType": "address",
          "name": "account",
          "type": "address"
        }
      ],
      "name": "grantRole",
      "outputs": [],
      "stateMutability": "nonpayable",
      "type": "function"
    },
    {
      "inputs": [
        {
          "internalType": "bytes32",
          "name": "id",
          "type": "bytes32"
        }
      ],
      "name": "handOff",
      "outputs": [
        {
          "internalType": "bool",
          "name": "",
          "type": "bool"
        }
      ],
      "stateMutability": "nonpayable",
      "type": "function"
    },
    {
      "inputs": [
        {
          "internalType": "bytes32",
          "name": "id",
          "type": "bytes32"
        }
      ],
      "name": "handOn",
      "outputs": [
        {
          "internalType": "bool",
          "name": "",
          "type": "bool"
        }
      ],
      "stateMutability": "nonpayable",
      "type": "function"
    },
    {
      "inputs": [
        {
          "internalType": "bytes32",
          "name": "role",
          "type": "bytes32"
        },
        {
          "internalType": "address",
          "name": "account",
          "type": "address"
        }
      ],
      "name": "hasRole",
      "outputs": [
        {
          "internalType": "bool",
          "name": "",
          "type": "bool"
        }
      ],
      "stateMutability": "view",
      "type": "function"
    },
    {
      "inputs": [
        {
          "internalType": "bytes32",
          "name": "",
          "type": "bytes32"
        }
      ],
      "name": "idToJourney",
      "outputs": [
        {
          "components": [
            {
              "components": [
                {
                  "internalType": "string",
                  "name": "lat",
                  "type": "string"
                },
                {
                  "internalType": "string",
                  "name": "lng",
                  "type": "string"
                }
              ],
              "internalType": "struct Ausys.Location",
              "name": "startLocation",
              "type": "tuple"
            },
            {
              "components": [
                {
                  "internalType": "string",
                  "name": "lat",
                  "type": "string"
                },
                {
                  "internalType": "string",
                  "name": "lng",
                  "type": "string"
                }
              ],
              "internalType": "struct Ausys.Location",
              "name": "endLocation",
              "type": "tuple"
            },
            {
              "internalType": "string",
              "name": "startName",
              "type": "string"
            },
            {
              "internalType": "string",
              "name": "endName",
              "type": "string"
            }
          ],
          "internalType": "struct Ausys.ParcelData",
          "name": "parcelData",
          "type": "tuple"
        },
        {
          "internalType": "bytes32",
          "name": "journeyId",
          "type": "bytes32"
        },
        {
          "internalType": "enum Ausys.JourneyStatus",
          "name": "currentStatus",
          "type": "uint8"
        },
        {
          "internalType": "address",
          "name": "sender",
          "type": "address"
        },
        {
          "internalType": "address",
          "name": "receiver",
          "type": "address"
        },
        {
          "internalType": "address",
          "name": "driver",
          "type": "address"
        },
        {
          "internalType": "uint256",
          "name": "journeyStart",
          "type": "uint256"
        },
        {
          "internalType": "uint256",
          "name": "journeyEnd",
          "type": "uint256"
        },
        {
          "internalType": "uint256",
          "name": "bounty",
          "type": "uint256"
        },
        {
          "internalType": "uint256",
          "name": "ETA",
          "type": "uint256"
        }
      ],
      "stateMutability": "view",
      "type": "function"
    },
    {
      "inputs": [
        {
          "internalType": "bytes32",
          "name": "",
          "type": "bytes32"
        }
      ],
      "name": "idToOrder",
      "outputs": [
        {
          "internalType": "bytes32",
          "name": "id",
          "type": "bytes32"
        },
        {
          "internalType": "address",
          "name": "token",
          "type": "address"
        },
        {
          "internalType": "uint256",
          "name": "tokenId",
          "type": "uint256"
        },
        {
          "internalType": "uint256",
          "name": "tokenQuantity",
          "type": "uint256"
        },
        {
          "internalType": "uint256",
          "name": "price",
          "type": "uint256"
        },
        {
          "internalType": "uint256",
          "name": "txFee",
          "type": "uint256"
        },
        {
          "internalType": "address",
          "name": "buyer",
          "type": "address"
        },
        {
          "internalType": "address",
          "name": "seller",
          "type": "address"
        },
        {
          "components": [
            {
              "components": [
                {
                  "internalType": "string",
                  "name": "lat",
                  "type": "string"
                },
                {
                  "internalType": "string",
                  "name": "lng",
                  "type": "string"
                }
              ],
              "internalType": "struct Ausys.Location",
              "name": "startLocation",
              "type": "tuple"
            },
            {
              "components": [
                {
                  "internalType": "string",
                  "name": "lat",
                  "type": "string"
                },
                {
                  "internalType": "string",
                  "name": "lng",
                  "type": "string"
                }
              ],
              "internalType": "struct Ausys.Location",
              "name": "endLocation",
              "type": "tuple"
            },
            {
              "internalType": "string",
              "name": "startName",
              "type": "string"
            },
            {
              "internalType": "string",
              "name": "endName",
              "type": "string"
            }
          ],
          "internalType": "struct Ausys.ParcelData",
          "name": "locationData",
          "type": "tuple"
        },
        {
          "internalType": "enum Ausys.OrderStatus",
          "name": "currentStatus",
          "type": "uint8"
        },
        {
          "internalType": "bytes32",
          "name": "contractualAgreement",
          "type": "bytes32"
        }
      ],
      "stateMutability": "view",
      "type": "function"
    },
    {
      "inputs": [
        {
          "internalType": "address",
          "name": "sender",
          "type": "address"
        },
        {
          "internalType": "address",
          "name": "receiver",
          "type": "address"
        },
        {
          "components": [
            {
              "components": [
                {
                  "internalType": "string",
                  "name": "lat",
                  "type": "string"
                },
                {
                  "internalType": "string",
                  "name": "lng",
                  "type": "string"
                }
              ],
              "internalType": "struct Ausys.Location",
              "name": "startLocation",
              "type": "tuple"
            },
            {
              "components": [
                {
                  "internalType": "string",
                  "name": "lat",
                  "type": "string"
                },
                {
                  "internalType": "string",
                  "name": "lng",
                  "type": "string"
                }
              ],
              "internalType": "struct Ausys.Location",
              "name": "endLocation",
              "type": "tuple"
            },
            {
              "internalType": "string",
              "name": "startName",
              "type": "string"
            },
            {
              "internalType": "string",
              "name": "endName",
              "type": "string"
            }
          ],
          "internalType": "struct Ausys.ParcelData",
          "name": "_data",
          "type": "tuple"
        },
        {
          "internalType": "uint256",
          "name": "bounty",
          "type": "uint256"
        },
        {
          "internalType": "uint256",
          "name": "ETA",
          "type": "uint256"
        }
      ],
      "name": "journeyCreation",
      "outputs": [],
      "stateMutability": "nonpayable",
      "type": "function"
    },
    {
      "inputs": [],
      "name": "journeyIdCounter",
      "outputs": [
        {
          "internalType": "uint256",
          "name": "",
          "type": "uint256"
        }
      ],
      "stateMutability": "view",
      "type": "function"
    },
    {
      "inputs": [
        {
          "internalType": "bytes32",
          "name": "",
          "type": "bytes32"
        }
      ],
      "name": "journeyToOrderId",
      "outputs": [
        {
          "internalType": "bytes32",
          "name": "",
          "type": "bytes32"
        }
      ],
      "stateMutability": "view",
      "type": "function"
    },
    {
      "inputs": [
        {
          "internalType": "address",
          "name": "",
          "type": "address"
        },
        {
          "internalType": "address",
          "name": "",
          "type": "address"
        },
        {
          "internalType": "uint256[]",
          "name": "",
          "type": "uint256[]"
        },
        {
          "internalType": "uint256[]",
          "name": "",
          "type": "uint256[]"
        },
        {
          "internalType": "bytes",
          "name": "",
          "type": "bytes"
        }
      ],
      "name": "onERC1155BatchReceived",
      "outputs": [
        {
          "internalType": "bytes4",
          "name": "",
          "type": "bytes4"
        }
      ],
      "stateMutability": "nonpayable",
      "type": "function"
    },
    {
      "inputs": [
        {
          "internalType": "address",
          "name": "",
          "type": "address"
        },
        {
          "internalType": "address",
          "name": "",
          "type": "address"
        },
        {
          "internalType": "uint256",
          "name": "",
          "type": "uint256"
        },
        {
          "internalType": "uint256",
          "name": "",
          "type": "uint256"
        },
        {
          "internalType": "bytes",
          "name": "",
          "type": "bytes"
        }
      ],
      "name": "onERC1155Received",
      "outputs": [
        {
          "internalType": "bytes4",
          "name": "",
          "type": "bytes4"
        }
      ],
      "stateMutability": "nonpayable",
      "type": "function"
    },
    {
      "inputs": [
        {
          "components": [
            {
              "internalType": "bytes32",
              "name": "id",
              "type": "bytes32"
            },
            {
              "internalType": "address",
              "name": "token",
              "type": "address"
            },
            {
              "internalType": "uint256",
              "name": "tokenId",
              "type": "uint256"
            },
            {
              "internalType": "uint256",
              "name": "tokenQuantity",
              "type": "uint256"
            },
            {
              "internalType": "uint256",
              "name": "price",
              "type": "uint256"
            },
            {
              "internalType": "uint256",
              "name": "txFee",
              "type": "uint256"
            },
            {
              "internalType": "address",
              "name": "buyer",
              "type": "address"
            },
            {
              "internalType": "address",
              "name": "seller",
              "type": "address"
            },
            {
              "internalType": "bytes32[]",
              "name": "journeyIds",
              "type": "bytes32[]"
            },
            {
              "internalType": "address[]",
              "name": "nodes",
              "type": "address[]"
            },
            {
              "components": [
                {
                  "components": [
                    {
                      "internalType": "string",
                      "name": "lat",
                      "type": "string"
                    },
                    {
                      "internalType": "string",
                      "name": "lng",
                      "type": "string"
                    }
                  ],
                  "internalType": "struct Ausys.Location",
                  "name": "startLocation",
                  "type": "tuple"
                },
                {
                  "components": [
                    {
                      "internalType": "string",
                      "name": "lat",
                      "type": "string"
                    },
                    {
                      "internalType": "string",
                      "name": "lng",
                      "type": "string"
                    }
                  ],
                  "internalType": "struct Ausys.Location",
                  "name": "endLocation",
                  "type": "tuple"
                },
                {
                  "internalType": "string",
                  "name": "startName",
                  "type": "string"
                },
                {
                  "internalType": "string",
                  "name": "endName",
                  "type": "string"
                }
              ],
              "internalType": "struct Ausys.ParcelData",
              "name": "locationData",
              "type": "tuple"
            },
            {
              "internalType": "enum Ausys.OrderStatus",
              "name": "currentStatus",
              "type": "uint8"
            },
            {
              "internalType": "bytes32",
              "name": "contractualAgreement",
              "type": "bytes32"
            }
          ],
          "internalType": "struct Ausys.Order",
          "name": "order",
          "type": "tuple"
        }
      ],
      "name": "orderCreation",
      "outputs": [
        {
          "internalType": "bytes32",
          "name": "",
          "type": "bytes32"
        }
      ],
      "stateMutability": "nonpayable",
      "type": "function"
    },
    {
      "inputs": [],
      "name": "orderIdCounter",
      "outputs": [
        {
          "internalType": "uint256",
          "name": "",
          "type": "uint256"
        }
      ],
      "stateMutability": "view",
      "type": "function"
    },
    {
      "inputs": [
        {
          "internalType": "uint256",
          "name": "",
          "type": "uint256"
        }
      ],
      "name": "orderIds",
      "outputs": [
        {
          "internalType": "bytes32",
          "name": "",
          "type": "bytes32"
        }
      ],
      "stateMutability": "view",
      "type": "function"
    },
    {
      "inputs": [
        {
          "internalType": "bytes32",
          "name": "orderId",
          "type": "bytes32"
        },
        {
          "internalType": "address",
          "name": "sender",
          "type": "address"
        },
        {
          "internalType": "address",
          "name": "receiver",
          "type": "address"
        },
        {
          "components": [
            {
              "components": [
                {
                  "internalType": "string",
                  "name": "lat",
                  "type": "string"
                },
                {
                  "internalType": "string",
                  "name": "lng",
                  "type": "string"
                }
              ],
              "internalType": "struct Ausys.Location",
              "name": "startLocation",
              "type": "tuple"
            },
            {
              "components": [
                {
                  "internalType": "string",
                  "name": "lat",
                  "type": "string"
                },
                {
                  "internalType": "string",
                  "name": "lng",
                  "type": "string"
                }
              ],
              "internalType": "struct Ausys.Location",
              "name": "endLocation",
              "type": "tuple"
            },
            {
              "internalType": "string",
              "name": "startName",
              "type": "string"
            },
            {
              "internalType": "string",
              "name": "endName",
              "type": "string"
            }
          ],
          "internalType": "struct Ausys.ParcelData",
          "name": "_data",
          "type": "tuple"
        },
        {
          "internalType": "uint256",
          "name": "bounty",
          "type": "uint256"
        },
        {
          "internalType": "uint256",
          "name": "ETA",
          "type": "uint256"
        },
        {
          "internalType": "uint256",
          "name": "tokenQuantity",
          "type": "uint256"
        },
        {
          "internalType": "uint256",
          "name": "assetId",
          "type": "uint256"
        }
      ],
      "name": "orderJourneyCreation",
      "outputs": [],
      "stateMutability": "nonpayable",
      "type": "function"
    },
    {
      "inputs": [],
      "name": "owner",
      "outputs": [
        {
          "internalType": "address",
          "name": "",
          "type": "address"
        }
      ],
      "stateMutability": "view",
      "type": "function"
    },
    {
      "inputs": [
        {
          "internalType": "bytes32",
          "name": "id",
          "type": "bytes32"
        }
      ],
      "name": "packageSign",
      "outputs": [],
      "stateMutability": "nonpayable",
      "type": "function"
    },
    {
      "inputs": [],
      "name": "renounceOwnership",
      "outputs": [],
      "stateMutability": "nonpayable",
      "type": "function"
    },
    {
      "inputs": [
        {
          "internalType": "bytes32",
          "name": "role",
          "type": "bytes32"
        },
        {
          "internalType": "address",
          "name": "account",
          "type": "address"
        }
      ],
      "name": "renounceRole",
      "outputs": [],
      "stateMutability": "nonpayable",
      "type": "function"
    },
    {
      "inputs": [
        {
          "internalType": "address",
          "name": "admin",
          "type": "address"
        }
      ],
      "name": "revokeAdmin",
      "outputs": [],
      "stateMutability": "nonpayable",
      "type": "function"
    },
    {
      "inputs": [
        {
          "internalType": "bytes32",
          "name": "role",
          "type": "bytes32"
        },
        {
          "internalType": "address",
          "name": "account",
          "type": "address"
        }
      ],
      "name": "revokeRole",
      "outputs": [],
      "stateMutability": "nonpayable",
      "type": "function"
    },
    {
      "inputs": [
        {
          "internalType": "address",
          "name": "admin",
          "type": "address"
        }
      ],
      "name": "setAdmin",
      "outputs": [],
      "stateMutability": "nonpayable",
      "type": "function"
    },
    {
      "inputs": [
        {
          "internalType": "address",
          "name": "dispatcher",
          "type": "address"
        },
        {
          "internalType": "bool",
          "name": "enable",
          "type": "bool"
        }
      ],
      "name": "setDispatcher",
      "outputs": [],
      "stateMutability": "nonpayable",
      "type": "function"
    },
    {
      "inputs": [
        {
          "internalType": "address",
          "name": "driver",
          "type": "address"
        },
        {
          "internalType": "bool",
          "name": "enable",
          "type": "bool"
        }
      ],
      "name": "setDriver",
      "outputs": [],
      "stateMutability": "nonpayable",
      "type": "function"
    },
    {
      "inputs": [
        {
          "internalType": "contract AurumNodeManager",
          "name": "_nodeManager",
          "type": "address"
        }
      ],
      "name": "setNodeManager",
      "outputs": [],
      "stateMutability": "nonpayable",
      "type": "function"
    },
    {
      "inputs": [
        {
          "internalType": "bytes4",
          "name": "interfaceId",
          "type": "bytes4"
        }
      ],
      "name": "supportsInterface",
      "outputs": [
        {
          "internalType": "bool",
          "name": "",
          "type": "bool"
        }
      ],
      "stateMutability": "view",
      "type": "function"
    },
    {
      "inputs": [
        {
          "internalType": "address",
          "name": "newOwner",
          "type": "address"
        }
      ],
      "name": "transferOwnership",
      "outputs": [],
      "stateMutability": "nonpayable",
      "type": "function"
    }
  ],
  "bytecode": "0x6080346101b457601f6152e738819003918201601f19168301916001600160401b038311848410176101b9578084926020946040528339810103126101b457516001600160a01b038116908190036101b457600160008181558154336001600160a01b0319821681179093556001600160a01b0316907f8be0079c531659141344cd1fd0a4f28419497f9722a3daafe3b4186f6b6457e09080a36000600e819055600f819055600380546001600160a01b031916929092179091553381526000805160206152a7833981519152602052604090205460ff1615610174575b3360009081526000805160206152c7833981519152602052604090205460ff1615610112575b6040516150b790816101d08239f35b3360008181526000805160206152c783398151915260205260408120805460ff1916600117905581907fa49807205ce4d355092ef5a8a18f56e8913cf4a201fbe287825b095693c21775906000805160206152878339815191529080a4610103565b3360008181526000805160206152a783398151915260205260408120805460ff1916600117905581906000805160206152878339815191528180a46100dd565b600080fd5b634e487b7160e01b600052604160045260246000fdfe608080604052600436101561001357600080fd5b600090813560e01c90816301ffc9a7146141f15750806308ec3824146141d35780631319e7e11461418e5780631ba5c00f146140c05780632372208414614050578063248a9ca31461401a578063260ff43d14613ec45780632d34567014613e155780632f2ff15d14613d6557806336568abe14613cd257806347aac09d14613c895780634a00787a14613b4f5780635306bb14146138f157806356537593146138c85780635778472a146135b95780636d205a9114612cdd5780636d94151c14612cb3578063704b6c0214612bd6578063715018a614612b7957806375b238fc14612b50578063876244b614612a165780638da39f60146128845780638da5cb5b1461285b57806391d1485414612812578063982e2f98146127bb5780639b21e582146127725780639c62a59a146127295780639d99e4181461223b5780639ef5aee914612212578063a217fddf146121f6578063a787248a1461211f578063acfd0a791461142f578063b696c54f146106f3578063bc197c811461065d578063bd58cea41461035a578063be3744231461033c578063d547741f146102f3578063f23a6e61146102995763f2fde38b146101ce57600080fd5b34610296576020366003190112610296576101e761456f565b6101ef614925565b6001600160a01b0316801561024257600180546001600160a01b0319811683179091556001600160a01b03167f8be0079c531659141344cd1fd0a4f28419497f9722a3daafe3b4186f6b6457e08380a380f35b60405162461bcd60e51b815260206004820152602660248201527f4f776e61626c653a206e6577206f776e657220697320746865207a65726f206160448201526564647265737360d01b6064820152608490fd5b80fd5b50346102965760a0366003190112610296576102b361456f565b506102bc61458a565b506084356001600160401b0381116102ef576102dc9036906004016145fe565b5060405163f23a6e6160e01b8152602090f35b5080fd5b50346102965760403660031901126102965761033960043561031361458a565b9061033461032f82600052600260205260016040600020015490565b614af8565b61497d565b80f35b50346102965780600319360112610296576020600f54604051908152f35b5034610296576020366003190112610296576004359081815260096020526040812060018060a01b03600782015460081c163314908115610646575b811561062f575b501561062057818152600960205260ff6007604083200154166103bf81614521565b610611576103cb614b38565b8181526009602052604081209160018060a01b036009840154168252600b6020526040822081835260205260ff6040832054161561060257600783019260018060a01b03845460081c1690818452600a6020526040842083855260205260ff604085205416156105f357600a429101558252600a602052604082208183526020526040822060ff198154169055600160ff19845416178355807f1a75ca18929567ba294eca8af9f90a494f02cfce73c1492a390adf716a919592602060405160018152a280825260076020526040822054825260066020526040822060108101805460ff81166104ba81614521565b156105aa575b5050835460078201546001600160a01b03908116929160081c168214610529575b50507f1a75ca18929567ba294eca8af9f90a494f02cfce73c1492a390adf716a919592602060ff60019554166040519061051a81614521565b8152a255602060405160018152f35b60018060a01b03600182015416906003600282015491015492823b156105a65791610571939186809460405196879586948593637921219560e11b8552309060048601614853565b03925af1801561059b57610586575b806104e1565b61059183809261431e565b6102ef5738610580565b6040513d85823e3d90fd5b8580fd5b60019060ff1916179055818352600760205260408320547f7911d3e33ea22efc46a7d349370a83ab304c214048076037a23443e95da88ee1602060405160018152a238806104c0565b634b2c075160e01b8452600484fd5b639651c94760e01b8252600482fd5b6396676d3f60e01b8152600490fd5b63166f401760e11b8152600490fd5b600801546001600160a01b0316331490503861039d565b60098101546001600160a01b031633149150610396565b50346102965760a03660031901126102965761067761456f565b5061068061458a565b506044356001600160401b0381116102ef576106a0903690600401614756565b506064356001600160401b0381116102ef576106c0903690600401614756565b506084356001600160401b0381116102ef576106e09036906004016145fe565b5060405163bc197c8160e01b8152602090f35b5034610296576101003660031901126102965761070e61458a565b6044356001600160a01b038116810361142b576064356001600160401b038111610d0b5761074090369060040161469d565b9060843560a4359060043586526006602052604086209160248760018060a01b0360045416604051928380926313a4120960e31b825260018060a01b038a1660048301525afa9081156114205788916111f4575b50602001516006840180549092916001600160a01b0391909116906001600160f81b031916600160f81b1415806111e1575b6111d257331415806111a0575b61119157428111156111825760c43515611173577f4fbba82c7ac2d3085ee7a8b5f858464eef150708109bc1fe981b0956c76d93d591602091610814614b8e565b604051986108218a6142cc565b895283890152604088018a90526001600160a01b0389811660608a015287811660808a015260a089018b905260c089018b905260e089018b905261010089018690526101208901919091526003548254610882928792309282169116614bbf565b546040519384526001600160a01b031692a2602083015185526009602052604085208351805180518051906001600160401b038211611017576108c58554614260565b601f8111611143575b50602090601f83116001146110dd5760209392918b91836110d2575b50508160011b916000199060031b1c19161784555b01518051906001600160401b038211610eb25781906109216001860154614260565b601f811161109f575b50602090601f8311600114611036578a9261102b575b50508160011b916000199060031b1c19161760018301555b602081015180518051906001600160401b0382116110175761097d6002860154614260565b601f8111610fe4575b50602090601f8311600114610f785760209392918b9183610f6d575b50508160011b916000199060031b1c19161760028501555b01518051906001600160401b038211610eb25781906109dc6003860154614260565b601f8111610f3a575b50602090601f8311600114610ed1578a92610ec6575b50508160011b916000199060031b1c19161760038301555b60408101518051906001600160401b038211610eb257610a366004850154614260565b601f8111610e7f575b50602090601f8311600114610e135760609392918a9183610e08575b50508160011b916000199060031b1c19161760048401555b01518051906001600160401b038211610df457908291610a9860058a96950154614260565b601f8111610db6575b50602090601f8311600114610d475785919083610d3c575b50508160011b916000199060031b1c19161760058201555b6020850151600682015560078101610af66040870151610af081614521565b8261483b565b60608601518154610100600160a81b031916600891821b610100600160a81b031617909155608086015182820180546001600160a01b03199081166001600160a01b039384161790915560a0880151600985018054909216921691909117905560c0860151600a83015560e0860151600b830155610100860151600c830155610120860151600d909201919091556004358352600660209081526040842090860151610ba4929091016147b3565b6004358252600660205260ff601060408420015416610bc281614521565b15610d1e575b60208401518252600760205260043560408320556004358252600660205260018060a01b036001604084200154169060405191610c0483614303565b8252602082019160e435835260408101848152606082019085825260018060a01b036004541693600760018060a01b039101541690843b15610d1a5760405163e896eacb60e01b8152600481019290925292516001600160a01b03166024820152935160448501529051606484015251608483015260c4803560a48401528391839190829084905af18015610d0f57610cf6575b505060209060043585526006825260036040862001610cba60c4358254614897565b90559101516001600160a01b0391821692909116907fe95fbbb47c61a66e1d1014871befe16b0a21eb24fa7c69a23eb47619fa0fdf938480a480f35b81610d009161431e565b610d0b578338610c98565b8380fd5b6040513d84823e3d90fd5b8680fd5b6004358252600660205260408220601001805460ff19169055610bc8565b015190503880610ab9565b9060058401865280862091865b601f1985168110610d9b575090839291600194601f19811610610d82575b505050811b016005820155610ad1565b015160001960f88460031b161c19169055388080610d72565b8183015184558b975060019093019260209283019201610d54565b610de49060058501875260208720601f850160051c81019160208610610dea575b601f0160051c0190614824565b38610aa1565b9091508190610dd7565b634e487b7160e01b88526041600452602488fd5b015190503880610a5b565b600485018a52818a209190601f1984168b5b818110610e675750916001939185606097969410610e4e575b505050811b016004840155610a73565b015160001960f88460031b161c19169055388080610e3e565b92936020600181928786015181550195019301610e25565b610eac90600486018b5260208b20601f850160051c81019160208610610dea57601f0160051c0190614824565b38610a3f565b634e487b7160e01b89526041600452602489fd5b0151905038806109fb565b600386018b52818b209250601f1984168b5b818110610f225750908460019594939210610f09575b505050811b016003830155610a13565b015160001960f88460031b161c19169055388080610ef9565b92936020600181928786015181550195019301610ee3565b610f6790600387018c5260208c20601f850160051c81019160208610610dea57601f0160051c0190614824565b386109e5565b0151905038806109a2565b600286018b52818b209190601f1984168c5b818110610fcc5750916001939185602097969410610fb3575b505050811b0160028501556109ba565b015160001960f88460031b161c19169055388080610fa3565b92936020600181928786015181550195019301610f8a565b61101190600287018c5260208c20601f850160051c81019160208610610dea57601f0160051c0190614824565b38610986565b634e487b7160e01b8a52604160045260248afd5b015190503880610940565b600186018b52818b209250601f1984168b5b818110611087575090846001959493921061106e575b505050811b016001830155610958565b015160001960f88460031b161c1916905538808061105e565b92936020600181928786015181550195019301611048565b6110cc90600187018c5260208c20601f850160051c81019160208610610dea57601f0160051c0190614824565b3861092a565b0151905038806108ea565b858b52818b209190601f1984168c5b81811061112b5750916001939185602097969410611112575b505050811b0184556108ff565b015160001960f88460031b161c19169055388080611105565b929360206001819287860151815501950193016110ec565b61116d90868c5260208c20601f850160051c81019160208610610dea57601f0160051c0190614824565b386108ce565b63162908e360e11b8852600488fd5b630a00ec8b60e31b8852600488fd5b6348f5c3ed60e01b8852600488fd5b506000805160206150428339815191528852600260209081526040808a20336000908152925290205460ff16156107d3565b63184096a160e11b8952600489fd5b506001600160a01b0386168114156107c6565b90503d8089833e611205818361431e565b810190602081830312611418578051906001600160401b03821161141c570160a081830312611418576040519160a083018381106001600160401b038211176114045760405281516001600160401b0381116113f85782016040818303126113f85760405190611274826142e8565b80516001600160401b03811161140057836112909183016148ba565b82526020810151906001600160401b03821161140057016040818403126113fc57604051906112be826142e8565b80516001600160401b0381116113f457846112da9183016148ba565b82526020810151906001600160401b0382116113f4576112fc918591016148ba565b602082015260208201528352611314602083016148fc565b602084015261132560408301614911565b604084015260608201516001600160401b0381116113f857820181601f820112156113f8578051906113568261473f565b92611364604051948561431e565b82845260208085019360071b830101918183116113f457602001925b8284106113a75750505050606083015261139c906080016148fc565b608082015238610794565b6080848303126113f45760206080916040516113c281614303565b6113cb87614911565b815282870151838201526040870151604082015260608701516060820152815201930192611380565b8d80fd5b8a80fd5b8b80fd5b8c80fd5b634e487b7160e01b8b52604160045260248bfd5b8880fd5b8980fd5b6040513d8a823e3d90fd5b8280fd5b503461029657602036600319011261029657600435906001600160401b038211610296576101a06003198336030112610296576040519061146f8261429a565b82600401358252611482602484016145a0565b602083019081526040830192604485013584526060810160648601358152608082016084870135815260a083019560a488013587526114c360c489016145a0565b9360c081019485526114d760e48a016145a0565b9460e082019586526101048a01356001600160401b038111611418578a019036602383011215611418576004820135916115108361473f565b9261151e604051948561431e565b808452602060048186019260051b84010101913683116113fc57602401905b82821061210f5750505061010083019182526101248b01356001600160401b03811161141c578b01923660238501121561141c576004840135936115808561473f565b9461158e604051968761431e565b808652602060048188019260051b840101019136831161140057602401905b8282106120f75750505061012081019384526101448c01356001600160401b0381116113f8578c60046115e3923692010161469d565b9b61014082019c8d526101648101359360048510156113fc57610160830194855261018461018084019201358252611619614b38565b83516001600160a01b03161580156120e5575b80156120d3575b6120c4578751156120b55783518a516001600160a01b039081169116146120c4578851156120b557600f54600181018091116120a15780600f55604051602081019182526020815261168660408261431e565b5190209c8d8d52600660205260408d209351845560018060a01b038c5116600185019060018060a01b03166001600160601b0360a01b82541617905587516002850155895160038501558851600485015551600584015560018060a01b03845116600684019060018060a01b03166001600160601b0360a01b82541617905560018060a01b038a5116600784019060018060a01b03166001600160601b0360a01b825416179055600883019051908151916001600160401b038311611cd857600160401b8311611cd8578154838355838f828210612077575b505050602001908d5260208d208d5b8381106120635750505050600982018551908151916001600160401b038311611cd857600160401b8311611cd8576020908e835485855585818110612048575b50505001908d5260208d208d5b83811061202b5750505050600a8201908d519182519081518051906001600160401b038211611eda578f82916117f18554614260565b601f8111611ffb575b50602091601f8411600114611f985792611f8d575b50508160011b916000199060031b1c19161790555b602001518051600b8501916001600160401b038211611d8a578e829161184a8554614260565b601f8111611f5d575b50602091601f8411600114611efa5792611eef575b50508160011b916000199060031b1c19161790555b602082015180518051600c8601916001600160401b038211611eda578f82916118a68554614260565b601f8111611eaa575b50602091601f8411600114611e475792611e3c575b50508160011b916000199060031b1c19161790555b602001518051600d8501916001600160401b038211611d8a578e82916118ff8554614260565b601f8111611e0c575b50602091601f8411600114611da95792611d9e575b50508160011b916000199060031b1c19161790555b600e830160408301518051906001600160401b038211611d8a578e82916119598554614260565b601f8111611d5a575b50602091601f8411600114611cf75792611cec575b50508160011b916000199060031b1c19161790555b6060600f84019201519182516001600160401b038111611cd8578d6119b18354614260565b601f8111611ca8575b50508d602090601f8311600114611c3f579060119583611c34575b50508160011b916000199060031b1c19161790555b611a0185516119f881614521565b6010850161483b565b519101558989526006602052601060408a200160ff19815416905589895260066020528960408a205584518060011b9080820460021490151715611c20576064908b8b52600660205204600560408b200155600554600160401b8110156110175790897f4fbba82c7ac2d3085ee7a8b5f858464eef150708109bc1fe981b0956c76d93d56020611b198e80611abc611aa589600160ff9d9c9b016005556005614541565b819391549060031b91821b91600019901b19161790565b905560035486518c51838852600686526040882060050154611af8936001600160a01b03938416931691611af09190614897565b913091614bbf565b6005604060018060a01b03885116968d519381526006865220015490614897565b604051908152a251965197519351955194518a8a52600660205260408a206005015491516001600160a01b03998a1699988916989095169492611b5b84614521565b611b6484614521565b519b519560405197610120890196895260208901528060408901526060880152608087015260a08601521660c084015261012060e0840152875180915260206101408401980190865b818110611c01575050507fb1cec21eede76af4e5554de2e170ba032c4000e4f81414b2d53a5d76eebc27b98280611bf58a8a9560019a99989760209d036101008501526144cd565b0390a455604051908152f35b82516001600160a01b03168a526020998a019990920191600101611bad565b634e487b7160e01b8a52601160045260248afd5b0151905038806119d5565b91929394601f198416858452828420935b818110611c90575091600193918560119897969410611c77575b505050811b0190556119ea565b015160001960f88460031b161c19169055388080611c6a565b92936020600181928786015181550195019301611c50565b60208285611cd1945220601f840160051c81019160208510610dea57601f0160051c0190614824565b8d386119ba565b634e487b7160e01b8e52604160045260248efd5b015190503880611977565b8581528281209350601f198516905b818110611d425750908460019594939210611d29575b505050811b01905561198c565b015160001960f88460031b161c19169055388080611d1c565b92936020600181928786015181550195019301611d06565b611d849086845260208420601f860160051c81019160208710610dea57601f0160051c0190614824565b38611962565b634e487b7160e01b8f52604160045260248ffd5b01519050388061191d565b8581528281209350601f198516905b818110611df45750908460019594939210611ddb575b505050811b019055611932565b015160001960f88460031b161c19169055388080611dce565b92936020600181928786015181550195019301611db8565b611e369086845260208420601f860160051c81019160208710610dea57601f0160051c0190614824565b38611908565b0151905038806118c4565b8581528281209350601f198516905b818110611e925750908460019594939210611e79575b505050811b0190556118d9565b015160001960f88460031b161c19169055388080611e6c565b92936020600181928786015181550195019301611e56565b611ed49086845260208420601f860160051c81019160208710610dea57601f0160051c0190614824565b386118af565b50634e487b7160e01b8f52604160045260248ffd5b015190503880611868565b8581528281209350601f198516905b818110611f455750908460019594939210611f2c575b505050811b01905561187d565b015160001960f88460031b161c19169055388080611f1f565b92936020600181928786015181550195019301611f09565b611f879086845260208420601f860160051c81019160208710610dea57601f0160051c0190614824565b38611853565b01519050388061180f565b8581528281209350601f198516905b818110611fe35750908460019594939210611fca575b505050811b019055611824565b015160001960f88460031b161c19169055388080611fbd565b92936020600181928786015181550195019301611fa7565b6120259086845260208420601f860160051c81019160208710610dea57601f0160051c0190614824565b386117fa565b82516001600160a01b0316818301556020909201916001016117bb565b84838761205b9552209182019101614824565b8e38856117ae565b60019060208451940193818401550161176e565b8481526020812092830192860191505b8282106120965785915061175f565b81556001018f612087565b634e487b7160e01b8d52601160045260248dfd5b63162908e360e11b8c5260048cfd5b63e6c4247b60e01b8c5260048cfd5b508a516001600160a01b031615611633565b5089516001600160a01b03161561162c565b60208091612104846145a0565b8152019101906115ad565b813581526020918201910161153d565b5034610296576020366003190112610296576040906004358152600660205220805460018060a01b036001830154169160028101546121dc60038301546004840154600585015460018060a01b036006870154169060018060a01b036007880154169261218e600a890161440f565b94601160ff60108b015416990154976040519b8c9b8c5260208c015260408b015260608a0152608089015260a088015260c087015260e08601526101606101008601526101608501906144cd565b916121e681614521565b6101208401526101408301520390f35b5034610296578060031936011261029657602090604051908152f35b503461029657806003193601126102965760206040516000805160206150628339815191528152f35b503461029657602036600319011261029657600435908181526009602052600160ff60076040842001541661226f81614521565b0361271a5781815260096020526040812060078101543360089190911c6001600160a01b031614908115612703575b81156126ec575b5015610620576122b3614b38565b81815260096020526040812091808252600760205260408220548252600660205260408220926010840190600260ff8354166122ee81614521565b146126de5760098101546001600160a01b03168452600c6020908152604080862085875290915284205460ff16156126cf57600881019060018060a01b038254168552600a6020526040852084865260205260ff604086205416156126c05760078101600260ff19825416179055600b42910155827f1a75ca18929567ba294eca8af9f90a494f02cfce73c1492a390adf716a919592602060405160028152a28284526009602052600260ff6007604087200154166123ac81614521565b036126b157828452600d60205260ff6040852054166126a257828452600d60209081526040808620805460ff19166001179055848652600991829052852060035491810154600c9091015461240f9290916001600160a01b039081169116614c08565b5460068501546001600160a01b039081169291168214612439575b60018455602060405160018152f35b83929350600260ff19825416179055828252600760205260408220547f7911d3e33ea22efc46a7d349370a83ab304c214048076037a23443e95da88ee1602060405160028152a260018060a01b036001850154166002850154600386015492823b1561269e57916124c6939185809460405196879586948593637921219560e11b85523060048601614853565b03925af18015610d0f5761268e575b509060018060a01b03600354167fcb4a9094da4df77fb2c0dbaa5047660b1237e61d82a02176c1be74ca757f253160206007860161252460018060a01b03825416946004890195865491614c08565b5492546040519081526001600160a01b0390931692a260098301805490811594851561258a575b505050600192508152600760205260408120547fd4250d6114a611e75d68b1c6f14c61e967863d8ac20bc8ebfa4e5f28f66473668280a238808061242a565b600501549461267a5781850482810281810484148215171561266657860395861161265257600195855b8481106125c257505061254b565b879080612649576125d4835b85614897565b61260081848060a01b03600354166125ec858a614541565b878060a01b0391549060031b1c1690614c08565b7f03dec068f82c9920a9e652806929c04dfb2e80a427660a62537e21d1997ef731602061262d8489614541565b868060a01b0391549060031b1c1692604051908152a2016125b4565b6125d4886125ce565b634e487b7160e01b85526011600452602485fd5b634e487b7160e01b86526011600452602486fd5b634e487b7160e01b84526012600452602484fd5b816126989161431e565b386124d5565b8480fd5b6302cc018560e31b8452600484fd5b63f6a1628360e01b8452600484fd5b6302693de160e11b8552600485fd5b639651c94760e01b8452600484fd5b62560ff960e81b8452600484fd5b600801546001600160a01b031633149050386122a5565b60098101546001600160a01b03163314915061229e565b636a6a451560e11b8152600490fd5b50346102965760403660031901126102965760209060ff906040906001600160a01b0361275461456f565b168152600b8452818120602435825284522054166040519015158152f35b50346102965760403660031901126102965760209060ff906040906001600160a01b0361279d61456f565b168152600a8452818120602435825284522054166040519015158152f35b5034610296576040366003190112610296576127d561456f565b6001600160a01b03168152600860205260408120805460243592908310156102965760206128038484614541565b90549060031b1c604051908152f35b50346102965760403660031901126102965760ff604060209261283361458a565b6004358252600285528282206001600160a01b03909116825284522054604051911615158152f35b50346102965780600319360112610296576001546040516001600160a01b039091168152602090f35b5034610296576020366003190112610296576040816129bf9261012083516128ab816142cc565b6128b36147f2565b815282602082015282858201528260608201528260808201528260a08201528260c08201528260e08201528261010082015201526004358152600960205220604051906128ff826142cc565b6129088161440f565b825260068101546020830190815260078201549091604084019160ff811661292f81614521565b8352606085019060018060a01b039060081c16815260018060a01b036008830154166080860190815260018060a01b0360098401541660a08701908152600a8401549160c08801928352600b8501549360e08901948552600d600c870154966101008b019788520154966101208a019788526040519a8b9a60208c525161014060208d01526101608c01906144cd565b985160408b0152516129d081614521565b60608a0152516001600160a01b0390811660808a01529051811660a089015290511660c08701525160e08601525161010085015251610120840152516101408301520390f35b503461029657612a25366145b4565b612a2d6149f1565b15612ac35760008051602061506283398151915282526002602090815260408084206001600160a01b038416855290915282205460ff1615612a6d575080f35b6000805160206150628339815191528083526002602090815260408085206001600160a01b0394909416808652939091528320805460ff19166001179055339190600080516020614fe28339815191528480a480f35b60008051602061506283398151915282526002602090815260408084206001600160a01b038416855290915282205460ff16612afd575080f35b6000805160206150628339815191528083526002602090815260408085206001600160a01b0394909416808652939091528320805460ff191690553391906000805160206150228339815191528480a480f35b503461029657806003193601126102965760206040516000805160206150428339815191528152f35b5034610296578060031936011261029657612b92614925565b600180546001600160a01b0319811690915581906001600160a01b03167f8be0079c531659141344cd1fd0a4f28419497f9722a3daafe3b4186f6b6457e08280a380f35b503461029657602036600319011261029657612bf061456f565b612bf8614925565b60008051602061504283398151915282526002602090815260408084206001600160a01b038416855290915282205460ff1615612c60575b6001600160a01b03167f8fe72c3e0020beb3234e76ae6676fa576fbfcae600af1c4fea44784cf0db329c8280a280f35b6000805160206150428339815191528083526002602090815260408085206001600160a01b03851680875292528420805460ff191660011790553391600080516020614fe28339815191528580a4612c30565b50346102965760203660031901126102965760406020916004358152600783522054604051908152f35b50346102965760a036600319011261029657612cf761456f565b612cff61458a565b6044356001600160401b038111610d0b57612d1e90369060040161469d565b90608435612d2a614b38565b336001600160a01b038316141580613589575b61357a576001600160a01b038416158015613569575b61355a576064351561354b574281111561353c57612d6f614b8e565b60405193612d7c856142cc565b8452602080850182905260408086018890526001600160a01b0387811660608801528516608087015260a0860188905260c0860188905260e086018890526064356101008701526101208601939093529086526009905284208251805180518051906001600160401b038211610eb257612df68554614260565b601f811161350c575b50602090601f83116001146134a65760209392918a918361349b575b50508160011b916000199060031b1c19161784555b01518051906001600160401b038211610df4578190612e526001860154614260565b601f8111613468575b50602090601f83116001146133ff5789926133f4575b50508160011b916000199060031b1c19161760018301555b602081015180518051906001600160401b038211610eb257612eae6002860154614260565b601f81116133c1575b50602090601f83116001146133555760209392918a918361334a575b50508160011b916000199060031b1c19161760028501555b01518051906001600160401b038211610df4578190612f0d6003860154614260565b601f8111613317575b50602090601f83116001146132ae5789926132a3575b50508160011b916000199060031b1c19161760038301555b60408101518051906001600160401b038211610df457612f676004850154614260565b601f8111613270575b50602090601f83116001146132045760609392918991836131f9575b50508160011b916000199060031b1c19161760048401555b01518051906001600160401b0382116131e557612fc46005840154614260565b601f81116131b2575b50602090601f831160011461314257602094939291889183613137575b50508160011b916000199060031b1c19161760058201555b828401516006820155600781016130206040860151610af081614521565b60608501518154610100600160a81b031916600891821b610100600160a81b031617909155608085015190820180546001600160a01b03199081166001600160a01b039384161790915560a086015160098401805490921690831617905560c0850151600a83015560e0850151600b830155610100850151600c830155610120850151600d909201919091556003546130c191606435913091859116614bbf565b60405160643581526001600160a01b038216907f4fbba82c7ac2d3085ee7a8b5f858464eef150708109bc1fe981b0956c76d93d5908490a29101516001600160a01b0391821692909116907fe95fbbb47c61a66e1d1014871befe16b0a21eb24fa7c69a23eb47619fa0fdf938480a46001815580f35b015190503880612fea565b9060058401885280882091885b601f198516811061319a57509183916001936020979695601f19811610613181575b505050811b016005820155613002565b015160001960f88460031b161c19169055388080613171565b9192602060018192868501518155019401920161314f565b6131df9060058501895260208920601f850160051c81019160208610610dea57601f0160051c0190614824565b38612fcd565b634e487b7160e01b87526041600452602487fd5b015190503880612f8c565b6004850189528189209190601f1984168a5b818110613258575091600193918560609796941061323f575b505050811b016004840155612fa4565b015160001960f88460031b161c1916905538808061322f565b92936020600181928786015181550195019301613216565b61329d90600486018a5260208a20601f850160051c81019160208610610dea57601f0160051c0190614824565b38612f70565b015190503880612f2c565b600386018a52818a209250601f1984168a5b8181106132ff57509084600195949392106132e6575b505050811b016003830155612f44565b015160001960f88460031b161c191690553880806132d6565b929360206001819287860151815501950193016132c0565b61334490600387018b5260208b20601f850160051c81019160208610610dea57601f0160051c0190614824565b38612f16565b015190503880612ed3565b600286018a52818a209190601f1984168b5b8181106133a95750916001939185602097969410613390575b505050811b016002850155612eeb565b015160001960f88460031b161c19169055388080613380565b92936020600181928786015181550195019301613367565b6133ee90600287018b5260208b20601f850160051c81019160208610610dea57601f0160051c0190614824565b38612eb7565b015190503880612e71565b600186018a52818a209250601f1984168a5b8181106134505750908460019594939210613437575b505050811b016001830155612e89565b015160001960f88460031b161c19169055388080613427565b92936020600181928786015181550195019301613411565b61349590600187018b5260208b20601f850160051c81019160208610610dea57601f0160051c0190614824565b38612e5b565b015190503880612e1b565b858a52818a209190601f1984168b5b8181106134f457509160019391856020979694106134db575b505050811b018455612e30565b015160001960f88460031b161c191690553880806134ce565b929360206001819287860151815501950193016134b5565b61353690868b5260208b20601f850160051c81019160208610610dea57601f0160051c0190614824565b38612dff565b630a00ec8b60e31b8552600485fd5b63162908e360e11b8552600485fd5b63e6c4247b60e01b8552600485fd5b506001600160a01b03821615612d53565b6348f5c3ed60e01b8552600485fd5b50600080516020615042833981519152855260026020908152604080872033885290915285205460ff1615612d3d565b503461029657602036600319011261029657806101806040516135db8161429a565b8281528260208201528260408201528260608201528260808201528260a08201528260c08201528260e0820152606061010082015260606101208201526136206147f2565b6101408201528261016082015201526004358152600660205260408120906040519161364b8361429a565b8054835260018060a01b03600182015416916020840192835260028201549060408501918252600383015460608601908152600484015460808701908152600585015460a0880190815260018060a01b0360068701541660c0890190815260018060a01b036007880154169160e08a01928352600888019360405194856020825491828152019189526020892090895b8181106138b257505050856136f191038661431e565b6101008b0194855260098901956040519687602082549182815201918a5260208a20908a5b8181106138935750505090878d9a999897969594939203613737908861431e565b6101208a0196875261374b600a8c0161440f565b986101408b01998a5260108c015460ff169b6101608c019c61376c81614521565b8d52601101549a610180019a8b52604051809d602082526101c082019f516020830152600160a01b6001900390511690604001525160608d01525160808c01525160a08b01525160c08a0152600160a01b6001900390511660e0890152600160a01b60019003905116610100880152519661012087016101a0905287518091526101e087019760200190835b81811061387d575050505195601f1986820301610140870152602080885192838152019701915b81811061385e5750505083946138429151601f19868303016101608701526144cd565b915161384d81614521565b610180840152516101a08301520390f35b82516001600160a01b031688526020978801979092019160010161381f565b82518a526020998a0199909201916001016137f8565b82546001600160a01b0316845260209093019260019283019201613716565b82548452602090930192600192830192016136db565b503461029657806003193601126102965760206040516000805160206150028339815191528152f35b50346102965760203660031901126102965760043580825260096020526040822060078101543360089190911c6001600160a01b031614908115613b38575b8115613b21575b5015613b125780825260096020526040822060078101805490919033600882901c6001600160a01b0316036139c75750508054600890811c6001600160a01b039081168552600a602090815260408087208688529091528520805460ff191660011790559154901c167fe9247524c4b37258acdda748f6d6c3de00c21bbe007405d32404851e082508b38380a380f35b909150600882019160018060a01b038354163314600014613a3c57505080546001600160a01b039081168452600a602090815260408086208587529091528420805460ff191660011790559054167fe9247524c4b37258acdda748f6d6c3de00c21bbe007405d32404851e082508b38380a380f35b60090180549092506001600160a01b031690338214613a5d575b5050505080f35b60ff16613a6981614521565b80613ad457505080546001600160a01b03168352600b602090815260408085208486529091528320805460ff191660011790555b546001600160a01b03167fe9247524c4b37258acdda748f6d6c3de00c21bbe007405d32404851e082508b38380a338808080613a56565b600190613ae081614521565b14613aec575b50613a9d565b8352600c6020526040832082845260205260408320600160ff1982541617905538613ae6565b63166f401760e11b8252600482fd5b600801546001600160a01b03163314905038613937565b60098101546001600160a01b031633149150613930565b503461029657613b5e366145b4565b613b666149f1565b15613bfc5760008051602061500283398151915282526002602090815260408084206001600160a01b038416855290915282205460ff1615613ba6575080f35b6000805160206150028339815191528083526002602090815260408085206001600160a01b0394909416808652939091528320805460ff19166001179055339190600080516020614fe28339815191528480a480f35b60008051602061500283398151915282526002602090815260408084206001600160a01b038416855290915282205460ff16613c36575080f35b6000805160206150028339815191528083526002602090815260408085206001600160a01b0394909416808652939091528320805460ff191690553391906000805160206150228339815191528480a480f35b50346102965760403660031901126102965760209060ff906040906001600160a01b03613cb461456f565b168152600c8452818120602435825284522054166040519015158152f35b503461029657604036600319011261029657613cec61458a565b336001600160a01b03821603613d08576103399060043561497d565b60405162461bcd60e51b815260206004820152602f60248201527f416363657373436f6e74726f6c3a2063616e206f6e6c792072656e6f756e636560448201526e103937b632b9903337b91039b2b63360891b6064820152608490fd5b503461029657604036600319011261029657600435613d8261458a565b90613d9e61032f82600052600260205260016040600020015490565b8083526002602090815260408085206001600160a01b038516865290915283205460ff1615613dcb578280f35b8083526002602090815260408085206001600160a01b0394909416808652939091528320805460ff19166001179055339190600080516020614fe28339815191528480a438808280f35b503461029657602036600319011261029657613e2f61456f565b613e37614925565b60008051602061504283398151915282526002602090815260408084206001600160a01b038416855290915282205460ff16613e71575080f35b6000805160206150428339815191528083526002602090815260408085206001600160a01b0394909416808652939091528320805460ff191690553391906000805160206150228339815191528480a480f35b503461029657604036600319011261029657613ede61456f565b60243590600080516020615002833981519152835260026020526040832060018060a01b038216845260205260ff60408420541615613fb5576001600160a01b03163381148015613feb575b8015613fc4575b15613fb5578083526008602052600a60408420541015613fa6578083526008602052613f6082604085206147b3565b81835260096020819052604084200180546001600160a01b031916821790557f1c9db0488564f25a3f5a31d9c8d0d9b7bc3ec8897ba83dba0511987c1b8cb9a78380a380f35b63d539116760e01b8352600483fd5b6348f5c3ed60e01b8352600483fd5b50818352600960205260408320600701543360089190911c6001600160a01b031614613f31565b50600080516020615062833981519152835260026020908152604080852033865290915283205460ff16613f2a565b5034610296576020366003190112610296576020614048600435600052600260205260016040600020015490565b604051908152f35b50346102965760203660031901126102965760043590600554821015610296576005548210156140ac57600590527f036b6384b5eca791c62761152d0c79bb0604c104a5fb6f4eb0703f3154bb3db00154604051908152602090f35b634e487b7160e01b81526032600452602490fd5b50346102965760203660031901126102965760406141459160043581526009602052206140ec8161440f565b9060068101549060078101549060ff82169160018060a01b0360088301541660018060a01b03600984015416600a84015491600b85015493600d600c870154960154966040519a8b9a6101408c526101408c01906144cd565b9860208b015261415481614521565b60408a015260081c6001600160a01b03166060890152608088015260a087015260c086015260e08501526101008401526101208301520390f35b5034610296576020366003190112610296576004356001600160a01b038116908190036102ef576141bd614925565b6001600160601b0360a01b600454161760045580f35b50346102965780600319360112610296576020600e54604051908152f35b9050346102ef5760203660031901126102ef5760043563ffffffff60e01b811680910361142b5760209250637965db0b60e01b8114908115614235575b5015158152f35b630271189760e51b81149150811561424f575b503861422e565b6301ffc9a760e01b14905038614248565b90600182811c92168015614290575b602083101461427a57565b634e487b7160e01b600052602260045260246000fd5b91607f169161426f565b6101a081019081106001600160401b038211176142b657604052565b634e487b7160e01b600052604160045260246000fd5b61014081019081106001600160401b038211176142b657604052565b604081019081106001600160401b038211176142b657604052565b608081019081106001600160401b038211176142b657604052565b90601f801991011681019081106001600160401b038211176142b657604052565b906040519182600082549261435384614260565b80845293600181169081156143c1575060011461437a575b506143789250038361431e565b565b90506000929192526020600020906000915b8183106143a5575050906020614378928201013861436b565b602091935080600191548385890101520191019091849261438c565b90506020925061437894915060ff191682840152151560051b8201013861436b565b906040516143f0816142e8565b602061440a600183956144028161433f565b85520161433f565b910152565b9060405161441c81614303565b606061440a6005839561442e816143e3565b855261443c600282016143e3565b602086015261444d6004820161433f565b60408601520161433f565b60005b83811061446b5750506000910152565b818101518382015260200161445b565b9060209161449481518092818552858086019101614458565b601f01601f1916010190565b6144ca9160206144b9835160408452604084019061447b565b92015190602081840391015261447b565b90565b6144ca9160606145106144fe6144ec85516080865260808601906144a0565b602086015185820360208701526144a0565b6040850151848203604086015261447b565b92015190606081840391015261447b565b6004111561452b57565b634e487b7160e01b600052602160045260246000fd5b80548210156145595760005260206000200190600090565b634e487b7160e01b600052603260045260246000fd5b600435906001600160a01b038216820361458557565b600080fd5b602435906001600160a01b038216820361458557565b35906001600160a01b038216820361458557565b6040906003190112614585576004356001600160a01b0381168103614585579060243580151581036145855790565b6001600160401b0381116142b657601f01601f191660200190565b81601f8201121561458557602081359101614618826145e3565b92614626604051948561431e565b828452828201116145855781600092602092838601378301015290565b9190604083820312614585576040519061465c826142e8565b819380356001600160401b038111614585578261467a9183016145fe565b83526020810135916001600160401b0383116145855760209261440a92016145fe565b919060808382031261458557604051906146b682614303565b819380356001600160401b03811161458557826146d4918301614643565b835260208101356001600160401b03811161458557826146f5918301614643565b602084015260408101356001600160401b03811161458557826147199183016145fe565b60408401526060810135916001600160401b0383116145855760609261440a92016145fe565b6001600160401b0381116142b65760051b60200190565b9080601f8301121561458557813561476d8161473f565b9261477b604051948561431e565b81845260208085019260051b82010192831161458557602001905b8282106147a35750505090565b8135815260209182019101614796565b805490600160401b8210156142b65781611aa59160016147d594018155614541565b9055565b604051906147e6826142e8565b60606020838281520152565b604051906147ff82614303565b6060808361480b6147d9565b81526148156147d9565b60208201528160408201520152565b81811061482f575050565b60008155600101614824565b9061484581614521565b60ff80198354169116179055565b6001600160a01b039182168152911660208201526040810191909152606081019190915260a06080820181905260029082015261060f60f31b60c082015260e00190565b919082018092116148a457565b634e487b7160e01b600052601160045260246000fd5b81601f820112156145855780516148d0816145e3565b926148de604051948561431e565b81845260208284010111614585576144ca9160208085019101614458565b51906001600160f81b03198216820361458557565b51906001600160a01b038216820361458557565b6001546001600160a01b0316330361493957565b606460405162461bcd60e51b815260206004820152602060248201527f4f776e61626c653a2063616c6c6572206973206e6f7420746865206f776e65726044820152fd5b806000526002602052604060002060018060a01b03831660005260205260ff604060002054166149ab575050565b60008181526002602090815260408083206001600160a01b0395909516808452949091528120805460ff19169055339291906000805160206150228339815191529080a4565b3360009081527fe5ebfa64fca8d502a8e50c1edffd2c31ef4dad5b396e65d9f397fb028f74abc5602052604090205460ff1615614a2a57565b614af4614a3633614d70565b614ad46011614a52600080516020615042833981519152614e9c565b9260376040519485927f416363657373436f6e74726f6c3a206163636f756e74200000000000000000006020850152614a948151809260208688019101614458565b83017001034b99036b4b9b9b4b733903937b6329607d1b83820152614ac3825180936020604885019101614458565b01010301601f19810183528261431e565b60405162461bcd60e51b815260206004820152918291602483019061447b565b0390fd5b600081815260026020908152604080832033845290915290205460ff1615614b1d5750565b614af490614ad46011614a52614b3233614d70565b93614e9c565b600260005414614b49576002600055565b60405162461bcd60e51b815260206004820152601f60248201527f5265656e7472616e637947756172643a207265656e7472616e742063616c6c006044820152606490fd5b600e54600181018091116148a45780600e556040516020810191825260208152614bb960408261431e565b51902090565b6040516323b872dd60e01b60208201526001600160a01b03928316602482015292909116604483015260648083019390935291815261437891614c0360848361431e565b614c43565b60405163a9059cbb60e01b60208201526001600160a01b03909216602483015260448083019390935291815261437891614c0360648361431e565b604080519092614cc7926001600160a01b0316906000908190614c66878661431e565b602085527f5361666545524332303a206c6f772d6c6576656c2063616c6c206661696c6564602086015260208151910182855af13d15614d57573d91614cab836145e3565b92614cb88751948561431e565b83523d6000602085013e614f48565b8051908115918215614d34575b505015614cde5750565b5162461bcd60e51b815260206004820152602a60248201527f5361666545524332303a204552433230206f7065726174696f6e20646964206e6044820152691bdd081cdd58d8d9595960b21b6064820152608490fd5b819250906020918101031261458557602001518015158103614585573880614cd4565b606091614f48565b908151811015614559570160200190565b600090614d7d602a6145e3565b91614d8b604051938461431e565b602a8352614d99602a6145e3565b6020840190601f1901368237835115614e8857603090538251600110156140ac576078602184015350602960005b60018211614e1c575050614dd85790565b606460405162461bcd60e51b815260206004820152602060248201527f537472696e67733a20686578206c656e67746820696e73756666696369656e746044820152fd5b9091600f81166010811015614e74576f181899199a1a9b1b9c1cb0b131b232b360811b901a614e4b8486614d5f565b5360041c918015614e60576000190190614dc7565b634e487b7160e01b82526011600452602482fd5b634e487b7160e01b83526032600452602483fd5b634e487b7160e01b82526032600452602482fd5b600090614ea960426145e3565b91614eb7604051938461431e565b60428352614ec560426145e3565b6020840190601f1901368237835115614e8857603090538251600110156140ac576078602184015350604160005b60018211614f04575050614dd85790565b9091600f81166010811015614e74576f181899199a1a9b1b9c1cb0b131b232b360811b901a614f338486614d5f565b5360041c918015614e60576000190190614ef3565b91929015614faa5750815115614f5c575090565b3b15614f655790565b60405162461bcd60e51b815260206004820152601d60248201527f416464726573733a2063616c6c20746f206e6f6e2d636f6e74726163740000006044820152606490fd5b825190915015614fbd5750805190602001fd5b60405162461bcd60e51b815260206004820152908190614af490602483019061447b56fe2f8788117e7eff1d82e926ec794901d17c78024a50270940304540a733656f0d469f0a0947cf59c7d944c91c6f4c13c396753b8abf0036156a8c6b0c02fdc02ef6391f5c32d9c69d2a47ea670b442974b53935d1edc7fd64eb21e047a839171ba49807205ce4d355092ef5a8a18f56e8913cf4a201fbe287825b095693c21775fbd38eecf51668fdbc772b204dc63dd28c3a3cf32e3025f52a80aa807359f50ca2646970667358221220106c4d15d300c29730e3e05c8e2309a928eaccfa32bb9de01dba71c98220925264736f6c634300081c00332f8788117e7eff1d82e926ec794901d17c78024a50270940304540a733656f0dac33ff75c19e70fe83507db0d683fd3465c996598dc972688b7ace676c89077be5ebfa64fca8d502a8e50c1edffd2c31ef4dad5b396e65d9f397fb028f74abc5",
  "linkReferences": {},
  "deployedLinkReferences": {}
}