{"abi":[{"type":"constructor","inputs":[{"name":"_ausys","type":"address","internalType":"contract Ausys"}],"stateMutability":"nonpayable"},{"type":"function","name":"AllNodes","inputs":[{"name":"","type":"address","internalType":"address"}],"outputs":[{"name":"location","type":"tuple","internalType":"struct AurumNodeManager.NodeLocationData","components":[{"name":"addressName","type":"string","internalType":"string"},{"name":"location","type":"tuple","internalType":"struct AurumNodeManager.Location","components":[{"name":"lat","type":"string","internalType":"string"},{"name":"lng","type":"string","internalType":"string"}]}]},{"name":"validNode","type":"bytes1","internalType":"bytes1"},{"name":"owner","type":"address","internalType":"address"},{"name":"status","type":"bytes1","internalType":"bytes1"}],"stateMutability":"view"},{"type":"function","name":"addSupportedAsset","inputs":[{"name":"node","type":"address","internalType":"address"},{"name":"supportedAsset","type":"tuple","internalType":"struct AurumNodeManager.Asset","components":[{"name":"token","type":"address","internalType":"address"},{"name":"tokenId","type":"uint256","internalType":"uint256"},{"name":"price","type":"uint256","internalType":"uint256"},{"name":"capacity","type":"uint256","internalType":"uint256"}]}],"outputs":[],"stateMutability":"nonpayable"},{"type":"function","name":"addToken","inputs":[{"name":"_auraAsset","type":"address","internalType":"contract AuraAsset"}],"outputs":[],"stateMutability":"nonpayable"},{"type":"function","name":"getAsset","inputs":[{"name":"node","type":"address","internalType":"address"},{"name":"token","type":"address","internalType":"address"},{"name":"tokenId","type":"uint256","internalType":"uint256"}],"outputs":[{"name":"","type":"tuple","internalType":"struct AurumNodeManager.Asset","components":[{"name":"token","type":"address","internalType":"address"},{"name":"tokenId","type":"uint256","internalType":"uint256"},{"name":"price","type":"uint256","internalType":"uint256"},{"name":"capacity","type":"uint256","internalType":"uint256"}]}],"stateMutability":"view"},{"type":"function","name":"getNode","inputs":[{"name":"nodeAddress","type":"address","internalType":"address"}],"outputs":[{"name":"node","type":"tuple","internalType":"struct AurumNodeManager.Node","components":[{"name":"location","type":"tuple","internalType":"struct AurumNodeManager.NodeLocationData","components":[{"name":"addressName","type":"string","internalType":"string"},{"name":"location","type":"tuple","internalType":"struct AurumNodeManager.Location","components":[{"name":"lat","type":"string","internalType":"string"},{"name":"lng","type":"string","internalType":"string"}]}]},{"name":"validNode","type":"bytes1","internalType":"bytes1"},{"name":"owner","type":"address","internalType":"address"},{"name":"supportedAssets","type":"tuple[]","internalType":"struct AurumNodeManager.Asset[]","components":[{"name":"token","type":"address","internalType":"address"},{"name":"tokenId","type":"uint256","internalType":"uint256"},{"name":"price","type":"uint256","internalType":"uint256"},{"name":"capacity","type":"uint256","internalType":"uint256"}]},{"name":"status","type":"bytes1","internalType":"bytes1"}]}],"stateMutability":"view"},{"type":"function","name":"getNodeStatus","inputs":[{"name":"node","type":"address","internalType":"address"}],"outputs":[{"name":"","type":"bytes1","internalType":"bytes1"}],"stateMutability":"view"},{"type":"function","name":"isAdmin","inputs":[{"name":"","type":"address","internalType":"address"}],"outputs":[{"name":"","type":"bool","internalType":"bool"}],"stateMutability":"view"},{"type":"function","name":"nodeIdCounter","inputs":[],"outputs":[{"name":"","type":"uint256","internalType":"uint256"}],"stateMutability":"view"},{"type":"function","name":"nodeList","inputs":[{"name":"","type":"uint256","internalType":"uint256"}],"outputs":[{"name":"","type":"address","internalType":"address"}],"stateMutability":"view"},{"type":"function","name":"ownedNodes","inputs":[{"name":"","type":"address","internalType":"address"},{"name":"","type":"uint256","internalType":"uint256"}],"outputs":[{"name":"","type":"address","internalType":"address"}],"stateMutability":"view"},{"type":"function","name":"owner","inputs":[],"outputs":[{"name":"","type":"address","internalType":"address"}],"stateMutability":"view"},{"type":"function","name":"reduceCapacityForOrder","inputs":[{"name":"node","type":"address","internalType":"address"},{"name":"supportedAsset","type":"tuple","internalType":"struct AurumNodeManager.Asset","components":[{"name":"token","type":"address","internalType":"address"},{"name":"tokenId","type":"uint256","internalType":"uint256"},{"name":"price","type":"uint256","internalType":"uint256"},{"name":"capacity","type":"uint256","internalType":"uint256"}]},{"name":"quantityToReduce","type":"uint256","internalType":"uint256"}],"outputs":[],"stateMutability":"nonpayable"},{"type":"function","name":"registerNode","inputs":[{"name":"node","type":"tuple","internalType":"struct AurumNodeManager.Node","components":[{"name":"location","type":"tuple","internalType":"struct AurumNodeManager.NodeLocationData","components":[{"name":"addressName","type":"string","internalType":"string"},{"name":"location","type":"tuple","internalType":"struct AurumNodeManager.Location","components":[{"name":"lat","type":"string","internalType":"string"},{"name":"lng","type":"string","internalType":"string"}]}]},{"name":"validNode","type":"bytes1","internalType":"bytes1"},{"name":"owner","type":"address","internalType":"address"},{"name":"supportedAssets","type":"tuple[]","internalType":"struct AurumNodeManager.Asset[]","components":[{"name":"token","type":"address","internalType":"address"},{"name":"tokenId","type":"uint256","internalType":"uint256"},{"name":"price","type":"uint256","internalType":"uint256"},{"name":"capacity","type":"uint256","internalType":"uint256"}]},{"name":"status","type":"bytes1","internalType":"bytes1"}]}],"outputs":[{"name":"id","type":"address","internalType":"address"}],"stateMutability":"nonpayable"},{"type":"function","name":"renounceOwnership","inputs":[],"outputs":[],"stateMutability":"nonpayable"},{"type":"function","name":"setAdmin","inputs":[{"name":"_admin","type":"address","internalType":"address"}],"outputs":[],"stateMutability":"nonpayable"},{"type":"function","name":"transferOwnership","inputs":[{"name":"newOwner","type":"address","internalType":"address"}],"outputs":[],"stateMutability":"nonpayable"},{"type":"function","name":"updateLocation","inputs":[{"name":"newLocation","type":"tuple","internalType":"struct AurumNodeManager.NodeLocationData","components":[{"name":"addressName","type":"string","internalType":"string"},{"name":"location","type":"tuple","internalType":"struct AurumNodeManager.Location","components":[{"name":"lat","type":"string","internalType":"string"},{"name":"lng","type":"string","internalType":"string"}]}]},{"name":"node","type":"address","internalType":"address"}],"outputs":[],"stateMutability":"nonpayable"},{"type":"function","name":"updateOwner","inputs":[{"name":"newOwner","type":"address","internalType":"address"},{"name":"node","type":"address","internalType":"address"}],"outputs":[],"stateMutability":"nonpayable"},{"type":"function","name":"updateStatus","inputs":[{"name":"status","type":"bytes1","internalType":"bytes1"},{"name":"node","type":"address","internalType":"address"}],"outputs":[],"stateMutability":"nonpayable"},{"type":"function","name":"updateSupportedAssets","inputs":[{"name":"node","type":"address","internalType":"address"},{"name":"supportedAssets","type":"tuple[]","internalType":"struct AurumNodeManager.Asset[]","components":[{"name":"token","type":"address","internalType":"address"},{"name":"tokenId","type":"uint256","internalType":"uint256"},{"name":"price","type":"uint256","internalType":"uint256"},{"name":"capacity","type":"uint256","internalType":"uint256"}]}],"outputs":[],"stateMutability":"nonpayable"},{"type":"event","name":"NodeCapacityUpdated","inputs":[{"name":"node","type":"address","indexed":true,"internalType":"address"},{"name":"quantities","type":"uint256[]","indexed":false,"internalType":"uint256[]"}],"anonymous":false},{"type":"event","name":"NodeRegistered","inputs":[{"name":"nodeAddress","type":"address","indexed":true,"internalType":"address"},{"name":"owner","type":"address","indexed":true,"internalType":"address"}],"anonymous":false},{"type":"event","name":"OwnershipTransferred","inputs":[{"name":"previousOwner","type":"address","indexed":true,"internalType":"address"},{"name":"newOwner","type":"address","indexed":true,"internalType":"address"}],"anonymous":false},{"type":"event","name":"SupportedAssetAdded","inputs":[{"name":"node","type":"address","indexed":true,"internalType":"address"},{"name":"asset","type":"tuple","indexed":false,"internalType":"struct AurumNodeManager.Asset","components":[{"name":"token","type":"address","internalType":"address"},{"name":"tokenId","type":"uint256","internalType":"uint256"},{"name":"price","type":"uint256","internalType":"uint256"},{"name":"capacity","type":"uint256","internalType":"uint256"}]}],"anonymous":false},{"type":"event","name":"SupportedAssetsUpdated","inputs":[{"name":"node","type":"address","indexed":true,"internalType":"address"},{"name":"supportedAssets","type":"tuple[]","indexed":false,"internalType":"struct AurumNodeManager.Asset[]","components":[{"name":"token","type":"address","internalType":"address"},{"name":"tokenId","type":"uint256","internalType":"uint256"},{"name":"price","type":"uint256","internalType":"uint256"},{"name":"capacity","type":"uint256","internalType":"uint256"}]}],"anonymous":false},{"type":"event","name":"eventUpdateAdmin","inputs":[{"name":"admin","type":"address","indexed":false,"internalType":"address"}],"anonymous":false},{"type":"event","name":"eventUpdateLocation","inputs":[{"name":"addressName","type":"string","indexed":false,"internalType":"string"},{"name":"lat","type":"string","indexed":false,"internalType":"string"},{"name":"lng","type":"string","indexed":false,"internalType":"string"},{"name":"node","type":"address","indexed":false,"internalType":"address"}],"anonymous":false},{"type":"event","name":"eventUpdateOwner","inputs":[{"name":"owner","type":"address","indexed":false,"internalType":"address"},{"name":"node","type":"address","indexed":false,"internalType":"address"}],"anonymous":false},{"type":"event","name":"eventUpdateStatus","inputs":[{"name":"status","type":"bytes1","indexed":false,"internalType":"bytes1"},{"name":"node","type":"address","indexed":false,"internalType":"address"}],"anonymous":false},{"type":"error","name":"AssetNotFound","inputs":[]},{"type":"error","name":"AssetNotSupported","inputs":[]},{"type":"error","name":"InsufficientCapacity","inputs":[]},{"type":"error","name":"InvalidNewOwner","inputs":[]},{"type":"error","name":"InvalidOwnerAddress","inputs":[]},{"type":"error","name":"InvalidTokenAddress","inputs":[]},{"type":"error","name":"NodeDoesNotExist","inputs":[]},{"type":"error","name":"NotAValidOperator","inputs":[]},{"type":"error","name":"NotAusysCaller","inputs":[]},{"type":"error","name":"NotOwnerOrAdmin","inputs":[]}],"bytecode":{"object":"0x60803460b957601f612e1938819003918201601f19168301916001600160401b0383118484101760bd5780849260209460405283398101031260b957516001600160a01b0381169081900360b9575f8054336001600160a01b0319821681178355604051939290916001600160a01b0316907f8be0079c531659141344cd1fd0a4f28419497f9722a3daafe3b4186f6b6457e09080a35f600155600680546001600160a01b031916919091179055612d4790816100d28239f35b5f80fd5b634e487b7160e01b5f52604160045260245ffdfe6080806040526004361015610012575f80fd5b5f3560e01c9081630985a94a1461109757508063208f2a311461101f57806324d7806c14610fe25780633baacc4414610fc55780634973887214610f06578063627dd5ca14610ea457806362cbb03014610e17578063704b6c0214610daa578063715018a614610d53578063739c58de146109395780638da5cb5b146109125780639d2090481461071f578063a243b9481461059c578063a6348c801461053b578063b65f8177146104f7578063c19da39614610467578063d446e51c14610403578063d48bfca7146103a4578063e896eacb146101c25763f2fde38b146100f8575f80fd5b346101be5760203660031901126101be576101116118c5565b610119611f61565b6001600160a01b0316801561016a575f80546001600160a01b03198116831782556001600160a01b0316907f8be0079c531659141344cd1fd0a4f28419497f9722a3daafe3b4186f6b6457e09080a3005b60405162461bcd60e51b815260206004820152602660248201527f4f776e61626c653a206e6577206f776e657220697320746865207a65726f206160448201526564647265737360d01b6064820152608490fd5b5f80fd5b346101be5760c03660031901126101be576101db6118c5565b6101e43661191c565b600654909160a435916001600160a01b031633036103955760018060a01b031691825f52600460205260405f209160018060a01b03600384015460081c1615610386575f9260040191835b835481101561037d576102428185611bb7565b505482516001600160a01b0390811691161480610362575b6102665760010161022f565b91929350508160036102788386611bb7565b500154106103535761028c60039184611bb7565b5001805491820391821161033f575560015b1561033057604051906020820160208352815480915260408301915f5260205f20905f5b8181106102f257857f07ee53adbe14155448a04c7dcd0098246f3b593820e8b378f1abdde26232dabf86860387a2005b82546001600160a01b0316845260018084015460208601526002840154604086015260038401546060860152608090940193600490930192016102c2565b63981a2a2b60e01b5f5260045ffd5b634e487b7160e01b5f52601160045260245ffd5b632e77ac1d60e11b5f5260045ffd5b50600161036f8286611bb7565b50015460208301511461025a565b5050509061029e565b635e926f7160e01b5f5260045ffd5b63336d8d3760e11b5f5260045ffd5b346101be5760203660031901126101be576004356001600160a01b038116908190036101be576103d2611f61565b80156103f4576bffffffffffffffffffffffff60a01b60075416176007555f80f35b630f58058360e11b5f5260045ffd5b346101be5760603660031901126101be5760806104326104216118c5565b6104296118db565b60443591611eb1565b61046560405180926060809160018060a01b03815116845260208101516020850152604081015160408501520151910152565bf35b346101be5760203660031901126101be576001600160a01b036104886118c5565b165f5260046020526104c260405f206104a081611b61565b906005600382015491015460f81b604051938493608085526080850190611a3a565b60f883901b6001600160f81b0319908116602086015260089390931c6001600160a01b03166040850152911660608301520390f35b346101be5760203660031901126101be576001600160a01b036105186118c5565b165f5260046020526020600560405f20015460f81b6040519060ff60f81b168152f35b346101be5760403660031901126101be576105546118c5565b61055c6118db565b6001600160a01b038181165f9081526004602052604090206003015460081c16330361058d5761058b91611cee565b005b63773944e360e01b5f5260045ffd5b346101be5760403660031901126101be576105b56118c5565b6024356001600160401b0381116101be576105d4903690600401611965565b6001600160a01b039182165f818152600460205260409020600301549192909160081c16330361058d57805f526004602052600460405f20019182545f8455806106d5575b505f5b8151811015610642578061063c61063560019385611ba3565b5186611bd0565b0161061c565b5060405190602082016020835281518091526020604084019201905f5b81811061068f57857f07ee53adbe14155448a04c7dcd0098246f3b593820e8b378f1abdde26232dabf86860387a2005b90919260206080826106ca60019488516060809160018060a01b03815116845260208101516020850152604081015160408501520151910152565b01940192910161065f565b6001600160fe1b038116810361033f57835f5260205f209060021b8101905b8181106107015750610619565b805f600492555f60018201555f60028201555f6003820155016106f4565b346101be5760203660031901126101be576107386118c5565b5f60806040516107478161173c565b60405161075381611757565b6060815260405161076381611757565b606081526060602082015260208201528152826020820152826040820152606080820152015260018060a01b03165f52600460205260405f206040516107a88161173c565b6107b182611b61565b81526003820154602082019260ff60f81b8260f81b168452604083019160018060a01b039060081c168252600481019081546107ec81611905565b926107fa604051948561178d565b81845260208401905f5260205f205f915b8383106108f4575050505060059060608501928352015460f81b91608084019260ff60f81b16835261085060405194602086525160a0602087015260c0860190611a3a565b94516001600160f81b0319166040850152516001600160a01b0316606084015251828403601f1901608084015280518085525f946020908101939201905b8086106108ae575050516001600160f81b03191660a08301528190039150f35b909260206080826108e860019488516060809160018060a01b03815116845260208101516020850152604081015160408501520151910152565b0194019501949061088e565b6004602060019261090485611cb3565b81520192019201919061080b565b346101be575f3660031901126101be575f546040516001600160a01b039091168152602090f35b346101be5760403660031901126101be576004356001600160401b0381116101be57610969903690600401611803565b6109716118db565b9060018060a01b038216805f52600460205260018060a01b03600360405f20015460081c16330361058d575f52600460205260405f209181519283516001600160401b038111610bd5576109c58254611a89565b601f8111610d0e575b50602094601f8211600114610cad579481929394955f92610ca2575b50508160011b915f199060031b1c19161781555b60018101602084019182519182518051906001600160401b038211610bd557610a278354611a89565b601f8111610c5d575b50602090601f8311600114610bf457918060029492602096945f92610be9575b50508160011b915f199060031b1c19161790555b019101518051906001600160401b038211610bd557610a838354611a89565b601f8111610b90575b50602090601f8311600114610b07579180610af794927f1178ec8c0e2b4aaa15492b575df66cd40de7186492c9335f85b7ded0d1b2126e98945f92610afc575b50508160011b915f199060031b1c19161790555b519151926020845194015160405194859485611c68565b0390a1005b015190508880610acc565b90601f19831691845f52815f20925f5b818110610b7857509260019285927f1178ec8c0e2b4aaa15492b575df66cd40de7186492c9335f85b7ded0d1b2126e9a96610af7989610610b60575b505050811b019055610ae0565b01515f1960f88460031b161c19169055888080610b53565b92936020600181928786015181550195019301610b17565b835f5260205f20601f840160051c81019160208510610bcb575b601f0160051c01905b818110610bc05750610a8c565b5f8155600101610bb3565b9091508190610baa565b634e487b7160e01b5f52604160045260245ffd5b015190508a80610a50565b90601f19831691845f52815f20925f5b818110610c455750926001928592602098966002989610610c2d575b505050811b019055610a64565b01515f1960f88460031b161c191690558a8080610c20565b92936020600181928786015181550195019301610c04565b835f5260205f20601f840160051c81019160208510610c98575b601f0160051c01905b818110610c8d5750610a30565b5f8155600101610c80565b9091508190610c77565b0151905085806109ea565b601f19821695835f52805f20915f5b888110610cf657508360019596979810610cde575b505050811b0181556109fe565b01515f1960f88460031b161c19169055858080610cd1565b91926020600181928685015181550194019201610cbc565b825f5260205f20601f830160051c81019160208410610d49575b601f0160051c01905b818110610d3e57506109ce565b5f8155600101610d31565b9091508190610d28565b346101be575f3660031901126101be57610d6b611f61565b5f80546001600160a01b0319811682556001600160a01b03167f8be0079c531659141344cd1fd0a4f28419497f9722a3daafe3b4186f6b6457e08280a3005b346101be5760203660031901126101be577f7bea7afb08874f274fedb30b8cee2e132288bb699cc48dfaa85333812345cab76020610de66118c5565b610dee611f61565b6001600160a01b03165f81815260028352604090819020805460ff1916600117905551908152a1005b346101be5760403660031901126101be576004356001600160f81b03198116908181036101be577f761187c31aa19914b2510bad920f3879e7fb0632efc0e144fe2e86f02d75928991604091610e6b6118db565b610e73611f61565b60018060a01b031690815f5260046020526005845f20019060f81c60ff1982541617905582519182526020820152a1005b346101be5760403660031901126101be57610ebd6118c5565b6001600160a01b03165f908152600360205260409020805460243591908210156101be57602091610eed91611a01565b905460405160039290921b1c6001600160a01b03168152f35b346101be5760a03660031901126101be57610f1f6118c5565b610f283661191c565b6001600160a01b039182165f81815260046020526040902060030154909260089190911c16330361058d5760807f3762cc1b8df52bc0179b969264f72c0f4d50fc943d23dff0382a8f5719553d6291835f526004602052610f8f81600460405f2001611bd0565b610fc260405180926060809160018060a01b03815116845260208101516020850152604081015160408501520151910152565ba2005b346101be575f3660031901126101be576020600154604051908152f35b346101be5760203660031901126101be576001600160a01b036110036118c5565b165f526002602052602060ff60405f2054166040519015158152f35b346101be5760203660031901126101be576004356005548110156101be576005548110156110835760055f527f036b6384b5eca791c62761152d0c79bb0604c104a5fb6f4eb0703f3154bb3db001546040516001600160a01b039091168152602090f35b634e487b7160e01b5f52603260045260245ffd5b346101be5760203660031901126101be57600435906001600160401b0382116101be5760a060031983360301126101be576110d18161173c565b81600401356001600160401b0381116101be576110f49060043691850101611803565b8152611102602483016118b0565b6020820152611113604483016118f1565b6040820190815260648301356001600160401b0381116101be5760846111426111509260043691880101611965565b9460608501958652016118b0565b906080830191825260018060a01b0381511633148015611726575b156117175780516001600160a01b031615611708578051600654600754604051926001600160a01b0390811692610d59928386019290811691166001600160401b03831186841017610bd5576080948694611fb986398352602083015260408201523060608201520301905ff080156116fd5760018060a01b0316918351835f52600460205260405f2081518051906001600160401b038211610bd55781906112148454611a89565b601f81116116ad575b50602090601f831160011461164a575f9261163f575b50508160011b915f199060031b1c19161781555b6020600182019201519182518051906001600160401b038211610bd55761126e8354611a89565b601f81116115fa575b50602090601f831160011461159157918060029492602096945f92611586575b50508160011b915f199060031b1c19161790555b019101518051906001600160401b038211610bd55781906112cc8454611a89565b601f8111611536575b50602090601f83116001146114d3575f926114c8575b50508160011b915f199060031b1c19161790555b5f838152600460205260409020600301805483516001600160a81b031990911660089190911b610100600160a81b031617600117905560ff60f81b905116825f526004602052600560405f20019060f81c60ff198254161790555f5b84515181101561139257600190835f52600460205261138c600460405f2001611385838951611ba3565b5190611bd0565b0161135b565b509160018060a01b038351165f5260036020526113b28260405f20611c45565b8251604080516001600160a01b03928316815291841660208301527f7325a7a200c9a6b8dd8cb775eac1cc6a5b400c3a205ed65e91d0c021bfd3412c91a1600554600160401b811015610bd5578261141582600161143994016005556005611a01565b81546001600160a01b0393841660039290921b91821b9390911b1916919091179055565b600154906001820180921161033f576020937f1178ec8c0e2b4aaa15492b575df66cd40de7186492c9335f85b7ded0d1b2126e9260015560018060a01b039051166114bd84604051938493827fb12a4432edda4c492451b8f21f2f55773eff7a89db313ca40c0509f7b2900a1f5f80a3518781519101518881519101519185611c68565b0390a1604051908152f35b0151905088806112eb565b5f8581528281209350601f198516905b81811061151e5750908460019594939210611506575b505050811b0190556112ff565b01515f1960f88460031b161c191690558880806114f9565b929360206001819287860151815501950193016114e3565b909150835f5260205f20601f840160051c8101916020851061157c575b90601f859493920160051c01905b81811061156e57506112d5565b5f8155849350600101611561565b9091508190611553565b015190508c80611297565b90601f19831691845f52815f20925f5b8181106115e257509260019285926020989660029896106115ca575b505050811b0190556112ab565b01515f1960f88460031b161c191690558c80806115bd565b929360206001819287860151815501950193016115a1565b835f5260205f20601f840160051c81019160208510611635575b601f0160051c01905b81811061162a5750611277565b5f815560010161161d565b9091508190611614565b015190508980611233565b5f8581528281209350601f198516905b818110611695575090846001959493921061167d575b505050811b018155611247565b01515f1960f88460031b161c19169055898080611670565b9293602060018192878601518155019501930161165a565b909150835f5260205f20601f840160051c810191602085106116f3575b90601f859493920160051c01905b8181106116e5575061121d565b5f81558493506001016116d8565b90915081906116ca565b6040513d5f823e3d90fd5b633649397d60e21b5f5260045ffd5b63dce3812560e01b5f5260045ffd5b50335f52600260205260ff60405f20541661116b565b60a081019081106001600160401b03821117610bd557604052565b604081019081106001600160401b03821117610bd557604052565b608081019081106001600160401b03821117610bd557604052565b90601f801991011681019081106001600160401b03821117610bd557604052565b81601f820112156101be578035906001600160401b038211610bd557604051926117e2601f8401601f19166020018561178d565b828452602083830101116101be57815f926020809301838601378301015290565b91906040838203126101be576040519061181c82611757565b819380356001600160401b0381116101be578261183a9183016117ae565b83526020810135906001600160401b0382116101be5701916040838303126101be576040519261186984611757565b80356001600160401b0381116101be57836118859183016117ae565b84526020810135926001600160401b0384116101be576020936118a892016117ae565b828401520152565b35906001600160f81b0319821682036101be57565b600435906001600160a01b03821682036101be57565b602435906001600160a01b03821682036101be57565b35906001600160a01b03821682036101be57565b6001600160401b038111610bd55760051b60200190565b60809060231901126101be576040519061193582611772565b816024356001600160a01b03811681036101be578152604435602082015260643560408201526060608435910152565b81601f820112156101be5780359061197c82611905565b9261198a604051948561178d565b82845260208085019360071b830101918183116101be57602001925b8284106119b4575050505090565b6080848303126101be5760206080916040516119cf81611772565b6119d8876118f1565b8152828701358382015260408701356040820152606087013560608201528152019301926119a6565b8054821015611083575f5260205f2001905f90565b805180835260209291819084018484015e5f828201840152601f01601f1916010190565b90611a86916020611a548251604085526040850190611a16565b9101519160208183039101526020611a758351604084526040840190611a16565b920151906020818403910152611a16565b90565b90600182811c92168015611ab7575b6020831014611aa357565b634e487b7160e01b5f52602260045260245ffd5b91607f1691611a98565b9060405191825f825492611ad484611a89565b8084529360018116908115611b3f5750600114611afb575b50611af99250038361178d565b565b90505f9291925260205f20905f915b818310611b23575050906020611af9928201015f611aec565b6020919350806001915483858901015201910190918492611b0a565b905060209250611af994915060ff191682840152151560051b8201015f611aec565b9060405191611b6f83611757565b602083611b7b83611ac1565b81526118a8600260405194611b8f86611757565b611b9b60018201611ac1565b865201611ac1565b80518210156110835760209160051b010190565b8054821015611083575f5260205f209060021b01905f90565b8054600160401b811015610bd557611bed91600182018155611bb7565b919091611c3257805182546001600160a01b0319166001600160a01b039190911617825560208101516001830155604081015160028301556060015160039190910155565b634e487b7160e01b5f525f60045260245ffd5b90815491600160401b831015610bd55782611415916001611af995018155611a01565b92611c95606093611c87611ca394989798608088526080880190611a16565b908682036020880152611a16565b908482036040860152611a16565b6001600160a01b03909416910152565b90604051611cc081611772565b82546001600160a01b0316815260018301546020820152600283015460408201526003909201546060830152565b906001600160a01b038216908115611ea2576001600160a01b038181165f8181526004602052604090206003015490949160089190911c16838114611e9b575f52600360205260405f20925f5b845480821015611e6e5786611d508388611a01565b905460039190911b1c6001600160a01b031614611d705750600101611d3b565b905f96929394959619820191821161033f57611415611d92611dab9389611a01565b905460039190911b1c6001600160a01b03169188611a01565b8454948515611e5a577f7325a7a200c9a6b8dd8cb775eac1cc6a5b400c3a205ed65e91d0c021bfd3412c955f190190611de48282611a01565b81549060018060a01b039060031b1b19169055555b5f9081526004602052604090206003018054610100600160a81b031916600884901b610100600160a81b03161790555f526003602052611e3c8260405f20611c45565b604080516001600160a01b03928316815292909116602083015290a1565b634e487b7160e01b5f52603160045260245ffd5b5050909192507f7325a7a200c9a6b8dd8cb775eac1cc6a5b400c3a205ed65e91d0c021bfd3412c93611df9565b5050505050565b632a52b3c360e11b5f5260045ffd5b604051611ebd81611772565b5f81525f60208201525f60408201525f60608201525060018060a01b03165f52600460205260405f209160045f9301918254935b848110611f075763470cbf4760e01b5f5260045ffd5b611f118185611bb7565b50546001600160a01b0383811691161480611f4a575b611f3357600101611ef1565b915050611a869250611f4491611bb7565b50611cb3565b50826001611f588387611bb7565b50015414611f27565b5f546001600160a01b03163303611f7457565b606460405162461bcd60e51b815260206004820152602060248201527f4f776e61626c653a2063616c6c6572206973206e6f7420746865206f776e65726044820152fdfe6080346100e857601f610d5938819003918201601f19168301916001600160401b038311848410176100ec578084926080946040528339810103126100e8578051906001600160a01b03821682036100e85760208101516001600160a01b038116908190036100e85760408201516001600160a01b03811692908390036100e857606001516001600160a01b03811693908490036100e8576100a9906100a433610100565b610100565b60018060a01b0319600154161760015560018060a01b0319600254161760025560018060a01b03196003541617600355604051610c1290816101478239f35b5f80fd5b634e487b7160e01b5f52604160045260245ffd5b5f80546001600160a01b039283166001600160a01b03198216811783559216907f8be0079c531659141344cd1fd0a4f28419497f9722a3daafe3b4186f6b6457e09080a356fe6080806040526004361015610012575f80fd5b5f905f3560e01c90816301ffc9a7146109b3575080632eb27f3e146109465780634af3b6da146108c35780635a50a54214610857578063715018a6146107fd5780637cb87a59146107795780638da5cb5b14610752578063a2f9e738146102d5578063bc09fca81461025a578063bc197c81146101c4578063f23a6e611461016a5763f2fde38b146100a2575f80fd5b34610167576020366003190112610167576100bb610a06565b6100c3610b85565b6001600160a01b031680156101135781546001600160a01b03198116821783556001600160a01b03167f8be0079c531659141344cd1fd0a4f28419497f9722a3daafe3b4186f6b6457e08380a380f35b60405162461bcd60e51b815260206004820152602660248201527f4f776e61626c653a206e6577206f776e657220697320746865207a65726f206160448201526564647265737360d01b6064820152608490fd5b80fd5b50346101675760a036600319011261016757610184610a06565b5061018d610a1c565b506084356001600160401b0381116101c0576101ad903690600401610a82565b5060405163f23a6e6160e01b8152602090f35b5080fd5b50346101675760a0366003190112610167576101de610a06565b506101e7610a1c565b506044356001600160401b0381116101c057610207903690600401610aec565b506064356001600160401b0381116101c057610227903690600401610aec565b506084356001600160401b0381116101c057610247903690600401610a82565b5060405163bc197c8160e01b8152602090f35b503461016757602036600319011261016757610274610b85565b60015481906001600160a01b0316803b156102d2578180916024604051809481936314c1aec560e21b835260043560048401525af180156102c7576102b65750f35b816102c091610a61565b6101675780f35b6040513d84823e3d90fd5b50fd5b50346101675760a0366003190112610167576102ef610a06565b906044356001600160401b0381116101c057606060031982360301126101c0576040519061031c82610a32565b80600401356001600160401b03811161074e5761033f9060043691840101610a82565b825260248101356001600160401b03811161074e576103649060043691840101610a82565b90602083019182526044810135906001600160401b03821161061057013660238201121561074e57600481013561039a81610ad5565b916103a86040519384610a61565b818352602060048185019360051b830101019036821161074a5760248101925b8284106106145750505050604083019081526064356001600160401b038111610610576103f9903690600401610a82565b6084356001600160401b03811161060c579161041e8692959794933690600401610a82565b90610427610b85565b60025460405163bf72dbe160e01b81526001600160a01b03968716600482015260a060248201529851606060a48b01528996909116946104839161047090610104890190610b61565b905187820360a3190160c4890152610b61565b90519060a3198682030160e4870152815180825260208201916020808360051b83010194019286915b8383106105525750505050506104f18593926104df85936040996024356044870152600319868303016064870152610b61565b83810360031901608485015290610b61565b03925af190811561054657809161050e575b602082604051908152f35b90506040823d60401161053e575b8161052960409383610a61565b8101031261016757506020809101515f610503565b3d915061051c565b604051903d90823e3d90fd5b92959850929698955092601f1982820301835286519061057b8251606083526060830190610b61565b918b602082015193838103602085015284519081815260208101906020808460051b8301019701935b8381106105e15750505050506105cd600193602093604085940151906040818403910152610b61565b98019301930189959896938b9895926104ac565b90919293966020806105ff600193601f198782030188528b51610b61565b99019594019291016105a4565b8580fd5b8480fd5b83356001600160401b038111610746576004908301016060601f198236030112610746576040519061064582610a32565b60208101356001600160401b03811161070c576106689060203691840101610a82565b825260408101356001600160401b03811161070c5760209082010136601f8201121561070c5780359061069a82610ad5565b916106a86040519384610a61565b80835260208084019160051b830101903682116107425760208301905b8282106107105750505050602083015260608101356001600160401b03811161070c57916106fc6020949285809536920101610a82565b60408201528152019301926103c8565b8a80fd5b81356001600160401b03811161073e576020916107338392833691890101610a82565b8152019101906106c5565b8f80fd5b8d80fd5b8880fd5b8680fd5b8380fd5b5034610167578060031936011261016757546040516001600160a01b039091168152602090f35b503461016757602036600319011261016757610793610b85565b6001546040516313b33c8360e31b81526004803590820152906020908290602490829086906001600160a01b03165af180156102c7576107d1575080f35b6107f29060203d6020116107f6575b6107ea8183610a61565b810190610b49565b5080f35b503d6107e0565b5034610167578060031936011261016757610816610b85565b80546001600160a01b03198116825581906001600160a01b03167f8be0079c531659141344cd1fd0a4f28419497f9722a3daafe3b4186f6b6457e08280a380f35b5034610167578060031936011261016757610870610b85565b60025460015482916001600160a01b039081169116813b156108bf57829160448392604051948593849263a22cb46560e01b84526004840152600160248401525af180156102c7576102b65750f35b5050fd5b5034610942575f366003190112610942576108dc610b85565b6002546001546001600160a01b039182169116813b15610942575f9160448392604051948593849263a22cb46560e01b845260048401528160248401525af1801561093757610929575080f35b61093591505f90610a61565b005b6040513d5f823e3d90fd5b5f80fd5b346109425760203660031901126109425761095f610b85565b600154604051632f5633a960e21b8152600480359082015290602090829060249082905f906001600160a01b03165af180156109375761099b57005b6109359060203d6020116107f6576107ea8183610a61565b34610942576020366003190112610942576004359063ffffffff60e01b821680920361094257602091630271189760e51b81149081156109f5575b5015158152f35b6301ffc9a760e01b149050836109ee565b600435906001600160a01b038216820361094257565b602435906001600160a01b038216820361094257565b606081019081106001600160401b03821117610a4d57604052565b634e487b7160e01b5f52604160045260245ffd5b90601f801991011681019081106001600160401b03821117610a4d57604052565b81601f82011215610942576020813591016001600160401b038211610a4d5760405192610ab9601f8401601f191660200185610a61565b8284528282011161094257815f92602092838601378301015290565b6001600160401b038111610a4d5760051b60200190565b9080601f83011215610942578135610b0381610ad5565b92610b116040519485610a61565b81845260208085019260051b82010192831161094257602001905b828210610b395750505090565b8135815260209182019101610b2c565b90816020910312610942575180151581036109425790565b805180835260209291819084018484015e5f828201840152601f01601f1916010190565b5f546001600160a01b03163303610b9857565b606460405162461bcd60e51b815260206004820152602060248201527f4f776e61626c653a2063616c6c6572206973206e6f7420746865206f776e65726044820152fdfea2646970667358221220986032b0f01474135851b915b7b7f2cc8ec0f762ac8f0266750a48ae4859253164736f6c634300081c0033a26469706673582212203215b15c8d7f2495f7851a00429996f83e49deb1194017a11816c477cb62bbce64736f6c634300081c0033","linkReferences":{}},"methodIdentifiers":{"AllNodes(address)":"c19da396","addSupportedAsset(address,(address,uint256,uint256,uint256))":"49738872","addToken(address)":"d48bfca7","getAsset(address,address,uint256)":"d446e51c","getNode(address)":"9d209048","getNodeStatus(address)":"b65f8177","isAdmin(address)":"24d7806c","nodeIdCounter()":"3baacc44","nodeList(uint256)":"208f2a31","ownedNodes(address,uint256)":"627dd5ca","owner()":"8da5cb5b","reduceCapacityForOrder(address,(address,uint256,uint256,uint256),uint256)":"e896eacb","registerNode(((string,(string,string)),bytes1,address,(address,uint256,uint256,uint256)[],bytes1))":"0985a94a","renounceOwnership()":"715018a6","setAdmin(address)":"704b6c02","transferOwnership(address)":"f2fde38b","updateLocation((string,(string,string)),address)":"739c58de","updateOwner(address,address)":"a6348c80","updateStatus(bytes1,address)":"62cbb030","updateSupportedAssets(address,(address,uint256,uint256,uint256)[])":"a243b948"},"id":5}