{"abi":[{"type":"constructor","inputs":[{"name":"_owner","type":"address","internalType":"address"},{"name":"_ausys","type":"address","internalType":"contract Ausys"},{"name":"_auraAsset","type":"address","internalType":"contract AuraAsset"},{"name":"_manager","type":"address","internalType":"contract AurumNodeManager"}],"stateMutability":"nonpayable"},{"type":"function","name":"addItem","inputs":[{"name":"itemOwner","type":"address","internalType":"address"},{"name":"amount","type":"uint256","internalType":"uint256"},{"name":"asset","type":"tuple","internalType":"struct AuraAsset.Asset","components":[{"name":"name","type":"string","internalType":"string"},{"name":"assetClass","type":"string","internalType":"string"},{"name":"attributes","type":"tuple[]","internalType":"struct AuraAsset.Attribute[]","components":[{"name":"name","type":"string","internalType":"string"},{"name":"values","type":"string[]","internalType":"string[]"},{"name":"description","type":"string","internalType":"string"}]}]},{"name":"className","type":"string","internalType":"string"},{"name":"data","type":"bytes","internalType":"bytes"}],"outputs":[{"name":"tokenId","type":"uint256","internalType":"uint256"}],"stateMutability":"nonpayable"},{"type":"function","name":"approveAusysForTokens","inputs":[],"outputs":[],"stateMutability":"nonpayable"},{"type":"function","name":"nodeHandOn","inputs":[{"name":"id","type":"bytes32","internalType":"bytes32"}],"outputs":[],"stateMutability":"nonpayable"},{"type":"function","name":"nodeHandoff","inputs":[{"name":"id","type":"bytes32","internalType":"bytes32"}],"outputs":[],"stateMutability":"nonpayable"},{"type":"function","name":"nodeSign","inputs":[{"name":"id","type":"bytes32","internalType":"bytes32"}],"outputs":[],"stateMutability":"nonpayable"},{"type":"function","name":"onERC1155BatchReceived","inputs":[{"name":"","type":"address","internalType":"address"},{"name":"","type":"address","internalType":"address"},{"name":"","type":"uint256[]","internalType":"uint256[]"},{"name":"","type":"uint256[]","internalType":"uint256[]"},{"name":"","type":"bytes","internalType":"bytes"}],"outputs":[{"name":"","type":"bytes4","internalType":"bytes4"}],"stateMutability":"nonpayable"},{"type":"function","name":"onERC1155Received","inputs":[{"name":"","type":"address","internalType":"address"},{"name":"","type":"address","internalType":"address"},{"name":"","type":"uint256","internalType":"uint256"},{"name":"","type":"uint256","internalType":"uint256"},{"name":"","type":"bytes","internalType":"bytes"}],"outputs":[{"name":"","type":"bytes4","internalType":"bytes4"}],"stateMutability":"nonpayable"},{"type":"function","name":"owner","inputs":[],"outputs":[{"name":"","type":"address","internalType":"address"}],"stateMutability":"view"},{"type":"function","name":"renounceOwnership","inputs":[],"outputs":[],"stateMutability":"nonpayable"},{"type":"function","name":"revokeAusysApproval","inputs":[],"outputs":[],"stateMutability":"nonpayable"},{"type":"function","name":"supportsInterface","inputs":[{"name":"interfaceId","type":"bytes4","internalType":"bytes4"}],"outputs":[{"name":"","type":"bool","internalType":"bool"}],"stateMutability":"view"},{"type":"function","name":"transferOwnership","inputs":[{"name":"newOwner","type":"address","internalType":"address"}],"outputs":[],"stateMutability":"nonpayable"},{"type":"event","name":"OwnershipTransferred","inputs":[{"name":"previousOwner","type":"address","indexed":true,"internalType":"address"},{"name":"newOwner","type":"address","indexed":true,"internalType":"address"}],"anonymous":false}],"bytecode":{"object":"0x6080346100e857601f610d5938819003918201601f19168301916001600160401b038311848410176100ec578084926080946040528339810103126100e8578051906001600160a01b03821682036100e85760208101516001600160a01b038116908190036100e85760408201516001600160a01b03811692908390036100e857606001516001600160a01b03811693908490036100e8576100a9906100a433610100565b610100565b60018060a01b0319600154161760015560018060a01b0319600254161760025560018060a01b03196003541617600355604051610c1290816101478239f35b5f80fd5b634e487b7160e01b5f52604160045260245ffd5b5f80546001600160a01b039283166001600160a01b03198216811783559216907f8be0079c531659141344cd1fd0a4f28419497f9722a3daafe3b4186f6b6457e09080a356fe6080806040526004361015610012575f80fd5b5f905f3560e01c90816301ffc9a7146109b3575080632eb27f3e146109465780634af3b6da146108c35780635a50a54214610857578063715018a6146107fd5780637cb87a59146107795780638da5cb5b14610752578063a2f9e738146102d5578063bc09fca81461025a578063bc197c81146101c4578063f23a6e611461016a5763f2fde38b146100a2575f80fd5b34610167576020366003190112610167576100bb610a06565b6100c3610b85565b6001600160a01b031680156101135781546001600160a01b03198116821783556001600160a01b03167f8be0079c531659141344cd1fd0a4f28419497f9722a3daafe3b4186f6b6457e08380a380f35b60405162461bcd60e51b815260206004820152602660248201527f4f776e61626c653a206e6577206f776e657220697320746865207a65726f206160448201526564647265737360d01b6064820152608490fd5b80fd5b50346101675760a036600319011261016757610184610a06565b5061018d610a1c565b506084356001600160401b0381116101c0576101ad903690600401610a82565b5060405163f23a6e6160e01b8152602090f35b5080fd5b50346101675760a0366003190112610167576101de610a06565b506101e7610a1c565b506044356001600160401b0381116101c057610207903690600401610aec565b506064356001600160401b0381116101c057610227903690600401610aec565b506084356001600160401b0381116101c057610247903690600401610a82565b5060405163bc197c8160e01b8152602090f35b503461016757602036600319011261016757610274610b85565b60015481906001600160a01b0316803b156102d2578180916024604051809481936314c1aec560e21b835260043560048401525af180156102c7576102b65750f35b816102c091610a61565b6101675780f35b6040513d84823e3d90fd5b50fd5b50346101675760a0366003190112610167576102ef610a06565b906044356001600160401b0381116101c057606060031982360301126101c0576040519061031c82610a32565b80600401356001600160401b03811161074e5761033f9060043691840101610a82565b825260248101356001600160401b03811161074e576103649060043691840101610a82565b90602083019182526044810135906001600160401b03821161061057013660238201121561074e57600481013561039a81610ad5565b916103a86040519384610a61565b818352602060048185019360051b830101019036821161074a5760248101925b8284106106145750505050604083019081526064356001600160401b038111610610576103f9903690600401610a82565b6084356001600160401b03811161060c579161041e8692959794933690600401610a82565b90610427610b85565b60025460405163bf72dbe160e01b81526001600160a01b03968716600482015260a060248201529851606060a48b01528996909116946104839161047090610104890190610b61565b905187820360a3190160c4890152610b61565b90519060a3198682030160e4870152815180825260208201916020808360051b83010194019286915b8383106105525750505050506104f18593926104df85936040996024356044870152600319868303016064870152610b61565b83810360031901608485015290610b61565b03925af190811561054657809161050e575b602082604051908152f35b90506040823d60401161053e575b8161052960409383610a61565b8101031261016757506020809101515f610503565b3d915061051c565b604051903d90823e3d90fd5b92959850929698955092601f1982820301835286519061057b8251606083526060830190610b61565b918b602082015193838103602085015284519081815260208101906020808460051b8301019701935b8381106105e15750505050506105cd600193602093604085940151906040818403910152610b61565b98019301930189959896938b9895926104ac565b90919293966020806105ff600193601f198782030188528b51610b61565b99019594019291016105a4565b8580fd5b8480fd5b83356001600160401b038111610746576004908301016060601f198236030112610746576040519061064582610a32565b60208101356001600160401b03811161070c576106689060203691840101610a82565b825260408101356001600160401b03811161070c5760209082010136601f8201121561070c5780359061069a82610ad5565b916106a86040519384610a61565b80835260208084019160051b830101903682116107425760208301905b8282106107105750505050602083015260608101356001600160401b03811161070c57916106fc6020949285809536920101610a82565b60408201528152019301926103c8565b8a80fd5b81356001600160401b03811161073e576020916107338392833691890101610a82565b8152019101906106c5565b8f80fd5b8d80fd5b8880fd5b8680fd5b8380fd5b5034610167578060031936011261016757546040516001600160a01b039091168152602090f35b503461016757602036600319011261016757610793610b85565b6001546040516313b33c8360e31b81526004803590820152906020908290602490829086906001600160a01b03165af180156102c7576107d1575080f35b6107f29060203d6020116107f6575b6107ea8183610a61565b810190610b49565b5080f35b503d6107e0565b5034610167578060031936011261016757610816610b85565b80546001600160a01b03198116825581906001600160a01b03167f8be0079c531659141344cd1fd0a4f28419497f9722a3daafe3b4186f6b6457e08280a380f35b5034610167578060031936011261016757610870610b85565b60025460015482916001600160a01b039081169116813b156108bf57829160448392604051948593849263a22cb46560e01b84526004840152600160248401525af180156102c7576102b65750f35b5050fd5b5034610942575f366003190112610942576108dc610b85565b6002546001546001600160a01b039182169116813b15610942575f9160448392604051948593849263a22cb46560e01b845260048401528160248401525af1801561093757610929575080f35b61093591505f90610a61565b005b6040513d5f823e3d90fd5b5f80fd5b346109425760203660031901126109425761095f610b85565b600154604051632f5633a960e21b8152600480359082015290602090829060249082905f906001600160a01b03165af180156109375761099b57005b6109359060203d6020116107f6576107ea8183610a61565b34610942576020366003190112610942576004359063ffffffff60e01b821680920361094257602091630271189760e51b81149081156109f5575b5015158152f35b6301ffc9a760e01b149050836109ee565b600435906001600160a01b038216820361094257565b602435906001600160a01b038216820361094257565b606081019081106001600160401b03821117610a4d57604052565b634e487b7160e01b5f52604160045260245ffd5b90601f801991011681019081106001600160401b03821117610a4d57604052565b81601f82011215610942576020813591016001600160401b038211610a4d5760405192610ab9601f8401601f191660200185610a61565b8284528282011161094257815f92602092838601378301015290565b6001600160401b038111610a4d5760051b60200190565b9080601f83011215610942578135610b0381610ad5565b92610b116040519485610a61565b81845260208085019260051b82010192831161094257602001905b828210610b395750505090565b8135815260209182019101610b2c565b90816020910312610942575180151581036109425790565b805180835260209291819084018484015e5f828201840152601f01601f1916010190565b5f546001600160a01b03163303610b9857565b606460405162461bcd60e51b815260206004820152602060248201527f4f776e61626c653a2063616c6c6572206973206e6f7420746865206f776e65726044820152fdfea2646970667358221220986032b0f01474135851b915b7b7f2cc8ec0f762ac8f0266750a48ae4859253164736f6c634300081c0033","linkReferences":{}},"methodIdentifiers":{"addItem(address,uint256,(string,string,(string,string[],string)[]),string,bytes)":"a2f9e738","approveAusysForTokens()":"5a50a542","nodeHandOn(bytes32)":"2eb27f3e","nodeHandoff(bytes32)":"7cb87a59","nodeSign(bytes32)":"bc09fca8","onERC1155BatchReceived(address,address,uint256[],uint256[],bytes)":"bc197c81","onERC1155Received(address,address,uint256,uint256,bytes)":"f23a6e61","owner()":"8da5cb5b","renounceOwnership()":"715018a6","revokeAusysApproval()":"4af3b6da","supportsInterface(bytes4)":"01ffc9a7","transferOwnership(address)":"f2fde38b"},"id":5}