{"contracts/AuStake.sol":{"AuStake":{"abi":[{"inputs":[{"internalType":"address payable","name":"_projectWallet","type":"address"},{"internalType":"address","name":"initialOwner","type":"address"}],"stateMutability":"nonpayable","type":"constructor"},{"anonymous":false,"inputs":[{"indexed":true,"internalType":"address","name":"admin","type":"address"},{"indexed":false,"internalType":"bool","name":"status","type":"bool"}],"name":"AdminStatusChanged","type":"event"},{"anonymous":false,"inputs":[{"indexed":true,"internalType":"bytes32","name":"operationId","type":"bytes32"},{"indexed":false,"internalType":"string","name":"name","type":"string"},{"indexed":false,"internalType":"address","name":"token","type":"address"}],"name":"OperationCreated","type":"event"},{"anonymous":false,"inputs":[{"indexed":true,"internalType":"address","name":"previousOwner","type":"address"},{"indexed":true,"internalType":"address","name":"newOwner","type":"address"}],"name":"OwnershipTransferred","type":"event"},{"anonymous":false,"inputs":[{"indexed":true,"internalType":"address","name":"user","type":"address"},{"indexed":false,"internalType":"uint256","name":"amount","type":"uint256"},{"indexed":true,"internalType":"bytes32","name":"operationId","type":"bytes32"}],"name":"RewardPaid","type":"event"},{"anonymous":false,"inputs":[{"indexed":true,"internalType":"address","name":"token","type":"address"},{"indexed":true,"internalType":"address","name":"user","type":"address"},{"indexed":false,"internalType":"uint256","name":"amount","type":"uint256"},{"indexed":true,"internalType":"bytes32","name":"operationId","type":"bytes32"}],"name":"Staked","type":"event"},{"anonymous":false,"inputs":[{"indexed":true,"internalType":"address","name":"token","type":"address"},{"indexed":true,"internalType":"address","name":"user","type":"address"},{"indexed":false,"internalType":"uint256","name":"amount","type":"uint256"},{"indexed":true,"internalType":"bytes32","name":"operationId","type":"bytes32"}],"name":"Unstaked","type":"event"},{"inputs":[{"internalType":"address","name":"","type":"address"}],"name":"admins","outputs":[{"internalType":"bool","name":"","type":"bool"}],"stateMutability":"view","type":"function"},{"inputs":[{"internalType":"address","name":"token","type":"address"},{"internalType":"address","name":"user","type":"address"},{"internalType":"bytes32","name":"operationId","type":"bytes32"}],"name":"burn","outputs":[],"stateMutability":"nonpayable","type":"function"},{"inputs":[{"internalType":"string","name":"name","type":"string"},{"internalType":"address","name":"token","type":"address"},{"internalType":"address","name":"provider","type":"address"},{"internalType":"uint256","name":"lengthInDays","type":"uint256"},{"internalType":"uint256","name":"reward","type":"uint256"}],"name":"createOperation","outputs":[{"internalType":"bytes32","name":"","type":"bytes32"}],"stateMutability":"nonpayable","type":"function"},{"inputs":[{"internalType":"bytes32","name":"id","type":"bytes32"}],"name":"getOperation","outputs":[{"internalType":"string","name":"name","type":"string"},{"internalType":"address","name":"token","type":"address"},{"internalType":"address","name":"provider","type":"address"},{"internalType":"uint256","name":"lengthInDays","type":"uint256"},{"internalType":"uint256","name":"reward","type":"uint256"},{"internalType":"uint256","name":"tokenTvl","type":"uint256"}],"stateMutability":"view","type":"function"},{"inputs":[{"internalType":"bytes32","name":"","type":"bytes32"}],"name":"idToOperation","outputs":[{"internalType":"string","name":"name","type":"string"},{"internalType":"address","name":"token","type":"address"},{"internalType":"address","name":"provider","type":"address"},{"internalType":"uint256","name":"lengthInDays","type":"uint256"},{"internalType":"uint256","name":"reward","type":"uint256"},{"internalType":"uint256","name":"tokenTvl","type":"uint256"}],"stateMutability":"view","type":"function"},{"inputs":[],"name":"lockPeriod","outputs":[{"internalType":"uint256","name":"","type":"uint256"}],"stateMutability":"view","type":"function"},{"inputs":[{"internalType":"bytes32","name":"","type":"bytes32"},{"internalType":"address","name":"","type":"address"}],"name":"operationStakes","outputs":[{"internalType":"uint256","name":"amount","type":"uint256"},{"internalType":"uint256","name":"timestamp","type":"uint256"},{"internalType":"bool","name":"isActive","type":"bool"}],"stateMutability":"view","type":"function"},{"inputs":[],"name":"owner","outputs":[{"internalType":"address","name":"","type":"address"}],"stateMutability":"view","type":"function"},{"inputs":[],"name":"projectWallet","outputs":[{"internalType":"address payable","name":"","type":"address"}],"stateMutability":"view","type":"function"},{"inputs":[{"internalType":"address","name":"","type":"address"},{"internalType":"uint256","name":"","type":"uint256"}],"name":"providerToOperationIds","outputs":[{"internalType":"bytes32","name":"","type":"bytes32"}],"stateMutability":"view","type":"function"},{"inputs":[],"name":"renounceOwnership","outputs":[],"stateMutability":"nonpayable","type":"function"},{"inputs":[{"internalType":"address","name":"user","type":"address"},{"internalType":"bool","name":"status","type":"bool"}],"name":"setAdmin","outputs":[],"stateMutability":"nonpayable","type":"function"},{"inputs":[{"internalType":"uint256","name":"_lockPeriod","type":"uint256"}],"name":"setLockPeriod","outputs":[],"stateMutability":"nonpayable","type":"function"},{"inputs":[{"internalType":"bytes32","name":"id","type":"bytes32"},{"internalType":"uint256","name":"amount","type":"uint256"}],"name":"setOperationReward","outputs":[],"stateMutability":"nonpayable","type":"function"},{"inputs":[{"internalType":"address payable","name":"_projectWallet","type":"address"}],"name":"setProjectWallet","outputs":[],"stateMutability":"nonpayable","type":"function"},{"inputs":[{"internalType":"address","name":"token","type":"address"},{"internalType":"bytes32","name":"operationId","type":"bytes32"},{"internalType":"uint256","name":"amount","type":"uint256"}],"name":"stake","outputs":[],"stateMutability":"nonpayable","type":"function"},{"inputs":[{"internalType":"address","name":"","type":"address"},{"internalType":"address","name":"","type":"address"}],"name":"stakes","outputs":[{"internalType":"uint256","name":"amount","type":"uint256"},{"internalType":"uint256","name":"timestamp","type":"uint256"},{"internalType":"bool","name":"isActive","type":"bool"}],"stateMutability":"view","type":"function"},{"inputs":[{"internalType":"address","name":"","type":"address"}],"name":"tokenToOperationIds","outputs":[{"internalType":"bytes32","name":"","type":"bytes32"}],"stateMutability":"view","type":"function"},{"inputs":[{"internalType":"address","name":"","type":"address"}],"name":"tokenTvl","outputs":[{"internalType":"uint256","name":"","type":"uint256"}],"stateMutability":"view","type":"function"},{"inputs":[{"internalType":"address","name":"newOwner","type":"address"}],"name":"transferOwnership","outputs":[],"stateMutability":"nonpayable","type":"function"},{"inputs":[{"internalType":"address","name":"token","type":"address"},{"internalType":"bytes32","name":"operationId","type":"bytes32"},{"internalType":"address","name":"user","type":"address"}],"name":"triggerReward","outputs":[],"stateMutability":"nonpayable","type":"function"}],"evm":{"bytecode":{"linkReferences":{},"object":"608060405234801561001057600080fd5b50604051611a0d380380611a0d83398101604081905261002f9161013c565b600160005561003d336100d2565b6001600160a01b0382166100975760405162461bcd60e51b815260206004820152601660248201527f496e76616c69642070726f6a6563742077616c6c657400000000000000000000604482015260640160405180910390fd5b600280546001600160a01b0319166001600160a01b03938416179055166000908152600460205260409020805460ff19166001179055610176565b600180546001600160a01b038381166001600160a01b0319831681179093556040519116919082907f8be0079c531659141344cd1fd0a4f28419497f9722a3daafe3b4186f6b6457e090600090a35050565b6001600160a01b038116811461013957600080fd5b50565b6000806040838503121561014f57600080fd5b825161015a81610124565b602084015190925061016b81610124565b809150509250929050565b611888806101856000396000f3fe608060405234801561001057600080fd5b50600436106101375760003560e01c8063779972da116100b8578063a4e47b661161007c578063a4e47b66146102e8578063b836f52114610325578063beb08ab914610338578063dbeee3971461034b578063f2fde38b1461036b578063fea47a1c1461037e57600080fd5b8063779972da146102775780637b6520561461028a5780637bd44ecf1461029d5780638a780447146102b05780638da5cb5b146102c357600080fd5b806343273eec116100ff57806343273eec146101da5780634b0bddd2146102345780634bb1383b146102495780636f37a2c91461025c578063715018a61461026f57600080fd5b806324c963a21461013c578063279412c51461016a57806327b670531461017d5780633fd8b02f1461019e578063429b62e5146101a7575b600080fd5b61014f61014a366004611246565b61039e565b604051610161969594939291906112a5565b60405180910390f35b61014f610178366004611246565b610468565b61019061018b366004611328565b610555565b604051908152602001610161565b61019060055481565b6101ca6101b5366004611414565b60046020526000908152604090205460ff1681565b6040519015158152602001610161565b6102176101e8366004611438565b600960209081526000928352604080842090915290825290208054600182015460029092015490919060ff1683565b604080519384526020840192909252151590820152606001610161565b610247610242366004611476565b61078a565b005b6101906102573660046114a4565b610839565b61024761026a3660046114d0565b61086a565b610247610af0565b610247610285366004611246565b610b04565b610247610298366004611505565b610b11565b6102476102ab366004611547565b610d55565b6102476102be366004611414565b610e00565b6001546001600160a01b03165b6040516001600160a01b039091168152602001610161565b6102176102f6366004611569565b600860209081526000928352604080842090915290825290208054600182015460029092015490919060ff1683565b610247610333366004611597565b610e72565b6002546102d0906001600160a01b031681565b610190610359366004611414565b600a6020526000908152604090205481565b610247610379366004611414565b6110c8565b61019061038c366004611414565b60076020526000908152604090205481565b6003602052600090815260409020805481906103b9906115d8565b80601f01602080910402602001604051908101604052809291908181526020018280546103e5906115d8565b80156104325780601f1061040757610100808354040283529160200191610432565b820191906000526020600020905b81548152906001019060200180831161041557829003601f168201915b505050600184015460028501546003860154600487015460059097015495966001600160a01b0393841696929093169450925086565b600081815260036020819052604082206001810154600282015492820154600483015460058401548454606097968796879687968796929586956001600160a01b039384169590931693919286906104bf906115d8565b80601f01602080910402602001604051908101604052809291908181526020018280546104eb906115d8565b80156105385780601f1061050d57610100808354040283529160200191610538565b820191906000526020600020905b81548152906001019060200180831161051b57829003601f168201915b505050505095509650965096509650965096505091939550919395565b3360009081526004602052604081205460ff1661058d5760405162461bcd60e51b815260040161058490611612565b60405180910390fd5b6001600160a01b0385166105db5760405162461bcd60e51b8152602060048201526015602482015274496e76616c696420746f6b656e206164647265737360581b6044820152606401610584565b6001600160a01b0384166106315760405162461bcd60e51b815260206004820152601860248201527f496e76616c69642070726f7669646572206164647265737300000000000000006044820152606401610584565b600083116106725760405162461bcd60e51b815260206004820152600e60248201526d092dcecc2d8d2c840d8cadccee8d60931b6044820152606401610584565b600b805490600061068283611658565b91905055506000600b5460405160200161069e91815260200190565b60408051601f198184030181529181528151602092830120600081815260039093529120909150806106d089826116bf565b50600180820180546001600160a01b03808b166001600160a01b03199283168117909355600285018054918b169190921681179091556003840188905560048401879055600090815260066020908152604080832080549586018155835281832090940186905591815260079091528190208390555182907f2690fca832a7d48acb6433d8af47a3d184803d8e82c5971c2484a99c5825af0590610777908b908b9061177e565b60405180910390a2509695505050505050565b610792611141565b6001600160a01b0382166107da5760405162461bcd60e51b815260206004820152600f60248201526e496e76616c6964206164647265737360881b6044820152606401610584565b6001600160a01b038216600081815260046020908152604091829020805460ff191685151590811790915591519182527fc63c72d6995119c079ef24c02679d49838905c8e81df9e632011b914e6f592f6910160405180910390a25050565b6006602052816000526040600020818154811061085557600080fd5b90600052602060002001600091509150505481565b61087261119b565b600081116108b35760405162461bcd60e51b815260206004820152600e60248201526d043616e6e6f74207374616b6520360941b6044820152606401610584565b6000828152600360205260409020600101546001600160a01b038481169116146108ef5760405162461bcd60e51b8152600401610584906117a8565b6040516323b872dd60e01b81523360048201523060248201526044810182905283906001600160a01b038216906323b872dd906064016020604051808303816000875af1158015610944573d6000803e3d6000fd5b505050506040513d601f19601f8201168201806040525081019061096891906117d0565b6109a65760405162461bcd60e51b815260206004820152600f60248201526e151c985b9cd9995c8819985a5b1959608a1b6044820152606401610584565b604080516060808201835284825242602080840182815260018587018181526001600160a01b038c16600090815260088552888120338083529086528982209851895593518884015590516002978801805491151560ff19928316179055885196870189528a87528685019586528689018381528c83526009865289832094835293855288822096518755945191860191909155905193909401805493151593909216929092179055858252600390529081206005018054849290610a6c9084906117ed565b90915550506001600160a01b0384166000908152600a602052604081208054849290610a999084906117ed565b9091555050604051828152839033906001600160a01b038716907f8ebe3cf3866072a6347fafb45eb5d419e237097bc479ebfd720c1a4f6fde024e9060200160405180910390a450610aeb6001600055565b505050565b610af8611141565b610b0260006111f4565b565b610b0c611141565b600555565b3360009081526004602052604090205460ff16610b405760405162461bcd60e51b815260040161058490611612565b6000828152600360205260409020600101546001600160a01b03848116911614610b7c5760405162461bcd60e51b8152600401610584906117a8565b60008281526009602090815260408083206001600160a01b03851684529091529020600281015460ff16610be45760405162461bcd60e51b815260206004820152600f60248201526e4e6f20616374697665207374616b6560881b6044820152606401610584565b600083815260036020526040812060058101548354919291610c0e90670de0b6b3a7640000611806565b610c18919061181d565b90506000670de0b6b3a7640000828460040154610c359190611806565b610c3f919061181d565b9050610c4c878688610e72565b60405163a9059cbb60e01b81526001600160a01b0386811660048301526024820183905288919082169063a9059cbb906044016020604051808303816000875af1158015610c9e573d6000803e3d6000fd5b505050506040513d601f19601f82011682018060405250810190610cc291906117d0565b610d075760405162461bcd60e51b815260206004820152601660248201527514995dd85c99081d1c985b9cd9995c8819985a5b195960521b6044820152606401610584565b86866001600160a01b03167f25d820333c9a561247c10864c5a61ff35d1b52a4d260cd78ffd379c9921a418784604051610d4391815260200190565b60405180910390a35050505050505050565b3360009081526004602052604090205460ff16610d845760405162461bcd60e51b815260040161058490611612565b6000828152600360205260409020600101546001600160a01b0316610deb5760405162461bcd60e51b815260206004820152601860248201527f4f7065726174696f6e20646f6573206e6f7420657869737400000000000000006044820152606401610584565b60009182526003602052604090912060040155565b610e08611141565b6001600160a01b038116610e505760405162461bcd60e51b815260206004820152600f60248201526e496e76616c6964206164647265737360881b6044820152606401610584565b600280546001600160a01b0319166001600160a01b0392909216919091179055565b610e7a61119b565b3360009081526004602052604090205460ff16610ea95760405162461bcd60e51b815260040161058490611612565b6001600160a01b038084166000908152600860209081526040808320938616835292905220600281015460ff16610f145760405162461bcd60e51b815260206004820152600f60248201526e4e6f20616374697665207374616b6560881b6044820152606401610584565b6000828152600360205260409020600101546001600160a01b03858116911614610f505760405162461bcd60e51b8152600401610584906117a8565b805460028201805460ff19169055604051632770a7eb60e21b81526001600160a01b03858116600483015260248201839052869190821690639dc29fac906044016020604051808303816000875af1158015610fb0573d6000803e3d6000fd5b505050506040513d601f19601f82011682018060405250810190610fd491906117d0565b6110185760405162461bcd60e51b81526020600482015260156024820152744661696c656420746f206275726e20746f6b656e7360581b6044820152606401610584565b6001600160a01b0386166000908152600a60205260408120805484929061104090849061183f565b90915550506000848152600360205260408120600501805484929061106690849061183f565b9250508190555083856001600160a01b0316876001600160a01b03167f9f4bc1941c2791ab8134a2b39613ba300cb771b5e274769168519f3f85974f2f856040516110b391815260200190565b60405180910390a4505050610aeb6001600055565b6110d0611141565b6001600160a01b0381166111355760405162461bcd60e51b815260206004820152602660248201527f4f776e61626c653a206e6577206f776e657220697320746865207a65726f206160448201526564647265737360d01b6064820152608401610584565b61113e816111f4565b50565b6001546001600160a01b03163314610b025760405162461bcd60e51b815260206004820181905260248201527f4f776e61626c653a2063616c6c6572206973206e6f7420746865206f776e65726044820152606401610584565b6002600054036111ed5760405162461bcd60e51b815260206004820152601f60248201527f5265656e7472616e637947756172643a207265656e7472616e742063616c6c006044820152606401610584565b6002600055565b600180546001600160a01b038381166001600160a01b0319831681179093556040519116919082907f8be0079c531659141344cd1fd0a4f28419497f9722a3daafe3b4186f6b6457e090600090a35050565b60006020828403121561125857600080fd5b5035919050565b6000815180845260005b8181101561128557602081850181015186830182015201611269565b506000602082860101526020601f19601f83011685010191505092915050565b60c0815260006112b860c083018961125f565b6001600160a01b0397881660208401529590961660408201526060810193909352608083019190915260a09091015292915050565b634e487b7160e01b600052604160045260246000fd5b6001600160a01b038116811461113e57600080fd5b803561132381611303565b919050565b600080600080600060a0868803121561134057600080fd5b853567ffffffffffffffff81111561135757600080fd5b8601601f8101881361136857600080fd5b803567ffffffffffffffff811115611382576113826112ed565b604051601f8201601f19908116603f0116810167ffffffffffffffff811182821017156113b1576113b16112ed565b6040528181528282016020018a10156113c957600080fd5b816020840160208301376000602083830101528097505050506113ee60208701611318565b93506113fc60408701611318565b94979396509394606081013594506080013592915050565b60006020828403121561142657600080fd5b813561143181611303565b9392505050565b6000806040838503121561144b57600080fd5b82359150602083013561145d81611303565b809150509250929050565b801515811461113e57600080fd5b6000806040838503121561148957600080fd5b823561149481611303565b9150602083013561145d81611468565b600080604083850312156114b757600080fd5b82356114c281611303565b946020939093013593505050565b6000806000606084860312156114e557600080fd5b83356114f081611303565b95602085013595506040909401359392505050565b60008060006060848603121561151a57600080fd5b833561152581611303565b925060208401359150604084013561153c81611303565b809150509250925092565b6000806040838503121561155a57600080fd5b50508035926020909101359150565b6000806040838503121561157c57600080fd5b823561158781611303565b9150602083013561145d81611303565b6000806000606084860312156115ac57600080fd5b83356115b781611303565b925060208401356115c781611303565b929592945050506040919091013590565b600181811c908216806115ec57607f821691505b60208210810361160c57634e487b7160e01b600052602260045260246000fd5b50919050565b60208082526016908201527521b0b63632b91034b9903737ba1030b71030b236b4b760511b604082015260600190565b634e487b7160e01b600052601160045260246000fd5b60006001820161166a5761166a611642565b5060010190565b601f821115610aeb57806000526020600020601f840160051c810160208510156116985750805b601f840160051c820191505b818110156116b857600081556001016116a4565b5050505050565b815167ffffffffffffffff8111156116d9576116d96112ed565b6116ed816116e784546115d8565b84611671565b6020601f82116001811461172157600083156117095750848201515b600019600385901b1c1916600184901b1784556116b8565b600084815260208120601f198516915b828110156117515787850151825560209485019460019092019101611731565b508482101561176f5786840151600019600387901b60f8161c191681555b50505050600190811b01905550565b604081526000611791604083018561125f565b905060018060a01b03831660208301529392505050565b6020808252600e908201526d0a8ded6cadc40dad2e6dac2e8c6d60931b604082015260600190565b6000602082840312156117e257600080fd5b815161143181611468565b8082018082111561180057611800611642565b92915050565b808202811582820484141761180057611800611642565b60008261183a57634e487b7160e01b600052601260045260246000fd5b500490565b818103818111156118005761180061164256fea2646970667358221220baef1e28934aac6707c96333d6ddb9cbfa2948b4aa7b195f3c19c3c42d7e874164736f6c634300081c0033","opcodes":"PUSH1 0x80 PUSH1 0x40 MSTORE CALLVALUE DUP1 ISZERO PUSH2 0x10 JUMPI PUSH1 0x0 DUP1 REVERT JUMPDEST POP PUSH1 0x40 MLOAD PUSH2 0x1A0D CODESIZE SUB DUP1 PUSH2 0x1A0D DUP4 CODECOPY DUP2 ADD PUSH1 0x40 DUP2 SWAP1 MSTORE PUSH2 0x2F SWAP2 PUSH2 0x13C JUMP JUMPDEST PUSH1 0x1 PUSH1 0x0 SSTORE PUSH2 0x3D CALLER PUSH2 0xD2 JUMP JUMPDEST PUSH1 0x1 PUSH1 0x1 PUSH1 0xA0 SHL SUB DUP3 AND PUSH2 0x97 JUMPI PUSH1 0x40 MLOAD PUSH3 0x461BCD PUSH1 0xE5 SHL DUP2 MSTORE PUSH1 0x20 PUSH1 0x4 DUP3 ADD MSTORE PUSH1 0x16 PUSH1 0x24 DUP3 ADD MSTORE PUSH32 0x496E76616C69642070726F6A6563742077616C6C657400000000000000000000 PUSH1 0x44 DUP3 ADD MSTORE PUSH1 0x64 ADD PUSH1 0x40 MLOAD DUP1 SWAP2 SUB SWAP1 REVERT JUMPDEST PUSH1 0x2 DUP1 SLOAD PUSH1 0x1 PUSH1 0x1 PUSH1 0xA0 SHL SUB NOT AND PUSH1 0x1 PUSH1 0x1 PUSH1 0xA0 SHL SUB SWAP4 DUP5 AND OR SWAP1 SSTORE AND PUSH1 0x0 SWAP1 DUP2 MSTORE PUSH1 0x4 PUSH1 0x20 MSTORE PUSH1 0x40 SWAP1 KECCAK256 DUP1 SLOAD PUSH1 0xFF NOT AND PUSH1 0x1 OR SWAP1 SSTORE PUSH2 0x176 JUMP JUMPDEST PUSH1 0x1 DUP1 SLOAD PUSH1 0x1 PUSH1 0x1 PUSH1 0xA0 SHL SUB DUP4 DUP2 AND PUSH1 0x1 PUSH1 0x1 PUSH1 0xA0 SHL SUB NOT DUP4 AND DUP2 OR SWAP1 SWAP4 SSTORE PUSH1 0x40 MLOAD SWAP2 AND SWAP2 SWAP1 DUP3 SWAP1 PUSH32 0x8BE0079C531659141344CD1FD0A4F28419497F9722A3DAAFE3B4186F6B6457E0 SWAP1 PUSH1 0x0 SWAP1 LOG3 POP POP JUMP JUMPDEST PUSH1 0x1 PUSH1 0x1 PUSH1 0xA0 SHL SUB DUP2 AND DUP2 EQ PUSH2 0x139 JUMPI PUSH1 0x0 DUP1 REVERT JUMPDEST POP JUMP JUMPDEST PUSH1 0x0 DUP1 PUSH1 0x40 DUP4 DUP6 SUB SLT ISZERO PUSH2 0x14F JUMPI PUSH1 0x0 DUP1 REVERT JUMPDEST DUP3 MLOAD PUSH2 0x15A DUP2 PUSH2 0x124 JUMP JUMPDEST PUSH1 0x20 DUP5 ADD MLOAD SWAP1 SWAP3 POP PUSH2 0x16B DUP2 PUSH2 0x124 JUMP JUMPDEST DUP1 SWAP2 POP POP SWAP3 POP SWAP3 SWAP1 POP JUMP JUMPDEST PUSH2 0x1888 DUP1 PUSH2 0x185 PUSH1 0x0 CODECOPY PUSH1 0x0 RETURN INVALID PUSH1 0x80 PUSH1 0x40 MSTORE CALLVALUE DUP1 ISZERO PUSH2 0x10 JUMPI PUSH1 0x0 DUP1 REVERT JUMPDEST POP PUSH1 0x4 CALLDATASIZE LT PUSH2 0x137 JUMPI PUSH1 0x0 CALLDATALOAD PUSH1 0xE0 SHR DUP1 PUSH4 0x779972DA GT PUSH2 0xB8 JUMPI DUP1 PUSH4 0xA4E47B66 GT PUSH2 0x7C JUMPI DUP1 PUSH4 0xA4E47B66 EQ PUSH2 0x2E8 JUMPI DUP1 PUSH4 0xB836F521 EQ PUSH2 0x325 JUMPI DUP1 PUSH4 0xBEB08AB9 EQ PUSH2 0x338 JUMPI DUP1 PUSH4 0xDBEEE397 EQ PUSH2 0x34B JUMPI DUP1 PUSH4 0xF2FDE38B EQ PUSH2 0x36B JUMPI DUP1 PUSH4 0xFEA47A1C EQ PUSH2 0x37E JUMPI PUSH1 0x0 DUP1 REVERT JUMPDEST DUP1 PUSH4 0x779972DA EQ PUSH2 0x277 JUMPI DUP1 PUSH4 0x7B652056 EQ PUSH2 0x28A JUMPI DUP1 PUSH4 0x7BD44ECF EQ PUSH2 0x29D JUMPI DUP1 PUSH4 0x8A780447 EQ PUSH2 0x2B0 JUMPI DUP1 PUSH4 0x8DA5CB5B EQ PUSH2 0x2C3 JUMPI PUSH1 0x0 DUP1 REVERT JUMPDEST DUP1 PUSH4 0x43273EEC GT PUSH2 0xFF JUMPI DUP1 PUSH4 0x43273EEC EQ PUSH2 0x1DA JUMPI DUP1 PUSH4 0x4B0BDDD2 EQ PUSH2 0x234 JUMPI DUP1 PUSH4 0x4BB1383B EQ PUSH2 0x249 JUMPI DUP1 PUSH4 0x6F37A2C9 EQ PUSH2 0x25C JUMPI DUP1 PUSH4 0x715018A6 EQ PUSH2 0x26F JUMPI PUSH1 0x0 DUP1 REVERT JUMPDEST DUP1 PUSH4 0x24C963A2 EQ PUSH2 0x13C JUMPI DUP1 PUSH4 0x279412C5 EQ PUSH2 0x16A JUMPI DUP1 PUSH4 0x27B67053 EQ PUSH2 0x17D JUMPI DUP1 PUSH4 0x3FD8B02F EQ PUSH2 0x19E JUMPI DUP1 PUSH4 0x429B62E5 EQ PUSH2 0x1A7 JUMPI JUMPDEST PUSH1 0x0 DUP1 REVERT JUMPDEST PUSH2 0x14F PUSH2 0x14A CALLDATASIZE PUSH1 0x4 PUSH2 0x1246 JUMP JUMPDEST PUSH2 0x39E JUMP JUMPDEST PUSH1 0x40 MLOAD PUSH2 0x161 SWAP7 SWAP6 SWAP5 SWAP4 SWAP3 SWAP2 SWAP1 PUSH2 0x12A5 JUMP JUMPDEST PUSH1 0x40 MLOAD DUP1 SWAP2 SUB SWAP1 RETURN JUMPDEST PUSH2 0x14F PUSH2 0x178 CALLDATASIZE PUSH1 0x4 PUSH2 0x1246 JUMP JUMPDEST PUSH2 0x468 JUMP JUMPDEST PUSH2 0x190 PUSH2 0x18B CALLDATASIZE PUSH1 0x4 PUSH2 0x1328 JUMP JUMPDEST PUSH2 0x555 JUMP JUMPDEST PUSH1 0x40 MLOAD SWAP1 DUP2 MSTORE PUSH1 0x20 ADD PUSH2 0x161 JUMP JUMPDEST PUSH2 0x190 PUSH1 0x5 SLOAD DUP2 JUMP JUMPDEST PUSH2 0x1CA PUSH2 0x1B5 CALLDATASIZE PUSH1 0x4 PUSH2 0x1414 JUMP JUMPDEST PUSH1 0x4 PUSH1 0x20 MSTORE PUSH1 0x0 SWAP1 DUP2 MSTORE PUSH1 0x40 SWAP1 KECCAK256 SLOAD PUSH1 0xFF AND DUP2 JUMP JUMPDEST PUSH1 0x40 MLOAD SWAP1 ISZERO ISZERO DUP2 MSTORE PUSH1 0x20 ADD PUSH2 0x161 JUMP JUMPDEST PUSH2 0x217 PUSH2 0x1E8 CALLDATASIZE PUSH1 0x4 PUSH2 0x1438 JUMP JUMPDEST PUSH1 0x9 PUSH1 0x20 SWAP1 DUP2 MSTORE PUSH1 0x0 SWAP3 DUP4 MSTORE PUSH1 0x40 DUP1 DUP5 KECCAK256 SWAP1 SWAP2 MSTORE SWAP1 DUP3 MSTORE SWAP1 KECCAK256 DUP1 SLOAD PUSH1 0x1 DUP3 ADD SLOAD PUSH1 0x2 SWAP1 SWAP3 ADD SLOAD SWAP1 SWAP2 SWAP1 PUSH1 0xFF AND DUP4 JUMP JUMPDEST PUSH1 0x40 DUP1 MLOAD SWAP4 DUP5 MSTORE PUSH1 0x20 DUP5 ADD SWAP3 SWAP1 SWAP3 MSTORE ISZERO ISZERO SWAP1 DUP3 ADD MSTORE PUSH1 0x60 ADD PUSH2 0x161 JUMP JUMPDEST PUSH2 0x247 PUSH2 0x242 CALLDATASIZE PUSH1 0x4 PUSH2 0x1476 JUMP JUMPDEST PUSH2 0x78A JUMP JUMPDEST STOP JUMPDEST PUSH2 0x190 PUSH2 0x257 CALLDATASIZE PUSH1 0x4 PUSH2 0x14A4 JUMP JUMPDEST PUSH2 0x839 JUMP JUMPDEST PUSH2 0x247 PUSH2 0x26A CALLDATASIZE PUSH1 0x4 PUSH2 0x14D0 JUMP JUMPDEST PUSH2 0x86A JUMP JUMPDEST PUSH2 0x247 PUSH2 0xAF0 JUMP JUMPDEST PUSH2 0x247 PUSH2 0x285 CALLDATASIZE PUSH1 0x4 PUSH2 0x1246 JUMP JUMPDEST PUSH2 0xB04 JUMP JUMPDEST PUSH2 0x247 PUSH2 0x298 CALLDATASIZE PUSH1 0x4 PUSH2 0x1505 JUMP JUMPDEST PUSH2 0xB11 JUMP JUMPDEST PUSH2 0x247 PUSH2 0x2AB CALLDATASIZE PUSH1 0x4 PUSH2 0x1547 JUMP JUMPDEST PUSH2 0xD55 JUMP JUMPDEST PUSH2 0x247 PUSH2 0x2BE CALLDATASIZE PUSH1 0x4 PUSH2 0x1414 JUMP JUMPDEST PUSH2 0xE00 JUMP JUMPDEST PUSH1 0x1 SLOAD PUSH1 0x1 PUSH1 0x1 PUSH1 0xA0 SHL SUB AND JUMPDEST PUSH1 0x40 MLOAD PUSH1 0x1 PUSH1 0x1 PUSH1 0xA0 SHL SUB SWAP1 SWAP2 AND DUP2 MSTORE PUSH1 0x20 ADD PUSH2 0x161 JUMP JUMPDEST PUSH2 0x217 PUSH2 0x2F6 CALLDATASIZE PUSH1 0x4 PUSH2 0x1569 JUMP JUMPDEST PUSH1 0x8 PUSH1 0x20 SWAP1 DUP2 MSTORE PUSH1 0x0 SWAP3 DUP4 MSTORE PUSH1 0x40 DUP1 DUP5 KECCAK256 SWAP1 SWAP2 MSTORE SWAP1 DUP3 MSTORE SWAP1 KECCAK256 DUP1 SLOAD PUSH1 0x1 DUP3 ADD SLOAD PUSH1 0x2 SWAP1 SWAP3 ADD SLOAD SWAP1 SWAP2 SWAP1 PUSH1 0xFF AND DUP4 JUMP JUMPDEST PUSH2 0x247 PUSH2 0x333 CALLDATASIZE PUSH1 0x4 PUSH2 0x1597 JUMP JUMPDEST PUSH2 0xE72 JUMP JUMPDEST PUSH1 0x2 SLOAD PUSH2 0x2D0 SWAP1 PUSH1 0x1 PUSH1 0x1 PUSH1 0xA0 SHL SUB AND DUP2 JUMP JUMPDEST PUSH2 0x190 PUSH2 0x359 CALLDATASIZE PUSH1 0x4 PUSH2 0x1414 JUMP JUMPDEST PUSH1 0xA PUSH1 0x20 MSTORE PUSH1 0x0 SWAP1 DUP2 MSTORE PUSH1 0x40 SWAP1 KECCAK256 SLOAD DUP2 JUMP JUMPDEST PUSH2 0x247 PUSH2 0x379 CALLDATASIZE PUSH1 0x4 PUSH2 0x1414 JUMP JUMPDEST PUSH2 0x10C8 JUMP JUMPDEST PUSH2 0x190 PUSH2 0x38C CALLDATASIZE PUSH1 0x4 PUSH2 0x1414 JUMP JUMPDEST PUSH1 0x7 PUSH1 0x20 MSTORE PUSH1 0x0 SWAP1 DUP2 MSTORE PUSH1 0x40 SWAP1 KECCAK256 SLOAD DUP2 JUMP JUMPDEST PUSH1 0x3 PUSH1 0x20 MSTORE PUSH1 0x0 SWAP1 DUP2 MSTORE PUSH1 0x40 SWAP1 KECCAK256 DUP1 SLOAD DUP2 SWAP1 PUSH2 0x3B9 SWAP1 PUSH2 0x15D8 JUMP JUMPDEST DUP1 PUSH1 0x1F ADD PUSH1 0x20 DUP1 SWAP2 DIV MUL PUSH1 0x20 ADD PUSH1 0x40 MLOAD SWAP1 DUP2 ADD PUSH1 0x40 MSTORE DUP1 SWAP3 SWAP2 SWAP1 DUP2 DUP2 MSTORE PUSH1 0x20 ADD DUP3 DUP1 SLOAD PUSH2 0x3E5 SWAP1 PUSH2 0x15D8 JUMP JUMPDEST DUP1 ISZERO PUSH2 0x432 JUMPI DUP1 PUSH1 0x1F LT PUSH2 0x407 JUMPI PUSH2 0x100 DUP1 DUP4 SLOAD DIV MUL DUP4 MSTORE SWAP2 PUSH1 0x20 ADD SWAP2 PUSH2 0x432 JUMP JUMPDEST DUP3 ADD SWAP2 SWAP1 PUSH1 0x0 MSTORE PUSH1 0x20 PUSH1 0x0 KECCAK256 SWAP1 JUMPDEST DUP2 SLOAD DUP2 MSTORE SWAP1 PUSH1 0x1 ADD SWAP1 PUSH1 0x20 ADD DUP1 DUP4 GT PUSH2 0x415 JUMPI DUP3 SWAP1 SUB PUSH1 0x1F AND DUP3 ADD SWAP2 JUMPDEST POP POP POP PUSH1 0x1 DUP5 ADD SLOAD PUSH1 0x2 DUP6 ADD SLOAD PUSH1 0x3 DUP7 ADD SLOAD PUSH1 0x4 DUP8 ADD SLOAD PUSH1 0x5 SWAP1 SWAP8 ADD SLOAD SWAP6 SWAP7 PUSH1 0x1 PUSH1 0x1 PUSH1 0xA0 SHL SUB SWAP4 DUP5 AND SWAP7 SWAP3 SWAP1 SWAP4 AND SWAP5 POP SWAP3 POP DUP7 JUMP JUMPDEST PUSH1 0x0 DUP2 DUP2 MSTORE PUSH1 0x3 PUSH1 0x20 DUP2 SWAP1 MSTORE PUSH1 0x40 DUP3 KECCAK256 PUSH1 0x1 DUP2 ADD SLOAD PUSH1 0x2 DUP3 ADD SLOAD SWAP3 DUP3 ADD SLOAD PUSH1 0x4 DUP4 ADD SLOAD PUSH1 0x5 DUP5 ADD SLOAD DUP5 SLOAD PUSH1 0x60 SWAP8 SWAP7 DUP8 SWAP7 DUP8 SWAP7 DUP8 SWAP7 DUP8 SWAP7 SWAP3 SWAP6 DUP7 SWAP6 PUSH1 0x1 PUSH1 0x1 PUSH1 0xA0 SHL SUB SWAP4 DUP5 AND SWAP6 SWAP1 SWAP4 AND SWAP4 SWAP2 SWAP3 DUP7 SWAP1 PUSH2 0x4BF SWAP1 PUSH2 0x15D8 JUMP JUMPDEST DUP1 PUSH1 0x1F ADD PUSH1 0x20 DUP1 SWAP2 DIV MUL PUSH1 0x20 ADD PUSH1 0x40 MLOAD SWAP1 DUP2 ADD PUSH1 0x40 MSTORE DUP1 SWAP3 SWAP2 SWAP1 DUP2 DUP2 MSTORE PUSH1 0x20 ADD DUP3 DUP1 SLOAD PUSH2 0x4EB SWAP1 PUSH2 0x15D8 JUMP JUMPDEST DUP1 ISZERO PUSH2 0x538 JUMPI DUP1 PUSH1 0x1F LT PUSH2 0x50D JUMPI PUSH2 0x100 DUP1 DUP4 SLOAD DIV MUL DUP4 MSTORE SWAP2 PUSH1 0x20 ADD SWAP2 PUSH2 0x538 JUMP JUMPDEST DUP3 ADD SWAP2 SWAP1 PUSH1 0x0 MSTORE PUSH1 0x20 PUSH1 0x0 KECCAK256 SWAP1 JUMPDEST DUP2 SLOAD DUP2 MSTORE SWAP1 PUSH1 0x1 ADD SWAP1 PUSH1 0x20 ADD DUP1 DUP4 GT PUSH2 0x51B JUMPI DUP3 SWAP1 SUB PUSH1 0x1F AND DUP3 ADD SWAP2 JUMPDEST POP POP POP POP POP SWAP6 POP SWAP7 POP SWAP7 POP SWAP7 POP SWAP7 POP SWAP7 POP SWAP7 POP POP SWAP2 SWAP4 SWAP6 POP SWAP2 SWAP4 SWAP6 JUMP JUMPDEST CALLER PUSH1 0x0 SWAP1 DUP2 MSTORE PUSH1 0x4 PUSH1 0x20 MSTORE PUSH1 0x40 DUP2 KECCAK256 SLOAD PUSH1 0xFF AND PUSH2 0x58D JUMPI PUSH1 0x40 MLOAD PUSH3 0x461BCD PUSH1 0xE5 SHL DUP2 MSTORE PUSH1 0x4 ADD PUSH2 0x584 SWAP1 PUSH2 0x1612 JUMP JUMPDEST PUSH1 0x40 MLOAD DUP1 SWAP2 SUB SWAP1 REVERT JUMPDEST PUSH1 0x1 PUSH1 0x1 PUSH1 0xA0 SHL SUB DUP6 AND PUSH2 0x5DB JUMPI PUSH1 0x40 MLOAD PUSH3 0x461BCD PUSH1 0xE5 SHL DUP2 MSTORE PUSH1 0x20 PUSH1 0x4 DUP3 ADD MSTORE PUSH1 0x15 PUSH1 0x24 DUP3 ADD MSTORE PUSH21 0x496E76616C696420746F6B656E2061646472657373 PUSH1 0x58 SHL PUSH1 0x44 DUP3 ADD MSTORE PUSH1 0x64 ADD PUSH2 0x584 JUMP JUMPDEST PUSH1 0x1 PUSH1 0x1 PUSH1 0xA0 SHL SUB DUP5 AND PUSH2 0x631 JUMPI PUSH1 0x40 MLOAD PUSH3 0x461BCD PUSH1 0xE5 SHL DUP2 MSTORE PUSH1 0x20 PUSH1 0x4 DUP3 ADD MSTORE PUSH1 0x18 PUSH1 0x24 DUP3 ADD MSTORE PUSH32 0x496E76616C69642070726F766964657220616464726573730000000000000000 PUSH1 0x44 DUP3 ADD MSTORE PUSH1 0x64 ADD PUSH2 0x584 JUMP JUMPDEST PUSH1 0x0 DUP4 GT PUSH2 0x672 JUMPI PUSH1 0x40 MLOAD PUSH3 0x461BCD PUSH1 0xE5 SHL DUP2 MSTORE PUSH1 0x20 PUSH1 0x4 DUP3 ADD MSTORE PUSH1 0xE PUSH1 0x24 DUP3 ADD MSTORE PUSH14 0x92DCECC2D8D2C840D8CADCCEE8D PUSH1 0x93 SHL PUSH1 0x44 DUP3 ADD MSTORE PUSH1 0x64 ADD PUSH2 0x584 JUMP JUMPDEST PUSH1 0xB DUP1 SLOAD SWAP1 PUSH1 0x0 PUSH2 0x682 DUP4 PUSH2 0x1658 JUMP JUMPDEST SWAP2 SWAP1 POP SSTORE POP PUSH1 0x0 PUSH1 0xB SLOAD PUSH1 0x40 MLOAD PUSH1 0x20 ADD PUSH2 0x69E SWAP2 DUP2 MSTORE PUSH1 0x20 ADD SWAP1 JUMP JUMPDEST PUSH1 0x40 DUP1 MLOAD PUSH1 0x1F NOT DUP2 DUP5 SUB ADD DUP2 MSTORE SWAP2 DUP2 MSTORE DUP2 MLOAD PUSH1 0x20 SWAP3 DUP4 ADD KECCAK256 PUSH1 0x0 DUP2 DUP2 MSTORE PUSH1 0x3 SWAP1 SWAP4 MSTORE SWAP2 KECCAK256 SWAP1 SWAP2 POP DUP1 PUSH2 0x6D0 DUP10 DUP3 PUSH2 0x16BF JUMP JUMPDEST POP PUSH1 0x1 DUP1 DUP3 ADD DUP1 SLOAD PUSH1 0x1 PUSH1 0x1 PUSH1 0xA0 SHL SUB DUP1 DUP12 AND PUSH1 0x1 PUSH1 0x1 PUSH1 0xA0 SHL SUB NOT SWAP3 DUP4 AND DUP2 OR SWAP1 SWAP4 SSTORE PUSH1 0x2 DUP6 ADD DUP1 SLOAD SWAP2 DUP12 AND SWAP2 SWAP1 SWAP3 AND DUP2 OR SWAP1 SWAP2 SSTORE PUSH1 0x3 DUP5 ADD DUP9 SWAP1 SSTORE PUSH1 0x4 DUP5 ADD DUP8 SWAP1 SSTORE PUSH1 0x0 SWAP1 DUP2 MSTORE PUSH1 0x6 PUSH1 0x20 SWAP1 DUP2 MSTORE PUSH1 0x40 DUP1 DUP4 KECCAK256 DUP1 SLOAD SWAP6 DUP7 ADD DUP2 SSTORE DUP4 MSTORE DUP2 DUP4 KECCAK256 SWAP1 SWAP5 ADD DUP7 SWAP1 SSTORE SWAP2 DUP2 MSTORE PUSH1 0x7 SWAP1 SWAP2 MSTORE DUP2 SWAP1 KECCAK256 DUP4 SWAP1 SSTORE MLOAD DUP3 SWAP1 PUSH32 0x2690FCA832A7D48ACB6433D8AF47A3D184803D8E82C5971C2484A99C5825AF05 SWAP1 PUSH2 0x777 SWAP1 DUP12 SWAP1 DUP12 SWAP1 PUSH2 0x177E JUMP JUMPDEST PUSH1 0x40 MLOAD DUP1 SWAP2 SUB SWAP1 LOG2 POP SWAP7 SWAP6 POP POP POP POP POP POP JUMP JUMPDEST PUSH2 0x792 PUSH2 0x1141 JUMP JUMPDEST PUSH1 0x1 PUSH1 0x1 PUSH1 0xA0 SHL SUB DUP3 AND PUSH2 0x7DA JUMPI PUSH1 0x40 MLOAD PUSH3 0x461BCD PUSH1 0xE5 SHL DUP2 MSTORE PUSH1 0x20 PUSH1 0x4 DUP3 ADD MSTORE PUSH1 0xF PUSH1 0x24 DUP3 ADD MSTORE PUSH15 0x496E76616C69642061646472657373 PUSH1 0x88 SHL PUSH1 0x44 DUP3 ADD MSTORE PUSH1 0x64 ADD PUSH2 0x584 JUMP JUMPDEST PUSH1 0x1 PUSH1 0x1 PUSH1 0xA0 SHL SUB DUP3 AND PUSH1 0x0 DUP2 DUP2 MSTORE PUSH1 0x4 PUSH1 0x20 SWAP1 DUP2 MSTORE PUSH1 0x40 SWAP2 DUP3 SWAP1 KECCAK256 DUP1 SLOAD PUSH1 0xFF NOT AND DUP6 ISZERO ISZERO SWAP1 DUP2 OR SWAP1 SWAP2 SSTORE SWAP2 MLOAD SWAP2 DUP3 MSTORE PUSH32 0xC63C72D6995119C079EF24C02679D49838905C8E81DF9E632011B914E6F592F6 SWAP2 ADD PUSH1 0x40 MLOAD DUP1 SWAP2 SUB SWAP1 LOG2 POP POP JUMP JUMPDEST PUSH1 0x6 PUSH1 0x20 MSTORE DUP2 PUSH1 0x0 MSTORE PUSH1 0x40 PUSH1 0x0 KECCAK256 DUP2 DUP2 SLOAD DUP2 LT PUSH2 0x855 JUMPI PUSH1 0x0 DUP1 REVERT JUMPDEST SWAP1 PUSH1 0x0 MSTORE PUSH1 0x20 PUSH1 0x0 KECCAK256 ADD PUSH1 0x0 SWAP2 POP SWAP2 POP POP SLOAD DUP2 JUMP JUMPDEST PUSH2 0x872 PUSH2 0x119B JUMP JUMPDEST PUSH1 0x0 DUP2 GT PUSH2 0x8B3 JUMPI PUSH1 0x40 MLOAD PUSH3 0x461BCD PUSH1 0xE5 SHL DUP2 MSTORE PUSH1 0x20 PUSH1 0x4 DUP3 ADD MSTORE PUSH1 0xE PUSH1 0x24 DUP3 ADD MSTORE PUSH14 0x43616E6E6F74207374616B65203 PUSH1 0x94 SHL PUSH1 0x44 DUP3 ADD MSTORE PUSH1 0x64 ADD PUSH2 0x584 JUMP JUMPDEST PUSH1 0x0 DUP3 DUP2 MSTORE PUSH1 0x3 PUSH1 0x20 MSTORE PUSH1 0x40 SWAP1 KECCAK256 PUSH1 0x1 ADD SLOAD PUSH1 0x1 PUSH1 0x1 PUSH1 0xA0 SHL SUB DUP5 DUP2 AND SWAP2 AND EQ PUSH2 0x8EF JUMPI PUSH1 0x40 MLOAD PUSH3 0x461BCD PUSH1 0xE5 SHL DUP2 MSTORE PUSH1 0x4 ADD PUSH2 0x584 SWAP1 PUSH2 0x17A8 JUMP JUMPDEST PUSH1 0x40 MLOAD PUSH4 0x23B872DD PUSH1 0xE0 SHL DUP2 MSTORE CALLER PUSH1 0x4 DUP3 ADD MSTORE ADDRESS PUSH1 0x24 DUP3 ADD MSTORE PUSH1 0x44 DUP2 ADD DUP3 SWAP1 MSTORE DUP4 SWAP1 PUSH1 0x1 PUSH1 0x1 PUSH1 0xA0 SHL SUB DUP3 AND SWAP1 PUSH4 0x23B872DD SWAP1 PUSH1 0x64 ADD PUSH1 0x20 PUSH1 0x40 MLOAD DUP1 DUP4 SUB DUP2 PUSH1 0x0 DUP8 GAS CALL ISZERO DUP1 ISZERO PUSH2 0x944 JUMPI RETURNDATASIZE PUSH1 0x0 DUP1 RETURNDATACOPY RETURNDATASIZE PUSH1 0x0 REVERT JUMPDEST POP POP POP POP PUSH1 0x40 MLOAD RETURNDATASIZE PUSH1 0x1F NOT PUSH1 0x1F DUP3 ADD AND DUP3 ADD DUP1 PUSH1 0x40 MSTORE POP DUP2 ADD SWAP1 PUSH2 0x968 SWAP2 SWAP1 PUSH2 0x17D0 JUMP JUMPDEST PUSH2 0x9A6 JUMPI PUSH1 0x40 MLOAD PUSH3 0x461BCD PUSH1 0xE5 SHL DUP2 MSTORE PUSH1 0x20 PUSH1 0x4 DUP3 ADD MSTORE PUSH1 0xF PUSH1 0x24 DUP3 ADD MSTORE PUSH15 0x151C985B9CD9995C8819985A5B1959 PUSH1 0x8A SHL PUSH1 0x44 DUP3 ADD MSTORE PUSH1 0x64 ADD PUSH2 0x584 JUMP JUMPDEST PUSH1 0x40 DUP1 MLOAD PUSH1 0x60 DUP1 DUP3 ADD DUP4 MSTORE DUP5 DUP3 MSTORE TIMESTAMP PUSH1 0x20 DUP1 DUP5 ADD DUP3 DUP2 MSTORE PUSH1 0x1 DUP6 DUP8 ADD DUP2 DUP2 MSTORE PUSH1 0x1 PUSH1 0x1 PUSH1 0xA0 SHL SUB DUP13 AND PUSH1 0x0 SWAP1 DUP2 MSTORE PUSH1 0x8 DUP6 MSTORE DUP9 DUP2 KECCAK256 CALLER DUP1 DUP4 MSTORE SWAP1 DUP7 MSTORE DUP10 DUP3 KECCAK256 SWAP9 MLOAD DUP10 SSTORE SWAP4 MLOAD DUP9 DUP5 ADD SSTORE SWAP1 MLOAD PUSH1 0x2 SWAP8 DUP9 ADD DUP1 SLOAD SWAP2 ISZERO ISZERO PUSH1 0xFF NOT SWAP3 DUP4 AND OR SWAP1 SSTORE DUP9 MLOAD SWAP7 DUP8 ADD DUP10 MSTORE DUP11 DUP8 MSTORE DUP7 DUP6 ADD SWAP6 DUP7 MSTORE DUP7 DUP10 ADD DUP4 DUP2 MSTORE DUP13 DUP4 MSTORE PUSH1 0x9 DUP7 MSTORE DUP10 DUP4 KECCAK256 SWAP5 DUP4 MSTORE SWAP4 DUP6 MSTORE DUP9 DUP3 KECCAK256 SWAP7 MLOAD DUP8 SSTORE SWAP5 MLOAD SWAP2 DUP7 ADD SWAP2 SWAP1 SWAP2 SSTORE SWAP1 MLOAD SWAP4 SWAP1 SWAP5 ADD DUP1 SLOAD SWAP4 ISZERO ISZERO SWAP4 SWAP1 SWAP3 AND SWAP3 SWAP1 SWAP3 OR SWAP1 SSTORE DUP6 DUP3 MSTORE PUSH1 0x3 SWAP1 MSTORE SWAP1 DUP2 KECCAK256 PUSH1 0x5 ADD DUP1 SLOAD DUP5 SWAP3 SWAP1 PUSH2 0xA6C SWAP1 DUP5 SWAP1 PUSH2 0x17ED JUMP JUMPDEST SWAP1 SWAP2 SSTORE POP POP PUSH1 0x1 PUSH1 0x1 PUSH1 0xA0 SHL SUB DUP5 AND PUSH1 0x0 SWAP1 DUP2 MSTORE PUSH1 0xA PUSH1 0x20 MSTORE PUSH1 0x40 DUP2 KECCAK256 DUP1 SLOAD DUP5 SWAP3 SWAP1 PUSH2 0xA99 SWAP1 DUP5 SWAP1 PUSH2 0x17ED JUMP JUMPDEST SWAP1 SWAP2 SSTORE POP POP PUSH1 0x40 MLOAD DUP3 DUP2 MSTORE DUP4 SWAP1 CALLER SWAP1 PUSH1 0x1 PUSH1 0x1 PUSH1 0xA0 SHL SUB DUP8 AND SWAP1 PUSH32 0x8EBE3CF3866072A6347FAFB45EB5D419E237097BC479EBFD720C1A4F6FDE024E SWAP1 PUSH1 0x20 ADD PUSH1 0x40 MLOAD DUP1 SWAP2 SUB SWAP1 LOG4 POP PUSH2 0xAEB PUSH1 0x1 PUSH1 0x0 SSTORE JUMP JUMPDEST POP POP POP JUMP JUMPDEST PUSH2 0xAF8 PUSH2 0x1141 JUMP JUMPDEST PUSH2 0xB02 PUSH1 0x0 PUSH2 0x11F4 JUMP JUMPDEST JUMP JUMPDEST PUSH2 0xB0C PUSH2 0x1141 JUMP JUMPDEST PUSH1 0x5 SSTORE JUMP JUMPDEST CALLER PUSH1 0x0 SWAP1 DUP2 MSTORE PUSH1 0x4 PUSH1 0x20 MSTORE PUSH1 0x40 SWAP1 KECCAK256 SLOAD PUSH1 0xFF AND PUSH2 0xB40 JUMPI PUSH1 0x40 MLOAD PUSH3 0x461BCD PUSH1 0xE5 SHL DUP2 MSTORE PUSH1 0x4 ADD PUSH2 0x584 SWAP1 PUSH2 0x1612 JUMP JUMPDEST PUSH1 0x0 DUP3 DUP2 MSTORE PUSH1 0x3 PUSH1 0x20 MSTORE PUSH1 0x40 SWAP1 KECCAK256 PUSH1 0x1 ADD SLOAD PUSH1 0x1 PUSH1 0x1 PUSH1 0xA0 SHL SUB DUP5 DUP2 AND SWAP2 AND EQ PUSH2 0xB7C JUMPI PUSH1 0x40 MLOAD PUSH3 0x461BCD PUSH1 0xE5 SHL DUP2 MSTORE PUSH1 0x4 ADD PUSH2 0x584 SWAP1 PUSH2 0x17A8 JUMP JUMPDEST PUSH1 0x0 DUP3 DUP2 MSTORE PUSH1 0x9 PUSH1 0x20 SWAP1 DUP2 MSTORE PUSH1 0x40 DUP1 DUP4 KECCAK256 PUSH1 0x1 PUSH1 0x1 PUSH1 0xA0 SHL SUB DUP6 AND DUP5 MSTORE SWAP1 SWAP2 MSTORE SWAP1 KECCAK256 PUSH1 0x2 DUP2 ADD SLOAD PUSH1 0xFF AND PUSH2 0xBE4 JUMPI PUSH1 0x40 MLOAD PUSH3 0x461BCD PUSH1 0xE5 SHL DUP2 MSTORE PUSH1 0x20 PUSH1 0x4 DUP3 ADD MSTORE PUSH1 0xF PUSH1 0x24 DUP3 ADD MSTORE PUSH15 0x4E6F20616374697665207374616B65 PUSH1 0x88 SHL PUSH1 0x44 DUP3 ADD MSTORE PUSH1 0x64 ADD PUSH2 0x584 JUMP JUMPDEST PUSH1 0x0 DUP4 DUP2 MSTORE PUSH1 0x3 PUSH1 0x20 MSTORE PUSH1 0x40 DUP2 KECCAK256 PUSH1 0x5 DUP2 ADD SLOAD DUP4 SLOAD SWAP2 SWAP3 SWAP2 PUSH2 0xC0E SWAP1 PUSH8 0xDE0B6B3A7640000 PUSH2 0x1806 JUMP JUMPDEST PUSH2 0xC18 SWAP2 SWAP1 PUSH2 0x181D JUMP JUMPDEST SWAP1 POP PUSH1 0x0 PUSH8 0xDE0B6B3A7640000 DUP3 DUP5 PUSH1 0x4 ADD SLOAD PUSH2 0xC35 SWAP2 SWAP1 PUSH2 0x1806 JUMP JUMPDEST PUSH2 0xC3F SWAP2 SWAP1 PUSH2 0x181D JUMP JUMPDEST SWAP1 POP PUSH2 0xC4C DUP8 DUP7 DUP9 PUSH2 0xE72 JUMP JUMPDEST PUSH1 0x40 MLOAD PUSH4 0xA9059CBB PUSH1 0xE0 SHL DUP2 MSTORE PUSH1 0x1 PUSH1 0x1 PUSH1 0xA0 SHL SUB DUP7 DUP2 AND PUSH1 0x4 DUP4 ADD MSTORE PUSH1 0x24 DUP3 ADD DUP4 SWAP1 MSTORE DUP9 SWAP2 SWAP1 DUP3 AND SWAP1 PUSH4 0xA9059CBB SWAP1 PUSH1 0x44 ADD PUSH1 0x20 PUSH1 0x40 MLOAD DUP1 DUP4 SUB DUP2 PUSH1 0x0 DUP8 GAS CALL ISZERO DUP1 ISZERO PUSH2 0xC9E JUMPI RETURNDATASIZE PUSH1 0x0 DUP1 RETURNDATACOPY RETURNDATASIZE PUSH1 0x0 REVERT JUMPDEST POP POP POP POP PUSH1 0x40 MLOAD RETURNDATASIZE PUSH1 0x1F NOT PUSH1 0x1F DUP3 ADD AND DUP3 ADD DUP1 PUSH1 0x40 MSTORE POP DUP2 ADD SWAP1 PUSH2 0xCC2 SWAP2 SWAP1 PUSH2 0x17D0 JUMP JUMPDEST PUSH2 0xD07 JUMPI PUSH1 0x40 MLOAD PUSH3 0x461BCD PUSH1 0xE5 SHL DUP2 MSTORE PUSH1 0x20 PUSH1 0x4 DUP3 ADD MSTORE PUSH1 0x16 PUSH1 0x24 DUP3 ADD MSTORE PUSH22 0x14995DD85C99081D1C985B9CD9995C8819985A5B1959 PUSH1 0x52 SHL PUSH1 0x44 DUP3 ADD MSTORE PUSH1 0x64 ADD PUSH2 0x584 JUMP JUMPDEST DUP7 DUP7 PUSH1 0x1 PUSH1 0x1 PUSH1 0xA0 SHL SUB AND PUSH32 0x25D820333C9A561247C10864C5A61FF35D1B52A4D260CD78FFD379C9921A4187 DUP5 PUSH1 0x40 MLOAD PUSH2 0xD43 SWAP2 DUP2 MSTORE PUSH1 0x20 ADD SWAP1 JUMP JUMPDEST PUSH1 0x40 MLOAD DUP1 SWAP2 SUB SWAP1 LOG3 POP POP POP POP POP POP POP POP JUMP JUMPDEST CALLER PUSH1 0x0 SWAP1 DUP2 MSTORE PUSH1 0x4 PUSH1 0x20 MSTORE PUSH1 0x40 SWAP1 KECCAK256 SLOAD PUSH1 0xFF AND PUSH2 0xD84 JUMPI PUSH1 0x40 MLOAD PUSH3 0x461BCD PUSH1 0xE5 SHL DUP2 MSTORE PUSH1 0x4 ADD PUSH2 0x584 SWAP1 PUSH2 0x1612 JUMP JUMPDEST PUSH1 0x0 DUP3 DUP2 MSTORE PUSH1 0x3 PUSH1 0x20 MSTORE PUSH1 0x40 SWAP1 KECCAK256 PUSH1 0x1 ADD SLOAD PUSH1 0x1 PUSH1 0x1 PUSH1 0xA0 SHL SUB AND PUSH2 0xDEB JUMPI PUSH1 0x40 MLOAD PUSH3 0x461BCD PUSH1 0xE5 SHL DUP2 MSTORE PUSH1 0x20 PUSH1 0x4 DUP3 ADD MSTORE PUSH1 0x18 PUSH1 0x24 DUP3 ADD MSTORE PUSH32 0x4F7065726174696F6E20646F6573206E6F742065786973740000000000000000 PUSH1 0x44 DUP3 ADD MSTORE PUSH1 0x64 ADD PUSH2 0x584 JUMP JUMPDEST PUSH1 0x0 SWAP2 DUP3 MSTORE PUSH1 0x3 PUSH1 0x20 MSTORE PUSH1 0x40 SWAP1 SWAP2 KECCAK256 PUSH1 0x4 ADD SSTORE JUMP JUMPDEST PUSH2 0xE08 PUSH2 0x1141 JUMP JUMPDEST PUSH1 0x1 PUSH1 0x1 PUSH1 0xA0 SHL SUB DUP2 AND PUSH2 0xE50 JUMPI PUSH1 0x40 MLOAD PUSH3 0x461BCD PUSH1 0xE5 SHL DUP2 MSTORE PUSH1 0x20 PUSH1 0x4 DUP3 ADD MSTORE PUSH1 0xF PUSH1 0x24 DUP3 ADD MSTORE PUSH15 0x496E76616C69642061646472657373 PUSH1 0x88 SHL PUSH1 0x44 DUP3 ADD MSTORE PUSH1 0x64 ADD PUSH2 0x584 JUMP JUMPDEST PUSH1 0x2 DUP1 SLOAD PUSH1 0x1 PUSH1 0x1 PUSH1 0xA0 SHL SUB NOT AND PUSH1 0x1 PUSH1 0x1 PUSH1 0xA0 SHL SUB SWAP3 SWAP1 SWAP3 AND SWAP2 SWAP1 SWAP2 OR SWAP1 SSTORE JUMP JUMPDEST PUSH2 0xE7A PUSH2 0x119B JUMP JUMPDEST CALLER PUSH1 0x0 SWAP1 DUP2 MSTORE PUSH1 0x4 PUSH1 0x20 MSTORE PUSH1 0x40 SWAP1 KECCAK256 SLOAD PUSH1 0xFF AND PUSH2 0xEA9 JUMPI PUSH1 0x40 MLOAD PUSH3 0x461BCD PUSH1 0xE5 SHL DUP2 MSTORE PUSH1 0x4 ADD PUSH2 0x584 SWAP1 PUSH2 0x1612 JUMP JUMPDEST PUSH1 0x1 PUSH1 0x1 PUSH1 0xA0 SHL SUB DUP1 DUP5 AND PUSH1 0x0 SWAP1 DUP2 MSTORE PUSH1 0x8 PUSH1 0x20 SWAP1 DUP2 MSTORE PUSH1 0x40 DUP1 DUP4 KECCAK256 SWAP4 DUP7 AND DUP4 MSTORE SWAP3 SWAP1 MSTORE KECCAK256 PUSH1 0x2 DUP2 ADD SLOAD PUSH1 0xFF AND PUSH2 0xF14 JUMPI PUSH1 0x40 MLOAD PUSH3 0x461BCD PUSH1 0xE5 SHL DUP2 MSTORE PUSH1 0x20 PUSH1 0x4 DUP3 ADD MSTORE PUSH1 0xF PUSH1 0x24 DUP3 ADD MSTORE PUSH15 0x4E6F20616374697665207374616B65 PUSH1 0x88 SHL PUSH1 0x44 DUP3 ADD MSTORE PUSH1 0x64 ADD PUSH2 0x584 JUMP JUMPDEST PUSH1 0x0 DUP3 DUP2 MSTORE PUSH1 0x3 PUSH1 0x20 MSTORE PUSH1 0x40 SWAP1 KECCAK256 PUSH1 0x1 ADD SLOAD PUSH1 0x1 PUSH1 0x1 PUSH1 0xA0 SHL SUB DUP6 DUP2 AND SWAP2 AND EQ PUSH2 0xF50 JUMPI PUSH1 0x40 MLOAD PUSH3 0x461BCD PUSH1 0xE5 SHL DUP2 MSTORE PUSH1 0x4 ADD PUSH2 0x584 SWAP1 PUSH2 0x17A8 JUMP JUMPDEST DUP1 SLOAD PUSH1 0x2 DUP3 ADD DUP1 SLOAD PUSH1 0xFF NOT AND SWAP1 SSTORE PUSH1 0x40 MLOAD PUSH4 0x2770A7EB PUSH1 0xE2 SHL DUP2 MSTORE PUSH1 0x1 PUSH1 0x1 PUSH1 0xA0 SHL SUB DUP6 DUP2 AND PUSH1 0x4 DUP4 ADD MSTORE PUSH1 0x24 DUP3 ADD DUP4 SWAP1 MSTORE DUP7 SWAP2 SWAP1 DUP3 AND SWAP1 PUSH4 0x9DC29FAC SWAP1 PUSH1 0x44 ADD PUSH1 0x20 PUSH1 0x40 MLOAD DUP1 DUP4 SUB DUP2 PUSH1 0x0 DUP8 GAS CALL ISZERO DUP1 ISZERO PUSH2 0xFB0 JUMPI RETURNDATASIZE PUSH1 0x0 DUP1 RETURNDATACOPY RETURNDATASIZE PUSH1 0x0 REVERT JUMPDEST POP POP POP POP PUSH1 0x40 MLOAD RETURNDATASIZE PUSH1 0x1F NOT PUSH1 0x1F DUP3 ADD AND DUP3 ADD DUP1 PUSH1 0x40 MSTORE POP DUP2 ADD SWAP1 PUSH2 0xFD4 SWAP2 SWAP1 PUSH2 0x17D0 JUMP JUMPDEST PUSH2 0x1018 JUMPI PUSH1 0x40 MLOAD PUSH3 0x461BCD PUSH1 0xE5 SHL DUP2 MSTORE PUSH1 0x20 PUSH1 0x4 DUP3 ADD MSTORE PUSH1 0x15 PUSH1 0x24 DUP3 ADD MSTORE PUSH21 0x4661696C656420746F206275726E20746F6B656E73 PUSH1 0x58 SHL PUSH1 0x44 DUP3 ADD MSTORE PUSH1 0x64 ADD PUSH2 0x584 JUMP JUMPDEST PUSH1 0x1 PUSH1 0x1 PUSH1 0xA0 SHL SUB DUP7 AND PUSH1 0x0 SWAP1 DUP2 MSTORE PUSH1 0xA PUSH1 0x20 MSTORE PUSH1 0x40 DUP2 KECCAK256 DUP1 SLOAD DUP5 SWAP3 SWAP1 PUSH2 0x1040 SWAP1 DUP5 SWAP1 PUSH2 0x183F JUMP JUMPDEST SWAP1 SWAP2 SSTORE POP POP PUSH1 0x0 DUP5 DUP2 MSTORE PUSH1 0x3 PUSH1 0x20 MSTORE PUSH1 0x40 DUP2 KECCAK256 PUSH1 0x5 ADD DUP1 SLOAD DUP5 SWAP3 SWAP1 PUSH2 0x1066 SWAP1 DUP5 SWAP1 PUSH2 0x183F JUMP JUMPDEST SWAP3 POP POP DUP2 SWAP1 SSTORE POP DUP4 DUP6 PUSH1 0x1 PUSH1 0x1 PUSH1 0xA0 SHL SUB AND DUP8 PUSH1 0x1 PUSH1 0x1 PUSH1 0xA0 SHL SUB AND PUSH32 0x9F4BC1941C2791AB8134A2B39613BA300CB771B5E274769168519F3F85974F2F DUP6 PUSH1 0x40 MLOAD PUSH2 0x10B3 SWAP2 DUP2 MSTORE PUSH1 0x20 ADD SWAP1 JUMP JUMPDEST PUSH1 0x40 MLOAD DUP1 SWAP2 SUB SWAP1 LOG4 POP POP POP PUSH2 0xAEB PUSH1 0x1 PUSH1 0x0 SSTORE JUMP JUMPDEST PUSH2 0x10D0 PUSH2 0x1141 JUMP JUMPDEST PUSH1 0x1 PUSH1 0x1 PUSH1 0xA0 SHL SUB DUP2 AND PUSH2 0x1135 JUMPI PUSH1 0x40 MLOAD PUSH3 0x461BCD PUSH1 0xE5 SHL DUP2 MSTORE PUSH1 0x20 PUSH1 0x4 DUP3 ADD MSTORE PUSH1 0x26 PUSH1 0x24 DUP3 ADD MSTORE PUSH32 0x4F776E61626C653A206E6577206F776E657220697320746865207A65726F2061 PUSH1 0x44 DUP3 ADD MSTORE PUSH6 0x646472657373 PUSH1 0xD0 SHL PUSH1 0x64 DUP3 ADD MSTORE PUSH1 0x84 ADD PUSH2 0x584 JUMP JUMPDEST PUSH2 0x113E DUP2 PUSH2 0x11F4 JUMP JUMPDEST POP JUMP JUMPDEST PUSH1 0x1 SLOAD PUSH1 0x1 PUSH1 0x1 PUSH1 0xA0 SHL SUB AND CALLER EQ PUSH2 0xB02 JUMPI PUSH1 0x40 MLOAD PUSH3 0x461BCD PUSH1 0xE5 SHL DUP2 MSTORE PUSH1 0x20 PUSH1 0x4 DUP3 ADD DUP2 SWAP1 MSTORE PUSH1 0x24 DUP3 ADD MSTORE PUSH32 0x4F776E61626C653A2063616C6C6572206973206E6F7420746865206F776E6572 PUSH1 0x44 DUP3 ADD MSTORE PUSH1 0x64 ADD PUSH2 0x584 JUMP JUMPDEST PUSH1 0x2 PUSH1 0x0 SLOAD SUB PUSH2 0x11ED JUMPI PUSH1 0x40 MLOAD PUSH3 0x461BCD PUSH1 0xE5 SHL DUP2 MSTORE PUSH1 0x20 PUSH1 0x4 DUP3 ADD MSTORE PUSH1 0x1F PUSH1 0x24 DUP3 ADD MSTORE PUSH32 0x5265656E7472616E637947756172643A207265656E7472616E742063616C6C00 PUSH1 0x44 DUP3 ADD MSTORE PUSH1 0x64 ADD PUSH2 0x584 JUMP JUMPDEST PUSH1 0x2 PUSH1 0x0 SSTORE JUMP JUMPDEST PUSH1 0x1 DUP1 SLOAD PUSH1 0x1 PUSH1 0x1 PUSH1 0xA0 SHL SUB DUP4 DUP2 AND PUSH1 0x1 PUSH1 0x1 PUSH1 0xA0 SHL SUB NOT DUP4 AND DUP2 OR SWAP1 SWAP4 SSTORE PUSH1 0x40 MLOAD SWAP2 AND SWAP2 SWAP1 DUP3 SWAP1 PUSH32 0x8BE0079C531659141344CD1FD0A4F28419497F9722A3DAAFE3B4186F6B6457E0 SWAP1 PUSH1 0x0 SWAP1 LOG3 POP POP JUMP JUMPDEST PUSH1 0x0 PUSH1 0x20 DUP3 DUP5 SUB SLT ISZERO PUSH2 0x1258 JUMPI PUSH1 0x0 DUP1 REVERT JUMPDEST POP CALLDATALOAD SWAP2 SWAP1 POP JUMP JUMPDEST PUSH1 0x0 DUP2 MLOAD DUP1 DUP5 MSTORE PUSH1 0x0 JUMPDEST DUP2 DUP2 LT ISZERO PUSH2 0x1285 JUMPI PUSH1 0x20 DUP2 DUP6 ADD DUP2 ADD MLOAD DUP7 DUP4 ADD DUP3 ADD MSTORE ADD PUSH2 0x1269 JUMP JUMPDEST POP PUSH1 0x0 PUSH1 0x20 DUP3 DUP7 ADD ADD MSTORE PUSH1 0x20 PUSH1 0x1F NOT PUSH1 0x1F DUP4 ADD AND DUP6 ADD ADD SWAP2 POP POP SWAP3 SWAP2 POP POP JUMP JUMPDEST PUSH1 0xC0 DUP2 MSTORE PUSH1 0x0 PUSH2 0x12B8 PUSH1 0xC0 DUP4 ADD DUP10 PUSH2 0x125F JUMP JUMPDEST PUSH1 0x1 PUSH1 0x1 PUSH1 0xA0 SHL SUB SWAP8 DUP9 AND PUSH1 0x20 DUP5 ADD MSTORE SWAP6 SWAP1 SWAP7 AND PUSH1 0x40 DUP3 ADD MSTORE PUSH1 0x60 DUP2 ADD SWAP4 SWAP1 SWAP4 MSTORE PUSH1 0x80 DUP4 ADD SWAP2 SWAP1 SWAP2 MSTORE PUSH1 0xA0 SWAP1 SWAP2 ADD MSTORE SWAP3 SWAP2 POP POP JUMP JUMPDEST PUSH4 0x4E487B71 PUSH1 0xE0 SHL PUSH1 0x0 MSTORE PUSH1 0x41 PUSH1 0x4 MSTORE PUSH1 0x24 PUSH1 0x0 REVERT JUMPDEST PUSH1 0x1 PUSH1 0x1 PUSH1 0xA0 SHL SUB DUP2 AND DUP2 EQ PUSH2 0x113E JUMPI PUSH1 0x0 DUP1 REVERT JUMPDEST DUP1 CALLDATALOAD PUSH2 0x1323 DUP2 PUSH2 0x1303 JUMP JUMPDEST SWAP2 SWAP1 POP JUMP JUMPDEST PUSH1 0x0 DUP1 PUSH1 0x0 DUP1 PUSH1 0x0 PUSH1 0xA0 DUP7 DUP9 SUB SLT ISZERO PUSH2 0x1340 JUMPI PUSH1 0x0 DUP1 REVERT JUMPDEST DUP6 CALLDATALOAD PUSH8 0xFFFFFFFFFFFFFFFF DUP2 GT ISZERO PUSH2 0x1357 JUMPI PUSH1 0x0 DUP1 REVERT JUMPDEST DUP7 ADD PUSH1 0x1F DUP2 ADD DUP9 SGT PUSH2 0x1368 JUMPI PUSH1 0x0 DUP1 REVERT JUMPDEST DUP1 CALLDATALOAD PUSH8 0xFFFFFFFFFFFFFFFF DUP2 GT ISZERO PUSH2 0x1382 JUMPI PUSH2 0x1382 PUSH2 0x12ED JUMP JUMPDEST PUSH1 0x40 MLOAD PUSH1 0x1F DUP3 ADD PUSH1 0x1F NOT SWAP1 DUP2 AND PUSH1 0x3F ADD AND DUP2 ADD PUSH8 0xFFFFFFFFFFFFFFFF DUP2 GT DUP3 DUP3 LT OR ISZERO PUSH2 0x13B1 JUMPI PUSH2 0x13B1 PUSH2 0x12ED JUMP JUMPDEST PUSH1 0x40 MSTORE DUP2 DUP2 MSTORE DUP3 DUP3 ADD PUSH1 0x20 ADD DUP11 LT ISZERO PUSH2 0x13C9 JUMPI PUSH1 0x0 DUP1 REVERT JUMPDEST DUP2 PUSH1 0x20 DUP5 ADD PUSH1 0x20 DUP4 ADD CALLDATACOPY PUSH1 0x0 PUSH1 0x20 DUP4 DUP4 ADD ADD MSTORE DUP1 SWAP8 POP POP POP POP PUSH2 0x13EE PUSH1 0x20 DUP8 ADD PUSH2 0x1318 JUMP JUMPDEST SWAP4 POP PUSH2 0x13FC PUSH1 0x40 DUP8 ADD PUSH2 0x1318 JUMP JUMPDEST SWAP5 SWAP8 SWAP4 SWAP7 POP SWAP4 SWAP5 PUSH1 0x60 DUP2 ADD CALLDATALOAD SWAP5 POP PUSH1 0x80 ADD CALLDATALOAD SWAP3 SWAP2 POP POP JUMP JUMPDEST PUSH1 0x0 PUSH1 0x20 DUP3 DUP5 SUB SLT ISZERO PUSH2 0x1426 JUMPI PUSH1 0x0 DUP1 REVERT JUMPDEST DUP2 CALLDATALOAD PUSH2 0x1431 DUP2 PUSH2 0x1303 JUMP JUMPDEST SWAP4 SWAP3 POP POP POP JUMP JUMPDEST PUSH1 0x0 DUP1 PUSH1 0x40 DUP4 DUP6 SUB SLT ISZERO PUSH2 0x144B JUMPI PUSH1 0x0 DUP1 REVERT JUMPDEST DUP3 CALLDATALOAD SWAP2 POP PUSH1 0x20 DUP4 ADD CALLDATALOAD PUSH2 0x145D DUP2 PUSH2 0x1303 JUMP JUMPDEST DUP1 SWAP2 POP POP SWAP3 POP SWAP3 SWAP1 POP JUMP JUMPDEST DUP1 ISZERO ISZERO DUP2 EQ PUSH2 0x113E JUMPI PUSH1 0x0 DUP1 REVERT JUMPDEST PUSH1 0x0 DUP1 PUSH1 0x40 DUP4 DUP6 SUB SLT ISZERO PUSH2 0x1489 JUMPI PUSH1 0x0 DUP1 REVERT JUMPDEST DUP3 CALLDATALOAD PUSH2 0x1494 DUP2 PUSH2 0x1303 JUMP JUMPDEST SWAP2 POP PUSH1 0x20 DUP4 ADD CALLDATALOAD PUSH2 0x145D DUP2 PUSH2 0x1468 JUMP JUMPDEST PUSH1 0x0 DUP1 PUSH1 0x40 DUP4 DUP6 SUB SLT ISZERO PUSH2 0x14B7 JUMPI PUSH1 0x0 DUP1 REVERT JUMPDEST DUP3 CALLDATALOAD PUSH2 0x14C2 DUP2 PUSH2 0x1303 JUMP JUMPDEST SWAP5 PUSH1 0x20 SWAP4 SWAP1 SWAP4 ADD CALLDATALOAD SWAP4 POP POP POP JUMP JUMPDEST PUSH1 0x0 DUP1 PUSH1 0x0 PUSH1 0x60 DUP5 DUP7 SUB SLT ISZERO PUSH2 0x14E5 JUMPI PUSH1 0x0 DUP1 REVERT JUMPDEST DUP4 CALLDATALOAD PUSH2 0x14F0 DUP2 PUSH2 0x1303 JUMP JUMPDEST SWAP6 PUSH1 0x20 DUP6 ADD CALLDATALOAD SWAP6 POP PUSH1 0x40 SWAP1 SWAP5 ADD CALLDATALOAD SWAP4 SWAP3 POP POP POP JUMP JUMPDEST PUSH1 0x0 DUP1 PUSH1 0x0 PUSH1 0x60 DUP5 DUP7 SUB SLT ISZERO PUSH2 0x151A JUMPI PUSH1 0x0 DUP1 REVERT JUMPDEST DUP4 CALLDATALOAD PUSH2 0x1525 DUP2 PUSH2 0x1303 JUMP JUMPDEST SWAP3 POP PUSH1 0x20 DUP5 ADD CALLDATALOAD SWAP2 POP PUSH1 0x40 DUP5 ADD CALLDATALOAD PUSH2 0x153C DUP2 PUSH2 0x1303 JUMP JUMPDEST DUP1 SWAP2 POP POP SWAP3 POP SWAP3 POP SWAP3 JUMP JUMPDEST PUSH1 0x0 DUP1 PUSH1 0x40 DUP4 DUP6 SUB SLT ISZERO PUSH2 0x155A JUMPI PUSH1 0x0 DUP1 REVERT JUMPDEST POP POP DUP1 CALLDATALOAD SWAP3 PUSH1 0x20 SWAP1 SWAP2 ADD CALLDATALOAD SWAP2 POP JUMP JUMPDEST PUSH1 0x0 DUP1 PUSH1 0x40 DUP4 DUP6 SUB SLT ISZERO PUSH2 0x157C JUMPI PUSH1 0x0 DUP1 REVERT JUMPDEST DUP3 CALLDATALOAD PUSH2 0x1587 DUP2 PUSH2 0x1303 JUMP JUMPDEST SWAP2 POP PUSH1 0x20 DUP4 ADD CALLDATALOAD PUSH2 0x145D DUP2 PUSH2 0x1303 JUMP JUMPDEST PUSH1 0x0 DUP1 PUSH1 0x0 PUSH1 0x60 DUP5 DUP7 SUB SLT ISZERO PUSH2 0x15AC JUMPI PUSH1 0x0 DUP1 REVERT JUMPDEST DUP4 CALLDATALOAD PUSH2 0x15B7 DUP2 PUSH2 0x1303 JUMP JUMPDEST SWAP3 POP PUSH1 0x20 DUP5 ADD CALLDATALOAD PUSH2 0x15C7 DUP2 PUSH2 0x1303 JUMP JUMPDEST SWAP3 SWAP6 SWAP3 SWAP5 POP POP POP PUSH1 0x40 SWAP2 SWAP1 SWAP2 ADD CALLDATALOAD SWAP1 JUMP JUMPDEST PUSH1 0x1 DUP2 DUP2 SHR SWAP1 DUP3 AND DUP1 PUSH2 0x15EC JUMPI PUSH1 0x7F DUP3 AND SWAP2 POP JUMPDEST PUSH1 0x20 DUP3 LT DUP2 SUB PUSH2 0x160C JUMPI PUSH4 0x4E487B71 PUSH1 0xE0 SHL PUSH1 0x0 MSTORE PUSH1 0x22 PUSH1 0x4 MSTORE PUSH1 0x24 PUSH1 0x0 REVERT JUMPDEST POP SWAP2 SWAP1 POP JUMP JUMPDEST PUSH1 0x20 DUP1 DUP3 MSTORE PUSH1 0x16 SWAP1 DUP3 ADD MSTORE PUSH22 0x21B0B63632B91034B9903737BA1030B71030B236B4B7 PUSH1 0x51 SHL PUSH1 0x40 DUP3 ADD MSTORE PUSH1 0x60 ADD SWAP1 JUMP JUMPDEST PUSH4 0x4E487B71 PUSH1 0xE0 SHL PUSH1 0x0 MSTORE PUSH1 0x11 PUSH1 0x4 MSTORE PUSH1 0x24 PUSH1 0x0 REVERT JUMPDEST PUSH1 0x0 PUSH1 0x1 DUP3 ADD PUSH2 0x166A JUMPI PUSH2 0x166A PUSH2 0x1642 JUMP JUMPDEST POP PUSH1 0x1 ADD SWAP1 JUMP JUMPDEST PUSH1 0x1F DUP3 GT ISZERO PUSH2 0xAEB JUMPI DUP1 PUSH1 0x0 MSTORE PUSH1 0x20 PUSH1 0x0 KECCAK256 PUSH1 0x1F DUP5 ADD PUSH1 0x5 SHR DUP2 ADD PUSH1 0x20 DUP6 LT ISZERO PUSH2 0x1698 JUMPI POP DUP1 JUMPDEST PUSH1 0x1F DUP5 ADD PUSH1 0x5 SHR DUP3 ADD SWAP2 POP JUMPDEST DUP2 DUP2 LT ISZERO PUSH2 0x16B8 JUMPI PUSH1 0x0 DUP2 SSTORE PUSH1 0x1 ADD PUSH2 0x16A4 JUMP JUMPDEST POP POP POP POP POP JUMP JUMPDEST DUP2 MLOAD PUSH8 0xFFFFFFFFFFFFFFFF DUP2 GT ISZERO PUSH2 0x16D9 JUMPI PUSH2 0x16D9 PUSH2 0x12ED JUMP JUMPDEST PUSH2 0x16ED DUP2 PUSH2 0x16E7 DUP5 SLOAD PUSH2 0x15D8 JUMP JUMPDEST DUP5 PUSH2 0x1671 JUMP JUMPDEST PUSH1 0x20 PUSH1 0x1F DUP3 GT PUSH1 0x1 DUP2 EQ PUSH2 0x1721 JUMPI PUSH1 0x0 DUP4 ISZERO PUSH2 0x1709 JUMPI POP DUP5 DUP3 ADD MLOAD JUMPDEST PUSH1 0x0 NOT PUSH1 0x3 DUP6 SWAP1 SHL SHR NOT AND PUSH1 0x1 DUP5 SWAP1 SHL OR DUP5 SSTORE PUSH2 0x16B8 JUMP JUMPDEST PUSH1 0x0 DUP5 DUP2 MSTORE PUSH1 0x20 DUP2 KECCAK256 PUSH1 0x1F NOT DUP6 AND SWAP2 JUMPDEST DUP3 DUP2 LT ISZERO PUSH2 0x1751 JUMPI DUP8 DUP6 ADD MLOAD DUP3 SSTORE PUSH1 0x20 SWAP5 DUP6 ADD SWAP5 PUSH1 0x1 SWAP1 SWAP3 ADD SWAP2 ADD PUSH2 0x1731 JUMP JUMPDEST POP DUP5 DUP3 LT ISZERO PUSH2 0x176F JUMPI DUP7 DUP5 ADD MLOAD PUSH1 0x0 NOT PUSH1 0x3 DUP8 SWAP1 SHL PUSH1 0xF8 AND SHR NOT AND DUP2 SSTORE JUMPDEST POP POP POP POP PUSH1 0x1 SWAP1 DUP2 SHL ADD SWAP1 SSTORE POP JUMP JUMPDEST PUSH1 0x40 DUP2 MSTORE PUSH1 0x0 PUSH2 0x1791 PUSH1 0x40 DUP4 ADD DUP6 PUSH2 0x125F JUMP JUMPDEST SWAP1 POP PUSH1 0x1 DUP1 PUSH1 0xA0 SHL SUB DUP4 AND PUSH1 0x20 DUP4 ADD MSTORE SWAP4 SWAP3 POP POP POP JUMP JUMPDEST PUSH1 0x20 DUP1 DUP3 MSTORE PUSH1 0xE SWAP1 DUP3 ADD MSTORE PUSH14 0xA8DED6CADC40DAD2E6DAC2E8C6D PUSH1 0x93 SHL PUSH1 0x40 DUP3 ADD MSTORE PUSH1 0x60 ADD SWAP1 JUMP JUMPDEST PUSH1 0x0 PUSH1 0x20 DUP3 DUP5 SUB SLT ISZERO PUSH2 0x17E2 JUMPI PUSH1 0x0 DUP1 REVERT JUMPDEST DUP2 MLOAD PUSH2 0x1431 DUP2 PUSH2 0x1468 JUMP JUMPDEST DUP1 DUP3 ADD DUP1 DUP3 GT ISZERO PUSH2 0x1800 JUMPI PUSH2 0x1800 PUSH2 0x1642 JUMP JUMPDEST SWAP3 SWAP2 POP POP JUMP JUMPDEST DUP1 DUP3 MUL DUP2 ISZERO DUP3 DUP3 DIV DUP5 EQ OR PUSH2 0x1800 JUMPI PUSH2 0x1800 PUSH2 0x1642 JUMP JUMPDEST PUSH1 0x0 DUP3 PUSH2 0x183A JUMPI PUSH4 0x4E487B71 PUSH1 0xE0 SHL PUSH1 0x0 MSTORE PUSH1 0x12 PUSH1 0x4 MSTORE PUSH1 0x24 PUSH1 0x0 REVERT JUMPDEST POP DIV SWAP1 JUMP JUMPDEST DUP2 DUP2 SUB DUP2 DUP2 GT ISZERO PUSH2 0x1800 JUMPI PUSH2 0x1800 PUSH2 0x1642 JUMP INVALID LOG2 PUSH5 0x6970667358 0x22 SLT KECCAK256 0xBA 0xEF 0x1E 0x28 SWAP4 BLOBBASEFEE 0xAC PUSH8 0x7C96333D6DDB9CB STATICCALL 0x29 BASEFEE 0xB4 0xAA PUSH28 0x195F3C19C3C42D7E874164736F6C634300081C003300000000000000 "},"methodIdentifiers":{"admins(address)":"429b62e5","burn(address,address,bytes32)":"b836f521","createOperation(string,address,address,uint256,uint256)":"27b67053","getOperation(bytes32)":"279412c5","idToOperation(bytes32)":"24c963a2","lockPeriod()":"3fd8b02f","operationStakes(bytes32,address)":"43273eec","owner()":"8da5cb5b","projectWallet()":"beb08ab9","providerToOperationIds(address,uint256)":"4bb1383b","renounceOwnership()":"715018a6","setAdmin(address,bool)":"4b0bddd2","setLockPeriod(uint256)":"779972da","setOperationReward(bytes32,uint256)":"7bd44ecf","setProjectWallet(address)":"8a780447","stake(address,bytes32,uint256)":"6f37a2c9","stakes(address,address)":"a4e47b66","tokenToOperationIds(address)":"fea47a1c","tokenTvl(address)":"dbeee397","transferOwnership(address)":"f2fde38b","triggerReward(address,bytes32,address)":"7b652056"}}}}}