{
  "_format": "hh-sol-artifact-1",
  "contractName": "StakingFacet",
  "sourceName": "contracts/diamond/facets/StakingFacet.sol",
  "abi": [
    {
      "inputs": [],
      "name": "InvalidInitialization",
      "type": "error"
    },
    {
      "inputs": [],
      "name": "NotInitializing",
      "type": "error"
    },
    {
      "anonymous": false,
      "inputs": [
        {
          "indexed": false,
          "internalType": "uint64",
          "name": "version",
          "type": "uint64"
        }
      ],
      "name": "Initialized",
      "type": "event"
    },
    {
      "anonymous": false,
      "inputs": [
        {
          "indexed": false,
          "internalType": "uint256",
          "name": "oldRate",
          "type": "uint256"
        },
        {
          "indexed": false,
          "internalType": "uint256",
          "name": "newRate",
          "type": "uint256"
        }
      ],
      "name": "RewardRateUpdated",
      "type": "event"
    },
    {
      "anonymous": false,
      "inputs": [
        {
          "indexed": true,
          "internalType": "address",
          "name": "user",
          "type": "address"
        },
        {
          "indexed": false,
          "internalType": "uint256",
          "name": "amount",
          "type": "uint256"
        }
      ],
      "name": "RewardsClaimed",
      "type": "event"
    },
    {
      "anonymous": false,
      "inputs": [
        {
          "indexed": true,
          "internalType": "address",
          "name": "user",
          "type": "address"
        },
        {
          "indexed": false,
          "internalType": "uint256",
          "name": "amount",
          "type": "uint256"
        }
      ],
      "name": "Staked",
      "type": "event"
    },
    {
      "anonymous": false,
      "inputs": [
        {
          "indexed": true,
          "internalType": "address",
          "name": "user",
          "type": "address"
        },
        {
          "indexed": false,
          "internalType": "uint256",
          "name": "amount",
          "type": "uint256"
        }
      ],
      "name": "Withdrawn",
      "type": "event"
    },
    {
      "inputs": [],
      "name": "REWARD_DURATION",
      "outputs": [
        {
          "internalType": "uint256",
          "name": "",
          "type": "uint256"
        }
      ],
      "stateMutability": "view",
      "type": "function"
    },
    {
      "inputs": [],
      "name": "claimRewards",
      "outputs": [],
      "stateMutability": "nonpayable",
      "type": "function"
    },
    {
      "inputs": [
        {
          "internalType": "address",
          "name": "_account",
          "type": "address"
        }
      ],
      "name": "earned",
      "outputs": [
        {
          "internalType": "uint256",
          "name": "",
          "type": "uint256"
        }
      ],
      "stateMutability": "view",
      "type": "function"
    },
    {
      "inputs": [],
      "name": "getRewardRate",
      "outputs": [
        {
          "internalType": "uint256",
          "name": "",
          "type": "uint256"
        }
      ],
      "stateMutability": "view",
      "type": "function"
    },
    {
      "inputs": [
        {
          "internalType": "address",
          "name": "_user",
          "type": "address"
        }
      ],
      "name": "getStake",
      "outputs": [
        {
          "internalType": "uint256",
          "name": "amount",
          "type": "uint256"
        },
        {
          "internalType": "uint256",
          "name": "earnedRewards",
          "type": "uint256"
        },
        {
          "internalType": "uint256",
          "name": "stakedAt",
          "type": "uint256"
        }
      ],
      "stateMutability": "view",
      "type": "function"
    },
    {
      "inputs": [],
      "name": "getTotalStaked",
      "outputs": [
        {
          "internalType": "uint256",
          "name": "",
          "type": "uint256"
        }
      ],
      "stateMutability": "view",
      "type": "function"
    },
    {
      "inputs": [],
      "name": "initialize",
      "outputs": [],
      "stateMutability": "nonpayable",
      "type": "function"
    },
    {
      "inputs": [
        {
          "internalType": "uint256",
          "name": "_newRate",
          "type": "uint256"
        }
      ],
      "name": "setRewardRate",
      "outputs": [],
      "stateMutability": "nonpayable",
      "type": "function"
    },
    {
      "inputs": [
        {
          "internalType": "uint256",
          "name": "_amount",
          "type": "uint256"
        }
      ],
      "name": "stake",
      "outputs": [],
      "stateMutability": "nonpayable",
      "type": "function"
    },
    {
      "inputs": [
        {
          "internalType": "uint256",
          "name": "_amount",
          "type": "uint256"
        }
      ],
      "name": "withdraw",
      "outputs": [],
      "stateMutability": "nonpayable",
      "type": "function"
    }
  ],
  "bytecode": "0x60808060405234601557610899908161001b8239f35b600080fdfe6080604052600436101561001257600080fd5b60003560e01c80628cc262146105f55780630917e776146105ca5780632e1a7d4d146104f6578063372500ab146104915780635ade228a146104735780637a766460146104025780637e1a3786146103c55780638129fc1c146102925780639e447fc6146101625763a694fc3a1461008957600080fd5b3461015d57602036600319011261015d576004358015610127576100ac3361078f565b6100b53361062c565b6100c08282546106c1565b90554260026100ce3361062c565b01556100e981600080516020610844833981519152546106c1565b600080516020610844833981519152556040519081527f9e71bc8eea02a63969f509818f2dafb9254532904319f9dbda79b67bd34a5f3d60203392a2005b60405162461bcd60e51b815260206004820152600e60248201526d043616e6e6f74207374616b6520360941b6044820152606490fd5b600080fd5b3461015d57602036600319011261015d577fc8fcad8db84d3cc18b4c41d551ea0ee66dd599cde068d998e57d5e09332c131f54600435906001600160a01b031633036102425760407fc390a98ace15a7bb6bab611eedfdbb2685043b241a869420043cdfb23ccfee50917f31c1f8402397e5b1e3d75f3da7207ce6f54556b27afe723742768c4e4be50cf35490807f31c1f8402397e5b1e3d75f3da7207ce6f54556b27afe723742768c4e4be50cf355427f31c1f8402397e5b1e3d75f3da7207ce6f54556b27afe723742768c4e4be50cf45582519182526020820152a1005b60405162461bcd60e51b815260206004820152602260248201527f4c69624469616d6f6e643a204d75737420626520636f6e7472616374206f776e60448201526132b960f11b6064820152608490fd5b3461015d57600036600319011261015d576000805160206108248339815191525460ff8160401c16159067ffffffffffffffff8116801590816103bd575b60011490816103b3575b1590816103aa575b506103995767ffffffffffffffff198116600117600080516020610824833981519152558161036c575b5061031357005b68ff0000000000000000196000805160206108248339815191525416600080516020610824833981519152557fc7f505b2f371ae2175ee4913f4499e1f2633a7b5936321eed1cdaeb6115181d2602060405160018152a1005b68ffffffffffffffffff19166801000000000000000117600080516020610824833981519152558161030c565b63f92ee8a960e01b60005260046000fd5b905015836102e2565b303b1591506102da565b8391506102d0565b3461015d57600036600319011261015d5760207f31c1f8402397e5b1e3d75f3da7207ce6f54556b27afe723742768c4e4be50cf354604051908152f35b3461015d57602036600319011261015d576004356001600160a01b038116810361015d578061043260609261062c565b5490600261045e61045860016104478561062c565b0154610452856106ce565b906106c1565b9261062c565b01549060405192835260208301526040820152f35b3461015d57600036600319011261015d57602060405162093a808152f35b3461015d57600036600319011261015d576104ab3361078f565b6104b433610665565b54806104bc57005b60006104c733610665565b556040519081527ffc30cddea38e2bf4d6ea7d3f9ed3b6ad7f176419f4963bd81318067a4aee73fe60203392a2005b3461015d57602036600319011261015d57600435806105143361062c565b5410610590576105233361078f565b61052c3361062c565b61053782825461069e565b9055610552816000805160206108448339815191525461069e565b600080516020610844833981519152556040519081527f7084f5476618d8e60b11ef0d7d3f06914655adb8793e28ff7f018d4c76d505d560203392a2005b60405162461bcd60e51b8152602060048201526012602482015271496e73756666696369656e74207374616b6560701b6044820152606490fd5b3461015d57600036600319011261015d57602060008051602061084483398151915254604051908152f35b3461015d57602036600319011261015d576004356001600160a01b038116810361015d576106246020916106ce565b604051908152f35b6001600160a01b031660009081527f31c1f8402397e5b1e3d75f3da7207ce6f54556b27afe723742768c4e4be50cf16020526040902090565b6001600160a01b031660009081527f31c1f8402397e5b1e3d75f3da7207ce6f54556b27afe723742768c4e4be50cf76020526040902090565b919082039182116106ab57565b634e487b7160e01b600052601160045260246000fd5b919082018092116106ab57565b7f31c1f8402397e5b1e3d75f3da7207ce6f54556b27afe723742768c4e4be50cf5546000805160206108448339815191525415610781576001600160a01b03821660009081527f31c1f8402397e5b1e3d75f3da7207ce6f54556b27afe723742768c4e4be50cf660205260409020546107469161069e565b906107508161062c565b548281029281840414901517156106ab57610778670de0b6b3a764000061077e930491610665565b546106c1565b90565b5061078b90610665565b5490565b6000805160206108448339815191525415610820576107ad816106ce565b6107c16107b983610665565b9182546106c1565b90557f31c1f8402397e5b1e3d75f3da7207ce6f54556b27afe723742768c4e4be50cf5546001600160a01b0390911660009081527f31c1f8402397e5b1e3d75f3da7207ce6f54556b27afe723742768c4e4be50cf66020526040902055565b5056fef0c57e16840df040f15088dc2f81fe391c3923bec73e23a9662efc9c229c6a0031c1f8402397e5b1e3d75f3da7207ce6f54556b27afe723742768c4e4be50cf2a2646970667358221220215edf32beb09620f52d7a66ded8e5bca5a1d042ff731825a1741e273eda8b0e64736f6c634300081c0033",
  "linkReferences": {},
  "deployedLinkReferences": {}
}