{
  "_format": "hh-sol-artifact-1",
  "contractName": "StakingFacet",
  "sourceName": "contracts/diamond/facets/StakingFacet.sol",
  "abi": [
    {
      "anonymous": false,
      "inputs": [
        {
          "indexed": false,
          "internalType": "uint8",
          "name": "version",
          "type": "uint8"
        }
      ],
      "name": "Initialized",
      "type": "event"
    },
    {
      "anonymous": false,
      "inputs": [
        {
          "indexed": false,
          "internalType": "uint256",
          "name": "oldRate",
          "type": "uint256"
        },
        {
          "indexed": false,
          "internalType": "uint256",
          "name": "newRate",
          "type": "uint256"
        }
      ],
      "name": "RewardRateUpdated",
      "type": "event"
    },
    {
      "anonymous": false,
      "inputs": [
        {
          "indexed": true,
          "internalType": "address",
          "name": "user",
          "type": "address"
        },
        {
          "indexed": false,
          "internalType": "uint256",
          "name": "amount",
          "type": "uint256"
        }
      ],
      "name": "RewardsClaimed",
      "type": "event"
    },
    {
      "anonymous": false,
      "inputs": [
        {
          "indexed": true,
          "internalType": "address",
          "name": "user",
          "type": "address"
        },
        {
          "indexed": false,
          "internalType": "uint256",
          "name": "amount",
          "type": "uint256"
        }
      ],
      "name": "Staked",
      "type": "event"
    },
    {
      "anonymous": false,
      "inputs": [
        {
          "indexed": true,
          "internalType": "address",
          "name": "user",
          "type": "address"
        },
        {
          "indexed": false,
          "internalType": "uint256",
          "name": "amount",
          "type": "uint256"
        }
      ],
      "name": "Withdrawn",
      "type": "event"
    },
    {
      "inputs": [],
      "name": "REWARD_DURATION",
      "outputs": [
        {
          "internalType": "uint256",
          "name": "",
          "type": "uint256"
        }
      ],
      "stateMutability": "view",
      "type": "function"
    },
    {
      "inputs": [],
      "name": "claimRewards",
      "outputs": [],
      "stateMutability": "nonpayable",
      "type": "function"
    },
    {
      "inputs": [
        {
          "internalType": "address",
          "name": "_account",
          "type": "address"
        }
      ],
      "name": "earned",
      "outputs": [
        {
          "internalType": "uint256",
          "name": "",
          "type": "uint256"
        }
      ],
      "stateMutability": "view",
      "type": "function"
    },
    {
      "inputs": [],
      "name": "getRewardRate",
      "outputs": [
        {
          "internalType": "uint256",
          "name": "",
          "type": "uint256"
        }
      ],
      "stateMutability": "view",
      "type": "function"
    },
    {
      "inputs": [
        {
          "internalType": "address",
          "name": "_user",
          "type": "address"
        }
      ],
      "name": "getStake",
      "outputs": [
        {
          "internalType": "uint256",
          "name": "amount",
          "type": "uint256"
        },
        {
          "internalType": "uint256",
          "name": "earnedRewards",
          "type": "uint256"
        },
        {
          "internalType": "uint256",
          "name": "stakedAt",
          "type": "uint256"
        }
      ],
      "stateMutability": "view",
      "type": "function"
    },
    {
      "inputs": [],
      "name": "getTotalStaked",
      "outputs": [
        {
          "internalType": "uint256",
          "name": "",
          "type": "uint256"
        }
      ],
      "stateMutability": "view",
      "type": "function"
    },
    {
      "inputs": [],
      "name": "initialize",
      "outputs": [],
      "stateMutability": "nonpayable",
      "type": "function"
    },
    {
      "inputs": [
        {
          "internalType": "uint256",
          "name": "_newRate",
          "type": "uint256"
        }
      ],
      "name": "setRewardRate",
      "outputs": [],
      "stateMutability": "nonpayable",
      "type": "function"
    },
    {
      "inputs": [
        {
          "internalType": "uint256",
          "name": "_amount",
          "type": "uint256"
        }
      ],
      "name": "stake",
      "outputs": [],
      "stateMutability": "nonpayable",
      "type": "function"
    },
    {
      "inputs": [
        {
          "internalType": "uint256",
          "name": "_amount",
          "type": "uint256"
        }
      ],
      "name": "withdraw",
      "outputs": [],
      "stateMutability": "nonpayable",
      "type": "function"
    }
  ],
  "bytecode": "0x60808060405234601557610859908161001b8239f35b600080fdfe6080604052600436101561001257600080fd5b60003560e01c80628cc262146105d55780630917e776146105aa5780632e1a7d4d146104d6578063372500ab146104715780635ade228a146104535780637a766460146103e25780637e1a3786146103a55780638129fc1c146102925780639e447fc6146101625763a694fc3a1461008957600080fd5b3461015d57602036600319011261015d576004358015610127576100ac3361076f565b6100b53361060c565b6100c08282546106a1565b90554260026100ce3361060c565b01556100e981600080516020610804833981519152546106a1565b600080516020610804833981519152556040519081527f9e71bc8eea02a63969f509818f2dafb9254532904319f9dbda79b67bd34a5f3d60203392a2005b60405162461bcd60e51b815260206004820152600e60248201526d043616e6e6f74207374616b6520360941b6044820152606490fd5b600080fd5b3461015d57602036600319011261015d577fc8fcad8db84d3cc18b4c41d551ea0ee66dd599cde068d998e57d5e09332c132054600435906001600160a01b031633036102425760407fc390a98ace15a7bb6bab611eedfdbb2685043b241a869420043cdfb23ccfee50917f31c1f8402397e5b1e3d75f3da7207ce6f54556b27afe723742768c4e4be50cf35490807f31c1f8402397e5b1e3d75f3da7207ce6f54556b27afe723742768c4e4be50cf355427f31c1f8402397e5b1e3d75f3da7207ce6f54556b27afe723742768c4e4be50cf45582519182526020820152a1005b60405162461bcd60e51b815260206004820152602260248201527f4c69624469616d6f6e643a204d75737420626520636f6e7472616374206f776e60448201526132b960f11b6064820152608490fd5b3461015d57600036600319011261015d5760005460ff8160081c161590818092610398575b8015610381575b156103255760ff19811660011760005581610313575b506102db57005b61ff0019600054166000557f7f26b83ff96e1f2b6a682f133852f6798a09c465da95921460cefb3847402498602060405160018152a1005b61ffff191661010117600055816102d4565b60405162461bcd60e51b815260206004820152602e60248201527f496e697469616c697a61626c653a20636f6e747261637420697320616c72656160448201526d191e481a5b9a5d1a585b1a5e995960921b6064820152608490fd5b50303b1580156102be5750600160ff8216146102be565b50600160ff8216106102b7565b3461015d57600036600319011261015d5760207f31c1f8402397e5b1e3d75f3da7207ce6f54556b27afe723742768c4e4be50cf354604051908152f35b3461015d57602036600319011261015d576004356001600160a01b038116810361015d578061041260609261060c565b5490600261043e61043860016104278561060c565b0154610432856106ae565b906106a1565b9261060c565b01549060405192835260208301526040820152f35b3461015d57600036600319011261015d57602060405162093a808152f35b3461015d57600036600319011261015d5761048b3361076f565b61049433610645565b548061049c57005b60006104a733610645565b556040519081527ffc30cddea38e2bf4d6ea7d3f9ed3b6ad7f176419f4963bd81318067a4aee73fe60203392a2005b3461015d57602036600319011261015d57600435806104f43361060c565b5410610570576105033361076f565b61050c3361060c565b61051782825461067e565b9055610532816000805160206108048339815191525461067e565b600080516020610804833981519152556040519081527f7084f5476618d8e60b11ef0d7d3f06914655adb8793e28ff7f018d4c76d505d560203392a2005b60405162461bcd60e51b8152602060048201526012602482015271496e73756666696369656e74207374616b6560701b6044820152606490fd5b3461015d57600036600319011261015d57602060008051602061080483398151915254604051908152f35b3461015d57602036600319011261015d576004356001600160a01b038116810361015d576106046020916106ae565b604051908152f35b6001600160a01b031660009081527f31c1f8402397e5b1e3d75f3da7207ce6f54556b27afe723742768c4e4be50cf16020526040902090565b6001600160a01b031660009081527f31c1f8402397e5b1e3d75f3da7207ce6f54556b27afe723742768c4e4be50cf76020526040902090565b9190820391821161068b57565b634e487b7160e01b600052601160045260246000fd5b9190820180921161068b57565b7f31c1f8402397e5b1e3d75f3da7207ce6f54556b27afe723742768c4e4be50cf5546000805160206108048339815191525415610761576001600160a01b03821660009081527f31c1f8402397e5b1e3d75f3da7207ce6f54556b27afe723742768c4e4be50cf660205260409020546107269161067e565b906107308161060c565b5482810292818404149015171561068b57610758670de0b6b3a764000061075e930491610645565b546106a1565b90565b5061076b90610645565b5490565b60008051602061080483398151915254156108005761078d816106ae565b6107a161079983610645565b9182546106a1565b90557f31c1f8402397e5b1e3d75f3da7207ce6f54556b27afe723742768c4e4be50cf5546001600160a01b0390911660009081527f31c1f8402397e5b1e3d75f3da7207ce6f54556b27afe723742768c4e4be50cf66020526040902055565b5056fe31c1f8402397e5b1e3d75f3da7207ce6f54556b27afe723742768c4e4be50cf2a26469706673582212204aed32a760f9ba7935dd3b80ac3e4b02d2cb13b9cfe9d8df49384c976e354a6b64736f6c634300081c0033",
  "linkReferences": {},
  "deployedLinkReferences": {}
}