{
  "_format": "hh-sol-artifact-1",
  "contractName": "AssetsFacet",
  "sourceName": "contracts/diamond/facets/AssetsFacet.sol",
  "abi": [
    {
      "anonymous": false,
      "inputs": [
        {
          "indexed": false,
          "internalType": "uint8",
          "name": "version",
          "type": "uint8"
        }
      ],
      "name": "Initialized",
      "type": "event"
    },
    {
      "inputs": [
        {
          "internalType": "string",
          "name": "_name",
          "type": "string"
        },
        {
          "internalType": "string",
          "name": "_assetClass",
          "type": "string"
        },
        {
          "internalType": "string[]",
          "name": "_attributes",
          "type": "string[]"
        }
      ],
      "name": "addAsset",
      "outputs": [
        {
          "internalType": "bytes32",
          "name": "assetHash",
          "type": "bytes32"
        }
      ],
      "stateMutability": "nonpayable",
      "type": "function"
    },
    {
      "inputs": [
        {
          "internalType": "string",
          "name": "_class",
          "type": "string"
        }
      ],
      "name": "addAssetClass",
      "outputs": [],
      "stateMutability": "nonpayable",
      "type": "function"
    },
    {
      "inputs": [
        {
          "internalType": "uint256",
          "name": "_id",
          "type": "uint256"
        }
      ],
      "name": "getAsset",
      "outputs": [
        {
          "internalType": "string",
          "name": "name",
          "type": "string"
        },
        {
          "internalType": "string",
          "name": "assetClass",
          "type": "string"
        },
        {
          "internalType": "string[]",
          "name": "attributes",
          "type": "string[]"
        },
        {
          "internalType": "uint256",
          "name": "createdAt",
          "type": "uint256"
        },
        {
          "internalType": "bool",
          "name": "active",
          "type": "bool"
        }
      ],
      "stateMutability": "view",
      "type": "function"
    },
    {
      "inputs": [
        {
          "internalType": "bytes32",
          "name": "_assetHash",
          "type": "bytes32"
        }
      ],
      "name": "getAssetByHash",
      "outputs": [
        {
          "internalType": "uint256",
          "name": "id",
          "type": "uint256"
        }
      ],
      "stateMutability": "view",
      "type": "function"
    },
    {
      "inputs": [],
      "name": "getTotalAssets",
      "outputs": [
        {
          "internalType": "uint256",
          "name": "",
          "type": "uint256"
        }
      ],
      "stateMutability": "view",
      "type": "function"
    },
    {
      "inputs": [],
      "name": "initialize",
      "outputs": [],
      "stateMutability": "nonpayable",
      "type": "function"
    }
  ],
  "bytecode": "0x60808060405234601557610b8a908161001b8239f35b600080fdfe608080604052600436101561001357600080fd5b60003560e01c9081636e07302b146107f8575080638129fc1c146106e5578063b27221ca1461058f578063e243b2fc14610200578063eac8f5b8146100b15763ef6fd2f01461006157600080fd5b346100ac5760203660031901126100ac576004356000527f31c1f8402397e5b1e3d75f3da7207ce6f54556b27afe723742768c4e4be50cea6020526020604060002054604051908152f35b600080fd5b346100ac5760203660031901126100ac576004356000527f31c1f8402397e5b1e3d75f3da7207ce6f54556b27afe723742768c4e4be50ce96020526040600020600281019060038101549160ff600483015416610119600161011285610a90565b9401610a90565b9382549461012686610899565b956101346040519788610820565b80875260208701809560005260206000206000915b8383106101e3575050505061017b9061016d6040519660a0885260a08801906108d4565b9086820360208801526108d4565b94848603604086015251808652602086019060208160051b88010194916000905b8282106101b85787808888886060840152151560808301520390f35b909192956020806101d5600193601f198d82030186528a516108d4565b98019201920190929161019c565b6001602081926101f285610a90565b815201920192019190610149565b346100ac5760603660031901126100ac5760043567ffffffffffffffff81116100ac57610231903690600401610842565b60243567ffffffffffffffff81116100ac57610251903690600401610842565b6044359167ffffffffffffffff83116100ac57366023840112156100ac57826004013561027d81610899565b9361028b6040519586610820565b8185526024602086019260051b820101903682116100ac5760248101925b82841061055f575050505060ff6102bf836108f9565b54161561052457600080516020610b35833981519152549160405160208101906103196020828187516102f58188848c016108b1565b820187519061030982848301858c016108b1565b0101888152038084520182610820565b519020936040519260a0840184811067ffffffffffffffff82111761050e57604052835260208301918252604083019081526103a060608401924284526080850195600187526000527f31c1f8402397e5b1e3d75f3da7207ce6f54556b27afe723742768c4e4be50ce9602052610396604060002095518661098f565b516001850161098f565b518051906002840190600160401b831161050e578154838355808410610490575b506020019060005260206000206000915b83831061047357878760048888516003820155019051151560ff80198354169116179055600080516020610b358339815191525490806000527f31c1f8402397e5b1e3d75f3da7207ce6f54556b27afe723742768c4e4be50cea60205281604060002055600019821461045d57600160209201600080516020610b3583398151915255604051908152f35b634e487b7160e01b600052601160045260246000fd5b60016020826104848394518661098f565b019201920191906103d2565b8260005283602060002091820191015b8181106104ad57506103c1565b806104ba6001925461093e565b806104c7575b50016104a0565b601f811183146104dd5750600081555b8a6104c0565b6104fb908260005283601f6020600020920160051c82019101610978565b80600052600060208120818355556104d7565b634e487b7160e01b600052604160045260246000fd5b60405162461bcd60e51b815260206004820152601360248201527210db185cdcc81b9bdd081cdd5c1c1bdc9d1959606a1b6044820152606490fd5b833567ffffffffffffffff81116100ac57602091610584839260243691870101610842565b8152019301926102a9565b346100ac5760203660031901126100ac5760043567ffffffffffffffff81116100ac576105c0903690600401610842565b60ff6105cb826108f9565b54166106a9576105da816108f9565b805460ff191660011790557f31c1f8402397e5b1e3d75f3da7207ce6f54556b27afe723742768c4e4be50ced5490600160401b82101561050e5760018201807f31c1f8402397e5b1e3d75f3da7207ce6f54556b27afe723742768c4e4be50ced55821015610693577f31c1f8402397e5b1e3d75f3da7207ce6f54556b27afe723742768c4e4be50ced600052610691917f1c2330be4784e7517f7bf9e8f32a6116bbc3d29c847a13af45566883a8e9d78b0161098f565b005b634e487b7160e01b600052603260045260246000fd5b60405162461bcd60e51b8152602060048201526014602482015273436c61737320616c72656164792065786973747360601b6044820152606490fd5b346100ac5760003660031901126100ac5760005460ff8160081c1615908180926107eb575b80156107d4575b156107785760ff19811660011760005581610766575b5061072e57005b61ff0019600054166000557f7f26b83ff96e1f2b6a682f133852f6798a09c465da95921460cefb3847402498602060405160018152a1005b61ffff19166101011760005581610727565b60405162461bcd60e51b815260206004820152602e60248201527f496e697469616c697a61626c653a20636f6e747261637420697320616c72656160448201526d191e481a5b9a5d1a585b1a5e995960921b6064820152608490fd5b50303b1580156107115750600160ff821614610711565b50600160ff82161061070a565b346100ac5760003660031901126100ac57602090600080516020610b35833981519152548152f35b90601f8019910116810190811067ffffffffffffffff82111761050e57604052565b81601f820112156100ac5780359067ffffffffffffffff821161050e5760405192610877601f8401601f191660200185610820565b828452602083830101116100ac57816000926020809301838601378301015290565b67ffffffffffffffff811161050e5760051b60200190565b60005b8381106108c45750506000910152565b81810151838201526020016108b4565b906020916108ed815180928185528580860191016108b1565b601f01601f1916010190565b60206109129181604051938285809451938492016108b1565b81017f31c1f8402397e5b1e3d75f3da7207ce6f54556b27afe723742768c4e4be50cec81520301902090565b90600182811c9216801561096e575b602083101461095857565b634e487b7160e01b600052602260045260246000fd5b91607f169161094d565b818110610983575050565b60008155600101610978565b919091825167ffffffffffffffff811161050e576109ad825461093e565b601f8111610a53575b506020601f82116001146109f157819293946000926109e6575b50508160011b916000199060031b1c1916179055565b0151905038806109d0565b601f1982169083600052806000209160005b818110610a3b57509583600195969710610a22575b505050811b019055565b015160001960f88460031b161c19169055388080610a18565b9192602060018192868b015181550194019201610a03565b610a8090836000526020600020601f840160051c81019160208510610a86575b601f0160051c0190610978565b386109b6565b9091508190610a73565b9060405191826000825492610aa48461093e565b8084529360018116908115610b125750600114610acb575b50610ac992500383610820565b565b90506000929192526020600020906000915b818310610af6575050906020610ac99282010138610abc565b6020919350806001915483858901015201910190918492610add565b905060209250610ac994915060ff191682840152151560051b82010138610abc56fe31c1f8402397e5b1e3d75f3da7207ce6f54556b27afe723742768c4e4be50ceba2646970667358221220e14c23d585e89c9dd545312f9651d5a3c6e714132ed2a37145c35cf6a64d964564736f6c634300081c0033",
  "linkReferences": {},
  "deployedLinkReferences": {}
}