{
  "_format": "hh-sol-artifact-1",
  "contractName": "AssetsFacet",
  "sourceName": "contracts/diamond/facets/AssetsFacet.sol",
  "abi": [
    {
      "inputs": [],
      "name": "InvalidInitialization",
      "type": "error"
    },
    {
      "inputs": [],
      "name": "NotInitializing",
      "type": "error"
    },
    {
      "anonymous": false,
      "inputs": [
        {
          "indexed": false,
          "internalType": "uint64",
          "name": "version",
          "type": "uint64"
        }
      ],
      "name": "Initialized",
      "type": "event"
    },
    {
      "inputs": [
        {
          "internalType": "string",
          "name": "_name",
          "type": "string"
        },
        {
          "internalType": "string",
          "name": "_assetClass",
          "type": "string"
        },
        {
          "internalType": "string[]",
          "name": "_attributes",
          "type": "string[]"
        }
      ],
      "name": "addAsset",
      "outputs": [
        {
          "internalType": "bytes32",
          "name": "assetHash",
          "type": "bytes32"
        }
      ],
      "stateMutability": "nonpayable",
      "type": "function"
    },
    {
      "inputs": [
        {
          "internalType": "string",
          "name": "_class",
          "type": "string"
        }
      ],
      "name": "addAssetClass",
      "outputs": [],
      "stateMutability": "nonpayable",
      "type": "function"
    },
    {
      "inputs": [
        {
          "internalType": "uint256",
          "name": "_id",
          "type": "uint256"
        }
      ],
      "name": "getAsset",
      "outputs": [
        {
          "internalType": "string",
          "name": "name",
          "type": "string"
        },
        {
          "internalType": "string",
          "name": "assetClass",
          "type": "string"
        },
        {
          "internalType": "string[]",
          "name": "attributes",
          "type": "string[]"
        },
        {
          "internalType": "uint256",
          "name": "createdAt",
          "type": "uint256"
        },
        {
          "internalType": "bool",
          "name": "active",
          "type": "bool"
        }
      ],
      "stateMutability": "view",
      "type": "function"
    },
    {
      "inputs": [
        {
          "internalType": "bytes32",
          "name": "_assetHash",
          "type": "bytes32"
        }
      ],
      "name": "getAssetByHash",
      "outputs": [
        {
          "internalType": "uint256",
          "name": "id",
          "type": "uint256"
        }
      ],
      "stateMutability": "view",
      "type": "function"
    },
    {
      "inputs": [],
      "name": "getTotalAssets",
      "outputs": [
        {
          "internalType": "uint256",
          "name": "",
          "type": "uint256"
        }
      ],
      "stateMutability": "view",
      "type": "function"
    },
    {
      "inputs": [],
      "name": "initialize",
      "outputs": [],
      "stateMutability": "nonpayable",
      "type": "function"
    }
  ],
  "bytecode": "0x60808060405234601557610bca908161001b8239f35b600080fdfe608080604052600436101561001357600080fd5b60003560e01c9081636e07302b14610818575080638129fc1c146106e5578063b27221ca1461058f578063e243b2fc14610200578063eac8f5b8146100b15763ef6fd2f01461006157600080fd5b346100ac5760203660031901126100ac576004356000527f31c1f8402397e5b1e3d75f3da7207ce6f54556b27afe723742768c4e4be50cea6020526020604060002054604051908152f35b600080fd5b346100ac5760203660031901126100ac576004356000527f31c1f8402397e5b1e3d75f3da7207ce6f54556b27afe723742768c4e4be50ce96020526040600020600281019060038101549160ff600483015416610119600161011285610ab0565b9401610ab0565b93825494610126866108b9565b956101346040519788610840565b80875260208701809560005260206000206000915b8383106101e3575050505061017b9061016d6040519660a0885260a08801906108f4565b9086820360208801526108f4565b94848603604086015251808652602086019060208160051b88010194916000905b8282106101b85787808888886060840152151560808301520390f35b909192956020806101d5600193601f198d82030186528a516108f4565b98019201920190929161019c565b6001602081926101f285610ab0565b815201920192019190610149565b346100ac5760603660031901126100ac5760043567ffffffffffffffff81116100ac57610231903690600401610862565b60243567ffffffffffffffff81116100ac57610251903690600401610862565b6044359167ffffffffffffffff83116100ac57366023840112156100ac57826004013561027d816108b9565b9361028b6040519586610840565b8185526024602086019260051b820101903682116100ac5760248101925b82841061055f575050505060ff6102bf83610919565b54161561052457600080516020610b55833981519152549160405160208101906103196020828187516102f58188848c016108d1565b820187519061030982848301858c016108d1565b0101888152038084520182610840565b519020936040519260a0840184811067ffffffffffffffff82111761050e57604052835260208301918252604083019081526103a060608401924284526080850195600187526000527f31c1f8402397e5b1e3d75f3da7207ce6f54556b27afe723742768c4e4be50ce960205261039660406000209551866109af565b51600185016109af565b518051906002840190600160401b831161050e578154838355808410610490575b506020019060005260206000206000915b83831061047357878760048888516003820155019051151560ff80198354169116179055600080516020610b558339815191525490806000527f31c1f8402397e5b1e3d75f3da7207ce6f54556b27afe723742768c4e4be50cea60205281604060002055600019821461045d57600160209201600080516020610b5583398151915255604051908152f35b634e487b7160e01b600052601160045260246000fd5b6001602082610484839451866109af565b019201920191906103d2565b8260005283602060002091820191015b8181106104ad57506103c1565b806104ba6001925461095e565b806104c7575b50016104a0565b601f811183146104dd5750600081555b8a6104c0565b6104fb908260005283601f6020600020920160051c82019101610998565b80600052600060208120818355556104d7565b634e487b7160e01b600052604160045260246000fd5b60405162461bcd60e51b815260206004820152601360248201527210db185cdcc81b9bdd081cdd5c1c1bdc9d1959606a1b6044820152606490fd5b833567ffffffffffffffff81116100ac57602091610584839260243691870101610862565b8152019301926102a9565b346100ac5760203660031901126100ac5760043567ffffffffffffffff81116100ac576105c0903690600401610862565b60ff6105cb82610919565b54166106a9576105da81610919565b805460ff191660011790557f31c1f8402397e5b1e3d75f3da7207ce6f54556b27afe723742768c4e4be50ced5490600160401b82101561050e5760018201807f31c1f8402397e5b1e3d75f3da7207ce6f54556b27afe723742768c4e4be50ced55821015610693577f31c1f8402397e5b1e3d75f3da7207ce6f54556b27afe723742768c4e4be50ced600052610691917f1c2330be4784e7517f7bf9e8f32a6116bbc3d29c847a13af45566883a8e9d78b016109af565b005b634e487b7160e01b600052603260045260246000fd5b60405162461bcd60e51b8152602060048201526014602482015273436c61737320616c72656164792065786973747360601b6044820152606490fd5b346100ac5760003660031901126100ac57600080516020610b758339815191525460ff8160401c16159067ffffffffffffffff811680159081610810575b6001149081610806575b1590816107fd575b506107ec5767ffffffffffffffff198116600117600080516020610b7583398151915255816107bf575b5061076657005b68ff000000000000000019600080516020610b758339815191525416600080516020610b75833981519152557fc7f505b2f371ae2175ee4913f4499e1f2633a7b5936321eed1cdaeb6115181d2602060405160018152a1005b68ffffffffffffffffff19166801000000000000000117600080516020610b75833981519152558161075f565b63f92ee8a960e01b60005260046000fd5b90501583610735565b303b15915061072d565b839150610723565b346100ac5760003660031901126100ac57602090600080516020610b55833981519152548152f35b90601f8019910116810190811067ffffffffffffffff82111761050e57604052565b81601f820112156100ac5780359067ffffffffffffffff821161050e5760405192610897601f8401601f191660200185610840565b828452602083830101116100ac57816000926020809301838601378301015290565b67ffffffffffffffff811161050e5760051b60200190565b60005b8381106108e45750506000910152565b81810151838201526020016108d4565b9060209161090d815180928185528580860191016108d1565b601f01601f1916010190565b60206109329181604051938285809451938492016108d1565b81017f31c1f8402397e5b1e3d75f3da7207ce6f54556b27afe723742768c4e4be50cec81520301902090565b90600182811c9216801561098e575b602083101461097857565b634e487b7160e01b600052602260045260246000fd5b91607f169161096d565b8181106109a3575050565b60008155600101610998565b919091825167ffffffffffffffff811161050e576109cd825461095e565b601f8111610a73575b506020601f8211600114610a115781929394600092610a06575b50508160011b916000199060031b1c1916179055565b0151905038806109f0565b601f1982169083600052806000209160005b818110610a5b57509583600195969710610a42575b505050811b019055565b015160001960f88460031b161c19169055388080610a38565b9192602060018192868b015181550194019201610a23565b610aa090836000526020600020601f840160051c81019160208510610aa6575b601f0160051c0190610998565b386109d6565b9091508190610a93565b9060405191826000825492610ac48461095e565b8084529360018116908115610b325750600114610aeb575b50610ae992500383610840565b565b90506000929192526020600020906000915b818310610b16575050906020610ae99282010138610adc565b6020919350806001915483858901015201910190918492610afd565b905060209250610ae994915060ff191682840152151560051b82010138610adc56fe31c1f8402397e5b1e3d75f3da7207ce6f54556b27afe723742768c4e4be50cebf0c57e16840df040f15088dc2f81fe391c3923bec73e23a9662efc9c229c6a00a264697066735822122081aed7f8a1fb07a58093ccc19d6040275a5a1563ea16de5efa49589ccfa639ca64736f6c634300081c0033",
  "linkReferences": {},
  "deployedLinkReferences": {}
}