{
  "_format": "hh-sol-artifact-1",
  "contractName": "DiamondLoupeFacet",
  "sourceName": "contracts/diamond/facets/DiamondLoupeFacet.sol",
  "abi": [
    {
      "inputs": [
        {
          "internalType": "bytes4",
          "name": "_selector",
          "type": "bytes4"
        }
      ],
      "name": "facetAddress",
      "outputs": [
        {
          "internalType": "address",
          "name": "",
          "type": "address"
        }
      ],
      "stateMutability": "view",
      "type": "function"
    },
    {
      "inputs": [],
      "name": "facetAddresses",
      "outputs": [
        {
          "internalType": "address[]",
          "name": "",
          "type": "address[]"
        }
      ],
      "stateMutability": "view",
      "type": "function"
    },
    {
      "inputs": [
        {
          "internalType": "address",
          "name": "_facetAddress",
          "type": "address"
        }
      ],
      "name": "facetFunctionSelectors",
      "outputs": [
        {
          "internalType": "bytes4[]",
          "name": "",
          "type": "bytes4[]"
        }
      ],
      "stateMutability": "view",
      "type": "function"
    },
    {
      "inputs": [],
      "name": "facets",
      "outputs": [
        {
          "components": [
            {
              "internalType": "address",
              "name": "facetAddress",
              "type": "address"
            },
            {
              "internalType": "bytes4[]",
              "name": "functionSelectors",
              "type": "bytes4[]"
            },
            {
              "internalType": "uint16[]",
              "name": "selectorIndices",
              "type": "uint16[]"
            },
            {
              "internalType": "string[]",
              "name": "facetURI",
              "type": "string[]"
            }
          ],
          "internalType": "struct IDiamondLoupe.Facet[]",
          "name": "facets_",
          "type": "tuple[]"
        }
      ],
      "stateMutability": "view",
      "type": "function"
    },
    {
      "inputs": [
        {
          "internalType": "bytes4",
          "name": "_selector",
          "type": "bytes4"
        }
      ],
      "name": "selectorToFacetAndPosition",
      "outputs": [
        {
          "internalType": "address",
          "name": "facetAddr_",
          "type": "address"
        },
        {
          "internalType": "uint16",
          "name": "selectorPos_",
          "type": "uint16"
        }
      ],
      "stateMutability": "view",
      "type": "function"
    }
  ],
  "bytecode": "0x608080604052346015576108a7908161001b8239f35b600080fdfe608080604052600436101561001357600080fd5b60003560e01c90816349e56145146105635750806352ef6b2c146104755780637a0ed62714610171578063adfca15e146100bf5763cdffacc61461005657600080fd5b346100ba5760203660031901126100ba5760043563ffffffff60e01b81168091036100ba576000527fc8fcad8db84d3cc18b4c41d551ea0ee66dd599cde068d998e57d5e09332c131c602052602060018060a01b0360406000205416604051908152f35b600080fd5b346100ba5760203660031901126100ba576004356001600160a01b03811681036100ba576001600160a01b031660009081527fc8fcad8db84d3cc18b4c41d551ea0ee66dd599cde068d998e57d5e09332c131d6020526040902061012290610640565b60405180916020820160208352815180915260206040840192019060005b81811061014e575050500390f35b82516001600160e01b031916845285945060209384019390920191600101610140565b346100ba5760003660031901126100ba577fc8fcad8db84d3cc18b4c41d551ea0ee66dd599cde068d998e57d5e09332c131e546101ad81610628565b906101bb6040519283610606565b808252601f196101ca82610628565b0160005b81811061044357505060005b818110156102b5577fb5c239a29faf02594141bbc5e6982a9b85ba2b4d59c3ed3baaf4cb8e5e11cbef8101546001600160a01b031660008181527fc8fcad8db84d3cc18b4c41d551ea0ee66dd599cde068d998e57d5e09332c131d602052604081206001939291906020610286604051926102558385610606565b848452843681376040519461026a8487610606565b8552876102b0575b6040519561027f876105d4565b8652610640565b908401526040830152606082015261029e8286610847565b526102a98185610847565b50016101da565b610272565b8260405160208101916020825280518093526040820192602060408260051b8501019201906000945b8186106102eb5784840385f35b909192603f198582030182528351608082019060018060a01b038151168352602081015191608060208501528251809152602060a085019301906000905b808210610420575050506040810151918381036040850152602080845192838152019301906000905b808210610404575050506060015191606081830391015281519081815260208101906020808460051b83010194019260005b8181106103a5575050505050602080600192950192019501949190916102de565b9091929394601f19848203018552855180519081835260005b8281106103ef57505060208083836000838096600198010152601f8019910116010197019501910192919092610384565b806020809284010151828287010152016103be565b90919360208060019261ffff8851168152019501920190610352565b82516001600160e01b031916855260209485019490920191600190910190610329565b602090604051610452816105d4565b6000815260608382015260606040820152606080820152828287010152016101ce565b346100ba5760003660031901126100ba576040518060207fc8fcad8db84d3cc18b4c41d551ea0ee66dd599cde068d998e57d5e09332c131e54928381520180927fc8fcad8db84d3cc18b4c41d551ea0ee66dd599cde068d998e57d5e09332c131e60005260206000209060005b81811061054457505050816104f8910382610606565b6040519182916020830190602084525180915260408301919060005b818110610522575050500390f35b82516001600160a01b0316845285945060209384019390920191600101610514565b82546001600160a01b03168452602090930192600192830192016104e2565b346100ba5760203660031901126100ba576004359063ffffffff60e01b82168092036100ba5760009182527fc8fcad8db84d3cc18b4c41d551ea0ee66dd599cde068d998e57d5e09332c131c6020908152604092839020546001600160a01b038116835260a01c61ffff1690820152f35b6080810190811067ffffffffffffffff8211176105f057604052565b634e487b7160e01b600052604160045260246000fd5b90601f8019910116810190811067ffffffffffffffff8211176105f057604052565b67ffffffffffffffff81116105f05760051b60200190565b90604051918281549182825260208201906000526020600020926000905b8060078301106107a2576106b4945491818110610783575b818110610764575b818110610745575b818110610726575b818110610707575b8181106106e8575b8181106106cb575b106106b6575b500383610606565b565b6001600160e01b0319168152602001386106ac565b602083811b6001600160e01b0319168552909301926001016106a6565b604083901b6001600160e01b031916845260209093019260010161069e565b606083901b6001600160e01b0319168452602090930192600101610696565b608083901b6001600160e01b031916845260209093019260010161068e565b60a083901b6001600160e01b0319168452602090930192600101610686565b60c083901b6001600160e01b031916845260209093019260010161067e565b60e083901b6001600160e01b0319168452602090930192600101610676565b916008919350610100600191865463ffffffff60e01b8160e01b16825263ffffffff60e01b8160c01b16602083015263ffffffff60e01b8160a01b16604083015263ffffffff60e01b8160801b16606083015263ffffffff60e01b8160601b16608083015263ffffffff60e01b8160401b1660a083015263ffffffff60e01b8160201b1660c083015263ffffffff60e01b1660e082015201940192018592939161065e565b805182101561085b5760209160051b010190565b634e487b7160e01b600052603260045260246000fdfea2646970667358221220d4d8bf3c28e4873146f7c1ce9977e68b3e5470f1b178cc6264db462c9ee78eb064736f6c634300081c0033",
  "linkReferences": {},
  "deployedLinkReferences": {}
}