{"abi":[{"type":"constructor","inputs":[{"name":"token","type":"address","internalType":"contract IERC20"}],"stateMutability":"nonpayable"},{"type":"function","name":"ADMIN_ROLE","inputs":[],"outputs":[{"name":"","type":"bytes32","internalType":"bytes32"}],"stateMutability":"view"},{"type":"function","name":"DEFAULT_ADMIN_ROLE","inputs":[],"outputs":[{"name":"","type":"bytes32","internalType":"bytes32"}],"stateMutability":"view"},{"type":"function","name":"DISPATCHER_ROLE","inputs":[],"outputs":[{"name":"","type":"bytes32","internalType":"bytes32"}],"stateMutability":"view"},{"type":"function","name":"DRIVER_ROLE","inputs":[],"outputs":[{"name":"","type":"bytes32","internalType":"bytes32"}],"stateMutability":"view"},{"type":"function","name":"assignDriverToJourneyId","inputs":[{"name":"driver","type":"address","internalType":"address"},{"name":"journeyID","type":"bytes32","internalType":"bytes32"}],"outputs":[],"stateMutability":"nonpayable"},{"type":"function","name":"customerHandOff","inputs":[{"name":"","type":"address","internalType":"address"},{"name":"","type":"bytes32","internalType":"bytes32"}],"outputs":[{"name":"","type":"bool","internalType":"bool"}],"stateMutability":"view"},{"type":"function","name":"driverDeliverySigned","inputs":[{"name":"","type":"address","internalType":"address"},{"name":"","type":"bytes32","internalType":"bytes32"}],"outputs":[{"name":"","type":"bool","internalType":"bool"}],"stateMutability":"view"},{"type":"function","name":"driverPickupSigned","inputs":[{"name":"","type":"address","internalType":"address"},{"name":"","type":"bytes32","internalType":"bytes32"}],"outputs":[{"name":"","type":"bool","internalType":"bool"}],"stateMutability":"view"},{"type":"function","name":"driverToJourneyId","inputs":[{"name":"","type":"address","internalType":"address"},{"name":"","type":"uint256","internalType":"uint256"}],"outputs":[{"name":"","type":"bytes32","internalType":"bytes32"}],"stateMutability":"view"},{"type":"function","name":"getOrder","inputs":[{"name":"id","type":"bytes32","internalType":"bytes32"}],"outputs":[{"name":"","type":"tuple","internalType":"struct Ausys.Order","components":[{"name":"id","type":"bytes32","internalType":"bytes32"},{"name":"token","type":"address","internalType":"address"},{"name":"tokenId","type":"uint256","internalType":"uint256"},{"name":"tokenQuantity","type":"uint256","internalType":"uint256"},{"name":"price","type":"uint256","internalType":"uint256"},{"name":"txFee","type":"uint256","internalType":"uint256"},{"name":"buyer","type":"address","internalType":"address"},{"name":"seller","type":"address","internalType":"address"},{"name":"journeyIds","type":"bytes32[]","internalType":"bytes32[]"},{"name":"nodes","type":"address[]","internalType":"address[]"},{"name":"locationData","type":"tuple","internalType":"struct Ausys.ParcelData","components":[{"name":"startLocation","type":"tuple","internalType":"struct Ausys.Location","components":[{"name":"lat","type":"string","internalType":"string"},{"name":"lng","type":"string","internalType":"string"}]},{"name":"endLocation","type":"tuple","internalType":"struct Ausys.Location","components":[{"name":"lat","type":"string","internalType":"string"},{"name":"lng","type":"string","internalType":"string"}]},{"name":"startName","type":"string","internalType":"string"},{"name":"endName","type":"string","internalType":"string"}]},{"name":"currentStatus","type":"uint8","internalType":"enum Ausys.OrderStatus"},{"name":"contractualAgreement","type":"bytes32","internalType":"bytes32"}]}],"stateMutability":"view"},{"type":"function","name":"getRoleAdmin","inputs":[{"name":"role","type":"bytes32","internalType":"bytes32"}],"outputs":[{"name":"","type":"bytes32","internalType":"bytes32"}],"stateMutability":"view"},{"type":"function","name":"getjourney","inputs":[{"name":"id","type":"bytes32","internalType":"bytes32"}],"outputs":[{"name":"","type":"tuple","internalType":"struct Ausys.Journey","components":[{"name":"parcelData","type":"tuple","internalType":"struct Ausys.ParcelData","components":[{"name":"startLocation","type":"tuple","internalType":"struct Ausys.Location","components":[{"name":"lat","type":"string","internalType":"string"},{"name":"lng","type":"string","internalType":"string"}]},{"name":"endLocation","type":"tuple","internalType":"struct Ausys.Location","components":[{"name":"lat","type":"string","internalType":"string"},{"name":"lng","type":"string","internalType":"string"}]},{"name":"startName","type":"string","internalType":"string"},{"name":"endName","type":"string","internalType":"string"}]},{"name":"journeyId","type":"bytes32","internalType":"bytes32"},{"name":"currentStatus","type":"uint8","internalType":"enum Ausys.JourneyStatus"},{"name":"sender","type":"address","internalType":"address"},{"name":"receiver","type":"address","internalType":"address"},{"name":"driver","type":"address","internalType":"address"},{"name":"journeyStart","type":"uint256","internalType":"uint256"},{"name":"journeyEnd","type":"uint256","internalType":"uint256"},{"name":"bounty","type":"uint256","internalType":"uint256"},{"name":"ETA","type":"uint256","internalType":"uint256"}]}],"stateMutability":"view"},{"type":"function","name":"grantRole","inputs":[{"name":"role","type":"bytes32","internalType":"bytes32"},{"name":"account","type":"address","internalType":"address"}],"outputs":[],"stateMutability":"nonpayable"},{"type":"function","name":"handOff","inputs":[{"name":"id","type":"bytes32","internalType":"bytes32"}],"outputs":[{"name":"","type":"bool","internalType":"bool"}],"stateMutability":"nonpayable"},{"type":"function","name":"handOn","inputs":[{"name":"id","type":"bytes32","internalType":"bytes32"}],"outputs":[{"name":"","type":"bool","internalType":"bool"}],"stateMutability":"nonpayable"},{"type":"function","name":"hasRole","inputs":[{"name":"role","type":"bytes32","internalType":"bytes32"},{"name":"account","type":"address","internalType":"address"}],"outputs":[{"name":"","type":"bool","internalType":"bool"}],"stateMutability":"view"},{"type":"function","name":"idToJourney","inputs":[{"name":"","type":"bytes32","internalType":"bytes32"}],"outputs":[{"name":"parcelData","type":"tuple","internalType":"struct Ausys.ParcelData","components":[{"name":"startLocation","type":"tuple","internalType":"struct Ausys.Location","components":[{"name":"lat","type":"string","internalType":"string"},{"name":"lng","type":"string","internalType":"string"}]},{"name":"endLocation","type":"tuple","internalType":"struct Ausys.Location","components":[{"name":"lat","type":"string","internalType":"string"},{"name":"lng","type":"string","internalType":"string"}]},{"name":"startName","type":"string","internalType":"string"},{"name":"endName","type":"string","internalType":"string"}]},{"name":"journeyId","type":"bytes32","internalType":"bytes32"},{"name":"currentStatus","type":"uint8","internalType":"enum Ausys.JourneyStatus"},{"name":"sender","type":"address","internalType":"address"},{"name":"receiver","type":"address","internalType":"address"},{"name":"driver","type":"address","internalType":"address"},{"name":"journeyStart","type":"uint256","internalType":"uint256"},{"name":"journeyEnd","type":"uint256","internalType":"uint256"},{"name":"bounty","type":"uint256","internalType":"uint256"},{"name":"ETA","type":"uint256","internalType":"uint256"}],"stateMutability":"view"},{"type":"function","name":"idToOrder","inputs":[{"name":"","type":"bytes32","internalType":"bytes32"}],"outputs":[{"name":"id","type":"bytes32","internalType":"bytes32"},{"name":"token","type":"address","internalType":"address"},{"name":"tokenId","type":"uint256","internalType":"uint256"},{"name":"tokenQuantity","type":"uint256","internalType":"uint256"},{"name":"price","type":"uint256","internalType":"uint256"},{"name":"txFee","type":"uint256","internalType":"uint256"},{"name":"buyer","type":"address","internalType":"address"},{"name":"seller","type":"address","internalType":"address"},{"name":"locationData","type":"tuple","internalType":"struct Ausys.ParcelData","components":[{"name":"startLocation","type":"tuple","internalType":"struct Ausys.Location","components":[{"name":"lat","type":"string","internalType":"string"},{"name":"lng","type":"string","internalType":"string"}]},{"name":"endLocation","type":"tuple","internalType":"struct Ausys.Location","components":[{"name":"lat","type":"string","internalType":"string"},{"name":"lng","type":"string","internalType":"string"}]},{"name":"startName","type":"string","internalType":"string"},{"name":"endName","type":"string","internalType":"string"}]},{"name":"currentStatus","type":"uint8","internalType":"enum Ausys.OrderStatus"},{"name":"contractualAgreement","type":"bytes32","internalType":"bytes32"}],"stateMutability":"view"},{"type":"function","name":"journeyCreation","inputs":[{"name":"sender","type":"address","internalType":"address"},{"name":"receiver","type":"address","internalType":"address"},{"name":"_data","type":"tuple","internalType":"struct Ausys.ParcelData","components":[{"name":"startLocation","type":"tuple","internalType":"struct Ausys.Location","components":[{"name":"lat","type":"string","internalType":"string"},{"name":"lng","type":"string","internalType":"string"}]},{"name":"endLocation","type":"tuple","internalType":"struct Ausys.Location","components":[{"name":"lat","type":"string","internalType":"string"},{"name":"lng","type":"string","internalType":"string"}]},{"name":"startName","type":"string","internalType":"string"},{"name":"endName","type":"string","internalType":"string"}]},{"name":"bounty","type":"uint256","internalType":"uint256"},{"name":"ETA","type":"uint256","internalType":"uint256"}],"outputs":[],"stateMutability":"nonpayable"},{"type":"function","name":"journeyIdCounter","inputs":[],"outputs":[{"name":"","type":"uint256","internalType":"uint256"}],"stateMutability":"view"},{"type":"function","name":"journeyToOrderId","inputs":[{"name":"","type":"bytes32","internalType":"bytes32"}],"outputs":[{"name":"","type":"bytes32","internalType":"bytes32"}],"stateMutability":"view"},{"type":"function","name":"onERC1155BatchReceived","inputs":[{"name":"","type":"address","internalType":"address"},{"name":"","type":"address","internalType":"address"},{"name":"","type":"uint256[]","internalType":"uint256[]"},{"name":"","type":"uint256[]","internalType":"uint256[]"},{"name":"","type":"bytes","internalType":"bytes"}],"outputs":[{"name":"","type":"bytes4","internalType":"bytes4"}],"stateMutability":"nonpayable"},{"type":"function","name":"onERC1155Received","inputs":[{"name":"","type":"address","internalType":"address"},{"name":"","type":"address","internalType":"address"},{"name":"","type":"uint256","internalType":"uint256"},{"name":"","type":"uint256","internalType":"uint256"},{"name":"","type":"bytes","internalType":"bytes"}],"outputs":[{"name":"","type":"bytes4","internalType":"bytes4"}],"stateMutability":"nonpayable"},{"type":"function","name":"orderCreation","inputs":[{"name":"order","type":"tuple","internalType":"struct Ausys.Order","components":[{"name":"id","type":"bytes32","internalType":"bytes32"},{"name":"token","type":"address","internalType":"address"},{"name":"tokenId","type":"uint256","internalType":"uint256"},{"name":"tokenQuantity","type":"uint256","internalType":"uint256"},{"name":"price","type":"uint256","internalType":"uint256"},{"name":"txFee","type":"uint256","internalType":"uint256"},{"name":"buyer","type":"address","internalType":"address"},{"name":"seller","type":"address","internalType":"address"},{"name":"journeyIds","type":"bytes32[]","internalType":"bytes32[]"},{"name":"nodes","type":"address[]","internalType":"address[]"},{"name":"locationData","type":"tuple","internalType":"struct Ausys.ParcelData","components":[{"name":"startLocation","type":"tuple","internalType":"struct Ausys.Location","components":[{"name":"lat","type":"string","internalType":"string"},{"name":"lng","type":"string","internalType":"string"}]},{"name":"endLocation","type":"tuple","internalType":"struct Ausys.Location","components":[{"name":"lat","type":"string","internalType":"string"},{"name":"lng","type":"string","internalType":"string"}]},{"name":"startName","type":"string","internalType":"string"},{"name":"endName","type":"string","internalType":"string"}]},{"name":"currentStatus","type":"uint8","internalType":"enum Ausys.OrderStatus"},{"name":"contractualAgreement","type":"bytes32","internalType":"bytes32"}]}],"outputs":[{"name":"","type":"bytes32","internalType":"bytes32"}],"stateMutability":"nonpayable"},{"type":"function","name":"orderIdCounter","inputs":[],"outputs":[{"name":"","type":"uint256","internalType":"uint256"}],"stateMutability":"view"},{"type":"function","name":"orderIds","inputs":[{"name":"","type":"uint256","internalType":"uint256"}],"outputs":[{"name":"","type":"bytes32","internalType":"bytes32"}],"stateMutability":"view"},{"type":"function","name":"orderJourneyCreation","inputs":[{"name":"orderId","type":"bytes32","internalType":"bytes32"},{"name":"sender","type":"address","internalType":"address"},{"name":"receiver","type":"address","internalType":"address"},{"name":"_data","type":"tuple","internalType":"struct Ausys.ParcelData","components":[{"name":"startLocation","type":"tuple","internalType":"struct Ausys.Location","components":[{"name":"lat","type":"string","internalType":"string"},{"name":"lng","type":"string","internalType":"string"}]},{"name":"endLocation","type":"tuple","internalType":"struct Ausys.Location","components":[{"name":"lat","type":"string","internalType":"string"},{"name":"lng","type":"string","internalType":"string"}]},{"name":"startName","type":"string","internalType":"string"},{"name":"endName","type":"string","internalType":"string"}]},{"name":"bounty","type":"uint256","internalType":"uint256"},{"name":"ETA","type":"uint256","internalType":"uint256"},{"name":"tokenQuantity","type":"uint256","internalType":"uint256"},{"name":"assetId","type":"uint256","internalType":"uint256"}],"outputs":[],"stateMutability":"nonpayable"},{"type":"function","name":"owner","inputs":[],"outputs":[{"name":"","type":"address","internalType":"address"}],"stateMutability":"view"},{"type":"function","name":"packageSign","inputs":[{"name":"id","type":"bytes32","internalType":"bytes32"}],"outputs":[],"stateMutability":"nonpayable"},{"type":"function","name":"renounceOwnership","inputs":[],"outputs":[],"stateMutability":"nonpayable"},{"type":"function","name":"renounceRole","inputs":[{"name":"role","type":"bytes32","internalType":"bytes32"},{"name":"account","type":"address","internalType":"address"}],"outputs":[],"stateMutability":"nonpayable"},{"type":"function","name":"revokeAdmin","inputs":[{"name":"admin","type":"address","internalType":"address"}],"outputs":[],"stateMutability":"nonpayable"},{"type":"function","name":"revokeRole","inputs":[{"name":"role","type":"bytes32","internalType":"bytes32"},{"name":"account","type":"address","internalType":"address"}],"outputs":[],"stateMutability":"nonpayable"},{"type":"function","name":"setAdmin","inputs":[{"name":"admin","type":"address","internalType":"address"}],"outputs":[],"stateMutability":"nonpayable"},{"type":"function","name":"setDispatcher","inputs":[{"name":"dispatcher","type":"address","internalType":"address"},{"name":"enable","type":"bool","internalType":"bool"}],"outputs":[],"stateMutability":"nonpayable"},{"type":"function","name":"setDriver","inputs":[{"name":"driver","type":"address","internalType":"address"},{"name":"enable","type":"bool","internalType":"bool"}],"outputs":[],"stateMutability":"nonpayable"},{"type":"function","name":"setNodeManager","inputs":[{"name":"_nodeManager","type":"address","internalType":"contract AurumNodeManager"}],"outputs":[],"stateMutability":"nonpayable"},{"type":"function","name":"supportsInterface","inputs":[{"name":"interfaceId","type":"bytes4","internalType":"bytes4"}],"outputs":[{"name":"","type":"bool","internalType":"bool"}],"stateMutability":"view"},{"type":"function","name":"transferOwnership","inputs":[{"name":"newOwner","type":"address","internalType":"address"}],"outputs":[],"stateMutability":"nonpayable"},{"type":"event","name":"AdminSet","inputs":[{"name":"admin","type":"address","indexed":true,"internalType":"address"}],"anonymous":false},{"type":"event","name":"DriverAssigned","inputs":[{"name":"driver","type":"address","indexed":true,"internalType":"address"},{"name":"journeyId","type":"bytes32","indexed":true,"internalType":"bytes32"}],"anonymous":false},{"type":"event","name":"FundsEscrowed","inputs":[{"name":"from","type":"address","indexed":true,"internalType":"address"},{"name":"amount","type":"uint256","indexed":false,"internalType":"uint256"}],"anonymous":false},{"type":"event","name":"FundsRefunded","inputs":[{"name":"to","type":"address","indexed":true,"internalType":"address"},{"name":"amount","type":"uint256","indexed":false,"internalType":"uint256"}],"anonymous":false},{"type":"event","name":"JourneyCanceled","inputs":[{"name":"journeyId","type":"bytes32","indexed":true,"internalType":"bytes32"},{"name":"sender","type":"address","indexed":true,"internalType":"address"},{"name":"refundedAmount","type":"uint256","indexed":false,"internalType":"uint256"}],"anonymous":false},{"type":"event","name":"JourneyCreated","inputs":[{"name":"journeyId","type":"bytes32","indexed":true,"internalType":"bytes32"},{"name":"sender","type":"address","indexed":true,"internalType":"address"},{"name":"receiver","type":"address","indexed":true,"internalType":"address"}],"anonymous":false},{"type":"event","name":"JourneyStatusUpdated","inputs":[{"name":"journeyId","type":"bytes32","indexed":true,"internalType":"bytes32"},{"name":"newStatus","type":"uint8","indexed":false,"internalType":"enum Ausys.JourneyStatus"}],"anonymous":false},{"type":"event","name":"NodeFeeDistributed","inputs":[{"name":"node","type":"address","indexed":true,"internalType":"address"},{"name":"amount","type":"uint256","indexed":false,"internalType":"uint256"}],"anonymous":false},{"type":"event","name":"OrderCreated","inputs":[{"name":"orderId","type":"bytes32","indexed":true,"internalType":"bytes32"},{"name":"buyer","type":"address","indexed":true,"internalType":"address"},{"name":"seller","type":"address","indexed":true,"internalType":"address"},{"name":"token","type":"address","indexed":false,"internalType":"address"},{"name":"tokenId","type":"uint256","indexed":false,"internalType":"uint256"},{"name":"tokenQuantity","type":"uint256","indexed":false,"internalType":"uint256"},{"name":"requestedTokenQuantity","type":"uint256","indexed":false,"internalType":"uint256"},{"name":"price","type":"uint256","indexed":false,"internalType":"uint256"},{"name":"txFee","type":"uint256","indexed":false,"internalType":"uint256"},{"name":"currentStatus","type":"uint8","indexed":false,"internalType":"uint8"},{"name":"nodes","type":"address[]","indexed":false,"internalType":"address[]"},{"name":"locationData","type":"tuple","indexed":false,"internalType":"struct Ausys.ParcelData","components":[{"name":"startLocation","type":"tuple","internalType":"struct Ausys.Location","components":[{"name":"lat","type":"string","internalType":"string"},{"name":"lng","type":"string","internalType":"string"}]},{"name":"endLocation","type":"tuple","internalType":"struct Ausys.Location","components":[{"name":"lat","type":"string","internalType":"string"},{"name":"lng","type":"string","internalType":"string"}]},{"name":"startName","type":"string","internalType":"string"},{"name":"endName","type":"string","internalType":"string"}]}],"anonymous":false},{"type":"event","name":"OrderSettled","inputs":[{"name":"orderId","type":"bytes32","indexed":true,"internalType":"bytes32"}],"anonymous":false},{"type":"event","name":"OrderStatusUpdated","inputs":[{"name":"orderId","type":"bytes32","indexed":true,"internalType":"bytes32"},{"name":"newStatus","type":"uint8","indexed":false,"internalType":"enum Ausys.OrderStatus"}],"anonymous":false},{"type":"event","name":"OwnershipTransferred","inputs":[{"name":"previousOwner","type":"address","indexed":true,"internalType":"address"},{"name":"newOwner","type":"address","indexed":true,"internalType":"address"}],"anonymous":false},{"type":"event","name":"RoleAdminChanged","inputs":[{"name":"role","type":"bytes32","indexed":true,"internalType":"bytes32"},{"name":"previousAdminRole","type":"bytes32","indexed":true,"internalType":"bytes32"},{"name":"newAdminRole","type":"bytes32","indexed":true,"internalType":"bytes32"}],"anonymous":false},{"type":"event","name":"RoleGranted","inputs":[{"name":"role","type":"bytes32","indexed":true,"internalType":"bytes32"},{"name":"account","type":"address","indexed":true,"internalType":"address"},{"name":"sender","type":"address","indexed":true,"internalType":"address"}],"anonymous":false},{"type":"event","name":"RoleRevoked","inputs":[{"name":"role","type":"bytes32","indexed":true,"internalType":"bytes32"},{"name":"account","type":"address","indexed":true,"internalType":"address"},{"name":"sender","type":"address","indexed":true,"internalType":"address"}],"anonymous":false},{"type":"event","name":"SellerPaid","inputs":[{"name":"seller","type":"address","indexed":true,"internalType":"address"},{"name":"amount","type":"uint256","indexed":false,"internalType":"uint256"}],"anonymous":false},{"type":"event","name":"emitSig","inputs":[{"name":"user","type":"address","indexed":true,"internalType":"address"},{"name":"id","type":"bytes32","indexed":true,"internalType":"bytes32"}],"anonymous":false},{"type":"error","name":"AlreadySettled","inputs":[]},{"type":"error","name":"DriverMaxAssignment","inputs":[]},{"type":"error","name":"DriverNotSigned","inputs":[]},{"type":"error","name":"InvalidAddress","inputs":[]},{"type":"error","name":"InvalidAmount","inputs":[]},{"type":"error","name":"InvalidCaller","inputs":[]},{"type":"error","name":"InvalidETA","inputs":[]},{"type":"error","name":"InvalidNode","inputs":[]},{"type":"error","name":"JourneyIncomplete","inputs":[]},{"type":"error","name":"JourneyNotInProgress","inputs":[]},{"type":"error","name":"JourneyNotPending","inputs":[]},{"type":"error","name":"NotJourneyParticipant","inputs":[]},{"type":"error","name":"ReceiverNotSigned","inputs":[]},{"type":"error","name":"RewardAlreadyPaid","inputs":[]},{"type":"error","name":"SenderNotSigned","inputs":[]}],"bytecode":{"object":"0x6080346101a957601f61517838819003918201601f19168301916001600160401b038311848410176101ad578084926020946040528339810103126101a957516001600160a01b038116908190036101a95760015f8181558154336001600160a01b0319821681179093556001600160a01b0316907f8be0079c531659141344cd1fd0a4f28419497f9722a3daafe3b4186f6b6457e09080a35f600e819055600f819055600380546001600160a01b031916929092179091553381525f5160206151385f395f51905f52602052604090205460ff161561016c575b335f9081525f5160206151585f395f51905f52602052604090205460ff161561010d575b604051614f5690816101c28239f35b335f8181525f5160206151585f395f51905f5260205260408120805460ff1916600117905581907fa49807205ce4d355092ef5a8a18f56e8913cf4a201fbe287825b095693c21775905f5160206151185f395f51905f529080a46100fe565b335f8181525f5160206151385f395f51905f5260205260408120805460ff1916600117905581905f5160206151185f395f51905f528180a46100da565b5f80fd5b634e487b7160e01b5f52604160045260245ffdfe6080806040526004361015610012575f80fd5b5f905f3560e01c90816301ffc9a71461414a5750806308ec38241461412d5780631319e7e1146140e85780631ba5c00f1461401b5780632372208414613fad578063248a9ca314613f7a578063260ff43d14613e4a5780632d34567014613dad5780632f2ff15d14613d0757806336568abe14613c7557806347aac09d14613c2c5780634a00787a14613aef5780635306bb14146138b157806356537593146138775780635778472a146135795780636d205a9114612cda5780636d94151c14612cb0578063704b6c0214612bdd578063715018a614612b8257806375b238fc14612b5b578063876244b614612a1d5780638da39f601461288a5780638da5cb5b1461286257806391d1485414612819578063982e2f98146127c15780639b21e582146127785780639c62a59a1461272f5780639d99e4181461222d5780639ef5aee9146121f2578063a217fddf146121d6578063a787248a146120ff578063acfd0a791461141c578063b696c54f146106ee578063bc197c8114610658578063bd58cea414610355578063be37442314610337578063d547741f146102f0578063f23a6e61146102965763f2fde38b146101cb575f80fd5b34610293576020366003190112610293576101e461446b565b6101ec61481c565b6001600160a01b0316801561023f57600180546001600160a01b0319811683179091556001600160a01b03167f8be0079c531659141344cd1fd0a4f28419497f9722a3daafe3b4186f6b6457e08380a380f35b60405162461bcd60e51b815260206004820152602660248201527f4f776e61626c653a206e6577206f776e657220697320746865207a65726f206160448201526564647265737360d01b6064820152608490fd5b80fd5b50346102935760a0366003190112610293576102b061446b565b506102b9614481565b506084356001600160401b0381116102ec576102d99036906004016144f5565b5060405163f23a6e6160e01b8152602090f35b5080fd5b503461029357604036600319011261029357610334600435610310614481565b9061032f61032a825f526002602052600160405f20015490565b6149c9565b614874565b80f35b50346102935780600319360112610293576020600f54604051908152f35b5034610293576020366003190112610293576004359081815260096020526040812060018060a01b03600782015460081c163314908115610641575b811561062a575b501561061b57818152600960205260ff6007604083200154166103ba81614438565b61060c576103c6614a0d565b8181526009602052604081209160018060a01b036009840154168252600b6020526040822081835260205260ff604083205416156105fd57600783019260018060a01b03845460081c1690818452600a6020526040842083855260205260ff604085205416156105ee57600a429101558252600a602052604082208183526020526040822060ff198154169055600160ff19845416178355807f1a75ca18929567ba294eca8af9f90a494f02cfce73c1492a390adf716a919592602060405160018152a280825260076020526040822054825260066020526040822060108101805460ff81166104b581614438565b156105a5575b5050835460078201546001600160a01b03908116929160081c168214610524575b50507f1a75ca18929567ba294eca8af9f90a494f02cfce73c1492a390adf716a919592602060ff60019554166040519061051581614438565b8152a255602060405160018152f35b60018060a01b03600182015416906003600282015491015492823b156105a1579161056c939186809460405196879586948593637921219560e11b8552309060048601614748565b03925af1801561059657610581575b806104dc565b61058c83809261425d565b6102ec575f61057b565b6040513d85823e3d90fd5b8580fd5b60019060ff1916179055818352600760205260408320547f7911d3e33ea22efc46a7d349370a83ab304c214048076037a23443e95da88ee1602060405160018152a25f806104bb565b634b2c075160e01b8452600484fd5b639651c94760e01b8252600482fd5b6396676d3f60e01b8152600490fd5b63166f401760e11b8152600490fd5b600801546001600160a01b0316331490505f610398565b60098101546001600160a01b031633149150610391565b50346102935760a03660031901126102935761067261446b565b5061067b614481565b506044356001600160401b0381116102ec5761069b90369060040161464c565b506064356001600160401b0381116102ec576106bb90369060040161464c565b506084356001600160401b0381116102ec576106db9036906004016144f5565b5060405163bc197c8160e01b8152602090f35b50346102935761010036600319011261029357610709614481565b6044356001600160a01b0381168103611418576064356001600160401b038111610d005761073b903690600401614593565b9060843560a4359060043586526006602052604086209160248760018060a01b0360045416604051928380926313a4120960e31b825260018060a01b038a1660048301525afa90811561140d5788916111e1575b50602001516006840180549092916001600160a01b0391909116906001600160f81b031916600160f81b1415806111ce575b6111bf573314158061118f575b61118057428111156111715760c43515611162577f4fbba82c7ac2d3085ee7a8b5f858464eef150708109bc1fe981b0956c76d93d59160209161080f614a61565b6040519861081c8a61420b565b895283890152604088018a90526001600160a01b0389811660608a015287811660808a015260a089018b905260c089018b905260e089018b90526101008901869052610120890191909152600354825461087d928792309282169116614a92565b546040519384526001600160a01b031692a2602083015185526009602052604085208351805180518051906001600160401b038211611008576108c085546141b7565b601f8111611132575b50602090601f83116001146110cd5760209392918b91836110c2575b50508160011b915f199060031b1c19161784555b01518051906001600160401b038211610ea557819061091b60018601546141b7565b601f811161108f575b50602090601f8311600114611027578a9261101c575b50508160011b915f199060031b1c19161760018301555b602081015180518051906001600160401b0382116110085761097660028601546141b7565b601f8111610fd5575b50602090601f8311600114610f6a5760209392918b9183610f5f575b50508160011b915f199060031b1c19161760028501555b01518051906001600160401b038211610ea55781906109d460038601546141b7565b601f8111610f2c575b50602090601f8311600114610ec4578a92610eb9575b50508160011b915f199060031b1c19161760038301555b60408101518051906001600160401b038211610ea557610a2d60048501546141b7565b601f8111610e72575b50602090601f8311600114610e075760609392918a9183610dfc575b50508160011b915f199060031b1c19161760048401555b01518051906001600160401b038211610de857908291610a8e60058a969501546141b7565b601f8111610daa575b50602090601f8311600114610d3c5785919083610d31575b50508160011b915f199060031b1c19161760058201555b6020850151600682015560078101610aeb6040870151610ae581614438565b82614730565b60608601518154610100600160a81b031916600891821b610100600160a81b031617909155608086015182820180546001600160a01b03199081166001600160a01b039384161790915560a0880151600985018054909216921691909117905560c0860151600a83015560e0860151600b830155610100860151600c830155610120860151600d909201919091556004358352600660209081526040842090860151610b99929091016146a9565b6004358252600660205260ff601060408420015416610bb781614438565b15610d13575b60208401518252600760205260043560408320556004358252600660205260018060a01b036001604084200154169060405191610bf983614242565b8252602082019160e435835260408101848152606082019085825260018060a01b036004541693600760018060a01b039101541690843b15610d0f5760405163e896eacb60e01b8152600481019290925292516001600160a01b03166024820152935160448501529051606484015251608483015260c4803560a48401528391839190829084905af18015610d0457610ceb575b505060209060043585526006825260036040862001610caf60c435825461478c565b90559101516001600160a01b0391821692909116907fe95fbbb47c61a66e1d1014871befe16b0a21eb24fa7c69a23eb47619fa0fdf938480a480f35b81610cf59161425d565b610d0057835f610c8d565b8380fd5b6040513d84823e3d90fd5b8680fd5b6004358252600660205260408220601001805460ff19169055610bbd565b015190505f80610aaf565b9060058401865280862091865b601f1985168110610d8f575090839291600194601f19811610610d77575b505050811b016005820155610ac6565b01515f1960f88460031b161c191690555f8080610d67565b8183015184558b975060019093019260209283019201610d49565b610dd89060058501875260208720601f850160051c81019160208610610dde575b601f0160051c019061471a565b5f610a97565b9091508190610dcb565b634e487b7160e01b88526041600452602488fd5b015190505f80610a52565b600485018a52818a209190601f1984168b5b818110610e5a5750916001939185606097969410610e42575b505050811b016004840155610a69565b01515f1960f88460031b161c191690555f8080610e32565b92936020600181928786015181550195019301610e19565b610e9f90600486018b5260208b20601f850160051c81019160208610610dde57601f0160051c019061471a565b5f610a36565b634e487b7160e01b89526041600452602489fd5b015190505f806109f3565b600386018b52818b209250601f1984168b5b818110610f145750908460019594939210610efc575b505050811b016003830155610a0a565b01515f1960f88460031b161c191690555f8080610eec565b92936020600181928786015181550195019301610ed6565b610f5990600387018c5260208c20601f850160051c81019160208610610dde57601f0160051c019061471a565b5f6109dd565b015190505f8061099b565b600286018b52818b209190601f1984168c5b818110610fbd5750916001939185602097969410610fa5575b505050811b0160028501556109b2565b01515f1960f88460031b161c191690555f8080610f95565b92936020600181928786015181550195019301610f7c565b61100290600287018c5260208c20601f850160051c81019160208610610dde57601f0160051c019061471a565b5f61097f565b634e487b7160e01b8a52604160045260248afd5b015190505f8061093a565b600186018b52818b209250601f1984168b5b818110611077575090846001959493921061105f575b505050811b016001830155610951565b01515f1960f88460031b161c191690555f808061104f565b92936020600181928786015181550195019301611039565b6110bc90600187018c5260208c20601f850160051c81019160208610610dde57601f0160051c019061471a565b5f610924565b015190505f806108e5565b858b52818b209190601f1984168c5b81811061111a5750916001939185602097969410611102575b505050811b0184556108f9565b01515f1960f88460031b161c191690555f80806110f5565b929360206001819287860151815501950193016110dc565b61115c90868c5260208c20601f850160051c81019160208610610dde57601f0160051c019061471a565b5f6108c9565b63162908e360e11b8852600488fd5b630a00ec8b60e31b8852600488fd5b6348f5c3ed60e01b8852600488fd5b505f516020614f015f395f51905f528852600260209081526040808a20335f908152925290205460ff16156107ce565b63184096a160e11b8952600489fd5b506001600160a01b0386168114156107c1565b90503d8089833e6111f2818361425d565b810190602081830312611405578051906001600160401b038211611409570160a081830312611405576040519160a083018381106001600160401b038211176113f15760405281516001600160401b0381116113e55782016040818303126113e5576040519061126182614227565b80516001600160401b0381116113ed578361127d9183016147ad565b82526020810151906001600160401b0382116113ed57016040818403126113e957604051906112ab82614227565b80516001600160401b0381116113e157846112c79183016147ad565b82526020810151906001600160401b0382116113e1576112e9918591016147ad565b602082015260208201528352611301602083016147f3565b602084015261131260408301614808565b604084015260608201516001600160401b0381116113e557820181601f820112156113e55780519061134382614635565b92611351604051948561425d565b82845260208085019360071b830101918183116113e157602001925b82841061139457505050506060830152611389906080016147f3565b60808201525f61078f565b6080848303126113e15760206080916040516113af81614242565b6113b887614808565b81528287015183820152604087015160408201526060870151606082015281520193019261136d565b8d80fd5b8a80fd5b8b80fd5b8c80fd5b634e487b7160e01b8b52604160045260248bfd5b8880fd5b8980fd5b6040513d8a823e3d90fd5b8280fd5b503461029357602036600319011261029357600435906001600160401b038211610293576101a06003198336030112610293576040519061145c826141ef565b8260040135825261146f60248401614497565b602083019081526040830192604485013584526060810160648601358152608082016084870135815260a083019560a488013587526114b060c48901614497565b9360c081019485526114c460e48a01614497565b9460e082019586526101048a01356001600160401b038111611405578a019036602383011215611405576004820135916114fd83614635565b9261150b604051948561425d565b808452602060048186019260051b84010101913683116113e957602401905b8282106120ef5750505061010083019182526101248b01356001600160401b038111611409578b0192366023850112156114095760048401359361156d85614635565b9461157b604051968761425d565b808652602060048188019260051b84010101913683116113ed57602401905b8282106120d75750505061012081019384526101448c01356001600160401b0381116113e5578c60046115d09236920101614593565b9b61014082019c8d526101648101359360048510156113e957610160830194855261018461018084019201358252611606614a0d565b83516001600160a01b03161580156120c5575b80156120b3575b6120a4578751156120955783518a516001600160a01b039081169116146120a45788511561209557600f54600181018091116120815780600f55604051602081019182526020815261167360408261425d565b5190209c8d8d52600660205260408d209351845560018060a01b038c5116600185019060018060a01b03166001600160601b0360a01b82541617905587516002850155895160038501558851600485015551600584015560018060a01b03845116600684019060018060a01b03166001600160601b0360a01b82541617905560018060a01b038a5116600784019060018060a01b03166001600160601b0360a01b825416179055600883019051908151916001600160401b038311611cbd57600160401b8311611cbd578154838355838f828210612057575b505050602001908d5260208d208d5b8381106120435750505050600982018551908151916001600160401b038311611cbd57600160401b8311611cbd576020908e835485855585818110612028575b50505001908d5260208d208d5b83811061200b5750505050600a8201908d519182519081518051906001600160401b038211611ebc578f82916117de85546141b7565b601f8111611fdb575b50602091601f8411600114611f795792611f6e575b50508160011b915f199060031b1c19161790555b602001518051600b8501916001600160401b038211611d6e578e829161183685546141b7565b601f8111611f3e575b50602091601f8411600114611edc5792611ed1575b50508160011b915f199060031b1c19161790555b602082015180518051600c8601916001600160401b038211611ebc578f829161189185546141b7565b601f8111611e8c575b50602091601f8411600114611e2a5792611e1f575b50508160011b915f199060031b1c19161790555b602001518051600d8501916001600160401b038211611d6e578e82916118e985546141b7565b601f8111611def575b50602091601f8411600114611d8d5792611d82575b50508160011b915f199060031b1c19161790555b600e830160408301518051906001600160401b038211611d6e578e829161194285546141b7565b601f8111611d3e575b50602091601f8411600114611cdc5792611cd1575b50508160011b915f199060031b1c19161790555b6060600f84019201519182516001600160401b038111611cbd578d61199983546141b7565b601f8111611c8d575b50508d602090601f8311600114611c25579060119583611c1a575b50508160011b915f199060031b1c19161790555b6119e885516119df81614438565b60108501614730565b519101558989526006602052601060408a200160ff19815416905589895260066020528960408a205584518060011b9080820460021490151715611c06576064908b8b52600660205204600560408b200155600554600160401b8110156110085790897f4fbba82c7ac2d3085ee7a8b5f858464eef150708109bc1fe981b0956c76d93d56020611aff8e80611aa2611a8c89600160ff9d9c9b016005556005614456565b819391549060031b91821b915f19901b19161790565b905560035486518c51838852600686526040882060050154611ade936001600160a01b03938416931691611ad6919061478c565b913091614a92565b6005604060018060a01b03885116968d51938152600686522001549061478c565b604051908152a251965197519351955194518a8a52600660205260408a206005015491516001600160a01b03998a1699988916989095169492611b4184614438565b611b4a84614438565b519b519560405197610120890196895260208901528060408901526060880152608087015260a08601521660c084015261012060e0840152875180915260206101408401980190865b818110611be7575050507fb1cec21eede76af4e5554de2e170ba032c4000e4f81414b2d53a5d76eebc27b98280611bdb8a8a9560019a99989760209d036101008501526143e4565b0390a455604051908152f35b82516001600160a01b03168a526020998a019990920191600101611b93565b634e487b7160e01b8a52601160045260248afd5b015190505f806119bd565b91929394601f198416858452828420935b818110611c75575091600193918560119897969410611c5d575b505050811b0190556119d1565b01515f1960f88460031b161c191690555f8080611c50565b92936020600181928786015181550195019301611c36565b60208285611cb6945220601f840160051c81019160208510610dde57601f0160051c019061471a565b8d5f6119a2565b634e487b7160e01b8e52604160045260248efd5b015190505f80611960565b8581528281209350601f198516905b818110611d265750908460019594939210611d0e575b505050811b019055611974565b01515f1960f88460031b161c191690555f8080611d01565b92936020600181928786015181550195019301611ceb565b611d689086845260208420601f860160051c81019160208710610dde57601f0160051c019061471a565b5f61194b565b634e487b7160e01b8f52604160045260248ffd5b015190505f80611907565b8581528281209350601f198516905b818110611dd75750908460019594939210611dbf575b505050811b01905561191b565b01515f1960f88460031b161c191690555f8080611db2565b92936020600181928786015181550195019301611d9c565b611e199086845260208420601f860160051c81019160208710610dde57601f0160051c019061471a565b5f6118f2565b015190505f806118af565b8581528281209350601f198516905b818110611e745750908460019594939210611e5c575b505050811b0190556118c3565b01515f1960f88460031b161c191690555f8080611e4f565b92936020600181928786015181550195019301611e39565b611eb69086845260208420601f860160051c81019160208710610dde57601f0160051c019061471a565b5f61189a565b50634e487b7160e01b8f52604160045260248ffd5b015190505f80611854565b8581528281209350601f198516905b818110611f265750908460019594939210611f0e575b505050811b019055611868565b01515f1960f88460031b161c191690555f8080611f01565b92936020600181928786015181550195019301611eeb565b611f689086845260208420601f860160051c81019160208710610dde57601f0160051c019061471a565b5f61183f565b015190505f806117fc565b8581528281209350601f198516905b818110611fc35750908460019594939210611fab575b505050811b019055611810565b01515f1960f88460031b161c191690555f8080611f9e565b92936020600181928786015181550195019301611f88565b6120059086845260208420601f860160051c81019160208710610dde57601f0160051c019061471a565b5f6117e7565b82516001600160a01b0316818301556020909201916001016117a8565b84838761203b955220918201910161471a565b8e5f8561179b565b60019060208451940193818401550161175b565b8481526020812092830192860191505b8282106120765785915061174c565b81556001018f612067565b634e487b7160e01b8d52601160045260248dfd5b63162908e360e11b8c5260048cfd5b63e6c4247b60e01b8c5260048cfd5b508a516001600160a01b031615611620565b5089516001600160a01b031615611619565b602080916120e484614497565b81520191019061159a565b813581526020918201910161152a565b5034610293576020366003190112610293576040906004358152600660205220805460018060a01b036001830154169160028101546121bc60038301546004840154600585015460018060a01b036006870154169060018060a01b036007880154169261216e600a890161434a565b94601160ff60108b015416990154976040519b8c9b8c5260208c015260408b015260608a0152608089015260a088015260c087015260e08601526101606101008601526101608501906143e4565b916121c681614438565b6101208401526101408301520390f35b5034610293578060031936011261029357602090604051908152f35b503461029357806003193601126102935760206040517ffbd38eecf51668fdbc772b204dc63dd28c3a3cf32e3025f52a80aa807359f50c8152f35b50346126955760203660031901126126955760043590815f526009602052600160ff600760405f2001541661226181614438565b0361272057815f52600960205260405f2060018060a01b03600782015460081c163314908115612709575b81156126f2575b50156126e3576122a1614a0d565b815f52600960205260405f2091805f52600760205260405f20545f52600660205260405f20926010840190600260ff8354166122dc81614438565b146126d55760018060a01b036009820154165f52600c60205260405f20835f5260205260ff60405f205416156126c657600881019060018060a01b038254165f52600a60205260405f20845f5260205260ff60405f205416156126b75760078101600260ff19825416179055600b42910155827f1a75ca18929567ba294eca8af9f90a494f02cfce73c1492a390adf716a919592602060405160028152a2825f526009602052600260ff600760405f2001541661239881614438565b036126a857825f52600d60205260ff60405f205416612699575f838152600d60209081526040808320805460ff1916600117905560099182905290912060035491810154600c909101546123fa9290916001600160a01b039081169116614adb565b5460068501546001600160a01b039081169291168214612424575b60018455602060405160018152f35b600260ff19825416179055815f52600760205260405f20547f7911d3e33ea22efc46a7d349370a83ab304c214048076037a23443e95da88ee1602060405160028152a26001840154600285015460038601549092916001600160a01b0316803b15612695576124ae935f809460405196879586948593637921219560e11b85523060048601614748565b03925af1801561268a57612675575b5060018060a01b03600354167fcb4a9094da4df77fb2c0dbaa5047660b1237e61d82a02176c1be74ca757f253160206007860161250b60018060a01b03825416946004890195865491614adb565b5492546040519081526001600160a01b0390931692a2600983018054908115948515612571575b505050600192508152600760205260408120547fd4250d6114a611e75d68b1c6f14c61e967863d8ac20bc8ebfa4e5f28f66473668280a25f8080612415565b60050154946126615781850482810281810484148215171561264d57860395861161263957600195855b8481106125a9575050612532565b879080612630576125bb835b8561478c565b6125e781848060a01b03600354166125d3858a614456565b878060a01b0391549060031b1c1690614adb565b7f03dec068f82c9920a9e652806929c04dfb2e80a427660a62537e21d1997ef73160206126148489614456565b868060a01b0391549060031b1c1692604051908152a20161259b565b6125bb886125b5565b634e487b7160e01b85526011600452602485fd5b634e487b7160e01b86526011600452602486fd5b634e487b7160e01b84526012600452602484fd5b6126829192505f9061425d565b5f905f6124bd565b6040513d5f823e3d90fd5b5f80fd5b6302cc018560e31b5f5260045ffd5b63f6a1628360e01b5f5260045ffd5b6302693de160e11b5f5260045ffd5b639651c94760e01b5f5260045ffd5b62560ff960e81b5f5260045ffd5b63166f401760e11b5f5260045ffd5b600801546001600160a01b0316331490505f612293565b60098101546001600160a01b03163314915061228c565b636a6a451560e11b5f5260045ffd5b34612695576040366003190112612695576001600160a01b0361275061446b565b165f52600b60205260405f206024355f52602052602060ff60405f2054166040519015158152f35b34612695576040366003190112612695576001600160a01b0361279961446b565b165f52600a60205260405f206024355f52602052602060ff60405f2054166040519015158152f35b34612695576040366003190112612695576127da61446b565b6001600160a01b03165f908152600860205260409020805460243591908210156126955760209161280a91614456565b90549060031b1c604051908152f35b3461269557604036600319011261269557612832614481565b6004355f52600260205260405f209060018060a01b03165f52602052602060ff60405f2054166040519015158152f35b34612695575f366003190112612695576001546040516001600160a01b039091168152602090f35b34612695576020366003190112612695575f6101206040516128ab8161420b565b6128b36146e8565b81528260208201528260408201528260608201528260808201528260a08201528260c08201528260e08201528261010082015201526004355f5260096020526129c660405f20604051906129068261420b565b61290f8161434a565b825260068101546020830190815260078201549091604084019160ff811661293681614438565b8352606085019060018060a01b039060081c16815260018060a01b036008830154166080860190815260018060a01b0360098401541660a08701908152600a8401549160c08801928352600b8501549360e08901948552600d600c870154966101008b019788520154966101208a019788526040519a8b9a60208c525161014060208d01526101608c01906143e4565b985160408b0152516129d781614438565b60608a0152516001600160a01b0390811660808a01529051811660a089015290511660c08701525160e08601525161010085015251610120840152516101408301520390f35b3461269557612a2b366144ab565b612a336148e2565b15612acc576001600160a01b0381165f9081525f516020614ee15f395f51905f52602052604090205460ff1615612a67575b005b6001600160a01b03165f8181525f516020614ee15f395f51905f5260205260408120805460ff191660011790553391907ffbd38eecf51668fdbc772b204dc63dd28c3a3cf32e3025f52a80aa807359f50c905f516020614e615f395f51905f529080a4005b6001600160a01b0381165f9081525f516020614ee15f395f51905f52602052604090205460ff16612af957005b6001600160a01b03165f8181525f516020614ee15f395f51905f5260205260408120805460ff191690553391907ffbd38eecf51668fdbc772b204dc63dd28c3a3cf32e3025f52a80aa807359f50c905f516020614e815f395f51905f529080a4005b34612695575f3660031901126126955760206040515f516020614f015f395f51905f528152f35b34612695575f36600319011261269557612b9a61481c565b600180546001600160a01b031981169091555f906001600160a01b03167f8be0079c531659141344cd1fd0a4f28419497f9722a3daafe3b4186f6b6457e08280a3005b3461269557602036600319011261269557612bf661446b565b612bfe61481c565b6001600160a01b0381165f9081525f516020614ea15f395f51905f52602052604090205460ff1615612c5a575b6001600160a01b03167f8fe72c3e0020beb3234e76ae6676fa576fbfcae600af1c4fea44784cf0db329c5f80a2005b6001600160a01b0381165f8181525f516020614ea15f395f51905f5260205260408120805460ff191660011790553391905f516020614f015f395f51905f52905f516020614e615f395f51905f529080a4612c2b565b34612695576020366003190112612695576004355f526007602052602060405f2054604051908152f35b346126955760a036600319011261269557612cf361446b565b612cfb614481565b6044356001600160401b03811161269557612d1a903690600401614593565b90608435612d26614a0d565b336001600160a01b038316141580613554575b613545576001600160a01b038416158015613534575b6135255760643515613516574281111561350757612d6b614a61565b60405193612d788561420b565b845260208085018290525f60408087018290526001600160a01b0388811660608901528616608088015260a0870182905260c0870182905260e0870182905260643561010088015261012087019490945291825260099052208251805180518051906001600160401b0382116131cf578190612df486546141b7565b601f81116134d7575b50602090601f8311600114613474575f92613469575b50508160011b915f199060031b1c19161783555b60200151805160018401916001600160401b0382116131cf578190612e4c84546141b7565b601f8111613439575b50602090601f83116001146133d6575f926133cb575b50508160011b915f199060031b1c19161790555b60208101518051805160028501916001600160401b0382116131cf578190612ea784546141b7565b601f811161339b575b50602090601f8311600114613338575f9261332d575b50508160011b915f199060031b1c19161790555b60200151805160038401916001600160401b0382116131cf578190612eff84546141b7565b601f81116132fd575b50602090601f831160011461329a575f9261328f575b50508160011b915f199060031b1c19161790555b60408101518051906001600160401b0382116131cf57612f5560048501546141b7565b601f811161325c575b50602090601f83116001146131ee5760609392915f91836131e3575b50508160011b915f199060031b1c19161760048401555b01518051906001600160401b0382116131cf57612fb160058401546141b7565b601f811161319c575b50602090601f831160011461312d576020949392915f9183613122575b50508160011b915f199060031b1c19161760058201555b8284015160068201556007810161300c6040860151610ae581614438565b60608501518154610100600160a81b031916600891821b610100600160a81b031617909155608085015190820180546001600160a01b03199081166001600160a01b039384161790915560a086015160098401805490921690831617905560c0850151600a83015560e0850151600b830155610100850151600c830155610120850151600d909201919091556003546130ad91606435913091859116614a92565b60405160643581526001600160a01b038216907f4fbba82c7ac2d3085ee7a8b5f858464eef150708109bc1fe981b0956c76d93d5908490a29101516001600160a01b0391821692909116907fe95fbbb47c61a66e1d1014871befe16b0a21eb24fa7c69a23eb47619fa0fdf935f80a460015f55005b015190508780612fd7565b90600584015f52805f20915f5b601f198516811061318457509183916001936020979695601f1981161061316c575b505050811b016005820155612fee565b01515f1960f88460031b161c1916905587808061315c565b9192602060018192868501518155019401920161313a565b6131c990600585015f5260205f20601f850160051c81019160208610610dde57601f0160051c019061471a565b86612fba565b634e487b7160e01b5f52604160045260245ffd5b015190508880612f7a565b90600485015f52805f20915f5b601f1985168110613244575091839160019360609695601f1981161061322c575b505050811b016004840155612f91565b01515f1960f88460031b161c1916905588808061321c565b919260206001819286850151815501940192016131fb565b61328990600486015f5260205f20601f850160051c81019160208610610dde57601f0160051c019061471a565b87612f5e565b015190508880612f1e565b5f8581528281209350601f198516905b8181106132e557509084600195949392106132cd575b505050811b019055612f32565b01515f1960f88460031b161c191690558880806132c0565b929360206001819287860151815501950193016132aa565b61332790855f5260205f20601f850160051c81019160208610610dde57601f0160051c019061471a565b89612f08565b015190508980612ec6565b5f8581528281209350601f198516905b818110613383575090846001959493921061336b575b505050811b019055612eda565b01515f1960f88460031b161c1916905589808061335e565b92936020600181928786015181550195019301613348565b6133c590855f5260205f20601f850160051c81019160208610610dde57601f0160051c019061471a565b8a612eb0565b015190508880612e6b565b5f8581528281209350601f198516905b8181106134215750908460019594939210613409575b505050811b019055612e7f565b01515f1960f88460031b161c191690558880806133fc565b929360206001819287860151815501950193016133e6565b61346390855f5260205f20601f850160051c81019160208610610dde57601f0160051c019061471a565b89612e55565b015190508880612e13565b5f8781528281209350601f198516905b8181106134bf57509084600195949392106134a7575b505050811b018355612e27565b01515f1960f88460031b161c1916905588808061349a565b92936020600181928786015181550195019301613484565b61350190875f5260205f20601f850160051c81019160208610610dde57601f0160051c019061471a565b89612dfd565b630a00ec8b60e31b5f5260045ffd5b63162908e360e11b5f5260045ffd5b63e6c4247b60e01b5f5260045ffd5b506001600160a01b03821615612d4f565b6348f5c3ed60e01b5f5260045ffd5b50335f9081525f516020614ea15f395f51905f52602052604090205460ff1615612d39565b34612695576020366003190112612695575f61018060405161359a816141ef565b8281528260208201528260408201528260608201528260808201528260a08201528260c08201528260e0820152606061010082015260606101208201526135df6146e8565b6101408201528261016082015201526004355f52600660205260405f20604051613608816141ef565b8154815260018060a01b03600183015416602082019081526002830154604083019081526003840154936060840194855260048101549460808501958652600582015460a0860190815260018060a01b0360068401541660c0870190815260018060a01b036007850154169060e088019182526008850192604051808560208297549384815201905f5260205f20925f5b81811061385e5750506136ae9250038561425d565b61010089019384526009860199604051958660208d5491828152019c5f5260205f20905f5b81811061383f575050506136ed878c9d9c9b9c038861425d565b6101208a019687526011613703600a8a0161434a565b986101408c01998a5261016060ff6010830154169c019b61372381614438565b8c5201546101808d019081526040805160208082529e518f8201529c516001600160a01b03908116918e0191909152995160608d0152905160808c0152905160a08b0152905160c08a01529051861660e08901529051909416610100870152516101a061012087015280516101c087018190526101e087019791909101905f5b818110613829575050505194601f1985820301610140860152602080875192838152019601905f5b81811061380a5750505083946137ee9151601f19868303016101608701526143e4565b91516137f981614438565b610180840152516101a08301520390f35b82516001600160a01b03168852602097880197909201916001016137cb565b82518952602098890198909201916001016137a3565b82546001600160a01b03168f526020909e019d600192830192016136d3565b8454835260019485019489945060209093019201613699565b34612695575f3660031901126126955760206040517f469f0a0947cf59c7d944c91c6f4c13c396753b8abf0036156a8c6b0c02fdc02e8152f35b3461269557602036600319011261269557600435805f52600960205260405f2060018060a01b03600782015460081c163314908115613ad8575b8115613ac1575b50156126e3575f81815260096020526040902060078101805490919033600882901c6001600160a01b03160361398457505060018060a01b03815460081c165f52600a60205260405f20825f5260205260405f20600160ff1982541617905560018060a01b03905460081c167fe9247524c4b37258acdda748f6d6c3de00c21bbe007405d32404851e082508b35f80a3005b909150600882019160018060a01b0383541633145f146139fa57505080546001600160a01b039081165f908152600a602090815260408083208684529091528120805460ff19166001179055915416907fe9247524c4b37258acdda748f6d6c3de00c21bbe007405d32404851e082508b39080a3005b60090180549092506001600160a01b031690338214613a1557005b60ff16613a2181614438565b80613a8357505060018060a01b038154165f52600b60205260405f20825f5260205260405f20600160ff198254161790555b546001600160a01b03167fe9247524c4b37258acdda748f6d6c3de00c21bbe007405d32404851e082508b35f80a3005b600190613a8f81614438565b14613a9b575b50613a53565b5f52600c60205260405f20825f5260205260405f20600160ff1982541617905582613a95565b600801546001600160a01b031633149050826138f2565b60098101546001600160a01b0316331491506138eb565b3461269557613afd366144ab565b613b056148e2565b15613b9d576001600160a01b0381165f9081525f516020614ec15f395f51905f52602052604090205460ff1615613b3857005b6001600160a01b03165f8181525f516020614ec15f395f51905f5260205260408120805460ff191660011790553391907f469f0a0947cf59c7d944c91c6f4c13c396753b8abf0036156a8c6b0c02fdc02e905f516020614e615f395f51905f529080a4005b6001600160a01b0381165f9081525f516020614ec15f395f51905f52602052604090205460ff16613bca57005b6001600160a01b03165f8181525f516020614ec15f395f51905f5260205260408120805460ff191690553391907f469f0a0947cf59c7d944c91c6f4c13c396753b8abf0036156a8c6b0c02fdc02e905f516020614e815f395f51905f529080a4005b34612695576040366003190112612695576001600160a01b03613c4d61446b565b165f52600c60205260405f206024355f52602052602060ff60405f2054166040519015158152f35b3461269557604036600319011261269557613c8e614481565b336001600160a01b03821603613caa57612a6590600435614874565b60405162461bcd60e51b815260206004820152602f60248201527f416363657373436f6e74726f6c3a2063616e206f6e6c792072656e6f756e636560448201526e103937b632b9903337b91039b2b63360891b6064820152608490fd5b3461269557604036600319011261269557600435613d23614481565b90613d3d61032a825f526002602052600160405f20015490565b805f52600260205260405f2060018060a01b0383165f5260205260ff60405f20541615613d6657005b5f8181526002602090815260408083206001600160a01b0395909516808452949091528120805460ff19166001179055339291905f516020614e615f395f51905f529080a4005b3461269557602036600319011261269557613dc661446b565b613dce61481c565b6001600160a01b0381165f9081525f516020614ea15f395f51905f52602052604090205460ff16613dfb57005b6001600160a01b03165f8181525f516020614ea15f395f51905f5260205260408120805460ff191690553391905f516020614f015f395f51905f52905f516020614e815f395f51905f529080a4005b3461269557604036600319011261269557613e6361446b565b6001600160a01b0381165f9081525f516020614ec15f395f51905f526020526040902054602435919060ff1615613545576001600160a01b03163381148015613f56575b8015613f33575b1561354557805f526008602052600a60405f20541015613f2457805f526008602052613edd8260405f206146a9565b815f526009602052600960405f2001816001600160601b0360a01b8254161790557f1c9db0488564f25a3f5a31d9c8d0d9b7bc3ec8897ba83dba0511987c1b8cb9a75f80a3005b63d539116760e01b5f5260045ffd5b50815f52600960205260018060a01b03600760405f20015460081c163314613eae565b50335f9081525f516020614ee15f395f51905f52602052604090205460ff16613ea7565b34612695576020366003190112612695576020613fa56004355f526002602052600160405f20015490565b604051908152f35b3461269557602036600319011261269557600435600554811015612695576005548110156140075760055f527f036b6384b5eca791c62761152d0c79bb0604c104a5fb6f4eb0703f3154bb3db00154604051908152602090f35b634e487b7160e01b5f52603260045260245ffd5b34612695576020366003190112612695576004355f52600960205261409f60405f206140468161434a565b9060068101549060078101549060ff82169160018060a01b0360088301541660018060a01b03600984015416600a84015491600b85015493600d600c870154960154966040519a8b9a6101408c526101408c01906143e4565b9860208b01526140ae81614438565b60408a015260081c6001600160a01b03166060890152608088015260a087015260c086015260e08501526101008401526101208301520390f35b34612695576020366003190112612695576004356001600160a01b038116908190036126955761411661481c565b6001600160601b0360a01b60045416176004555f80f35b34612695575f366003190112612695576020600e54604051908152f35b34612695576020366003190112612695576004359063ffffffff60e01b821680920361269557602091637965db0b60e01b811490811561418c575b5015158152f35b630271189760e51b8114915081156141a6575b5083614185565b6301ffc9a760e01b1490508361419f565b90600182811c921680156141e5575b60208310146141d157565b634e487b7160e01b5f52602260045260245ffd5b91607f16916141c6565b6101a081019081106001600160401b038211176131cf57604052565b61014081019081106001600160401b038211176131cf57604052565b604081019081106001600160401b038211176131cf57604052565b608081019081106001600160401b038211176131cf57604052565b90601f801991011681019081106001600160401b038211176131cf57604052565b9060405191825f825492614291846141b7565b80845293600181169081156142fc57506001146142b8575b506142b69250038361425d565b565b90505f9291925260205f20905f915b8183106142e05750509060206142b6928201015f6142a9565b60209193508060019154838589010152019101909184926142c7565b9050602092506142b694915060ff191682840152151560051b8201015f6142a9565b9060405161432b81614227565b60206143456001839561433d8161427e565b85520161427e565b910152565b9060405161435781614242565b6060614345600583956143698161431e565b85526143776002820161431e565b60208601526143886004820161427e565b60408601520161427e565b805180835260209291819084018484015e5f828201840152601f01601f1916010190565b6143e19160206143d08351604084526040840190614393565b920151906020818403910152614393565b90565b6143e191606061442761441561440385516080865260808601906143b7565b602086015185820360208701526143b7565b60408501518482036040860152614393565b920151906060818403910152614393565b6004111561444257565b634e487b7160e01b5f52602160045260245ffd5b8054821015614007575f5260205f2001905f90565b600435906001600160a01b038216820361269557565b602435906001600160a01b038216820361269557565b35906001600160a01b038216820361269557565b6040906003190112612695576004356001600160a01b0381168103612695579060243580151581036126955790565b6001600160401b0381116131cf57601f01601f191660200190565b81601f820112156126955760208135910161450f826144da565b9261451d604051948561425d565b8284528282011161269557815f92602092838601378301015290565b9190604083820312612695576040519061455282614227565b819380356001600160401b03811161269557826145709183016144f5565b83526020810135916001600160401b0383116126955760209261434592016144f5565b919060808382031261269557604051906145ac82614242565b819380356001600160401b03811161269557826145ca918301614539565b835260208101356001600160401b03811161269557826145eb918301614539565b602084015260408101356001600160401b038111612695578261460f9183016144f5565b60408401526060810135916001600160401b0383116126955760609261434592016144f5565b6001600160401b0381116131cf5760051b60200190565b9080601f8301121561269557813561466381614635565b92614671604051948561425d565b81845260208085019260051b82010192831161269557602001905b8282106146995750505090565b813581526020918201910161468c565b805490600160401b8210156131cf5781611a8c9160016146cb94018155614456565b9055565b604051906146dc82614227565b60606020838281520152565b604051906146f582614242565b606080836147016146cf565b815261470b6146cf565b60208201528160408201520152565b818110614725575050565b5f815560010161471a565b9061473a81614438565b60ff80198354169116179055565b6001600160a01b039182168152911660208201526040810191909152606081019190915260a06080820181905260029082015261060f60f31b60c082015260e00190565b9190820180921161479957565b634e487b7160e01b5f52601160045260245ffd5b81601f82011215612695578051906147c4826144da565b926147d2604051948561425d565b8284526020838301011161269557815f9260208093018386015e8301015290565b51906001600160f81b03198216820361269557565b51906001600160a01b038216820361269557565b6001546001600160a01b0316330361483057565b606460405162461bcd60e51b815260206004820152602060248201527f4f776e61626c653a2063616c6c6572206973206e6f7420746865206f776e65726044820152fd5b805f52600260205260405f2060018060a01b0383165f5260205260ff60405f20541661489e575050565b5f8181526002602090815260408083206001600160a01b0395909516808452949091528120805460ff19169055339291905f516020614e815f395f51905f529080a4565b335f9081525f516020614ea15f395f51905f52602052604090205460ff161561490757565b6149c560206149a5601161491a33614c3f565b6037846149335f516020614f015f395f51905f52614d25565b6040519687947f416363657373436f6e74726f6c3a206163636f756e7420000000000000000000828701528051918291018587015e8401907001034b99036b4b9b9b4b733903937b6329607d1b84830152805192839101604883015e01015f838201520301601f19810183528261425d565b60405162461bcd60e51b8152602060048201529182916024830190614393565b0390fd5b5f81815260026020908152604080832033845290915290205460ff16156149ed5750565b60206149a560116149c593603784614933614a0733614c3f565b93614d25565b60025f5414614a1c5760025f55565b60405162461bcd60e51b815260206004820152601f60248201527f5265656e7472616e637947756172643a207265656e7472616e742063616c6c006044820152606490fd5b600e54600181018091116147995780600e556040516020810191825260208152614a8c60408261425d565b51902090565b6040516323b872dd60e01b60208201526001600160a01b0392831660248201529290911660448301526064808301939093529181526142b691614ad660848361425d565b614b16565b60405163a9059cbb60e01b60208201526001600160a01b0390921660248301526044808301939093529181526142b691614ad660648361425d565b90614b959160018060a01b03165f8060405193614b3460408661425d565b602085527f5361666545524332303a206c6f772d6c6576656c2063616c6c206661696c6564602086015260208151910182855af13d15614c26573d91614b79836144da565b92614b87604051948561425d565b83523d5f602085013e614dc7565b8051908115918215614c03575b505015614bab57565b60405162461bcd60e51b815260206004820152602a60248201527f5361666545524332303a204552433230206f7065726174696f6e20646964206e6044820152691bdd081cdd58d8d9595960b21b6064820152608490fd5b819250906020918101031261269557602001518015158103612695575f80614ba2565b606091614dc7565b908151811015614007570160200190565b614c49602a6144da565b90614c57604051928361425d565b602a8252614c65602a6144da565b6020830190601f19013682378251156140075760309053815160011015614007576078602183015360295b60018111614ce45750614ca05790565b606460405162461bcd60e51b815260206004820152602060248201527f537472696e67733a20686578206c656e67746820696e73756666696369656e746044820152fd5b90600f81166010811015614007576f181899199a1a9b1b9c1cb0b131b232b360811b901a614d128385614c2e565b5360041c908015614799575f1901614c90565b614d2f60426144da565b90614d3d604051928361425d565b60428252614d4b60426144da565b6020830190601f19013682378251156140075760309053815160011015614007576078602183015360415b60018111614d865750614ca05790565b90600f81166010811015614007576f181899199a1a9b1b9c1cb0b131b232b360811b901a614db48385614c2e565b5360041c908015614799575f1901614d76565b91929015614e295750815115614ddb575090565b3b15614de45790565b60405162461bcd60e51b815260206004820152601d60248201527f416464726573733a2063616c6c20746f206e6f6e2d636f6e74726163740000006044820152606490fd5b825190915015614e3c5750805190602001fd5b60405162461bcd60e51b8152602060048201529081906149c590602483019061439356fe2f8788117e7eff1d82e926ec794901d17c78024a50270940304540a733656f0df6391f5c32d9c69d2a47ea670b442974b53935d1edc7fd64eb21e047a839171be5ebfa64fca8d502a8e50c1edffd2c31ef4dad5b396e65d9f397fb028f74abc50f063af291b16313d0205008f6fe96dd7519e5d6d38352e4a20309241a3ef3aa8c345eb442293d76e120ce2656480721c33d2227a35bc9606d5d0f2515516f82a49807205ce4d355092ef5a8a18f56e8913cf4a201fbe287825b095693c21775a2646970667358221220254310c0dd4bfcdf465304cadafb2ca63a318f6b1b212bb342b154f54bfb2ccd64736f6c634300081c00332f8788117e7eff1d82e926ec794901d17c78024a50270940304540a733656f0dac33ff75c19e70fe83507db0d683fd3465c996598dc972688b7ace676c89077be5ebfa64fca8d502a8e50c1edffd2c31ef4dad5b396e65d9f397fb028f74abc5","linkReferences":{}},"methodIdentifiers":{"ADMIN_ROLE()":"75b238fc","DEFAULT_ADMIN_ROLE()":"a217fddf","DISPATCHER_ROLE()":"9ef5aee9","DRIVER_ROLE()":"56537593","assignDriverToJourneyId(address,bytes32)":"260ff43d","customerHandOff(address,bytes32)":"9b21e582","driverDeliverySigned(address,bytes32)":"47aac09d","driverPickupSigned(address,bytes32)":"9c62a59a","driverToJourneyId(address,uint256)":"982e2f98","getOrder(bytes32)":"5778472a","getRoleAdmin(bytes32)":"248a9ca3","getjourney(bytes32)":"8da39f60","grantRole(bytes32,address)":"2f2ff15d","handOff(bytes32)":"9d99e418","handOn(bytes32)":"bd58cea4","hasRole(bytes32,address)":"91d14854","idToJourney(bytes32)":"1ba5c00f","idToOrder(bytes32)":"a787248a","journeyCreation(address,address,((string,string),(string,string),string,string),uint256,uint256)":"6d205a91","journeyIdCounter()":"08ec3824","journeyToOrderId(bytes32)":"6d94151c","onERC1155BatchReceived(address,address,uint256[],uint256[],bytes)":"bc197c81","onERC1155Received(address,address,uint256,uint256,bytes)":"f23a6e61","orderCreation((bytes32,address,uint256,uint256,uint256,uint256,address,address,bytes32[],address[],((string,string),(string,string),string,string),uint8,bytes32))":"acfd0a79","orderIdCounter()":"be374423","orderIds(uint256)":"23722084","orderJourneyCreation(bytes32,address,address,((string,string),(string,string),string,string),uint256,uint256,uint256,uint256)":"b696c54f","owner()":"8da5cb5b","packageSign(bytes32)":"5306bb14","renounceOwnership()":"715018a6","renounceRole(bytes32,address)":"36568abe","revokeAdmin(address)":"2d345670","revokeRole(bytes32,address)":"d547741f","setAdmin(address)":"704b6c02","setDispatcher(address,bool)":"876244b6","setDriver(address,bool)":"4a00787a","setNodeManager(address)":"1319e7e1","supportsInterface(bytes4)":"01ffc9a7","transferOwnership(address)":"f2fde38b"},"id":1}