{
  "_format": "hh-sol-artifact-1",
  "contractName": "CLOB",
  "sourceName": "contracts/CLOB.sol",
  "abi": [
    {
      "inputs": [
        {
          "internalType": "address",
          "name": "_feeRecipient",
          "type": "address"
        }
      ],
      "stateMutability": "nonpayable",
      "type": "constructor"
    },
    {
      "inputs": [],
      "name": "InsufficientBalance",
      "type": "error"
    },
    {
      "inputs": [],
      "name": "InsufficientLiquidity",
      "type": "error"
    },
    {
      "inputs": [],
      "name": "InvalidAmount",
      "type": "error"
    },
    {
      "inputs": [],
      "name": "InvalidFeeConfiguration",
      "type": "error"
    },
    {
      "inputs": [],
      "name": "InvalidPrice",
      "type": "error"
    },
    {
      "inputs": [],
      "name": "NotOrderOwner",
      "type": "error"
    },
    {
      "inputs": [],
      "name": "OrderNotFound",
      "type": "error"
    },
    {
      "inputs": [],
      "name": "OrderNotOpen",
      "type": "error"
    },
    {
      "inputs": [],
      "name": "PoolNotActive",
      "type": "error"
    },
    {
      "inputs": [],
      "name": "PoolNotFound",
      "type": "error"
    },
    {
      "anonymous": false,
      "inputs": [
        {
          "indexed": true,
          "internalType": "bytes32",
          "name": "tradeId",
          "type": "bytes32"
        },
        {
          "indexed": false,
          "internalType": "uint256",
          "name": "takerFeeAmount",
          "type": "uint256"
        },
        {
          "indexed": false,
          "internalType": "uint256",
          "name": "makerFeeAmount",
          "type": "uint256"
        },
        {
          "indexed": false,
          "internalType": "uint256",
          "name": "lpFeeAmount",
          "type": "uint256"
        }
      ],
      "name": "FeesCollected",
      "type": "event"
    },
    {
      "anonymous": false,
      "inputs": [
        {
          "indexed": true,
          "internalType": "bytes32",
          "name": "poolId",
          "type": "bytes32"
        },
        {
          "indexed": true,
          "internalType": "address",
          "name": "provider",
          "type": "address"
        },
        {
          "indexed": false,
          "internalType": "uint256",
          "name": "baseAmount",
          "type": "uint256"
        },
        {
          "indexed": false,
          "internalType": "uint256",
          "name": "quoteAmount",
          "type": "uint256"
        },
        {
          "indexed": false,
          "internalType": "uint256",
          "name": "lpTokensMinted",
          "type": "uint256"
        }
      ],
      "name": "LiquidityAdded",
      "type": "event"
    },
    {
      "anonymous": false,
      "inputs": [
        {
          "indexed": true,
          "internalType": "bytes32",
          "name": "poolId",
          "type": "bytes32"
        },
        {
          "indexed": true,
          "internalType": "address",
          "name": "provider",
          "type": "address"
        },
        {
          "indexed": false,
          "internalType": "uint256",
          "name": "baseAmount",
          "type": "uint256"
        },
        {
          "indexed": false,
          "internalType": "uint256",
          "name": "quoteAmount",
          "type": "uint256"
        },
        {
          "indexed": false,
          "internalType": "uint256",
          "name": "lpTokensBurned",
          "type": "uint256"
        }
      ],
      "name": "LiquidityRemoved",
      "type": "event"
    },
    {
      "anonymous": false,
      "inputs": [
        {
          "indexed": true,
          "internalType": "bytes32",
          "name": "orderId",
          "type": "bytes32"
        },
        {
          "indexed": true,
          "internalType": "address",
          "name": "maker",
          "type": "address"
        },
        {
          "indexed": false,
          "internalType": "uint256",
          "name": "remainingAmount",
          "type": "uint256"
        }
      ],
      "name": "OrderCancelled",
      "type": "event"
    },
    {
      "anonymous": false,
      "inputs": [
        {
          "indexed": true,
          "internalType": "bytes32",
          "name": "takerOrderId",
          "type": "bytes32"
        },
        {
          "indexed": true,
          "internalType": "bytes32",
          "name": "makerOrderId",
          "type": "bytes32"
        },
        {
          "indexed": true,
          "internalType": "bytes32",
          "name": "tradeId",
          "type": "bytes32"
        },
        {
          "indexed": false,
          "internalType": "uint256",
          "name": "fillAmount",
          "type": "uint256"
        },
        {
          "indexed": false,
          "internalType": "uint256",
          "name": "fillPrice",
          "type": "uint256"
        },
        {
          "indexed": false,
          "internalType": "uint256",
          "name": "quoteAmount",
          "type": "uint256"
        }
      ],
      "name": "OrderMatched",
      "type": "event"
    },
    {
      "anonymous": false,
      "inputs": [
        {
          "indexed": true,
          "internalType": "bytes32",
          "name": "orderId",
          "type": "bytes32"
        },
        {
          "indexed": true,
          "internalType": "address",
          "name": "maker",
          "type": "address"
        },
        {
          "indexed": true,
          "internalType": "address",
          "name": "baseToken",
          "type": "address"
        },
        {
          "indexed": false,
          "internalType": "uint256",
          "name": "baseTokenId",
          "type": "uint256"
        },
        {
          "indexed": false,
          "internalType": "address",
          "name": "quoteToken",
          "type": "address"
        },
        {
          "indexed": false,
          "internalType": "uint256",
          "name": "price",
          "type": "uint256"
        },
        {
          "indexed": false,
          "internalType": "uint256",
          "name": "amount",
          "type": "uint256"
        },
        {
          "indexed": false,
          "internalType": "bool",
          "name": "isBuy",
          "type": "bool"
        },
        {
          "indexed": false,
          "internalType": "enum CLOB.OrderType",
          "name": "orderType",
          "type": "uint8"
        }
      ],
      "name": "OrderPlaced",
      "type": "event"
    },
    {
      "anonymous": false,
      "inputs": [
        {
          "indexed": true,
          "internalType": "bytes32",
          "name": "orderId",
          "type": "bytes32"
        },
        {
          "indexed": false,
          "internalType": "enum CLOB.OrderStatus",
          "name": "newStatus",
          "type": "uint8"
        },
        {
          "indexed": false,
          "internalType": "uint256",
          "name": "filledAmount",
          "type": "uint256"
        },
        {
          "indexed": false,
          "internalType": "uint256",
          "name": "remainingAmount",
          "type": "uint256"
        }
      ],
      "name": "OrderUpdated",
      "type": "event"
    },
    {
      "anonymous": false,
      "inputs": [
        {
          "indexed": true,
          "internalType": "address",
          "name": "previousOwner",
          "type": "address"
        },
        {
          "indexed": true,
          "internalType": "address",
          "name": "newOwner",
          "type": "address"
        }
      ],
      "name": "OwnershipTransferred",
      "type": "event"
    },
    {
      "anonymous": false,
      "inputs": [
        {
          "indexed": false,
          "internalType": "address",
          "name": "account",
          "type": "address"
        }
      ],
      "name": "Paused",
      "type": "event"
    },
    {
      "anonymous": false,
      "inputs": [
        {
          "indexed": true,
          "internalType": "bytes32",
          "name": "poolId",
          "type": "bytes32"
        },
        {
          "indexed": true,
          "internalType": "address",
          "name": "baseToken",
          "type": "address"
        },
        {
          "indexed": false,
          "internalType": "uint256",
          "name": "baseTokenId",
          "type": "uint256"
        },
        {
          "indexed": true,
          "internalType": "address",
          "name": "quoteToken",
          "type": "address"
        }
      ],
      "name": "PoolCreated",
      "type": "event"
    },
    {
      "anonymous": false,
      "inputs": [
        {
          "indexed": true,
          "internalType": "bytes32",
          "name": "tradeId",
          "type": "bytes32"
        },
        {
          "indexed": true,
          "internalType": "address",
          "name": "taker",
          "type": "address"
        },
        {
          "indexed": true,
          "internalType": "address",
          "name": "maker",
          "type": "address"
        },
        {
          "indexed": false,
          "internalType": "address",
          "name": "baseToken",
          "type": "address"
        },
        {
          "indexed": false,
          "internalType": "uint256",
          "name": "baseTokenId",
          "type": "uint256"
        },
        {
          "indexed": false,
          "internalType": "uint256",
          "name": "price",
          "type": "uint256"
        },
        {
          "indexed": false,
          "internalType": "uint256",
          "name": "amount",
          "type": "uint256"
        },
        {
          "indexed": false,
          "internalType": "uint256",
          "name": "quoteAmount",
          "type": "uint256"
        },
        {
          "indexed": false,
          "internalType": "uint256",
          "name": "timestamp",
          "type": "uint256"
        }
      ],
      "name": "TradeExecuted",
      "type": "event"
    },
    {
      "anonymous": false,
      "inputs": [
        {
          "indexed": false,
          "internalType": "address",
          "name": "account",
          "type": "address"
        }
      ],
      "name": "Unpaused",
      "type": "event"
    },
    {
      "inputs": [
        {
          "internalType": "bytes32",
          "name": "poolId",
          "type": "bytes32"
        },
        {
          "internalType": "uint256",
          "name": "baseAmount",
          "type": "uint256"
        },
        {
          "internalType": "uint256",
          "name": "quoteAmount",
          "type": "uint256"
        }
      ],
      "name": "addLiquidity",
      "outputs": [],
      "stateMutability": "nonpayable",
      "type": "function"
    },
    {
      "inputs": [
        {
          "internalType": "bytes32",
          "name": "",
          "type": "bytes32"
        },
        {
          "internalType": "uint256",
          "name": "",
          "type": "uint256"
        }
      ],
      "name": "buyOrders",
      "outputs": [
        {
          "internalType": "bytes32",
          "name": "",
          "type": "bytes32"
        }
      ],
      "stateMutability": "view",
      "type": "function"
    },
    {
      "inputs": [
        {
          "internalType": "bytes32",
          "name": "orderId",
          "type": "bytes32"
        }
      ],
      "name": "cancelOrder",
      "outputs": [],
      "stateMutability": "nonpayable",
      "type": "function"
    },
    {
      "inputs": [
        {
          "internalType": "address",
          "name": "baseToken",
          "type": "address"
        },
        {
          "internalType": "uint256",
          "name": "baseTokenId",
          "type": "uint256"
        },
        {
          "internalType": "address",
          "name": "quoteToken",
          "type": "address"
        }
      ],
      "name": "createPool",
      "outputs": [
        {
          "internalType": "bytes32",
          "name": "",
          "type": "bytes32"
        }
      ],
      "stateMutability": "nonpayable",
      "type": "function"
    },
    {
      "inputs": [],
      "name": "feeRecipient",
      "outputs": [
        {
          "internalType": "address",
          "name": "",
          "type": "address"
        }
      ],
      "stateMutability": "view",
      "type": "function"
    },
    {
      "inputs": [
        {
          "internalType": "bytes32",
          "name": "marketId",
          "type": "bytes32"
        }
      ],
      "name": "getBestAsk",
      "outputs": [
        {
          "internalType": "uint256",
          "name": "price",
          "type": "uint256"
        },
        {
          "internalType": "uint256",
          "name": "amount",
          "type": "uint256"
        }
      ],
      "stateMutability": "view",
      "type": "function"
    },
    {
      "inputs": [
        {
          "internalType": "bytes32",
          "name": "marketId",
          "type": "bytes32"
        }
      ],
      "name": "getBestBid",
      "outputs": [
        {
          "internalType": "uint256",
          "name": "price",
          "type": "uint256"
        },
        {
          "internalType": "uint256",
          "name": "amount",
          "type": "uint256"
        }
      ],
      "stateMutability": "view",
      "type": "function"
    },
    {
      "inputs": [
        {
          "internalType": "bytes32",
          "name": "poolId",
          "type": "bytes32"
        },
        {
          "internalType": "address",
          "name": "provider",
          "type": "address"
        }
      ],
      "name": "getLiquidityPosition",
      "outputs": [
        {
          "components": [
            {
              "internalType": "address",
              "name": "provider",
              "type": "address"
            },
            {
              "internalType": "bytes32",
              "name": "poolId",
              "type": "bytes32"
            },
            {
              "internalType": "uint256",
              "name": "lpTokens",
              "type": "uint256"
            },
            {
              "internalType": "uint256",
              "name": "depositedAt",
              "type": "uint256"
            }
          ],
          "internalType": "struct CLOB.LiquidityPosition",
          "name": "",
          "type": "tuple"
        }
      ],
      "stateMutability": "view",
      "type": "function"
    },
    {
      "inputs": [
        {
          "internalType": "address",
          "name": "baseToken",
          "type": "address"
        },
        {
          "internalType": "uint256",
          "name": "baseTokenId",
          "type": "uint256"
        },
        {
          "internalType": "address",
          "name": "quoteToken",
          "type": "address"
        }
      ],
      "name": "getMarketId",
      "outputs": [
        {
          "internalType": "bytes32",
          "name": "",
          "type": "bytes32"
        }
      ],
      "stateMutability": "pure",
      "type": "function"
    },
    {
      "inputs": [
        {
          "internalType": "bytes32",
          "name": "orderId",
          "type": "bytes32"
        }
      ],
      "name": "getOrder",
      "outputs": [
        {
          "components": [
            {
              "internalType": "bytes32",
              "name": "id",
              "type": "bytes32"
            },
            {
              "internalType": "address",
              "name": "maker",
              "type": "address"
            },
            {
              "internalType": "address",
              "name": "baseToken",
              "type": "address"
            },
            {
              "internalType": "uint256",
              "name": "baseTokenId",
              "type": "uint256"
            },
            {
              "internalType": "address",
              "name": "quoteToken",
              "type": "address"
            },
            {
              "internalType": "uint256",
              "name": "price",
              "type": "uint256"
            },
            {
              "internalType": "uint256",
              "name": "amount",
              "type": "uint256"
            },
            {
              "internalType": "uint256",
              "name": "filledAmount",
              "type": "uint256"
            },
            {
              "internalType": "bool",
              "name": "isBuy",
              "type": "bool"
            },
            {
              "internalType": "enum CLOB.OrderType",
              "name": "orderType",
              "type": "uint8"
            },
            {
              "internalType": "enum CLOB.OrderStatus",
              "name": "status",
              "type": "uint8"
            },
            {
              "internalType": "uint256",
              "name": "createdAt",
              "type": "uint256"
            },
            {
              "internalType": "uint256",
              "name": "updatedAt",
              "type": "uint256"
            }
          ],
          "internalType": "struct CLOB.Order",
          "name": "",
          "type": "tuple"
        }
      ],
      "stateMutability": "view",
      "type": "function"
    },
    {
      "inputs": [
        {
          "internalType": "bytes32",
          "name": "poolId",
          "type": "bytes32"
        }
      ],
      "name": "getPool",
      "outputs": [
        {
          "components": [
            {
              "internalType": "bytes32",
              "name": "id",
              "type": "bytes32"
            },
            {
              "internalType": "address",
              "name": "baseToken",
              "type": "address"
            },
            {
              "internalType": "uint256",
              "name": "baseTokenId",
              "type": "uint256"
            },
            {
              "internalType": "address",
              "name": "quoteToken",
              "type": "address"
            },
            {
              "internalType": "uint256",
              "name": "baseReserve",
              "type": "uint256"
            },
            {
              "internalType": "uint256",
              "name": "quoteReserve",
              "type": "uint256"
            },
            {
              "internalType": "uint256",
              "name": "totalLpTokens",
              "type": "uint256"
            },
            {
              "internalType": "bool",
              "name": "isActive",
              "type": "bool"
            }
          ],
          "internalType": "struct CLOB.LiquidityPool",
          "name": "",
          "type": "tuple"
        }
      ],
      "stateMutability": "view",
      "type": "function"
    },
    {
      "inputs": [
        {
          "internalType": "bytes32",
          "name": "tradeId",
          "type": "bytes32"
        }
      ],
      "name": "getTrade",
      "outputs": [
        {
          "components": [
            {
              "internalType": "bytes32",
              "name": "id",
              "type": "bytes32"
            },
            {
              "internalType": "bytes32",
              "name": "takerOrderId",
              "type": "bytes32"
            },
            {
              "internalType": "bytes32",
              "name": "makerOrderId",
              "type": "bytes32"
            },
            {
              "internalType": "address",
              "name": "taker",
              "type": "address"
            },
            {
              "internalType": "address",
              "name": "maker",
              "type": "address"
            },
            {
              "internalType": "address",
              "name": "baseToken",
              "type": "address"
            },
            {
              "internalType": "uint256",
              "name": "baseTokenId",
              "type": "uint256"
            },
            {
              "internalType": "address",
              "name": "quoteToken",
              "type": "address"
            },
            {
              "internalType": "uint256",
              "name": "price",
              "type": "uint256"
            },
            {
              "internalType": "uint256",
              "name": "amount",
              "type": "uint256"
            },
            {
              "internalType": "uint256",
              "name": "quoteAmount",
              "type": "uint256"
            },
            {
              "internalType": "uint256",
              "name": "timestamp",
              "type": "uint256"
            }
          ],
          "internalType": "struct CLOB.Trade",
          "name": "",
          "type": "tuple"
        }
      ],
      "stateMutability": "view",
      "type": "function"
    },
    {
      "inputs": [
        {
          "internalType": "bytes32",
          "name": "",
          "type": "bytes32"
        }
      ],
      "name": "liquidityPositions",
      "outputs": [
        {
          "internalType": "address",
          "name": "provider",
          "type": "address"
        },
        {
          "internalType": "bytes32",
          "name": "poolId",
          "type": "bytes32"
        },
        {
          "internalType": "uint256",
          "name": "lpTokens",
          "type": "uint256"
        },
        {
          "internalType": "uint256",
          "name": "depositedAt",
          "type": "uint256"
        }
      ],
      "stateMutability": "view",
      "type": "function"
    },
    {
      "inputs": [],
      "name": "lpFee",
      "outputs": [
        {
          "internalType": "uint256",
          "name": "",
          "type": "uint256"
        }
      ],
      "stateMutability": "view",
      "type": "function"
    },
    {
      "inputs": [],
      "name": "makerFee",
      "outputs": [
        {
          "internalType": "uint256",
          "name": "",
          "type": "uint256"
        }
      ],
      "stateMutability": "view",
      "type": "function"
    },
    {
      "inputs": [
        {
          "internalType": "address",
          "name": "",
          "type": "address"
        },
        {
          "internalType": "address",
          "name": "",
          "type": "address"
        },
        {
          "internalType": "uint256[]",
          "name": "",
          "type": "uint256[]"
        },
        {
          "internalType": "uint256[]",
          "name": "",
          "type": "uint256[]"
        },
        {
          "internalType": "bytes",
          "name": "",
          "type": "bytes"
        }
      ],
      "name": "onERC1155BatchReceived",
      "outputs": [
        {
          "internalType": "bytes4",
          "name": "",
          "type": "bytes4"
        }
      ],
      "stateMutability": "nonpayable",
      "type": "function"
    },
    {
      "inputs": [
        {
          "internalType": "address",
          "name": "",
          "type": "address"
        },
        {
          "internalType": "address",
          "name": "",
          "type": "address"
        },
        {
          "internalType": "uint256",
          "name": "",
          "type": "uint256"
        },
        {
          "internalType": "uint256",
          "name": "",
          "type": "uint256"
        },
        {
          "internalType": "bytes",
          "name": "",
          "type": "bytes"
        }
      ],
      "name": "onERC1155Received",
      "outputs": [
        {
          "internalType": "bytes4",
          "name": "",
          "type": "bytes4"
        }
      ],
      "stateMutability": "nonpayable",
      "type": "function"
    },
    {
      "inputs": [],
      "name": "orderIdCounter",
      "outputs": [
        {
          "internalType": "uint256",
          "name": "",
          "type": "uint256"
        }
      ],
      "stateMutability": "view",
      "type": "function"
    },
    {
      "inputs": [
        {
          "internalType": "uint256",
          "name": "",
          "type": "uint256"
        }
      ],
      "name": "orderIds",
      "outputs": [
        {
          "internalType": "bytes32",
          "name": "",
          "type": "bytes32"
        }
      ],
      "stateMutability": "view",
      "type": "function"
    },
    {
      "inputs": [
        {
          "internalType": "bytes32",
          "name": "",
          "type": "bytes32"
        }
      ],
      "name": "orders",
      "outputs": [
        {
          "internalType": "bytes32",
          "name": "id",
          "type": "bytes32"
        },
        {
          "internalType": "address",
          "name": "maker",
          "type": "address"
        },
        {
          "internalType": "address",
          "name": "baseToken",
          "type": "address"
        },
        {
          "internalType": "uint256",
          "name": "baseTokenId",
          "type": "uint256"
        },
        {
          "internalType": "address",
          "name": "quoteToken",
          "type": "address"
        },
        {
          "internalType": "uint256",
          "name": "price",
          "type": "uint256"
        },
        {
          "internalType": "uint256",
          "name": "amount",
          "type": "uint256"
        },
        {
          "internalType": "uint256",
          "name": "filledAmount",
          "type": "uint256"
        },
        {
          "internalType": "bool",
          "name": "isBuy",
          "type": "bool"
        },
        {
          "internalType": "enum CLOB.OrderType",
          "name": "orderType",
          "type": "uint8"
        },
        {
          "internalType": "enum CLOB.OrderStatus",
          "name": "status",
          "type": "uint8"
        },
        {
          "internalType": "uint256",
          "name": "createdAt",
          "type": "uint256"
        },
        {
          "internalType": "uint256",
          "name": "updatedAt",
          "type": "uint256"
        }
      ],
      "stateMutability": "view",
      "type": "function"
    },
    {
      "inputs": [],
      "name": "owner",
      "outputs": [
        {
          "internalType": "address",
          "name": "",
          "type": "address"
        }
      ],
      "stateMutability": "view",
      "type": "function"
    },
    {
      "inputs": [],
      "name": "pause",
      "outputs": [],
      "stateMutability": "nonpayable",
      "type": "function"
    },
    {
      "inputs": [],
      "name": "paused",
      "outputs": [
        {
          "internalType": "bool",
          "name": "",
          "type": "bool"
        }
      ],
      "stateMutability": "view",
      "type": "function"
    },
    {
      "inputs": [
        {
          "internalType": "address",
          "name": "baseToken",
          "type": "address"
        },
        {
          "internalType": "uint256",
          "name": "baseTokenId",
          "type": "uint256"
        },
        {
          "internalType": "address",
          "name": "quoteToken",
          "type": "address"
        },
        {
          "internalType": "uint256",
          "name": "price",
          "type": "uint256"
        },
        {
          "internalType": "uint256",
          "name": "amount",
          "type": "uint256"
        },
        {
          "internalType": "bool",
          "name": "isBuy",
          "type": "bool"
        }
      ],
      "name": "placeLimitOrder",
      "outputs": [
        {
          "internalType": "bytes32",
          "name": "",
          "type": "bytes32"
        }
      ],
      "stateMutability": "nonpayable",
      "type": "function"
    },
    {
      "inputs": [
        {
          "internalType": "address",
          "name": "baseToken",
          "type": "address"
        },
        {
          "internalType": "uint256",
          "name": "baseTokenId",
          "type": "uint256"
        },
        {
          "internalType": "address",
          "name": "quoteToken",
          "type": "address"
        },
        {
          "internalType": "uint256",
          "name": "amount",
          "type": "uint256"
        },
        {
          "internalType": "bool",
          "name": "isBuy",
          "type": "bool"
        },
        {
          "internalType": "uint256",
          "name": "maxPrice",
          "type": "uint256"
        }
      ],
      "name": "placeMarketOrder",
      "outputs": [
        {
          "internalType": "bytes32",
          "name": "",
          "type": "bytes32"
        }
      ],
      "stateMutability": "nonpayable",
      "type": "function"
    },
    {
      "inputs": [
        {
          "internalType": "uint256",
          "name": "",
          "type": "uint256"
        }
      ],
      "name": "poolIds",
      "outputs": [
        {
          "internalType": "bytes32",
          "name": "",
          "type": "bytes32"
        }
      ],
      "stateMutability": "view",
      "type": "function"
    },
    {
      "inputs": [
        {
          "internalType": "bytes32",
          "name": "",
          "type": "bytes32"
        }
      ],
      "name": "pools",
      "outputs": [
        {
          "internalType": "bytes32",
          "name": "id",
          "type": "bytes32"
        },
        {
          "internalType": "address",
          "name": "baseToken",
          "type": "address"
        },
        {
          "internalType": "uint256",
          "name": "baseTokenId",
          "type": "uint256"
        },
        {
          "internalType": "address",
          "name": "quoteToken",
          "type": "address"
        },
        {
          "internalType": "uint256",
          "name": "baseReserve",
          "type": "uint256"
        },
        {
          "internalType": "uint256",
          "name": "quoteReserve",
          "type": "uint256"
        },
        {
          "internalType": "uint256",
          "name": "totalLpTokens",
          "type": "uint256"
        },
        {
          "internalType": "bool",
          "name": "isActive",
          "type": "bool"
        }
      ],
      "stateMutability": "view",
      "type": "function"
    },
    {
      "inputs": [
        {
          "internalType": "bytes32",
          "name": "poolId",
          "type": "bytes32"
        },
        {
          "internalType": "uint256",
          "name": "lpTokens",
          "type": "uint256"
        }
      ],
      "name": "removeLiquidity",
      "outputs": [],
      "stateMutability": "nonpayable",
      "type": "function"
    },
    {
      "inputs": [],
      "name": "renounceOwnership",
      "outputs": [],
      "stateMutability": "nonpayable",
      "type": "function"
    },
    {
      "inputs": [
        {
          "internalType": "bytes32",
          "name": "",
          "type": "bytes32"
        },
        {
          "internalType": "uint256",
          "name": "",
          "type": "uint256"
        }
      ],
      "name": "sellOrders",
      "outputs": [
        {
          "internalType": "bytes32",
          "name": "",
          "type": "bytes32"
        }
      ],
      "stateMutability": "view",
      "type": "function"
    },
    {
      "inputs": [
        {
          "internalType": "address",
          "name": "_feeRecipient",
          "type": "address"
        }
      ],
      "name": "setFeeRecipient",
      "outputs": [],
      "stateMutability": "nonpayable",
      "type": "function"
    },
    {
      "inputs": [
        {
          "internalType": "uint256",
          "name": "_takerFee",
          "type": "uint256"
        },
        {
          "internalType": "uint256",
          "name": "_makerFee",
          "type": "uint256"
        },
        {
          "internalType": "uint256",
          "name": "_lpFee",
          "type": "uint256"
        }
      ],
      "name": "setFees",
      "outputs": [],
      "stateMutability": "nonpayable",
      "type": "function"
    },
    {
      "inputs": [
        {
          "internalType": "bytes4",
          "name": "interfaceId",
          "type": "bytes4"
        }
      ],
      "name": "supportsInterface",
      "outputs": [
        {
          "internalType": "bool",
          "name": "",
          "type": "bool"
        }
      ],
      "stateMutability": "view",
      "type": "function"
    },
    {
      "inputs": [],
      "name": "takerFee",
      "outputs": [
        {
          "internalType": "uint256",
          "name": "",
          "type": "uint256"
        }
      ],
      "stateMutability": "view",
      "type": "function"
    },
    {
      "inputs": [],
      "name": "tradeIdCounter",
      "outputs": [
        {
          "internalType": "uint256",
          "name": "",
          "type": "uint256"
        }
      ],
      "stateMutability": "view",
      "type": "function"
    },
    {
      "inputs": [
        {
          "internalType": "uint256",
          "name": "",
          "type": "uint256"
        }
      ],
      "name": "tradeIds",
      "outputs": [
        {
          "internalType": "bytes32",
          "name": "",
          "type": "bytes32"
        }
      ],
      "stateMutability": "view",
      "type": "function"
    },
    {
      "inputs": [
        {
          "internalType": "bytes32",
          "name": "",
          "type": "bytes32"
        }
      ],
      "name": "trades",
      "outputs": [
        {
          "internalType": "bytes32",
          "name": "id",
          "type": "bytes32"
        },
        {
          "internalType": "bytes32",
          "name": "takerOrderId",
          "type": "bytes32"
        },
        {
          "internalType": "bytes32",
          "name": "makerOrderId",
          "type": "bytes32"
        },
        {
          "internalType": "address",
          "name": "taker",
          "type": "address"
        },
        {
          "internalType": "address",
          "name": "maker",
          "type": "address"
        },
        {
          "internalType": "address",
          "name": "baseToken",
          "type": "address"
        },
        {
          "internalType": "uint256",
          "name": "baseTokenId",
          "type": "uint256"
        },
        {
          "internalType": "address",
          "name": "quoteToken",
          "type": "address"
        },
        {
          "internalType": "uint256",
          "name": "price",
          "type": "uint256"
        },
        {
          "internalType": "uint256",
          "name": "amount",
          "type": "uint256"
        },
        {
          "internalType": "uint256",
          "name": "quoteAmount",
          "type": "uint256"
        },
        {
          "internalType": "uint256",
          "name": "timestamp",
          "type": "uint256"
        }
      ],
      "stateMutability": "view",
      "type": "function"
    },
    {
      "inputs": [
        {
          "internalType": "address",
          "name": "newOwner",
          "type": "address"
        }
      ],
      "name": "transferOwnership",
      "outputs": [],
      "stateMutability": "nonpayable",
      "type": "function"
    },
    {
      "inputs": [],
      "name": "unpause",
      "outputs": [],
      "stateMutability": "nonpayable",
      "type": "function"
    }
  ],
  "bytecode": "0x60803460ce57601f61347f38819003918201601f19168301916001600160401b0383118484101760d35780849260209460405283398101031260ce57516001600160a01b0381169081900360ce57600160005560015490604051913360018060a01b0382167f8be0079c531659141344cd1fd0a4f28419497f9722a3daafe3b4186f6b6457e0600080a36001600160a81b0319163360ff60a01b191617600155601e600d55600a600e556019600f55601080546001600160a01b03191691909117905561339590816100ea8239f35b600080fd5b634e487b7160e01b600052604160045260246000fdfe60c080604052600436101561001357600080fd5b600090813560e01c90816216242014611d8d5750806301bd4fa414611b9d57806301ffc9a714611b465780630dfe72d614611a765780632372208414611a33578063241cb06014611a0157806336f0b24d1461160a5780633f4ba83a1461156d57806343f0179b1461154f57806346904840146115265780634fe6e1421461150c5780635778472a1461131d5780635c975abb146112f757806367b3a29d146112a257806369883b4e1461125f5780636a7cf84514611240578063704ce43e14611222578063715018a6146111c557806371ace7ec14610e8e5780637489ec2314610dcb5780638456cb5914610d685780638da5cb5b14610d3f5780639bb62b7614610d155780639c3f1e9014610c35578063a3b1379914610a8f578063a893fb1814610a71578063b5217bb4146109e4578063bc197c811461094b578063be3744231461092d578063cec10c11146108dd578063d50d458f146108b2578063e23df6ee14610505578063e74b981b146104c5578063f099082814610484578063f23a6e6114610429578063f2fde38b14610360578063f6c0092714610244578063fc741c7c146102265763ff52c484146101cd57600080fd5b3461022357602036600319011261022357600435906006548210156102235760065482101561020f576020916006825282822001549060031b1c604051908152f35b634e487b7160e01b81526032600452602490fd5b80fd5b50346102235780600319360112610223576020600e54604051908152f35b5034610223576020366003190112610223576040816101009260e0835161026a81611f9a565b82815282602082015282858201528260608201528260808201528260a08201528260c082015201526004358152600a602052206040516102a981611f9a565b81549182825260018060a01b036001820154166020830190815260028201546040840190815260018060a01b03600384015416606085019081526004840154916080860192835260058501549360a0870194855260e060ff600760068901549860c08b01998a520154169701961515875260405197885260018060a01b03905116602088015251604087015260018060a01b0390511660608601525160808501525160a08401525160c083015251151560e0820152f35b50346102235760203660031901126102235761037a611e80565b610382612f49565b6001600160a01b031680156103d557600180546001600160a01b0319811683179091556001600160a01b03167f8be0079c531659141344cd1fd0a4f28419497f9722a3daafe3b4186f6b6457e08380a380f35b60405162461bcd60e51b815260206004820152602660248201527f4f776e61626c653a206e6577206f776e657220697320746865207a65726f206160448201526564647265737360d01b6064820152608490fd5b50346102235760a036600319011261022357610443611e80565b5061044c611e6a565b5060843567ffffffffffffffff81116104805761046d90369060040161205d565b5060405163f23a6e6160e01b8152602090f35b5080fd5b50346102235761049336611e4f565b919081526008602052604081209081548310156102235760206104b68484611eac565b90549060031b1c604051908152f35b5034610223576020366003190112610223576104df611e80565b6104e7612f49565b60018060a01b03166001600160601b0360a01b601054161760105580f35b50346102235760c03660031901126102235761051f611e80565b610527611e96565b60a4359182151583036108865761053c6124b5565b61054461254b565b608435156108a357606435156108955782156108225761057c61056b6084356064356120a4565b30336001600160a01b038616612592565b600454610588816125d6565b600455604051602081019182526001600160601b03193360601b166040820152426054820152605481526105bd607482611fb7565b519020926040516105cd81611f60565b848152602081019033825285876040830160018060a01b03871681526106e56060850160243581526080860160018060a01b038b16815260a08701606435815260c0880190608435825260e08901928784526101008a01948c151586526101208b019761063a8a8a61217a565b6101408c018a8152426101608e018181526101808f01919091529b8b52600260208190526040909b208d5181559d5160018f0180546001600160a01b039283166001600160a01b03199182161790915592519b8f0180549c82169c84169c909c17909b55915160038e0155915160048d01805491909a169216919091179097555160058a01555160068901555160078801555160088701805460ff191691151560ff16919091179055565b51600281101561080e5761ff0060088601549160081b169061ff0019161760088501555160048110156107fa576101806001979593859361072f600a94600860209e9b99016125e5565b516009850155015191015561074386612231565b6107508360243584612133565b81156107e2578452600887526107698660408620613180565b604051926024358452858060a01b03168784015260643560408401526084356060840152151560808301526107a160a0830184611f14565b838060a01b031690847ff56f9365c7c8105f65df67c4e15540f72e12389f8e75e43662f326ceaf51e8d560c03393a46107d983612606565b55604051908152f35b8452600987526107f586604086206130bd565b610769565b634e487b7160e01b89526021600452602489fd5b634e487b7160e01b8a52602160045260248afd5b836001600160a01b038216803b1561048057816040518092637921219560e11b825281838161085b6084356024353033600486016120fa565b03925af1801561088a57610871575b505061057c565b8161087b91611fb7565b61088657833861086a565b8380fd5b6040513d84823e3d90fd5b62bfc92160e01b8452600484fd5b63162908e360e11b8452600484fd5b50346102235760203660031901126102235760406108d160043561243a565b82519182526020820152f35b5034610223576060366003190112610223576024356004356108fd612f49565b6103e861090a8383612224565b1161091e57600d55600e55604435600f5580f35b63369276d760e11b8352600483fd5b50346102235780600319360112610223576020600454604051908152f35b50346102235760a036600319011261022357610965611e80565b5061096e611e6a565b5060443567ffffffffffffffff81116104805761098f903690600401611fd9565b5060643567ffffffffffffffff8111610480576109b0903690600401611fd9565b5060843567ffffffffffffffff8111610480576109d190369060040161205d565b5060405163bc197c8160e01b8152602090f35b5034610223576020366003190112610223576040610100916004358152600a6020522080549060018060a01b0360018201541690600281015460018060a01b0360038301541660048301549060058401549260ff600760068701549601541695604051978852602088015260408701526060860152608085015260a084015260c0830152151560e0820152f35b50346102235780600319360112610223576020600754604051908152f35b503461022357602036600319011261022357604081610180926101608351610ab681611f7d565b82815282602082015282858201528260608201528260808201528260a08201528260c08201528260e082015282610100820152826101208201528261014082015201526004358152600560205220604051610b1081611f7d565b8082549283825260018101546020830190815260028201546040840190815260018060a01b036003840154166060850190815260018060a01b036004850154166080860190815260018060a01b036005860154169060a0870191825260068601549260c0880193845260018060a01b036007880154169460e089019586526008880154966101008a01978852610160600b60098b01549a6101208d019b8c52610140600a8201549d019c8d5201549b019a8b526040519b8c525160208c01525160408b015260018060a01b0390511660608a015260018060a01b03905116608089015260018060a01b0390511660a08801525160c087015260018060a01b0390511660e086015251610100850152516101208401525161014083015251610160820152f35b50346102235760203660031901126102235760406101a091600435815260026020522080549060018060a01b0360018201541690610d0760018060a01b03600283015416600383015460018060a01b036004850154166005850154600686015491600787015493600888015495600a60098a0154990154996040519b8c5260208c015260408b015260608a0152608089015260a088015260c087015260e086015260ff81161515610100860152610cf6610120860160ff8360081c16611f14565b60ff61014086019160101c16611f21565b610160830152610180820152f35b5034610223576020610d37610d2936611eda565b91610d32612f49565b612294565b604051908152f35b50346102235780600319360112610223576001546040516001600160a01b039091168152602090f35b5034610223578060031936011261022357610d81612f49565b610d8961254b565b6001805460ff60a01b1916600160a01b1790556040513381527f62e78cea01bee320cd4e420270b5ea74000d11b0c9f74754ebdbfc544b05a25890602090a180f35b503461022357602036600319011261022357600435610de86124b5565b808252600260205260408220805415610e7f5760018101546001600160a01b03163303610e70576008015460101c60ff166004811015610e5c578015159081610e50575b50610e4157610e3a90612d8a565b6001815580f35b63206931ef60e01b8252600482fd5b60019150141538610e2c565b634e487b7160e01b83526021600452602483fd5b637b2095ad60e11b8352600483fd5b63d36d896560e01b8352600483fd5b503461022357606036600319011261022357602435600435604435610eb16124b5565b610eb961254b565b818452600a602052604084208054156111b65760ff600782015416156111a7578315801561119f575b611190576001810154600282015486916001600160a01b0316803b1561118c57868391610f289383604051809681958294637921219560e11b84523033600486016120fa565b03925af1801561088a57611173575b5050610f5182303360018060a01b03600386015416612592565b60068101908154801560001461110157610f6b84876120a4565b8760038211156110c85750808060011c600181018091116110b457905b8282106110955750507f9c8e2178a53b464e8c6d21c6d0d1f5189e5d2f6f6a79237ba611cf996a6e6b32949260059492610fe5925b9586925b60048101610fd08c8254612224565b905501610fde868254612224565b9055612224565b905560408051602081018681523360601b6001600160601b0319169282019290925261101e81605481015b03601f198101835282611fb7565b5190208652600b602052604086208054600291906001600160a01b031615611073575b0161104d838254612224565b9055604080519586526020860191909152840152339280606081015b0390a36001815580f35b80546001600160a01b0319163317815560018101869055426003820155611041565b9091506110ab826110a681846120cd565b612224565b60011c90610f88565b634e487b7160e01b8a52601160045260248afd5b92600594927f9c8e2178a53b464e8c6d21c6d0d1f5189e5d2f6f6a79237ba611cf996a6e6b329694610fe59315610fbd57506001610fbd565b91610fe57f9c8e2178a53b464e8c6d21c6d0d1f5189e5d2f6f6a79237ba611cf996a6e6b329492846111436111386005978b6120a4565b6004840154906120cd565b61115a61115083886120a4565b88850154906120cd565b8082101561116c57505b958692610fc1565b9050611164565b8161117d91611fb7565b611188578438610f37565b8480fd5b8280fd5b63162908e360e11b8552600485fd5b508115610ee2565b6338c0a90160e11b8552600485fd5b6301dbb3ff60e61b8552600485fd5b50346102235780600319360112610223576111de612f49565b600180546001600160a01b0319811690915581906001600160a01b03167f8be0079c531659141344cd1fd0a4f28419497f9722a3daafe3b4186f6b6457e08280a380f35b50346102235780600319360112610223576020600f54604051908152f35b50346102235760203660031901126102235760406108d1600435612186565b50346102235760203660031901126102235760043590600c5482101561022357600c5482101561020f57602091600c825282822001549060031b1c604051908152f35b50346102235760203660031901126102235760406080916004358152600b6020522060018060a01b03815416906001810154906003600282015491015491604051938452602084015260408301526060820152f35b5034610223578060031936011261022357602060ff60015460a01c166040519015158152f35b5034610223576020366003190112610223578061018060405161133f81611f60565b8281528260208201528260408201528260608201528260808201528260a08201528260c08201528260e0820152826101008201528261012082015282610140820152826101608201520152600435815260026020526040812090604051916113a683611f60565b8054835260018060a01b03600182015416916020840192835260018060a01b03600283015416604085019081526003830154906060860191825260018060a01b0360048501541660808701908152600585015460a0880190815260068601549060c0890191825260078701549260e08a019384526008880154956101008b019560ff88161515875260ff6101208d0198611445828260081c168b61217a565b60101c166101408d019960048210156114f85750895260098a01546101608d01908152600a909a01546101808d01908152604080519d518e529b516001600160a01b0390811660208f0152915182169b8d019b909b52905160608c015290511660808a01525160a08901525160c08801525160e0870152511515610100860152516114d590610120860190611f14565b5161014084016114e491611f21565b51610160830152516101808201526101a090f35b634e487b7160e01b81526021600452602490fd5b5034610223576020610d3761152036611eda565b91612133565b50346102235780600319360112610223576010546040516001600160a01b039091168152602090f35b50346102235780600319360112610223576020600d54604051908152f35b5034610223578060031936011261022357611586612f49565b60015460ff8160a01c16156115ce5760ff60a01b19166001556040513381527f5db9ee0a495bf2e6ff9c91a7834c1ba4fdd244a5e8aa4e537bd38aeae4b073aa90602090a180f35b60405162461bcd60e51b815260206004820152601460248201527314185d5cd8589b194e881b9bdd081c185d5cd95960621b6044820152606490fd5b50346102235760c036600319011261022357611624611e80565b60243590611630611e96565b916064359260843593841515918286036119ee5761164c6124b5565b61165461254b565b81156119f257851561198e5761168061166f8360a4356120a4565b30336001600160a01b038516612592565b60045461168c816125d6565b600455604051602081019182526001600160601b03193360601b166040820152426054820152605481526116c1607482611fb7565b51902095604051916116d283611f60565b878352602083019633885260408401938960018060a01b038316998a8752888d60608501988c8a5260808601998b60018060a01b038a169b8c815260a089019060a435825260c08a0192835260e08a01938685526101008b019788526101208b0195600260011015611936578b996040896101806101608e60018d5261014081019d8e52019d8e429052019d8e42905281526002602052209c518d5560018060a01b0390511660018d019060018060a01b03166001600160601b0360a01b82541617905560018060a01b0390511660028c019060018060a01b03166001600160601b0360a01b8254161790555160038b015560018060a01b0390511660048a019060018060a01b03166001600160601b0360a01b82541617905551600589015551600688015551600787015561181b6008870193511515849060ff801983541691151516179055565b5160028110156119795761ff0083549160081b169061ff0019161782555190600482101561196557928b9492611858600a936118709998966125e5565b5160098401555191015561186b8b612231565b612133565b901561194c578752600860205261188a8660408920613180565b60408051948552602085019190915260a4359084015260608301526080820152600160a0820152827ff56f9365c7c8105f65df67c4e15540f72e12389f8e75e43662f326ceaf51e8d560c03393a46118e181612606565b808252600260205260ff600860408420015460101c166004811015610e5c57602092816001921590811561192c575b5061191e5755604051908152f35b61192783612d8a565b6107d9565b8391501438611910565b634e487b7160e01b600052602160045260246000fd5b8752600960205261196086604089206130bd565b61188a565b634e487b7160e01b8f52602160045260248ffd5b50634e487b7160e01b8f52602160045260248ffd5b866001600160a01b038616803b1561048057816040518092637921219560e11b82528183816119c38a8d3033600486016120fa565b03925af1801561088a576119d9575b5050611680565b816119e391611fb7565b6119ee5786386119d2565b8680fd5b63162908e360e11b8752600487fd5b503461022357611a1036611e4f565b919081526009602052604081209081548310156102235760206104b68484611eac565b503461022357602036600319011261022357600435906003548210156102235760035482101561020f576020916003825282822001549060031b1c604051908152f35b5034610223576040366003190112610223576040608091611a95611e6a565b8160608451611aa381611f2e565b828152826020820152828682015201528251611ae381611010602082019460043586909160349282526001600160601b03199060601b1660208201520190565b5190208152600b60205220604051611afa81611f2e565b60018060a01b0382541691828252600181015460208301908152606060036002840154936040860194855201549301928352604051938452516020840152516040830152516060820152f35b50346102235760203660031901126102235760043563ffffffff60e01b811680910361048057602090630271189760e51b8114908115611b8c575b506040519015158152f35b6301ffc9a760e01b14905082611b81565b503461022357611bac36611e4f565b9190611bb66124b5565b808252600a6020526040822092835415611d7e5760408051602081018481523360601b6001600160601b03191692820192909252611bf78160548101611010565b5190208352600b6020526002604084200181815410611d6f57846004611c6595960191825492611c6c85611c2b86826120a4565b6006860193611c3c855480936120cd565b9a8b986005890192835490611c65611c5d87611c58858b6120a4565b6120cd565b9c8d946120ed565b90556120ed565b9055611c798482546120ed565b905560018060a01b03600182015416866002830154823b1561048057611cba92889183604051809681958294637921219560e11b84523330600486016120fa565b03925af18015611d6457611d26575b50600301547f1644e236c5520c62ce0dee793b42f87f940781d55b02c890fbbcdfff1ee5e251929190611d0890829033906001600160a01b031661250b565b60408051958652602086019190915284015233928060608101611069565b8287611d597f1644e236c5520c62ce0dee793b42f87f940781d55b02c890fbbcdfff1ee5e25196959499611d0894611fb7565b979250929350611cc9565b6040513d89823e3d90fd5b631e9acf1760e31b8452600484fd5b6301dbb3ff60e61b8352600483fd5b9050346104805760203660031901126104805760406101809260043581526005602052208054906001810154600282015460018060a01b0360038401541660018060a01b0360048501541660018060a01b0360058601541660068601549160018060a01b0360078801541693600888015495600989015497600b600a8b01549a01549a8c5260208c015260408b015260608a0152608089015260a088015260c087015260e0860152610100850152610120840152610140830152610160820152f35b6040906003190112611e65576004359060243590565b600080fd5b602435906001600160a01b0382168203611e6557565b600435906001600160a01b0382168203611e6557565b604435906001600160a01b0382168203611e6557565b8054821015611ec45760005260206000200190600090565b634e487b7160e01b600052603260045260246000fd5b6060906003190112611e65576004356001600160a01b0381168103611e655790602435906044356001600160a01b0381168103611e655790565b9060028210156119365752565b9060048210156119365752565b6080810190811067ffffffffffffffff821117611f4a57604052565b634e487b7160e01b600052604160045260246000fd5b6101a0810190811067ffffffffffffffff821117611f4a57604052565b610180810190811067ffffffffffffffff821117611f4a57604052565b610100810190811067ffffffffffffffff821117611f4a57604052565b90601f8019910116810190811067ffffffffffffffff821117611f4a57604052565b9080601f83011215611e655781359167ffffffffffffffff8311611f4a578260051b906040519361200d6020840186611fb7565b8452602080850192820101928311611e6557602001905b8282106120315750505090565b8135815260209182019101612024565b67ffffffffffffffff8111611f4a57601f01601f191660200190565b81601f82011215611e655780359061207482612041565b926120826040519485611fb7565b82845260208383010111611e6557816000926020809301838601378301015290565b818102929181159184041417156120b757565b634e487b7160e01b600052601160045260246000fd5b81156120d7570490565b634e487b7160e01b600052601260045260246000fd5b919082039182116120b757565b6001600160a01b039182168152911660208201526040810191909152606081019190915260a06080820181905260009082015260c00190565b916040519160208301936001600160601b03199060601b16845260348301526001600160601b03199060601b16605482015260488152612174606882611fb7565b51902090565b60028210156119365752565b600052600960205260406000206000908054915b8281106121ac57505050600090600090565b6121b68183611eac565b90549060031b1c6000526002602052604060002060ff600882015460101c166004811015611936578015908115612219575b506121f6575060010161219a565b8094935061221692506005915001549260076006820154910154906120ed565b90565b6001915014386121e8565b919082018092116120b757565b60035490600160401b821015611f4a5761225682600161226f94016003556003611eac565b90919082549060031b91821b91600019901b1916179055565b565b90815491600160401b831015611f4a578261225691600161226f95018155611eac565b604051631c1bdbdb60e21b602082019081526001600160601b0319606084811b821660248501526038840186905286901b166058830152604c825292936001600160a01b0390811693921691906122ec606c82611fb7565b5190209283600052600a602052604060002054612434576123df60405161231281611f9a565b8581526007602082018581526040830185815260608401888152608085016000815260a08601916000835260c08701936000855260e0880195600187528d600052600a60205260406000209851895560018060a01b03905116600189019060018060a01b03166001600160601b0360a01b82541617905551600288015560018060a01b03905116600387019060018060a01b03166001600160601b0360a01b82541617905551600486015551600585015551600684015551151591019060ff801983541691151516179055565b600c5490600160401b821015611f4a5760207fc7d2f5d284e3e83c6f4e64072799c2c021ed525ea65a71a56ccb34d31b5413769161242a87612256866001839801600c55600c611eac565b604051908152a490565b50505090565b600052600860205260406000206000908054915b82811061246057505050600090600090565b61246a8183611eac565b90549060031b1c6000526002602052604060002060ff600882015460101c1660048110156119365780159081156124aa575b506121f6575060010161244e565b60019150143861249c565b6002600054146124c6576002600055565b60405162461bcd60e51b815260206004820152601f60248201527f5265656e7472616e637947756172643a207265656e7472616e742063616c6c006044820152606490fd5b60405163a9059cbb60e01b60208201526001600160a01b03909216602483015260448083019390935291815261226f91612546606483611fb7565b612fa1565b60ff60015460a01c1661255a57565b60405162461bcd60e51b815260206004820152601060248201526f14185d5cd8589b194e881c185d5cd95960821b6044820152606490fd5b6040516323b872dd60e01b60208201526001600160a01b03928316602482015292909116604483015260648083019390935291815261226f91612546608483611fb7565b60001981146120b75760010190565b9060048110156119365762ff000082549160101b169062ff00001916179055565b6080526080516000526002602052604060002061264160018060a01b03600283015416600383015460018060a01b0360048501541691612133565b91600882019260ff845416600090600014612d7a5750600052600960205260406000205b61267860068401546007850154906120ed565b9160005b8254811080612d71575b15612d69576126958184611eac565b90549060031b1c6000526002602052604060002060ff600882015460101c166004811015611936578015159081612d5d575b50612d5357865460ff1615612d3a576005810154600587015410612d31575b6126f960068201546007830154906120ed565b80861015612d2c5750845b8061271a575b5050612715906125d6565b61267c565b600561272a848798949598611eac565b90549060031b1c930154916080516000526002602052604060002093806000526002602052604060002060a052600754612763816125d6565b6007556040516020810191825242604082015260408152612785606082611fb7565b5190209461279384866120a4565b956127a2856007840154612224565b60078301556127b785600760a0510154612224565b600760a051015542600a83015542600a60a0510155600782015460068301541115600014612d145760088201805462ff00001916620200001790555b60a051600781015460069091015411612cfa5760a051600801805462ff00001916620200001790555b61271061282b600d54896120a4565b0461271061283b600e548a6120a4565b049760ff600885015416600014612c60576002840154600185015460038601546001600160a01b0392831692909116823b15611e655761289992600092838c9360405196879586948593637921219560e11b855230600486016120fa565b03925af18015612c5457612c43575b50600484015460a051600101546128d6916001600160a01b0390811691166128d08c856120ed565b9161250b565b6128e08983612224565b612c1b575b60018060a01b03600185015416600b84878a8c60018060a01b03600160a05101541660018060a01b0360028c01541660038c0154908c600460018060a01b039101541692604051996129368b611f7d565b888b5260208b0197608051895260408c0190815260608c0191825260808c0192835260a08c0193845260c08c0194855260e08c019586526101008c019687526101208c019788526101408c01988d8a526101608d019a428c52600052600560205260406000209c518d555160018d01555160028c015560018060a01b0390511660038b019060018060a01b03166001600160601b0360a01b82541617905560018060a01b0390511660048a019060018060a01b03166001600160601b0360a01b82541617905560018060a01b03905116600589019060018060a01b03166001600160601b0360a01b82541617905551600688015560018060a01b03905116600787019060018060a01b03166001600160601b0360a01b82541617905551600886015551600985015551600a8401555191015560065491600160401b831015611f4a5761271599612c139989867f9866e5d59a0eb53df5a0fd585d490f8bdddf8e29e38efc7596bcca4c3a17808e60c08a606098848e612ae2826122567ff2157d9acd14e67f414f1635f8643fa9628b9dc99ddf69358510bb7d2045c9269f600181016006556006611eac565b604080516080518a8252602082018c90529181018590527f26e28f7ff914ff6e5bb6c995fdb96ff95d3e3eb88e9b9b09569385d3793fc32390606090a460018060a01b036001830154169560018060a01b03600160a05101541697600360018060a01b03600286015416940154604051948552602085015260408401528a83015260808201524260a0820152a4604051918252602082015260006040820152a26000805160206133208339815191526006612bb160ff600885015460101c1693600781015492839101546120ed565b90612bc56040519283926080519684613232565b0390a260008051602061332083398151915260ff600860a051015460101c16600760a051015490612c0b612bff83600660a05101546120ed565b60405193849384613232565b0390a26120ed565b93903861270a565b6004840154601054612c3e916001600160a01b0390811691166128d08c86612224565b6128e5565b6000612c4e91611fb7565b386128a8565b6040513d6000823e3d90fd5b600284015460a0516001015460038601546001600160a01b0392831692909116823b15611e6557612caf92600092838c9360405196879586948593637921219560e11b855230600486016120fa565b03925af18015612c5457612ce9575b5060048401546001850154612ce4916001600160a01b0390811691166128d085856120ed565b6128d6565b6000612cf491611fb7565b38612cbe565b60a051600801805462ff000019166201000017905561281c565b60088201805462ff00001916620100001790556127f3565b612704565b50509350505050565b6005810154600587015411156126e65750509350505050565b50612715906125d6565b600191501415386126c7565b509350505050565b50831515612686565b6040918152600860205220612665565b600081815260026020526040812060068101549083612daf60078301938454906120ed565b91600881016203000062ff00001982541617815542600a83015583612e22575b509160609391600080516020613340833981519152602060008051602061332083398151915297956001808060a01b039101541693604051908152a35490604051916003835260208301526040820152a2565b5460ff1615612e8c579160609391600080516020613340833981519152602085612e7f612e638660056000805160206133208339815191529c9a01546120a4565b600483015460018401546001600160a01b03908116911661250b565b9395975050509193612dcf565b6002810154600182015460038301549293506001600160a01b03918216929116823b156119ee57612eda92879283879360405196879586948593637921219560e11b855230600486016120fa565b03925af18015612f3e57606094926000805160206133208339815191529694928892612f19575b50602060008051602061334083398151915291612e7f565b85612f366000805160206133408339815191529397602093611fb7565b959150612f01565b6040513d87823e3d90fd5b6001546001600160a01b03163303612f5d57565b606460405162461bcd60e51b815260206004820152602060248201527f4f776e61626c653a2063616c6c6572206973206e6f7420746865206f776e65726044820152fd5b604080519092613025926001600160a01b0316906000908190612fc48786611fb7565b602085527f5361666545524332303a206c6f772d6c6576656c2063616c6c206661696c6564602086015260208151910182855af13d156130b5573d9161300983612041565b9261301687519485611fb7565b83523d6000602085013e61324f565b8051908115918215613092575b50501561303c5750565b5162461bcd60e51b815260206004820152602a60248201527f5361666545524332303a204552433230206f7065726174696f6e20646964206e6044820152691bdd081cdd58d8d9595960b21b6064820152608490fd5b8192509060209181010312611e6557602001518015158103611e65573880613032565b60609161324f565b6000828152600260205260408120600501549291905b8154811015613178576130e68183611eac565b90549060031b1c6000526002602052600560406000200154841061310c576001016130d3565b9192505b61311a8382612271565b805460001981019081116120b7575b82811161313f575061226f929161225691611eac565b60001981018181116120b7576131586131699184611eac565b90549060031b1c6122568385611eac565b80156120b75760001901613129565b919250613110565b6000828152600260205260408120600501549291905b815481101561322a576131a98183611eac565b90549060031b1c600052600260205260056040600020015484116131cf57600101613196565b9192505b6131dd8382612271565b805460001981019081116120b7575b828111613202575061226f929161225691611eac565b60001981018181116120b75761315861321b9184611eac565b80156120b757600019016131ec565b9192506131d3565b604091949392613246826060810197611f21565b60208201520152565b919290156132b15750815115613263575090565b3b1561326c5790565b60405162461bcd60e51b815260206004820152601d60248201527f416464726573733a2063616c6c20746f206e6f6e2d636f6e74726163740000006044820152606490fd5b8251909150156132c45750805190602001fd5b6040519062461bcd60e51b8252602060048301528181519182602483015260005b8381106133075750508160006044809484010152601f80199101168101030190fd5b602082820181015160448784010152859350016132e556fe39d87542c7ecd619c7f7b80744eae19dad5d555818089816c04dc2f8b19c51d0b2705df32ac67fc3101f496cd7036bf59074a603544d97d73650b6f09744986aa26469706673582212209bc07b911b406eee55e97b05bc87b478196f863bcccd5b1f2b699cd9e1771f3b64736f6c634300081c0033",
  "linkReferences": {},
  "deployedLinkReferences": {}
}