{
  "_format": "hh-sol-artifact-1",
  "contractName": "NodesFacet",
  "sourceName": "contracts/diamond/facets/NodesFacet.sol",
  "abi": [
    {
      "inputs": [],
      "name": "InvalidInitialization",
      "type": "error"
    },
    {
      "inputs": [],
      "name": "NotInitializing",
      "type": "error"
    },
    {
      "anonymous": false,
      "inputs": [
        {
          "indexed": false,
          "internalType": "uint64",
          "name": "version",
          "type": "uint64"
        }
      ],
      "name": "Initialized",
      "type": "event"
    },
    {
      "anonymous": false,
      "inputs": [
        {
          "indexed": true,
          "internalType": "bytes32",
          "name": "nodeHash",
          "type": "bytes32"
        },
        {
          "indexed": false,
          "internalType": "uint256[]",
          "name": "quantities",
          "type": "uint256[]"
        }
      ],
      "name": "NodeCapacityUpdated",
      "type": "event"
    },
    {
      "anonymous": false,
      "inputs": [
        {
          "indexed": true,
          "internalType": "bytes32",
          "name": "nodeHash",
          "type": "bytes32"
        }
      ],
      "name": "NodeDeactivated",
      "type": "event"
    },
    {
      "anonymous": false,
      "inputs": [
        {
          "indexed": true,
          "internalType": "bytes32",
          "name": "nodeHash",
          "type": "bytes32"
        },
        {
          "indexed": true,
          "internalType": "address",
          "name": "owner",
          "type": "address"
        },
        {
          "indexed": false,
          "internalType": "string",
          "name": "nodeType",
          "type": "string"
        }
      ],
      "name": "NodeRegistered",
      "type": "event"
    },
    {
      "anonymous": false,
      "inputs": [
        {
          "indexed": true,
          "internalType": "bytes32",
          "name": "nodeHash",
          "type": "bytes32"
        },
        {
          "indexed": false,
          "internalType": "string",
          "name": "nodeType",
          "type": "string"
        },
        {
          "indexed": false,
          "internalType": "uint256",
          "name": "capacity",
          "type": "uint256"
        }
      ],
      "name": "NodeUpdated",
      "type": "event"
    },
    {
      "anonymous": false,
      "inputs": [
        {
          "indexed": true,
          "internalType": "bytes32",
          "name": "nodeHash",
          "type": "bytes32"
        },
        {
          "indexed": false,
          "internalType": "address",
          "name": "token",
          "type": "address"
        },
        {
          "indexed": false,
          "internalType": "uint256",
          "name": "tokenId",
          "type": "uint256"
        },
        {
          "indexed": false,
          "internalType": "uint256",
          "name": "price",
          "type": "uint256"
        },
        {
          "indexed": false,
          "internalType": "uint256",
          "name": "capacity",
          "type": "uint256"
        }
      ],
      "name": "SupportedAssetAdded",
      "type": "event"
    },
    {
      "anonymous": false,
      "inputs": [
        {
          "indexed": true,
          "internalType": "bytes32",
          "name": "nodeHash",
          "type": "bytes32"
        },
        {
          "indexed": false,
          "internalType": "uint256",
          "name": "count",
          "type": "uint256"
        }
      ],
      "name": "SupportedAssetsUpdated",
      "type": "event"
    },
    {
      "anonymous": false,
      "inputs": [
        {
          "indexed": true,
          "internalType": "string",
          "name": "addressName",
          "type": "string"
        },
        {
          "indexed": false,
          "internalType": "string",
          "name": "lat",
          "type": "string"
        },
        {
          "indexed": false,
          "internalType": "string",
          "name": "lng",
          "type": "string"
        },
        {
          "indexed": true,
          "internalType": "bytes32",
          "name": "node",
          "type": "bytes32"
        }
      ],
      "name": "UpdateLocation",
      "type": "event"
    },
    {
      "anonymous": false,
      "inputs": [
        {
          "indexed": true,
          "internalType": "address",
          "name": "owner",
          "type": "address"
        },
        {
          "indexed": true,
          "internalType": "bytes32",
          "name": "node",
          "type": "bytes32"
        }
      ],
      "name": "UpdateOwner",
      "type": "event"
    },
    {
      "anonymous": false,
      "inputs": [
        {
          "indexed": true,
          "internalType": "bytes1",
          "name": "status",
          "type": "bytes1"
        },
        {
          "indexed": true,
          "internalType": "bytes32",
          "name": "node",
          "type": "bytes32"
        }
      ],
      "name": "UpdateStatus",
      "type": "event"
    },
    {
      "inputs": [
        {
          "internalType": "bytes32",
          "name": "_node",
          "type": "bytes32"
        },
        {
          "internalType": "address",
          "name": "_token",
          "type": "address"
        },
        {
          "internalType": "uint256",
          "name": "_tokenId",
          "type": "uint256"
        },
        {
          "internalType": "uint256",
          "name": "_price",
          "type": "uint256"
        },
        {
          "internalType": "uint256",
          "name": "_capacity",
          "type": "uint256"
        }
      ],
      "name": "addSupportedAsset",
      "outputs": [
        {
          "internalType": "uint256",
          "name": "assetId",
          "type": "uint256"
        }
      ],
      "stateMutability": "nonpayable",
      "type": "function"
    },
    {
      "inputs": [
        {
          "internalType": "bytes32",
          "name": "_nodeHash",
          "type": "bytes32"
        }
      ],
      "name": "deactivateNode",
      "outputs": [],
      "stateMutability": "nonpayable",
      "type": "function"
    },
    {
      "inputs": [
        {
          "internalType": "bytes32",
          "name": "_nodeHash",
          "type": "bytes32"
        }
      ],
      "name": "getNode",
      "outputs": [
        {
          "internalType": "address",
          "name": "owner",
          "type": "address"
        },
        {
          "internalType": "string",
          "name": "nodeType",
          "type": "string"
        },
        {
          "internalType": "uint256",
          "name": "capacity",
          "type": "uint256"
        },
        {
          "internalType": "uint256",
          "name": "createdAt",
          "type": "uint256"
        },
        {
          "internalType": "bool",
          "name": "active",
          "type": "bool"
        },
        {
          "internalType": "bool",
          "name": "validNode",
          "type": "bool"
        },
        {
          "internalType": "bytes32",
          "name": "assetHash",
          "type": "bytes32"
        },
        {
          "internalType": "string",
          "name": "addressName",
          "type": "string"
        },
        {
          "internalType": "string",
          "name": "lat",
          "type": "string"
        },
        {
          "internalType": "string",
          "name": "lng",
          "type": "string"
        }
      ],
      "stateMutability": "view",
      "type": "function"
    },
    {
      "inputs": [
        {
          "internalType": "bytes32",
          "name": "_node",
          "type": "bytes32"
        }
      ],
      "name": "getNodeAssets",
      "outputs": [
        {
          "components": [
            {
              "internalType": "address",
              "name": "token",
              "type": "address"
            },
            {
              "internalType": "uint256",
              "name": "tokenId",
              "type": "uint256"
            },
            {
              "internalType": "uint256",
              "name": "price",
              "type": "uint256"
            },
            {
              "internalType": "uint256",
              "name": "capacity",
              "type": "uint256"
            },
            {
              "internalType": "uint256",
              "name": "createdAt",
              "type": "uint256"
            },
            {
              "internalType": "bool",
              "name": "active",
              "type": "bool"
            }
          ],
          "internalType": "struct DiamondStorage.NodeAsset[]",
          "name": "",
          "type": "tuple[]"
        }
      ],
      "stateMutability": "view",
      "type": "function"
    },
    {
      "inputs": [
        {
          "internalType": "address",
          "name": "_owner",
          "type": "address"
        }
      ],
      "name": "getOwnerNodes",
      "outputs": [
        {
          "internalType": "bytes32[]",
          "name": "",
          "type": "bytes32[]"
        }
      ],
      "stateMutability": "view",
      "type": "function"
    },
    {
      "inputs": [
        {
          "internalType": "bytes32",
          "name": "_node",
          "type": "bytes32"
        }
      ],
      "name": "getTotalNodeAssets",
      "outputs": [
        {
          "internalType": "uint256",
          "name": "",
          "type": "uint256"
        }
      ],
      "stateMutability": "view",
      "type": "function"
    },
    {
      "inputs": [],
      "name": "getTotalNodes",
      "outputs": [
        {
          "internalType": "uint256",
          "name": "",
          "type": "uint256"
        }
      ],
      "stateMutability": "view",
      "type": "function"
    },
    {
      "inputs": [],
      "name": "initialize",
      "outputs": [],
      "stateMutability": "nonpayable",
      "type": "function"
    },
    {
      "inputs": [
        {
          "internalType": "string",
          "name": "_nodeType",
          "type": "string"
        },
        {
          "internalType": "uint256",
          "name": "_capacity",
          "type": "uint256"
        },
        {
          "internalType": "bytes32",
          "name": "_assetHash",
          "type": "bytes32"
        },
        {
          "internalType": "string",
          "name": "_addressName",
          "type": "string"
        },
        {
          "internalType": "string",
          "name": "_lat",
          "type": "string"
        },
        {
          "internalType": "string",
          "name": "_lng",
          "type": "string"
        }
      ],
      "name": "registerNode",
      "outputs": [
        {
          "internalType": "bytes32",
          "name": "nodeHash",
          "type": "bytes32"
        }
      ],
      "stateMutability": "nonpayable",
      "type": "function"
    },
    {
      "inputs": [
        {
          "internalType": "bytes32",
          "name": "_nodeHash",
          "type": "bytes32"
        },
        {
          "internalType": "string",
          "name": "_nodeType",
          "type": "string"
        },
        {
          "internalType": "uint256",
          "name": "_capacity",
          "type": "uint256"
        }
      ],
      "name": "updateNode",
      "outputs": [],
      "stateMutability": "nonpayable",
      "type": "function"
    },
    {
      "inputs": [
        {
          "internalType": "bytes32",
          "name": "_node",
          "type": "bytes32"
        },
        {
          "internalType": "uint256[]",
          "name": "_quantities",
          "type": "uint256[]"
        }
      ],
      "name": "updateNodeCapacity",
      "outputs": [],
      "stateMutability": "nonpayable",
      "type": "function"
    },
    {
      "inputs": [
        {
          "internalType": "string",
          "name": "_addressName",
          "type": "string"
        },
        {
          "internalType": "string",
          "name": "_lat",
          "type": "string"
        },
        {
          "internalType": "string",
          "name": "_lng",
          "type": "string"
        },
        {
          "internalType": "bytes32",
          "name": "_node",
          "type": "bytes32"
        }
      ],
      "name": "updateNodeLocation",
      "outputs": [],
      "stateMutability": "nonpayable",
      "type": "function"
    },
    {
      "inputs": [
        {
          "internalType": "address",
          "name": "_owner",
          "type": "address"
        },
        {
          "internalType": "bytes32",
          "name": "_node",
          "type": "bytes32"
        }
      ],
      "name": "updateNodeOwner",
      "outputs": [],
      "stateMutability": "nonpayable",
      "type": "function"
    },
    {
      "inputs": [
        {
          "internalType": "bytes1",
          "name": "_status",
          "type": "bytes1"
        },
        {
          "internalType": "bytes32",
          "name": "_node",
          "type": "bytes32"
        }
      ],
      "name": "updateNodeStatus",
      "outputs": [],
      "stateMutability": "nonpayable",
      "type": "function"
    },
    {
      "inputs": [
        {
          "internalType": "bytes32",
          "name": "_node",
          "type": "bytes32"
        },
        {
          "internalType": "address[]",
          "name": "_tokens",
          "type": "address[]"
        },
        {
          "internalType": "uint256[]",
          "name": "_tokenIds",
          "type": "uint256[]"
        },
        {
          "internalType": "uint256[]",
          "name": "_prices",
          "type": "uint256[]"
        },
        {
          "internalType": "uint256[]",
          "name": "_capacities",
          "type": "uint256[]"
        }
      ],
      "name": "updateSupportedAssets",
      "outputs": [],
      "stateMutability": "nonpayable",
      "type": "function"
    }
  ],
  "bytecode": "0x60808060405234601557612122908161001b8239f35b600080fdfe6080604052600436101561001257600080fd5b60003560e01c806316261e9914611bf85780632bef7fb514611a285780633e691b1f146119ef5780634b1f5c701461186b578063506a17b21461117957806350c946fe1461107a57806363584ecd1461104f578063641b8fc714610e4f5780636766c71714610ae35780638129fc1c146109b1578063a244439014610922578063b59d3bea14610876578063c83f7ca414610676578063d24e25d3146101ed5763d9ff9ee4146100c157600080fd5b346101e85760403660031901126101e8576004356024356001600160401b0381116101e8576100f4903690600401611ded565b908060005260008051602061202d83398151915260205261012360018060a01b03604060002054163314611e4a565b600091825b81518410156101665761013b8483612018565b51810180911161015057600190930192610128565b634e487b7160e01b600052601160045260246000fd5b8260005260008051602061202d833981519152602052600260406000200155604051906020820160208352815180915260206040840192019060005b8181106101d257857f0ba8897d9f036845821306a8b0ef4b9e1bd6008cd1c751e3e973393d3eb02c6786860387a2005b82518452602093840193909201916001016101a2565b600080fd5b346101e85760803660031901126101e8576004356001600160401b0381116101e85761021d903690600401611d38565b6024356001600160401b0381116101e85761023c903690600401611d38565b6044356001600160401b0381116101e85761025b903690600401611d38565b606435918260005260008051602061202d83398151915260205261028d60018060a01b03604060002054163314611e4a565b8260005260008051602061202d833981519152602052600660406000200184516001600160401b038111610520576102c58254611f23565b601f8111610644575b50806020601f82116001146105e1576000916105d6575b508160011b916000199060031b1c19161790555b8260005260008051602061202d833981519152602052600760406000200181516001600160401b038111610520576103318254611f23565b601f81116105a4575b50806020601f821160011461054157600091610536575b508160011b916000199060031b1c19161790555b8260005260008051602061202d8339815191526020526008604060002001938251946001600160401b0386116105205761039f8154611f23565b601f81116104e3575b50602095601f81116001146104515761043393926104419282610419937f6d4f5fd0ce62a7415667829e69a607591b1340642edf45dabe39592bab39881598999a600091610446575b508160011b916000199060031b1c19161790555b602060405192828480945193849201611d8e565b810103902094604051938493604085526040850190611db1565b908382036020850152611db1565b0390a3005b90508901518b6103f1565b601f19811682600052876000209060005b8181106104cb5750926001836104339796937f6d4f5fd0ce62a7415667829e69a607591b1340642edf45dabe39592bab398815999a9b6104199661044198106104b2575b5050811b019055610405565b8b015160001960f88460031b161c191690558b806104a6565b878a015183556020998a019960019093019201610462565b61051090826000526020600020601f890160051c81019160208a10610516575b601f0160051c0190611f5d565b866103a8565b9091508190610503565b634e487b7160e01b600052604160045260246000fd5b905083015187610351565b60008481528181209250601f198416905b81811061058c57509083600194939210610573575b5050811b019055610365565b85015160001960f88460031b161c191690558780610567565b9192602060018192868a015181550194019201610552565b6105d090836000526020600020601f840160051c8101916020851061051657601f0160051c0190611f5d565b8661033a565b9050860151876102e5565b60008481528181209250601f198416905b81811061062c57509083600194939210610613575b5050811b0190556102f9565b88015160001960f88460031b161c191690558780610607565b9192602060018192868d0151815501940192016105f2565b61067090836000526020600020601f840160051c8101916020851061051657601f0160051c0190611f5d565b866102ce565b346101e85760203660031901126101e857600435806000526000805160206120cd8339815191526020526040600020546106af81611dd6565b916106bd6040519384611d17565b818352601f196106cc83611dd6565b0160005b81811061083557505060005b828110610766578360405180916020820160208352815180915260206040840192019060005b818110610710575050500390f35b91935091602060c060019260a087518580831b03815116835284810151858401526040810151604084015260608101516060840152608081015160808401520151151560a0820152019401910191849392610702565b600190826000527f31c1f8402397e5b1e3d75f3da7207ce6f54556b27afe723742768c4e4be50ce66020526040600020836000526000805160206120cd8339815191526020526107ba826040600020611e96565b90549060031b1c600052602052604060002060ff6005604051926107dd84611cfc565b858060a01b038154168452858101546020850152600281015460408501526003810154606085015260048101546080850152015416151560a08201526108238287612018565b5261082e8186612018565b50016106dc565b60209060405161084481611cfc565b60008152600083820152600060408201526000606082015260006080820152600060a0820152828288010152016106d0565b346101e85760203660031901126101e857610897610892611ce6565b611eea565b6040518060208354918281520190819360005260206000209060005b81811061090c57505050816108c9910382611d17565b6040519182916020830190602084525180915260408301919060005b8181106108f3575050500390f35b82518452859450602093840193909201916001016108e5565b82548452602090930192600192830192016108b3565b346101e85760203660031901126101e8576004358060005260008051602061202d83398151915260205261096460018060a01b03604060002054163314611e4a565b8060005260008051602061202d833981519152602052600460406000200160ff1981541690557f62b30865c6dddf92caa7594e1394397e7119c9947678e4faba379edb7c0ed6fc600080a2005b346101e85760003660031901126101e8576000805160206120ad8339815191525460ff8160401c1615906001600160401b03811680159081610adb575b6001149081610ad1575b159081610ac8575b50610ab75767ffffffffffffffff1981166001176000805160206120ad8339815191525581610a8a575b50610a3157005b68ff0000000000000000196000805160206120ad83398151915254166000805160206120ad833981519152557fc7f505b2f371ae2175ee4913f4499e1f2633a7b5936321eed1cdaeb6115181d2602060405160018152a1005b68ffffffffffffffffff191668010000000000000001176000805160206120ad8339815191525581610a2a565b63f92ee8a960e01b60005260046000fd5b90501583610a00565b303b1591506109f8565b8391506109ee565b346101e85760a03660031901126101e8576024356004356001600160401b0382116101e857366023830112156101e8578160040135610b2181611dd6565b92610b2f6040519485611d17565b8184526024602085019260051b820101903682116101e857602401915b818310610e2f575050506044356001600160401b0381116101e857610b75903690600401611ded565b906064356001600160401b0381116101e857610b95903690600401611ded565b916084356001600160401b0381116101e857610bb5903690600401611ded565b928260005260008051602061202d833981519152602052610be460018060a01b03604060002054163314611e4a565b845182518091149081610e24575b5080610e19575b15610ddc57826000526000805160206120cd833981519152602052604060002080546000825580610dc0575b50508260005260008051602061204d8339815191526020526000604081205560005b8551811015610d7457600190610d4a6001600160a01b03610c68838a612018565b51166005610c768488612018565b51610c818588612018565b51610c8c868c612018565b5160405194610c9a86611cfc565b8552602085019283526040850191825260608501908152608085019142835260a08601938985528c6000527f31c1f8402397e5b1e3d75f3da7207ce6f54556b27afe723742768c4e4be50ce66020526040600020896000526020526040600020968a8060a01b03908b8060a01b03905116166001600160601b0360a01b885416178755518987015551600286015551600385015551600484015551151591019060ff801983541691151516179055565b846000526000805160206120cd833981519152602052610d6e816040600020611ec4565b01610c47565b837f1af735b16f6f4fafd4fc099d20078fb54284bf2a39073c868f6e3c71f3bb05ce60208880518460005260008051602061204d833981519152835260406000205551604051908152a2005b610dd591600052602060002090810190611f5d565b8580610c25565b60405162461bcd60e51b8152602060048201526015602482015274082e4e4c2f240d8cadccee8d040dad2e6dac2e8c6d605b1b6044820152606490fd5b508051845114610bf9565b905081511486610bf2565b82356001600160a01b03811681036101e857815260209283019201610b4c565b346101e85760603660031901126101e8576004356024356001600160401b0381116101e857610e82903690600401611d38565b6044358260005260008051602061202d833981519152602052610eb360018060a01b03604060002054163314611e4a565b8260005260008051602061202d833981519152602052600160406000200182516001600160401b03811161052057610eeb8254611f23565b601f811161101d575b506020601f8211600114610f92579181610f7c94927f9c97a40129686eef59a9bc437a9a969bc2e0e8d0b69254603e1c004dfebe00bf9694600091610f87575b508160011b916000199060031b1c19161790555b8460005260008051602061202d83398151915260205280600260406000200155604051928392604084526040840190611db1565b9060208301520390a2005b905084015188610f34565b601f1982169083600052806000209160005b8181106110055750927f9c97a40129686eef59a9bc437a9a969bc2e0e8d0b69254603e1c004dfebe00bf96949260019282610f7c989610610fec575b5050811b019055610f48565b86015160001960f88460031b161c191690558880610fe0565b9192602060018192868b015181550194019201610fa4565b61104990836000526020600020601f840160051c8101916020851061051657601f0160051c0190611f5d565b85610ef4565b346101e85760003660031901126101e857602060008051602061206d83398151915254604051908152f35b346101e85760203660031901126101e85760043560005260008051602061202d833981519152602052610140604060002061117560018060a01b0382541691611166600282015491611157600382015493600483015494600584015460ff6110e460018701611f74565b976110f160068801611f74565b9361112561110d600861110660078c01611f74565b9a01611f74565b9a6040519e8f9e8f9081528160208201520190611db1565b9560408d015260608c0152818116151560808c015260081c16151560a08a015260c089015287820360e0890152611db1565b90858203610100870152611db1565b90838203610120850152611db1565b0390f35b346101e85760c03660031901126101e8576004356001600160401b0381116101e8576111a9903690600401611d38565b6064356001600160401b0381116101e8576111c8903690600401611d38565b906084356001600160401b0381116101e8576111e8903690600401611d38565b60a4356001600160401b0381116101e857611207903690600401611d38565b9260008051602061206d8339815191525460405160208101913360601b8352426034830152605482015260548152611240607482611d17565b519020916040519161014083018381106001600160401b038211176105205760405233835260208301858152604084016024358152606085019042825260808601916001835260a08701916001835260c0880194604435865260e08901968752610100890197885261012089019b8c528960005260008051602061202d83398151915260205260406000209860018060a01b039060018060a01b03905116166001600160601b0360a01b8a54161789556001890190518051906001600160401b038211610520576113118354611f23565b601f8111611839575b50602090601f83116001146117ca5761139197969594939291600091836117bf575b50508160011b916000199060031b1c19161790555b51600289015551600388015561137a6004880192511515839060ff801983541691151516179055565b51815461ff00191690151560081b61ff0016179055565b51600584015551805160068401916001600160401b0382116105205781906113b98454611f23565b601f811161178d575b50602090601f83116001146117285760009261171d575b50508160011b916000199060031b1c19161790555b51805160078301916001600160401b0382116105205761140e8354611f23565b601f81116116eb575b50602090601f83116001146116805760089493929160009183611675575b50508160011b916000199060031b1c19161790555b0192519283516001600160401b038111610520576114688254611f23565b601f8111611643575b50602094601f82116001146115de579481929394956000926115d3575b50508160011b916000199060031b1c19161790555b6114b5816114b033611eea565b611ec4565b60008051602061208d8339815191525491600160401b831015610520576001830160008051602061208d8339815191525560009260008051602061208d833981519152548110156115bf5760008051602061208d8339815191529093527fa5a737133ebf556142595c7663178657139683ad016dd90ed4a8a99289d811f49290920180546001600160a01b0319166001600160a01b03831617905560008051602061206d833981519152546020929061156d90611e87565b60008051602061206d83398151915255817f8326de45f66576db8724d4b3fca6bd518de1924e3dd3a2a62722d49e2ed34183604051858152806115b4339588830190611db1565b0390a3604051908152f35b634e487b7160e01b84526032600452602484fd5b01519050858061148e565b601f1982169583600052806000209160005b88811061162b57508360019596979810611612575b505050811b0190556114a3565b015160001960f88460031b161c19169055858080611605565b919260206001819286850151815501940192016115f0565b61166f90836000526020600020601f840160051c8101916020851061051657601f0160051c0190611f5d565b85611471565b015190508880611435565b90601f1983169184600052816000209260005b8181106116d35750916001939185600898979694106116ba575b505050811b01905561144a565b015160001960f88460031b161c191690558880806116ad565b92936020600181928786015181550195019301611693565b61171790846000526020600020601f850160051c8101916020861061051657601f0160051c0190611f5d565b87611417565b0151905088806113d9565b60008581528281209350601f198516905b818110611775575090846001959493921061175c575b505050811b0190556113ee565b015160001960f88460031b161c1916905588808061174f565b92936020600181928786015181550195019301611739565b6117b990856000526020600020601f850160051c8101916020861061051657601f0160051c0190611f5d565b896113c2565b015190508f8061133c565b90601f1983169184600052816000209260005b81811061182157509160019391856113919b9a999897969410611808575b505050811b019055611351565b015160001960f88460031b161c191690558f80806117fb565b929360206001819287860151815501950193016117dd565b61186590846000526020600020601f850160051c8101916020861061051657601f0160051c0190611f5d565b8e61131a565b346101e85760403660031901126101e857611884611ce6565b602435908160005260008051602061202d8339815191526020526118b660018060a01b03604060002054163314611e4a565b600082815260008051602061202d8339815191526020526040902080546001600160a01b038381166001600160a01b03198316179092556118f79116611eea565b9060005b8254808210156119e657846119108386611e96565b90549060031b1c1461192557506001016118fb565b9192916000198101908111610150576119526119446119699285611e96565b90549060031b1c9284611e96565b819391549060031b91821b91600019901b19161790565b9055805480156119d05760001901906119828282611e96565b8154906000199060031b1b19169055555b6119a0826114b083611eea565b6001600160a01b03167fea9df86c47593cc2d2667911c903af95a1aaaef75c8d3e69de6840be16db8172600080a3005b634e487b7160e01b600052603160045260246000fd5b50509050611993565b346101e85760203660031901126101e85760043560005260008051602061204d8339815191526020526020604060002054604051908152f35b346101e85760a03660031901126101e8576004356024356001600160a01b038116908190036101e8576020917f9f0a9fa63d3d6d0a967854eb066a9fd32d363035dfbbf45ab2305ca076768972608060443593606435608435908560005260008051602061202d8339815191528852611aaf60018060a01b03604060002054163314611e4a565b8560005260008051602061204d8339815191528852604060002054968660005260008051602061204d83398151915289526040600020611aef8154611e87565b9055611bb8604051611b0081611cfc565b8581526005898b8d84018681526040850188815260608601918a83528c87019342855260a08801956001875260005260207f31c1f8402397e5b1e3d75f3da7207ce6f54556b27afe723742768c4e4be50ce6905260406000209060005260205260406000209660018060a01b039060018060a01b03905116166001600160601b0360a01b88541617875551600187015551600286015551600385015551600484015551151591019060ff801983541691151516179055565b866000526000805160206120cd8339815191528952611bdb886040600020611ec4565b6040519384528884015260408301526060820152a2604051908152f35b346101e85760403660031901126101e85760043560ff60f81b81168091036101e857602435908160005260008051602061202d833981519152602052611c4c60018060a01b03604060002054163314611e4a565b611cbf600160f81b82148360005260008051602061202d833981519152602052611c898160046040600020019060ff801983541691151516179055565b8360005260008051602061202d83398151915260205260046040600020019061ff00825491151560081b169061ff001916179055565b7fcf4e8a634b4e7f8aa71ff9a3c78fecb83b6b56df904521f7f1111ced91e1cbc1600080a3005b600435906001600160a01b03821682036101e857565b60c081019081106001600160401b0382111761052057604052565b90601f801991011681019081106001600160401b0382111761052057604052565b81601f820112156101e8578035906001600160401b0382116105205760405192611d6c601f8401601f191660200185611d17565b828452602083830101116101e857816000926020809301838601378301015290565b60005b838110611da15750506000910152565b8181015183820152602001611d91565b90602091611dca81518092818552858086019101611d8e565b601f01601f1916010190565b6001600160401b0381116105205760051b60200190565b9080601f830112156101e8578135611e0481611dd6565b92611e126040519485611d17565b81845260208085019260051b8201019283116101e857602001905b828210611e3a5750505090565b8135815260209182019101611e2d565b15611e5157565b60405162461bcd60e51b815260206004820152600e60248201526d2737ba103737b2329037bbb732b960911b6044820152606490fd5b60001981146101505760010190565b8054821015611eae5760005260206000200190600090565b634e487b7160e01b600052603260045260246000fd5b805490600160401b8210156105205781611952916001611ee694018155611e96565b9055565b6001600160a01b031660009081527f31c1f8402397e5b1e3d75f3da7207ce6f54556b27afe723742768c4e4be50ce36020526040902090565b90600182811c92168015611f53575b6020831014611f3d57565b634e487b7160e01b600052602260045260246000fd5b91607f1691611f32565b818110611f68575050565b60008155600101611f5d565b9060405191826000825492611f8884611f23565b8084529360018116908115611ff65750600114611faf575b50611fad92500383611d17565b565b90506000929192526020600020906000915b818310611fda575050906020611fad9282010138611fa0565b6020919350806001915483858901015201910190918492611fc1565b905060209250611fad94915060ff191682840152151560051b82010138611fa0565b8051821015611eae5760209160051b01019056fe31c1f8402397e5b1e3d75f3da7207ce6f54556b27afe723742768c4e4be50ce231c1f8402397e5b1e3d75f3da7207ce6f54556b27afe723742768c4e4be50ce831c1f8402397e5b1e3d75f3da7207ce6f54556b27afe723742768c4e4be50ce531c1f8402397e5b1e3d75f3da7207ce6f54556b27afe723742768c4e4be50ce4f0c57e16840df040f15088dc2f81fe391c3923bec73e23a9662efc9c229c6a0031c1f8402397e5b1e3d75f3da7207ce6f54556b27afe723742768c4e4be50ce7a264697066735822122079fd2f632b407253c62372622013779a002ba22361427059ea3fa0b34493734364736f6c634300081c0033",
  "linkReferences": {},
  "deployedLinkReferences": {}
}