{
  "_format": "hh-sol-artifact-1",
  "contractName": "NodesFacet",
  "sourceName": "contracts/diamond/facets/NodesFacet.sol",
  "abi": [
    {
      "anonymous": false,
      "inputs": [
        {
          "indexed": false,
          "internalType": "uint8",
          "name": "version",
          "type": "uint8"
        }
      ],
      "name": "Initialized",
      "type": "event"
    },
    {
      "anonymous": false,
      "inputs": [
        {
          "indexed": true,
          "internalType": "bytes32",
          "name": "nodeHash",
          "type": "bytes32"
        },
        {
          "indexed": false,
          "internalType": "uint256[]",
          "name": "quantities",
          "type": "uint256[]"
        }
      ],
      "name": "NodeCapacityUpdated",
      "type": "event"
    },
    {
      "anonymous": false,
      "inputs": [
        {
          "indexed": true,
          "internalType": "bytes32",
          "name": "nodeHash",
          "type": "bytes32"
        }
      ],
      "name": "NodeDeactivated",
      "type": "event"
    },
    {
      "anonymous": false,
      "inputs": [
        {
          "indexed": true,
          "internalType": "bytes32",
          "name": "nodeHash",
          "type": "bytes32"
        },
        {
          "indexed": true,
          "internalType": "address",
          "name": "owner",
          "type": "address"
        },
        {
          "indexed": false,
          "internalType": "string",
          "name": "nodeType",
          "type": "string"
        }
      ],
      "name": "NodeRegistered",
      "type": "event"
    },
    {
      "anonymous": false,
      "inputs": [
        {
          "indexed": true,
          "internalType": "bytes32",
          "name": "nodeHash",
          "type": "bytes32"
        },
        {
          "indexed": false,
          "internalType": "string",
          "name": "nodeType",
          "type": "string"
        },
        {
          "indexed": false,
          "internalType": "uint256",
          "name": "capacity",
          "type": "uint256"
        }
      ],
      "name": "NodeUpdated",
      "type": "event"
    },
    {
      "anonymous": false,
      "inputs": [
        {
          "indexed": true,
          "internalType": "bytes32",
          "name": "nodeHash",
          "type": "bytes32"
        },
        {
          "indexed": false,
          "internalType": "address",
          "name": "token",
          "type": "address"
        },
        {
          "indexed": false,
          "internalType": "uint256",
          "name": "tokenId",
          "type": "uint256"
        },
        {
          "indexed": false,
          "internalType": "uint256",
          "name": "price",
          "type": "uint256"
        },
        {
          "indexed": false,
          "internalType": "uint256",
          "name": "capacity",
          "type": "uint256"
        }
      ],
      "name": "SupportedAssetAdded",
      "type": "event"
    },
    {
      "anonymous": false,
      "inputs": [
        {
          "indexed": true,
          "internalType": "bytes32",
          "name": "nodeHash",
          "type": "bytes32"
        },
        {
          "indexed": false,
          "internalType": "uint256",
          "name": "count",
          "type": "uint256"
        }
      ],
      "name": "SupportedAssetsUpdated",
      "type": "event"
    },
    {
      "anonymous": false,
      "inputs": [
        {
          "indexed": true,
          "internalType": "string",
          "name": "addressName",
          "type": "string"
        },
        {
          "indexed": false,
          "internalType": "string",
          "name": "lat",
          "type": "string"
        },
        {
          "indexed": false,
          "internalType": "string",
          "name": "lng",
          "type": "string"
        },
        {
          "indexed": true,
          "internalType": "bytes32",
          "name": "node",
          "type": "bytes32"
        }
      ],
      "name": "UpdateLocation",
      "type": "event"
    },
    {
      "anonymous": false,
      "inputs": [
        {
          "indexed": true,
          "internalType": "address",
          "name": "owner",
          "type": "address"
        },
        {
          "indexed": true,
          "internalType": "bytes32",
          "name": "node",
          "type": "bytes32"
        }
      ],
      "name": "UpdateOwner",
      "type": "event"
    },
    {
      "anonymous": false,
      "inputs": [
        {
          "indexed": true,
          "internalType": "bytes1",
          "name": "status",
          "type": "bytes1"
        },
        {
          "indexed": true,
          "internalType": "bytes32",
          "name": "node",
          "type": "bytes32"
        }
      ],
      "name": "UpdateStatus",
      "type": "event"
    },
    {
      "inputs": [
        {
          "internalType": "bytes32",
          "name": "_node",
          "type": "bytes32"
        },
        {
          "internalType": "address",
          "name": "_token",
          "type": "address"
        },
        {
          "internalType": "uint256",
          "name": "_tokenId",
          "type": "uint256"
        },
        {
          "internalType": "uint256",
          "name": "_price",
          "type": "uint256"
        },
        {
          "internalType": "uint256",
          "name": "_capacity",
          "type": "uint256"
        }
      ],
      "name": "addSupportedAsset",
      "outputs": [
        {
          "internalType": "uint256",
          "name": "assetId",
          "type": "uint256"
        }
      ],
      "stateMutability": "nonpayable",
      "type": "function"
    },
    {
      "inputs": [
        {
          "internalType": "bytes32",
          "name": "_nodeHash",
          "type": "bytes32"
        }
      ],
      "name": "deactivateNode",
      "outputs": [],
      "stateMutability": "nonpayable",
      "type": "function"
    },
    {
      "inputs": [
        {
          "internalType": "bytes32",
          "name": "_nodeHash",
          "type": "bytes32"
        }
      ],
      "name": "getNode",
      "outputs": [
        {
          "internalType": "address",
          "name": "owner",
          "type": "address"
        },
        {
          "internalType": "string",
          "name": "nodeType",
          "type": "string"
        },
        {
          "internalType": "uint256",
          "name": "capacity",
          "type": "uint256"
        },
        {
          "internalType": "uint256",
          "name": "createdAt",
          "type": "uint256"
        },
        {
          "internalType": "bool",
          "name": "active",
          "type": "bool"
        },
        {
          "internalType": "bool",
          "name": "validNode",
          "type": "bool"
        },
        {
          "internalType": "bytes32",
          "name": "assetHash",
          "type": "bytes32"
        },
        {
          "internalType": "string",
          "name": "addressName",
          "type": "string"
        },
        {
          "internalType": "string",
          "name": "lat",
          "type": "string"
        },
        {
          "internalType": "string",
          "name": "lng",
          "type": "string"
        }
      ],
      "stateMutability": "view",
      "type": "function"
    },
    {
      "inputs": [
        {
          "internalType": "bytes32",
          "name": "_node",
          "type": "bytes32"
        }
      ],
      "name": "getNodeAssets",
      "outputs": [
        {
          "components": [
            {
              "internalType": "address",
              "name": "token",
              "type": "address"
            },
            {
              "internalType": "uint256",
              "name": "tokenId",
              "type": "uint256"
            },
            {
              "internalType": "uint256",
              "name": "price",
              "type": "uint256"
            },
            {
              "internalType": "uint256",
              "name": "capacity",
              "type": "uint256"
            },
            {
              "internalType": "uint256",
              "name": "createdAt",
              "type": "uint256"
            },
            {
              "internalType": "bool",
              "name": "active",
              "type": "bool"
            }
          ],
          "internalType": "struct DiamondStorage.NodeAsset[]",
          "name": "",
          "type": "tuple[]"
        }
      ],
      "stateMutability": "view",
      "type": "function"
    },
    {
      "inputs": [
        {
          "internalType": "address",
          "name": "_owner",
          "type": "address"
        }
      ],
      "name": "getOwnerNodes",
      "outputs": [
        {
          "internalType": "bytes32[]",
          "name": "",
          "type": "bytes32[]"
        }
      ],
      "stateMutability": "view",
      "type": "function"
    },
    {
      "inputs": [
        {
          "internalType": "bytes32",
          "name": "_node",
          "type": "bytes32"
        }
      ],
      "name": "getTotalNodeAssets",
      "outputs": [
        {
          "internalType": "uint256",
          "name": "",
          "type": "uint256"
        }
      ],
      "stateMutability": "view",
      "type": "function"
    },
    {
      "inputs": [],
      "name": "getTotalNodes",
      "outputs": [
        {
          "internalType": "uint256",
          "name": "",
          "type": "uint256"
        }
      ],
      "stateMutability": "view",
      "type": "function"
    },
    {
      "inputs": [],
      "name": "initialize",
      "outputs": [],
      "stateMutability": "nonpayable",
      "type": "function"
    },
    {
      "inputs": [
        {
          "internalType": "string",
          "name": "_nodeType",
          "type": "string"
        },
        {
          "internalType": "uint256",
          "name": "_capacity",
          "type": "uint256"
        },
        {
          "internalType": "bytes32",
          "name": "_assetHash",
          "type": "bytes32"
        },
        {
          "internalType": "string",
          "name": "_addressName",
          "type": "string"
        },
        {
          "internalType": "string",
          "name": "_lat",
          "type": "string"
        },
        {
          "internalType": "string",
          "name": "_lng",
          "type": "string"
        }
      ],
      "name": "registerNode",
      "outputs": [
        {
          "internalType": "bytes32",
          "name": "nodeHash",
          "type": "bytes32"
        }
      ],
      "stateMutability": "nonpayable",
      "type": "function"
    },
    {
      "inputs": [
        {
          "internalType": "bytes32",
          "name": "_nodeHash",
          "type": "bytes32"
        },
        {
          "internalType": "string",
          "name": "_nodeType",
          "type": "string"
        },
        {
          "internalType": "uint256",
          "name": "_capacity",
          "type": "uint256"
        }
      ],
      "name": "updateNode",
      "outputs": [],
      "stateMutability": "nonpayable",
      "type": "function"
    },
    {
      "inputs": [
        {
          "internalType": "bytes32",
          "name": "_node",
          "type": "bytes32"
        },
        {
          "internalType": "uint256[]",
          "name": "_quantities",
          "type": "uint256[]"
        }
      ],
      "name": "updateNodeCapacity",
      "outputs": [],
      "stateMutability": "nonpayable",
      "type": "function"
    },
    {
      "inputs": [
        {
          "internalType": "string",
          "name": "_addressName",
          "type": "string"
        },
        {
          "internalType": "string",
          "name": "_lat",
          "type": "string"
        },
        {
          "internalType": "string",
          "name": "_lng",
          "type": "string"
        },
        {
          "internalType": "bytes32",
          "name": "_node",
          "type": "bytes32"
        }
      ],
      "name": "updateNodeLocation",
      "outputs": [],
      "stateMutability": "nonpayable",
      "type": "function"
    },
    {
      "inputs": [
        {
          "internalType": "address",
          "name": "_owner",
          "type": "address"
        },
        {
          "internalType": "bytes32",
          "name": "_node",
          "type": "bytes32"
        }
      ],
      "name": "updateNodeOwner",
      "outputs": [],
      "stateMutability": "nonpayable",
      "type": "function"
    },
    {
      "inputs": [
        {
          "internalType": "bytes1",
          "name": "_status",
          "type": "bytes1"
        },
        {
          "internalType": "bytes32",
          "name": "_node",
          "type": "bytes32"
        }
      ],
      "name": "updateNodeStatus",
      "outputs": [],
      "stateMutability": "nonpayable",
      "type": "function"
    },
    {
      "inputs": [
        {
          "internalType": "bytes32",
          "name": "_node",
          "type": "bytes32"
        },
        {
          "internalType": "address[]",
          "name": "_tokens",
          "type": "address[]"
        },
        {
          "internalType": "uint256[]",
          "name": "_tokenIds",
          "type": "uint256[]"
        },
        {
          "internalType": "uint256[]",
          "name": "_prices",
          "type": "uint256[]"
        },
        {
          "internalType": "uint256[]",
          "name": "_capacities",
          "type": "uint256[]"
        }
      ],
      "name": "updateSupportedAssets",
      "outputs": [],
      "stateMutability": "nonpayable",
      "type": "function"
    }
  ],
  "bytecode": "0x608080604052346015576120e3908161001b8239f35b600080fdfe6080604052600436101561001257600080fd5b60003560e01c806316261e9914611bd95780632bef7fb514611a095780633e691b1f146119d05780634b1f5c701461184c578063506a17b21461115a57806350c946fe1461105b57806363584ecd14611030578063641b8fc714610e305780636766c71714610ac45780638129fc1c146109b1578063a244439014610922578063b59d3bea14610876578063c83f7ca414610676578063d24e25d3146101ed5763d9ff9ee4146100c157600080fd5b346101e85760403660031901126101e8576004356024356001600160401b0381116101e8576100f4903690600401611dce565b908060005260008051602061200e83398151915260205261012360018060a01b03604060002054163314611e2b565b600091825b81518410156101665761013b8483611ff9565b51810180911161015057600190930192610128565b634e487b7160e01b600052601160045260246000fd5b8260005260008051602061200e833981519152602052600260406000200155604051906020820160208352815180915260206040840192019060005b8181106101d257857f0ba8897d9f036845821306a8b0ef4b9e1bd6008cd1c751e3e973393d3eb02c6786860387a2005b82518452602093840193909201916001016101a2565b600080fd5b346101e85760803660031901126101e8576004356001600160401b0381116101e85761021d903690600401611d19565b6024356001600160401b0381116101e85761023c903690600401611d19565b6044356001600160401b0381116101e85761025b903690600401611d19565b606435918260005260008051602061200e83398151915260205261028d60018060a01b03604060002054163314611e2b565b8260005260008051602061200e833981519152602052600660406000200184516001600160401b038111610520576102c58254611f04565b601f8111610644575b50806020601f82116001146105e1576000916105d6575b508160011b916000199060031b1c19161790555b8260005260008051602061200e833981519152602052600760406000200181516001600160401b038111610520576103318254611f04565b601f81116105a4575b50806020601f821160011461054157600091610536575b508160011b916000199060031b1c19161790555b8260005260008051602061200e8339815191526020526008604060002001938251946001600160401b0386116105205761039f8154611f04565b601f81116104e3575b50602095601f81116001146104515761043393926104419282610419937f6d4f5fd0ce62a7415667829e69a607591b1340642edf45dabe39592bab39881598999a600091610446575b508160011b916000199060031b1c19161790555b602060405192828480945193849201611d6f565b810103902094604051938493604085526040850190611d92565b908382036020850152611d92565b0390a3005b90508901518b6103f1565b601f19811682600052876000209060005b8181106104cb5750926001836104339796937f6d4f5fd0ce62a7415667829e69a607591b1340642edf45dabe39592bab398815999a9b6104199661044198106104b2575b5050811b019055610405565b8b015160001960f88460031b161c191690558b806104a6565b878a015183556020998a019960019093019201610462565b61051090826000526020600020601f890160051c81019160208a10610516575b601f0160051c0190611f3e565b866103a8565b9091508190610503565b634e487b7160e01b600052604160045260246000fd5b905083015187610351565b60008481528181209250601f198416905b81811061058c57509083600194939210610573575b5050811b019055610365565b85015160001960f88460031b161c191690558780610567565b9192602060018192868a015181550194019201610552565b6105d090836000526020600020601f840160051c8101916020851061051657601f0160051c0190611f3e565b8661033a565b9050860151876102e5565b60008481528181209250601f198416905b81811061062c57509083600194939210610613575b5050811b0190556102f9565b88015160001960f88460031b161c191690558780610607565b9192602060018192868d0151815501940192016105f2565b61067090836000526020600020601f840160051c8101916020851061051657601f0160051c0190611f3e565b866102ce565b346101e85760203660031901126101e8576004358060005260008051602061208e8339815191526020526040600020546106af81611db7565b916106bd6040519384611cf8565b818352601f196106cc83611db7565b0160005b81811061083557505060005b828110610766578360405180916020820160208352815180915260206040840192019060005b818110610710575050500390f35b91935091602060c060019260a087518580831b03815116835284810151858401526040810151604084015260608101516060840152608081015160808401520151151560a0820152019401910191849392610702565b600190826000527f31c1f8402397e5b1e3d75f3da7207ce6f54556b27afe723742768c4e4be50ce660205260406000208360005260008051602061208e8339815191526020526107ba826040600020611e77565b90549060031b1c600052602052604060002060ff6005604051926107dd84611cdd565b858060a01b038154168452858101546020850152600281015460408501526003810154606085015260048101546080850152015416151560a08201526108238287611ff9565b5261082e8186611ff9565b50016106dc565b60209060405161084481611cdd565b60008152600083820152600060408201526000606082015260006080820152600060a0820152828288010152016106d0565b346101e85760203660031901126101e857610897610892611cc7565b611ecb565b6040518060208354918281520190819360005260206000209060005b81811061090c57505050816108c9910382611cf8565b6040519182916020830190602084525180915260408301919060005b8181106108f3575050500390f35b82518452859450602093840193909201916001016108e5565b82548452602090930192600192830192016108b3565b346101e85760203660031901126101e8576004358060005260008051602061200e83398151915260205261096460018060a01b03604060002054163314611e2b565b8060005260008051602061200e833981519152602052600460406000200160ff1981541690557f62b30865c6dddf92caa7594e1394397e7119c9947678e4faba379edb7c0ed6fc600080a2005b346101e85760003660031901126101e85760005460ff8160081c161590818092610ab7575b8015610aa0575b15610a445760ff19811660011760005581610a32575b506109fa57005b61ff0019600054166000557f7f26b83ff96e1f2b6a682f133852f6798a09c465da95921460cefb3847402498602060405160018152a1005b61ffff191661010117600055816109f3565b60405162461bcd60e51b815260206004820152602e60248201527f496e697469616c697a61626c653a20636f6e747261637420697320616c72656160448201526d191e481a5b9a5d1a585b1a5e995960921b6064820152608490fd5b50303b1580156109dd5750600160ff8216146109dd565b50600160ff8216106109d6565b346101e85760a03660031901126101e8576024356004356001600160401b0382116101e857366023830112156101e8578160040135610b0281611db7565b92610b106040519485611cf8565b8184526024602085019260051b820101903682116101e857602401915b818310610e10575050506044356001600160401b0381116101e857610b56903690600401611dce565b906064356001600160401b0381116101e857610b76903690600401611dce565b916084356001600160401b0381116101e857610b96903690600401611dce565b928260005260008051602061200e833981519152602052610bc560018060a01b03604060002054163314611e2b565b845182518091149081610e05575b5080610dfa575b15610dbd578260005260008051602061208e833981519152602052604060002080546000825580610da1575b50508260005260008051602061202e8339815191526020526000604081205560005b8551811015610d5557600190610d2b6001600160a01b03610c49838a611ff9565b51166005610c578488611ff9565b51610c628588611ff9565b51610c6d868c611ff9565b5160405194610c7b86611cdd565b8552602085019283526040850191825260608501908152608085019142835260a08601938985528c6000527f31c1f8402397e5b1e3d75f3da7207ce6f54556b27afe723742768c4e4be50ce66020526040600020896000526020526040600020968a8060a01b03908b8060a01b03905116166001600160601b0360a01b885416178755518987015551600286015551600385015551600484015551151591019060ff801983541691151516179055565b8460005260008051602061208e833981519152602052610d4f816040600020611ea5565b01610c28565b837f1af735b16f6f4fafd4fc099d20078fb54284bf2a39073c868f6e3c71f3bb05ce60208880518460005260008051602061202e833981519152835260406000205551604051908152a2005b610db691600052602060002090810190611f3e565b8580610c06565b60405162461bcd60e51b8152602060048201526015602482015274082e4e4c2f240d8cadccee8d040dad2e6dac2e8c6d605b1b6044820152606490fd5b508051845114610bda565b905081511486610bd3565b82356001600160a01b03811681036101e857815260209283019201610b2d565b346101e85760603660031901126101e8576004356024356001600160401b0381116101e857610e63903690600401611d19565b6044358260005260008051602061200e833981519152602052610e9460018060a01b03604060002054163314611e2b565b8260005260008051602061200e833981519152602052600160406000200182516001600160401b03811161052057610ecc8254611f04565b601f8111610ffe575b506020601f8211600114610f73579181610f5d94927f9c97a40129686eef59a9bc437a9a969bc2e0e8d0b69254603e1c004dfebe00bf9694600091610f68575b508160011b916000199060031b1c19161790555b8460005260008051602061200e83398151915260205280600260406000200155604051928392604084526040840190611d92565b9060208301520390a2005b905084015188610f15565b601f1982169083600052806000209160005b818110610fe65750927f9c97a40129686eef59a9bc437a9a969bc2e0e8d0b69254603e1c004dfebe00bf96949260019282610f5d989610610fcd575b5050811b019055610f29565b86015160001960f88460031b161c191690558880610fc1565b9192602060018192868b015181550194019201610f85565b61102a90836000526020600020601f840160051c8101916020851061051657601f0160051c0190611f3e565b85610ed5565b346101e85760003660031901126101e857602060008051602061204e83398151915254604051908152f35b346101e85760203660031901126101e85760043560005260008051602061200e833981519152602052610140604060002061115660018060a01b0382541691611147600282015491611138600382015493600483015494600584015460ff6110c560018701611f55565b976110d260068801611f55565b936111066110ee60086110e760078c01611f55565b9a01611f55565b9a6040519e8f9e8f9081528160208201520190611d92565b9560408d015260608c0152818116151560808c015260081c16151560a08a015260c089015287820360e0890152611d92565b90858203610100870152611d92565b90838203610120850152611d92565b0390f35b346101e85760c03660031901126101e8576004356001600160401b0381116101e85761118a903690600401611d19565b6064356001600160401b0381116101e8576111a9903690600401611d19565b906084356001600160401b0381116101e8576111c9903690600401611d19565b60a4356001600160401b0381116101e8576111e8903690600401611d19565b9260008051602061204e8339815191525460405160208101913360601b8352426034830152605482015260548152611221607482611cf8565b519020916040519161014083018381106001600160401b038211176105205760405233835260208301858152604084016024358152606085019042825260808601916001835260a08701916001835260c0880194604435865260e08901968752610100890197885261012089019b8c528960005260008051602061200e83398151915260205260406000209860018060a01b039060018060a01b03905116166001600160601b0360a01b8a54161789556001890190518051906001600160401b038211610520576112f28354611f04565b601f811161181a575b50602090601f83116001146117ab5761137297969594939291600091836117a0575b50508160011b916000199060031b1c19161790555b51600289015551600388015561135b6004880192511515839060ff801983541691151516179055565b51815461ff00191690151560081b61ff0016179055565b51600584015551805160068401916001600160401b03821161052057819061139a8454611f04565b601f811161176e575b50602090601f8311600114611709576000926116fe575b50508160011b916000199060031b1c19161790555b51805160078301916001600160401b038211610520576113ef8354611f04565b601f81116116cc575b50602090601f83116001146116615760089493929160009183611656575b50508160011b916000199060031b1c19161790555b0192519283516001600160401b038111610520576114498254611f04565b601f8111611624575b50602094601f82116001146115bf579481929394956000926115b4575b50508160011b916000199060031b1c19161790555b6114968161149133611ecb565b611ea5565b60008051602061206e8339815191525491600160401b831015610520576001830160008051602061206e8339815191525560009260008051602061206e833981519152548110156115a05760008051602061206e8339815191529093527fa5a737133ebf556142595c7663178657139683ad016dd90ed4a8a99289d811f49290920180546001600160a01b0319166001600160a01b03831617905560008051602061204e833981519152546020929061154e90611e68565b60008051602061204e83398151915255817f8326de45f66576db8724d4b3fca6bd518de1924e3dd3a2a62722d49e2ed3418360405185815280611595339588830190611d92565b0390a3604051908152f35b634e487b7160e01b84526032600452602484fd5b01519050858061146f565b601f1982169583600052806000209160005b88811061160c575083600195969798106115f3575b505050811b019055611484565b015160001960f88460031b161c191690558580806115e6565b919260206001819286850151815501940192016115d1565b61165090836000526020600020601f840160051c8101916020851061051657601f0160051c0190611f3e565b85611452565b015190508880611416565b90601f1983169184600052816000209260005b8181106116b457509160019391856008989796941061169b575b505050811b01905561142b565b015160001960f88460031b161c1916905588808061168e565b92936020600181928786015181550195019301611674565b6116f890846000526020600020601f850160051c8101916020861061051657601f0160051c0190611f3e565b876113f8565b0151905088806113ba565b60008581528281209350601f198516905b818110611756575090846001959493921061173d575b505050811b0190556113cf565b015160001960f88460031b161c19169055888080611730565b9293602060018192878601518155019501930161171a565b61179a90856000526020600020601f850160051c8101916020861061051657601f0160051c0190611f3e565b896113a3565b015190508f8061131d565b90601f1983169184600052816000209260005b81811061180257509160019391856113729b9a9998979694106117e9575b505050811b019055611332565b015160001960f88460031b161c191690558f80806117dc565b929360206001819287860151815501950193016117be565b61184690846000526020600020601f850160051c8101916020861061051657601f0160051c0190611f3e565b8e6112fb565b346101e85760403660031901126101e857611865611cc7565b602435908160005260008051602061200e83398151915260205261189760018060a01b03604060002054163314611e2b565b600082815260008051602061200e8339815191526020526040902080546001600160a01b038381166001600160a01b03198316179092556118d89116611ecb565b9060005b8254808210156119c757846118f18386611e77565b90549060031b1c1461190657506001016118dc565b91929160001981019081116101505761193361192561194a9285611e77565b90549060031b1c9284611e77565b819391549060031b91821b91600019901b19161790565b9055805480156119b15760001901906119638282611e77565b8154906000199060031b1b19169055555b6119818261149183611ecb565b6001600160a01b03167fea9df86c47593cc2d2667911c903af95a1aaaef75c8d3e69de6840be16db8172600080a3005b634e487b7160e01b600052603160045260246000fd5b50509050611974565b346101e85760203660031901126101e85760043560005260008051602061202e8339815191526020526020604060002054604051908152f35b346101e85760a03660031901126101e8576004356024356001600160a01b038116908190036101e8576020917f9f0a9fa63d3d6d0a967854eb066a9fd32d363035dfbbf45ab2305ca076768972608060443593606435608435908560005260008051602061200e8339815191528852611a9060018060a01b03604060002054163314611e2b565b8560005260008051602061202e8339815191528852604060002054968660005260008051602061202e83398151915289526040600020611ad08154611e68565b9055611b99604051611ae181611cdd565b8581526005898b8d84018681526040850188815260608601918a83528c87019342855260a08801956001875260005260207f31c1f8402397e5b1e3d75f3da7207ce6f54556b27afe723742768c4e4be50ce6905260406000209060005260205260406000209660018060a01b039060018060a01b03905116166001600160601b0360a01b88541617875551600187015551600286015551600385015551600484015551151591019060ff801983541691151516179055565b8660005260008051602061208e8339815191528952611bbc886040600020611ea5565b6040519384528884015260408301526060820152a2604051908152f35b346101e85760403660031901126101e85760043560ff60f81b81168091036101e857602435908160005260008051602061200e833981519152602052611c2d60018060a01b03604060002054163314611e2b565b611ca0600160f81b82148360005260008051602061200e833981519152602052611c6a8160046040600020019060ff801983541691151516179055565b8360005260008051602061200e83398151915260205260046040600020019061ff00825491151560081b169061ff001916179055565b7fcf4e8a634b4e7f8aa71ff9a3c78fecb83b6b56df904521f7f1111ced91e1cbc1600080a3005b600435906001600160a01b03821682036101e857565b60c081019081106001600160401b0382111761052057604052565b90601f801991011681019081106001600160401b0382111761052057604052565b81601f820112156101e8578035906001600160401b0382116105205760405192611d4d601f8401601f191660200185611cf8565b828452602083830101116101e857816000926020809301838601378301015290565b60005b838110611d825750506000910152565b8181015183820152602001611d72565b90602091611dab81518092818552858086019101611d6f565b601f01601f1916010190565b6001600160401b0381116105205760051b60200190565b9080601f830112156101e8578135611de581611db7565b92611df36040519485611cf8565b81845260208085019260051b8201019283116101e857602001905b828210611e1b5750505090565b8135815260209182019101611e0e565b15611e3257565b60405162461bcd60e51b815260206004820152600e60248201526d2737ba103737b2329037bbb732b960911b6044820152606490fd5b60001981146101505760010190565b8054821015611e8f5760005260206000200190600090565b634e487b7160e01b600052603260045260246000fd5b805490600160401b8210156105205781611933916001611ec794018155611e77565b9055565b6001600160a01b031660009081527f31c1f8402397e5b1e3d75f3da7207ce6f54556b27afe723742768c4e4be50ce36020526040902090565b90600182811c92168015611f34575b6020831014611f1e57565b634e487b7160e01b600052602260045260246000fd5b91607f1691611f13565b818110611f49575050565b60008155600101611f3e565b9060405191826000825492611f6984611f04565b8084529360018116908115611fd75750600114611f90575b50611f8e92500383611cf8565b565b90506000929192526020600020906000915b818310611fbb575050906020611f8e9282010138611f81565b6020919350806001915483858901015201910190918492611fa2565b905060209250611f8e94915060ff191682840152151560051b82010138611f81565b8051821015611e8f5760209160051b01019056fe31c1f8402397e5b1e3d75f3da7207ce6f54556b27afe723742768c4e4be50ce231c1f8402397e5b1e3d75f3da7207ce6f54556b27afe723742768c4e4be50ce831c1f8402397e5b1e3d75f3da7207ce6f54556b27afe723742768c4e4be50ce531c1f8402397e5b1e3d75f3da7207ce6f54556b27afe723742768c4e4be50ce431c1f8402397e5b1e3d75f3da7207ce6f54556b27afe723742768c4e4be50ce7a2646970667358221220efe2184c20b6ae3a2965591927da5486e1b0811926cd49e6345de47e8719ccb864736f6c634300081c0033",
  "linkReferences": {},
  "deployedLinkReferences": {}
}