{
  "_format": "hh-sol-artifact-1",
  "contractName": "Ausys",
  "sourceName": "contracts/AuSys.sol",
  "abi": [
    {
      "inputs": [
        {
          "internalType": "contract IERC20",
          "name": "token",
          "type": "address"
        }
      ],
      "stateMutability": "nonpayable",
      "type": "constructor"
    },
    {
      "inputs": [],
      "name": "AlreadySettled",
      "type": "error"
    },
    {
      "inputs": [],
      "name": "DriverMaxAssignment",
      "type": "error"
    },
    {
      "inputs": [],
      "name": "DriverNotSigned",
      "type": "error"
    },
    {
      "inputs": [],
      "name": "InvalidAddress",
      "type": "error"
    },
    {
      "inputs": [],
      "name": "InvalidAmount",
      "type": "error"
    },
    {
      "inputs": [],
      "name": "InvalidCaller",
      "type": "error"
    },
    {
      "inputs": [],
      "name": "InvalidETA",
      "type": "error"
    },
    {
      "inputs": [],
      "name": "InvalidNode",
      "type": "error"
    },
    {
      "inputs": [],
      "name": "JourneyIncomplete",
      "type": "error"
    },
    {
      "inputs": [],
      "name": "JourneyNotInProgress",
      "type": "error"
    },
    {
      "inputs": [],
      "name": "JourneyNotPending",
      "type": "error"
    },
    {
      "inputs": [],
      "name": "NotJourneyParticipant",
      "type": "error"
    },
    {
      "inputs": [],
      "name": "ReceiverNotSigned",
      "type": "error"
    },
    {
      "inputs": [],
      "name": "RewardAlreadyPaid",
      "type": "error"
    },
    {
      "inputs": [],
      "name": "SenderNotSigned",
      "type": "error"
    },
    {
      "anonymous": false,
      "inputs": [
        {
          "indexed": true,
          "internalType": "address",
          "name": "admin",
          "type": "address"
        }
      ],
      "name": "AdminSet",
      "type": "event"
    },
    {
      "anonymous": false,
      "inputs": [
        {
          "indexed": true,
          "internalType": "address",
          "name": "driver",
          "type": "address"
        },
        {
          "indexed": true,
          "internalType": "bytes32",
          "name": "journeyId",
          "type": "bytes32"
        }
      ],
      "name": "DriverAssigned",
      "type": "event"
    },
    {
      "anonymous": false,
      "inputs": [
        {
          "indexed": true,
          "internalType": "address",
          "name": "from",
          "type": "address"
        },
        {
          "indexed": false,
          "internalType": "uint256",
          "name": "amount",
          "type": "uint256"
        }
      ],
      "name": "FundsEscrowed",
      "type": "event"
    },
    {
      "anonymous": false,
      "inputs": [
        {
          "indexed": true,
          "internalType": "address",
          "name": "to",
          "type": "address"
        },
        {
          "indexed": false,
          "internalType": "uint256",
          "name": "amount",
          "type": "uint256"
        }
      ],
      "name": "FundsRefunded",
      "type": "event"
    },
    {
      "anonymous": false,
      "inputs": [
        {
          "indexed": true,
          "internalType": "bytes32",
          "name": "journeyId",
          "type": "bytes32"
        },
        {
          "indexed": true,
          "internalType": "address",
          "name": "sender",
          "type": "address"
        },
        {
          "indexed": false,
          "internalType": "uint256",
          "name": "refundedAmount",
          "type": "uint256"
        }
      ],
      "name": "JourneyCanceled",
      "type": "event"
    },
    {
      "anonymous": false,
      "inputs": [
        {
          "indexed": true,
          "internalType": "bytes32",
          "name": "journeyId",
          "type": "bytes32"
        },
        {
          "indexed": true,
          "internalType": "address",
          "name": "sender",
          "type": "address"
        },
        {
          "indexed": true,
          "internalType": "address",
          "name": "receiver",
          "type": "address"
        }
      ],
      "name": "JourneyCreated",
      "type": "event"
    },
    {
      "anonymous": false,
      "inputs": [
        {
          "indexed": true,
          "internalType": "bytes32",
          "name": "journeyId",
          "type": "bytes32"
        },
        {
          "indexed": false,
          "internalType": "enum Ausys.Status",
          "name": "newStatus",
          "type": "uint8"
        }
      ],
      "name": "JourneyStatusUpdated",
      "type": "event"
    },
    {
      "anonymous": false,
      "inputs": [
        {
          "indexed": true,
          "internalType": "address",
          "name": "node",
          "type": "address"
        },
        {
          "indexed": false,
          "internalType": "uint256",
          "name": "amount",
          "type": "uint256"
        }
      ],
      "name": "NodeFeeDistributed",
      "type": "event"
    },
    {
      "anonymous": false,
      "inputs": [
        {
          "indexed": true,
          "internalType": "bytes32",
          "name": "orderId",
          "type": "bytes32"
        },
        {
          "indexed": true,
          "internalType": "address",
          "name": "buyer",
          "type": "address"
        },
        {
          "indexed": true,
          "internalType": "address",
          "name": "seller",
          "type": "address"
        },
        {
          "indexed": false,
          "internalType": "address",
          "name": "token",
          "type": "address"
        },
        {
          "indexed": false,
          "internalType": "uint256",
          "name": "tokenId",
          "type": "uint256"
        },
        {
          "indexed": false,
          "internalType": "uint256",
          "name": "tokenQuantity",
          "type": "uint256"
        },
        {
          "indexed": false,
          "internalType": "uint256",
          "name": "requestedTokenQuantity",
          "type": "uint256"
        },
        {
          "indexed": false,
          "internalType": "uint256",
          "name": "price",
          "type": "uint256"
        },
        {
          "indexed": false,
          "internalType": "uint256",
          "name": "txFee",
          "type": "uint256"
        },
        {
          "indexed": false,
          "internalType": "uint8",
          "name": "currentStatus",
          "type": "uint8"
        },
        {
          "indexed": false,
          "internalType": "address[]",
          "name": "nodes",
          "type": "address[]"
        },
        {
          "components": [
            {
              "components": [
                {
                  "internalType": "string",
                  "name": "lat",
                  "type": "string"
                },
                {
                  "internalType": "string",
                  "name": "lng",
                  "type": "string"
                }
              ],
              "internalType": "struct Ausys.Location",
              "name": "startLocation",
              "type": "tuple"
            },
            {
              "components": [
                {
                  "internalType": "string",
                  "name": "lat",
                  "type": "string"
                },
                {
                  "internalType": "string",
                  "name": "lng",
                  "type": "string"
                }
              ],
              "internalType": "struct Ausys.Location",
              "name": "endLocation",
              "type": "tuple"
            },
            {
              "internalType": "string",
              "name": "startName",
              "type": "string"
            },
            {
              "internalType": "string",
              "name": "endName",
              "type": "string"
            }
          ],
          "indexed": false,
          "internalType": "struct Ausys.ParcelData",
          "name": "locationData",
          "type": "tuple"
        }
      ],
      "name": "OrderCreated",
      "type": "event"
    },
    {
      "anonymous": false,
      "inputs": [
        {
          "indexed": true,
          "internalType": "bytes32",
          "name": "orderId",
          "type": "bytes32"
        }
      ],
      "name": "OrderSettled",
      "type": "event"
    },
    {
      "anonymous": false,
      "inputs": [
        {
          "indexed": true,
          "internalType": "address",
          "name": "previousOwner",
          "type": "address"
        },
        {
          "indexed": true,
          "internalType": "address",
          "name": "newOwner",
          "type": "address"
        }
      ],
      "name": "OwnershipTransferred",
      "type": "event"
    },
    {
      "anonymous": false,
      "inputs": [
        {
          "indexed": true,
          "internalType": "bytes32",
          "name": "role",
          "type": "bytes32"
        },
        {
          "indexed": true,
          "internalType": "bytes32",
          "name": "previousAdminRole",
          "type": "bytes32"
        },
        {
          "indexed": true,
          "internalType": "bytes32",
          "name": "newAdminRole",
          "type": "bytes32"
        }
      ],
      "name": "RoleAdminChanged",
      "type": "event"
    },
    {
      "anonymous": false,
      "inputs": [
        {
          "indexed": true,
          "internalType": "bytes32",
          "name": "role",
          "type": "bytes32"
        },
        {
          "indexed": true,
          "internalType": "address",
          "name": "account",
          "type": "address"
        },
        {
          "indexed": true,
          "internalType": "address",
          "name": "sender",
          "type": "address"
        }
      ],
      "name": "RoleGranted",
      "type": "event"
    },
    {
      "anonymous": false,
      "inputs": [
        {
          "indexed": true,
          "internalType": "bytes32",
          "name": "role",
          "type": "bytes32"
        },
        {
          "indexed": true,
          "internalType": "address",
          "name": "account",
          "type": "address"
        },
        {
          "indexed": true,
          "internalType": "address",
          "name": "sender",
          "type": "address"
        }
      ],
      "name": "RoleRevoked",
      "type": "event"
    },
    {
      "anonymous": false,
      "inputs": [
        {
          "indexed": true,
          "internalType": "address",
          "name": "seller",
          "type": "address"
        },
        {
          "indexed": false,
          "internalType": "uint256",
          "name": "amount",
          "type": "uint256"
        }
      ],
      "name": "SellerPaid",
      "type": "event"
    },
    {
      "anonymous": false,
      "inputs": [
        {
          "indexed": true,
          "internalType": "address",
          "name": "user",
          "type": "address"
        },
        {
          "indexed": true,
          "internalType": "bytes32",
          "name": "id",
          "type": "bytes32"
        }
      ],
      "name": "emitSig",
      "type": "event"
    },
    {
      "inputs": [],
      "name": "ADMIN_ROLE",
      "outputs": [
        {
          "internalType": "bytes32",
          "name": "",
          "type": "bytes32"
        }
      ],
      "stateMutability": "view",
      "type": "function"
    },
    {
      "inputs": [],
      "name": "DEFAULT_ADMIN_ROLE",
      "outputs": [
        {
          "internalType": "bytes32",
          "name": "",
          "type": "bytes32"
        }
      ],
      "stateMutability": "view",
      "type": "function"
    },
    {
      "inputs": [],
      "name": "DISPATCHER_ROLE",
      "outputs": [
        {
          "internalType": "bytes32",
          "name": "",
          "type": "bytes32"
        }
      ],
      "stateMutability": "view",
      "type": "function"
    },
    {
      "inputs": [],
      "name": "DRIVER_ROLE",
      "outputs": [
        {
          "internalType": "bytes32",
          "name": "",
          "type": "bytes32"
        }
      ],
      "stateMutability": "view",
      "type": "function"
    },
    {
      "inputs": [
        {
          "internalType": "address",
          "name": "driver",
          "type": "address"
        },
        {
          "internalType": "bytes32",
          "name": "journeyID",
          "type": "bytes32"
        }
      ],
      "name": "assignDriverToJourneyId",
      "outputs": [],
      "stateMutability": "nonpayable",
      "type": "function"
    },
    {
      "inputs": [
        {
          "internalType": "address",
          "name": "",
          "type": "address"
        },
        {
          "internalType": "bytes32",
          "name": "",
          "type": "bytes32"
        }
      ],
      "name": "customerHandOff",
      "outputs": [
        {
          "internalType": "bool",
          "name": "",
          "type": "bool"
        }
      ],
      "stateMutability": "view",
      "type": "function"
    },
    {
      "inputs": [
        {
          "internalType": "address",
          "name": "",
          "type": "address"
        },
        {
          "internalType": "bytes32",
          "name": "",
          "type": "bytes32"
        }
      ],
      "name": "driverHandOn",
      "outputs": [
        {
          "internalType": "bool",
          "name": "",
          "type": "bool"
        }
      ],
      "stateMutability": "view",
      "type": "function"
    },
    {
      "inputs": [
        {
          "internalType": "address",
          "name": "",
          "type": "address"
        },
        {
          "internalType": "uint256",
          "name": "",
          "type": "uint256"
        }
      ],
      "name": "driverToJourneyId",
      "outputs": [
        {
          "internalType": "bytes32",
          "name": "",
          "type": "bytes32"
        }
      ],
      "stateMutability": "view",
      "type": "function"
    },
    {
      "inputs": [
        {
          "internalType": "bytes32",
          "name": "id",
          "type": "bytes32"
        }
      ],
      "name": "getOrder",
      "outputs": [
        {
          "components": [
            {
              "internalType": "bytes32",
              "name": "id",
              "type": "bytes32"
            },
            {
              "internalType": "address",
              "name": "token",
              "type": "address"
            },
            {
              "internalType": "uint256",
              "name": "tokenId",
              "type": "uint256"
            },
            {
              "internalType": "uint256",
              "name": "tokenQuantity",
              "type": "uint256"
            },
            {
              "internalType": "uint256",
              "name": "price",
              "type": "uint256"
            },
            {
              "internalType": "uint256",
              "name": "txFee",
              "type": "uint256"
            },
            {
              "internalType": "address",
              "name": "buyer",
              "type": "address"
            },
            {
              "internalType": "address",
              "name": "seller",
              "type": "address"
            },
            {
              "internalType": "bytes32[]",
              "name": "journeyIds",
              "type": "bytes32[]"
            },
            {
              "internalType": "address[]",
              "name": "nodes",
              "type": "address[]"
            },
            {
              "components": [
                {
                  "components": [
                    {
                      "internalType": "string",
                      "name": "lat",
                      "type": "string"
                    },
                    {
                      "internalType": "string",
                      "name": "lng",
                      "type": "string"
                    }
                  ],
                  "internalType": "struct Ausys.Location",
                  "name": "startLocation",
                  "type": "tuple"
                },
                {
                  "components": [
                    {
                      "internalType": "string",
                      "name": "lat",
                      "type": "string"
                    },
                    {
                      "internalType": "string",
                      "name": "lng",
                      "type": "string"
                    }
                  ],
                  "internalType": "struct Ausys.Location",
                  "name": "endLocation",
                  "type": "tuple"
                },
                {
                  "internalType": "string",
                  "name": "startName",
                  "type": "string"
                },
                {
                  "internalType": "string",
                  "name": "endName",
                  "type": "string"
                }
              ],
              "internalType": "struct Ausys.ParcelData",
              "name": "locationData",
              "type": "tuple"
            },
            {
              "internalType": "enum Ausys.Status",
              "name": "currentStatus",
              "type": "uint8"
            },
            {
              "internalType": "bytes32",
              "name": "contractualAgreement",
              "type": "bytes32"
            }
          ],
          "internalType": "struct Ausys.Order",
          "name": "",
          "type": "tuple"
        }
      ],
      "stateMutability": "view",
      "type": "function"
    },
    {
      "inputs": [
        {
          "internalType": "bytes32",
          "name": "role",
          "type": "bytes32"
        }
      ],
      "name": "getRoleAdmin",
      "outputs": [
        {
          "internalType": "bytes32",
          "name": "",
          "type": "bytes32"
        }
      ],
      "stateMutability": "view",
      "type": "function"
    },
    {
      "inputs": [
        {
          "internalType": "bytes32",
          "name": "id",
          "type": "bytes32"
        }
      ],
      "name": "getjourney",
      "outputs": [
        {
          "components": [
            {
              "components": [
                {
                  "components": [
                    {
                      "internalType": "string",
                      "name": "lat",
                      "type": "string"
                    },
                    {
                      "internalType": "string",
                      "name": "lng",
                      "type": "string"
                    }
                  ],
                  "internalType": "struct Ausys.Location",
                  "name": "startLocation",
                  "type": "tuple"
                },
                {
                  "components": [
                    {
                      "internalType": "string",
                      "name": "lat",
                      "type": "string"
                    },
                    {
                      "internalType": "string",
                      "name": "lng",
                      "type": "string"
                    }
                  ],
                  "internalType": "struct Ausys.Location",
                  "name": "endLocation",
                  "type": "tuple"
                },
                {
                  "internalType": "string",
                  "name": "startName",
                  "type": "string"
                },
                {
                  "internalType": "string",
                  "name": "endName",
                  "type": "string"
                }
              ],
              "internalType": "struct Ausys.ParcelData",
              "name": "parcelData",
              "type": "tuple"
            },
            {
              "internalType": "bytes32",
              "name": "journeyId",
              "type": "bytes32"
            },
            {
              "internalType": "enum Ausys.Status",
              "name": "currentStatus",
              "type": "uint8"
            },
            {
              "internalType": "address",
              "name": "sender",
              "type": "address"
            },
            {
              "internalType": "address",
              "name": "receiver",
              "type": "address"
            },
            {
              "internalType": "address",
              "name": "driver",
              "type": "address"
            },
            {
              "internalType": "uint256",
              "name": "journeyStart",
              "type": "uint256"
            },
            {
              "internalType": "uint256",
              "name": "journeyEnd",
              "type": "uint256"
            },
            {
              "internalType": "uint256",
              "name": "bounty",
              "type": "uint256"
            },
            {
              "internalType": "uint256",
              "name": "ETA",
              "type": "uint256"
            }
          ],
          "internalType": "struct Ausys.Journey",
          "name": "",
          "type": "tuple"
        }
      ],
      "stateMutability": "view",
      "type": "function"
    },
    {
      "inputs": [
        {
          "internalType": "bytes32",
          "name": "role",
          "type": "bytes32"
        },
        {
          "internalType": "address",
          "name": "account",
          "type": "address"
        }
      ],
      "name": "grantRole",
      "outputs": [],
      "stateMutability": "nonpayable",
      "type": "function"
    },
    {
      "inputs": [
        {
          "internalType": "bytes32",
          "name": "id",
          "type": "bytes32"
        }
      ],
      "name": "handOff",
      "outputs": [
        {
          "internalType": "bool",
          "name": "",
          "type": "bool"
        }
      ],
      "stateMutability": "nonpayable",
      "type": "function"
    },
    {
      "inputs": [
        {
          "internalType": "bytes32",
          "name": "id",
          "type": "bytes32"
        }
      ],
      "name": "handOn",
      "outputs": [
        {
          "internalType": "bool",
          "name": "",
          "type": "bool"
        }
      ],
      "stateMutability": "nonpayable",
      "type": "function"
    },
    {
      "inputs": [
        {
          "internalType": "bytes32",
          "name": "role",
          "type": "bytes32"
        },
        {
          "internalType": "address",
          "name": "account",
          "type": "address"
        }
      ],
      "name": "hasRole",
      "outputs": [
        {
          "internalType": "bool",
          "name": "",
          "type": "bool"
        }
      ],
      "stateMutability": "view",
      "type": "function"
    },
    {
      "inputs": [
        {
          "internalType": "bytes32",
          "name": "",
          "type": "bytes32"
        }
      ],
      "name": "idToJourney",
      "outputs": [
        {
          "components": [
            {
              "components": [
                {
                  "internalType": "string",
                  "name": "lat",
                  "type": "string"
                },
                {
                  "internalType": "string",
                  "name": "lng",
                  "type": "string"
                }
              ],
              "internalType": "struct Ausys.Location",
              "name": "startLocation",
              "type": "tuple"
            },
            {
              "components": [
                {
                  "internalType": "string",
                  "name": "lat",
                  "type": "string"
                },
                {
                  "internalType": "string",
                  "name": "lng",
                  "type": "string"
                }
              ],
              "internalType": "struct Ausys.Location",
              "name": "endLocation",
              "type": "tuple"
            },
            {
              "internalType": "string",
              "name": "startName",
              "type": "string"
            },
            {
              "internalType": "string",
              "name": "endName",
              "type": "string"
            }
          ],
          "internalType": "struct Ausys.ParcelData",
          "name": "parcelData",
          "type": "tuple"
        },
        {
          "internalType": "bytes32",
          "name": "journeyId",
          "type": "bytes32"
        },
        {
          "internalType": "enum Ausys.Status",
          "name": "currentStatus",
          "type": "uint8"
        },
        {
          "internalType": "address",
          "name": "sender",
          "type": "address"
        },
        {
          "internalType": "address",
          "name": "receiver",
          "type": "address"
        },
        {
          "internalType": "address",
          "name": "driver",
          "type": "address"
        },
        {
          "internalType": "uint256",
          "name": "journeyStart",
          "type": "uint256"
        },
        {
          "internalType": "uint256",
          "name": "journeyEnd",
          "type": "uint256"
        },
        {
          "internalType": "uint256",
          "name": "bounty",
          "type": "uint256"
        },
        {
          "internalType": "uint256",
          "name": "ETA",
          "type": "uint256"
        }
      ],
      "stateMutability": "view",
      "type": "function"
    },
    {
      "inputs": [
        {
          "internalType": "bytes32",
          "name": "",
          "type": "bytes32"
        }
      ],
      "name": "idToOrder",
      "outputs": [
        {
          "internalType": "bytes32",
          "name": "id",
          "type": "bytes32"
        },
        {
          "internalType": "address",
          "name": "token",
          "type": "address"
        },
        {
          "internalType": "uint256",
          "name": "tokenId",
          "type": "uint256"
        },
        {
          "internalType": "uint256",
          "name": "tokenQuantity",
          "type": "uint256"
        },
        {
          "internalType": "uint256",
          "name": "price",
          "type": "uint256"
        },
        {
          "internalType": "uint256",
          "name": "txFee",
          "type": "uint256"
        },
        {
          "internalType": "address",
          "name": "buyer",
          "type": "address"
        },
        {
          "internalType": "address",
          "name": "seller",
          "type": "address"
        },
        {
          "components": [
            {
              "components": [
                {
                  "internalType": "string",
                  "name": "lat",
                  "type": "string"
                },
                {
                  "internalType": "string",
                  "name": "lng",
                  "type": "string"
                }
              ],
              "internalType": "struct Ausys.Location",
              "name": "startLocation",
              "type": "tuple"
            },
            {
              "components": [
                {
                  "internalType": "string",
                  "name": "lat",
                  "type": "string"
                },
                {
                  "internalType": "string",
                  "name": "lng",
                  "type": "string"
                }
              ],
              "internalType": "struct Ausys.Location",
              "name": "endLocation",
              "type": "tuple"
            },
            {
              "internalType": "string",
              "name": "startName",
              "type": "string"
            },
            {
              "internalType": "string",
              "name": "endName",
              "type": "string"
            }
          ],
          "internalType": "struct Ausys.ParcelData",
          "name": "locationData",
          "type": "tuple"
        },
        {
          "internalType": "enum Ausys.Status",
          "name": "currentStatus",
          "type": "uint8"
        },
        {
          "internalType": "bytes32",
          "name": "contractualAgreement",
          "type": "bytes32"
        }
      ],
      "stateMutability": "view",
      "type": "function"
    },
    {
      "inputs": [
        {
          "internalType": "address",
          "name": "sender",
          "type": "address"
        },
        {
          "internalType": "address",
          "name": "receiver",
          "type": "address"
        },
        {
          "components": [
            {
              "components": [
                {
                  "internalType": "string",
                  "name": "lat",
                  "type": "string"
                },
                {
                  "internalType": "string",
                  "name": "lng",
                  "type": "string"
                }
              ],
              "internalType": "struct Ausys.Location",
              "name": "startLocation",
              "type": "tuple"
            },
            {
              "components": [
                {
                  "internalType": "string",
                  "name": "lat",
                  "type": "string"
                },
                {
                  "internalType": "string",
                  "name": "lng",
                  "type": "string"
                }
              ],
              "internalType": "struct Ausys.Location",
              "name": "endLocation",
              "type": "tuple"
            },
            {
              "internalType": "string",
              "name": "startName",
              "type": "string"
            },
            {
              "internalType": "string",
              "name": "endName",
              "type": "string"
            }
          ],
          "internalType": "struct Ausys.ParcelData",
          "name": "_data",
          "type": "tuple"
        },
        {
          "internalType": "uint256",
          "name": "bounty",
          "type": "uint256"
        },
        {
          "internalType": "uint256",
          "name": "ETA",
          "type": "uint256"
        }
      ],
      "name": "journeyCreation",
      "outputs": [],
      "stateMutability": "nonpayable",
      "type": "function"
    },
    {
      "inputs": [],
      "name": "journeyIdCounter",
      "outputs": [
        {
          "internalType": "uint256",
          "name": "",
          "type": "uint256"
        }
      ],
      "stateMutability": "view",
      "type": "function"
    },
    {
      "inputs": [
        {
          "internalType": "bytes32",
          "name": "",
          "type": "bytes32"
        }
      ],
      "name": "journeyToOrderId",
      "outputs": [
        {
          "internalType": "bytes32",
          "name": "",
          "type": "bytes32"
        }
      ],
      "stateMutability": "view",
      "type": "function"
    },
    {
      "inputs": [
        {
          "internalType": "address",
          "name": "",
          "type": "address"
        },
        {
          "internalType": "address",
          "name": "",
          "type": "address"
        },
        {
          "internalType": "uint256[]",
          "name": "",
          "type": "uint256[]"
        },
        {
          "internalType": "uint256[]",
          "name": "",
          "type": "uint256[]"
        },
        {
          "internalType": "bytes",
          "name": "",
          "type": "bytes"
        }
      ],
      "name": "onERC1155BatchReceived",
      "outputs": [
        {
          "internalType": "bytes4",
          "name": "",
          "type": "bytes4"
        }
      ],
      "stateMutability": "nonpayable",
      "type": "function"
    },
    {
      "inputs": [
        {
          "internalType": "address",
          "name": "",
          "type": "address"
        },
        {
          "internalType": "address",
          "name": "",
          "type": "address"
        },
        {
          "internalType": "uint256",
          "name": "",
          "type": "uint256"
        },
        {
          "internalType": "uint256",
          "name": "",
          "type": "uint256"
        },
        {
          "internalType": "bytes",
          "name": "",
          "type": "bytes"
        }
      ],
      "name": "onERC1155Received",
      "outputs": [
        {
          "internalType": "bytes4",
          "name": "",
          "type": "bytes4"
        }
      ],
      "stateMutability": "nonpayable",
      "type": "function"
    },
    {
      "inputs": [
        {
          "components": [
            {
              "internalType": "bytes32",
              "name": "id",
              "type": "bytes32"
            },
            {
              "internalType": "address",
              "name": "token",
              "type": "address"
            },
            {
              "internalType": "uint256",
              "name": "tokenId",
              "type": "uint256"
            },
            {
              "internalType": "uint256",
              "name": "tokenQuantity",
              "type": "uint256"
            },
            {
              "internalType": "uint256",
              "name": "price",
              "type": "uint256"
            },
            {
              "internalType": "uint256",
              "name": "txFee",
              "type": "uint256"
            },
            {
              "internalType": "address",
              "name": "buyer",
              "type": "address"
            },
            {
              "internalType": "address",
              "name": "seller",
              "type": "address"
            },
            {
              "internalType": "bytes32[]",
              "name": "journeyIds",
              "type": "bytes32[]"
            },
            {
              "internalType": "address[]",
              "name": "nodes",
              "type": "address[]"
            },
            {
              "components": [
                {
                  "components": [
                    {
                      "internalType": "string",
                      "name": "lat",
                      "type": "string"
                    },
                    {
                      "internalType": "string",
                      "name": "lng",
                      "type": "string"
                    }
                  ],
                  "internalType": "struct Ausys.Location",
                  "name": "startLocation",
                  "type": "tuple"
                },
                {
                  "components": [
                    {
                      "internalType": "string",
                      "name": "lat",
                      "type": "string"
                    },
                    {
                      "internalType": "string",
                      "name": "lng",
                      "type": "string"
                    }
                  ],
                  "internalType": "struct Ausys.Location",
                  "name": "endLocation",
                  "type": "tuple"
                },
                {
                  "internalType": "string",
                  "name": "startName",
                  "type": "string"
                },
                {
                  "internalType": "string",
                  "name": "endName",
                  "type": "string"
                }
              ],
              "internalType": "struct Ausys.ParcelData",
              "name": "locationData",
              "type": "tuple"
            },
            {
              "internalType": "enum Ausys.Status",
              "name": "currentStatus",
              "type": "uint8"
            },
            {
              "internalType": "bytes32",
              "name": "contractualAgreement",
              "type": "bytes32"
            }
          ],
          "internalType": "struct Ausys.Order",
          "name": "order",
          "type": "tuple"
        }
      ],
      "name": "orderCreation",
      "outputs": [
        {
          "internalType": "bytes32",
          "name": "",
          "type": "bytes32"
        }
      ],
      "stateMutability": "nonpayable",
      "type": "function"
    },
    {
      "inputs": [],
      "name": "orderIdCounter",
      "outputs": [
        {
          "internalType": "uint256",
          "name": "",
          "type": "uint256"
        }
      ],
      "stateMutability": "view",
      "type": "function"
    },
    {
      "inputs": [
        {
          "internalType": "uint256",
          "name": "",
          "type": "uint256"
        }
      ],
      "name": "orderIds",
      "outputs": [
        {
          "internalType": "bytes32",
          "name": "",
          "type": "bytes32"
        }
      ],
      "stateMutability": "view",
      "type": "function"
    },
    {
      "inputs": [
        {
          "internalType": "bytes32",
          "name": "orderId",
          "type": "bytes32"
        },
        {
          "internalType": "address",
          "name": "sender",
          "type": "address"
        },
        {
          "internalType": "address",
          "name": "receiver",
          "type": "address"
        },
        {
          "components": [
            {
              "components": [
                {
                  "internalType": "string",
                  "name": "lat",
                  "type": "string"
                },
                {
                  "internalType": "string",
                  "name": "lng",
                  "type": "string"
                }
              ],
              "internalType": "struct Ausys.Location",
              "name": "startLocation",
              "type": "tuple"
            },
            {
              "components": [
                {
                  "internalType": "string",
                  "name": "lat",
                  "type": "string"
                },
                {
                  "internalType": "string",
                  "name": "lng",
                  "type": "string"
                }
              ],
              "internalType": "struct Ausys.Location",
              "name": "endLocation",
              "type": "tuple"
            },
            {
              "internalType": "string",
              "name": "startName",
              "type": "string"
            },
            {
              "internalType": "string",
              "name": "endName",
              "type": "string"
            }
          ],
          "internalType": "struct Ausys.ParcelData",
          "name": "_data",
          "type": "tuple"
        },
        {
          "internalType": "uint256",
          "name": "bounty",
          "type": "uint256"
        },
        {
          "internalType": "uint256",
          "name": "ETA",
          "type": "uint256"
        },
        {
          "internalType": "uint256",
          "name": "tokenQuantity",
          "type": "uint256"
        },
        {
          "internalType": "uint256",
          "name": "assetId",
          "type": "uint256"
        }
      ],
      "name": "orderJourneyCreation",
      "outputs": [],
      "stateMutability": "nonpayable",
      "type": "function"
    },
    {
      "inputs": [],
      "name": "owner",
      "outputs": [
        {
          "internalType": "address",
          "name": "",
          "type": "address"
        }
      ],
      "stateMutability": "view",
      "type": "function"
    },
    {
      "inputs": [
        {
          "internalType": "bytes32",
          "name": "id",
          "type": "bytes32"
        }
      ],
      "name": "packageSign",
      "outputs": [],
      "stateMutability": "nonpayable",
      "type": "function"
    },
    {
      "inputs": [],
      "name": "renounceOwnership",
      "outputs": [],
      "stateMutability": "nonpayable",
      "type": "function"
    },
    {
      "inputs": [
        {
          "internalType": "bytes32",
          "name": "role",
          "type": "bytes32"
        },
        {
          "internalType": "address",
          "name": "account",
          "type": "address"
        }
      ],
      "name": "renounceRole",
      "outputs": [],
      "stateMutability": "nonpayable",
      "type": "function"
    },
    {
      "inputs": [
        {
          "internalType": "address",
          "name": "admin",
          "type": "address"
        }
      ],
      "name": "revokeAdmin",
      "outputs": [],
      "stateMutability": "nonpayable",
      "type": "function"
    },
    {
      "inputs": [
        {
          "internalType": "bytes32",
          "name": "role",
          "type": "bytes32"
        },
        {
          "internalType": "address",
          "name": "account",
          "type": "address"
        }
      ],
      "name": "revokeRole",
      "outputs": [],
      "stateMutability": "nonpayable",
      "type": "function"
    },
    {
      "inputs": [
        {
          "internalType": "address",
          "name": "admin",
          "type": "address"
        }
      ],
      "name": "setAdmin",
      "outputs": [],
      "stateMutability": "nonpayable",
      "type": "function"
    },
    {
      "inputs": [
        {
          "internalType": "address",
          "name": "dispatcher",
          "type": "address"
        },
        {
          "internalType": "bool",
          "name": "enable",
          "type": "bool"
        }
      ],
      "name": "setDispatcher",
      "outputs": [],
      "stateMutability": "nonpayable",
      "type": "function"
    },
    {
      "inputs": [
        {
          "internalType": "address",
          "name": "driver",
          "type": "address"
        },
        {
          "internalType": "bool",
          "name": "enable",
          "type": "bool"
        }
      ],
      "name": "setDriver",
      "outputs": [],
      "stateMutability": "nonpayable",
      "type": "function"
    },
    {
      "inputs": [
        {
          "internalType": "contract AurumNodeManager",
          "name": "_nodeManager",
          "type": "address"
        }
      ],
      "name": "setNodeManager",
      "outputs": [],
      "stateMutability": "nonpayable",
      "type": "function"
    },
    {
      "inputs": [
        {
          "internalType": "bytes4",
          "name": "interfaceId",
          "type": "bytes4"
        }
      ],
      "name": "supportsInterface",
      "outputs": [
        {
          "internalType": "bool",
          "name": "",
          "type": "bool"
        }
      ],
      "stateMutability": "view",
      "type": "function"
    },
    {
      "inputs": [
        {
          "internalType": "address",
          "name": "newOwner",
          "type": "address"
        }
      ],
      "name": "transferOwnership",
      "outputs": [],
      "stateMutability": "nonpayable",
      "type": "function"
    }
  ],
  "bytecode": "0x6080346101b457601f61519e38819003918201601f19168301916001600160401b038311848410176101b9578084926020946040528339810103126101b457516001600160a01b038116908190036101b457600160008181558154336001600160a01b0319821681179093556001600160a01b0316907f8be0079c531659141344cd1fd0a4f28419497f9722a3daafe3b4186f6b6457e09080a36000600d819055600e819055600380546001600160a01b0319169290921790915533815260008051602061515e833981519152602052604090205460ff1615610174575b33600090815260008051602061517e833981519152602052604090205460ff1615610112575b604051614f6e90816101d08239f35b33600081815260008051602061517e83398151915260205260408120805460ff1916600117905581907fa49807205ce4d355092ef5a8a18f56e8913cf4a201fbe287825b095693c217759060008051602061513e8339815191529080a4610103565b33600081815260008051602061515e83398151915260205260408120805460ff19166001179055819060008051602061513e8339815191528180a46100dd565b600080fd5b634e487b7160e01b600052604160045260246000fdfe608080604052600436101561001357600080fd5b600090813560e01c90816301ffc9a7146140995750806308ec38241461407b5780631319e7e1146140365780631ba5c00f14613f6b5780632372208414613efb578063248a9ca314613ec5578063260ff43d14613d6f5780632d34567014613cc05780632f2ff15d14613c1057806336568abe14613b7d5780634a00787a14613a435780635306bb141461384a5780635492222e1461380157806356537593146137d85780635778472a146134cb5780636d205a9114612c025780636d94151c14612bd8578063704b6c0214612afb578063715018a614612a9e57806375b238fc14612a75578063876244b61461293b5780638da39f60146127ae5780638da5cb5b1461278557806391d148541461273c578063982e2f98146126e55780639b21e5821461269c5780639d99e418146121eb5780639ef5aee9146121c2578063a217fddf146121a6578063a787248a146120d0578063acfd0a79146113b2578063b696c54f14610772578063bc197c81146106dc578063bd58cea41461034f578063be37442314610331578063d547741f146102e8578063f23a6e611461028e5763f2fde38b146101c357600080fd5b3461028b57602036600319011261028b576101dc61441a565b6101e46147dc565b6001600160a01b0316801561023757600180546001600160a01b0319811683179091556001600160a01b03167f8be0079c531659141344cd1fd0a4f28419497f9722a3daafe3b4186f6b6457e08380a380f35b60405162461bcd60e51b815260206004820152602660248201527f4f776e61626c653a206e6577206f776e657220697320746865207a65726f206160448201526564647265737360d01b6064820152608490fd5b80fd5b503461028b5760a036600319011261028b576102a861441a565b506102b1614435565b506084356001600160401b0381116102e4576102d19036906004016144a9565b5060405163f23a6e6160e01b8152602090f35b5080fd5b503461028b57604036600319011261028b5761032e600435610308614435565b9061032961032482600052600260205260016040600020015490565b6149af565b614834565b80f35b503461028b578060031936011261028b576020600e54604051908152f35b503461028b57602036600319011261028b576004359081815260096020526040812060018060a01b03600782015460081c1633149081156106c5575b81156106ae575b501561069f57818152600960205260ff600760408320015416600581101561068b5761067c576103c06149ef565b8181526009602052604081209160018060a01b03600984015416808352600b6020526040832082845260205260ff6040842054161561066d57600784019360018060a01b03855460081c168452600a6020526040842083855260205260ff6040852054161561065e57600a429101558252600b602052604082208183526020526040822060ff19815416905560018060a01b03835460081c168252600a602052604082208183526020526040822060ff198154169055600160ff1984541617835580825260076020526040822054825260066020526040822060018060a01b03845460081c16600782019160018060a01b03835416809214610504575b5050507f1a75ca18929567ba294eca8af9f90a494f02cfce73c1492a390adf716a919592602060ff60019554166104f760405180926143c9565ba255602060405160018152f35b6001810160018060a01b0381541692600283019360038554940193845492823b1561065a579161055193918a809460405196879586948593637921219560e11b855230906004860161470a565b03925af1801561064f57908791610636575b5050549154604051909390926001600160a01b0316610581846141ab565b8352602083019384526040830186815260608401878152600454925493546001600160a01b03948516949093169291833b15610632579288959492869260c495604051998a98899763e896eacb60e01b8952600489015260018060a01b03905116602488015251604487015251606486015251608485015260a48401525af1801561062757610612575b80806104bd565b61061d8380926141c6565b6102e4573861060b565b6040513d85823e3d90fd5b8880fd5b81610640916141c6565b61064b578538610563565b8580fd5b6040513d89823e3d90fd5b8980fd5b634b2c075160e01b8452600484fd5b639651c94760e01b8352600483fd5b6396676d3f60e01b8152600490fd5b634e487b7160e01b82526021600452602482fd5b63166f401760e11b8152600490fd5b600801546001600160a01b03163314905038610392565b60098101546001600160a01b03163314915061038b565b503461028b5760a036600319011261028b576106f661441a565b506106ff614435565b506044356001600160401b0381116102e45761071f903690600401614601565b506064356001600160401b0381116102e45761073f903690600401614601565b506084356001600160401b0381116102e45761075f9036906004016144a9565b5060405163bc197c8160e01b8152602090f35b503461028b5761010036600319011261028b5761078d614435565b6044356001600160a01b03811681036113ae576064356001600160401b0381116113aa576107bf903690600401614548565b9060843560a435600435865260066020526040862060248760018060a01b0360045416604051928380926313a4120960e31b825260018060a01b038a1660048301525afa90811561139f57889161117b575b50602001516001600160f81b03199081160161116c576006019060018060a01b038254163314158061113a575b61112b574281111561111c5760c4351561110d577f4fbba82c7ac2d3085ee7a8b5f858464eef150708109bc1fe981b0956c76d93d59160209161087f614a45565b6040519761088c89614174565b885283880152604087018990526001600160a01b038881166060890152868116608089015260a088018a905260c088018a905260e088018a9052610100880186905261012088019190915260035482546108ed928792309282169116614a76565b546040519384526001600160a01b031692a2602082015184526009602052604084208251805180518051906001600160401b038211610fb1576109308554614108565b601f81116110dd575b50602090601f83116001146110775760209392918a918361106c575b50508160011b916000199060031b1c19161784555b01518051906001600160401b038211610e4c57819061098c6001860154614108565b601f8111611039575b50602090601f8311600114610fd0578992610fc5575b50508160011b916000199060031b1c19161760018301555b602081015180518051906001600160401b038211610fb1576109e86002860154614108565b601f8111610f7e575b50602090601f8311600114610f125760209392918a9183610f07575b50508160011b916000199060031b1c19161760028501555b01518051906001600160401b038211610e4c578190610a476003860154614108565b601f8111610ed4575b50602090601f8311600114610e6b578992610e60575b50508160011b916000199060031b1c19161760038301555b60408101518051906001600160401b038211610e4c57610aa16004850154614108565b601f8111610e19575b50602090601f8311600114610dad576060939291899183610da2575b50508160011b916000199060031b1c19161760048401555b01518051906001600160401b038211610d8e578190610b006005850154614108565b601f8111610d50575b50602090601f8311600114610ce7578892610cdc575b50508160011b916000199060031b1c19161760058201555b602083015160068201556007810160408401516005811015610cc85790610b626020949392826146f2565b60608501518154610100600160a81b031916600891821b610100600160a81b031617909155608085015182820180546001600160a01b03199081166001600160a01b039384161790915560a0870151600985018054909216921691909117905560c0850151600a83015560e0850151600b830155610100850151600c830155610120850151600d909201919091556004358652600683526040862083850151610c0d9290910161465e565b60043580865260068084526040808820601001805460ff191690558585015188526007855280882083905591875283528086206001015490518691606091906001600160a01b0316610c5e826141ab565b815260e43585820152826040820152015260043585526006825260036040862001610c8c60c435825461474e565b90559101516001600160a01b0391821692909116907fe95fbbb47c61a66e1d1014871befe16b0a21eb24fa7c69a23eb47619fa0fdf938480a480f35b634e487b7160e01b87526021600452602487fd5b015190503880610b1f565b6005850189528189209250601f198416895b818110610d385750908460019594939210610d1f575b505050811b016005820155610b37565b015160001960f88460031b161c19169055388080610d0f565b92936020600181928786015181550195019301610cf9565b610d7e90600586018a5260208a20601f850160051c81019160208610610d84575b601f0160051c01906146db565b38610b09565b9091508190610d71565b634e487b7160e01b87526041600452602487fd5b015190503880610ac6565b6004850189528189209190601f1984168a5b818110610e015750916001939185606097969410610de8575b505050811b016004840155610ade565b015160001960f88460031b161c19169055388080610dd8565b92936020600181928786015181550195019301610dbf565b610e4690600486018a5260208a20601f850160051c81019160208610610d8457601f0160051c01906146db565b38610aaa565b634e487b7160e01b88526041600452602488fd5b015190503880610a66565b600386018a52818a209250601f1984168a5b818110610ebc5750908460019594939210610ea3575b505050811b016003830155610a7e565b015160001960f88460031b161c19169055388080610e93565b92936020600181928786015181550195019301610e7d565b610f0190600387018b5260208b20601f850160051c81019160208610610d8457601f0160051c01906146db565b38610a50565b015190503880610a0d565b600286018a52818a209190601f1984168b5b818110610f665750916001939185602097969410610f4d575b505050811b016002850155610a25565b015160001960f88460031b161c19169055388080610f3d565b92936020600181928786015181550195019301610f24565b610fab90600287018b5260208b20601f850160051c81019160208610610d8457601f0160051c01906146db565b386109f1565b634e487b7160e01b89526041600452602489fd5b0151905038806109ab565b600186018a52818a209250601f1984168a5b8181106110215750908460019594939210611008575b505050811b0160018301556109c3565b015160001960f88460031b161c19169055388080610ff8565b92936020600181928786015181550195019301610fe2565b61106690600187018b5260208b20601f850160051c81019160208610610d8457601f0160051c01906146db565b38610995565b015190503880610955565b858a52818a209190601f1984168b5b8181106110c557509160019391856020979694106110ac575b505050811b01845561096a565b015160001960f88460031b161c1916905538808061109f565b92936020600181928786015181550195019301611086565b61110790868b5260208b20601f850160051c81019160208610610d8457601f0160051c01906146db565b38610939565b63162908e360e11b8752600487fd5b630a00ec8b60e31b8752600487fd5b6348f5c3ed60e01b8752600487fd5b50600080516020614ef98339815191528752600260209081526040808920336000908152925290205460ff161561083e565b63184096a160e11b8752600487fd5b90503d8089833e61118c81836141c6565b810190602081830312610632578051906001600160401b03821161065a570160a081830312610632576040519160a083018381106001600160401b0382111761138b5760405281516001600160401b03811161137f57820160408183031261137f57604051906111fb82614190565b80516001600160401b0381116113875783611217918301614771565b82526020810151906001600160401b0382116113875701604081840312611383576040519061124582614190565b80516001600160401b03811161137b5784611261918301614771565b82526020810151906001600160401b03821161137b5761128391859101614771565b60208201526020820152835261129b602083016147b3565b60208401526112ac604083016147c8565b604084015260608201516001600160401b03811161137f57820181601f8201121561137f578051906112dd826145ea565b926112eb60405194856141c6565b82845260208085019360071b8301019181831161137b57602001925b82841061132e57505050506060830152611323906080016147b3565b608082015238610811565b60808483031261137b576020608091604051611349816141ab565b611352876147c8565b815282870151838201526040870151604082015260608701516060820152815201930192611307565b8d80fd5b8a80fd5b8b80fd5b8c80fd5b634e487b7160e01b8b52604160045260248bfd5b6040513d8a823e3d90fd5b8380fd5b8280fd5b503461028b57602036600319011261028b57600435906001600160401b03821161028b576101a0600319833603011261028b57604051906113f282614142565b826004013582526114056024840161444b565b602083019081526040830192604485013584526060810160648601358152608082016084870135815260a083019560a4880135875261144660c4890161444b565b9360c0810194855261145a60e48a0161444b565b9460e082019586526101048a01356001600160401b038111610632578a01903660238301121561063257600482013591611493836145ea565b926114a160405194856141c6565b808452602060048186019260051b840101019136831161138357602401905b8282106120c05750505061010083019182526101248b01356001600160401b03811161065a578b01923660238501121561065a57600484013593611503856145ea565b9461151160405196876141c6565b808652602060048188019260051b840101019136831161138757602401905b8282106120a85750505061012081019384526101448c01356001600160401b03811161137f578c60046115669236920101614548565b9b61014082019c8d526101648101359360058510156113835761016083019485526101846101808401920135825261159c6149ef565b83516001600160a01b0316158015612096575b8015612084575b612075578751156120665783518a516001600160a01b039081169116146120755788511561206657600e54600181018091116120525780600e5560405160208101918252602081526116096040826141c6565b5190209c8d8d52600660205260408d209351845560018060a01b038c5116600185019060018060a01b03166001600160601b0360a01b82541617905587516002850155895160038501558851600485015551600584015560018060a01b03845116600684019060018060a01b03166001600160601b0360a01b82541617905560018060a01b038a5116600784019060018060a01b03166001600160601b0360a01b825416179055600883019051908151916001600160401b038311611c8957600160401b8311611c89578154838355838f828210612028575b505050602001908d5260208d208d5b8381106120145750505050600982018551908151916001600160401b038311611c8957600160401b8311611c89576020908e835485855585818110611ff9575b50505001908d5260208d208d5b838110611fdc5750505050600a82018d519081519081518051906001600160401b038211611e8b578f82916117738554614108565b601f8111611fac575b50602091601f8411600114611f495792611f3e575b50508160011b916000199060031b1c19161790555b602001518051600b8501916001600160401b038211611d3b578e82916117cc8554614108565b601f8111611f0e575b50602091601f8411600114611eab5792611ea0575b50508160011b916000199060031b1c19161790555b602081015180518051600c8601916001600160401b038211611e8b578f82916118288554614108565b601f8111611e5b575b50602091601f8411600114611df85792611ded575b50508160011b916000199060031b1c19161790555b602001518051600d8501916001600160401b038211611d3b578e82916118818554614108565b601f8111611dbd575b50602091601f8411600114611d5a5792611d4f575b50508160011b916000199060031b1c19161790555b600e830160408201518051906001600160401b038211611d3b578e82916118db8554614108565b601f8111611d0b575b50602091601f8411600114611ca85792611c9d575b50508160011b916000199060031b1c19161790555b606001518051600f8401916001600160401b038211611c89578d82916119348554614108565b601f8111611c59575b50602091601f8411600114611bf65792611beb575b50508160011b916000199060031b1c19161790555b83516005811015611bd75790611982601192601085016146f2565b519101558989526006602052601060408a200160ff19815416905589895260066020528960408a205584518060011b9080820460021490151715611bc3576064908b8b52600660205204600560408b200155600554600160401b811015611baf57611a106119f98260018e940160055560056143ec565b819391549060031b91821b91600019901b19161790565b9055600354815186518c8c52600660205260408c2060050154611a4d936001600160a01b03938416931691611a45919061474e565b913091614a76565b887f4fbba82c7ac2d3085ee7a8b5f858464eef150708109bc1fe981b0956c76d93d56020611a968d6005604060018060a01b03885116968c51938152600686522001549061474e565b604051908152a2519551965192519451935189895260066020526040892060059081015492516001600160a01b03998a169998891698909516949390841015611b9b579060ff939291519b519560405197610120890196895260208901528060408901526060880152608087015260a08601521660c084015261012060e0840152875180915260206101408401980190865b818110611b7c575050507fb1cec21eede76af4e5554de2e170ba032c4000e4f81414b2d53a5d76eebc27b98280611b708a8a9560019a99989760209d03610100850152614375565b0390a455604051908152f35b82516001600160a01b03168a526020998a019990920191600101611b28565b634e487b7160e01b8a52602160045260248afd5b634e487b7160e01b8a52604160045260248afd5b634e487b7160e01b8a52601160045260248afd5b634e487b7160e01b8c52602160045260248cfd5b015190503880611952565b8581528281209350601f198516905b818110611c415750908460019594939210611c28575b505050811b019055611967565b015160001960f88460031b161c19169055388080611c1b565b92936020600181928786015181550195019301611c05565b611c839086845260208420601f860160051c81019160208710610d8457601f0160051c01906146db565b3861193d565b634e487b7160e01b8e52604160045260248efd5b0151905038806118f9565b8581528281209350601f198516905b818110611cf35750908460019594939210611cda575b505050811b01905561190e565b015160001960f88460031b161c19169055388080611ccd565b92936020600181928786015181550195019301611cb7565b611d359086845260208420601f860160051c81019160208710610d8457601f0160051c01906146db565b386118e4565b634e487b7160e01b8f52604160045260248ffd5b01519050388061189f565b8581528281209350601f198516905b818110611da55750908460019594939210611d8c575b505050811b0190556118b4565b015160001960f88460031b161c19169055388080611d7f565b92936020600181928786015181550195019301611d69565b611de79086845260208420601f860160051c81019160208710610d8457601f0160051c01906146db565b3861188a565b015190503880611846565b8581528281209350601f198516905b818110611e435750908460019594939210611e2a575b505050811b01905561185b565b015160001960f88460031b161c19169055388080611e1d565b92936020600181928786015181550195019301611e07565b611e859086845260208420601f860160051c81019160208710610d8457601f0160051c01906146db565b38611831565b50634e487b7160e01b8f52604160045260248ffd5b0151905038806117ea565b8581528281209350601f198516905b818110611ef65750908460019594939210611edd575b505050811b0190556117ff565b015160001960f88460031b161c19169055388080611ed0565b92936020600181928786015181550195019301611eba565b611f389086845260208420601f860160051c81019160208710610d8457601f0160051c01906146db565b386117d5565b015190503880611791565b8581528281209350601f198516905b818110611f945750908460019594939210611f7b575b505050811b0190556117a6565b015160001960f88460031b161c19169055388080611f6e565b92936020600181928786015181550195019301611f58565b611fd69086845260208420601f860160051c81019160208710610d8457601f0160051c01906146db565b3861177c565b82516001600160a01b03168183015560209092019160010161173e565b84838761200c95522091820191016146db565b8e3885611731565b6001906020845194019381840155016116f1565b8481526020812092830192860191505b828210612047578591506116e2565b81556001018f612038565b634e487b7160e01b8d52601160045260248dfd5b63162908e360e11b8c5260048cfd5b63e6c4247b60e01b8c5260048cfd5b508a516001600160a01b0316156115b6565b5089516001600160a01b0316156115af565b602080916120b58461444b565b815201910190611530565b81358152602091820191016114c0565b503461028b57602036600319011261028b576040906004358152600660205220805460018060a01b0360018301541691600281015461219c61219060038401546004850154600586015460018060a01b036006880154169060018060a01b0360078901541692612142600a8a016142b7565b94601160ff60108c0154169a0154986040519c8d9c8d5260208d015260408c015260608b015260808a015260a089015260c088015260e0870152610160610100870152610160860190614375565b926101208501906143c9565b6101408301520390f35b503461028b578060031936011261028b57602090604051908152f35b503461028b578060031936011261028b576020604051600080516020614f198339815191528152f35b503461028b57602036600319011261028b5760043590818152600960205260ff600760408320015416600581101561068b5760010361268d5781815260096020526040812060078101543360089190911c6001600160a01b031614908115612676575b811561265f575b501561069f576122636149ef565b8181526009602052604081209180825260076020526040822054825260066020526040822092601084019060ff825416600581101561261f576003146126515760098101546001600160a01b03168452600b6020908152604080862085875290915284205460ff161561264257600881019060018060a01b038254168552600a6020526040852084865260205260ff604086205416156126335760078101600260ff19825416179055600b42910155828452600960205260ff600760408620015416600581101561261f5760020361261057828452600c60205260ff60408520541661260157828452600c60208181526040808720805460ff191660011790558587526009918290528620600354918101549201546123909290916001600160a01b039182169116614abf565b546006850180549092916001600160a01b039182169116146123bc575b60018455602060405160018152f35b805460ff1916600390811790915560018501549154600286015491860154939493926001600160a01b03908116929116823b156125fd579161241a939185809460405196879586948593637921219560e11b8552306004860161470a565b03925af180156125f2576125e2575b509060018060a01b03600354167fcb4a9094da4df77fb2c0dbaa5047660b1237e61d82a02176c1be74ca757f253160206007860161247860018060a01b03825416946004890195865491614abf565b5492546040519081526001600160a01b0390931692a26009830180549081159485156124de575b505050600192508152600760205260408120547fd4250d6114a611e75d68b1c6f14c61e967863d8ac20bc8ebfa4e5f28f66473668280a23880806123ad565b60050154946125ce578185048281028181048414821517156125ba5786039586116125a657600195855b84811061251657505061249f565b87908061259d57612528835b8561474e565b61255481848060a01b0360035416612540858a6143ec565b878060a01b0391549060031b1c1690614abf565b7f03dec068f82c9920a9e652806929c04dfb2e80a427660a62537e21d1997ef731602061258184896143ec565b868060a01b0391549060031b1c1692604051908152a201612508565b61252888612522565b634e487b7160e01b85526011600452602485fd5b634e487b7160e01b86526011600452602486fd5b634e487b7160e01b84526012600452602484fd5b816125ec916141c6565b38612429565b6040513d84823e3d90fd5b8480fd5b6302cc018560e31b8452600484fd5b63f6a1628360e01b8452600484fd5b634e487b7160e01b85526021600452602485fd5b6302693de160e11b8552600485fd5b639651c94760e01b8452600484fd5b62560ff960e81b8452600484fd5b600801546001600160a01b03163314905038612255565b60098101546001600160a01b03163314915061224e565b636a6a451560e11b8152600490fd5b503461028b57604036600319011261028b5760209060ff906040906001600160a01b036126c761441a565b168152600a8452818120602435825284522054166040519015158152f35b503461028b57604036600319011261028b576126ff61441a565b6001600160a01b031681526008602052604081208054602435929083101561028b57602061272d84846143ec565b90549060031b1c604051908152f35b503461028b57604036600319011261028b5760ff604060209261275d614435565b6004358252600285528282206001600160a01b03909116825284522054604051911615158152f35b503461028b578060031936011261028b576001546040516001600160a01b039091168152602090f35b503461028b57602036600319011261028b5760206040826101409361012083516127d781614174565b6127df61469d565b8152828682015282858201528260608201528260808201528260a08201528260c08201528260e08201528261010082015201526004358152600983522060405161282881614174565b612831826142b7565b81526006820154918382019283526007810154604083019061285660ff8216836146cf565b606084019060018060a01b039060081c16815260018060a01b036008840154166080850190815260018060a01b036009850154169060a08601918252600a8501549260c087019384526128fa600b8701549560e089019687526128e8600d600c8a0154996101008c019a8b5201549961012081019a8b526040519d8d8f9e928f938452519201526101608d0190614375565b995160408c01525160608b01906143c9565b516001600160a01b0390811660808a01529051811660a089015290511660c08701525160e08601525161010085015251610120840152516101408301520390f35b503461028b5761294a3661445f565b6129526148a8565b156129e857600080516020614f1983398151915282526002602090815260408084206001600160a01b038416855290915282205460ff1615612992575080f35b600080516020614f198339815191528083526002602090815260408085206001600160a01b0394909416808652939091528320805460ff19166001179055339190600080516020614e998339815191528480a480f35b600080516020614f1983398151915282526002602090815260408084206001600160a01b038416855290915282205460ff16612a22575080f35b600080516020614f198339815191528083526002602090815260408085206001600160a01b0394909416808652939091528320805460ff19169055339190600080516020614ed98339815191528480a480f35b503461028b578060031936011261028b576020604051600080516020614ef98339815191528152f35b503461028b578060031936011261028b57612ab76147dc565b600180546001600160a01b0319811690915581906001600160a01b03167f8be0079c531659141344cd1fd0a4f28419497f9722a3daafe3b4186f6b6457e08280a380f35b503461028b57602036600319011261028b57612b1561441a565b612b1d6147dc565b600080516020614ef983398151915282526002602090815260408084206001600160a01b038416855290915282205460ff1615612b85575b6001600160a01b03167f8fe72c3e0020beb3234e76ae6676fa576fbfcae600af1c4fea44784cf0db329c8280a280f35b600080516020614ef98339815191528083526002602090815260408085206001600160a01b03851680875292528420805460ff191660011790553391600080516020614e998339815191528580a4612b55565b503461028b57602036600319011261028b5760406020916004358152600783522054604051908152f35b503461028b5760a036600319011261028b57612c1c61441a565b612c24614435565b6044356001600160401b0381116113aa57612c43903690600401614548565b90608435612c4f6149ef565b336001600160a01b03831614158061349b575b61348c576001600160a01b03841615801561347b575b61346c576064351561345d574281111561344e57612c94614a45565b60405193612ca185614174565b8452602080850182905260408086018890526001600160a01b0387811660608801528516608087015260a0860188905260c0860188905260e086018890526064356101008701526101208601939093529086526009905284208251805180518051906001600160401b038211610fb157612d1b8554614108565b601f811161341e575b50602090601f83116001146133b85760209392918a91836133ad575b50508160011b916000199060031b1c19161784555b01518051906001600160401b038211610e4c578190612d776001860154614108565b601f811161337a575b50602090601f8311600114613311578992613306575b50508160011b916000199060031b1c19161760018301555b602081015180518051906001600160401b038211610fb157612dd36002860154614108565b601f81116132d3575b50602090601f83116001146132675760209392918a918361325c575b50508160011b916000199060031b1c19161760028501555b01518051906001600160401b038211610e4c578190612e326003860154614108565b601f8111613229575b50602090601f83116001146131c05789926131b5575b50508160011b916000199060031b1c19161760038301555b60408101518051906001600160401b038211610e4c57612e8c6004850154614108565b601f8111613182575b50602090601f831160011461311657606093929189918361310b575b50508160011b916000199060031b1c19161760048401555b01518051906001600160401b038211610d8e578190612eeb6005850154614108565b601f81116130d8575b50602090601f831160011461306f578892613064575b50508160011b916000199060031b1c19161760058201555b602083015160068201556007810160408401516005811015610cc85790612f4d6020949392826146f2565b60608501518154610100600160a81b031916600891821b610100600160a81b031617909155608085015190820180546001600160a01b03199081166001600160a01b039384161790915560a086015160098401805490921690831617905560c0850151600a83015560e0850151600b830155610100850151600c830155610120850151600d90920191909155600354612fee91606435913091859116614a76565b60405160643581526001600160a01b038216907f4fbba82c7ac2d3085ee7a8b5f858464eef150708109bc1fe981b0956c76d93d5908490a29101516001600160a01b0391821692909116907fe95fbbb47c61a66e1d1014871befe16b0a21eb24fa7c69a23eb47619fa0fdf938480a46001815580f35b015190503880612f0a565b6005850189528189209250601f198416895b8181106130c057509084600195949392106130a7575b505050811b016005820155612f22565b015160001960f88460031b161c19169055388080613097565b92936020600181928786015181550195019301613081565b61310590600586018a5260208a20601f850160051c81019160208610610d8457601f0160051c01906146db565b38612ef4565b015190503880612eb1565b6004850189528189209190601f1984168a5b81811061316a5750916001939185606097969410613151575b505050811b016004840155612ec9565b015160001960f88460031b161c19169055388080613141565b92936020600181928786015181550195019301613128565b6131af90600486018a5260208a20601f850160051c81019160208610610d8457601f0160051c01906146db565b38612e95565b015190503880612e51565b600386018a52818a209250601f1984168a5b81811061321157509084600195949392106131f8575b505050811b016003830155612e69565b015160001960f88460031b161c191690553880806131e8565b929360206001819287860151815501950193016131d2565b61325690600387018b5260208b20601f850160051c81019160208610610d8457601f0160051c01906146db565b38612e3b565b015190503880612df8565b600286018a52818a209190601f1984168b5b8181106132bb57509160019391856020979694106132a2575b505050811b016002850155612e10565b015160001960f88460031b161c19169055388080613292565b92936020600181928786015181550195019301613279565b61330090600287018b5260208b20601f850160051c81019160208610610d8457601f0160051c01906146db565b38612ddc565b015190503880612d96565b600186018a52818a209250601f1984168a5b8181106133625750908460019594939210613349575b505050811b016001830155612dae565b015160001960f88460031b161c19169055388080613339565b92936020600181928786015181550195019301613323565b6133a790600187018b5260208b20601f850160051c81019160208610610d8457601f0160051c01906146db565b38612d80565b015190503880612d40565b858a52818a209190601f1984168b5b81811061340657509160019391856020979694106133ed575b505050811b018455612d55565b015160001960f88460031b161c191690553880806133e0565b929360206001819287860151815501950193016133c7565b61344890868b5260208b20601f850160051c81019160208610610d8457601f0160051c01906146db565b38612d24565b630a00ec8b60e31b8552600485fd5b63162908e360e11b8552600485fd5b63e6c4247b60e01b8552600485fd5b506001600160a01b03821615612c78565b6348f5c3ed60e01b8552600485fd5b50600080516020614ef9833981519152855260026020908152604080872033885290915285205460ff1615612c62565b503461028b57602036600319011261028b57806101806040516134ed81614142565b8281528260208201528260408201528260608201528260808201528260a08201528260c08201528260e08201526060610100820152606061012082015261353261469d565b6101408201528261016082015201526004358152600660205260408120906040519161355d83614142565b8054835260018060a01b03600182015416916020840192835260028201549060408501918252600383015460608601908152600484015460808701908152600585015460a0880190815260018060a01b0360068701541660c0890190815260018060a01b036007880154169160e08a01928352600888019360405194856020825491828152019189526020892090895b8181106137c257505050856136039103866141c6565b6101008b0194855260098901956040519687602082549182815201918a5260208a20908a5b8181106137a35750505090878d9a99989796959493920361364990886141c6565b6101208a0196875261365d600a8c016142b7565b986101408b01998a5260108c015460ff169b6101608c019c61367f908e6146cf565b601101549a610180019a8b52604051809d602082526101c082019f516020830152600160a01b6001900390511690604001525160608d01525160808c01525160a08b01525160c08a0152600160a01b6001900390511660e0890152600160a01b60019003905116610100880152519661012087016101a0905287518091526101e087019760200190835b81811061378d575050505195601f1986820301610140870152602080885192838152019701915b81811061376e5750505061375684956137639251601f1987830301610160880152614375565b92516101808501906143c9565b516101a08301520390f35b82516001600160a01b0316885260209788019790920191600101613730565b82518a526020998a019990920191600101613709565b82546001600160a01b0316845260209093019260019283019201613628565b82548452602090930192600192830192016135ed565b503461028b578060031936011261028b576020604051600080516020614eb98339815191528152f35b503461028b57604036600319011261028b5760209060ff906040906001600160a01b0361382c61441a565b168152600b8452818120602435825284522054166040519015158152f35b503461028b57602036600319011261028b5760043580825260096020526040822060078101543360089190911c6001600160a01b031614908115613a2c575b8115613a15575b5015613a0657808252600960205260408220600781019060018060a01b03825460081c16331460001461391d57508054600890811c6001600160a01b039081168552600a602090815260408087208688529091528520805460ff191660011790559154901c167fe9247524c4b37258acdda748f6d6c3de00c21bbe007405d32404851e082508b38380a380f35b600881018054909250336001600160a01b0390911603613990575080546001600160a01b039081168452600a602090815260408086208587529091528420805460ff191660011790559054167fe9247524c4b37258acdda748f6d6c3de00c21bbe007405d32404851e082508b38380a380f35b60090180549091506001600160a01b03163381146139af575b50505080f35b8352600b602090815260408085208486529091528320805460ff19166001179055546001600160a01b03167fe9247524c4b37258acdda748f6d6c3de00c21bbe007405d32404851e082508b38380a33880806139a9565b63166f401760e11b8252600482fd5b600801546001600160a01b03163314905038613890565b60098101546001600160a01b031633149150613889565b503461028b57613a523661445f565b613a5a6148a8565b15613af057600080516020614eb983398151915282526002602090815260408084206001600160a01b038416855290915282205460ff1615613a9a575080f35b600080516020614eb98339815191528083526002602090815260408085206001600160a01b0394909416808652939091528320805460ff19166001179055339190600080516020614e998339815191528480a480f35b600080516020614eb983398151915282526002602090815260408084206001600160a01b038416855290915282205460ff16613b2a575080f35b600080516020614eb98339815191528083526002602090815260408085206001600160a01b0394909416808652939091528320805460ff19169055339190600080516020614ed98339815191528480a480f35b503461028b57604036600319011261028b57613b97614435565b336001600160a01b03821603613bb35761032e90600435614834565b60405162461bcd60e51b815260206004820152602f60248201527f416363657373436f6e74726f6c3a2063616e206f6e6c792072656e6f756e636560448201526e103937b632b9903337b91039b2b63360891b6064820152608490fd5b503461028b57604036600319011261028b57600435613c2d614435565b90613c4961032482600052600260205260016040600020015490565b8083526002602090815260408085206001600160a01b038516865290915283205460ff1615613c76578280f35b8083526002602090815260408085206001600160a01b0394909416808652939091528320805460ff19166001179055339190600080516020614e998339815191528480a438808280f35b503461028b57602036600319011261028b57613cda61441a565b613ce26147dc565b600080516020614ef983398151915282526002602090815260408084206001600160a01b038416855290915282205460ff16613d1c575080f35b600080516020614ef98339815191528083526002602090815260408085206001600160a01b0394909416808652939091528320805460ff19169055339190600080516020614ed98339815191528480a480f35b503461028b57604036600319011261028b57613d8961441a565b60243590600080516020614eb9833981519152835260026020526040832060018060a01b038216845260205260ff60408420541615613e60576001600160a01b03163381148015613e96575b8015613e6f575b15613e60578083526008602052600a60408420541015613e51578083526008602052613e0b826040852061465e565b81835260096020819052604084200180546001600160a01b031916821790557f1c9db0488564f25a3f5a31d9c8d0d9b7bc3ec8897ba83dba0511987c1b8cb9a78380a380f35b63d539116760e01b8352600483fd5b6348f5c3ed60e01b8352600483fd5b50818352600960205260408320600701543360089190911c6001600160a01b031614613ddc565b50600080516020614f19833981519152835260026020908152604080852033865290915283205460ff16613dd5565b503461028b57602036600319011261028b576020613ef3600435600052600260205260016040600020015490565b604051908152f35b503461028b57602036600319011261028b576004359060055482101561028b57600554821015613f5757600590527f036b6384b5eca791c62761152d0c79bb0604c104a5fb6f4eb0703f3154bb3db00154604051908152602090f35b634e487b7160e01b81526032600452602490fd5b503461028b57602036600319011261028b576040613feb916004358152600960205220613f97816142b7565b9060068101549060078101549060018060a01b0360088201541660018060a01b03600983015416600a83015490600b84015492600d600c86015495015495604051998a996101408b526101408b0190614375565b9760208a015261400160408a0160ff83166143c9565b60081c6001600160a01b03166060890152608088015260a087015260c086015260e08501526101008401526101208301520390f35b503461028b57602036600319011261028b576004356001600160a01b038116908190036102e4576140656147dc565b6001600160601b0360a01b600454161760045580f35b503461028b578060031936011261028b576020600d54604051908152f35b9050346102e45760203660031901126102e45760043563ffffffff60e01b81168091036113ae5760209250637965db0b60e01b81149081156140dd575b5015158152f35b630271189760e51b8114915081156140f7575b50386140d6565b6301ffc9a760e01b149050386140f0565b90600182811c92168015614138575b602083101461412257565b634e487b7160e01b600052602260045260246000fd5b91607f1691614117565b6101a081019081106001600160401b0382111761415e57604052565b634e487b7160e01b600052604160045260246000fd5b61014081019081106001600160401b0382111761415e57604052565b604081019081106001600160401b0382111761415e57604052565b608081019081106001600160401b0382111761415e57604052565b90601f801991011681019081106001600160401b0382111761415e57604052565b90604051918260008254926141fb84614108565b80845293600181169081156142695750600114614222575b50614220925003836141c6565b565b90506000929192526020600020906000915b81831061424d5750509060206142209282010138614213565b6020919350806001915483858901015201910190918492614234565b90506020925061422094915060ff191682840152151560051b82010138614213565b9060405161429881614190565b60206142b2600183956142aa816141e7565b8552016141e7565b910152565b906040516142c4816141ab565b60606142b2600583956142d68161428b565b85526142e46002820161428b565b60208601526142f5600482016141e7565b6040860152016141e7565b60005b8381106143135750506000910152565b8181015183820152602001614303565b9060209161433c81518092818552858086019101614300565b601f01601f1916010190565b6143729160206143618351604084526040840190614323565b920151906020818403910152614323565b90565b6143729160606143b86143a66143948551608086526080860190614348565b60208601518582036020870152614348565b60408501518482036040860152614323565b920151906060818403910152614323565b9060058210156143d65752565b634e487b7160e01b600052602160045260246000fd5b80548210156144045760005260206000200190600090565b634e487b7160e01b600052603260045260246000fd5b600435906001600160a01b038216820361443057565b600080fd5b602435906001600160a01b038216820361443057565b35906001600160a01b038216820361443057565b6040906003190112614430576004356001600160a01b0381168103614430579060243580151581036144305790565b6001600160401b03811161415e57601f01601f191660200190565b81601f82011215614430576020813591016144c38261448e565b926144d160405194856141c6565b828452828201116144305781600092602092838601378301015290565b9190604083820312614430576040519061450782614190565b819380356001600160401b03811161443057826145259183016144a9565b83526020810135916001600160401b038311614430576020926142b292016144a9565b91906080838203126144305760405190614561826141ab565b819380356001600160401b038111614430578261457f9183016144ee565b835260208101356001600160401b03811161443057826145a09183016144ee565b602084015260408101356001600160401b03811161443057826145c49183016144a9565b60408401526060810135916001600160401b038311614430576060926142b292016144a9565b6001600160401b03811161415e5760051b60200190565b9080601f83011215614430578135614618816145ea565b9261462660405194856141c6565b81845260208085019260051b82010192831161443057602001905b82821061464e5750505090565b8135815260209182019101614641565b805490600160401b82101561415e57816119f9916001614680940181556143ec565b9055565b6040519061469182614190565b60606020838281520152565b604051906146aa826141ab565b606080836146b6614684565b81526146c0614684565b60208201528160408201520152565b60058210156143d65752565b8181106146e6575050565b600081556001016146db565b9060058110156143d65760ff80198354169116179055565b6001600160a01b039182168152911660208201526040810191909152606081019190915260a06080820181905260029082015261060f60f31b60c082015260e00190565b9190820180921161475b57565b634e487b7160e01b600052601160045260246000fd5b81601f820112156144305780516147878161448e565b9261479560405194856141c6565b81845260208284010111614430576143729160208085019101614300565b51906001600160f81b03198216820361443057565b51906001600160a01b038216820361443057565b6001546001600160a01b031633036147f057565b606460405162461bcd60e51b815260206004820152602060248201527f4f776e61626c653a2063616c6c6572206973206e6f7420746865206f776e65726044820152fd5b806000526002602052604060002060018060a01b03831660005260205260ff60406000205416614862575050565b60008181526002602090815260408083206001600160a01b0395909516808452949091528120805460ff1916905533929190600080516020614ed98339815191529080a4565b3360009081527fe5ebfa64fca8d502a8e50c1edffd2c31ef4dad5b396e65d9f397fb028f74abc5602052604090205460ff16156148e157565b6149ab6148ed33614c27565b61498b6011614909600080516020614ef9833981519152614d53565b9260376040519485927f416363657373436f6e74726f6c3a206163636f756e7420000000000000000000602085015261494b8151809260208688019101614300565b83017001034b99036b4b9b9b4b733903937b6329607d1b8382015261497a825180936020604885019101614300565b01010301601f1981018352826141c6565b60405162461bcd60e51b8152602060048201529182916024830190614323565b0390fd5b600081815260026020908152604080832033845290915290205460ff16156149d45750565b6149ab9061498b60116149096149e933614c27565b93614d53565b600260005414614a00576002600055565b60405162461bcd60e51b815260206004820152601f60248201527f5265656e7472616e637947756172643a207265656e7472616e742063616c6c006044820152606490fd5b600d546001810180911161475b5780600d556040516020810191825260208152614a706040826141c6565b51902090565b6040516323b872dd60e01b60208201526001600160a01b03928316602482015292909116604483015260648083019390935291815261422091614aba6084836141c6565b614afa565b60405163a9059cbb60e01b60208201526001600160a01b03909216602483015260448083019390935291815261422091614aba6064836141c6565b604080519092614b7e926001600160a01b0316906000908190614b1d87866141c6565b602085527f5361666545524332303a206c6f772d6c6576656c2063616c6c206661696c6564602086015260208151910182855af13d15614c0e573d91614b628361448e565b92614b6f875194856141c6565b83523d6000602085013e614dff565b8051908115918215614beb575b505015614b955750565b5162461bcd60e51b815260206004820152602a60248201527f5361666545524332303a204552433230206f7065726174696f6e20646964206e6044820152691bdd081cdd58d8d9595960b21b6064820152608490fd5b819250906020918101031261443057602001518015158103614430573880614b8b565b606091614dff565b908151811015614404570160200190565b600090614c34602a61448e565b91614c4260405193846141c6565b602a8352614c50602a61448e565b6020840190601f1901368237835115614d3f5760309053825160011015613f57576078602184015350602960005b60018211614cd3575050614c8f5790565b606460405162461bcd60e51b815260206004820152602060248201527f537472696e67733a20686578206c656e67746820696e73756666696369656e746044820152fd5b9091600f81166010811015614d2b576f181899199a1a9b1b9c1cb0b131b232b360811b901a614d028486614c16565b5360041c918015614d17576000190190614c7e565b634e487b7160e01b82526011600452602482fd5b634e487b7160e01b83526032600452602483fd5b634e487b7160e01b82526032600452602482fd5b600090614d60604261448e565b91614d6e60405193846141c6565b60428352614d7c604261448e565b6020840190601f1901368237835115614d3f5760309053825160011015613f57576078602184015350604160005b60018211614dbb575050614c8f5790565b9091600f81166010811015614d2b576f181899199a1a9b1b9c1cb0b131b232b360811b901a614dea8486614c16565b5360041c918015614d17576000190190614daa565b91929015614e615750815115614e13575090565b3b15614e1c5790565b60405162461bcd60e51b815260206004820152601d60248201527f416464726573733a2063616c6c20746f206e6f6e2d636f6e74726163740000006044820152606490fd5b825190915015614e745750805190602001fd5b60405162461bcd60e51b8152602060048201529081906149ab90602483019061432356fe2f8788117e7eff1d82e926ec794901d17c78024a50270940304540a733656f0d469f0a0947cf59c7d944c91c6f4c13c396753b8abf0036156a8c6b0c02fdc02ef6391f5c32d9c69d2a47ea670b442974b53935d1edc7fd64eb21e047a839171ba49807205ce4d355092ef5a8a18f56e8913cf4a201fbe287825b095693c21775fbd38eecf51668fdbc772b204dc63dd28c3a3cf32e3025f52a80aa807359f50ca264697066735822122025211a4b3a29ff1c166ebb8053225f3a9319deeaded99c230b128bd1291673ff64736f6c634300081c00332f8788117e7eff1d82e926ec794901d17c78024a50270940304540a733656f0dac33ff75c19e70fe83507db0d683fd3465c996598dc972688b7ace676c89077be5ebfa64fca8d502a8e50c1edffd2c31ef4dad5b396e65d9f397fb028f74abc5",
  "linkReferences": {},
  "deployedLinkReferences": {}
}