{
  "_format": "hh-sol-artifact-1",
  "contractName": "Ausys",
  "sourceName": "contracts/AuSys.sol",
  "abi": [
    {
      "inputs": [
        {
          "internalType": "contract IERC20",
          "name": "token",
          "type": "address"
        }
      ],
      "stateMutability": "nonpayable",
      "type": "constructor"
    },
    {
      "inputs": [],
      "name": "AlreadySettled",
      "type": "error"
    },
    {
      "inputs": [],
      "name": "DriverMaxAssignment",
      "type": "error"
    },
    {
      "inputs": [],
      "name": "DriverNotSigned",
      "type": "error"
    },
    {
      "inputs": [],
      "name": "InvalidAddress",
      "type": "error"
    },
    {
      "inputs": [],
      "name": "InvalidAmount",
      "type": "error"
    },
    {
      "inputs": [],
      "name": "InvalidCaller",
      "type": "error"
    },
    {
      "inputs": [],
      "name": "InvalidETA",
      "type": "error"
    },
    {
      "inputs": [],
      "name": "InvalidNode",
      "type": "error"
    },
    {
      "inputs": [],
      "name": "JourneyIncomplete",
      "type": "error"
    },
    {
      "inputs": [],
      "name": "JourneyNotInProgress",
      "type": "error"
    },
    {
      "inputs": [],
      "name": "JourneyNotPending",
      "type": "error"
    },
    {
      "inputs": [],
      "name": "NotJourneyParticipant",
      "type": "error"
    },
    {
      "inputs": [],
      "name": "ReceiverNotSigned",
      "type": "error"
    },
    {
      "inputs": [],
      "name": "RewardAlreadyPaid",
      "type": "error"
    },
    {
      "inputs": [],
      "name": "SenderNotSigned",
      "type": "error"
    },
    {
      "anonymous": false,
      "inputs": [
        {
          "indexed": true,
          "internalType": "address",
          "name": "admin",
          "type": "address"
        }
      ],
      "name": "AdminSet",
      "type": "event"
    },
    {
      "anonymous": false,
      "inputs": [
        {
          "indexed": true,
          "internalType": "address",
          "name": "driver",
          "type": "address"
        },
        {
          "indexed": true,
          "internalType": "bytes32",
          "name": "journeyId",
          "type": "bytes32"
        }
      ],
      "name": "DriverAssigned",
      "type": "event"
    },
    {
      "anonymous": false,
      "inputs": [
        {
          "indexed": true,
          "internalType": "address",
          "name": "from",
          "type": "address"
        },
        {
          "indexed": false,
          "internalType": "uint256",
          "name": "amount",
          "type": "uint256"
        }
      ],
      "name": "FundsEscrowed",
      "type": "event"
    },
    {
      "anonymous": false,
      "inputs": [
        {
          "indexed": true,
          "internalType": "address",
          "name": "to",
          "type": "address"
        },
        {
          "indexed": false,
          "internalType": "uint256",
          "name": "amount",
          "type": "uint256"
        }
      ],
      "name": "FundsRefunded",
      "type": "event"
    },
    {
      "anonymous": false,
      "inputs": [
        {
          "indexed": true,
          "internalType": "bytes32",
          "name": "journeyId",
          "type": "bytes32"
        },
        {
          "indexed": true,
          "internalType": "address",
          "name": "sender",
          "type": "address"
        },
        {
          "indexed": false,
          "internalType": "uint256",
          "name": "refundedAmount",
          "type": "uint256"
        }
      ],
      "name": "JourneyCanceled",
      "type": "event"
    },
    {
      "anonymous": false,
      "inputs": [
        {
          "indexed": true,
          "internalType": "bytes32",
          "name": "journeyId",
          "type": "bytes32"
        },
        {
          "indexed": true,
          "internalType": "address",
          "name": "sender",
          "type": "address"
        },
        {
          "indexed": true,
          "internalType": "address",
          "name": "receiver",
          "type": "address"
        }
      ],
      "name": "JourneyCreated",
      "type": "event"
    },
    {
      "anonymous": false,
      "inputs": [
        {
          "indexed": true,
          "internalType": "bytes32",
          "name": "journeyId",
          "type": "bytes32"
        },
        {
          "indexed": false,
          "internalType": "enum Ausys.JourneyStatus",
          "name": "newStatus",
          "type": "uint8"
        }
      ],
      "name": "JourneyStatusUpdated",
      "type": "event"
    },
    {
      "anonymous": false,
      "inputs": [
        {
          "indexed": true,
          "internalType": "address",
          "name": "node",
          "type": "address"
        },
        {
          "indexed": false,
          "internalType": "uint256",
          "name": "amount",
          "type": "uint256"
        }
      ],
      "name": "NodeFeeDistributed",
      "type": "event"
    },
    {
      "anonymous": false,
      "inputs": [
        {
          "indexed": true,
          "internalType": "bytes32",
          "name": "orderId",
          "type": "bytes32"
        },
        {
          "indexed": true,
          "internalType": "address",
          "name": "buyer",
          "type": "address"
        },
        {
          "indexed": true,
          "internalType": "address",
          "name": "seller",
          "type": "address"
        },
        {
          "indexed": false,
          "internalType": "address",
          "name": "token",
          "type": "address"
        },
        {
          "indexed": false,
          "internalType": "uint256",
          "name": "tokenId",
          "type": "uint256"
        },
        {
          "indexed": false,
          "internalType": "uint256",
          "name": "tokenQuantity",
          "type": "uint256"
        },
        {
          "indexed": false,
          "internalType": "uint256",
          "name": "requestedTokenQuantity",
          "type": "uint256"
        },
        {
          "indexed": false,
          "internalType": "uint256",
          "name": "price",
          "type": "uint256"
        },
        {
          "indexed": false,
          "internalType": "uint256",
          "name": "txFee",
          "type": "uint256"
        },
        {
          "indexed": false,
          "internalType": "uint8",
          "name": "currentStatus",
          "type": "uint8"
        },
        {
          "indexed": false,
          "internalType": "address[]",
          "name": "nodes",
          "type": "address[]"
        },
        {
          "components": [
            {
              "components": [
                {
                  "internalType": "string",
                  "name": "lat",
                  "type": "string"
                },
                {
                  "internalType": "string",
                  "name": "lng",
                  "type": "string"
                }
              ],
              "internalType": "struct Ausys.Location",
              "name": "startLocation",
              "type": "tuple"
            },
            {
              "components": [
                {
                  "internalType": "string",
                  "name": "lat",
                  "type": "string"
                },
                {
                  "internalType": "string",
                  "name": "lng",
                  "type": "string"
                }
              ],
              "internalType": "struct Ausys.Location",
              "name": "endLocation",
              "type": "tuple"
            },
            {
              "internalType": "string",
              "name": "startName",
              "type": "string"
            },
            {
              "internalType": "string",
              "name": "endName",
              "type": "string"
            }
          ],
          "indexed": false,
          "internalType": "struct Ausys.ParcelData",
          "name": "locationData",
          "type": "tuple"
        }
      ],
      "name": "OrderCreated",
      "type": "event"
    },
    {
      "anonymous": false,
      "inputs": [
        {
          "indexed": true,
          "internalType": "bytes32",
          "name": "orderId",
          "type": "bytes32"
        }
      ],
      "name": "OrderSettled",
      "type": "event"
    },
    {
      "anonymous": false,
      "inputs": [
        {
          "indexed": true,
          "internalType": "bytes32",
          "name": "orderId",
          "type": "bytes32"
        },
        {
          "indexed": false,
          "internalType": "enum Ausys.OrderStatus",
          "name": "newStatus",
          "type": "uint8"
        }
      ],
      "name": "OrderStatusUpdated",
      "type": "event"
    },
    {
      "anonymous": false,
      "inputs": [
        {
          "indexed": true,
          "internalType": "address",
          "name": "previousOwner",
          "type": "address"
        },
        {
          "indexed": true,
          "internalType": "address",
          "name": "newOwner",
          "type": "address"
        }
      ],
      "name": "OwnershipTransferred",
      "type": "event"
    },
    {
      "anonymous": false,
      "inputs": [
        {
          "indexed": true,
          "internalType": "bytes32",
          "name": "role",
          "type": "bytes32"
        },
        {
          "indexed": true,
          "internalType": "bytes32",
          "name": "previousAdminRole",
          "type": "bytes32"
        },
        {
          "indexed": true,
          "internalType": "bytes32",
          "name": "newAdminRole",
          "type": "bytes32"
        }
      ],
      "name": "RoleAdminChanged",
      "type": "event"
    },
    {
      "anonymous": false,
      "inputs": [
        {
          "indexed": true,
          "internalType": "bytes32",
          "name": "role",
          "type": "bytes32"
        },
        {
          "indexed": true,
          "internalType": "address",
          "name": "account",
          "type": "address"
        },
        {
          "indexed": true,
          "internalType": "address",
          "name": "sender",
          "type": "address"
        }
      ],
      "name": "RoleGranted",
      "type": "event"
    },
    {
      "anonymous": false,
      "inputs": [
        {
          "indexed": true,
          "internalType": "bytes32",
          "name": "role",
          "type": "bytes32"
        },
        {
          "indexed": true,
          "internalType": "address",
          "name": "account",
          "type": "address"
        },
        {
          "indexed": true,
          "internalType": "address",
          "name": "sender",
          "type": "address"
        }
      ],
      "name": "RoleRevoked",
      "type": "event"
    },
    {
      "anonymous": false,
      "inputs": [
        {
          "indexed": true,
          "internalType": "address",
          "name": "seller",
          "type": "address"
        },
        {
          "indexed": false,
          "internalType": "uint256",
          "name": "amount",
          "type": "uint256"
        }
      ],
      "name": "SellerPaid",
      "type": "event"
    },
    {
      "anonymous": false,
      "inputs": [
        {
          "indexed": true,
          "internalType": "address",
          "name": "user",
          "type": "address"
        },
        {
          "indexed": true,
          "internalType": "bytes32",
          "name": "id",
          "type": "bytes32"
        }
      ],
      "name": "emitSig",
      "type": "event"
    },
    {
      "inputs": [],
      "name": "ADMIN_ROLE",
      "outputs": [
        {
          "internalType": "bytes32",
          "name": "",
          "type": "bytes32"
        }
      ],
      "stateMutability": "view",
      "type": "function"
    },
    {
      "inputs": [],
      "name": "DEFAULT_ADMIN_ROLE",
      "outputs": [
        {
          "internalType": "bytes32",
          "name": "",
          "type": "bytes32"
        }
      ],
      "stateMutability": "view",
      "type": "function"
    },
    {
      "inputs": [],
      "name": "DISPATCHER_ROLE",
      "outputs": [
        {
          "internalType": "bytes32",
          "name": "",
          "type": "bytes32"
        }
      ],
      "stateMutability": "view",
      "type": "function"
    },
    {
      "inputs": [],
      "name": "DRIVER_ROLE",
      "outputs": [
        {
          "internalType": "bytes32",
          "name": "",
          "type": "bytes32"
        }
      ],
      "stateMutability": "view",
      "type": "function"
    },
    {
      "inputs": [
        {
          "internalType": "address",
          "name": "driver",
          "type": "address"
        },
        {
          "internalType": "bytes32",
          "name": "journeyID",
          "type": "bytes32"
        }
      ],
      "name": "assignDriverToJourneyId",
      "outputs": [],
      "stateMutability": "nonpayable",
      "type": "function"
    },
    {
      "inputs": [
        {
          "internalType": "address",
          "name": "",
          "type": "address"
        },
        {
          "internalType": "bytes32",
          "name": "",
          "type": "bytes32"
        }
      ],
      "name": "customerHandOff",
      "outputs": [
        {
          "internalType": "bool",
          "name": "",
          "type": "bool"
        }
      ],
      "stateMutability": "view",
      "type": "function"
    },
    {
      "inputs": [
        {
          "internalType": "address",
          "name": "",
          "type": "address"
        },
        {
          "internalType": "bytes32",
          "name": "",
          "type": "bytes32"
        }
      ],
      "name": "driverHandOn",
      "outputs": [
        {
          "internalType": "bool",
          "name": "",
          "type": "bool"
        }
      ],
      "stateMutability": "view",
      "type": "function"
    },
    {
      "inputs": [
        {
          "internalType": "address",
          "name": "",
          "type": "address"
        },
        {
          "internalType": "uint256",
          "name": "",
          "type": "uint256"
        }
      ],
      "name": "driverToJourneyId",
      "outputs": [
        {
          "internalType": "bytes32",
          "name": "",
          "type": "bytes32"
        }
      ],
      "stateMutability": "view",
      "type": "function"
    },
    {
      "inputs": [
        {
          "internalType": "bytes32",
          "name": "id",
          "type": "bytes32"
        }
      ],
      "name": "getOrder",
      "outputs": [
        {
          "components": [
            {
              "internalType": "bytes32",
              "name": "id",
              "type": "bytes32"
            },
            {
              "internalType": "address",
              "name": "token",
              "type": "address"
            },
            {
              "internalType": "uint256",
              "name": "tokenId",
              "type": "uint256"
            },
            {
              "internalType": "uint256",
              "name": "tokenQuantity",
              "type": "uint256"
            },
            {
              "internalType": "uint256",
              "name": "price",
              "type": "uint256"
            },
            {
              "internalType": "uint256",
              "name": "txFee",
              "type": "uint256"
            },
            {
              "internalType": "address",
              "name": "buyer",
              "type": "address"
            },
            {
              "internalType": "address",
              "name": "seller",
              "type": "address"
            },
            {
              "internalType": "bytes32[]",
              "name": "journeyIds",
              "type": "bytes32[]"
            },
            {
              "internalType": "address[]",
              "name": "nodes",
              "type": "address[]"
            },
            {
              "components": [
                {
                  "components": [
                    {
                      "internalType": "string",
                      "name": "lat",
                      "type": "string"
                    },
                    {
                      "internalType": "string",
                      "name": "lng",
                      "type": "string"
                    }
                  ],
                  "internalType": "struct Ausys.Location",
                  "name": "startLocation",
                  "type": "tuple"
                },
                {
                  "components": [
                    {
                      "internalType": "string",
                      "name": "lat",
                      "type": "string"
                    },
                    {
                      "internalType": "string",
                      "name": "lng",
                      "type": "string"
                    }
                  ],
                  "internalType": "struct Ausys.Location",
                  "name": "endLocation",
                  "type": "tuple"
                },
                {
                  "internalType": "string",
                  "name": "startName",
                  "type": "string"
                },
                {
                  "internalType": "string",
                  "name": "endName",
                  "type": "string"
                }
              ],
              "internalType": "struct Ausys.ParcelData",
              "name": "locationData",
              "type": "tuple"
            },
            {
              "internalType": "enum Ausys.OrderStatus",
              "name": "currentStatus",
              "type": "uint8"
            },
            {
              "internalType": "bytes32",
              "name": "contractualAgreement",
              "type": "bytes32"
            }
          ],
          "internalType": "struct Ausys.Order",
          "name": "",
          "type": "tuple"
        }
      ],
      "stateMutability": "view",
      "type": "function"
    },
    {
      "inputs": [
        {
          "internalType": "bytes32",
          "name": "role",
          "type": "bytes32"
        }
      ],
      "name": "getRoleAdmin",
      "outputs": [
        {
          "internalType": "bytes32",
          "name": "",
          "type": "bytes32"
        }
      ],
      "stateMutability": "view",
      "type": "function"
    },
    {
      "inputs": [
        {
          "internalType": "bytes32",
          "name": "id",
          "type": "bytes32"
        }
      ],
      "name": "getjourney",
      "outputs": [
        {
          "components": [
            {
              "components": [
                {
                  "components": [
                    {
                      "internalType": "string",
                      "name": "lat",
                      "type": "string"
                    },
                    {
                      "internalType": "string",
                      "name": "lng",
                      "type": "string"
                    }
                  ],
                  "internalType": "struct Ausys.Location",
                  "name": "startLocation",
                  "type": "tuple"
                },
                {
                  "components": [
                    {
                      "internalType": "string",
                      "name": "lat",
                      "type": "string"
                    },
                    {
                      "internalType": "string",
                      "name": "lng",
                      "type": "string"
                    }
                  ],
                  "internalType": "struct Ausys.Location",
                  "name": "endLocation",
                  "type": "tuple"
                },
                {
                  "internalType": "string",
                  "name": "startName",
                  "type": "string"
                },
                {
                  "internalType": "string",
                  "name": "endName",
                  "type": "string"
                }
              ],
              "internalType": "struct Ausys.ParcelData",
              "name": "parcelData",
              "type": "tuple"
            },
            {
              "internalType": "bytes32",
              "name": "journeyId",
              "type": "bytes32"
            },
            {
              "internalType": "enum Ausys.JourneyStatus",
              "name": "currentStatus",
              "type": "uint8"
            },
            {
              "internalType": "address",
              "name": "sender",
              "type": "address"
            },
            {
              "internalType": "address",
              "name": "receiver",
              "type": "address"
            },
            {
              "internalType": "address",
              "name": "driver",
              "type": "address"
            },
            {
              "internalType": "uint256",
              "name": "journeyStart",
              "type": "uint256"
            },
            {
              "internalType": "uint256",
              "name": "journeyEnd",
              "type": "uint256"
            },
            {
              "internalType": "uint256",
              "name": "bounty",
              "type": "uint256"
            },
            {
              "internalType": "uint256",
              "name": "ETA",
              "type": "uint256"
            }
          ],
          "internalType": "struct Ausys.Journey",
          "name": "",
          "type": "tuple"
        }
      ],
      "stateMutability": "view",
      "type": "function"
    },
    {
      "inputs": [
        {
          "internalType": "bytes32",
          "name": "role",
          "type": "bytes32"
        },
        {
          "internalType": "address",
          "name": "account",
          "type": "address"
        }
      ],
      "name": "grantRole",
      "outputs": [],
      "stateMutability": "nonpayable",
      "type": "function"
    },
    {
      "inputs": [
        {
          "internalType": "bytes32",
          "name": "id",
          "type": "bytes32"
        }
      ],
      "name": "handOff",
      "outputs": [
        {
          "internalType": "bool",
          "name": "",
          "type": "bool"
        }
      ],
      "stateMutability": "nonpayable",
      "type": "function"
    },
    {
      "inputs": [
        {
          "internalType": "bytes32",
          "name": "id",
          "type": "bytes32"
        }
      ],
      "name": "handOn",
      "outputs": [
        {
          "internalType": "bool",
          "name": "",
          "type": "bool"
        }
      ],
      "stateMutability": "nonpayable",
      "type": "function"
    },
    {
      "inputs": [
        {
          "internalType": "bytes32",
          "name": "role",
          "type": "bytes32"
        },
        {
          "internalType": "address",
          "name": "account",
          "type": "address"
        }
      ],
      "name": "hasRole",
      "outputs": [
        {
          "internalType": "bool",
          "name": "",
          "type": "bool"
        }
      ],
      "stateMutability": "view",
      "type": "function"
    },
    {
      "inputs": [
        {
          "internalType": "bytes32",
          "name": "",
          "type": "bytes32"
        }
      ],
      "name": "idToJourney",
      "outputs": [
        {
          "components": [
            {
              "components": [
                {
                  "internalType": "string",
                  "name": "lat",
                  "type": "string"
                },
                {
                  "internalType": "string",
                  "name": "lng",
                  "type": "string"
                }
              ],
              "internalType": "struct Ausys.Location",
              "name": "startLocation",
              "type": "tuple"
            },
            {
              "components": [
                {
                  "internalType": "string",
                  "name": "lat",
                  "type": "string"
                },
                {
                  "internalType": "string",
                  "name": "lng",
                  "type": "string"
                }
              ],
              "internalType": "struct Ausys.Location",
              "name": "endLocation",
              "type": "tuple"
            },
            {
              "internalType": "string",
              "name": "startName",
              "type": "string"
            },
            {
              "internalType": "string",
              "name": "endName",
              "type": "string"
            }
          ],
          "internalType": "struct Ausys.ParcelData",
          "name": "parcelData",
          "type": "tuple"
        },
        {
          "internalType": "bytes32",
          "name": "journeyId",
          "type": "bytes32"
        },
        {
          "internalType": "enum Ausys.JourneyStatus",
          "name": "currentStatus",
          "type": "uint8"
        },
        {
          "internalType": "address",
          "name": "sender",
          "type": "address"
        },
        {
          "internalType": "address",
          "name": "receiver",
          "type": "address"
        },
        {
          "internalType": "address",
          "name": "driver",
          "type": "address"
        },
        {
          "internalType": "uint256",
          "name": "journeyStart",
          "type": "uint256"
        },
        {
          "internalType": "uint256",
          "name": "journeyEnd",
          "type": "uint256"
        },
        {
          "internalType": "uint256",
          "name": "bounty",
          "type": "uint256"
        },
        {
          "internalType": "uint256",
          "name": "ETA",
          "type": "uint256"
        }
      ],
      "stateMutability": "view",
      "type": "function"
    },
    {
      "inputs": [
        {
          "internalType": "bytes32",
          "name": "",
          "type": "bytes32"
        }
      ],
      "name": "idToOrder",
      "outputs": [
        {
          "internalType": "bytes32",
          "name": "id",
          "type": "bytes32"
        },
        {
          "internalType": "address",
          "name": "token",
          "type": "address"
        },
        {
          "internalType": "uint256",
          "name": "tokenId",
          "type": "uint256"
        },
        {
          "internalType": "uint256",
          "name": "tokenQuantity",
          "type": "uint256"
        },
        {
          "internalType": "uint256",
          "name": "price",
          "type": "uint256"
        },
        {
          "internalType": "uint256",
          "name": "txFee",
          "type": "uint256"
        },
        {
          "internalType": "address",
          "name": "buyer",
          "type": "address"
        },
        {
          "internalType": "address",
          "name": "seller",
          "type": "address"
        },
        {
          "components": [
            {
              "components": [
                {
                  "internalType": "string",
                  "name": "lat",
                  "type": "string"
                },
                {
                  "internalType": "string",
                  "name": "lng",
                  "type": "string"
                }
              ],
              "internalType": "struct Ausys.Location",
              "name": "startLocation",
              "type": "tuple"
            },
            {
              "components": [
                {
                  "internalType": "string",
                  "name": "lat",
                  "type": "string"
                },
                {
                  "internalType": "string",
                  "name": "lng",
                  "type": "string"
                }
              ],
              "internalType": "struct Ausys.Location",
              "name": "endLocation",
              "type": "tuple"
            },
            {
              "internalType": "string",
              "name": "startName",
              "type": "string"
            },
            {
              "internalType": "string",
              "name": "endName",
              "type": "string"
            }
          ],
          "internalType": "struct Ausys.ParcelData",
          "name": "locationData",
          "type": "tuple"
        },
        {
          "internalType": "enum Ausys.OrderStatus",
          "name": "currentStatus",
          "type": "uint8"
        },
        {
          "internalType": "bytes32",
          "name": "contractualAgreement",
          "type": "bytes32"
        }
      ],
      "stateMutability": "view",
      "type": "function"
    },
    {
      "inputs": [
        {
          "internalType": "address",
          "name": "sender",
          "type": "address"
        },
        {
          "internalType": "address",
          "name": "receiver",
          "type": "address"
        },
        {
          "components": [
            {
              "components": [
                {
                  "internalType": "string",
                  "name": "lat",
                  "type": "string"
                },
                {
                  "internalType": "string",
                  "name": "lng",
                  "type": "string"
                }
              ],
              "internalType": "struct Ausys.Location",
              "name": "startLocation",
              "type": "tuple"
            },
            {
              "components": [
                {
                  "internalType": "string",
                  "name": "lat",
                  "type": "string"
                },
                {
                  "internalType": "string",
                  "name": "lng",
                  "type": "string"
                }
              ],
              "internalType": "struct Ausys.Location",
              "name": "endLocation",
              "type": "tuple"
            },
            {
              "internalType": "string",
              "name": "startName",
              "type": "string"
            },
            {
              "internalType": "string",
              "name": "endName",
              "type": "string"
            }
          ],
          "internalType": "struct Ausys.ParcelData",
          "name": "_data",
          "type": "tuple"
        },
        {
          "internalType": "uint256",
          "name": "bounty",
          "type": "uint256"
        },
        {
          "internalType": "uint256",
          "name": "ETA",
          "type": "uint256"
        }
      ],
      "name": "journeyCreation",
      "outputs": [],
      "stateMutability": "nonpayable",
      "type": "function"
    },
    {
      "inputs": [],
      "name": "journeyIdCounter",
      "outputs": [
        {
          "internalType": "uint256",
          "name": "",
          "type": "uint256"
        }
      ],
      "stateMutability": "view",
      "type": "function"
    },
    {
      "inputs": [
        {
          "internalType": "bytes32",
          "name": "",
          "type": "bytes32"
        }
      ],
      "name": "journeyToOrderId",
      "outputs": [
        {
          "internalType": "bytes32",
          "name": "",
          "type": "bytes32"
        }
      ],
      "stateMutability": "view",
      "type": "function"
    },
    {
      "inputs": [
        {
          "internalType": "address",
          "name": "",
          "type": "address"
        },
        {
          "internalType": "address",
          "name": "",
          "type": "address"
        },
        {
          "internalType": "uint256[]",
          "name": "",
          "type": "uint256[]"
        },
        {
          "internalType": "uint256[]",
          "name": "",
          "type": "uint256[]"
        },
        {
          "internalType": "bytes",
          "name": "",
          "type": "bytes"
        }
      ],
      "name": "onERC1155BatchReceived",
      "outputs": [
        {
          "internalType": "bytes4",
          "name": "",
          "type": "bytes4"
        }
      ],
      "stateMutability": "nonpayable",
      "type": "function"
    },
    {
      "inputs": [
        {
          "internalType": "address",
          "name": "",
          "type": "address"
        },
        {
          "internalType": "address",
          "name": "",
          "type": "address"
        },
        {
          "internalType": "uint256",
          "name": "",
          "type": "uint256"
        },
        {
          "internalType": "uint256",
          "name": "",
          "type": "uint256"
        },
        {
          "internalType": "bytes",
          "name": "",
          "type": "bytes"
        }
      ],
      "name": "onERC1155Received",
      "outputs": [
        {
          "internalType": "bytes4",
          "name": "",
          "type": "bytes4"
        }
      ],
      "stateMutability": "nonpayable",
      "type": "function"
    },
    {
      "inputs": [
        {
          "components": [
            {
              "internalType": "bytes32",
              "name": "id",
              "type": "bytes32"
            },
            {
              "internalType": "address",
              "name": "token",
              "type": "address"
            },
            {
              "internalType": "uint256",
              "name": "tokenId",
              "type": "uint256"
            },
            {
              "internalType": "uint256",
              "name": "tokenQuantity",
              "type": "uint256"
            },
            {
              "internalType": "uint256",
              "name": "price",
              "type": "uint256"
            },
            {
              "internalType": "uint256",
              "name": "txFee",
              "type": "uint256"
            },
            {
              "internalType": "address",
              "name": "buyer",
              "type": "address"
            },
            {
              "internalType": "address",
              "name": "seller",
              "type": "address"
            },
            {
              "internalType": "bytes32[]",
              "name": "journeyIds",
              "type": "bytes32[]"
            },
            {
              "internalType": "address[]",
              "name": "nodes",
              "type": "address[]"
            },
            {
              "components": [
                {
                  "components": [
                    {
                      "internalType": "string",
                      "name": "lat",
                      "type": "string"
                    },
                    {
                      "internalType": "string",
                      "name": "lng",
                      "type": "string"
                    }
                  ],
                  "internalType": "struct Ausys.Location",
                  "name": "startLocation",
                  "type": "tuple"
                },
                {
                  "components": [
                    {
                      "internalType": "string",
                      "name": "lat",
                      "type": "string"
                    },
                    {
                      "internalType": "string",
                      "name": "lng",
                      "type": "string"
                    }
                  ],
                  "internalType": "struct Ausys.Location",
                  "name": "endLocation",
                  "type": "tuple"
                },
                {
                  "internalType": "string",
                  "name": "startName",
                  "type": "string"
                },
                {
                  "internalType": "string",
                  "name": "endName",
                  "type": "string"
                }
              ],
              "internalType": "struct Ausys.ParcelData",
              "name": "locationData",
              "type": "tuple"
            },
            {
              "internalType": "enum Ausys.OrderStatus",
              "name": "currentStatus",
              "type": "uint8"
            },
            {
              "internalType": "bytes32",
              "name": "contractualAgreement",
              "type": "bytes32"
            }
          ],
          "internalType": "struct Ausys.Order",
          "name": "order",
          "type": "tuple"
        }
      ],
      "name": "orderCreation",
      "outputs": [
        {
          "internalType": "bytes32",
          "name": "",
          "type": "bytes32"
        }
      ],
      "stateMutability": "nonpayable",
      "type": "function"
    },
    {
      "inputs": [],
      "name": "orderIdCounter",
      "outputs": [
        {
          "internalType": "uint256",
          "name": "",
          "type": "uint256"
        }
      ],
      "stateMutability": "view",
      "type": "function"
    },
    {
      "inputs": [
        {
          "internalType": "uint256",
          "name": "",
          "type": "uint256"
        }
      ],
      "name": "orderIds",
      "outputs": [
        {
          "internalType": "bytes32",
          "name": "",
          "type": "bytes32"
        }
      ],
      "stateMutability": "view",
      "type": "function"
    },
    {
      "inputs": [
        {
          "internalType": "bytes32",
          "name": "orderId",
          "type": "bytes32"
        },
        {
          "internalType": "address",
          "name": "sender",
          "type": "address"
        },
        {
          "internalType": "address",
          "name": "receiver",
          "type": "address"
        },
        {
          "components": [
            {
              "components": [
                {
                  "internalType": "string",
                  "name": "lat",
                  "type": "string"
                },
                {
                  "internalType": "string",
                  "name": "lng",
                  "type": "string"
                }
              ],
              "internalType": "struct Ausys.Location",
              "name": "startLocation",
              "type": "tuple"
            },
            {
              "components": [
                {
                  "internalType": "string",
                  "name": "lat",
                  "type": "string"
                },
                {
                  "internalType": "string",
                  "name": "lng",
                  "type": "string"
                }
              ],
              "internalType": "struct Ausys.Location",
              "name": "endLocation",
              "type": "tuple"
            },
            {
              "internalType": "string",
              "name": "startName",
              "type": "string"
            },
            {
              "internalType": "string",
              "name": "endName",
              "type": "string"
            }
          ],
          "internalType": "struct Ausys.ParcelData",
          "name": "_data",
          "type": "tuple"
        },
        {
          "internalType": "uint256",
          "name": "bounty",
          "type": "uint256"
        },
        {
          "internalType": "uint256",
          "name": "ETA",
          "type": "uint256"
        },
        {
          "internalType": "uint256",
          "name": "tokenQuantity",
          "type": "uint256"
        },
        {
          "internalType": "uint256",
          "name": "assetId",
          "type": "uint256"
        }
      ],
      "name": "orderJourneyCreation",
      "outputs": [],
      "stateMutability": "nonpayable",
      "type": "function"
    },
    {
      "inputs": [],
      "name": "owner",
      "outputs": [
        {
          "internalType": "address",
          "name": "",
          "type": "address"
        }
      ],
      "stateMutability": "view",
      "type": "function"
    },
    {
      "inputs": [
        {
          "internalType": "bytes32",
          "name": "id",
          "type": "bytes32"
        }
      ],
      "name": "packageSign",
      "outputs": [],
      "stateMutability": "nonpayable",
      "type": "function"
    },
    {
      "inputs": [],
      "name": "renounceOwnership",
      "outputs": [],
      "stateMutability": "nonpayable",
      "type": "function"
    },
    {
      "inputs": [
        {
          "internalType": "bytes32",
          "name": "role",
          "type": "bytes32"
        },
        {
          "internalType": "address",
          "name": "account",
          "type": "address"
        }
      ],
      "name": "renounceRole",
      "outputs": [],
      "stateMutability": "nonpayable",
      "type": "function"
    },
    {
      "inputs": [
        {
          "internalType": "address",
          "name": "admin",
          "type": "address"
        }
      ],
      "name": "revokeAdmin",
      "outputs": [],
      "stateMutability": "nonpayable",
      "type": "function"
    },
    {
      "inputs": [
        {
          "internalType": "bytes32",
          "name": "role",
          "type": "bytes32"
        },
        {
          "internalType": "address",
          "name": "account",
          "type": "address"
        }
      ],
      "name": "revokeRole",
      "outputs": [],
      "stateMutability": "nonpayable",
      "type": "function"
    },
    {
      "inputs": [
        {
          "internalType": "address",
          "name": "admin",
          "type": "address"
        }
      ],
      "name": "setAdmin",
      "outputs": [],
      "stateMutability": "nonpayable",
      "type": "function"
    },
    {
      "inputs": [
        {
          "internalType": "address",
          "name": "dispatcher",
          "type": "address"
        },
        {
          "internalType": "bool",
          "name": "enable",
          "type": "bool"
        }
      ],
      "name": "setDispatcher",
      "outputs": [],
      "stateMutability": "nonpayable",
      "type": "function"
    },
    {
      "inputs": [
        {
          "internalType": "address",
          "name": "driver",
          "type": "address"
        },
        {
          "internalType": "bool",
          "name": "enable",
          "type": "bool"
        }
      ],
      "name": "setDriver",
      "outputs": [],
      "stateMutability": "nonpayable",
      "type": "function"
    },
    {
      "inputs": [
        {
          "internalType": "contract AurumNodeManager",
          "name": "_nodeManager",
          "type": "address"
        }
      ],
      "name": "setNodeManager",
      "outputs": [],
      "stateMutability": "nonpayable",
      "type": "function"
    },
    {
      "inputs": [
        {
          "internalType": "bytes4",
          "name": "interfaceId",
          "type": "bytes4"
        }
      ],
      "name": "supportsInterface",
      "outputs": [
        {
          "internalType": "bool",
          "name": "",
          "type": "bool"
        }
      ],
      "stateMutability": "view",
      "type": "function"
    },
    {
      "inputs": [
        {
          "internalType": "address",
          "name": "newOwner",
          "type": "address"
        }
      ],
      "name": "transferOwnership",
      "outputs": [],
      "stateMutability": "nonpayable",
      "type": "function"
    }
  ],
  "bytecode": "0x6080346101b457601f61528438819003918201601f19168301916001600160401b038311848410176101b9578084926020946040528339810103126101b457516001600160a01b038116908190036101b457600160008181558154336001600160a01b0319821681179093556001600160a01b0316907f8be0079c531659141344cd1fd0a4f28419497f9722a3daafe3b4186f6b6457e09080a36000600d819055600e819055600380546001600160a01b03191692909217909155338152600080516020615244833981519152602052604090205460ff1615610174575b336000908152600080516020615264833981519152602052604090205460ff1615610112575b60405161505490816101d08239f35b33600081815260008051602061526483398151915260205260408120805460ff1916600117905581907fa49807205ce4d355092ef5a8a18f56e8913cf4a201fbe287825b095693c21775906000805160206152248339815191529080a4610103565b33600081815260008051602061524483398151915260205260408120805460ff1916600117905581906000805160206152248339815191528180a46100dd565b600080fd5b634e487b7160e01b600052604160045260246000fdfe608080604052600436101561001357600080fd5b600090813560e01c90816301ffc9a71461418e5750806308ec3824146141705780631319e7e11461412b5780631ba5c00f1461405d5780632372208414613fed578063248a9ca314613fb7578063260ff43d14613e615780632d34567014613db25780632f2ff15d14613d0257806336568abe14613c6f5780634a00787a14613b355780635306bb141461393c5780635492222e146138f357806356537593146138ca5780635778472a146135bb5780636d205a9114612cf35780636d94151c14612cc9578063704b6c0214612bec578063715018a614612b8f57806375b238fc14612b66578063876244b614612a2c5780638da39f601461289a5780638da5cb5b1461287157806391d1485414612828578063982e2f98146127d15780639b21e582146127885780639d99e418146122925780639ef5aee914612269578063a217fddf1461224d578063a787248a14612176578063acfd0a7914611472578063b696c54f146107f2578063bc197c811461075c578063bd58cea41461034f578063be37442314610331578063d547741f146102e8578063f23a6e611461028e5763f2fde38b146101c357600080fd5b3461028b57602036600319011261028b576101dc61450c565b6101e46148c2565b6001600160a01b0316801561023757600180546001600160a01b0319811683179091556001600160a01b03167f8be0079c531659141344cd1fd0a4f28419497f9722a3daafe3b4186f6b6457e08380a380f35b60405162461bcd60e51b815260206004820152602660248201527f4f776e61626c653a206e6577206f776e657220697320746865207a65726f206160448201526564647265737360d01b6064820152608490fd5b80fd5b503461028b5760a036600319011261028b576102a861450c565b506102b1614527565b506084356001600160401b0381116102e4576102d190369060040161459b565b5060405163f23a6e6160e01b8152602090f35b5080fd5b503461028b57604036600319011261028b5761032e600435610308614527565b9061032961032482600052600260205260016040600020015490565b614a95565b61491a565b80f35b503461028b578060031936011261028b576020600e54604051908152f35b503461028b57602036600319011261028b576004359081815260096020526040812060018060a01b03600782015460081c163314908115610745575b811561072e575b501561071f57818152600960205260ff6007604083200154166103b4816144be565b610710576103c0614ad5565b8181526009602052604081209160018060a01b03600984015416808352600b6020526040832082845260205260ff6040842054161561070157600784019360018060a01b03855460081c168452600a6020526040842083855260205260ff604085205416156106f257600a429101558252600b602052604082208183526020526040822060ff19815416905560018060a01b03835460081c168252600a602052604082208183526020526040822060ff198154169055600160ff19845416178355807f1a75ca18929567ba294eca8af9f90a494f02cfce73c1492a390adf716a919592602060405160018152a280825260076020526040822054825260066020526040822060108101805460ff81166104d8816144be565b156106a9575b5050835460078201805490926001600160a01b0391821692909160089190911c16821461054f575b5050507f1a75ca18929567ba294eca8af9f90a494f02cfce73c1492a390adf716a919592602060ff600195541660405190610540816144be565b8152a255602060405160018152f35b6001810160018060a01b0381541692600283019360038554940193845492823b156106a5579161059c93918a809460405196879586948593637921219560e11b85523090600486016147f0565b03925af1801561069a57908791610681575b5050549154604051909390926001600160a01b03166105cc846142a0565b8352602083019384526040830186815260608401878152600454925493546001600160a01b03948516949093169291833b1561067d579288959492869260c495604051998a98899763e896eacb60e01b8952600489015260018060a01b03905116602488015251604487015251606486015251608485015260a48401525af180156106725761065d575b8080610506565b6106688380926142bb565b6102e45738610656565b6040513d85823e3d90fd5b8880fd5b8161068b916142bb565b6106965785386105ae565b8580fd5b6040513d89823e3d90fd5b8980fd5b60019060ff1916179055818352600760205260408320547f7911d3e33ea22efc46a7d349370a83ab304c214048076037a23443e95da88ee1602060405160018152a238806104de565b634b2c075160e01b8452600484fd5b639651c94760e01b8352600483fd5b6396676d3f60e01b8152600490fd5b63166f401760e11b8152600490fd5b600801546001600160a01b03163314905038610392565b60098101546001600160a01b03163314915061038b565b503461028b5760a036600319011261028b5761077661450c565b5061077f614527565b506044356001600160401b0381116102e45761079f9036906004016146f3565b506064356001600160401b0381116102e4576107bf9036906004016146f3565b506084356001600160401b0381116102e4576107df90369060040161459b565b5060405163bc197c8160e01b8152602090f35b503461028b5761010036600319011261028b5761080d614527565b6044356001600160a01b038116810361146e576064356001600160401b03811161146a5761083f90369060040161463a565b9060843560a43560043586526006602052604086209060248760018060a01b0360045416604051928380926313a4120960e31b825260018060a01b038a1660048301525afa801561145f578890611239575b60200151600693909301805490936001600160a01b039190911691506001600160f81b031916600160f81b141580611226575b61121757331415806111e5575b6111d657428111156111c75760c435156111b8577f4fbba82c7ac2d3085ee7a8b5f858464eef150708109bc1fe981b0956c76d93d591602091610912614b2b565b6040519761091f89614269565b885283880152604087018990526001600160a01b038881166060890152868116608089015260a088018a905260c088018a905260e088018a905261010088018690526101208801919091526003548254610980928792309282169116614b5c565b546040519384526001600160a01b031692a2602082015184526009602052604084208251805180518051906001600160401b03821161105c576109c385546141fd565b601f8111611188575b50602090601f83116001146111225760209392918a9183611117575b50508160011b916000199060031b1c19161784555b01518051906001600160401b038211610ef7578190610a1f60018601546141fd565b601f81116110e4575b50602090601f831160011461107b578992611070575b50508160011b916000199060031b1c19161760018301555b602081015180518051906001600160401b03821161105c57610a7b60028601546141fd565b601f8111611029575b50602090601f8311600114610fbd5760209392918a9183610fb2575b50508160011b916000199060031b1c19161760028501555b01518051906001600160401b038211610ef7578190610ada60038601546141fd565b601f8111610f7f575b50602090601f8311600114610f16578992610f0b575b50508160011b916000199060031b1c19161760038301555b60408101518051906001600160401b038211610ef757610b3460048501546141fd565b601f8111610ec4575b50602090601f8311600114610e58576060939291899183610e4d575b50508160011b916000199060031b1c19161760048401555b01518051906001600160401b038211610e3957610b9160058401546141fd565b601f8111610dfb575b50602090601f8311600114610d8e57602094939291889183610d83575b50508160011b916000199060031b1c19161760058201555b82840151600682015560078101610bf36040860151610bed816144be565b826147d8565b60608501518154610100600160a81b031916600891821b610100600160a81b031617909155608085015182820180546001600160a01b03199081166001600160a01b039384161790915560a0870151600985018054909216921691909117905560c0850151600a83015560e0850151600b830155610100850151600c830155610120850151600d909201919091556004358652600683526040862083850151610c9e92909101614750565b60043585526006825260ff601060408720015416610cbb816144be565b15610d66575b81830151855260078252600435604086205560043585526006825284606060018060a01b0360016040842001541660405190610cfc826142a0565b815260e43585820152826040820152015260043585526006825260036040862001610d2a60c4358254614834565b90559101516001600160a01b0391821692909116907fe95fbbb47c61a66e1d1014871befe16b0a21eb24fa7c69a23eb47619fa0fdf938480a480f35b60043585526006825260408520601001805460ff19169055610cc1565b015190503880610bb7565b6005840188528188209190601f198416895b818110610de3575091600193918560209897969410610dca575b505050811b016005820155610bcf565b015160001960f88460031b161c19169055388080610dba565b92936020600181928786015181550195019301610da0565b610e299060058501895260208920601f850160051c81019160208610610e2f575b601f0160051c01906147c1565b38610b9a565b9091508190610e1c565b634e487b7160e01b87526041600452602487fd5b015190503880610b59565b6004850189528189209190601f1984168a5b818110610eac5750916001939185606097969410610e93575b505050811b016004840155610b71565b015160001960f88460031b161c19169055388080610e83565b92936020600181928786015181550195019301610e6a565b610ef190600486018a5260208a20601f850160051c81019160208610610e2f57601f0160051c01906147c1565b38610b3d565b634e487b7160e01b88526041600452602488fd5b015190503880610af9565b600386018a52818a209250601f1984168a5b818110610f675750908460019594939210610f4e575b505050811b016003830155610b11565b015160001960f88460031b161c19169055388080610f3e565b92936020600181928786015181550195019301610f28565b610fac90600387018b5260208b20601f850160051c81019160208610610e2f57601f0160051c01906147c1565b38610ae3565b015190503880610aa0565b600286018a52818a209190601f1984168b5b8181106110115750916001939185602097969410610ff8575b505050811b016002850155610ab8565b015160001960f88460031b161c19169055388080610fe8565b92936020600181928786015181550195019301610fcf565b61105690600287018b5260208b20601f850160051c81019160208610610e2f57601f0160051c01906147c1565b38610a84565b634e487b7160e01b89526041600452602489fd5b015190503880610a3e565b600186018a52818a209250601f1984168a5b8181106110cc57509084600195949392106110b3575b505050811b016001830155610a56565b015160001960f88460031b161c191690553880806110a3565b9293602060018192878601518155019501930161108d565b61111190600187018b5260208b20601f850160051c81019160208610610e2f57601f0160051c01906147c1565b38610a28565b0151905038806109e8565b858a52818a209190601f1984168b5b8181106111705750916001939185602097969410611157575b505050811b0184556109fd565b015160001960f88460031b161c1916905538808061114a565b92936020600181928786015181550195019301611131565b6111b290868b5260208b20601f850160051c81019160208610610e2f57601f0160051c01906147c1565b386109cc565b63162908e360e11b8752600487fd5b630a00ec8b60e31b8752600487fd5b6348f5c3ed60e01b8752600487fd5b50600080516020614fdf8339815191528752600260209081526040808920336000908152925290205460ff16156108d1565b63184096a160e11b8852600488fd5b506001600160a01b0385168114156108c4565b503d8089833e61124981836142bb565b81019060208183031261067d578051906001600160401b0382116106a5570160a08183031261067d576040519160a083018381106001600160401b0382111761144b5760405281516001600160401b03811161143f57820160408183031261143f57604051906112b882614285565b80516001600160401b03811161144757836112d4918301614857565b82526020810151906001600160401b0382116114475701604081840312611443576040519061130282614285565b80516001600160401b03811161143b578461131e918301614857565b82526020810151906001600160401b03821161143b5761134091859101614857565b60208201526020820152835261135860208301614899565b6020840152611369604083016148ae565b604084015260608201516001600160401b03811161143f57820181601f8201121561143f5780519061139a826146dc565b926113a860405194856142bb565b82845260208085019360071b8301019181831161143b57602001925b8284106113ee5750505050608083926113e4926060600696015201614899565b6080820152610891565b60808483031261143b576020608091604051611409816142a0565b611412876148ae565b8152828701518382015260408701516040820152606087015160608201528152019301926113c4565b8d80fd5b8a80fd5b8b80fd5b8c80fd5b634e487b7160e01b8b52604160045260248bfd5b6040513d8a823e3d90fd5b8380fd5b8280fd5b503461028b57602036600319011261028b57600435906001600160401b03821161028b576101a0600319833603011261028b57604051906114b282614237565b826004013582526114c56024840161453d565b602083019081526040830192604485013584526060810160648601358152608082016084870135815260a083019560a4880135875261150660c4890161453d565b9360c0810194855261151a60e48a0161453d565b9460e082019586526101048a01356001600160401b03811161067d578a01903660238301121561067d57600482013591611553836146dc565b9261156160405194856142bb565b808452602060048186019260051b840101019136831161144357602401905b8282106121665750505061010083019182526101248b01356001600160401b0381116106a5578b0192366023850112156106a5576004840135936115c3856146dc565b946115d160405196876142bb565b808652602060048188019260051b840101019136831161144757602401905b82821061214e5750505061012081019384526101448c01356001600160401b03811161143f578c6004611626923692010161463a565b9b61014082019c8d526101648101359360048510156114435761016083019485526101846101808401920135825261165c614ad5565b83516001600160a01b031615801561213c575b801561212a575b61211b5787511561210c5783518a516001600160a01b0390811691161461211b5788511561210c57600e54600181018091116120f85780600e5560405160208101918252602081526116c96040826142bb565b5190209c8d8d52600660205260408d209351845560018060a01b038c5116600185019060018060a01b03166001600160601b0360a01b82541617905587516002850155895160038501558851600485015551600584015560018060a01b03845116600684019060018060a01b03166001600160601b0360a01b82541617905560018060a01b038a5116600784019060018060a01b03166001600160601b0360a01b825416179055600883019051908151916001600160401b038311611d2f57600160401b8311611d2f578154838355838f8282106120ce575b505050602001908d5260208d208d5b8381106120ba5750505050600982018551908151916001600160401b038311611d2f57600160401b8311611d2f576020908e83548585558581811061209f575b50505001908d5260208d208d5b8381106120825750505050600a8201908d519182519081518051906001600160401b038211611f31578f829161183485546141fd565b601f8111612052575b50602091601f8411600114611fef5792611fe4575b50508160011b916000199060031b1c19161790555b602001518051600b8501916001600160401b038211611de1578e829161188d85546141fd565b601f8111611fb4575b50602091601f8411600114611f515792611f46575b50508160011b916000199060031b1c19161790555b602082015180518051600c8601916001600160401b038211611f31578f82916118e985546141fd565b601f8111611f01575b50602091601f8411600114611e9e5792611e93575b50508160011b916000199060031b1c19161790555b602001518051600d8501916001600160401b038211611de1578e829161194285546141fd565b601f8111611e63575b50602091601f8411600114611e005792611df5575b50508160011b916000199060031b1c19161790555b600e830160408301518051906001600160401b038211611de1578e829161199c85546141fd565b601f8111611db1575b50602091601f8411600114611d4e5792611d43575b50508160011b916000199060031b1c19161790555b6060600f84019201519182516001600160401b038111611d2f578d6119f483546141fd565b601f8111611cff575b50508d602090601f8311600114611c96579060119583611c8b575b50508160011b916000199060031b1c19161790555b611a448551611a3b816144be565b601085016147d8565b519101558989526006602052601060408a200160ff19815416905589895260066020528960408a205584518060011b9080820460021490151715611c77576064908b8b52600660205204600560408b200155600554600160401b811015611c635790897f4fbba82c7ac2d3085ee7a8b5f858464eef150708109bc1fe981b0956c76d93d56020611b5c8e80611aff611ae889600160ff9d9c9b0160055560056144de565b819391549060031b91821b91600019901b19161790565b905560035486518c51838852600686526040882060050154611b3b936001600160a01b03938416931691611b339190614834565b913091614b5c565b6005604060018060a01b03885116968d519381526006865220015490614834565b604051908152a251965197519351955194518a8a52600660205260408a206005015491516001600160a01b03998a1699988916989095169492611b9e846144be565b611ba7846144be565b519b519560405197610120890196895260208901528060408901526060880152608087015260a08601521660c084015261012060e0840152875180915260206101408401980190865b818110611c44575050507fb1cec21eede76af4e5554de2e170ba032c4000e4f81414b2d53a5d76eebc27b98280611c388a8a9560019a99989760209d0361010085015261446a565b0390a455604051908152f35b82516001600160a01b03168a526020998a019990920191600101611bf0565b634e487b7160e01b8a52604160045260248afd5b634e487b7160e01b8a52601160045260248afd5b015190503880611a18565b91929394601f198416858452828420935b818110611ce7575091600193918560119897969410611cce575b505050811b019055611a2d565b015160001960f88460031b161c19169055388080611cc1565b92936020600181928786015181550195019301611ca7565b60208285611d28945220601f840160051c81019160208510610e2f57601f0160051c01906147c1565b8d386119fd565b634e487b7160e01b8e52604160045260248efd5b0151905038806119ba565b8581528281209350601f198516905b818110611d995750908460019594939210611d80575b505050811b0190556119cf565b015160001960f88460031b161c19169055388080611d73565b92936020600181928786015181550195019301611d5d565b611ddb9086845260208420601f860160051c81019160208710610e2f57601f0160051c01906147c1565b386119a5565b634e487b7160e01b8f52604160045260248ffd5b015190503880611960565b8581528281209350601f198516905b818110611e4b5750908460019594939210611e32575b505050811b019055611975565b015160001960f88460031b161c19169055388080611e25565b92936020600181928786015181550195019301611e0f565b611e8d9086845260208420601f860160051c81019160208710610e2f57601f0160051c01906147c1565b3861194b565b015190503880611907565b8581528281209350601f198516905b818110611ee95750908460019594939210611ed0575b505050811b01905561191c565b015160001960f88460031b161c19169055388080611ec3565b92936020600181928786015181550195019301611ead565b611f2b9086845260208420601f860160051c81019160208710610e2f57601f0160051c01906147c1565b386118f2565b50634e487b7160e01b8f52604160045260248ffd5b0151905038806118ab565b8581528281209350601f198516905b818110611f9c5750908460019594939210611f83575b505050811b0190556118c0565b015160001960f88460031b161c19169055388080611f76565b92936020600181928786015181550195019301611f60565b611fde9086845260208420601f860160051c81019160208710610e2f57601f0160051c01906147c1565b38611896565b015190503880611852565b8581528281209350601f198516905b81811061203a5750908460019594939210612021575b505050811b019055611867565b015160001960f88460031b161c19169055388080612014565b92936020600181928786015181550195019301611ffe565b61207c9086845260208420601f860160051c81019160208710610e2f57601f0160051c01906147c1565b3861183d565b82516001600160a01b0316818301556020909201916001016117fe565b8483876120b295522091820191016147c1565b8e38856117f1565b6001906020845194019381840155016117b1565b8481526020812092830192860191505b8282106120ed578591506117a2565b81556001018f6120de565b634e487b7160e01b8d52601160045260248dfd5b63162908e360e11b8c5260048cfd5b63e6c4247b60e01b8c5260048cfd5b508a516001600160a01b031615611676565b5089516001600160a01b03161561166f565b6020809161215b8461453d565b8152019101906115f0565b8135815260209182019101611580565b503461028b57602036600319011261028b576040906004358152600660205220805460018060a01b0360018301541691600281015461223360038301546004840154600585015460018060a01b036006870154169060018060a01b03600788015416926121e5600a89016143ac565b94601160ff60108b015416990154976040519b8c9b8c5260208c015260408b015260608a0152608089015260a088015260c087015260e086015261016061010086015261016085019061446a565b9161223d816144be565b6101208401526101408301520390f35b503461028b578060031936011261028b57602090604051908152f35b503461028b578060031936011261028b576020604051600080516020614fff8339815191528152f35b503461028b57602036600319011261028b57600435908181526009602052600160ff6007604084200154166122c6816144be565b036127795781815260096020526040812060078101543360089190911c6001600160a01b031614908115612762575b811561274b575b501561071f5761230a614ad5565b81815260096020526040812091808252600760205260408220548252600660205260408220926010840190600260ff835416612345816144be565b1461273d5760098101546001600160a01b03168452600b6020908152604080862085875290915284205460ff161561272e57600881019060018060a01b038254168552600a6020526040852084865260205260ff6040862054161561271f5760078101600260ff19825416179055600b42910155827f1a75ca18929567ba294eca8af9f90a494f02cfce73c1492a390adf716a919592602060405160028152a28284526009602052600260ff600760408720015416612403816144be565b0361271057828452600c60205260ff60408520541661270157828452600c60208181526040808720805460ff191660011790558587526009918290528620600354918101549201546124639290916001600160a01b039182169116614ba5565b5460068501546001600160a01b03908116929116821461248d575b60018455602060405160018152f35b83929350600260ff19825416179055828252600760205260408220547f7911d3e33ea22efc46a7d349370a83ab304c214048076037a23443e95da88ee1602060405160028152a260018060a01b036001850154166002850154600386015492823b156126fd579161251a939185809460405196879586948593637921219560e11b855230600486016147f0565b03925af180156126f2576126e2575b509060018060a01b03600354167fcb4a9094da4df77fb2c0dbaa5047660b1237e61d82a02176c1be74ca757f253160206007860161257860018060a01b03825416946004890195865491614ba5565b5492546040519081526001600160a01b0390931692a26009830180549081159485156125de575b505050600192508152600760205260408120547fd4250d6114a611e75d68b1c6f14c61e967863d8ac20bc8ebfa4e5f28f66473668280a238808061247e565b60050154946126ce578185048281028181048414821517156126ba5786039586116126a657600195855b84811061261657505061259f565b87908061269d57612628835b85614834565b61265481848060a01b0360035416612640858a6144de565b878060a01b0391549060031b1c1690614ba5565b7f03dec068f82c9920a9e652806929c04dfb2e80a427660a62537e21d1997ef731602061268184896144de565b868060a01b0391549060031b1c1692604051908152a201612608565b61262888612622565b634e487b7160e01b85526011600452602485fd5b634e487b7160e01b86526011600452602486fd5b634e487b7160e01b84526012600452602484fd5b816126ec916142bb565b38612529565b6040513d84823e3d90fd5b8480fd5b6302cc018560e31b8452600484fd5b63f6a1628360e01b8452600484fd5b6302693de160e11b8552600485fd5b639651c94760e01b8452600484fd5b62560ff960e81b8452600484fd5b600801546001600160a01b031633149050386122fc565b60098101546001600160a01b0316331491506122f5565b636a6a451560e11b8152600490fd5b503461028b57604036600319011261028b5760209060ff906040906001600160a01b036127b361450c565b168152600a8452818120602435825284522054166040519015158152f35b503461028b57604036600319011261028b576127eb61450c565b6001600160a01b031681526008602052604081208054602435929083101561028b57602061281984846144de565b90549060031b1c604051908152f35b503461028b57604036600319011261028b5760ff6040602092612849614527565b6004358252600285528282206001600160a01b03909116825284522054604051911615158152f35b503461028b578060031936011261028b576001546040516001600160a01b039091168152602090f35b503461028b57602036600319011261028b576040816129d59261012083516128c181614269565b6128c961478f565b815282602082015282858201528260608201528260808201528260a08201528260c08201528260e082015282610100820152015260043581526009602052206040519061291582614269565b61291e816143ac565b825260068101546020830190815260078201549091604084019160ff8116612945816144be565b8352606085019060018060a01b039060081c16815260018060a01b036008830154166080860190815260018060a01b0360098401541660a08701908152600a8401549160c08801928352600b8501549360e08901948552600d600c870154966101008b019788520154966101208a019788526040519a8b9a60208c525161014060208d01526101608c019061446a565b985160408b0152516129e6816144be565b60608a0152516001600160a01b0390811660808a01529051811660a089015290511660c08701525160e08601525161010085015251610120840152516101408301520390f35b503461028b57612a3b36614551565b612a4361498e565b15612ad957600080516020614fff83398151915282526002602090815260408084206001600160a01b038416855290915282205460ff1615612a83575080f35b600080516020614fff8339815191528083526002602090815260408085206001600160a01b0394909416808652939091528320805460ff19166001179055339190600080516020614f7f8339815191528480a480f35b600080516020614fff83398151915282526002602090815260408084206001600160a01b038416855290915282205460ff16612b13575080f35b600080516020614fff8339815191528083526002602090815260408085206001600160a01b0394909416808652939091528320805460ff19169055339190600080516020614fbf8339815191528480a480f35b503461028b578060031936011261028b576020604051600080516020614fdf8339815191528152f35b503461028b578060031936011261028b57612ba86148c2565b600180546001600160a01b0319811690915581906001600160a01b03167f8be0079c531659141344cd1fd0a4f28419497f9722a3daafe3b4186f6b6457e08280a380f35b503461028b57602036600319011261028b57612c0661450c565b612c0e6148c2565b600080516020614fdf83398151915282526002602090815260408084206001600160a01b038416855290915282205460ff1615612c76575b6001600160a01b03167f8fe72c3e0020beb3234e76ae6676fa576fbfcae600af1c4fea44784cf0db329c8280a280f35b600080516020614fdf8339815191528083526002602090815260408085206001600160a01b03851680875292528420805460ff191660011790553391600080516020614f7f8339815191528580a4612c46565b503461028b57602036600319011261028b5760406020916004358152600783522054604051908152f35b503461028b5760a036600319011261028b57612d0d61450c565b612d15614527565b6044356001600160401b03811161146a57612d3490369060040161463a565b90608435612d40614ad5565b336001600160a01b03831614158061358b575b61357c576001600160a01b03841615801561356b575b61355c576064351561354d574281111561353e57612d85614b2b565b60405193612d9285614269565b8452602080850182905260408086018890526001600160a01b0387811660608801528516608087015260a0860188905260c0860188905260e086018890526064356101008701526101208601939093529086526009905284208251805180518051906001600160401b03821161105c57612e0c85546141fd565b601f811161350e575b50602090601f83116001146134a85760209392918a918361349d575b50508160011b916000199060031b1c19161784555b01518051906001600160401b038211610ef7578190612e6860018601546141fd565b601f811161346a575b50602090601f83116001146134015789926133f6575b50508160011b916000199060031b1c19161760018301555b602081015180518051906001600160401b03821161105c57612ec460028601546141fd565b601f81116133c3575b50602090601f83116001146133575760209392918a918361334c575b50508160011b916000199060031b1c19161760028501555b01518051906001600160401b038211610ef7578190612f2360038601546141fd565b601f8111613319575b50602090601f83116001146132b05789926132a5575b50508160011b916000199060031b1c19161760038301555b60408101518051906001600160401b038211610ef757612f7d60048501546141fd565b601f8111613272575b50602090601f83116001146132065760609392918991836131fb575b50508160011b916000199060031b1c19161760048401555b01518051906001600160401b038211610e3957612fda60058401546141fd565b601f81116131c8575b50602090601f83116001146131585760209493929188918361314d575b50508160011b916000199060031b1c19161760058201555b828401516006820155600781016130366040860151610bed816144be565b60608501518154610100600160a81b031916600891821b610100600160a81b031617909155608085015190820180546001600160a01b03199081166001600160a01b039384161790915560a086015160098401805490921690831617905560c0850151600a83015560e0850151600b830155610100850151600c830155610120850151600d909201919091556003546130d791606435913091859116614b5c565b60405160643581526001600160a01b038216907f4fbba82c7ac2d3085ee7a8b5f858464eef150708109bc1fe981b0956c76d93d5908490a29101516001600160a01b0391821692909116907fe95fbbb47c61a66e1d1014871befe16b0a21eb24fa7c69a23eb47619fa0fdf938480a46001815580f35b015190503880613000565b9060058401885280882091885b601f19851681106131b057509183916001936020979695601f19811610613197575b505050811b016005820155613018565b015160001960f88460031b161c19169055388080613187565b91926020600181928685015181550194019201613165565b6131f59060058501895260208920601f850160051c81019160208610610e2f57601f0160051c01906147c1565b38612fe3565b015190503880612fa2565b6004850189528189209190601f1984168a5b81811061325a5750916001939185606097969410613241575b505050811b016004840155612fba565b015160001960f88460031b161c19169055388080613231565b92936020600181928786015181550195019301613218565b61329f90600486018a5260208a20601f850160051c81019160208610610e2f57601f0160051c01906147c1565b38612f86565b015190503880612f42565b600386018a52818a209250601f1984168a5b81811061330157509084600195949392106132e8575b505050811b016003830155612f5a565b015160001960f88460031b161c191690553880806132d8565b929360206001819287860151815501950193016132c2565b61334690600387018b5260208b20601f850160051c81019160208610610e2f57601f0160051c01906147c1565b38612f2c565b015190503880612ee9565b600286018a52818a209190601f1984168b5b8181106133ab5750916001939185602097969410613392575b505050811b016002850155612f01565b015160001960f88460031b161c19169055388080613382565b92936020600181928786015181550195019301613369565b6133f090600287018b5260208b20601f850160051c81019160208610610e2f57601f0160051c01906147c1565b38612ecd565b015190503880612e87565b600186018a52818a209250601f1984168a5b8181106134525750908460019594939210613439575b505050811b016001830155612e9f565b015160001960f88460031b161c19169055388080613429565b92936020600181928786015181550195019301613413565b61349790600187018b5260208b20601f850160051c81019160208610610e2f57601f0160051c01906147c1565b38612e71565b015190503880612e31565b858a52818a209190601f1984168b5b8181106134f657509160019391856020979694106134dd575b505050811b018455612e46565b015160001960f88460031b161c191690553880806134d0565b929360206001819287860151815501950193016134b7565b61353890868b5260208b20601f850160051c81019160208610610e2f57601f0160051c01906147c1565b38612e15565b630a00ec8b60e31b8552600485fd5b63162908e360e11b8552600485fd5b63e6c4247b60e01b8552600485fd5b506001600160a01b03821615612d69565b6348f5c3ed60e01b8552600485fd5b50600080516020614fdf833981519152855260026020908152604080872033885290915285205460ff1615612d53565b503461028b57602036600319011261028b57806101806040516135dd81614237565b8281528260208201528260408201528260608201528260808201528260a08201528260c08201528260e08201526060610100820152606061012082015261362261478f565b6101408201528261016082015201526004358152600660205260408120906040519161364d83614237565b8054835260018060a01b03600182015416916020840192835260028201549060408501918252600383015460608601908152600484015460808701908152600585015460a0880190815260018060a01b0360068701541660c0890190815260018060a01b036007880154169160e08a01928352600888019360405194856020825491828152019189526020892090895b8181106138b457505050856136f39103866142bb565b6101008b0194855260098901956040519687602082549182815201918a5260208a20908a5b8181106138955750505090878d9a99989796959493920361373990886142bb565b6101208a0196875261374d600a8c016143ac565b986101408b01998a5260108c015460ff169b6101608c019c61376e816144be565b8d52601101549a610180019a8b52604051809d602082526101c082019f516020830152600160a01b6001900390511690604001525160608d01525160808c01525160a08b01525160c08a0152600160a01b6001900390511660e0890152600160a01b60019003905116610100880152519661012087016101a0905287518091526101e087019760200190835b81811061387f575050505195601f1986820301610140870152602080885192838152019701915b8181106138605750505083946138449151601f198683030161016087015261446a565b915161384f816144be565b610180840152516101a08301520390f35b82516001600160a01b0316885260209788019790920191600101613821565b82518a526020998a0199909201916001016137fa565b82546001600160a01b0316845260209093019260019283019201613718565b82548452602090930192600192830192016136dd565b503461028b578060031936011261028b576020604051600080516020614f9f8339815191528152f35b503461028b57604036600319011261028b5760209060ff906040906001600160a01b0361391e61450c565b168152600b8452818120602435825284522054166040519015158152f35b503461028b57602036600319011261028b5760043580825260096020526040822060078101543360089190911c6001600160a01b031614908115613b1e575b8115613b07575b5015613af857808252600960205260408220600781019060018060a01b03825460081c163314600014613a0f57508054600890811c6001600160a01b039081168552600a602090815260408087208688529091528520805460ff191660011790559154901c167fe9247524c4b37258acdda748f6d6c3de00c21bbe007405d32404851e082508b38380a380f35b600881018054909250336001600160a01b0390911603613a82575080546001600160a01b039081168452600a602090815260408086208587529091528420805460ff191660011790559054167fe9247524c4b37258acdda748f6d6c3de00c21bbe007405d32404851e082508b38380a380f35b60090180549091506001600160a01b0316338114613aa1575b50505080f35b8352600b602090815260408085208486529091528320805460ff19166001179055546001600160a01b03167fe9247524c4b37258acdda748f6d6c3de00c21bbe007405d32404851e082508b38380a3388080613a9b565b63166f401760e11b8252600482fd5b600801546001600160a01b03163314905038613982565b60098101546001600160a01b03163314915061397b565b503461028b57613b4436614551565b613b4c61498e565b15613be257600080516020614f9f83398151915282526002602090815260408084206001600160a01b038416855290915282205460ff1615613b8c575080f35b600080516020614f9f8339815191528083526002602090815260408085206001600160a01b0394909416808652939091528320805460ff19166001179055339190600080516020614f7f8339815191528480a480f35b600080516020614f9f83398151915282526002602090815260408084206001600160a01b038416855290915282205460ff16613c1c575080f35b600080516020614f9f8339815191528083526002602090815260408085206001600160a01b0394909416808652939091528320805460ff19169055339190600080516020614fbf8339815191528480a480f35b503461028b57604036600319011261028b57613c89614527565b336001600160a01b03821603613ca55761032e9060043561491a565b60405162461bcd60e51b815260206004820152602f60248201527f416363657373436f6e74726f6c3a2063616e206f6e6c792072656e6f756e636560448201526e103937b632b9903337b91039b2b63360891b6064820152608490fd5b503461028b57604036600319011261028b57600435613d1f614527565b90613d3b61032482600052600260205260016040600020015490565b8083526002602090815260408085206001600160a01b038516865290915283205460ff1615613d68578280f35b8083526002602090815260408085206001600160a01b0394909416808652939091528320805460ff19166001179055339190600080516020614f7f8339815191528480a438808280f35b503461028b57602036600319011261028b57613dcc61450c565b613dd46148c2565b600080516020614fdf83398151915282526002602090815260408084206001600160a01b038416855290915282205460ff16613e0e575080f35b600080516020614fdf8339815191528083526002602090815260408085206001600160a01b0394909416808652939091528320805460ff19169055339190600080516020614fbf8339815191528480a480f35b503461028b57604036600319011261028b57613e7b61450c565b60243590600080516020614f9f833981519152835260026020526040832060018060a01b038216845260205260ff60408420541615613f52576001600160a01b03163381148015613f88575b8015613f61575b15613f52578083526008602052600a60408420541015613f43578083526008602052613efd8260408520614750565b81835260096020819052604084200180546001600160a01b031916821790557f1c9db0488564f25a3f5a31d9c8d0d9b7bc3ec8897ba83dba0511987c1b8cb9a78380a380f35b63d539116760e01b8352600483fd5b6348f5c3ed60e01b8352600483fd5b50818352600960205260408320600701543360089190911c6001600160a01b031614613ece565b50600080516020614fff833981519152835260026020908152604080852033865290915283205460ff16613ec7565b503461028b57602036600319011261028b576020613fe5600435600052600260205260016040600020015490565b604051908152f35b503461028b57602036600319011261028b576004359060055482101561028b5760055482101561404957600590527f036b6384b5eca791c62761152d0c79bb0604c104a5fb6f4eb0703f3154bb3db00154604051908152602090f35b634e487b7160e01b81526032600452602490fd5b503461028b57602036600319011261028b5760406140e2916004358152600960205220614089816143ac565b9060068101549060078101549060ff82169160018060a01b0360088301541660018060a01b03600984015416600a84015491600b85015493600d600c870154960154966040519a8b9a6101408c526101408c019061446a565b9860208b01526140f1816144be565b60408a015260081c6001600160a01b03166060890152608088015260a087015260c086015260e08501526101008401526101208301520390f35b503461028b57602036600319011261028b576004356001600160a01b038116908190036102e45761415a6148c2565b6001600160601b0360a01b600454161760045580f35b503461028b578060031936011261028b576020600d54604051908152f35b9050346102e45760203660031901126102e45760043563ffffffff60e01b811680910361146e5760209250637965db0b60e01b81149081156141d2575b5015158152f35b630271189760e51b8114915081156141ec575b50386141cb565b6301ffc9a760e01b149050386141e5565b90600182811c9216801561422d575b602083101461421757565b634e487b7160e01b600052602260045260246000fd5b91607f169161420c565b6101a081019081106001600160401b0382111761425357604052565b634e487b7160e01b600052604160045260246000fd5b61014081019081106001600160401b0382111761425357604052565b604081019081106001600160401b0382111761425357604052565b608081019081106001600160401b0382111761425357604052565b90601f801991011681019081106001600160401b0382111761425357604052565b90604051918260008254926142f0846141fd565b808452936001811690811561435e5750600114614317575b50614315925003836142bb565b565b90506000929192526020600020906000915b8183106143425750509060206143159282010138614308565b6020919350806001915483858901015201910190918492614329565b90506020925061431594915060ff191682840152151560051b82010138614308565b9060405161438d81614285565b60206143a76001839561439f816142dc565b8552016142dc565b910152565b906040516143b9816142a0565b60606143a7600583956143cb81614380565b85526143d960028201614380565b60208601526143ea600482016142dc565b6040860152016142dc565b60005b8381106144085750506000910152565b81810151838201526020016143f8565b90602091614431815180928185528580860191016143f5565b601f01601f1916010190565b6144679160206144568351604084526040840190614418565b920151906020818403910152614418565b90565b6144679160606144ad61449b614489855160808652608086019061443d565b6020860151858203602087015261443d565b60408501518482036040860152614418565b920151906060818403910152614418565b600411156144c857565b634e487b7160e01b600052602160045260246000fd5b80548210156144f65760005260206000200190600090565b634e487b7160e01b600052603260045260246000fd5b600435906001600160a01b038216820361452257565b600080fd5b602435906001600160a01b038216820361452257565b35906001600160a01b038216820361452257565b6040906003190112614522576004356001600160a01b0381168103614522579060243580151581036145225790565b6001600160401b03811161425357601f01601f191660200190565b81601f82011215614522576020813591016145b582614580565b926145c360405194856142bb565b828452828201116145225781600092602092838601378301015290565b919060408382031261452257604051906145f982614285565b819380356001600160401b038111614522578261461791830161459b565b83526020810135916001600160401b038311614522576020926143a7920161459b565b91906080838203126145225760405190614653826142a0565b819380356001600160401b03811161452257826146719183016145e0565b835260208101356001600160401b03811161452257826146929183016145e0565b602084015260408101356001600160401b03811161452257826146b691830161459b565b60408401526060810135916001600160401b038311614522576060926143a7920161459b565b6001600160401b0381116142535760051b60200190565b9080601f8301121561452257813561470a816146dc565b9261471860405194856142bb565b81845260208085019260051b82010192831161452257602001905b8282106147405750505090565b8135815260209182019101614733565b805490600160401b8210156142535781611ae8916001614772940181556144de565b9055565b6040519061478382614285565b60606020838281520152565b6040519061479c826142a0565b606080836147a8614776565b81526147b2614776565b60208201528160408201520152565b8181106147cc575050565b600081556001016147c1565b906147e2816144be565b60ff80198354169116179055565b6001600160a01b039182168152911660208201526040810191909152606081019190915260a06080820181905260029082015261060f60f31b60c082015260e00190565b9190820180921161484157565b634e487b7160e01b600052601160045260246000fd5b81601f8201121561452257805161486d81614580565b9261487b60405194856142bb565b818452602082840101116145225761446791602080850191016143f5565b51906001600160f81b03198216820361452257565b51906001600160a01b038216820361452257565b6001546001600160a01b031633036148d657565b606460405162461bcd60e51b815260206004820152602060248201527f4f776e61626c653a2063616c6c6572206973206e6f7420746865206f776e65726044820152fd5b806000526002602052604060002060018060a01b03831660005260205260ff60406000205416614948575050565b60008181526002602090815260408083206001600160a01b0395909516808452949091528120805460ff1916905533929190600080516020614fbf8339815191529080a4565b3360009081527fe5ebfa64fca8d502a8e50c1edffd2c31ef4dad5b396e65d9f397fb028f74abc5602052604090205460ff16156149c757565b614a916149d333614d0d565b614a7160116149ef600080516020614fdf833981519152614e39565b9260376040519485927f416363657373436f6e74726f6c3a206163636f756e74200000000000000000006020850152614a3181518092602086880191016143f5565b83017001034b99036b4b9b9b4b733903937b6329607d1b83820152614a608251809360206048850191016143f5565b01010301601f1981018352826142bb565b60405162461bcd60e51b8152602060048201529182916024830190614418565b0390fd5b600081815260026020908152604080832033845290915290205460ff1615614aba5750565b614a9190614a7160116149ef614acf33614d0d565b93614e39565b600260005414614ae6576002600055565b60405162461bcd60e51b815260206004820152601f60248201527f5265656e7472616e637947756172643a207265656e7472616e742063616c6c006044820152606490fd5b600d54600181018091116148415780600d556040516020810191825260208152614b566040826142bb565b51902090565b6040516323b872dd60e01b60208201526001600160a01b03928316602482015292909116604483015260648083019390935291815261431591614ba06084836142bb565b614be0565b60405163a9059cbb60e01b60208201526001600160a01b03909216602483015260448083019390935291815261431591614ba06064836142bb565b604080519092614c64926001600160a01b0316906000908190614c0387866142bb565b602085527f5361666545524332303a206c6f772d6c6576656c2063616c6c206661696c6564602086015260208151910182855af13d15614cf4573d91614c4883614580565b92614c55875194856142bb565b83523d6000602085013e614ee5565b8051908115918215614cd1575b505015614c7b5750565b5162461bcd60e51b815260206004820152602a60248201527f5361666545524332303a204552433230206f7065726174696f6e20646964206e6044820152691bdd081cdd58d8d9595960b21b6064820152608490fd5b819250906020918101031261452257602001518015158103614522573880614c71565b606091614ee5565b9081518110156144f6570160200190565b600090614d1a602a614580565b91614d2860405193846142bb565b602a8352614d36602a614580565b6020840190601f1901368237835115614e255760309053825160011015614049576078602184015350602960005b60018211614db9575050614d755790565b606460405162461bcd60e51b815260206004820152602060248201527f537472696e67733a20686578206c656e67746820696e73756666696369656e746044820152fd5b9091600f81166010811015614e11576f181899199a1a9b1b9c1cb0b131b232b360811b901a614de88486614cfc565b5360041c918015614dfd576000190190614d64565b634e487b7160e01b82526011600452602482fd5b634e487b7160e01b83526032600452602483fd5b634e487b7160e01b82526032600452602482fd5b600090614e466042614580565b91614e5460405193846142bb565b60428352614e626042614580565b6020840190601f1901368237835115614e255760309053825160011015614049576078602184015350604160005b60018211614ea1575050614d755790565b9091600f81166010811015614e11576f181899199a1a9b1b9c1cb0b131b232b360811b901a614ed08486614cfc565b5360041c918015614dfd576000190190614e90565b91929015614f475750815115614ef9575090565b3b15614f025790565b60405162461bcd60e51b815260206004820152601d60248201527f416464726573733a2063616c6c20746f206e6f6e2d636f6e74726163740000006044820152606490fd5b825190915015614f5a5750805190602001fd5b60405162461bcd60e51b815260206004820152908190614a9190602483019061441856fe2f8788117e7eff1d82e926ec794901d17c78024a50270940304540a733656f0d469f0a0947cf59c7d944c91c6f4c13c396753b8abf0036156a8c6b0c02fdc02ef6391f5c32d9c69d2a47ea670b442974b53935d1edc7fd64eb21e047a839171ba49807205ce4d355092ef5a8a18f56e8913cf4a201fbe287825b095693c21775fbd38eecf51668fdbc772b204dc63dd28c3a3cf32e3025f52a80aa807359f50ca26469706673582212204579e0a379709bc3f3942868d150b46beeca3a7e49ad311f7ccb6e35fa9973ff64736f6c634300081c00332f8788117e7eff1d82e926ec794901d17c78024a50270940304540a733656f0dac33ff75c19e70fe83507db0d683fd3465c996598dc972688b7ace676c89077be5ebfa64fca8d502a8e50c1edffd2c31ef4dad5b396e65d9f397fb028f74abc5",
  "linkReferences": {},
  "deployedLinkReferences": {}
}