{
  "_format": "hh-sol-artifact-1",
  "contractName": "OrderBridge",
  "sourceName": "contracts/OrderBridge.sol",
  "abi": [
    {
      "inputs": [
        {
          "internalType": "address",
          "name": "_clob",
          "type": "address"
        },
        {
          "internalType": "address",
          "name": "_ausys",
          "type": "address"
        },
        {
          "internalType": "address",
          "name": "_quoteToken",
          "type": "address"
        },
        {
          "internalType": "address",
          "name": "_feeRecipient",
          "type": "address"
        }
      ],
      "stateMutability": "nonpayable",
      "type": "constructor"
    },
    {
      "inputs": [],
      "name": "InvalidAddress",
      "type": "error"
    },
    {
      "inputs": [],
      "name": "InvalidAmount",
      "type": "error"
    },
    {
      "inputs": [],
      "name": "InvalidFeeConfiguration",
      "type": "error"
    },
    {
      "inputs": [],
      "name": "InvalidPrice",
      "type": "error"
    },
    {
      "inputs": [],
      "name": "NotAuthorized",
      "type": "error"
    },
    {
      "inputs": [],
      "name": "NotOrderOwner",
      "type": "error"
    },
    {
      "inputs": [],
      "name": "OrderNotFound",
      "type": "error"
    },
    {
      "inputs": [],
      "name": "OrderNotOpen",
      "type": "error"
    },
    {
      "anonymous": false,
      "inputs": [
        {
          "indexed": true,
          "internalType": "bytes32",
          "name": "unifiedOrderId",
          "type": "bytes32"
        },
        {
          "indexed": true,
          "internalType": "bytes32",
          "name": "journeyId",
          "type": "bytes32"
        },
        {
          "indexed": false,
          "internalType": "uint8",
          "name": "phase",
          "type": "uint8"
        }
      ],
      "name": "JourneyStatusUpdated",
      "type": "event"
    },
    {
      "anonymous": false,
      "inputs": [
        {
          "indexed": true,
          "internalType": "bytes32",
          "name": "unifiedOrderId",
          "type": "bytes32"
        },
        {
          "indexed": true,
          "internalType": "bytes32",
          "name": "ausysOrderId",
          "type": "bytes32"
        },
        {
          "indexed": false,
          "internalType": "bytes32[]",
          "name": "journeyIds",
          "type": "bytes32[]"
        },
        {
          "indexed": false,
          "internalType": "uint256",
          "name": "bounty",
          "type": "uint256"
        },
        {
          "indexed": false,
          "internalType": "address",
          "name": "node",
          "type": "address"
        }
      ],
      "name": "LogisticsOrderCreated",
      "type": "event"
    },
    {
      "anonymous": false,
      "inputs": [
        {
          "indexed": true,
          "internalType": "bytes32",
          "name": "unifiedOrderId",
          "type": "bytes32"
        },
        {
          "indexed": false,
          "internalType": "uint8",
          "name": "previousStatus",
          "type": "uint8"
        },
        {
          "indexed": false,
          "internalType": "uint256",
          "name": "refundedAmount",
          "type": "uint256"
        }
      ],
      "name": "OrderCancelled",
      "type": "event"
    },
    {
      "anonymous": false,
      "inputs": [
        {
          "indexed": true,
          "internalType": "bytes32",
          "name": "unifiedOrderId",
          "type": "bytes32"
        },
        {
          "indexed": true,
          "internalType": "address",
          "name": "seller",
          "type": "address"
        },
        {
          "indexed": false,
          "internalType": "uint256",
          "name": "sellerAmount",
          "type": "uint256"
        },
        {
          "indexed": true,
          "internalType": "address",
          "name": "driver",
          "type": "address"
        },
        {
          "indexed": false,
          "internalType": "uint256",
          "name": "driverAmount",
          "type": "uint256"
        }
      ],
      "name": "OrderSettled",
      "type": "event"
    },
    {
      "anonymous": false,
      "inputs": [
        {
          "indexed": true,
          "internalType": "bytes32",
          "name": "unifiedOrderId",
          "type": "bytes32"
        },
        {
          "indexed": false,
          "internalType": "uint8",
          "name": "status",
          "type": "uint8"
        }
      ],
      "name": "OrderStatusUpdated",
      "type": "event"
    },
    {
      "anonymous": false,
      "inputs": [
        {
          "indexed": true,
          "internalType": "address",
          "name": "previousOwner",
          "type": "address"
        },
        {
          "indexed": true,
          "internalType": "address",
          "name": "newOwner",
          "type": "address"
        }
      ],
      "name": "OwnershipTransferred",
      "type": "event"
    },
    {
      "anonymous": false,
      "inputs": [
        {
          "indexed": true,
          "internalType": "bytes32",
          "name": "unifiedOrderId",
          "type": "bytes32"
        },
        {
          "indexed": true,
          "internalType": "bytes32",
          "name": "clobTradeId",
          "type": "bytes32"
        },
        {
          "indexed": false,
          "internalType": "bytes32",
          "name": "clobOrderId",
          "type": "bytes32"
        },
        {
          "indexed": false,
          "internalType": "address",
          "name": "maker",
          "type": "address"
        },
        {
          "indexed": false,
          "internalType": "uint256",
          "name": "price",
          "type": "uint256"
        },
        {
          "indexed": false,
          "internalType": "uint256",
          "name": "amount",
          "type": "uint256"
        }
      ],
      "name": "TradeMatched",
      "type": "event"
    },
    {
      "anonymous": false,
      "inputs": [
        {
          "indexed": true,
          "internalType": "bytes32",
          "name": "unifiedOrderId",
          "type": "bytes32"
        },
        {
          "indexed": true,
          "internalType": "bytes32",
          "name": "clobOrderId",
          "type": "bytes32"
        },
        {
          "indexed": true,
          "internalType": "address",
          "name": "buyer",
          "type": "address"
        },
        {
          "indexed": false,
          "internalType": "address",
          "name": "seller",
          "type": "address"
        },
        {
          "indexed": false,
          "internalType": "address",
          "name": "token",
          "type": "address"
        },
        {
          "indexed": false,
          "internalType": "uint256",
          "name": "tokenId",
          "type": "uint256"
        },
        {
          "indexed": false,
          "internalType": "uint256",
          "name": "quantity",
          "type": "uint256"
        },
        {
          "indexed": false,
          "internalType": "uint256",
          "name": "price",
          "type": "uint256"
        }
      ],
      "name": "UnifiedOrderCreated",
      "type": "event"
    },
    {
      "inputs": [],
      "name": "ausysAddress",
      "outputs": [
        {
          "internalType": "address",
          "name": "",
          "type": "address"
        }
      ],
      "stateMutability": "view",
      "type": "function"
    },
    {
      "inputs": [],
      "name": "bountyPercentage",
      "outputs": [
        {
          "internalType": "uint256",
          "name": "",
          "type": "uint256"
        }
      ],
      "stateMutability": "view",
      "type": "function"
    },
    {
      "inputs": [
        {
          "internalType": "bytes32",
          "name": "unifiedOrderId",
          "type": "bytes32"
        }
      ],
      "name": "bridgeTradeToLogistics",
      "outputs": [],
      "stateMutability": "nonpayable",
      "type": "function"
    },
    {
      "inputs": [
        {
          "internalType": "address",
          "name": "",
          "type": "address"
        },
        {
          "internalType": "uint256",
          "name": "",
          "type": "uint256"
        }
      ],
      "name": "buyerOrders",
      "outputs": [
        {
          "internalType": "bytes32",
          "name": "",
          "type": "bytes32"
        }
      ],
      "stateMutability": "view",
      "type": "function"
    },
    {
      "inputs": [
        {
          "internalType": "bytes32",
          "name": "unifiedOrderId",
          "type": "bytes32"
        }
      ],
      "name": "cancelUnifiedOrder",
      "outputs": [],
      "stateMutability": "nonpayable",
      "type": "function"
    },
    {
      "inputs": [],
      "name": "clobAddress",
      "outputs": [
        {
          "internalType": "address",
          "name": "",
          "type": "address"
        }
      ],
      "stateMutability": "view",
      "type": "function"
    },
    {
      "inputs": [
        {
          "internalType": "bytes32",
          "name": "",
          "type": "bytes32"
        }
      ],
      "name": "clobOrderToUnifiedOrder",
      "outputs": [
        {
          "internalType": "bytes32",
          "name": "",
          "type": "bytes32"
        }
      ],
      "stateMutability": "view",
      "type": "function"
    },
    {
      "inputs": [
        {
          "internalType": "bytes32",
          "name": "",
          "type": "bytes32"
        }
      ],
      "name": "clobTradeToUnifiedOrder",
      "outputs": [
        {
          "internalType": "bytes32",
          "name": "",
          "type": "bytes32"
        }
      ],
      "stateMutability": "view",
      "type": "function"
    },
    {
      "inputs": [
        {
          "internalType": "bytes32",
          "name": "clobOrderId",
          "type": "bytes32"
        },
        {
          "internalType": "address",
          "name": "sellerNode",
          "type": "address"
        },
        {
          "components": [
            {
              "components": [
                {
                  "internalType": "int256",
                  "name": "lat",
                  "type": "int256"
                },
                {
                  "internalType": "int256",
                  "name": "lng",
                  "type": "int256"
                }
              ],
              "internalType": "struct OrderBridge.Location",
              "name": "startLocation",
              "type": "tuple"
            },
            {
              "components": [
                {
                  "internalType": "int256",
                  "name": "lat",
                  "type": "int256"
                },
                {
                  "internalType": "int256",
                  "name": "lng",
                  "type": "int256"
                }
              ],
              "internalType": "struct OrderBridge.Location",
              "name": "endLocation",
              "type": "tuple"
            },
            {
              "internalType": "string",
              "name": "startName",
              "type": "string"
            },
            {
              "internalType": "string",
              "name": "endName",
              "type": "string"
            }
          ],
          "internalType": "struct OrderBridge.ParcelData",
          "name": "deliveryData",
          "type": "tuple"
        }
      ],
      "name": "createUnifiedOrder",
      "outputs": [
        {
          "internalType": "bytes32",
          "name": "unifiedOrderId",
          "type": "bytes32"
        }
      ],
      "stateMutability": "nonpayable",
      "type": "function"
    },
    {
      "inputs": [],
      "name": "feeRecipient",
      "outputs": [
        {
          "internalType": "address",
          "name": "",
          "type": "address"
        }
      ],
      "stateMutability": "view",
      "type": "function"
    },
    {
      "inputs": [
        {
          "internalType": "address",
          "name": "buyer",
          "type": "address"
        }
      ],
      "name": "getBuyerOrders",
      "outputs": [
        {
          "internalType": "bytes32[]",
          "name": "",
          "type": "bytes32[]"
        }
      ],
      "stateMutability": "view",
      "type": "function"
    },
    {
      "inputs": [
        {
          "internalType": "address",
          "name": "seller",
          "type": "address"
        }
      ],
      "name": "getSellerOrders",
      "outputs": [
        {
          "internalType": "bytes32[]",
          "name": "",
          "type": "bytes32[]"
        }
      ],
      "stateMutability": "view",
      "type": "function"
    },
    {
      "inputs": [
        {
          "internalType": "bytes32",
          "name": "unifiedOrderId",
          "type": "bytes32"
        }
      ],
      "name": "getUnifiedOrder",
      "outputs": [
        {
          "components": [
            {
              "internalType": "bytes32",
              "name": "id",
              "type": "bytes32"
            },
            {
              "internalType": "bytes32",
              "name": "clobOrderId",
              "type": "bytes32"
            },
            {
              "internalType": "bytes32",
              "name": "clobTradeId",
              "type": "bytes32"
            },
            {
              "internalType": "bytes32",
              "name": "ausysOrderId",
              "type": "bytes32"
            },
            {
              "internalType": "bytes32[]",
              "name": "journeyIds",
              "type": "bytes32[]"
            },
            {
              "internalType": "address",
              "name": "buyer",
              "type": "address"
            },
            {
              "internalType": "address",
              "name": "seller",
              "type": "address"
            },
            {
              "internalType": "address",
              "name": "sellerNode",
              "type": "address"
            },
            {
              "internalType": "address",
              "name": "token",
              "type": "address"
            },
            {
              "internalType": "uint256",
              "name": "tokenId",
              "type": "uint256"
            },
            {
              "internalType": "uint256",
              "name": "tokenQuantity",
              "type": "uint256"
            },
            {
              "internalType": "uint256",
              "name": "price",
              "type": "uint256"
            },
            {
              "internalType": "uint256",
              "name": "bounty",
              "type": "uint256"
            },
            {
              "components": [
                {
                  "components": [
                    {
                      "internalType": "int256",
                      "name": "lat",
                      "type": "int256"
                    },
                    {
                      "internalType": "int256",
                      "name": "lng",
                      "type": "int256"
                    }
                  ],
                  "internalType": "struct OrderBridge.Location",
                  "name": "startLocation",
                  "type": "tuple"
                },
                {
                  "components": [
                    {
                      "internalType": "int256",
                      "name": "lat",
                      "type": "int256"
                    },
                    {
                      "internalType": "int256",
                      "name": "lng",
                      "type": "int256"
                    }
                  ],
                  "internalType": "struct OrderBridge.Location",
                  "name": "endLocation",
                  "type": "tuple"
                },
                {
                  "internalType": "string",
                  "name": "startName",
                  "type": "string"
                },
                {
                  "internalType": "string",
                  "name": "endName",
                  "type": "string"
                }
              ],
              "internalType": "struct OrderBridge.ParcelData",
              "name": "deliveryData",
              "type": "tuple"
            },
            {
              "internalType": "enum OrderBridge.UnifiedOrderStatus",
              "name": "status",
              "type": "uint8"
            },
            {
              "internalType": "enum OrderBridge.LogisticsPhase",
              "name": "logisticsStatus",
              "type": "uint8"
            },
            {
              "internalType": "uint256",
              "name": "createdAt",
              "type": "uint256"
            },
            {
              "internalType": "uint256",
              "name": "matchedAt",
              "type": "uint256"
            },
            {
              "internalType": "uint256",
              "name": "deliveredAt",
              "type": "uint256"
            },
            {
              "internalType": "uint256",
              "name": "settledAt",
              "type": "uint256"
            }
          ],
          "internalType": "struct OrderBridge.UnifiedOrder",
          "name": "",
          "type": "tuple"
        }
      ],
      "stateMutability": "view",
      "type": "function"
    },
    {
      "inputs": [],
      "name": "owner",
      "outputs": [
        {
          "internalType": "address",
          "name": "",
          "type": "address"
        }
      ],
      "stateMutability": "view",
      "type": "function"
    },
    {
      "inputs": [],
      "name": "protocolFeePercentage",
      "outputs": [
        {
          "internalType": "uint256",
          "name": "",
          "type": "uint256"
        }
      ],
      "stateMutability": "view",
      "type": "function"
    },
    {
      "inputs": [],
      "name": "quoteToken",
      "outputs": [
        {
          "internalType": "contract IERC20",
          "name": "",
          "type": "address"
        }
      ],
      "stateMutability": "view",
      "type": "function"
    },
    {
      "inputs": [],
      "name": "renounceOwnership",
      "outputs": [],
      "stateMutability": "nonpayable",
      "type": "function"
    },
    {
      "inputs": [
        {
          "internalType": "address",
          "name": "",
          "type": "address"
        },
        {
          "internalType": "uint256",
          "name": "",
          "type": "uint256"
        }
      ],
      "name": "sellerOrders",
      "outputs": [
        {
          "internalType": "bytes32",
          "name": "",
          "type": "bytes32"
        }
      ],
      "stateMutability": "view",
      "type": "function"
    },
    {
      "inputs": [
        {
          "internalType": "uint256",
          "name": "_percentage",
          "type": "uint256"
        }
      ],
      "name": "setBountyPercentage",
      "outputs": [],
      "stateMutability": "nonpayable",
      "type": "function"
    },
    {
      "inputs": [
        {
          "internalType": "address",
          "name": "_recipient",
          "type": "address"
        }
      ],
      "name": "setFeeRecipient",
      "outputs": [],
      "stateMutability": "nonpayable",
      "type": "function"
    },
    {
      "inputs": [
        {
          "internalType": "uint256",
          "name": "_percentage",
          "type": "uint256"
        }
      ],
      "name": "setProtocolFeePercentage",
      "outputs": [],
      "stateMutability": "nonpayable",
      "type": "function"
    },
    {
      "inputs": [
        {
          "internalType": "address",
          "name": "newOwner",
          "type": "address"
        }
      ],
      "name": "transferOwnership",
      "outputs": [],
      "stateMutability": "nonpayable",
      "type": "function"
    },
    {
      "inputs": [],
      "name": "unifiedOrderCounter",
      "outputs": [
        {
          "internalType": "uint256",
          "name": "",
          "type": "uint256"
        }
      ],
      "stateMutability": "view",
      "type": "function"
    },
    {
      "inputs": [
        {
          "internalType": "uint256",
          "name": "",
          "type": "uint256"
        }
      ],
      "name": "unifiedOrderIds",
      "outputs": [
        {
          "internalType": "bytes32",
          "name": "",
          "type": "bytes32"
        }
      ],
      "stateMutability": "view",
      "type": "function"
    },
    {
      "inputs": [
        {
          "internalType": "bytes32",
          "name": "",
          "type": "bytes32"
        }
      ],
      "name": "unifiedOrders",
      "outputs": [
        {
          "internalType": "bytes32",
          "name": "id",
          "type": "bytes32"
        },
        {
          "internalType": "bytes32",
          "name": "clobOrderId",
          "type": "bytes32"
        },
        {
          "internalType": "bytes32",
          "name": "clobTradeId",
          "type": "bytes32"
        },
        {
          "internalType": "bytes32",
          "name": "ausysOrderId",
          "type": "bytes32"
        },
        {
          "internalType": "address",
          "name": "buyer",
          "type": "address"
        },
        {
          "internalType": "address",
          "name": "seller",
          "type": "address"
        },
        {
          "internalType": "address",
          "name": "sellerNode",
          "type": "address"
        },
        {
          "internalType": "address",
          "name": "token",
          "type": "address"
        },
        {
          "internalType": "uint256",
          "name": "tokenId",
          "type": "uint256"
        },
        {
          "internalType": "uint256",
          "name": "tokenQuantity",
          "type": "uint256"
        },
        {
          "internalType": "uint256",
          "name": "price",
          "type": "uint256"
        },
        {
          "internalType": "uint256",
          "name": "bounty",
          "type": "uint256"
        },
        {
          "components": [
            {
              "components": [
                {
                  "internalType": "int256",
                  "name": "lat",
                  "type": "int256"
                },
                {
                  "internalType": "int256",
                  "name": "lng",
                  "type": "int256"
                }
              ],
              "internalType": "struct OrderBridge.Location",
              "name": "startLocation",
              "type": "tuple"
            },
            {
              "components": [
                {
                  "internalType": "int256",
                  "name": "lat",
                  "type": "int256"
                },
                {
                  "internalType": "int256",
                  "name": "lng",
                  "type": "int256"
                }
              ],
              "internalType": "struct OrderBridge.Location",
              "name": "endLocation",
              "type": "tuple"
            },
            {
              "internalType": "string",
              "name": "startName",
              "type": "string"
            },
            {
              "internalType": "string",
              "name": "endName",
              "type": "string"
            }
          ],
          "internalType": "struct OrderBridge.ParcelData",
          "name": "deliveryData",
          "type": "tuple"
        },
        {
          "internalType": "enum OrderBridge.UnifiedOrderStatus",
          "name": "status",
          "type": "uint8"
        },
        {
          "internalType": "enum OrderBridge.LogisticsPhase",
          "name": "logisticsStatus",
          "type": "uint8"
        },
        {
          "internalType": "uint256",
          "name": "createdAt",
          "type": "uint256"
        },
        {
          "internalType": "uint256",
          "name": "matchedAt",
          "type": "uint256"
        },
        {
          "internalType": "uint256",
          "name": "deliveredAt",
          "type": "uint256"
        },
        {
          "internalType": "uint256",
          "name": "settledAt",
          "type": "uint256"
        }
      ],
      "stateMutability": "view",
      "type": "function"
    },
    {
      "inputs": [
        {
          "internalType": "address",
          "name": "_ausys",
          "type": "address"
        }
      ],
      "name": "updateAusysAddress",
      "outputs": [],
      "stateMutability": "nonpayable",
      "type": "function"
    },
    {
      "inputs": [
        {
          "internalType": "address",
          "name": "_clob",
          "type": "address"
        }
      ],
      "name": "updateClobAddress",
      "outputs": [],
      "stateMutability": "nonpayable",
      "type": "function"
    }
  ],
  "bytecode": "0x60803461012357601f61183c38819003918201601f19168301916001600160401b0383118484101761012857808492608094604052833981010312610123576100478161013e565b906100546020820161013e565b9061006d60606100666040840161013e565b920161013e565b60008054336001600160a01b0319821681178355604051969395939290916001600160a01b0316907f8be0079c531659141344cd1fd0a4f28419497f9722a3daafe3b4186f6b6457e09080a36001805560c8600c556019600d55600280546001600160a01b03199081166001600160a01b03938416179091556003805482169383169390931790925560048054831693821693909317909255600e8054909116929091169190911790556116e990816101538239f35b600080fd5b634e487b7160e01b600052604160045260246000fd5b51906001600160a01b03821682036101235756fe610120604052600436101561001357600080fd5b60003560e01c806307a2072a1461125e5780631648d910146110ca57806320b871c91461109e578063217a4b7014611075578063289bc1cd146110235780634500cb6014610fd957806345cb450514610f805780634690484014610f575780634d12d55314610b075780635e2a0e0c14610ae95780635fc905ec146109f957806363e4e5cc146109db578063715018a6146109825780637195a9341461093f57806380b7cd3c146109165780638da5cb5b146108ed5780638e50e509146108cf5780639246d6ef146107475780639f367b841461071b578063a45f2ebc146106d7578063b7f846f914610694578063ba0d066a1461066b578063d2d2e82214610309578063d8a5e936146102ce578063e4cbac401461026b578063e74b981b146102125763f2fde38b1461014657600080fd5b3461020d57602036600319011261020d5761015f6112b6565b610167611605565b6001600160a01b031680156101b957600080546001600160a01b03198116831782556001600160a01b0316907f8be0079c531659141344cd1fd0a4f28419497f9722a3daafe3b4186f6b6457e09080a3005b60405162461bcd60e51b815260206004820152602660248201527f4f776e61626c653a206e6577206f776e657220697320746865207a65726f206160448201526564647265737360d01b6064820152608490fd5b600080fd5b3461020d57602036600319011261020d5761022b6112b6565b610233611605565b6001600160a01b0316801561025a576001600160601b0360a01b600e541617600e55600080f35b63e6c4247b60e01b60005260046000fd5b3461020d57602036600319011261020d576001600160a01b0361028c6112b6565b16600052600b6020526102ca6102af6102b66040600020604051928380926115cb565b0382611321565b60405191829160208352602083019061153e565b0390f35b3461020d57602036600319011261020d576004356102ea611605565b6103e881116102f857600d55005b63369276d760e11b60005260046000fd5b3461020d57602036600319011261020d57600061026060405161032b816112cc565b828152826020820152826040820152826060820152606060808201528260a08201528260c08201528260e08201528261010082015282610120820152826101408201528261016082015282610180820152604051610388816112e9565b60405161039481611305565b84815284602082015281526040516103ab81611305565b8481528460208201526020820152606060408201526060808201526101a0820152826101c0820152826101e08201528261020082015282610220820152826102408201520152600435600052600560205260406000206040519061040e826112cc565b80548252600181015460208301526002810154604083015260038101546060830152604051610444816102af81600486016115cb565b608083015260058101546001600160a01b0390811660a08401526006820154811660c08401526007820154811660e08401526008820154166101008301526009810154610120830152600a810154610140830152600b810154610160830152600c8101546101808301526104ba600d820161143f565b6101a0830152601381015460ff81169060088210156106555760ff916101c085015260081c16906004821015610655576017916101e08401526014810154610200840152601581015461022084015260168101546102408401520154610260820152604051809160208252805160208301526020810151604083015260408101516060830152606081015160808301526102606105fe61056b608084015161028060a08701526102a086019061153e565b60018060a01b0360a08501511660c086015260018060a01b0360c08501511660e086015260018060a01b0360e08501511661010086015260018060a01b03610100850151166101208601526101208401516101408601526101408401516101608601526101608401516101808601526101808401516101a08601526101a0840151601f19868303016101c08701526114ce565b916106136101c08201516101e0860190611524565b6106276101e0820151610200860190611531565b6102008101516102208501526102208101516102408501526102408101518285015201516102808301520390f35b634e487b7160e01b600052602160045260246000fd5b3461020d57600036600319011261020d576003546040516001600160a01b039091168152602090f35b3461020d57602036600319011261020d576106ad6112b6565b6106b5611605565b600280546001600160a01b0319166001600160a01b0392909216919091179055005b3461020d57602036600319011261020d576001600160a01b036106f86112b6565b16600052600a6020526102ca6102af6102b66040600020604051928380926115cb565b3461020d57602036600319011261020d5760043560005260086020526020604060002054604051908152f35b3461020d57602036600319011261020d5760043560009081526005602081905260409091208054600182015460e0526002820154610100526003820154928201546006830154600784015460088501546009860154600a870154600b880154600c8901546001600160a01b0397881697909691959294811692811691166107d0600d8b0161143f565b9760138b015460a05260148b01549b60158c01549a60168d01549c6017015460805260405160c05260c0515260e05160c051602001526101005160c0516040015260c0516060015260c0516080015260c05160a0015260c05160c0015260c05160e0015260c051610100015260c051610120015260c051610140015260c051610160015260c05161018001610260905260c05161026001610870916114ce565b9260c0516101a00160a05160ff169061088891611524565b60c0516101c00160a05160081c60ff16906108a291611531565b60c0516101e0015260c051610200015260c051610220015260805160c051610240015260c051900360c051f35b3461020d57600036600319011261020d576020600d54604051908152f35b3461020d57600036600319011261020d576000546040516001600160a01b039091168152602090f35b3461020d57600036600319011261020d576002546040516001600160a01b039091168152602090f35b3461020d57602036600319011261020d576109586112b6565b610960611605565b600380546001600160a01b0319166001600160a01b0392909216919091179055005b3461020d57600036600319011261020d5761099b611605565b600080546001600160a01b0319811682556001600160a01b03167f8be0079c531659141344cd1fd0a4f28419497f9722a3daafe3b4186f6b6457e08280a3005b3461020d57600036600319011261020d576020600c54604051908152f35b3461020d57602036600319011261020d57600435610a1561165d565b8060005260056020526040600020805415610ad85760058101546001600160a01b031633141580610ac3575b610ab25760130160ff8154169060088210156106555760018203610aa157805460ff1916600717905560408051918252600060208301527f43c0c5b45c0d1a39beb8c2b5ce3c120a31e5213a9ae3690878948bec665a53e191a260018055005b63206931ef60e01b60005260046000fd5b63ea8e4eb560e01b60005260046000fd5b506000546001600160a01b0316331415610a41565b63d36d896560e01b60005260046000fd5b3461020d57600036600319011261020d576020600754604051908152f35b3461020d57606036600319011261020d576004356024356001600160a01b0381169081900361020d576044359067ffffffffffffffff821161020d57816004019160c0600319823603011261020d57610b5e61165d565b811561025a576007546000198114610f4157600101806007556040516020810191825242604082015233606082015260608152610b9c608082611321565b519020928360005260056020526040600020928484558560018501556005840160018060a01b0333166001600160601b0360a01b82541617905560078401906001600160601b0360a01b8254161790558035600d8401556024820135600e8401556044820135600f8401556064820135601084015560118301610c226084840183611572565b9067ffffffffffffffff8211610dab57610c3c8354611361565b601f8111610ef9575b50600090601f8311600114610e9057610c879493929160009183610e85575b50508160011b916000199060031b1c19161790555b60a460128501930190611572565b9067ffffffffffffffff8211610dab578190610ca38454611361565b601f8111610e32575b50600090601f8311600114610dcc57600092610dc1575b50508160011b916000199060031b1c19161790555b60138101805461ffff191660011790554260149091015560065491600160401b831015610dab5781610d2e610d17856001602097016006556006611288565b819391549060031b91821b91600019901b19161790565b905580600052600983528160406000205533600052600a8352610d558260406000206115a5565b6040519060008252600084830152600060408301526000606083015260006080830152827fc8b6af077d052146487628eaecffabe40950f528dbb5c891cb73516b70f29b7660a03394a460018055604051908152f35b634e487b7160e01b600052604160045260246000fd5b013590508680610cc3565b84825260208220925090601f198416815b818110610e1a5750908460019594939210610e00575b505050811b019055610cd8565b0135600019600384901b60f8161c19169055868080610df3565b91936020600181928787013581550195019201610ddd565b909150836000526020600020601f840160051c81019160208510610e7b575b90601f859493920160051c01905b818110610e6c5750610cac565b60008155849350600101610e5f565b9091508190610e51565b013590508980610c64565b8382526020822091601f198416815b818110610ee15750916001939185610c879897969410610ec7575b505050811b019055610c79565b0135600019600384901b60f8161c19169055898080610eba565b91936020600181928787013581550195019201610e9f565b836000526020600020601f840160051c81019160208510610f37575b601f0160051c01905b818110610f2b5750610c45565b60008155600101610f1e565b9091508190610f15565b634e487b7160e01b600052601160045260246000fd5b3461020d57600036600319011261020d57600e546040516001600160a01b039091168152602090f35b3461020d57604036600319011261020d57610f996112b6565b6001600160a01b03166000908152600b602052604090208054602435919082101561020d57602091610fca91611288565b90549060031b1c604051908152f35b3461020d57604036600319011261020d57610ff26112b6565b6001600160a01b03166000908152600a602052604090208054602435919082101561020d57602091610fca91611288565b3461020d57602036600319011261020d5760043560065481101561020d57600090600654811015611061576020826006829452200154604051908152f35b634e487b7160e01b82526032600452602482fd5b3461020d57600036600319011261020d576004546040516001600160a01b039091168152602090f35b3461020d57602036600319011261020d5760043560005260096020526020604060002054604051908152f35b3461020d57602036600319011261020d576004356110e661165d565b806000526005602052604060002090815415610ad8576013820160ff815416600881101561065557600103610aa15760058301546001600160a01b031633141580611249575b610ab257608060016000947f51d0a1e698414611c0ea7ca8757d896ebb05e00dae40759e180392eb05da645393600260ff198254161781554260158301558154604051602081019182524260408201526040815261118b606082611321565b51902060038301908155815461ffff19166101031790915560078201805460a085901b859003168852600b6020526040882083549192916111cb916115a5565b7f9c831fa40390da8becd7237209647f69df6693617076b2a54c9ea1075ad788f38354915492600c85015490868060a01b039054166040519182916060835261121a6060840160048a016115cb565b91602084015260408301520390a30154604051908152846020820152846040820152846060820152a360018055005b506000546001600160a01b031633141561112c565b3461020d57602036600319011261020d5760043561127a611605565b6103e881116102f857600c55005b80548210156112a05760005260206000200190600090565b634e487b7160e01b600052603260045260246000fd5b600435906001600160a01b038216820361020d57565b610280810190811067ffffffffffffffff821117610dab57604052565b6080810190811067ffffffffffffffff821117610dab57604052565b6040810190811067ffffffffffffffff821117610dab57604052565b90601f8019910116810190811067ffffffffffffffff821117610dab57604052565b9060405161135081611305565b602060018294805484520154910152565b90600182811c92168015611391575b602083101461137b57565b634e487b7160e01b600052602260045260246000fd5b91607f1691611370565b90604051918260008254926113af84611361565b808452936001811690811561141d57506001146113d6575b506113d492500383611321565b565b90506000929192526020600020906000915b8183106114015750509060206113d492820101386113c7565b60209193508060019154838589010152019101909184926113e8565b9050602092506113d494915060ff191682840152151560051b820101386113c7565b9060405161144c816112e9565b60606114886005839561145e81611343565b855261146c60028201611343565b602086015261147d6004820161139b565b60408601520161139b565b910152565b919082519283825260005b8481106114b9575050826000602080949584010152601f8019910116010190565b80602080928401015182828601015201611498565b6115219160208251805183520151602082015260208083015180516040840152015160608201526060611510604084015160c0608085015260c084019061148d565b9201519060a081840391015261148d565b90565b9060088210156106555752565b9060048210156106555752565b906020808351928381520192019060005b81811061155c5750505090565b825184526020938401939092019160010161154f565b903590601e198136030182121561020d570180359067ffffffffffffffff821161020d5760200191813603831361020d57565b805490600160401b821015610dab5781610d179160016115c794018155611288565b9055565b906020825491828152019160005260206000209060005b8181106115ef5750505090565b82548452602090930192600192830192016115e2565b6000546001600160a01b0316330361161957565b606460405162461bcd60e51b815260206004820152602060248201527f4f776e61626c653a2063616c6c6572206973206e6f7420746865206f776e65726044820152fd5b60026001541461166e576002600155565b60405162461bcd60e51b815260206004820152601f60248201527f5265656e7472616e637947756172643a207265656e7472616e742063616c6c006044820152606490fdfea2646970667358221220f0c794f41e0111ad1634476d5352e9991f0c81f39a3dadc506a12800fbe882bd64736f6c634300081c0033",
  "linkReferences": {},
  "deployedLinkReferences": {}
}