{
  "_format": "hh-sol-artifact-1",
  "contractName": "BridgeFacet",
  "sourceName": "contracts/diamond/facets/BridgeFacet.sol",
  "abi": [
    {
      "anonymous": false,
      "inputs": [
        {
          "indexed": true,
          "internalType": "bytes32",
          "name": "unifiedOrderId",
          "type": "bytes32"
        },
        {
          "indexed": false,
          "internalType": "uint256",
          "name": "amount",
          "type": "uint256"
        }
      ],
      "name": "BountyPaid",
      "type": "event"
    },
    {
      "anonymous": false,
      "inputs": [
        {
          "indexed": true,
          "internalType": "address",
          "name": "oldRecipient",
          "type": "address"
        },
        {
          "indexed": true,
          "internalType": "address",
          "name": "newRecipient",
          "type": "address"
        }
      ],
      "name": "FeeRecipientUpdated",
      "type": "event"
    },
    {
      "anonymous": false,
      "inputs": [
        {
          "indexed": false,
          "internalType": "uint8",
          "name": "version",
          "type": "uint8"
        }
      ],
      "name": "Initialized",
      "type": "event"
    },
    {
      "anonymous": false,
      "inputs": [
        {
          "indexed": true,
          "internalType": "bytes32",
          "name": "unifiedOrderId",
          "type": "bytes32"
        },
        {
          "indexed": true,
          "internalType": "bytes32",
          "name": "journeyId",
          "type": "bytes32"
        },
        {
          "indexed": false,
          "internalType": "uint8",
          "name": "phase",
          "type": "uint8"
        }
      ],
      "name": "JourneyStatusUpdated",
      "type": "event"
    },
    {
      "anonymous": false,
      "inputs": [
        {
          "indexed": true,
          "internalType": "bytes32",
          "name": "unifiedOrderId",
          "type": "bytes32"
        },
        {
          "indexed": false,
          "internalType": "bytes32",
          "name": "ausysOrderId",
          "type": "bytes32"
        },
        {
          "indexed": false,
          "internalType": "bytes32[]",
          "name": "journeyIds",
          "type": "bytes32[]"
        },
        {
          "indexed": false,
          "internalType": "uint256",
          "name": "bounty",
          "type": "uint256"
        },
        {
          "indexed": false,
          "internalType": "address",
          "name": "node",
          "type": "address"
        }
      ],
      "name": "LogisticsOrderCreated",
      "type": "event"
    },
    {
      "anonymous": false,
      "inputs": [
        {
          "indexed": true,
          "internalType": "bytes32",
          "name": "unifiedOrderId",
          "type": "bytes32"
        },
        {
          "indexed": false,
          "internalType": "uint8",
          "name": "previousStatus",
          "type": "uint8"
        }
      ],
      "name": "OrderCancelled",
      "type": "event"
    },
    {
      "anonymous": false,
      "inputs": [
        {
          "indexed": true,
          "internalType": "bytes32",
          "name": "unifiedOrderId",
          "type": "bytes32"
        },
        {
          "indexed": false,
          "internalType": "address",
          "name": "seller",
          "type": "address"
        },
        {
          "indexed": false,
          "internalType": "uint256",
          "name": "sellerAmount",
          "type": "uint256"
        },
        {
          "indexed": false,
          "internalType": "address",
          "name": "driver",
          "type": "address"
        },
        {
          "indexed": false,
          "internalType": "uint256",
          "name": "driverAmount",
          "type": "uint256"
        }
      ],
      "name": "OrderSettled",
      "type": "event"
    },
    {
      "anonymous": false,
      "inputs": [
        {
          "indexed": true,
          "internalType": "bytes32",
          "name": "unifiedOrderId",
          "type": "bytes32"
        },
        {
          "indexed": false,
          "internalType": "bytes32",
          "name": "clobTradeId",
          "type": "bytes32"
        },
        {
          "indexed": false,
          "internalType": "bytes32",
          "name": "clobOrderId",
          "type": "bytes32"
        },
        {
          "indexed": false,
          "internalType": "address",
          "name": "maker",
          "type": "address"
        },
        {
          "indexed": false,
          "internalType": "uint256",
          "name": "price",
          "type": "uint256"
        },
        {
          "indexed": false,
          "internalType": "uint256",
          "name": "amount",
          "type": "uint256"
        }
      ],
      "name": "TradeMatched",
      "type": "event"
    },
    {
      "anonymous": false,
      "inputs": [
        {
          "indexed": true,
          "internalType": "bytes32",
          "name": "unifiedOrderId",
          "type": "bytes32"
        },
        {
          "indexed": true,
          "internalType": "bytes32",
          "name": "clobOrderId",
          "type": "bytes32"
        },
        {
          "indexed": false,
          "internalType": "address",
          "name": "buyer",
          "type": "address"
        },
        {
          "indexed": false,
          "internalType": "address",
          "name": "seller",
          "type": "address"
        },
        {
          "indexed": false,
          "internalType": "address",
          "name": "token",
          "type": "address"
        },
        {
          "indexed": false,
          "internalType": "uint256",
          "name": "tokenId",
          "type": "uint256"
        },
        {
          "indexed": false,
          "internalType": "uint256",
          "name": "quantity",
          "type": "uint256"
        },
        {
          "indexed": false,
          "internalType": "uint256",
          "name": "price",
          "type": "uint256"
        }
      ],
      "name": "UnifiedOrderCreated",
      "type": "event"
    },
    {
      "inputs": [],
      "name": "BOUNTY_PERCENTAGE",
      "outputs": [
        {
          "internalType": "uint256",
          "name": "",
          "type": "uint256"
        }
      ],
      "stateMutability": "view",
      "type": "function"
    },
    {
      "inputs": [],
      "name": "PROTOCOL_FEE_PERCENTAGE",
      "outputs": [
        {
          "internalType": "uint256",
          "name": "",
          "type": "uint256"
        }
      ],
      "stateMutability": "view",
      "type": "function"
    },
    {
      "inputs": [
        {
          "internalType": "bytes32",
          "name": "_unifiedOrderId",
          "type": "bytes32"
        },
        {
          "internalType": "bytes32",
          "name": "_clobTradeId",
          "type": "bytes32"
        },
        {
          "internalType": "bytes32",
          "name": "_ausysOrderId",
          "type": "bytes32"
        },
        {
          "internalType": "address",
          "name": "_seller",
          "type": "address"
        },
        {
          "internalType": "address",
          "name": "_token",
          "type": "address"
        },
        {
          "internalType": "uint256",
          "name": "_tokenId",
          "type": "uint256"
        }
      ],
      "name": "bridgeTradeToLogistics",
      "outputs": [],
      "stateMutability": "nonpayable",
      "type": "function"
    },
    {
      "inputs": [
        {
          "internalType": "bytes32",
          "name": "_unifiedOrderId",
          "type": "bytes32"
        }
      ],
      "name": "cancelUnifiedOrder",
      "outputs": [],
      "stateMutability": "nonpayable",
      "type": "function"
    },
    {
      "inputs": [
        {
          "internalType": "bytes32",
          "name": "_unifiedOrderId",
          "type": "bytes32"
        }
      ],
      "name": "createLogisticsOrder",
      "outputs": [
        {
          "internalType": "bytes32",
          "name": "journeyId",
          "type": "bytes32"
        }
      ],
      "stateMutability": "nonpayable",
      "type": "function"
    },
    {
      "inputs": [
        {
          "internalType": "bytes32",
          "name": "_clobOrderId",
          "type": "bytes32"
        },
        {
          "internalType": "address",
          "name": "_sellerNode",
          "type": "address"
        },
        {
          "internalType": "uint256",
          "name": "_price",
          "type": "uint256"
        },
        {
          "internalType": "uint256",
          "name": "_quantity",
          "type": "uint256"
        }
      ],
      "name": "createUnifiedOrder",
      "outputs": [
        {
          "internalType": "bytes32",
          "name": "unifiedOrderId",
          "type": "bytes32"
        }
      ],
      "stateMutability": "nonpayable",
      "type": "function"
    },
    {
      "inputs": [],
      "name": "feeRecipient",
      "outputs": [
        {
          "internalType": "address",
          "name": "",
          "type": "address"
        }
      ],
      "stateMutability": "view",
      "type": "function"
    },
    {
      "inputs": [],
      "name": "getTotalUnifiedOrders",
      "outputs": [
        {
          "internalType": "uint256",
          "name": "",
          "type": "uint256"
        }
      ],
      "stateMutability": "view",
      "type": "function"
    },
    {
      "inputs": [
        {
          "internalType": "bytes32",
          "name": "_orderId",
          "type": "bytes32"
        }
      ],
      "name": "getUnifiedOrder",
      "outputs": [
        {
          "internalType": "bytes32",
          "name": "clobOrderId",
          "type": "bytes32"
        },
        {
          "internalType": "bytes32",
          "name": "clobTradeId",
          "type": "bytes32"
        },
        {
          "internalType": "bytes32",
          "name": "ausysOrderId",
          "type": "bytes32"
        },
        {
          "internalType": "address",
          "name": "buyer",
          "type": "address"
        },
        {
          "internalType": "address",
          "name": "seller",
          "type": "address"
        },
        {
          "internalType": "address",
          "name": "sellerNode",
          "type": "address"
        },
        {
          "internalType": "address",
          "name": "token",
          "type": "address"
        },
        {
          "internalType": "uint256",
          "name": "tokenId",
          "type": "uint256"
        },
        {
          "internalType": "uint256",
          "name": "tokenQuantity",
          "type": "uint256"
        },
        {
          "internalType": "uint256",
          "name": "price",
          "type": "uint256"
        },
        {
          "internalType": "uint256",
          "name": "bounty",
          "type": "uint256"
        },
        {
          "internalType": "string",
          "name": "status",
          "type": "string"
        },
        {
          "internalType": "uint8",
          "name": "logisticsStatus",
          "type": "uint8"
        },
        {
          "internalType": "uint256",
          "name": "createdAt",
          "type": "uint256"
        },
        {
          "internalType": "uint256",
          "name": "matchedAt",
          "type": "uint256"
        },
        {
          "internalType": "uint256",
          "name": "deliveredAt",
          "type": "uint256"
        },
        {
          "internalType": "uint256",
          "name": "settledAt",
          "type": "uint256"
        }
      ],
      "stateMutability": "view",
      "type": "function"
    },
    {
      "inputs": [],
      "name": "initialize",
      "outputs": [],
      "stateMutability": "nonpayable",
      "type": "function"
    },
    {
      "inputs": [
        {
          "internalType": "address",
          "name": "_newRecipient",
          "type": "address"
        }
      ],
      "name": "setFeeRecipient",
      "outputs": [],
      "stateMutability": "nonpayable",
      "type": "function"
    },
    {
      "inputs": [
        {
          "internalType": "bytes32",
          "name": "_unifiedOrderId",
          "type": "bytes32"
        }
      ],
      "name": "settleOrder",
      "outputs": [],
      "stateMutability": "nonpayable",
      "type": "function"
    },
    {
      "inputs": [
        {
          "internalType": "bytes32",
          "name": "_journeyId",
          "type": "bytes32"
        },
        {
          "internalType": "uint8",
          "name": "_phase",
          "type": "uint8"
        }
      ],
      "name": "updateJourneyStatus",
      "outputs": [],
      "stateMutability": "nonpayable",
      "type": "function"
    }
  ],
  "bytecode": "0x60808060405234601557611523908161001b8239f35b600080fdfe60a080604052600436101561001357600080fd5b60003560e01c908163158ed47c146111f85750806320caf786146111dc57806346904840146111af57806349085d8c14610fbc5780635fc905ec14610e865780636111ce0b14610cb85780638129fc1c14610b65578063d2d2e82214610911578063d3ca81361461054f578063e4d7d6dc14610533578063e6598313146101dc578063e74b981b146100f05763fef24e01146100ae57600080fd5b346100eb5760003660031901126100eb5760207f31c1f8402397e5b1e3d75f3da7207ce6f54556b27afe723742768c4e4be50cfd54604051908152f35b600080fd5b346100eb5760203660031901126100eb576004356001600160a01b038116908181036100eb576000805160206114ce833981519152546001600160a01b0316330361018c576000805462010000600160b01b03198116601093841b62010000600160b01b031617825590911c6001600160a01b0316907faaebcf1bfa00580e41d966056b48521fa9f202645c86d4ddf28113e617c1b1d39080a3005b60405162461bcd60e51b815260206004820152602260248201527f4c69624469616d6f6e643a204d75737420626520636f6e7472616374206f776e60448201526132b960f11b6064820152608490fd5b346100eb5760203660031901126100eb57600435806000526000805160206114ae83398151915260205260018060a01b036004604060002001541633148015610503575b156104c957806000526000805160206114ae833981519152602052610252600160ff600b6040600020015416146113df565b60405160208101908282524260408201526040815261027260608261147c565b51902060405160a0810181811067ffffffffffffffff8211176104b3576040908152838252600060208084018281528484018381524260608701818152608088019182528886527f31c1f8402397e5b1e3d75f3da7207ce6f54556b27afe723742768c4e4be50d01909452949093209451855551600185018054935160ff60a01b60a09190911b166001600160a01b039092166001600160a81b031990941693909317179091556003919051600284015551910155816000527f31c1f8402397e5b1e3d75f3da7207ce6f54556b27afe723742768c4e4be50d0260205260406000208054600160401b8110156104b3576001810180835581101561049d57829160005260206000200155816000527f31c1f8402397e5b1e3d75f3da7207ce6f54556b27afe723742768c4e4be50d0360205260406000206103b3815461149e565b905560008281526000805160206114ae8339815191526020818152604080842060028101547f31c1f8402397e5b1e3d75f3da7207ce6f54556b27afe723742768c4e4be50d028452828620948452600a82015460059092015492519081526080818501819052855490820181905294865292852060a08401979593946001600160a01b0390931693919290915b818110610487575050509160209581927f9c831fa40390da8becd7237209647f69df6693617076b2a54c9ea1075ad788f394604084015260608301520390a2604051908152f35b8254895260209098019760019283019201610440565b634e487b7160e01b600052603260045260246000fd5b634e487b7160e01b600052604160045260246000fd5b60405162461bcd60e51b81526020600482015260126024820152714e6f742073656c6c6572206f72206e6f646560701b6044820152606490fd5b5060008181526000805160206114ae83398151915260205260409020600501546001600160a01b03163314610220565b346100eb5760003660031901126100eb57602060405160328152f35b346100eb5760803660031901126100eb576004356024356001600160a01b038116908190036100eb576044359160643560405160208101908382523360601b6040820152426054820152605481526105a860748261147c565b519020926105b6828661141f565b906064820291808304606414901517156108fb576040519161022083019183831067ffffffffffffffff8411176104b3576127109260405285845260006020850152600060408501523360608501526000608085015260a0840152600060c0840152600060e084015283610100840152866101208401520461014082015260006101608201526000610180820152426101a082015260006101c082015260006101e08201526000610200820152836000526000805160206114ae833981519152602052600f61020060406000209280518455602081015160018501556040810151600285015560018060a01b03606082015116600385019060018060a01b03166001600160601b0360a01b82541617905560018060a01b03608082015116600485019060018060a01b03166001600160601b0360a01b82541617905560018060a01b0360a082015116600585019060018060a01b03166001600160601b0360a01b82541617905560018060a01b0360c082015116600685019060018060a01b03166001600160601b0360a01b82541617905560e0810151600785015561010081015160088501556101208101516009850155610140810151600a8501556107aa600b850160ff6101608401511660ff1982541617815560ff6101808401511661ff0082549160081b169061ff001916179055565b6101a0810151600c8501556101c0810151600d8501556101e0810151600e85015501519101557f31c1f8402397e5b1e3d75f3da7207ce6f54556b27afe723742768c4e4be50cfc5493600160401b8510156104b35760018501807f31c1f8402397e5b1e3d75f3da7207ce6f54556b27afe723742768c4e4be50cfc5585101561049d5760c084927fc8b6af077d052146487628eaecffabe40950f528dbb5c891cb73516b70f29b7692846020987f31c1f8402397e5b1e3d75f3da7207ce6f54556b27afe723742768c4e4be50cfc6000528960002001556108ab7f31c1f8402397e5b1e3d75f3da7207ce6f54556b27afe723742768c4e4be50cfd5461149e565b7f31c1f8402397e5b1e3d75f3da7207ce6f54556b27afe723742768c4e4be50cfd55604051913383526000898401526000604084015260006060840152608083015260a0820152a3604051908152f35b634e487b7160e01b600052601160045260246000fd5b346100eb5760203660031901126100eb576004356000526000805160206114ae833981519152602052604060002060ff81548280806001810154600282015460018060a01b0360038401541660018060a01b0360048501541660018060a01b0360058601541660018060a01b0360068701541690600787015492600888015494600989015496600a8a015498600b8b01549e8f166000908015600014610ace5750506040516109c160408261147c565b60078152602081016610dc99585d195960ca1b90529f600e600d600c600f935b01549d01549d01549d01549d6040516080526080515260206080510152604060805101526060608051015260808051015260a0608051015260c0608051015260e06080510152610100608051015261012060805101526101406080510152610220610160608051015285519485610220608051015260005b868110610ab55750610240965060ff906000888860805101015260081c1661018060805101526101a060805101526101c060805101526101e06080510152610200608051015260805190601f8019910116608051010301608051f35b80602080928a0101516102408260805101015201610a59565b60018103610b0a575050604051610ae660408261147c565b6007815266109c9a5919d95960ca1b60208201525b9f600e600d600c600f936109e1565b600403610b3b5750604051610b2060408261147c565b600981526810dbdb5c1b195d195960ba1b6020820152610afb565b50604051610b4a60408261147c565b600981526810d85b98d95b1b195960ba1b6020820152610afb565b346100eb5760003660031901126100eb5760005460ff8160081c161590818092610cab575b8015610c94575b15610c385760ff19811660011760005581610c26575b506000805160206114ce833981519152546000805462010000600160b01b0319811660109390931b62010000600160b01b03169283179091559091610be857005b610100600160b01b03191617600055604051600181527f7f26b83ff96e1f2b6a682f133852f6798a09c465da95921460cefb384740249890602090a1005b61ffff19166101011760005581610ba7565b60405162461bcd60e51b815260206004820152602e60248201527f496e697469616c697a61626c653a20636f6e747261637420697320616c72656160448201526d191e481a5b9a5d1a585b1a5e995960921b6064820152608490fd5b50303b158015610b915750600160ff821614610b91565b50600160ff821610610b8a565b346100eb5760c03660031901126100eb576004356064356001600160a01b03811690602435908290036100eb57608435906001600160a01b03821682036100eb57836000526000805160206114ae83398151915260205260018060a01b036003604060002001541633148015610e65575b610d329061143f565b836000526000805160206114ae83398151915260205260ff600b6040600020015416610e20577f51d0a1e698414611c0ea7ca8757d896ebb05e00dae40759e180392eb05da64539260a092856000526000805160206114ae833981519152602052604060002090836001830155604435600283015560048201836001600160601b03871b8254161790556006820190600180871b03166001600160601b03861b82541617905560a4356007820155600b8101600160ff1982541617905542600d82015580549160086009830154920154926040519485526020850152604084015260608301526080820152a2005b60405162461bcd60e51b815260206004820152601b60248201527f4f72646572206e6f7420696e20637265617465642073746174757300000000006044820152606490fd5b506000805160206114ce833981519152546001600160a01b03163314610d29565b346100eb5760203660031901126100eb57600435806000526000805160206114ae83398151915260205260018060a01b036003604060002001541633148015610f9b575b610ed39061143f565b806000526000805160206114ae83398151915260205260ff600b6040600020015416610f565760008181526000805160206114ae8339815191526020908152604091829020600b018054600560ff19821617909155915160ff90921682527fe3bb8b6a10cd6f3d19108b8f000be77007825b16e073eb3a26cd8ccf3b6259a491a2005b60405162461bcd60e51b815260206004820152601e60248201527f43616e206f6e6c792063616e63656c2063726561746564206f726465727300006044820152606490fd5b506000805160206114ce833981519152546001600160a01b03163314610eca565b346100eb5760203660031901126100eb5760043560008181526000805160206114ae83398151915260205260409020600301546001600160a01b0316330361117e57806000526000805160206114ae833981519152602052600360ff600b6040600020015460081c160361114357806000526000805160206114ae833981519152602052611057600160ff600b6040600020015416146113df565b806000526000805160206114ae8339815191526020526040600020611085600982015460088301549061141f565b60328102818104603214821517156108fb57837fe72627b4608c12b9d5ebe17756ff73e478756fd16173be348ab56601c80655636080856110fe612710956110f9602098600a7f8e7bc4ed4999c8e68be35fc92708bc9545bec59023fba85af496b9b6b690f0fe9b01549889930490611432565b611432565b90600b8101600460ff1982541617905542600f820155600460018060a01b0391015416906040519182528682015260006040820152846060820152a2604051908152a2005b60405162461bcd60e51b815260206004820152601360248201527213dc99195c881b9bdd0819195b1a5d995c9959606a1b6044820152606490fd5b60405162461bcd60e51b81526020600482015260096024820152682737ba10313abcb2b960b91b6044820152606490fd5b346100eb5760003660031901126100eb5760005460405160109190911c6001600160a01b03168152602090f35b346100eb5760003660031901126100eb57602060405160648152f35b346100eb5760403660031901126100eb57600435906024359060ff8216908183036100eb57600382116113ad5750826000527f31c1f8402397e5b1e3d75f3da7207ce6f54556b27afe723742768c4e4be50d0160205260018060a01b03600160406000200154163314801561138c575b156113515760008381527f31c1f8402397e5b1e3d75f3da7207ce6f54556b27afe723742768c4e4be50d0160205260409020805460018201805460ff60a01b191660a086901b60ff60a01b1617905593600393611326929091908542910155857ff7da2d1a238d048c19d187bb493c4e09ee74b8ac2d97f4ed94db3cb52ee0f6a46020604051878152a3846000526000805160206114ae833981519152602052600b6040600020019061ff0082549160081b169061ff001916179055565b1461132d57005b6000526000805160206114ae83398151915260205242600e60406000200155600080f35b60405162461bcd60e51b81526020600482015260136024820152722737ba10323934bb32b91037b91037bbb732b960691b6044820152606490fd5b506000805160206114ce833981519152546001600160a01b03163314611268565b62461bcd60e51b815260206004820152600d60248201526c496e76616c696420706861736560981b6044820152606490fd5b156113e657565b60405162461bcd60e51b815260206004820152601160248201527013dc99195c881b9bdd08189c9a5919d959607a1b6044820152606490fd5b818102929181159184041417156108fb57565b919082039182116108fb57565b1561144657565b60405162461bcd60e51b815260206004820152600e60248201526d139bdd08185d5d1a1bdc9a5e995960921b6044820152606490fd5b90601f8019910116810190811067ffffffffffffffff8211176104b357604052565b60001981146108fb576001019056fe31c1f8402397e5b1e3d75f3da7207ce6f54556b27afe723742768c4e4be50cfbc8fcad8db84d3cc18b4c41d551ea0ee66dd599cde068d998e57d5e09332c1320a26469706673582212201d5f221d1478eaad0b3f7a3d0a6e672805923c2e721498a8a7a8c8e3f3e45d2464736f6c634300081c0033",
  "linkReferences": {},
  "deployedLinkReferences": {}
}