{
  "_format": "hh-sol-artifact-1",
  "contractName": "BridgeFacet",
  "sourceName": "contracts/diamond/facets/BridgeFacet.sol",
  "abi": [
    {
      "inputs": [],
      "name": "InvalidInitialization",
      "type": "error"
    },
    {
      "inputs": [],
      "name": "NotInitializing",
      "type": "error"
    },
    {
      "anonymous": false,
      "inputs": [
        {
          "indexed": true,
          "internalType": "bytes32",
          "name": "unifiedOrderId",
          "type": "bytes32"
        },
        {
          "indexed": false,
          "internalType": "uint256",
          "name": "amount",
          "type": "uint256"
        }
      ],
      "name": "BountyPaid",
      "type": "event"
    },
    {
      "anonymous": false,
      "inputs": [
        {
          "indexed": true,
          "internalType": "address",
          "name": "oldRecipient",
          "type": "address"
        },
        {
          "indexed": true,
          "internalType": "address",
          "name": "newRecipient",
          "type": "address"
        }
      ],
      "name": "FeeRecipientUpdated",
      "type": "event"
    },
    {
      "anonymous": false,
      "inputs": [
        {
          "indexed": false,
          "internalType": "uint64",
          "name": "version",
          "type": "uint64"
        }
      ],
      "name": "Initialized",
      "type": "event"
    },
    {
      "anonymous": false,
      "inputs": [
        {
          "indexed": true,
          "internalType": "bytes32",
          "name": "unifiedOrderId",
          "type": "bytes32"
        },
        {
          "indexed": true,
          "internalType": "bytes32",
          "name": "journeyId",
          "type": "bytes32"
        },
        {
          "indexed": false,
          "internalType": "uint8",
          "name": "phase",
          "type": "uint8"
        }
      ],
      "name": "JourneyStatusUpdated",
      "type": "event"
    },
    {
      "anonymous": false,
      "inputs": [
        {
          "indexed": true,
          "internalType": "bytes32",
          "name": "unifiedOrderId",
          "type": "bytes32"
        },
        {
          "indexed": false,
          "internalType": "bytes32",
          "name": "ausysOrderId",
          "type": "bytes32"
        },
        {
          "indexed": false,
          "internalType": "bytes32[]",
          "name": "journeyIds",
          "type": "bytes32[]"
        },
        {
          "indexed": false,
          "internalType": "uint256",
          "name": "bounty",
          "type": "uint256"
        },
        {
          "indexed": false,
          "internalType": "address",
          "name": "node",
          "type": "address"
        }
      ],
      "name": "LogisticsOrderCreated",
      "type": "event"
    },
    {
      "anonymous": false,
      "inputs": [
        {
          "indexed": true,
          "internalType": "bytes32",
          "name": "unifiedOrderId",
          "type": "bytes32"
        },
        {
          "indexed": false,
          "internalType": "uint8",
          "name": "previousStatus",
          "type": "uint8"
        }
      ],
      "name": "OrderCancelled",
      "type": "event"
    },
    {
      "anonymous": false,
      "inputs": [
        {
          "indexed": true,
          "internalType": "bytes32",
          "name": "unifiedOrderId",
          "type": "bytes32"
        },
        {
          "indexed": false,
          "internalType": "address",
          "name": "seller",
          "type": "address"
        },
        {
          "indexed": false,
          "internalType": "uint256",
          "name": "sellerAmount",
          "type": "uint256"
        },
        {
          "indexed": false,
          "internalType": "address",
          "name": "driver",
          "type": "address"
        },
        {
          "indexed": false,
          "internalType": "uint256",
          "name": "driverAmount",
          "type": "uint256"
        }
      ],
      "name": "OrderSettled",
      "type": "event"
    },
    {
      "anonymous": false,
      "inputs": [
        {
          "indexed": true,
          "internalType": "bytes32",
          "name": "unifiedOrderId",
          "type": "bytes32"
        },
        {
          "indexed": false,
          "internalType": "bytes32",
          "name": "clobTradeId",
          "type": "bytes32"
        },
        {
          "indexed": false,
          "internalType": "bytes32",
          "name": "clobOrderId",
          "type": "bytes32"
        },
        {
          "indexed": false,
          "internalType": "address",
          "name": "maker",
          "type": "address"
        },
        {
          "indexed": false,
          "internalType": "uint256",
          "name": "price",
          "type": "uint256"
        },
        {
          "indexed": false,
          "internalType": "uint256",
          "name": "amount",
          "type": "uint256"
        }
      ],
      "name": "TradeMatched",
      "type": "event"
    },
    {
      "anonymous": false,
      "inputs": [
        {
          "indexed": true,
          "internalType": "bytes32",
          "name": "unifiedOrderId",
          "type": "bytes32"
        },
        {
          "indexed": true,
          "internalType": "bytes32",
          "name": "clobOrderId",
          "type": "bytes32"
        },
        {
          "indexed": false,
          "internalType": "address",
          "name": "buyer",
          "type": "address"
        },
        {
          "indexed": false,
          "internalType": "address",
          "name": "seller",
          "type": "address"
        },
        {
          "indexed": false,
          "internalType": "address",
          "name": "token",
          "type": "address"
        },
        {
          "indexed": false,
          "internalType": "uint256",
          "name": "tokenId",
          "type": "uint256"
        },
        {
          "indexed": false,
          "internalType": "uint256",
          "name": "quantity",
          "type": "uint256"
        },
        {
          "indexed": false,
          "internalType": "uint256",
          "name": "price",
          "type": "uint256"
        }
      ],
      "name": "UnifiedOrderCreated",
      "type": "event"
    },
    {
      "inputs": [],
      "name": "BOUNTY_PERCENTAGE",
      "outputs": [
        {
          "internalType": "uint256",
          "name": "",
          "type": "uint256"
        }
      ],
      "stateMutability": "view",
      "type": "function"
    },
    {
      "inputs": [],
      "name": "PROTOCOL_FEE_PERCENTAGE",
      "outputs": [
        {
          "internalType": "uint256",
          "name": "",
          "type": "uint256"
        }
      ],
      "stateMutability": "view",
      "type": "function"
    },
    {
      "inputs": [
        {
          "internalType": "bytes32",
          "name": "_unifiedOrderId",
          "type": "bytes32"
        },
        {
          "internalType": "bytes32",
          "name": "_clobTradeId",
          "type": "bytes32"
        },
        {
          "internalType": "bytes32",
          "name": "_ausysOrderId",
          "type": "bytes32"
        },
        {
          "internalType": "address",
          "name": "_seller",
          "type": "address"
        },
        {
          "internalType": "address",
          "name": "_token",
          "type": "address"
        },
        {
          "internalType": "uint256",
          "name": "_tokenId",
          "type": "uint256"
        }
      ],
      "name": "bridgeTradeToLogistics",
      "outputs": [],
      "stateMutability": "nonpayable",
      "type": "function"
    },
    {
      "inputs": [
        {
          "internalType": "bytes32",
          "name": "_unifiedOrderId",
          "type": "bytes32"
        }
      ],
      "name": "cancelUnifiedOrder",
      "outputs": [],
      "stateMutability": "nonpayable",
      "type": "function"
    },
    {
      "inputs": [
        {
          "internalType": "bytes32",
          "name": "_unifiedOrderId",
          "type": "bytes32"
        }
      ],
      "name": "createLogisticsOrder",
      "outputs": [
        {
          "internalType": "bytes32",
          "name": "journeyId",
          "type": "bytes32"
        }
      ],
      "stateMutability": "nonpayable",
      "type": "function"
    },
    {
      "inputs": [
        {
          "internalType": "bytes32",
          "name": "_clobOrderId",
          "type": "bytes32"
        },
        {
          "internalType": "address",
          "name": "_sellerNode",
          "type": "address"
        },
        {
          "internalType": "uint256",
          "name": "_price",
          "type": "uint256"
        },
        {
          "internalType": "uint256",
          "name": "_quantity",
          "type": "uint256"
        }
      ],
      "name": "createUnifiedOrder",
      "outputs": [
        {
          "internalType": "bytes32",
          "name": "unifiedOrderId",
          "type": "bytes32"
        }
      ],
      "stateMutability": "nonpayable",
      "type": "function"
    },
    {
      "inputs": [],
      "name": "feeRecipient",
      "outputs": [
        {
          "internalType": "address",
          "name": "",
          "type": "address"
        }
      ],
      "stateMutability": "view",
      "type": "function"
    },
    {
      "inputs": [],
      "name": "getTotalUnifiedOrders",
      "outputs": [
        {
          "internalType": "uint256",
          "name": "",
          "type": "uint256"
        }
      ],
      "stateMutability": "view",
      "type": "function"
    },
    {
      "inputs": [
        {
          "internalType": "bytes32",
          "name": "_orderId",
          "type": "bytes32"
        }
      ],
      "name": "getUnifiedOrder",
      "outputs": [
        {
          "internalType": "bytes32",
          "name": "clobOrderId",
          "type": "bytes32"
        },
        {
          "internalType": "bytes32",
          "name": "clobTradeId",
          "type": "bytes32"
        },
        {
          "internalType": "bytes32",
          "name": "ausysOrderId",
          "type": "bytes32"
        },
        {
          "internalType": "address",
          "name": "buyer",
          "type": "address"
        },
        {
          "internalType": "address",
          "name": "seller",
          "type": "address"
        },
        {
          "internalType": "address",
          "name": "sellerNode",
          "type": "address"
        },
        {
          "internalType": "address",
          "name": "token",
          "type": "address"
        },
        {
          "internalType": "uint256",
          "name": "tokenId",
          "type": "uint256"
        },
        {
          "internalType": "uint256",
          "name": "tokenQuantity",
          "type": "uint256"
        },
        {
          "internalType": "uint256",
          "name": "price",
          "type": "uint256"
        },
        {
          "internalType": "uint256",
          "name": "bounty",
          "type": "uint256"
        },
        {
          "internalType": "string",
          "name": "status",
          "type": "string"
        },
        {
          "internalType": "uint8",
          "name": "logisticsStatus",
          "type": "uint8"
        },
        {
          "internalType": "uint256",
          "name": "createdAt",
          "type": "uint256"
        },
        {
          "internalType": "uint256",
          "name": "matchedAt",
          "type": "uint256"
        },
        {
          "internalType": "uint256",
          "name": "deliveredAt",
          "type": "uint256"
        },
        {
          "internalType": "uint256",
          "name": "settledAt",
          "type": "uint256"
        }
      ],
      "stateMutability": "view",
      "type": "function"
    },
    {
      "inputs": [],
      "name": "initialize",
      "outputs": [],
      "stateMutability": "nonpayable",
      "type": "function"
    },
    {
      "inputs": [
        {
          "internalType": "address",
          "name": "_newRecipient",
          "type": "address"
        }
      ],
      "name": "setFeeRecipient",
      "outputs": [],
      "stateMutability": "nonpayable",
      "type": "function"
    },
    {
      "inputs": [
        {
          "internalType": "bytes32",
          "name": "_unifiedOrderId",
          "type": "bytes32"
        }
      ],
      "name": "settleOrder",
      "outputs": [],
      "stateMutability": "nonpayable",
      "type": "function"
    },
    {
      "inputs": [
        {
          "internalType": "bytes32",
          "name": "_journeyId",
          "type": "bytes32"
        },
        {
          "internalType": "uint8",
          "name": "_phase",
          "type": "uint8"
        }
      ],
      "name": "updateJourneyStatus",
      "outputs": [],
      "stateMutability": "nonpayable",
      "type": "function"
    }
  ],
  "bytecode": "0x60808060405234601557611536908161001b8239f35b600080fdfe60a080604052600436101561001357600080fd5b60003560e01c908163158ed47c146111eb5750806320caf786146111cf57806346904840146111a657806349085d8c14610fb35780635fc905ec14610e7d5780636111ce0b14610caf5780638129fc1c14610b51578063d2d2e822146108fd578063d3ca81361461053b578063e4d7d6dc1461051f578063e6598313146101c8578063e74b981b146100f05763fef24e01146100ae57600080fd5b346100eb5760003660031901126100eb5760207f31c1f8402397e5b1e3d75f3da7207ce6f54556b27afe723742768c4e4be50cfd54604051908152f35b600080fd5b346100eb5760203660031901126100eb576004356001600160a01b038116908190036100eb576000805160206114c1833981519152546001600160a01b0316330361017857600080546001600160a01b03198116831782556001600160a01b0316907faaebcf1bfa00580e41d966056b48521fa9f202645c86d4ddf28113e617c1b1d39080a3005b60405162461bcd60e51b815260206004820152602260248201527f4c69624469616d6f6e643a204d75737420626520636f6e7472616374206f776e60448201526132b960f11b6064820152608490fd5b346100eb5760203660031901126100eb57600435806000526000805160206114a183398151915260205260018060a01b0360046040600020015416331480156104ef575b156104b557806000526000805160206114a183398151915260205261023e600160ff600b6040600020015416146113d2565b60405160208101908282524260408201526040815261025e60608261146f565b51902060405160a0810181811067ffffffffffffffff82111761049f576040908152838252600060208084018281528484018381524260608701818152608088019182528886527f31c1f8402397e5b1e3d75f3da7207ce6f54556b27afe723742768c4e4be50d01909452949093209451855551600185018054935160ff60a01b60a09190911b166001600160a01b039092166001600160a81b031990941693909317179091556003919051600284015551910155816000527f31c1f8402397e5b1e3d75f3da7207ce6f54556b27afe723742768c4e4be50d0260205260406000208054600160401b81101561049f576001810180835581101561048957829160005260206000200155816000527f31c1f8402397e5b1e3d75f3da7207ce6f54556b27afe723742768c4e4be50d03602052604060002061039f8154611491565b905560008281526000805160206114a18339815191526020818152604080842060028101547f31c1f8402397e5b1e3d75f3da7207ce6f54556b27afe723742768c4e4be50d028452828620948452600a82015460059092015492519081526080818501819052855490820181905294865292852060a08401979593946001600160a01b0390931693919290915b818110610473575050509160209581927f9c831fa40390da8becd7237209647f69df6693617076b2a54c9ea1075ad788f394604084015260608301520390a2604051908152f35b825489526020909801976001928301920161042c565b634e487b7160e01b600052603260045260246000fd5b634e487b7160e01b600052604160045260246000fd5b60405162461bcd60e51b81526020600482015260126024820152714e6f742073656c6c6572206f72206e6f646560701b6044820152606490fd5b5060008181526000805160206114a183398151915260205260409020600501546001600160a01b0316331461020c565b346100eb5760003660031901126100eb57602060405160328152f35b346100eb5760803660031901126100eb576004356024356001600160a01b038116908190036100eb576044359160643560405160208101908382523360601b60408201524260548201526054815261059460748261146f565b519020926105a28286611412565b906064820291808304606414901517156108e7576040519161022083019183831067ffffffffffffffff84111761049f576127109260405285845260006020850152600060408501523360608501526000608085015260a0840152600060c0840152600060e084015283610100840152866101208401520461014082015260006101608201526000610180820152426101a082015260006101c082015260006101e08201526000610200820152836000526000805160206114a1833981519152602052600f61020060406000209280518455602081015160018501556040810151600285015560018060a01b03606082015116600385019060018060a01b03166001600160601b0360a01b82541617905560018060a01b03608082015116600485019060018060a01b03166001600160601b0360a01b82541617905560018060a01b0360a082015116600585019060018060a01b03166001600160601b0360a01b82541617905560018060a01b0360c082015116600685019060018060a01b03166001600160601b0360a01b82541617905560e0810151600785015561010081015160088501556101208101516009850155610140810151600a850155610796600b850160ff6101608401511660ff1982541617815560ff6101808401511661ff0082549160081b169061ff001916179055565b6101a0810151600c8501556101c0810151600d8501556101e0810151600e85015501519101557f31c1f8402397e5b1e3d75f3da7207ce6f54556b27afe723742768c4e4be50cfc5493600160401b85101561049f5760018501807f31c1f8402397e5b1e3d75f3da7207ce6f54556b27afe723742768c4e4be50cfc558510156104895760c084927fc8b6af077d052146487628eaecffabe40950f528dbb5c891cb73516b70f29b7692846020987f31c1f8402397e5b1e3d75f3da7207ce6f54556b27afe723742768c4e4be50cfc6000528960002001556108977f31c1f8402397e5b1e3d75f3da7207ce6f54556b27afe723742768c4e4be50cfd54611491565b7f31c1f8402397e5b1e3d75f3da7207ce6f54556b27afe723742768c4e4be50cfd55604051913383526000898401526000604084015260006060840152608083015260a0820152a3604051908152f35b634e487b7160e01b600052601160045260246000fd5b346100eb5760203660031901126100eb576004356000526000805160206114a1833981519152602052604060002060ff81548280806001810154600282015460018060a01b0360038401541660018060a01b0360048501541660018060a01b0360058601541660018060a01b0360068701541690600787015492600888015494600989015496600a8a015498600b8b01549e8f166000908015600014610aba5750506040516109ad60408261146f565b60078152602081016610dc99585d195960ca1b90529f600e600d600c600f935b01549d01549d01549d01549d6040516080526080515260206080510152604060805101526060608051015260808051015260a0608051015260c0608051015260e06080510152610100608051015261012060805101526101406080510152610220610160608051015285519485610220608051015260005b868110610aa15750610240965060ff906000888860805101015260081c1661018060805101526101a060805101526101c060805101526101e06080510152610200608051015260805190601f8019910116608051010301608051f35b80602080928a0101516102408260805101015201610a45565b60018103610af6575050604051610ad260408261146f565b6007815266109c9a5919d95960ca1b60208201525b9f600e600d600c600f936109cd565b600403610b275750604051610b0c60408261146f565b600981526810dbdb5c1b195d195960ba1b6020820152610ae7565b50604051610b3660408261146f565b600981526810d85b98d95b1b195960ba1b6020820152610ae7565b346100eb5760003660031901126100eb576000805160206114e18339815191525460ff8160401c16159067ffffffffffffffff811680159081610ca7575b6001149081610c9d575b159081610c94575b50610c835767ffffffffffffffff1981166001176000805160206114e18339815191525581610c56575b5060018060a01b036000805160206114c183398151915254166001600160601b0360a01b6000541617600055610bfd57005b68ff0000000000000000196000805160206114e183398151915254166000805160206114e1833981519152557fc7f505b2f371ae2175ee4913f4499e1f2633a7b5936321eed1cdaeb6115181d2602060405160018152a1005b68ffffffffffffffffff191668010000000000000001176000805160206114e18339815191525581610bcb565b63f92ee8a960e01b60005260046000fd5b90501583610ba1565b303b159150610b99565b839150610b8f565b346100eb5760c03660031901126100eb576004356064356001600160a01b03811690602435908290036100eb57608435906001600160a01b03821682036100eb57836000526000805160206114a183398151915260205260018060a01b036003604060002001541633148015610e5c575b610d2990611432565b836000526000805160206114a183398151915260205260ff600b6040600020015416610e17577f51d0a1e698414611c0ea7ca8757d896ebb05e00dae40759e180392eb05da64539260a092856000526000805160206114a1833981519152602052604060002090836001830155604435600283015560048201836001600160601b03871b8254161790556006820190600180871b03166001600160601b03861b82541617905560a4356007820155600b8101600160ff1982541617905542600d82015580549160086009830154920154926040519485526020850152604084015260608301526080820152a2005b60405162461bcd60e51b815260206004820152601b60248201527f4f72646572206e6f7420696e20637265617465642073746174757300000000006044820152606490fd5b506000805160206114c1833981519152546001600160a01b03163314610d20565b346100eb5760203660031901126100eb57600435806000526000805160206114a183398151915260205260018060a01b036003604060002001541633148015610f92575b610eca90611432565b806000526000805160206114a183398151915260205260ff600b6040600020015416610f4d5760008181526000805160206114a18339815191526020908152604091829020600b018054600560ff19821617909155915160ff90921682527fe3bb8b6a10cd6f3d19108b8f000be77007825b16e073eb3a26cd8ccf3b6259a491a2005b60405162461bcd60e51b815260206004820152601e60248201527f43616e206f6e6c792063616e63656c2063726561746564206f726465727300006044820152606490fd5b506000805160206114c1833981519152546001600160a01b03163314610ec1565b346100eb5760203660031901126100eb5760043560008181526000805160206114a183398151915260205260409020600301546001600160a01b0316330361117557806000526000805160206114a1833981519152602052600360ff600b6040600020015460081c160361113a57806000526000805160206114a183398151915260205261104e600160ff600b6040600020015416146113d2565b806000526000805160206114a1833981519152602052604060002061107c6009820154600883015490611412565b60328102818104603214821517156108e757837fe72627b4608c12b9d5ebe17756ff73e478756fd16173be348ab56601c80655636080856110f5612710956110f0602098600a7f8e7bc4ed4999c8e68be35fc92708bc9545bec59023fba85af496b9b6b690f0fe9b01549889930490611425565b611425565b90600b8101600460ff1982541617905542600f820155600460018060a01b0391015416906040519182528682015260006040820152846060820152a2604051908152a2005b60405162461bcd60e51b815260206004820152601360248201527213dc99195c881b9bdd0819195b1a5d995c9959606a1b6044820152606490fd5b60405162461bcd60e51b81526020600482015260096024820152682737ba10313abcb2b960b91b6044820152606490fd5b346100eb5760003660031901126100eb576000546040516001600160a01b039091168152602090f35b346100eb5760003660031901126100eb57602060405160648152f35b346100eb5760403660031901126100eb57600435906024359060ff8216908183036100eb57600382116113a05750826000527f31c1f8402397e5b1e3d75f3da7207ce6f54556b27afe723742768c4e4be50d0160205260018060a01b03600160406000200154163314801561137f575b156113445760008381527f31c1f8402397e5b1e3d75f3da7207ce6f54556b27afe723742768c4e4be50d0160205260409020805460018201805460ff60a01b191660a086901b60ff60a01b1617905593600393611319929091908542910155857ff7da2d1a238d048c19d187bb493c4e09ee74b8ac2d97f4ed94db3cb52ee0f6a46020604051878152a3846000526000805160206114a1833981519152602052600b6040600020019061ff0082549160081b169061ff001916179055565b1461132057005b6000526000805160206114a183398151915260205242600e60406000200155600080f35b60405162461bcd60e51b81526020600482015260136024820152722737ba10323934bb32b91037b91037bbb732b960691b6044820152606490fd5b506000805160206114c1833981519152546001600160a01b0316331461125b565b62461bcd60e51b815260206004820152600d60248201526c496e76616c696420706861736560981b6044820152606490fd5b156113d957565b60405162461bcd60e51b815260206004820152601160248201527013dc99195c881b9bdd08189c9a5919d959607a1b6044820152606490fd5b818102929181159184041417156108e757565b919082039182116108e757565b1561143957565b60405162461bcd60e51b815260206004820152600e60248201526d139bdd08185d5d1a1bdc9a5e995960921b6044820152606490fd5b90601f8019910116810190811067ffffffffffffffff82111761049f57604052565b60001981146108e7576001019056fe31c1f8402397e5b1e3d75f3da7207ce6f54556b27afe723742768c4e4be50cfbc8fcad8db84d3cc18b4c41d551ea0ee66dd599cde068d998e57d5e09332c1320f0c57e16840df040f15088dc2f81fe391c3923bec73e23a9662efc9c229c6a00a2646970667358221220274731edac6a6c2a488fa743e316af02e0099a7cea4ae0cb0afa7c09006d730e64736f6c634300081c0033",
  "linkReferences": {},
  "deployedLinkReferences": {}
}