{
  "_format": "hh-sol-artifact-1",
  "contractName": "OwnershipFacet",
  "sourceName": "contracts/diamond/facets/OwnershipFacet.sol",
  "abi": [
    {
      "anonymous": false,
      "inputs": [
        {
          "indexed": false,
          "internalType": "uint8",
          "name": "version",
          "type": "uint8"
        }
      ],
      "name": "Initialized",
      "type": "event"
    },
    {
      "anonymous": false,
      "inputs": [
        {
          "indexed": true,
          "internalType": "address",
          "name": "previousOwner",
          "type": "address"
        },
        {
          "indexed": true,
          "internalType": "address",
          "name": "newOwner",
          "type": "address"
        }
      ],
      "name": "OwnershipTransferred",
      "type": "event"
    },
    {
      "anonymous": false,
      "inputs": [
        {
          "indexed": true,
          "internalType": "address",
          "name": "previousOwner",
          "type": "address"
        },
        {
          "indexed": true,
          "internalType": "address",
          "name": "newOwner",
          "type": "address"
        }
      ],
      "name": "OwnershipTransferred",
      "type": "event"
    },
    {
      "inputs": [],
      "name": "acceptOwnership",
      "outputs": [],
      "stateMutability": "pure",
      "type": "function"
    },
    {
      "inputs": [
        {
          "internalType": "address",
          "name": "_owner",
          "type": "address"
        }
      ],
      "name": "initialize",
      "outputs": [],
      "stateMutability": "nonpayable",
      "type": "function"
    },
    {
      "inputs": [],
      "name": "owner",
      "outputs": [
        {
          "internalType": "address",
          "name": "",
          "type": "address"
        }
      ],
      "stateMutability": "view",
      "type": "function"
    },
    {
      "inputs": [],
      "name": "renounceOwnership",
      "outputs": [],
      "stateMutability": "nonpayable",
      "type": "function"
    },
    {
      "inputs": [
        {
          "internalType": "address",
          "name": "_newOwner",
          "type": "address"
        }
      ],
      "name": "transferOwnership",
      "outputs": [],
      "stateMutability": "nonpayable",
      "type": "function"
    }
  ],
  "bytecode": "0x6080806040523460155761038e908161001b8239f35b600080fdfe6080604052600436101561001257600080fd5b60003560e01c8063715018a61461020757806379ba5097146101f45780638da5cb5b146101be578063c4d66de81461008f5763f2fde38b1461005357600080fd5b3461008a57602036600319011261008a576004356001600160a01b038116810361008a5761008890610083610271565b6102e2565b005b600080fd5b3461008a57602036600319011261008a576004356001600160a01b038116810361008a5760005460ff8160081c1615918280936101b1575b801561019a575b1561013e5760ff1982166001176000556100ee918361012c575b506102e2565b6100f457005b61ff0019600054166000557f7f26b83ff96e1f2b6a682f133852f6798a09c465da95921460cefb3847402498602060405160018152a1005b61ffff191661010117600055836100e8565b60405162461bcd60e51b815260206004820152602e60248201527f496e697469616c697a61626c653a20636f6e747261637420697320616c72656160448201526d191e481a5b9a5d1a585b1a5e995960921b6064820152608490fd5b50303b1580156100ce5750600160ff8316146100ce565b50600160ff8316106100c7565b3461008a57600036600319011261008a57600080516020610339833981519152546040516001600160a01b039091168152602090f35b3461008a57600036600319011261008a57005b3461008a57600036600319011261008a57610220610271565b60008051602061033983398151915280546001600160a01b031981169091556000906001600160a01b03167f8be0079c531659141344cd1fd0a4f28419497f9722a3daafe3b4186f6b6457e08280a3005b600080516020610339833981519152546001600160a01b0316330361029257565b60405162461bcd60e51b815260206004820152602260248201527f4c69624469616d6f6e643a204d75737420626520636f6e7472616374206f776e60448201526132b960f11b6064820152608490fd5b60008051602061033983398151915280546001600160a01b039283166001600160a01b0319821681179092559091167f8be0079c531659141344cd1fd0a4f28419497f9722a3daafe3b4186f6b6457e0600080a356fec8fcad8db84d3cc18b4c41d551ea0ee66dd599cde068d998e57d5e09332c1320a264697066735822122078a85dc0b3e0a754c270b6b60a563045f0a4c4d569bcc2fa6b06ead08204e6a964736f6c634300081c0033",
  "linkReferences": {},
  "deployedLinkReferences": {}
}