{
  "_format": "hh-sol-artifact-1",
  "contractName": "OwnershipFacet",
  "sourceName": "contracts/diamond/facets/OwnershipFacet.sol",
  "abi": [
    {
      "inputs": [],
      "name": "InvalidInitialization",
      "type": "error"
    },
    {
      "inputs": [],
      "name": "NotInitializing",
      "type": "error"
    },
    {
      "anonymous": false,
      "inputs": [
        {
          "indexed": false,
          "internalType": "uint64",
          "name": "version",
          "type": "uint64"
        }
      ],
      "name": "Initialized",
      "type": "event"
    },
    {
      "anonymous": false,
      "inputs": [
        {
          "indexed": true,
          "internalType": "address",
          "name": "previousOwner",
          "type": "address"
        },
        {
          "indexed": true,
          "internalType": "address",
          "name": "newOwner",
          "type": "address"
        }
      ],
      "name": "OwnershipTransferred",
      "type": "event"
    },
    {
      "anonymous": false,
      "inputs": [
        {
          "indexed": true,
          "internalType": "address",
          "name": "previousOwner",
          "type": "address"
        },
        {
          "indexed": true,
          "internalType": "address",
          "name": "newOwner",
          "type": "address"
        }
      ],
      "name": "OwnershipTransferred",
      "type": "event"
    },
    {
      "inputs": [],
      "name": "acceptOwnership",
      "outputs": [],
      "stateMutability": "pure",
      "type": "function"
    },
    {
      "inputs": [
        {
          "internalType": "address",
          "name": "_owner",
          "type": "address"
        }
      ],
      "name": "initialize",
      "outputs": [],
      "stateMutability": "nonpayable",
      "type": "function"
    },
    {
      "inputs": [],
      "name": "owner",
      "outputs": [
        {
          "internalType": "address",
          "name": "",
          "type": "address"
        }
      ],
      "stateMutability": "view",
      "type": "function"
    },
    {
      "inputs": [],
      "name": "renounceOwnership",
      "outputs": [],
      "stateMutability": "nonpayable",
      "type": "function"
    },
    {
      "inputs": [
        {
          "internalType": "address",
          "name": "_newOwner",
          "type": "address"
        }
      ],
      "name": "transferOwnership",
      "outputs": [],
      "stateMutability": "nonpayable",
      "type": "function"
    }
  ],
  "bytecode": "0x608080604052346015576103ce908161001b8239f35b600080fdfe6080604052600436101561001257600080fd5b60003560e01c8063715018a61461022757806379ba5097146102145780638da5cb5b146101de578063c4d66de81461008f5763f2fde38b1461005357600080fd5b3461008a57602036600319011261008a576004356001600160a01b038116810361008a5761008890610083610291565b610302565b005b600080fd5b3461008a57602036600319011261008a576004356001600160a01b038116810361008a576000805160206103598339815191525460ff8160401c16159167ffffffffffffffff8216801590816101d6575b60011490816101cc575b1590816101c3575b506101b25767ffffffffffffffff198216600117600080516020610359833981519152556101269183610185575b50610302565b61012c57005b68ff0000000000000000196000805160206103598339815191525416600080516020610359833981519152557fc7f505b2f371ae2175ee4913f4499e1f2633a7b5936321eed1cdaeb6115181d2602060405160018152a1005b68ffffffffffffffffff191668010000000000000001176000805160206103598339815191525583610120565b63f92ee8a960e01b60005260046000fd5b905015846100f2565b303b1591506100ea565b8491506100e0565b3461008a57600036600319011261008a57600080516020610379833981519152546040516001600160a01b039091168152602090f35b3461008a57600036600319011261008a57005b3461008a57600036600319011261008a57610240610291565b60008051602061037983398151915280546001600160a01b031981169091556000906001600160a01b03167f8be0079c531659141344cd1fd0a4f28419497f9722a3daafe3b4186f6b6457e08280a3005b600080516020610379833981519152546001600160a01b031633036102b257565b60405162461bcd60e51b815260206004820152602260248201527f4c69624469616d6f6e643a204d75737420626520636f6e7472616374206f776e60448201526132b960f11b6064820152608490fd5b60008051602061037983398151915280546001600160a01b039283166001600160a01b0319821681179092559091167f8be0079c531659141344cd1fd0a4f28419497f9722a3daafe3b4186f6b6457e0600080a356fef0c57e16840df040f15088dc2f81fe391c3923bec73e23a9662efc9c229c6a00c8fcad8db84d3cc18b4c41d551ea0ee66dd599cde068d998e57d5e09332c131fa26469706673582212208f27b3f470be517978be54bfc4678a1e3d0369fadeaa083868c0c3e0306a41ab64736f6c634300081c0033",
  "linkReferences": {},
  "deployedLinkReferences": {}
}