{
  "_format": "hh-sol-artifact-1",
  "contractName": "AuraAsset",
  "sourceName": "contracts/AuraAsset.sol",
  "abi": [
    {
      "inputs": [
        {
          "internalType": "address",
          "name": "",
          "type": "address"
        },
        {
          "internalType": "string",
          "name": "_uri",
          "type": "string"
        },
        {
          "internalType": "contract IAurumNodeManager",
          "name": "_NodeManager",
          "type": "address"
        }
      ],
      "stateMutability": "payable",
      "type": "constructor"
    },
    {
      "anonymous": false,
      "inputs": [
        {
          "indexed": true,
          "internalType": "address",
          "name": "account",
          "type": "address"
        },
        {
          "indexed": true,
          "internalType": "address",
          "name": "operator",
          "type": "address"
        },
        {
          "indexed": false,
          "internalType": "bool",
          "name": "approved",
          "type": "bool"
        }
      ],
      "name": "ApprovalForAll",
      "type": "event"
    },
    {
      "anonymous": false,
      "inputs": [
        {
          "indexed": true,
          "internalType": "bytes32",
          "name": "hash",
          "type": "bytes32"
        },
        {
          "indexed": true,
          "internalType": "uint256",
          "name": "attributeIndex",
          "type": "uint256"
        },
        {
          "indexed": false,
          "internalType": "string",
          "name": "name",
          "type": "string"
        },
        {
          "indexed": false,
          "internalType": "string[]",
          "name": "values",
          "type": "string[]"
        },
        {
          "indexed": false,
          "internalType": "string",
          "name": "description",
          "type": "string"
        }
      ],
      "name": "AssetAttributeAdded",
      "type": "event"
    },
    {
      "anonymous": false,
      "inputs": [
        {
          "indexed": true,
          "internalType": "address",
          "name": "account",
          "type": "address"
        },
        {
          "indexed": true,
          "internalType": "bytes32",
          "name": "hash",
          "type": "bytes32"
        },
        {
          "indexed": true,
          "internalType": "uint256",
          "name": "tokenId",
          "type": "uint256"
        },
        {
          "indexed": false,
          "internalType": "string",
          "name": "name",
          "type": "string"
        },
        {
          "indexed": false,
          "internalType": "string",
          "name": "assetClass",
          "type": "string"
        },
        {
          "indexed": false,
          "internalType": "string",
          "name": "className",
          "type": "string"
        }
      ],
      "name": "MintedAsset",
      "type": "event"
    },
    {
      "anonymous": false,
      "inputs": [
        {
          "indexed": true,
          "internalType": "address",
          "name": "previousOwner",
          "type": "address"
        },
        {
          "indexed": true,
          "internalType": "address",
          "name": "newOwner",
          "type": "address"
        }
      ],
      "name": "OwnershipTransferred",
      "type": "event"
    },
    {
      "anonymous": false,
      "inputs": [
        {
          "indexed": true,
          "internalType": "address",
          "name": "operator",
          "type": "address"
        },
        {
          "indexed": true,
          "internalType": "address",
          "name": "from",
          "type": "address"
        },
        {
          "indexed": true,
          "internalType": "address",
          "name": "to",
          "type": "address"
        },
        {
          "indexed": false,
          "internalType": "uint256[]",
          "name": "ids",
          "type": "uint256[]"
        },
        {
          "indexed": false,
          "internalType": "uint256[]",
          "name": "values",
          "type": "uint256[]"
        }
      ],
      "name": "TransferBatch",
      "type": "event"
    },
    {
      "anonymous": false,
      "inputs": [
        {
          "indexed": true,
          "internalType": "address",
          "name": "operator",
          "type": "address"
        },
        {
          "indexed": true,
          "internalType": "address",
          "name": "from",
          "type": "address"
        },
        {
          "indexed": true,
          "internalType": "address",
          "name": "to",
          "type": "address"
        },
        {
          "indexed": false,
          "internalType": "uint256",
          "name": "id",
          "type": "uint256"
        },
        {
          "indexed": false,
          "internalType": "uint256",
          "name": "value",
          "type": "uint256"
        }
      ],
      "name": "TransferSingle",
      "type": "event"
    },
    {
      "anonymous": false,
      "inputs": [
        {
          "indexed": false,
          "internalType": "string",
          "name": "value",
          "type": "string"
        },
        {
          "indexed": true,
          "internalType": "uint256",
          "name": "id",
          "type": "uint256"
        }
      ],
      "name": "URI",
      "type": "event"
    },
    {
      "inputs": [
        {
          "components": [
            {
              "internalType": "string",
              "name": "name",
              "type": "string"
            },
            {
              "internalType": "string",
              "name": "assetClass",
              "type": "string"
            },
            {
              "components": [
                {
                  "internalType": "string",
                  "name": "name",
                  "type": "string"
                },
                {
                  "internalType": "string[]",
                  "name": "values",
                  "type": "string[]"
                },
                {
                  "internalType": "string",
                  "name": "description",
                  "type": "string"
                }
              ],
              "internalType": "struct AuraAsset.Attribute[]",
              "name": "attributes",
              "type": "tuple[]"
            }
          ],
          "internalType": "struct AuraAsset.Asset",
          "name": "asset",
          "type": "tuple"
        }
      ],
      "name": "addSupportedAsset",
      "outputs": [],
      "stateMutability": "nonpayable",
      "type": "function"
    },
    {
      "inputs": [
        {
          "internalType": "string",
          "name": "className",
          "type": "string"
        }
      ],
      "name": "addSupportedClass",
      "outputs": [],
      "stateMutability": "nonpayable",
      "type": "function"
    },
    {
      "inputs": [
        {
          "internalType": "address",
          "name": "account",
          "type": "address"
        },
        {
          "internalType": "uint256",
          "name": "id",
          "type": "uint256"
        }
      ],
      "name": "balanceOf",
      "outputs": [
        {
          "internalType": "uint256",
          "name": "",
          "type": "uint256"
        }
      ],
      "stateMutability": "view",
      "type": "function"
    },
    {
      "inputs": [
        {
          "internalType": "address[]",
          "name": "accounts",
          "type": "address[]"
        },
        {
          "internalType": "uint256[]",
          "name": "ids",
          "type": "uint256[]"
        }
      ],
      "name": "balanceOfBatch",
      "outputs": [
        {
          "internalType": "uint256[]",
          "name": "",
          "type": "uint256[]"
        }
      ],
      "stateMutability": "view",
      "type": "function"
    },
    {
      "inputs": [
        {
          "internalType": "address",
          "name": "account",
          "type": "address"
        },
        {
          "internalType": "uint256",
          "name": "id",
          "type": "uint256"
        },
        {
          "internalType": "uint256",
          "name": "value",
          "type": "uint256"
        }
      ],
      "name": "burn",
      "outputs": [],
      "stateMutability": "nonpayable",
      "type": "function"
    },
    {
      "inputs": [
        {
          "internalType": "address",
          "name": "account",
          "type": "address"
        },
        {
          "internalType": "uint256[]",
          "name": "ids",
          "type": "uint256[]"
        },
        {
          "internalType": "uint256[]",
          "name": "values",
          "type": "uint256[]"
        }
      ],
      "name": "burnBatch",
      "outputs": [],
      "stateMutability": "nonpayable",
      "type": "function"
    },
    {
      "inputs": [
        {
          "internalType": "uint256",
          "name": "id",
          "type": "uint256"
        }
      ],
      "name": "exists",
      "outputs": [
        {
          "internalType": "bool",
          "name": "",
          "type": "bool"
        }
      ],
      "stateMutability": "view",
      "type": "function"
    },
    {
      "inputs": [
        {
          "internalType": "bytes32",
          "name": "",
          "type": "bytes32"
        }
      ],
      "name": "hashToClass",
      "outputs": [
        {
          "internalType": "string",
          "name": "",
          "type": "string"
        }
      ],
      "stateMutability": "view",
      "type": "function"
    },
    {
      "inputs": [
        {
          "internalType": "bytes32",
          "name": "",
          "type": "bytes32"
        }
      ],
      "name": "hashToTokenID",
      "outputs": [
        {
          "internalType": "uint256",
          "name": "",
          "type": "uint256"
        }
      ],
      "stateMutability": "view",
      "type": "function"
    },
    {
      "inputs": [
        {
          "internalType": "uint256",
          "name": "",
          "type": "uint256"
        }
      ],
      "name": "ipfsID",
      "outputs": [
        {
          "internalType": "bytes32",
          "name": "",
          "type": "bytes32"
        }
      ],
      "stateMutability": "view",
      "type": "function"
    },
    {
      "inputs": [
        {
          "internalType": "address",
          "name": "account",
          "type": "address"
        },
        {
          "internalType": "address",
          "name": "operator",
          "type": "address"
        }
      ],
      "name": "isApprovedForAll",
      "outputs": [
        {
          "internalType": "bool",
          "name": "",
          "type": "bool"
        }
      ],
      "stateMutability": "view",
      "type": "function"
    },
    {
      "inputs": [
        {
          "internalType": "bytes32",
          "name": "",
          "type": "bytes32"
        }
      ],
      "name": "isClassActive",
      "outputs": [
        {
          "internalType": "bool",
          "name": "",
          "type": "bool"
        }
      ],
      "stateMutability": "view",
      "type": "function"
    },
    {
      "inputs": [
        {
          "components": [
            {
              "internalType": "string",
              "name": "name",
              "type": "string"
            },
            {
              "internalType": "string",
              "name": "assetClass",
              "type": "string"
            },
            {
              "components": [
                {
                  "internalType": "string",
                  "name": "name",
                  "type": "string"
                },
                {
                  "internalType": "string[]",
                  "name": "values",
                  "type": "string[]"
                },
                {
                  "internalType": "string",
                  "name": "description",
                  "type": "string"
                }
              ],
              "internalType": "struct AuraAsset.Attribute[]",
              "name": "attributes",
              "type": "tuple[]"
            }
          ],
          "internalType": "struct AuraAsset.Asset",
          "name": "asset",
          "type": "tuple"
        }
      ],
      "name": "lookupHash",
      "outputs": [
        {
          "internalType": "uint256",
          "name": "",
          "type": "uint256"
        }
      ],
      "stateMutability": "pure",
      "type": "function"
    },
    {
      "inputs": [
        {
          "internalType": "address",
          "name": "to",
          "type": "address"
        },
        {
          "internalType": "uint256[]",
          "name": "ids",
          "type": "uint256[]"
        },
        {
          "internalType": "uint256[]",
          "name": "amounts",
          "type": "uint256[]"
        },
        {
          "internalType": "bytes",
          "name": "data",
          "type": "bytes"
        }
      ],
      "name": "mintBatch",
      "outputs": [],
      "stateMutability": "nonpayable",
      "type": "function"
    },
    {
      "inputs": [
        {
          "internalType": "string",
          "name": "",
          "type": "string"
        }
      ],
      "name": "nameToSupportedAssetIndex",
      "outputs": [
        {
          "internalType": "uint256",
          "name": "",
          "type": "uint256"
        }
      ],
      "stateMutability": "view",
      "type": "function"
    },
    {
      "inputs": [
        {
          "internalType": "string",
          "name": "",
          "type": "string"
        }
      ],
      "name": "nameToSupportedAssets",
      "outputs": [
        {
          "internalType": "string",
          "name": "name",
          "type": "string"
        },
        {
          "internalType": "string",
          "name": "assetClass",
          "type": "string"
        }
      ],
      "stateMutability": "view",
      "type": "function"
    },
    {
      "inputs": [
        {
          "internalType": "string",
          "name": "",
          "type": "string"
        }
      ],
      "name": "nameToSupportedClass",
      "outputs": [
        {
          "internalType": "string",
          "name": "",
          "type": "string"
        }
      ],
      "stateMutability": "view",
      "type": "function"
    },
    {
      "inputs": [
        {
          "internalType": "string",
          "name": "",
          "type": "string"
        }
      ],
      "name": "nameToSupportedClassIndex",
      "outputs": [
        {
          "internalType": "uint256",
          "name": "",
          "type": "uint256"
        }
      ],
      "stateMutability": "view",
      "type": "function"
    },
    {
      "inputs": [
        {
          "internalType": "address",
          "name": "account",
          "type": "address"
        },
        {
          "components": [
            {
              "internalType": "string",
              "name": "name",
              "type": "string"
            },
            {
              "internalType": "string",
              "name": "assetClass",
              "type": "string"
            },
            {
              "components": [
                {
                  "internalType": "string",
                  "name": "name",
                  "type": "string"
                },
                {
                  "internalType": "string[]",
                  "name": "values",
                  "type": "string[]"
                },
                {
                  "internalType": "string",
                  "name": "description",
                  "type": "string"
                }
              ],
              "internalType": "struct AuraAsset.Attribute[]",
              "name": "attributes",
              "type": "tuple[]"
            }
          ],
          "internalType": "struct AuraAsset.Asset",
          "name": "asset",
          "type": "tuple"
        },
        {
          "internalType": "uint256",
          "name": "amount",
          "type": "uint256"
        },
        {
          "internalType": "string",
          "name": "className",
          "type": "string"
        },
        {
          "internalType": "bytes",
          "name": "data",
          "type": "bytes"
        }
      ],
      "name": "nodeMint",
      "outputs": [
        {
          "internalType": "bytes32",
          "name": "hash",
          "type": "bytes32"
        },
        {
          "internalType": "uint256",
          "name": "tokenID",
          "type": "uint256"
        }
      ],
      "stateMutability": "nonpayable",
      "type": "function"
    },
    {
      "inputs": [],
      "name": "owner",
      "outputs": [
        {
          "internalType": "address",
          "name": "",
          "type": "address"
        }
      ],
      "stateMutability": "view",
      "type": "function"
    },
    {
      "inputs": [
        {
          "components": [
            {
              "internalType": "string",
              "name": "name",
              "type": "string"
            },
            {
              "internalType": "string",
              "name": "assetClass",
              "type": "string"
            },
            {
              "components": [
                {
                  "internalType": "string",
                  "name": "name",
                  "type": "string"
                },
                {
                  "internalType": "string[]",
                  "name": "values",
                  "type": "string[]"
                },
                {
                  "internalType": "string",
                  "name": "description",
                  "type": "string"
                }
              ],
              "internalType": "struct AuraAsset.Attribute[]",
              "name": "attributes",
              "type": "tuple[]"
            }
          ],
          "internalType": "struct AuraAsset.Asset",
          "name": "asset",
          "type": "tuple"
        }
      ],
      "name": "removeSupportedAsset",
      "outputs": [],
      "stateMutability": "nonpayable",
      "type": "function"
    },
    {
      "inputs": [
        {
          "internalType": "string",
          "name": "className",
          "type": "string"
        }
      ],
      "name": "removeSupportedClass",
      "outputs": [],
      "stateMutability": "nonpayable",
      "type": "function"
    },
    {
      "inputs": [],
      "name": "renounceOwnership",
      "outputs": [],
      "stateMutability": "nonpayable",
      "type": "function"
    },
    {
      "inputs": [
        {
          "internalType": "address",
          "name": "from",
          "type": "address"
        },
        {
          "internalType": "address",
          "name": "to",
          "type": "address"
        },
        {
          "internalType": "uint256[]",
          "name": "ids",
          "type": "uint256[]"
        },
        {
          "internalType": "uint256[]",
          "name": "amounts",
          "type": "uint256[]"
        },
        {
          "internalType": "bytes",
          "name": "data",
          "type": "bytes"
        }
      ],
      "name": "safeBatchTransferFrom",
      "outputs": [],
      "stateMutability": "nonpayable",
      "type": "function"
    },
    {
      "inputs": [
        {
          "internalType": "address",
          "name": "from",
          "type": "address"
        },
        {
          "internalType": "address",
          "name": "to",
          "type": "address"
        },
        {
          "internalType": "uint256",
          "name": "id",
          "type": "uint256"
        },
        {
          "internalType": "uint256",
          "name": "amount",
          "type": "uint256"
        },
        {
          "internalType": "bytes",
          "name": "data",
          "type": "bytes"
        }
      ],
      "name": "safeTransferFrom",
      "outputs": [],
      "stateMutability": "nonpayable",
      "type": "function"
    },
    {
      "inputs": [
        {
          "internalType": "address",
          "name": "operator",
          "type": "address"
        },
        {
          "internalType": "bool",
          "name": "approved",
          "type": "bool"
        }
      ],
      "name": "setApprovalForAll",
      "outputs": [],
      "stateMutability": "nonpayable",
      "type": "function"
    },
    {
      "inputs": [
        {
          "internalType": "string",
          "name": "newuri",
          "type": "string"
        }
      ],
      "name": "setURI",
      "outputs": [],
      "stateMutability": "nonpayable",
      "type": "function"
    },
    {
      "inputs": [
        {
          "internalType": "uint256",
          "name": "",
          "type": "uint256"
        }
      ],
      "name": "supportedAssets",
      "outputs": [
        {
          "internalType": "string",
          "name": "",
          "type": "string"
        }
      ],
      "stateMutability": "view",
      "type": "function"
    },
    {
      "inputs": [
        {
          "internalType": "uint256",
          "name": "",
          "type": "uint256"
        }
      ],
      "name": "supportedClasses",
      "outputs": [
        {
          "internalType": "string",
          "name": "",
          "type": "string"
        }
      ],
      "stateMutability": "view",
      "type": "function"
    },
    {
      "inputs": [
        {
          "internalType": "bytes4",
          "name": "interfaceId",
          "type": "bytes4"
        }
      ],
      "name": "supportsInterface",
      "outputs": [
        {
          "internalType": "bool",
          "name": "",
          "type": "bool"
        }
      ],
      "stateMutability": "view",
      "type": "function"
    },
    {
      "inputs": [
        {
          "internalType": "uint256",
          "name": "id",
          "type": "uint256"
        }
      ],
      "name": "totalSupply",
      "outputs": [
        {
          "internalType": "uint256",
          "name": "",
          "type": "uint256"
        }
      ],
      "stateMutability": "view",
      "type": "function"
    },
    {
      "inputs": [
        {
          "internalType": "address",
          "name": "newOwner",
          "type": "address"
        }
      ],
      "name": "transferOwnership",
      "outputs": [],
      "stateMutability": "nonpayable",
      "type": "function"
    },
    {
      "inputs": [
        {
          "internalType": "uint256",
          "name": "",
          "type": "uint256"
        }
      ],
      "name": "uri",
      "outputs": [
        {
          "internalType": "string",
          "name": "",
          "type": "string"
        }
      ],
      "stateMutability": "view",
      "type": "function"
    }
  ],
  "bytecode": "0x60806040526135e680380380610014816102e2565b9283398101906060818303126102c85780516001600160a01b038116036102c85760208101516001600160401b0381116102c857810182601f820112156102c8578051906001600160401b0382116101e857610079601f8301601f19166020016102e2565b93828552602083830101116102c85760005b8281106102cd57600083860160200152604084015185906001600160a01b038116908190036102c85781516001600160401b0381116101e8576100cf600254610307565b601f811161026e575b50602092601f821160011461020957928192936000926101fe575b50508160011b916000199060031b1c1916176002555b60038054336001600160a01b0319821681179092556001600160a01b03167f8be0079c531659141344cd1fd0a4f28419497f9722a3daafe3b4186f6b6457e0600080a3600580546001600160a01b031916919091179055600854680100000000000000008110156101e85760018101806008558110156101d2576000906008825260208220016101998154610307565b601f81116101b3575b505560405161328d90816103598239f35b818352602083206101cc91601f0160051c810190610341565b826101a2565b634e487b7160e01b600052603260045260246000fd5b634e487b7160e01b600052604160045260246000fd5b0151905083806100f3565b601f198216936002600052806000209160005b868110610256575083600195961061023d575b505050811b01600255610109565b015160001960f88460031b161c1916905583808061022f565b9192602060018192868501518155019401920161021c565b60026000526102b8907f405787fa12a823e0f2b7631cc41b3ba8828b3321ca811111fa75cd3aa3bb5ace601f840160051c810191602085106102be575b601f0160051c0190610341565b836100d8565b90915081906102ab565b600080fd5b8060208092840101518282880101520161008b565b6040519190601f01601f191682016001600160401b038111838210176101e857604052565b90600182811c92168015610337575b602083101461032157565b634e487b7160e01b600052602260045260246000fd5b91607f1691610316565b81811061034c575050565b6000815560010161034156fe6080604052600436101561001257600080fd5b60003560e01c8062fdd58e1461254e57806301ffc9a7146124e057806302fe5305146123885780630877db7f1461235b5780630e89341c1461228e5780631a82d0231461219d5780631f7fdffa14611f795780632eb2c2d614611c5457806346948cd614611c025780634e1273f414611a665780634f558e7914611a385780635938399114611a0c5780636b20c45414611796578063715018a61461173957806377ab5ecc146117085780637a5db0c4146116be5780637c9fd81014611675578063807c6d12146114345780638da5cb5b1461140b578063902c50d814611250578063a22cb4651461116c578063b2b0017a14611123578063bd85b039146110f7578063bf72dbe114610b43578063c68dbb3714610b10578063caa149b714610a81578063d27e1c3e14610a3d578063da5d26ac146109d7578063e6756ee4146108d5578063e985e9c51461087a578063f242432a14610466578063f2fde38b1461039e5763f5298aca1461018657600080fd5b346103995760603660031901126103995761019f61257d565b6001600160a01b03166044356024353383148015610376575b6101c190612be1565b8215926101ce84156130cb565b6101d78261322c565b906101e18461322c565b9260209560006040516101f489826125c4565b52610322575b60005b83518110156102a3576102108185612c44565b5161021b8287612c44565b519080600052600489526040600020549082821061024d5790600193929160005260048a5203604060002055016101fd565b60405162461bcd60e51b8152600481018b9052602860248201527f455243313135353a206275726e20616d6f756e74206578636565647320746f74604482015267616c537570706c7960c01b6064820152608490fd5b6000878185858a81845283855260408420838552855260408420546102ca82821015613123565b828552848652604085208486528652816040862091039055604051918252848201527fc3d58168c5ae7397731d063d5bbf3d657854427343f4c083240f7aacaa2d0f6260403392a461031f60405191826125c4565b52005b939060009392935b845181101561036b578061034060019286612c44565b5161034b8288612c44565b51600052600489526103636040600020918254612fe0565b90550161032a565b5090939291926101fa565b50600083815260016020908152604080832033845290915290205460ff166101b8565b600080fd5b34610399576020366003190112610399576103b761257d565b6103bf612ed5565b6001600160a01b0316801561041257600380546001600160a01b0319811683179091556001600160a01b03167f8be0079c531659141344cd1fd0a4f28419497f9722a3daafe3b4186f6b6457e0600080a3005b60405162461bcd60e51b815260206004820152602660248201527f4f776e61626c653a206e6577206f776e657220697320746865207a65726f206160448201526564647265737360d01b6064820152608490fd5b346103995760a03660031901126103995761047f61257d565b610487612593565b60443590606435906084356001600160401b038111610399576104ae9036906004016125e5565b936001600160a01b0316923384148015610857575b6104cc90612be1565b6001600160a01b0382169182156104e38115613012565b6104ec8361322c565b6104f58661322c565b9187156107fc575b61073d575b505081600052600060205260406000208560005260205260406000205461052b8582101561306c565b6000838152602081815260408083208984529091528082209287900390925584815220805461055b908690612fe0565b905582856040518481528660208201527fc3d58168c5ae7397731d063d5bbf3d657854427343f4c083240f7aacaa2d0f6260403392a43b61059857005b60006020946105da6040519788968795869463f23a6e6160e01b865233600487015260248601526044850152606484015260a0608484015260a48301906127af565b03925af16000918161070c575b5061069d576105f461319b565b6308c379a014610666575b60405162461bcd60e51b815260206004820152603460248201527f455243313135353a207472616e7366657220746f206e6f6e2d455243313135356044820152732932b1b2b4bb32b91034b6b83632b6b2b73a32b960611b606482015280608481015b0390fd5b61066e6131b9565b8061067957506105ff565b60405162461bcd60e51b8152602060048201529081906106629060248301906127af565b6001600160e01b031916630dc5919f60e01b016106b657005b60405162461bcd60e51b815260206004820152602860248201527f455243313135353a204552433131353552656365697665722072656a656374656044820152676420746f6b656e7360c01b6064820152608490fd5b61072f91925060203d602011610736575b61072781836125c4565b81019061317b565b90826105e7565b503d61071d565b949195926000979491975b86518110156107ec5761075b8188612c44565b5190610767818b612c44565b518260005260046020526040600020548181106107965760019360005260046020520360406000205501610748565b60405162461bcd60e51b815260206004820152602860248201527f455243313135353a206275726e20616d6f756e74206578636565647320746f74604482015267616c537570706c7960c01b6064820152608490fd5b5092959194509295508680610502565b969390979491959260005b8951811015610849578061081d6001928a612c44565b51610828828d612c44565b5160005260046020526108416040600020918254612fe0565b905501610807565b5092959194979093966104fd565b50600084815260016020908152604080832033845290915290205460ff166104c3565b346103995760403660031901126103995761089361257d565b61089b612593565b9060018060a01b0316600052600160205260406000209060018060a01b0316600052602052602060ff604060002054166040519015158152f35b34610399576020366003190112610399576004356001600160401b038111610399576109059036906004016128c8565b61090d612ed5565b61093661093061091d835161287c565b5461092b6008548210612b3a565b61266a565b90612bd2565b600261094282516128a2565b61094b81612b83565b61095760018201612b83565b018054906000815581610974575b6000610971845161287c565b55005b816003029160038304036109c1576000526020600020908101905b8181101561096557806109a3600392612b83565b6109af60018201612d53565b6109bb60028201612b83565b0161098f565b634e487b7160e01b600052601160045260246000fd5b34610399576020366003190112610399576004356001600160401b03811161039957610a0960209136906004016128c8565b604051610a3281610a24858201948686526040830190612d8d565b03601f1981018352826125c4565b519020604051908152f35b3461039957602036600319011261039957600435600052600c602052610a7d610a6960406000206126d7565b6040519182916020835260208301906127af565b0390f35b34610399576020366003190112610399576004356001600160401b03811161039957610acc6020610ab9610b029336906004016125e5565b816040519382858094519384920161278c565b81016006815203019020610a7d610aee6001610ae7846126d7565b93016126d7565b6040519384936040855260408501906127af565b9083820360208501526127af565b346103995760203660031901126103995760043560085481101561039957610a69610b3d610a7d9261266a565b9061277b565b346103995760a036600319011261039957610b5c61257d565b6024356001600160401b03811161039957610b7b9036906004016128c8565b6044356064356001600160401b03811161039957610b9d9036906004016125e5565b916084356001600160401b03811161039957610bbd9036906004016125e5565b60055460405163b65f817760e01b81526001600160a01b0387811660048301819052939693949260209183916024918391165afa9081156110eb576000916110a1575b506001600160f81b03199081160161039957604051602081019060208252610c2f81610a2460408201876127af565b519020600052600d60205260ff604060002054161561106b57604051602081019060208252610c6581610a246040820186612d8d565b519020926040516020810190828252604080820152610c8b81610a246060820187612d8d565b5190209283600052600c602052610ca6816040600020612c58565b83600052600e60205284604060002055610cbf84612e9c565b811596610ccc8815612f2d565b610cd58661322c565b96610cdf8161322c565b9960005b8951811015610d255780610cf96001928e612c44565b51610d04828d612c44565b516000526004602052610d1d6040600020918254612fe0565b905501610ce3565b508a898b610ffb575b5050918693918895938660005260006020526040600020856000526020526040600020610d5c838254612fe0565b90558460006040518981528460208201527fc3d58168c5ae7397731d063d5bbf3d657854427343f4c083240f7aacaa2d0f6260403392a43b610f33575b5050610e057fda6f2bc530afd0b181eb0ce39e70c9e83c1b63ecc85e0ad9468948ec8df9eaf79184600052600c602052610dd660406000206126d7565b90815115610f2b575b50610e21879998975191610e1360208c01516040519586956060875260608701906127af565b9085820360208701526127af565b9083820360408501526127af565b0390a4604060009301905b81518051851015610f1b5784610e4191612c44565b5151936020610e51828551612c44565b510151946040610e62838651612c44565b510151610e7a604051926060845260608401906127af565b8281036020840152875180825260208201906020808260051b8501019a019260005b828110610ef0575050505050927fee7669d5ae6caeede232f92dbff97d79fc15774e78d366962582f658cfb8c7c78280610ee48a6001988897879b9c9d0360408501526127af565b0390a301929190610e2c565b909192939a602080610f0e6001938f601f19888303018a52516127af565b9d01950193929101610e9c565b6040828582519182526020820152f35b905089610ddf565b610f799395506020929450604051938492839263f23a6e6160e01b8452336004850152600060248501528b6044850152606484015260a0608484015260a48301906127af565b03816000875af160009181610fda575b50610f96576105f461319b565b6001600160e01b031916630dc5919f60e01b016106b65784918491610e057fda6f2bc530afd0b181eb0ce39e70c9e83c1b63ecc85e0ad9468948ec8df9eaf7610d99565b610ff491925060203d6020116107365761072781836125c4565b9087610f89565b9693909895926000989592985b88518110156110565761101b818a612c44565b5190611027818d612c44565b518260005260046020526040600020548181106107965760019360005260046020520360406000205501611008565b50959850939692955090939092918188610d2e565b60405162461bcd60e51b815260206004820152600e60248201526d436c61737320696e61637469766560901b6044820152606490fd5b6020813d6020116110e3575b816110ba602093836125c4565b810103126110df5751906001600160f81b0319821682036110dc575087610c00565b80fd5b5080fd5b3d91506110ad565b6040513d6000823e3d90fd5b346103995760203660031901126103995760043560005260046020526020604060002054604051908152f35b34610399576020366003190112610399576004356001600160401b038111610399576111596020610ab9819336906004016125e5565b8101600a81520301902054604051908152f35b346103995760403660031901126103995761118561257d565b60243590811515809203610399576001600160a01b0316903382146111f957336000526001602052604060002082600052602052604060002060ff1981541660ff83161790556040519081527f17307eab39ab6107e8899845ad3d59bd9653f200f220920489ca2b5937696c3160203392a3005b60405162461bcd60e51b815260206004820152602960248201527f455243313135353a2073657474696e6720617070726f76616c20737461747573604482015268103337b91039b2b63360b91b6064820152608490fd5b34610399576020366003190112610399576004356001600160401b038111610399576112809036906004016125e5565b611288612ed5565b8051156113d3576040516112ba825191602081818601946112aa81838861278c565b810160098152030190205461269d565b61139e57816112f9602061130893600b54604051838187516112dd81838861278c565b8101600a8152030190205560405180938192865192839161278c565b81016009815203019020612c58565b600b54600160401b811015611388578060016113299201600b55600b612685565b611372578161133791612c58565b60405161135481610a2460208201946020865260408301906127af565b5190206000908152600d60205260409020805460ff19166001179055005b634e487b7160e01b600052600060045260246000fd5b634e487b7160e01b600052604160045260246000fd5b60405162461bcd60e51b815260206004820152600d60248201526c105b1c9958591e481859191959609a1b6044820152606490fd5b60405162461bcd60e51b815260206004820152601060248201526f456d70747920636c617373206e616d6560801b6044820152606490fd5b34610399576000366003190112610399576003546040516001600160a01b039091168152602090f35b34610399576020366003190112610399576004356001600160401b038111610399576114649036906004016128c8565b61146c612ed5565b600854611479825161287c565b5561148481516128a2565b90611490815183612c58565b600260208201926114a5845160018301612c58565b016040820151805190600160401b8211611388578254828455808310611613575b50602001916000526020600020916000905b82821061155457858561151960405160208101906020825261150181610a246040820187612d8d565b519020925183600052600c6020526040600020612c58565b5190600854600160401b8110156113885780600161153c92016008556008612685565b611372576115529261154d91612c58565b612e9c565b005b8051611561815186612c58565b60018501602082015190815191600160401b83116113885781548383558084106115e4575b50602001906000526020600020906000905b8382106115c7575050505060206001926115bb6040600394015160028901612c58565b019401910190926114d8565b60016020826115d883945187612c58565b01930191019091611598565b8260005283602060002091820191015b8181106116015750611586565b8061160d600192612b83565b016115f4565b806003029060038204036109c157826003026003810484036109c15784600052602060002091820191015b81811061164b57506114c6565b80611657600392612b83565b61166360018201612d53565b61166f60028201612b83565b0161163e565b34610399576020366003190112610399576004356001600160401b038111610399576116ab6020610ab9819336906004016125e5565b8101600781520301902054604051908152f35b34610399576020366003190112610399576004356001600160401b03811161039957610a696116f96020610ab9610a7d9436906004016125e5565b810160098152030190206126d7565b3461039957602036600319011261039957600435600052600d602052602060ff604060002054166040519015158152f35b3461039957600036600319011261039957611752612ed5565b600380546001600160a01b031981169091556000906001600160a01b03167f8be0079c531659141344cd1fd0a4f28419497f9722a3daafe3b4186f6b6457e08280a3005b34610399576060366003190112610399576117af61257d565b6024356001600160401b038111610399576117ce9036906004016127eb565b906044356001600160401b038111610399576117ee9036906004016127eb565b6001600160a01b039091169033821480156119e9575b61180d90612be1565b81159261181a84156130cb565b6118278151835114612f83565b602093600060405161183987826125c4565b5261199d575b60005b81518110156118e8576118558183612c44565b516118608285612c44565b519080600052600487526040600020549082821061189257906001939291600052600488520360406000205501611842565b60405162461bcd60e51b815260048101899052602860248201527f455243313135353a206275726e20616d6f756e74206578636565647320746f74604482015267616c537570706c7960c01b6064820152608490fd5b509160005b8351811015611954578061190360019286612c44565b5161190e8286612c44565b5181600052600088526040806000206000908782528a5220549161193482841015613123565b600052600088526040806000206000908782528a522091039055016118ed565b50600093927f4a39dc06d4c0dbc64b70af90fd698a233a518aa5d07e595d983b8c0526c8f7fb61198d8694604051918291339583612fed565b0390a461031f60405191826125c4565b9060005b82518110156119e257806119b760019284612c44565b516119c28286612c44565b51600052600487526119da6040600020918254612fe0565b9055016119a1565b509061183f565b50600082815260016020908152604080832033845290915290205460ff16611804565b3461039957602036600319011261039957600435600052600e6020526020604060002054604051908152f35b3461039957602036600319011261039957600435600052600460205260206040600020541515604051908152f35b34610399576040366003190112610399576004356001600160401b0381116103995736602382011215610399578060040135611aa1816127d4565b91611aaf60405193846125c4565b8183526024602084019260051b8201019036821161039957602401915b818310611be257836024356001600160401b03811161039957611af39036906004016127eb565b908051825103611b8b57805191611b09836127d4565b92611b1760405194856125c4565b808452611b26601f19916127d4565b0136602085013760005b8251811015611b7557600190611b646001600160a01b03611b518387612c44565b5116611b5d8386612c44565b5190612aad565b611b6e8287612c44565b5201611b30565b60405160208082528190610a7d90820187612848565b60405162461bcd60e51b815260206004820152602960248201527f455243313135353a206163636f756e747320616e6420696473206c656e677468604482015268040dad2e6dac2e8c6d60bb1b6064820152608490fd5b82356001600160a01b038116810361039957815260209283019201611acc565b3461039957602036600319011261039957600435600f5481101561039957600090600f54811015611c4057602082600f829452200154604051908152f35b634e487b7160e01b82526032600452602482fd5b346103995760a036600319011261039957611c6d61257d565b611c75612593565b6044356001600160401b03811161039957611c949036906004016127eb565b6064356001600160401b03811161039957611cb39036906004016127eb565b926084356001600160401b03811161039957611cd39036906004016125e5565b6001600160a01b03909116913383148015611f56575b611cf290612be1565b611cff8151865114612f83565b6001600160a01b038416918215611d168115613012565b8415611eff575b611e9e575b60005b8251811015611da75780611d3b60019285612c44565b51611d46828a612c44565b51908060005260006020526040806000206000908a82526020522054611d6e8382101561306c565b6000918252602082815260408084208b855290915280832091849003909155878252902080549091611d9f91612fe0565b905501611d25565b509382846040517f4a39dc06d4c0dbc64b70af90fd698a233a518aa5d07e595d983b8c0526c8f7fb339180611ddd8c8983612fed565b0390a43b611de757005b6000611e2693611e4a602096611e38604051998a988997889663bc197c8160e01b8852336004890152602488015260a0604488015260a4870190612848565b85810360031901606487015290612848565b838103600319016084850152906127af565b03925af160009181611e7d575b50611e64576105f461319b565b6001600160e01b0319166343e6837f60e01b016106b657005b611e9791925060203d6020116107365761072781836125c4565b9082611e57565b939160009391935b8451811015611ef457611eb98186612c44565b5190611ec58189612c44565b518260005260046020526040600020548181106107965760019360005260046020520360406000205501611ea6565b509193929092611d22565b94929060009492945b8551811015611f4a5780611f1e6001928a612c44565b51611f298289612c44565b516000526004602052611f426040600020918254612fe0565b905501611f08565b50909294939193611d1d565b50600083815260016020908152604080832033845290915290205460ff16611ce9565b3461039957608036600319011261039957611f9261257d565b6024356001600160401b03811161039957611fb19036906004016127eb565b906044356001600160401b03811161039957611fd19036906004016127eb565b916064356001600160401b03811161039957611ff19036906004016125e5565b91611ffa612ed5565b6001600160a01b038116801593906120128515612f2d565b61201f8451875114612f83565b60005b8451811015612064578061203860019289612c44565b516120438288612c44565b51600052600460205261205c6040600020918254612fe0565b905501612022565b5091949093612140575b60005b83518110156120be578061208760019284612c44565b516120928287612c44565b5160005260006020526120b660408060002060009088825260205220918254612fe0565b905501612071565b5091938160006040517f4a39dc06d4c0dbc64b70af90fd698a233a518aa5d07e595d983b8c0526c8f7fb3391806120f6898c83612fed565b0390a43b61210057005b611e266000611e3895611e4a6020966040519889978896879563bc197c8160e01b875233600488015287602488015260a0604488015260a4870190612848565b93909260005b8351811015612194576121598185612c44565b51906121658188612c44565b518260005260046020526040600020548181106107965760019360005260046020520360406000205501612146565b5092909361206e565b34610399576020366003190112610399576004356001600160401b038111610399576121cd9036906004016125e5565b6121d5612ed5565b600061224b60206040516122166109308651928481818a01956121f981838961278c565b8101600a81520301902054612211600b548210612b3a565b612639565b61223a6040518381885161222b81838861278c565b81016009815203019020612b83565b60405180938192875192839161278c565b8101600a8152030190205560405161227381610a2460208201946020865260408301906127af565b5190206000908152600d60205260409020805460ff19169055005b346103995760203660031901126103995760405160006002546122b08161269d565b808452906001811690811561233757506001146122d8575b610a7d83610a69818503826125c4565b600260009081527f405787fa12a823e0f2b7631cc41b3ba8828b3321ca811111fa75cd3aa3bb5ace939250905b80821061231d57509091508101602001610a696122c8565b919260018160209254838588010152019101909291612305565b60ff191660208086019190915291151560051b84019091019150610a6990506122c8565b3461039957602036600319011261039957600435600b5481101561039957610a69610b3d610a7d92612639565b34610399576020366003190112610399576004356001600160401b038111610399576123b89036906004016125e5565b6123c0612ed5565b80516001600160401b038111611388576123db60025461269d565b601f8111612486575b50602091601f821160011461242557612415926000918361241a575b50508160011b916000199060031b1c19161790565b600255005b015190508380612400565b601f198216926002600052806000209160005b85811061246e57508360019510612455575b505050811b01600255005b015160001960f88460031b161c1916905582808061244a565b91926020600181928685015181550194019201612438565b60026000526124d0907f405787fa12a823e0f2b7631cc41b3ba8828b3321ca811111fa75cd3aa3bb5ace601f840160051c810191602085106124d6575b601f0160051c0190612b6c565b826123e4565b90915081906124c3565b346103995760203660031901126103995760043563ffffffff60e01b811680910361039957602090636cdb3d1360e11b811490811561253d575b811561252c575b506040519015158152f35b6301ffc9a760e01b14905082612521565b6303a24d0760e21b8114915061251a565b3461039957604036600319011261039957602061257561256c61257d565b60243590612aad565b604051908152f35b600435906001600160a01b038216820361039957565b602435906001600160a01b038216820361039957565b606081019081106001600160401b0382111761138857604052565b90601f801991011681019081106001600160401b0382111761138857604052565b81601f82011215610399576020813591016001600160401b038211611388576040519261261c601f8401601f1916602001856125c4565b828452828201116103995781600092602092838601378301015290565b600b5481101561265457600b60005260206000200190600090565b634e487b7160e01b600052603260045260246000fd5b60085481101561265457600860005260206000200190600090565b80548210156126545760005260206000200190600090565b90600182811c921680156126cd575b60208310146126b757565b634e487b7160e01b600052602260045260246000fd5b91607f16916126ac565b90604051918260008254926126eb8461269d565b80845293600181169081156127595750600114612712575b50612710925003836125c4565b565b90506000929192526020600020906000915b81831061273d5750509060206127109282010138612703565b6020919350806001915483858901015201910190918492612724565b90506020925061271094915060ff191682840152151560051b82010138612703565b9061137257612789906126d7565b90565b60005b83811061279f5750506000910152565b818101518382015260200161278f565b906020916127c88151809281855285808601910161278c565b601f01601f1916010190565b6001600160401b0381116113885760051b60200190565b9080601f83011215610399578135612802816127d4565b9261281060405194856125c4565b81845260208085019260051b82010192831161039957602001905b8282106128385750505090565b813581526020918201910161282b565b906020808351928381520192019060005b8181106128665750505090565b8251845260209384019390920191600101612859565b602061289591816040519382858094519384920161278c565b8101600781520301902090565b60206128bb91816040519382858094519384920161278c565b8101600681520301902090565b9190606083820312610399576040516128e0816125a9565b809380356001600160401b03811161039957836128fe9183016125e5565b825260208101356001600160401b038111610399578361291f9183016125e5565b60208301526040810135906001600160401b03821161039957019180601f8401121561039957823592612951846127d4565b9361295f60405195866125c4565b80855260208086019160051b830101918383116103995760208101915b83831061298e57505050505060400152565b82356001600160401b038111610399578201906060828703601f19011261039957604051906129bc826125a9565b60208301356001600160401b038111610399578760206129de928601016125e5565b825260408301356001600160401b0381116103995760209084010187601f82011215610399578035612a0f816127d4565b91612a1d60405193846125c4565b81835260208084019260051b820101918a83116103995760208201905b838210612a80575050505060208301526060830135916001600160401b03831161039957612a70886020809695819601016125e5565b604082015281520192019161297c565b81356001600160401b03811161039957602091612aa28e8480948801016125e5565b815201910190612a3a565b906001600160a01b03821615612ae257600052600060205260406000209060018060a01b031660005260205260406000205490565b60405162461bcd60e51b815260206004820152602a60248201527f455243313135353a2061646472657373207a65726f206973206e6f742061207660448201526930b634b21037bbb732b960b11b6064820152608490fd5b15612b4157565b60405162461bcd60e51b815260206004820152600360248201526227a7a160e91b6044820152606490fd5b818110612b77575050565b60008155600101612b6c565b612b8d815461269d565b9081612b97575050565b81601f60009311600114612ba9575055565b81835260208320612bc591601f0160051c810190600101612b6c565b8082528160208120915555565b9061137257612b8d815461269d565b15612be857565b60405162461bcd60e51b815260206004820152602e60248201527f455243313135353a2063616c6c6572206973206e6f7420746f6b656e206f776e60448201526d195c881bdc88185c1c1c9bdd995960921b6064820152608490fd5b80518210156126545760209160051b010190565b91909182516001600160401b03811161138857612c75825461269d565b601f8111612d21575b506020601f8211600114612cbf578190612cb0939495600092612cb45750508160011b916000199060031b1c19161790565b9055565b015190503880612400565b601f1982169083600052806000209160005b818110612d0957509583600195969710612cf0575b505050811b019055565b015160001960f88460031b161c19169055388080612ce6565b9192602060018192868b015181550194019201612cd1565b612d4d90836000526020600020601f840160051c810191602085106124d657601f0160051c0190612b6c565b38612c7e565b8054906000815581612d63575050565b6000526020600020908101905b818110612d7b575050565b80612d87600192612b83565b01612d70565b6040612db7612da583516060865260608601906127af565b602084015185820360208701526127af565b910151916040818303910152815180825260208201916020808360051b8301019401926000915b838310612ded57505050505090565b9091929394601f19828203018352855190612e1182516060835260608301906127af565b9160208101519282810360208401528351808252602082016020808360051b85010196019260005b838110612e71575050505050612e626001936020936040859401519060408184039101526127af565b97019301930191939290612dde565b9091929396602080612e8f600193601f198782030188528b516127af565b9901959401929101612e39565b600f54600160401b81101561138857806001612ebd9201600f55600f612685565b819291549060031b91821b91600019901b1916179055565b6003546001600160a01b03163303612ee957565b606460405162461bcd60e51b815260206004820152602060248201527f4f776e61626c653a2063616c6c6572206973206e6f7420746865206f776e65726044820152fd5b15612f3457565b60405162461bcd60e51b815260206004820152602160248201527f455243313135353a206d696e7420746f20746865207a65726f206164647265736044820152607360f81b6064820152608490fd5b15612f8a57565b60405162461bcd60e51b815260206004820152602860248201527f455243313135353a2069647320616e6420616d6f756e7473206c656e677468206044820152670dad2e6dac2e8c6d60c31b6064820152608490fd5b919082018092116109c157565b909161300461278993604084526040840190612848565b916020818403910152612848565b1561301957565b60405162461bcd60e51b815260206004820152602560248201527f455243313135353a207472616e7366657220746f20746865207a65726f206164604482015264647265737360d81b6064820152608490fd5b1561307357565b60405162461bcd60e51b815260206004820152602a60248201527f455243313135353a20696e73756666696369656e742062616c616e636520666f60448201526939103a3930b739b332b960b11b6064820152608490fd5b156130d257565b60405162461bcd60e51b815260206004820152602360248201527f455243313135353a206275726e2066726f6d20746865207a65726f206164647260448201526265737360e81b6064820152608490fd5b1561312a57565b60405162461bcd60e51b8152602060048201526024808201527f455243313135353a206275726e20616d6f756e7420657863656564732062616c604482015263616e636560e01b6064820152608490fd5b9081602091031261039957516001600160e01b0319811681036103995790565b60009060033d116131a857565b905060046000803e60005160e01c90565b600060443d10612789576040513d600319016004823e8051913d60248401116001600160401b0384111761322657828201928351916001600160401b03831161321e573d8401600319018584016020011161321e5750612789929101602001906125c4565b949350505050565b92915050565b60409081519161323c81846125c4565b600183526020830190601f190136823782511561265457529056fea264697066735822122040a0070025603c8fe35a025e3d273afd924bfad44bc14338de855549a77c455864736f6c634300081c0033",
  "linkReferences": {},
  "deployedLinkReferences": {}
}