{
  "_format": "hh-sol-artifact-1",
  "contractName": "OrdersFacet",
  "sourceName": "contracts/diamond/facets/OrdersFacet.sol",
  "abi": [
    {
      "anonymous": false,
      "inputs": [
        {
          "indexed": false,
          "internalType": "uint8",
          "name": "version",
          "type": "uint8"
        }
      ],
      "name": "Initialized",
      "type": "event"
    },
    {
      "anonymous": false,
      "inputs": [
        {
          "indexed": true,
          "internalType": "bytes32",
          "name": "orderHash",
          "type": "bytes32"
        },
        {
          "indexed": true,
          "internalType": "address",
          "name": "buyer",
          "type": "address"
        }
      ],
      "name": "OrderCancelled",
      "type": "event"
    },
    {
      "anonymous": false,
      "inputs": [
        {
          "indexed": true,
          "internalType": "bytes32",
          "name": "orderHash",
          "type": "bytes32"
        },
        {
          "indexed": true,
          "internalType": "address",
          "name": "buyer",
          "type": "address"
        },
        {
          "indexed": true,
          "internalType": "address",
          "name": "seller",
          "type": "address"
        },
        {
          "indexed": false,
          "internalType": "uint256",
          "name": "price",
          "type": "uint256"
        },
        {
          "indexed": false,
          "internalType": "uint256",
          "name": "amount",
          "type": "uint256"
        }
      ],
      "name": "OrderCreated",
      "type": "event"
    },
    {
      "anonymous": false,
      "inputs": [
        {
          "indexed": true,
          "internalType": "bytes32",
          "name": "orderHash",
          "type": "bytes32"
        },
        {
          "indexed": false,
          "internalType": "string",
          "name": "status",
          "type": "string"
        }
      ],
      "name": "OrderUpdated",
      "type": "event"
    },
    {
      "inputs": [
        {
          "internalType": "bytes32",
          "name": "_orderHash",
          "type": "bytes32"
        }
      ],
      "name": "cancelOrder",
      "outputs": [],
      "stateMutability": "nonpayable",
      "type": "function"
    },
    {
      "inputs": [
        {
          "internalType": "address",
          "name": "_buyer",
          "type": "address"
        },
        {
          "internalType": "address",
          "name": "_seller",
          "type": "address"
        },
        {
          "internalType": "uint256",
          "name": "_price",
          "type": "uint256"
        },
        {
          "internalType": "uint256",
          "name": "_amount",
          "type": "uint256"
        },
        {
          "internalType": "string",
          "name": "_status",
          "type": "string"
        }
      ],
      "name": "createOrder",
      "outputs": [
        {
          "internalType": "bytes32",
          "name": "orderHash",
          "type": "bytes32"
        }
      ],
      "stateMutability": "nonpayable",
      "type": "function"
    },
    {
      "inputs": [
        {
          "internalType": "address",
          "name": "_buyer",
          "type": "address"
        }
      ],
      "name": "getBuyerOrders",
      "outputs": [
        {
          "internalType": "bytes32[]",
          "name": "",
          "type": "bytes32[]"
        }
      ],
      "stateMutability": "view",
      "type": "function"
    },
    {
      "inputs": [
        {
          "internalType": "bytes32",
          "name": "_orderHash",
          "type": "bytes32"
        }
      ],
      "name": "getOrder",
      "outputs": [
        {
          "internalType": "address",
          "name": "buyer",
          "type": "address"
        },
        {
          "internalType": "address",
          "name": "seller",
          "type": "address"
        },
        {
          "internalType": "uint256",
          "name": "price",
          "type": "uint256"
        },
        {
          "internalType": "uint256",
          "name": "amount",
          "type": "uint256"
        },
        {
          "internalType": "string",
          "name": "status",
          "type": "string"
        },
        {
          "internalType": "uint256",
          "name": "createdAt",
          "type": "uint256"
        }
      ],
      "stateMutability": "view",
      "type": "function"
    },
    {
      "inputs": [
        {
          "internalType": "address",
          "name": "_seller",
          "type": "address"
        }
      ],
      "name": "getSellerOrders",
      "outputs": [
        {
          "internalType": "bytes32[]",
          "name": "",
          "type": "bytes32[]"
        }
      ],
      "stateMutability": "view",
      "type": "function"
    },
    {
      "inputs": [],
      "name": "getTotalOrders",
      "outputs": [
        {
          "internalType": "uint256",
          "name": "",
          "type": "uint256"
        }
      ],
      "stateMutability": "view",
      "type": "function"
    },
    {
      "inputs": [],
      "name": "initialize",
      "outputs": [],
      "stateMutability": "nonpayable",
      "type": "function"
    },
    {
      "inputs": [
        {
          "internalType": "bytes32",
          "name": "_orderHash",
          "type": "bytes32"
        },
        {
          "internalType": "string",
          "name": "_status",
          "type": "string"
        }
      ],
      "name": "updateOrderStatus",
      "outputs": [],
      "stateMutability": "nonpayable",
      "type": "function"
    }
  ],
  "bytecode": "0x60808060405234601557610d95908161001b8239f35b600080fdfe6080604052600436101561001257600080fd5b60003560e01c806302bd34211461074457806315914b3f14610513578063375f16a7146104e85780635778472a146103b85780637489ec23146101915780638129fc1c14610079578063a45f2ebc146100745763e4cbac401461007457600080fd5b610bb0565b3461018c57600036600319011261018c5760005460ff8160081c16159081809261017f575b8015610168575b1561010c5760ff198116600117600055816100fa575b506100c257005b61ff0019600054166000557f7f26b83ff96e1f2b6a682f133852f6798a09c465da95921460cefb3847402498602060405160018152a1005b61ffff191661010117600055816100bb565b60405162461bcd60e51b815260206004820152602e60248201527f496e697469616c697a61626c653a20636f6e747261637420697320616c72656160448201526d191e481a5b9a5d1a585b1a5e995960921b6064820152608490fd5b50303b1580156100a55750600160ff8216146100a5565b50600160ff82161061009e565b600080fd5b3461018c57602036600319011261018c576004356000818152600080516020610d2083398151915260205260409020546001600160a01b031633036103875780600052600080516020610d208339815191526020526005604060002001604051602081019181600082549261020584610c87565b93600181169081156103695750600114610327575b5061022e925003601f198101835282610af6565b51902060405160208101906810d05390d15313115160ba1b825260098152610257602982610af6565b519020146102ee5780600052600080516020610d2083398151915260205260056040600020016102878154610c87565b601f81116102cc575b5060126810d05390d15313115160ba1b01905533907fa6eb7cdc219e1518ced964e9a34e61d68a94e4f1569db3e84256ba981ba52753600080a3005b6102e89082600052601f6020600020910160051c810190610cc1565b82610290565b60405162461bcd60e51b8152602060048201526011602482015270105b1c9958591e4818d85b98d95b1b1959607a1b6044820152606490fd5b9150506000528160206000206000905b83821061034f575050602061022e928201018661021a565b602091925080600191548385880101520191018391610337565b60ff191687525061022e93801515028301602001915087905061021a565b60405162461bcd60e51b81526020600482015260096024820152682737ba10313abcb2b960b91b6044820152606490fd5b3461018c57602036600319011261018c57600435600052600080516020610d20833981519152602052604060002060018060a01b0381541660018060a01b03600183015416906003830154600484015490600660058601950154916040519160009680549061042682610c87565b80865291600181169081156104c15750600114610484575b50506104528361047a959697980384610af6565b604051968796875260208701526040860152606085015260c0608085015260c0840190610b6f565b9060a08301520390f35b90975060005260206000206000905b8882106104ab5750830160200196506104528361043e565b6001816020925483858901015201910190610493565b60ff191660208088019190915292151560051b86019092019850610452915084905061043e565b3461018c57600036600319011261018c576020600080516020610d4083398151915254604051908152f35b3461018c57604036600319011261018c5760043560243567ffffffffffffffff811161018c57610547903690600401610b18565b9080600052600080516020610d2083398151915260205260018060a01b036040600020541633148015610714575b156106d75780600052600080516020610d2083398151915260205260056040600020019180519267ffffffffffffffff84116106c1576105bf846105b98354610c87565b83610cd8565b602093601f811160011461063757908161062793927f586e2c2be888668a92ad0159202149dc50968b69ce27aed430607ac126a2ac41959660009161062c575b508160011b916000199060031b1c19161790555b604051918291602083526020830190610b6f565b0390a2005b9050830151876105ff565b601f19811682600052856000209060005b8181106106a95750916001917f586e2c2be888668a92ad0159202149dc50968b69ce27aed430607ac126a2ac4196978261062797969510610690575b5050811b019055610613565b85015160001960f88460031b161c191690558780610684565b85880151835560209788019760019093019201610648565b634e487b7160e01b600052604160045260246000fd5b60405162461bcd60e51b8152602060048201526015602482015274139bdd081bdc99195c881c185c9d1a58da5c185b9d605a1b6044820152606490fd5b506000818152600080516020610d2083398151915260205260409020600101546001600160a01b03163314610575565b3461018c5760a036600319011261018c5761075d610ae0565b6024356001600160a01b03811680820361018c576064359260443560843567ffffffffffffffff811161018c57610798903690600401610b18565b93600080516020610d408339815191525460405190602082019260018060a01b038616956bffffffffffffffffffffffff199060601b1684526bffffffffffffffffffffffff199060601b16603483015283604883015287606883015242608883015260a882015260a8815261080f60c882610af6565b519020936040519060e0820182811067ffffffffffffffff8211176106c1576040908152848352602080840187815284830189815260608601878152608087018c815260a088019687524260c0890190815260008d8152600080516020610d2083398151915290965295909420965187546001600160a01b03199081166001600160a01b03928316178955935160018901805490951691161790925551600286015551600385015551600484015590518051600584019167ffffffffffffffff82116106c1576108e9826108e38554610c87565b85610cd8565b602090601f8311600114610a755760069493929160009183610a6a575b50508160011b916000199060031b1c19161790555b519101557f31c1f8402397e5b1e3d75f3da7207ce6f54556b27afe723742768c4e4be50cef54680100000000000000008110156106c15760018101807f31c1f8402397e5b1e3d75f3da7207ce6f54556b27afe723742768c4e4be50cef55811015610a54577f31c1f8402397e5b1e3d75f3da7207ce6f54556b27afe723742768c4e4be50cef6000527fed7e51fdca69d9156e8cc50b5040da8170938efb50d79157025bff8061aa66550180546001600160a01b03191683179055600080516020610d4083398151915254946000198614610a3e57604085927f9a81642995eb82c61150ace07ccae644c97b69fa389b64bff4fc2814f7b77bc092600160209901600080516020610d4083398151915255825191825288820152a4604051908152f35b634e487b7160e01b600052601160045260246000fd5b634e487b7160e01b600052603260045260246000fd5b015190508b80610906565b90601f1983169184600052816000209260005b818110610ac8575091600193918560069897969410610aaf575b505050811b01905561091b565b015160001960f88460031b161c191690558b8080610aa2565b92936020600181928786015181550195019301610a88565b600435906001600160a01b038216820361018c57565b90601f8019910116810190811067ffffffffffffffff8211176106c157604052565b81601f8201121561018c5780359067ffffffffffffffff82116106c15760405192610b4d601f8401601f191660200185610af6565b8284526020838301011161018c57816000926020809301838601378301015290565b919082519283825260005b848110610b9b575050826000602080949584010152601f8019910116010190565b80602080928401015182828601015201610b7a565b3461018c57602036600319011261018c57610bc9610ae0565b60009060018060a01b031681527f31c1f8402397e5b1e3d75f3da7207ce6f54556b27afe723742768c4e4be50ce360205260408120906040518091602084549283815201918294825260208220915b818110610c715750505081610c2e910382610af6565b6040519182916020830190602084525180915260408301919060005b818110610c58575050500390f35b8251845285945060209384019390920191600101610c4a565b8254845260209093019260019283019201610c18565b90600182811c92168015610cb7575b6020831014610ca157565b634e487b7160e01b600052602260045260246000fd5b91607f1691610c96565b818110610ccc575050565b60008155600101610cc1565b9190601f8111610ce757505050565b610d13926000526020600020906020601f840160051c83019310610d15575b601f0160051c0190610cc1565b565b9091508190610d0656fe31c1f8402397e5b1e3d75f3da7207ce6f54556b27afe723742768c4e4be50cee31c1f8402397e5b1e3d75f3da7207ce6f54556b27afe723742768c4e4be50cf0a26469706673582212207079f622eae21e5bb2735461464a748b4a3dd2f2612b0433581849d3418d7c7d64736f6c634300081c0033",
  "linkReferences": {},
  "deployedLinkReferences": {}
}