{
  "_format": "hh-sol-artifact-1",
  "contractName": "OrdersFacet",
  "sourceName": "contracts/diamond/facets/OrdersFacet.sol",
  "abi": [
    {
      "inputs": [],
      "name": "InvalidInitialization",
      "type": "error"
    },
    {
      "inputs": [],
      "name": "NotInitializing",
      "type": "error"
    },
    {
      "anonymous": false,
      "inputs": [
        {
          "indexed": false,
          "internalType": "uint64",
          "name": "version",
          "type": "uint64"
        }
      ],
      "name": "Initialized",
      "type": "event"
    },
    {
      "anonymous": false,
      "inputs": [
        {
          "indexed": true,
          "internalType": "bytes32",
          "name": "orderHash",
          "type": "bytes32"
        },
        {
          "indexed": true,
          "internalType": "address",
          "name": "buyer",
          "type": "address"
        }
      ],
      "name": "OrderCancelled",
      "type": "event"
    },
    {
      "anonymous": false,
      "inputs": [
        {
          "indexed": true,
          "internalType": "bytes32",
          "name": "orderHash",
          "type": "bytes32"
        },
        {
          "indexed": true,
          "internalType": "address",
          "name": "buyer",
          "type": "address"
        },
        {
          "indexed": true,
          "internalType": "address",
          "name": "seller",
          "type": "address"
        },
        {
          "indexed": false,
          "internalType": "uint256",
          "name": "price",
          "type": "uint256"
        },
        {
          "indexed": false,
          "internalType": "uint256",
          "name": "amount",
          "type": "uint256"
        }
      ],
      "name": "OrderCreated",
      "type": "event"
    },
    {
      "anonymous": false,
      "inputs": [
        {
          "indexed": true,
          "internalType": "bytes32",
          "name": "orderHash",
          "type": "bytes32"
        },
        {
          "indexed": false,
          "internalType": "string",
          "name": "status",
          "type": "string"
        }
      ],
      "name": "OrderUpdated",
      "type": "event"
    },
    {
      "inputs": [
        {
          "internalType": "bytes32",
          "name": "_orderHash",
          "type": "bytes32"
        }
      ],
      "name": "cancelOrder",
      "outputs": [],
      "stateMutability": "nonpayable",
      "type": "function"
    },
    {
      "inputs": [
        {
          "internalType": "address",
          "name": "_buyer",
          "type": "address"
        },
        {
          "internalType": "address",
          "name": "_seller",
          "type": "address"
        },
        {
          "internalType": "uint256",
          "name": "_price",
          "type": "uint256"
        },
        {
          "internalType": "uint256",
          "name": "_amount",
          "type": "uint256"
        },
        {
          "internalType": "string",
          "name": "_status",
          "type": "string"
        }
      ],
      "name": "createOrder",
      "outputs": [
        {
          "internalType": "bytes32",
          "name": "orderHash",
          "type": "bytes32"
        }
      ],
      "stateMutability": "nonpayable",
      "type": "function"
    },
    {
      "inputs": [
        {
          "internalType": "address",
          "name": "_buyer",
          "type": "address"
        }
      ],
      "name": "getBuyerOrders",
      "outputs": [
        {
          "internalType": "bytes32[]",
          "name": "",
          "type": "bytes32[]"
        }
      ],
      "stateMutability": "view",
      "type": "function"
    },
    {
      "inputs": [
        {
          "internalType": "bytes32",
          "name": "_orderHash",
          "type": "bytes32"
        }
      ],
      "name": "getOrder",
      "outputs": [
        {
          "internalType": "address",
          "name": "buyer",
          "type": "address"
        },
        {
          "internalType": "address",
          "name": "seller",
          "type": "address"
        },
        {
          "internalType": "uint256",
          "name": "price",
          "type": "uint256"
        },
        {
          "internalType": "uint256",
          "name": "amount",
          "type": "uint256"
        },
        {
          "internalType": "string",
          "name": "status",
          "type": "string"
        },
        {
          "internalType": "uint256",
          "name": "createdAt",
          "type": "uint256"
        }
      ],
      "stateMutability": "view",
      "type": "function"
    },
    {
      "inputs": [
        {
          "internalType": "address",
          "name": "_seller",
          "type": "address"
        }
      ],
      "name": "getSellerOrders",
      "outputs": [
        {
          "internalType": "bytes32[]",
          "name": "",
          "type": "bytes32[]"
        }
      ],
      "stateMutability": "view",
      "type": "function"
    },
    {
      "inputs": [],
      "name": "getTotalOrders",
      "outputs": [
        {
          "internalType": "uint256",
          "name": "",
          "type": "uint256"
        }
      ],
      "stateMutability": "view",
      "type": "function"
    },
    {
      "inputs": [],
      "name": "initialize",
      "outputs": [],
      "stateMutability": "nonpayable",
      "type": "function"
    },
    {
      "inputs": [
        {
          "internalType": "bytes32",
          "name": "_orderHash",
          "type": "bytes32"
        },
        {
          "internalType": "string",
          "name": "_status",
          "type": "string"
        }
      ],
      "name": "updateOrderStatus",
      "outputs": [],
      "stateMutability": "nonpayable",
      "type": "function"
    }
  ],
  "bytecode": "0x60808060405234601557610dd5908161001b8239f35b600080fdfe6080604052600436101561001257600080fd5b60003560e01c806302bd34211461076457806315914b3f14610533578063375f16a7146105085780635778472a146103d85780637489ec23146101b15780638129fc1c14610079578063a45f2ebc146100745763e4cbac401461007457600080fd5b610bd0565b346101ac5760003660031901126101ac57600080516020610d608339815191525460ff8160401c16159067ffffffffffffffff8116801590816101a4575b600114908161019a575b159081610191575b506101805767ffffffffffffffff198116600117600080516020610d608339815191525581610153575b506100fa57005b68ff000000000000000019600080516020610d608339815191525416600080516020610d60833981519152557fc7f505b2f371ae2175ee4913f4499e1f2633a7b5936321eed1cdaeb6115181d2602060405160018152a1005b68ffffffffffffffffff19166801000000000000000117600080516020610d6083398151915255816100f3565b63f92ee8a960e01b60005260046000fd5b905015836100c9565b303b1591506100c1565b8391506100b7565b600080fd5b346101ac5760203660031901126101ac576004356000818152600080516020610d4083398151915260205260409020546001600160a01b031633036103a75780600052600080516020610d408339815191526020526005604060002001604051602081019181600082549261022584610ca7565b93600181169081156103895750600114610347575b5061024e925003601f198101835282610b16565b51902060405160208101906810d05390d15313115160ba1b825260098152610277602982610b16565b5190201461030e5780600052600080516020610d4083398151915260205260056040600020016102a78154610ca7565b601f81116102ec575b5060126810d05390d15313115160ba1b01905533907fa6eb7cdc219e1518ced964e9a34e61d68a94e4f1569db3e84256ba981ba52753600080a3005b6103089082600052601f6020600020910160051c810190610ce1565b826102b0565b60405162461bcd60e51b8152602060048201526011602482015270105b1c9958591e4818d85b98d95b1b1959607a1b6044820152606490fd5b9150506000528160206000206000905b83821061036f575050602061024e928201018661023a565b602091925080600191548385880101520191018391610357565b60ff191687525061024e93801515028301602001915087905061023a565b60405162461bcd60e51b81526020600482015260096024820152682737ba10313abcb2b960b91b6044820152606490fd5b346101ac5760203660031901126101ac57600435600052600080516020610d40833981519152602052604060002060018060a01b0381541660018060a01b03600183015416906003830154600484015490600660058601950154916040519160009680549061044682610ca7565b80865291600181169081156104e157506001146104a4575b50506104728361049a959697980384610b16565b604051968796875260208701526040860152606085015260c0608085015260c0840190610b8f565b9060a08301520390f35b90975060005260206000206000905b8882106104cb5750830160200196506104728361045e565b60018160209254838589010152019101906104b3565b60ff191660208088019190915292151560051b86019092019850610472915084905061045e565b346101ac5760003660031901126101ac576020600080516020610d8083398151915254604051908152f35b346101ac5760403660031901126101ac5760043560243567ffffffffffffffff81116101ac57610567903690600401610b38565b9080600052600080516020610d4083398151915260205260018060a01b036040600020541633148015610734575b156106f75780600052600080516020610d4083398151915260205260056040600020019180519267ffffffffffffffff84116106e1576105df846105d98354610ca7565b83610cf8565b602093601f811160011461065757908161064793927f586e2c2be888668a92ad0159202149dc50968b69ce27aed430607ac126a2ac41959660009161064c575b508160011b916000199060031b1c19161790555b604051918291602083526020830190610b8f565b0390a2005b90508301518761061f565b601f19811682600052856000209060005b8181106106c95750916001917f586e2c2be888668a92ad0159202149dc50968b69ce27aed430607ac126a2ac41969782610647979695106106b0575b5050811b019055610633565b85015160001960f88460031b161c1916905587806106a4565b85880151835560209788019760019093019201610668565b634e487b7160e01b600052604160045260246000fd5b60405162461bcd60e51b8152602060048201526015602482015274139bdd081bdc99195c881c185c9d1a58da5c185b9d605a1b6044820152606490fd5b506000818152600080516020610d4083398151915260205260409020600101546001600160a01b03163314610595565b346101ac5760a03660031901126101ac5761077d610b00565b6024356001600160a01b0381168082036101ac576064359260443560843567ffffffffffffffff81116101ac576107b8903690600401610b38565b93600080516020610d808339815191525460405190602082019260018060a01b038616956bffffffffffffffffffffffff199060601b1684526bffffffffffffffffffffffff199060601b16603483015283604883015287606883015242608883015260a882015260a8815261082f60c882610b16565b519020936040519060e0820182811067ffffffffffffffff8211176106e1576040908152848352602080840187815284830189815260608601878152608087018c815260a088019687524260c0890190815260008d8152600080516020610d4083398151915290965295909420965187546001600160a01b03199081166001600160a01b03928316178955935160018901805490951691161790925551600286015551600385015551600484015590518051600584019167ffffffffffffffff82116106e157610909826109038554610ca7565b85610cf8565b602090601f8311600114610a955760069493929160009183610a8a575b50508160011b916000199060031b1c19161790555b519101557f31c1f8402397e5b1e3d75f3da7207ce6f54556b27afe723742768c4e4be50cef54680100000000000000008110156106e15760018101807f31c1f8402397e5b1e3d75f3da7207ce6f54556b27afe723742768c4e4be50cef55811015610a74577f31c1f8402397e5b1e3d75f3da7207ce6f54556b27afe723742768c4e4be50cef6000527fed7e51fdca69d9156e8cc50b5040da8170938efb50d79157025bff8061aa66550180546001600160a01b03191683179055600080516020610d8083398151915254946000198614610a5e57604085927f9a81642995eb82c61150ace07ccae644c97b69fa389b64bff4fc2814f7b77bc092600160209901600080516020610d8083398151915255825191825288820152a4604051908152f35b634e487b7160e01b600052601160045260246000fd5b634e487b7160e01b600052603260045260246000fd5b015190508b80610926565b90601f1983169184600052816000209260005b818110610ae8575091600193918560069897969410610acf575b505050811b01905561093b565b015160001960f88460031b161c191690558b8080610ac2565b92936020600181928786015181550195019301610aa8565b600435906001600160a01b03821682036101ac57565b90601f8019910116810190811067ffffffffffffffff8211176106e157604052565b81601f820112156101ac5780359067ffffffffffffffff82116106e15760405192610b6d601f8401601f191660200185610b16565b828452602083830101116101ac57816000926020809301838601378301015290565b919082519283825260005b848110610bbb575050826000602080949584010152601f8019910116010190565b80602080928401015182828601015201610b9a565b346101ac5760203660031901126101ac57610be9610b00565b60009060018060a01b031681527f31c1f8402397e5b1e3d75f3da7207ce6f54556b27afe723742768c4e4be50ce360205260408120906040518091602084549283815201918294825260208220915b818110610c915750505081610c4e910382610b16565b6040519182916020830190602084525180915260408301919060005b818110610c78575050500390f35b8251845285945060209384019390920191600101610c6a565b8254845260209093019260019283019201610c38565b90600182811c92168015610cd7575b6020831014610cc157565b634e487b7160e01b600052602260045260246000fd5b91607f1691610cb6565b818110610cec575050565b60008155600101610ce1565b9190601f8111610d0757505050565b610d33926000526020600020906020601f840160051c83019310610d35575b601f0160051c0190610ce1565b565b9091508190610d2656fe31c1f8402397e5b1e3d75f3da7207ce6f54556b27afe723742768c4e4be50ceef0c57e16840df040f15088dc2f81fe391c3923bec73e23a9662efc9c229c6a0031c1f8402397e5b1e3d75f3da7207ce6f54556b27afe723742768c4e4be50cf0a2646970667358221220763f52a1e663cb8505e72657543d59de9d9b2be6c6641a0bca5cd642ec1d64da64736f6c634300081c0033",
  "linkReferences": {},
  "deployedLinkReferences": {}
}