{"abi":[{"type":"constructor","inputs":[{"name":"_clob","type":"address","internalType":"address"},{"name":"_ausys","type":"address","internalType":"address"},{"name":"_quoteToken","type":"address","internalType":"address"},{"name":"_feeRecipient","type":"address","internalType":"address"}],"stateMutability":"nonpayable"},{"type":"function","name":"ausysAddress","inputs":[],"outputs":[{"name":"","type":"address","internalType":"address"}],"stateMutability":"view"},{"type":"function","name":"bountyPercentage","inputs":[],"outputs":[{"name":"","type":"uint256","internalType":"uint256"}],"stateMutability":"view"},{"type":"function","name":"bridgeTradeToLogistics","inputs":[{"name":"unifiedOrderId","type":"bytes32","internalType":"bytes32"}],"outputs":[],"stateMutability":"nonpayable"},{"type":"function","name":"buyerOrders","inputs":[{"name":"","type":"address","internalType":"address"},{"name":"","type":"uint256","internalType":"uint256"}],"outputs":[{"name":"","type":"bytes32","internalType":"bytes32"}],"stateMutability":"view"},{"type":"function","name":"cancelUnifiedOrder","inputs":[{"name":"unifiedOrderId","type":"bytes32","internalType":"bytes32"}],"outputs":[],"stateMutability":"nonpayable"},{"type":"function","name":"clobAddress","inputs":[],"outputs":[{"name":"","type":"address","internalType":"address"}],"stateMutability":"view"},{"type":"function","name":"clobOrderToUnifiedOrder","inputs":[{"name":"","type":"bytes32","internalType":"bytes32"}],"outputs":[{"name":"","type":"bytes32","internalType":"bytes32"}],"stateMutability":"view"},{"type":"function","name":"clobTradeToUnifiedOrder","inputs":[{"name":"","type":"bytes32","internalType":"bytes32"}],"outputs":[{"name":"","type":"bytes32","internalType":"bytes32"}],"stateMutability":"view"},{"type":"function","name":"createUnifiedOrder","inputs":[{"name":"clobOrderId","type":"bytes32","internalType":"bytes32"},{"name":"sellerNode","type":"address","internalType":"address"},{"name":"deliveryData","type":"tuple","internalType":"struct OrderBridge.ParcelData","components":[{"name":"startLocation","type":"tuple","internalType":"struct OrderBridge.Location","components":[{"name":"lat","type":"int256","internalType":"int256"},{"name":"lng","type":"int256","internalType":"int256"}]},{"name":"endLocation","type":"tuple","internalType":"struct OrderBridge.Location","components":[{"name":"lat","type":"int256","internalType":"int256"},{"name":"lng","type":"int256","internalType":"int256"}]},{"name":"startName","type":"string","internalType":"string"},{"name":"endName","type":"string","internalType":"string"}]}],"outputs":[{"name":"unifiedOrderId","type":"bytes32","internalType":"bytes32"}],"stateMutability":"nonpayable"},{"type":"function","name":"feeRecipient","inputs":[],"outputs":[{"name":"","type":"address","internalType":"address"}],"stateMutability":"view"},{"type":"function","name":"getBuyerOrders","inputs":[{"name":"buyer","type":"address","internalType":"address"}],"outputs":[{"name":"","type":"bytes32[]","internalType":"bytes32[]"}],"stateMutability":"view"},{"type":"function","name":"getSellerOrders","inputs":[{"name":"seller","type":"address","internalType":"address"}],"outputs":[{"name":"","type":"bytes32[]","internalType":"bytes32[]"}],"stateMutability":"view"},{"type":"function","name":"getUnifiedOrder","inputs":[{"name":"unifiedOrderId","type":"bytes32","internalType":"bytes32"}],"outputs":[{"name":"","type":"tuple","internalType":"struct OrderBridge.UnifiedOrder","components":[{"name":"id","type":"bytes32","internalType":"bytes32"},{"name":"clobOrderId","type":"bytes32","internalType":"bytes32"},{"name":"clobTradeId","type":"bytes32","internalType":"bytes32"},{"name":"ausysOrderId","type":"bytes32","internalType":"bytes32"},{"name":"journeyIds","type":"bytes32[]","internalType":"bytes32[]"},{"name":"buyer","type":"address","internalType":"address"},{"name":"seller","type":"address","internalType":"address"},{"name":"sellerNode","type":"address","internalType":"address"},{"name":"token","type":"address","internalType":"address"},{"name":"tokenId","type":"uint256","internalType":"uint256"},{"name":"tokenQuantity","type":"uint256","internalType":"uint256"},{"name":"price","type":"uint256","internalType":"uint256"},{"name":"bounty","type":"uint256","internalType":"uint256"},{"name":"deliveryData","type":"tuple","internalType":"struct OrderBridge.ParcelData","components":[{"name":"startLocation","type":"tuple","internalType":"struct OrderBridge.Location","components":[{"name":"lat","type":"int256","internalType":"int256"},{"name":"lng","type":"int256","internalType":"int256"}]},{"name":"endLocation","type":"tuple","internalType":"struct OrderBridge.Location","components":[{"name":"lat","type":"int256","internalType":"int256"},{"name":"lng","type":"int256","internalType":"int256"}]},{"name":"startName","type":"string","internalType":"string"},{"name":"endName","type":"string","internalType":"string"}]},{"name":"status","type":"uint8","internalType":"enum OrderBridge.UnifiedOrderStatus"},{"name":"logisticsStatus","type":"uint8","internalType":"enum OrderBridge.LogisticsPhase"},{"name":"createdAt","type":"uint256","internalType":"uint256"},{"name":"matchedAt","type":"uint256","internalType":"uint256"},{"name":"deliveredAt","type":"uint256","internalType":"uint256"},{"name":"settledAt","type":"uint256","internalType":"uint256"}]}],"stateMutability":"view"},{"type":"function","name":"owner","inputs":[],"outputs":[{"name":"","type":"address","internalType":"address"}],"stateMutability":"view"},{"type":"function","name":"protocolFeePercentage","inputs":[],"outputs":[{"name":"","type":"uint256","internalType":"uint256"}],"stateMutability":"view"},{"type":"function","name":"quoteToken","inputs":[],"outputs":[{"name":"","type":"address","internalType":"contract IERC20"}],"stateMutability":"view"},{"type":"function","name":"renounceOwnership","inputs":[],"outputs":[],"stateMutability":"nonpayable"},{"type":"function","name":"sellerOrders","inputs":[{"name":"","type":"address","internalType":"address"},{"name":"","type":"uint256","internalType":"uint256"}],"outputs":[{"name":"","type":"bytes32","internalType":"bytes32"}],"stateMutability":"view"},{"type":"function","name":"setBountyPercentage","inputs":[{"name":"_percentage","type":"uint256","internalType":"uint256"}],"outputs":[],"stateMutability":"nonpayable"},{"type":"function","name":"setFeeRecipient","inputs":[{"name":"_recipient","type":"address","internalType":"address"}],"outputs":[],"stateMutability":"nonpayable"},{"type":"function","name":"setProtocolFeePercentage","inputs":[{"name":"_percentage","type":"uint256","internalType":"uint256"}],"outputs":[],"stateMutability":"nonpayable"},{"type":"function","name":"transferOwnership","inputs":[{"name":"newOwner","type":"address","internalType":"address"}],"outputs":[],"stateMutability":"nonpayable"},{"type":"function","name":"unifiedOrderCounter","inputs":[],"outputs":[{"name":"","type":"uint256","internalType":"uint256"}],"stateMutability":"view"},{"type":"function","name":"unifiedOrderIds","inputs":[{"name":"","type":"uint256","internalType":"uint256"}],"outputs":[{"name":"","type":"bytes32","internalType":"bytes32"}],"stateMutability":"view"},{"type":"function","name":"unifiedOrders","inputs":[{"name":"","type":"bytes32","internalType":"bytes32"}],"outputs":[{"name":"id","type":"bytes32","internalType":"bytes32"},{"name":"clobOrderId","type":"bytes32","internalType":"bytes32"},{"name":"clobTradeId","type":"bytes32","internalType":"bytes32"},{"name":"ausysOrderId","type":"bytes32","internalType":"bytes32"},{"name":"buyer","type":"address","internalType":"address"},{"name":"seller","type":"address","internalType":"address"},{"name":"sellerNode","type":"address","internalType":"address"},{"name":"token","type":"address","internalType":"address"},{"name":"tokenId","type":"uint256","internalType":"uint256"},{"name":"tokenQuantity","type":"uint256","internalType":"uint256"},{"name":"price","type":"uint256","internalType":"uint256"},{"name":"bounty","type":"uint256","internalType":"uint256"},{"name":"deliveryData","type":"tuple","internalType":"struct OrderBridge.ParcelData","components":[{"name":"startLocation","type":"tuple","internalType":"struct OrderBridge.Location","components":[{"name":"lat","type":"int256","internalType":"int256"},{"name":"lng","type":"int256","internalType":"int256"}]},{"name":"endLocation","type":"tuple","internalType":"struct OrderBridge.Location","components":[{"name":"lat","type":"int256","internalType":"int256"},{"name":"lng","type":"int256","internalType":"int256"}]},{"name":"startName","type":"string","internalType":"string"},{"name":"endName","type":"string","internalType":"string"}]},{"name":"status","type":"uint8","internalType":"enum OrderBridge.UnifiedOrderStatus"},{"name":"logisticsStatus","type":"uint8","internalType":"enum OrderBridge.LogisticsPhase"},{"name":"createdAt","type":"uint256","internalType":"uint256"},{"name":"matchedAt","type":"uint256","internalType":"uint256"},{"name":"deliveredAt","type":"uint256","internalType":"uint256"},{"name":"settledAt","type":"uint256","internalType":"uint256"}],"stateMutability":"view"},{"type":"function","name":"updateAusysAddress","inputs":[{"name":"_ausys","type":"address","internalType":"address"}],"outputs":[],"stateMutability":"nonpayable"},{"type":"function","name":"updateClobAddress","inputs":[{"name":"_clob","type":"address","internalType":"address"}],"outputs":[],"stateMutability":"nonpayable"},{"type":"event","name":"JourneyStatusUpdated","inputs":[{"name":"unifiedOrderId","type":"bytes32","indexed":true,"internalType":"bytes32"},{"name":"journeyId","type":"bytes32","indexed":true,"internalType":"bytes32"},{"name":"phase","type":"uint8","indexed":false,"internalType":"uint8"}],"anonymous":false},{"type":"event","name":"LogisticsOrderCreated","inputs":[{"name":"unifiedOrderId","type":"bytes32","indexed":true,"internalType":"bytes32"},{"name":"ausysOrderId","type":"bytes32","indexed":true,"internalType":"bytes32"},{"name":"journeyIds","type":"bytes32[]","indexed":false,"internalType":"bytes32[]"},{"name":"bounty","type":"uint256","indexed":false,"internalType":"uint256"},{"name":"node","type":"address","indexed":false,"internalType":"address"}],"anonymous":false},{"type":"event","name":"OrderCancelled","inputs":[{"name":"unifiedOrderId","type":"bytes32","indexed":true,"internalType":"bytes32"},{"name":"previousStatus","type":"uint8","indexed":false,"internalType":"uint8"},{"name":"refundedAmount","type":"uint256","indexed":false,"internalType":"uint256"}],"anonymous":false},{"type":"event","name":"OrderSettled","inputs":[{"name":"unifiedOrderId","type":"bytes32","indexed":true,"internalType":"bytes32"},{"name":"seller","type":"address","indexed":true,"internalType":"address"},{"name":"sellerAmount","type":"uint256","indexed":false,"internalType":"uint256"},{"name":"driver","type":"address","indexed":true,"internalType":"address"},{"name":"driverAmount","type":"uint256","indexed":false,"internalType":"uint256"}],"anonymous":false},{"type":"event","name":"OrderStatusUpdated","inputs":[{"name":"unifiedOrderId","type":"bytes32","indexed":true,"internalType":"bytes32"},{"name":"status","type":"uint8","indexed":false,"internalType":"uint8"}],"anonymous":false},{"type":"event","name":"OwnershipTransferred","inputs":[{"name":"previousOwner","type":"address","indexed":true,"internalType":"address"},{"name":"newOwner","type":"address","indexed":true,"internalType":"address"}],"anonymous":false},{"type":"event","name":"TradeMatched","inputs":[{"name":"unifiedOrderId","type":"bytes32","indexed":true,"internalType":"bytes32"},{"name":"clobTradeId","type":"bytes32","indexed":true,"internalType":"bytes32"},{"name":"clobOrderId","type":"bytes32","indexed":false,"internalType":"bytes32"},{"name":"maker","type":"address","indexed":false,"internalType":"address"},{"name":"price","type":"uint256","indexed":false,"internalType":"uint256"},{"name":"amount","type":"uint256","indexed":false,"internalType":"uint256"}],"anonymous":false},{"type":"event","name":"UnifiedOrderCreated","inputs":[{"name":"unifiedOrderId","type":"bytes32","indexed":true,"internalType":"bytes32"},{"name":"clobOrderId","type":"bytes32","indexed":true,"internalType":"bytes32"},{"name":"buyer","type":"address","indexed":true,"internalType":"address"},{"name":"seller","type":"address","indexed":false,"internalType":"address"},{"name":"token","type":"address","indexed":false,"internalType":"address"},{"name":"tokenId","type":"uint256","indexed":false,"internalType":"uint256"},{"name":"quantity","type":"uint256","indexed":false,"internalType":"uint256"},{"name":"price","type":"uint256","indexed":false,"internalType":"uint256"}],"anonymous":false},{"type":"error","name":"InvalidAddress","inputs":[]},{"type":"error","name":"InvalidAmount","inputs":[]},{"type":"error","name":"InvalidFeeConfiguration","inputs":[]},{"type":"error","name":"InvalidPrice","inputs":[]},{"type":"error","name":"NotAuthorized","inputs":[]},{"type":"error","name":"NotOrderOwner","inputs":[]},{"type":"error","name":"OrderNotFound","inputs":[]},{"type":"error","name":"OrderNotOpen","inputs":[]}],"bytecode":{"object":"0x60803461012257601f6117c438819003918201601f19168301916001600160401b0383118484101761012657808492608094604052833981010312610122576100478161013a565b906100546020820161013a565b9061006d60606100666040840161013a565b920161013a565b5f8054336001600160a01b0319821681178355604051969395939290916001600160a01b0316907f8be0079c531659141344cd1fd0a4f28419497f9722a3daafe3b4186f6b6457e09080a36001805560c8600c556019600d55600280546001600160a01b03199081166001600160a01b03938416179091556003805482169383169390931790925560048054831693821693909317909255600e805490911692909116919091179055611675908161014f8239f35b5f80fd5b634e487b7160e01b5f52604160045260245ffd5b51906001600160a01b03821682036101225756fe6101206040526004361015610012575f80fd5b5f3560e01c806307a2072a1461122b5780631648d9101461109b57806320b871c914611071578063217a4b7014611049578063289bc1cd14610fdb5780634500cb6014610f9257806345cb450514610f3a5780634690484014610f125780634d12d55314610ade5780635e2a0e0c14610ac15780635fc905ec146109db57806363e4e5cc146109be578063715018a6146109675780637195a9341461092457806380b7cd3c146108fc5780638da5cb5b146108d55780638e50e509146108b85780639246d6ef146107315780639f367b8414610707578063a45f2ebc146106c5578063b7f846f914610682578063ba0d066a1461065a578063d2d2e822146102fd578063d8a5e936146102c4578063e4cbac4014610263578063e74b981b1461020d5763f2fde38b14610143575f80fd5b346102095760203660031901126102095761015c61126a565b610164611592565b6001600160a01b031680156101b5575f80546001600160a01b03198116831782556001600160a01b0316907f8be0079c531659141344cd1fd0a4f28419497f9722a3daafe3b4186f6b6457e09080a3005b60405162461bcd60e51b815260206004820152602660248201527f4f776e61626c653a206e6577206f776e657220697320746865207a65726f206160448201526564647265737360d01b6064820152608490fd5b5f80fd5b346102095760203660031901126102095761022661126a565b61022e611592565b6001600160a01b03168015610254576001600160601b0360a01b600e541617600e555f80f35b63e6c4247b60e01b5f5260045ffd5b34610209576020366003190112610209576001600160a01b0361028461126a565b165f52600b6020526102c06102a56102ac60405f206040519283809261155b565b03826112d5565b6040519182916020835260208301906114cf565b0390f35b34610209576020366003190112610209576004356102e0611592565b6103e881116102ee57600d55005b63369276d760e11b5f5260045ffd5b34610209576020366003190112610209575f61026060405161031e81611280565b828152826020820152826040820152826060820152606060808201528260a08201528260c08201528260e0820152826101008201528261012082015282610140820152826101608201528261018082015260405161037b8161129d565b604051610387816112b9565b848152846020820152815260405161039e816112b9565b8481528460208201526020820152606060408201526060808201526101a0820152826101c0820152826101e082015282610200820152826102208201528261024082015201526004355f52600560205260405f20604051906103ff82611280565b80548252600181015460208301526002810154604083015260038101546060830152604051610435816102a5816004860161155b565b608083015260058101546001600160a01b0390811660a08401526006820154811660c08401526007820154811660e08401526008820154166101008301526009810154610120830152600a810154610140830152600b810154610160830152600c8101546101808301526104ab600d82016113ed565b6101a0830152601381015460ff81169060088210156106465760ff916101c085015260081c16906004821015610646576017916101e08401526014810154610200840152601581015461022084015260168101546102408401520154610260820152604051809160208252805160208301526020810151604083015260408101516060830152606081015160808301526102606105ef61055c608084015161028060a08701526102a08601906114cf565b60018060a01b0360a08501511660c086015260018060a01b0360c08501511660e086015260018060a01b0360e08501511661010086015260018060a01b03610100850151166101208601526101208401516101408601526101408401516101608601526101608401516101808601526101808401516101a08601526101a0840151601f19868303016101c087015261145f565b916106046101c08201516101e08601906114b5565b6106186101e08201516102008601906114c2565b6102008101516102208501526102208101516102408501526102408101518285015201516102808301520390f35b634e487b7160e01b5f52602160045260245ffd5b34610209575f366003190112610209576003546040516001600160a01b039091168152602090f35b346102095760203660031901126102095761069b61126a565b6106a3611592565b600280546001600160a01b0319166001600160a01b0392909216919091179055005b34610209576020366003190112610209576001600160a01b036106e661126a565b165f52600a6020526102c06102a56102ac60405f206040519283809261155b565b34610209576020366003190112610209576004355f526008602052602060405f2054604051908152f35b34610209576020366003190112610209576004355f9081526005602081905260409091208054600182015460e0526002820154610100526003820154928201546006830154600784015460088501546009860154600a870154600b880154600c8901546001600160a01b0397881697909691959294811692811691166107b9600d8b016113ed565b9760138b015460a05260148b01549b60158c01549a60168d01549c6017015460805260405160c05260c0515260e05160c051602001526101005160c0516040015260c0516060015260c0516080015260c05160a0015260c05160c0015260c05160e0015260c051610100015260c051610120015260c051610140015260c051610160015260c05161018001610260905260c051610260016108599161145f565b9260c0516101a00160a05160ff1690610871916114b5565b60c0516101c00160a05160081c60ff169061088b916114c2565b60c0516101e0015260c051610200015260c051610220015260805160c051610240015260c051900360c051f35b34610209575f366003190112610209576020600d54604051908152f35b34610209575f366003190112610209575f546040516001600160a01b039091168152602090f35b34610209575f366003190112610209576002546040516001600160a01b039091168152602090f35b346102095760203660031901126102095761093d61126a565b610945611592565b600380546001600160a01b0319166001600160a01b0392909216919091179055005b34610209575f3660031901126102095761097f611592565b5f80546001600160a01b0319811682556001600160a01b03167f8be0079c531659141344cd1fd0a4f28419497f9722a3daafe3b4186f6b6457e08280a3005b34610209575f366003190112610209576020600c54604051908152f35b34610209576020366003190112610209576004356109f76115e9565b805f52600560205260405f20805415610ab25760058101546001600160a01b031633141580610a9e575b610a8f5760130160ff8154169060088210156106465760018203610a8057805460ff19166007179055604080519182525f60208301527f43c0c5b45c0d1a39beb8c2b5ce3c120a31e5213a9ae3690878948bec665a53e191a260018055005b63206931ef60e01b5f5260045ffd5b63ea8e4eb560e01b5f5260045ffd5b505f546001600160a01b0316331415610a21565b63d36d896560e01b5f5260045ffd5b34610209575f366003190112610209576020600754604051908152f35b34610209576060366003190112610209576004356024356001600160a01b03811690819003610209576044359067ffffffffffffffff821161020957816004019160c0600319823603011261020957610b356115e9565b8115610254576007545f198114610efe57600101806007556040516020810191825242604082015233606082015260608152610b726080826112d5565b51902092835f52600560205260405f20928484558560018501556005840160018060a01b0333166001600160601b0360a01b82541617905560078401906001600160601b0360a01b8254161790558035600d8401556024820135600e8401556044820135600f8401556064820135601084015560118301610bf66084840183611502565b9067ffffffffffffffff8211610d6f57610c108354611315565b601f8111610eb9575b505f90601f8311600114610e5057610c58949392915f9183610e45575b50508160011b915f199060031b1c19161790555b60a460128501930190611502565b9067ffffffffffffffff8211610d6f578190610c748454611315565b601f8111610df5575b505f90601f8311600114610d8e575f92610d83575b50508160011b915f199060031b1c19161790555b60138101805461ffff191660011790554260149091015560065491600160401b831015610d6f5781610cfb610ce5856001602097016006556006611255565b819391549060031b91821b915f19901b19161790565b9055805f52600983528160405f2055335f52600a8352610d1e8260405f20611535565b604051905f82525f848301525f60408301525f60608301525f6080830152827fc8b6af077d052146487628eaecffabe40950f528dbb5c891cb73516b70f29b7660a03394a460018055604051908152f35b634e487b7160e01b5f52604160045260245ffd5b013590508680610c92565b909150601f19831691845f5260205f20925f5b818110610ddd5750908460019594939210610dc4575b505050811b019055610ca6565b01355f19600384901b60f8161c19169055868080610db7565b91936020600181928787013581550195019201610da1565b909150835f5260205f20601f840160051c81019160208510610e3b575b90601f859493920160051c01905b818110610e2d5750610c7d565b5f8155849350600101610e20565b9091508190610e12565b013590508980610c36565b601f19831691845f5260205f20925f5b818110610ea15750916001939185610c589897969410610e88575b505050811b019055610c4a565b01355f19600384901b60f8161c19169055898080610e7b565b91936020600181928787013581550195019201610e60565b835f5260205f20601f840160051c81019160208510610ef4575b601f0160051c01905b818110610ee95750610c19565b5f8155600101610edc565b9091508190610ed3565b634e487b7160e01b5f52601160045260245ffd5b34610209575f36600319011261020957600e546040516001600160a01b039091168152602090f35b3461020957604036600319011261020957610f5361126a565b6001600160a01b03165f908152600b602052604090208054602435919082101561020957602091610f8391611255565b90549060031b1c604051908152f35b3461020957604036600319011261020957610fab61126a565b6001600160a01b03165f908152600a602052604090208054602435919082101561020957602091610f8391611255565b3461020957602036600319011261020957600435600654811015610209576006548110156110355760065f527ff652222313e28459528d920b65115c16c04f3efc82aaedc97be59f3f377c0d3f0154604051908152602090f35b634e487b7160e01b5f52603260045260245ffd5b34610209575f366003190112610209576004546040516001600160a01b039091168152602090f35b34610209576020366003190112610209576004355f526009602052602060405f2054604051908152f35b34610209576020366003190112610209576004356110b76115e9565b805f52600560205260405f2090815415610ab2576013820160ff815416600881101561064657600103610a805760058301546001600160a01b031633141580611217575b610a8f57608060015f947f51d0a1e698414611c0ea7ca8757d896ebb05e00dae40759e180392eb05da645393600260ff19825416178155426015830155815460405160208101918252426040820152604081526111596060826112d5565b51902060038301908155815461ffff19166101031790915560078201805460a085901b859003168852600b60205260408820835491929161119991611535565b7f9c831fa40390da8becd7237209647f69df6693617076b2a54c9ea1075ad788f38354915492600c85015490868060a01b03905416604051918291606083526111e86060840160048a0161155b565b91602084015260408301520390a30154604051908152846020820152846040820152846060820152a360018055005b505f546001600160a01b03163314156110fb565b3461020957602036600319011261020957600435611247611592565b6103e881116102ee57600c55005b8054821015611035575f5260205f2001905f90565b600435906001600160a01b038216820361020957565b610280810190811067ffffffffffffffff821117610d6f57604052565b6080810190811067ffffffffffffffff821117610d6f57604052565b6040810190811067ffffffffffffffff821117610d6f57604052565b90601f8019910116810190811067ffffffffffffffff821117610d6f57604052565b90604051611304816112b9565b602060018294805484520154910152565b90600182811c92168015611343575b602083101461132f57565b634e487b7160e01b5f52602260045260245ffd5b91607f1691611324565b9060405191825f82549261136084611315565b80845293600181169081156113cb5750600114611387575b50611385925003836112d5565b565b90505f9291925260205f20905f915b8183106113af575050906020611385928201015f611378565b6020919350806001915483858901015201910190918492611396565b90506020925061138594915060ff191682840152151560051b8201015f611378565b906040516113fa8161129d565b60606114366005839561140c816112f7565b855261141a600282016112f7565b602086015261142b6004820161134d565b60408601520161134d565b910152565b805180835260209291819084018484015e5f828201840152601f01601f1916010190565b6114b291602082518051835201516020820152602080830151805160408401520151606082015260606114a1604084015160c0608085015260c084019061143b565b9201519060a081840391015261143b565b90565b9060088210156106465752565b9060048210156106465752565b90602080835192838152019201905f5b8181106114ec5750505090565b82518452602093840193909201916001016114df565b903590601e1981360301821215610209570180359067ffffffffffffffff82116102095760200191813603831361020957565b805490600160401b821015610d6f5781610ce591600161155794018155611255565b9055565b90602082549182815201915f5260205f20905f5b81811061157c5750505090565b825484526020909301926001928301920161156f565b5f546001600160a01b031633036115a557565b606460405162461bcd60e51b815260206004820152602060248201527f4f776e61626c653a2063616c6c6572206973206e6f7420746865206f776e65726044820152fd5b6002600154146115fa576002600155565b60405162461bcd60e51b815260206004820152601f60248201527f5265656e7472616e637947756172643a207265656e7472616e742063616c6c006044820152606490fdfea26469706673582212202bac1059df7ac3ce5ed32823ba7d5033e65acdd965c8b77fe2925ec49c5e6c8a64736f6c634300081c0033","linkReferences":{}},"methodIdentifiers":{"ausysAddress()":"ba0d066a","bountyPercentage()":"63e4e5cc","bridgeTradeToLogistics(bytes32)":"1648d910","buyerOrders(address,uint256)":"4500cb60","cancelUnifiedOrder(bytes32)":"5fc905ec","clobAddress()":"80b7cd3c","clobOrderToUnifiedOrder(bytes32)":"20b871c9","clobTradeToUnifiedOrder(bytes32)":"9f367b84","createUnifiedOrder(bytes32,address,((int256,int256),(int256,int256),string,string))":"4d12d553","feeRecipient()":"46904840","getBuyerOrders(address)":"a45f2ebc","getSellerOrders(address)":"e4cbac40","getUnifiedOrder(bytes32)":"d2d2e822","owner()":"8da5cb5b","protocolFeePercentage()":"8e50e509","quoteToken()":"217a4b70","renounceOwnership()":"715018a6","sellerOrders(address,uint256)":"45cb4505","setBountyPercentage(uint256)":"07a2072a","setFeeRecipient(address)":"e74b981b","setProtocolFeePercentage(uint256)":"d8a5e936","transferOwnership(address)":"f2fde38b","unifiedOrderCounter()":"5e2a0e0c","unifiedOrderIds(uint256)":"289bc1cd","unifiedOrders(bytes32)":"9246d6ef","updateAusysAddress(address)":"7195a934","updateClobAddress(address)":"b7f846f9"},"id":7}