{"abi":[{"type":"constructor","inputs":[{"name":"","type":"address","internalType":"address"},{"name":"_uri","type":"string","internalType":"string"},{"name":"_NodeManager","type":"address","internalType":"contract IAurumNodeManager"}],"stateMutability":"payable"},{"type":"function","name":"addSupportedAsset","inputs":[{"name":"asset","type":"tuple","internalType":"struct AuraAsset.Asset","components":[{"name":"name","type":"string","internalType":"string"},{"name":"assetClass","type":"string","internalType":"string"},{"name":"attributes","type":"tuple[]","internalType":"struct AuraAsset.Attribute[]","components":[{"name":"name","type":"string","internalType":"string"},{"name":"values","type":"string[]","internalType":"string[]"},{"name":"description","type":"string","internalType":"string"}]}]}],"outputs":[],"stateMutability":"nonpayable"},{"type":"function","name":"addSupportedClass","inputs":[{"name":"className","type":"string","internalType":"string"}],"outputs":[],"stateMutability":"nonpayable"},{"type":"function","name":"balanceOf","inputs":[{"name":"account","type":"address","internalType":"address"},{"name":"id","type":"uint256","internalType":"uint256"}],"outputs":[{"name":"","type":"uint256","internalType":"uint256"}],"stateMutability":"view"},{"type":"function","name":"balanceOfBatch","inputs":[{"name":"accounts","type":"address[]","internalType":"address[]"},{"name":"ids","type":"uint256[]","internalType":"uint256[]"}],"outputs":[{"name":"","type":"uint256[]","internalType":"uint256[]"}],"stateMutability":"view"},{"type":"function","name":"burn","inputs":[{"name":"account","type":"address","internalType":"address"},{"name":"id","type":"uint256","internalType":"uint256"},{"name":"value","type":"uint256","internalType":"uint256"}],"outputs":[],"stateMutability":"nonpayable"},{"type":"function","name":"burnBatch","inputs":[{"name":"account","type":"address","internalType":"address"},{"name":"ids","type":"uint256[]","internalType":"uint256[]"},{"name":"values","type":"uint256[]","internalType":"uint256[]"}],"outputs":[],"stateMutability":"nonpayable"},{"type":"function","name":"exists","inputs":[{"name":"id","type":"uint256","internalType":"uint256"}],"outputs":[{"name":"","type":"bool","internalType":"bool"}],"stateMutability":"view"},{"type":"function","name":"hashToClass","inputs":[{"name":"","type":"bytes32","internalType":"bytes32"}],"outputs":[{"name":"","type":"string","internalType":"string"}],"stateMutability":"view"},{"type":"function","name":"hashToTokenID","inputs":[{"name":"","type":"bytes32","internalType":"bytes32"}],"outputs":[{"name":"","type":"uint256","internalType":"uint256"}],"stateMutability":"view"},{"type":"function","name":"ipfsID","inputs":[{"name":"","type":"uint256","internalType":"uint256"}],"outputs":[{"name":"","type":"bytes32","internalType":"bytes32"}],"stateMutability":"view"},{"type":"function","name":"isApprovedForAll","inputs":[{"name":"account","type":"address","internalType":"address"},{"name":"operator","type":"address","internalType":"address"}],"outputs":[{"name":"","type":"bool","internalType":"bool"}],"stateMutability":"view"},{"type":"function","name":"isClassActive","inputs":[{"name":"","type":"bytes32","internalType":"bytes32"}],"outputs":[{"name":"","type":"bool","internalType":"bool"}],"stateMutability":"view"},{"type":"function","name":"lookupHash","inputs":[{"name":"asset","type":"tuple","internalType":"struct AuraAsset.Asset","components":[{"name":"name","type":"string","internalType":"string"},{"name":"assetClass","type":"string","internalType":"string"},{"name":"attributes","type":"tuple[]","internalType":"struct AuraAsset.Attribute[]","components":[{"name":"name","type":"string","internalType":"string"},{"name":"values","type":"string[]","internalType":"string[]"},{"name":"description","type":"string","internalType":"string"}]}]}],"outputs":[{"name":"","type":"uint256","internalType":"uint256"}],"stateMutability":"pure"},{"type":"function","name":"mintBatch","inputs":[{"name":"to","type":"address","internalType":"address"},{"name":"ids","type":"uint256[]","internalType":"uint256[]"},{"name":"amounts","type":"uint256[]","internalType":"uint256[]"},{"name":"data","type":"bytes","internalType":"bytes"}],"outputs":[],"stateMutability":"nonpayable"},{"type":"function","name":"nameToSupportedAssetIndex","inputs":[{"name":"","type":"string","internalType":"string"}],"outputs":[{"name":"","type":"uint256","internalType":"uint256"}],"stateMutability":"view"},{"type":"function","name":"nameToSupportedAssets","inputs":[{"name":"","type":"string","internalType":"string"}],"outputs":[{"name":"name","type":"string","internalType":"string"},{"name":"assetClass","type":"string","internalType":"string"}],"stateMutability":"view"},{"type":"function","name":"nameToSupportedClass","inputs":[{"name":"","type":"string","internalType":"string"}],"outputs":[{"name":"","type":"string","internalType":"string"}],"stateMutability":"view"},{"type":"function","name":"nameToSupportedClassIndex","inputs":[{"name":"","type":"string","internalType":"string"}],"outputs":[{"name":"","type":"uint256","internalType":"uint256"}],"stateMutability":"view"},{"type":"function","name":"nodeMint","inputs":[{"name":"account","type":"address","internalType":"address"},{"name":"asset","type":"tuple","internalType":"struct AuraAsset.Asset","components":[{"name":"name","type":"string","internalType":"string"},{"name":"assetClass","type":"string","internalType":"string"},{"name":"attributes","type":"tuple[]","internalType":"struct AuraAsset.Attribute[]","components":[{"name":"name","type":"string","internalType":"string"},{"name":"values","type":"string[]","internalType":"string[]"},{"name":"description","type":"string","internalType":"string"}]}]},{"name":"amount","type":"uint256","internalType":"uint256"},{"name":"className","type":"string","internalType":"string"},{"name":"data","type":"bytes","internalType":"bytes"}],"outputs":[{"name":"hash","type":"bytes32","internalType":"bytes32"},{"name":"tokenID","type":"uint256","internalType":"uint256"}],"stateMutability":"nonpayable"},{"type":"function","name":"owner","inputs":[],"outputs":[{"name":"","type":"address","internalType":"address"}],"stateMutability":"view"},{"type":"function","name":"removeSupportedAsset","inputs":[{"name":"asset","type":"tuple","internalType":"struct AuraAsset.Asset","components":[{"name":"name","type":"string","internalType":"string"},{"name":"assetClass","type":"string","internalType":"string"},{"name":"attributes","type":"tuple[]","internalType":"struct AuraAsset.Attribute[]","components":[{"name":"name","type":"string","internalType":"string"},{"name":"values","type":"string[]","internalType":"string[]"},{"name":"description","type":"string","internalType":"string"}]}]}],"outputs":[],"stateMutability":"nonpayable"},{"type":"function","name":"removeSupportedClass","inputs":[{"name":"className","type":"string","internalType":"string"}],"outputs":[],"stateMutability":"nonpayable"},{"type":"function","name":"renounceOwnership","inputs":[],"outputs":[],"stateMutability":"nonpayable"},{"type":"function","name":"safeBatchTransferFrom","inputs":[{"name":"from","type":"address","internalType":"address"},{"name":"to","type":"address","internalType":"address"},{"name":"ids","type":"uint256[]","internalType":"uint256[]"},{"name":"amounts","type":"uint256[]","internalType":"uint256[]"},{"name":"data","type":"bytes","internalType":"bytes"}],"outputs":[],"stateMutability":"nonpayable"},{"type":"function","name":"safeTransferFrom","inputs":[{"name":"from","type":"address","internalType":"address"},{"name":"to","type":"address","internalType":"address"},{"name":"id","type":"uint256","internalType":"uint256"},{"name":"amount","type":"uint256","internalType":"uint256"},{"name":"data","type":"bytes","internalType":"bytes"}],"outputs":[],"stateMutability":"nonpayable"},{"type":"function","name":"setApprovalForAll","inputs":[{"name":"operator","type":"address","internalType":"address"},{"name":"approved","type":"bool","internalType":"bool"}],"outputs":[],"stateMutability":"nonpayable"},{"type":"function","name":"setURI","inputs":[{"name":"newuri","type":"string","internalType":"string"}],"outputs":[],"stateMutability":"nonpayable"},{"type":"function","name":"supportedAssets","inputs":[{"name":"","type":"uint256","internalType":"uint256"}],"outputs":[{"name":"","type":"string","internalType":"string"}],"stateMutability":"view"},{"type":"function","name":"supportedClasses","inputs":[{"name":"","type":"uint256","internalType":"uint256"}],"outputs":[{"name":"","type":"string","internalType":"string"}],"stateMutability":"view"},{"type":"function","name":"supportsInterface","inputs":[{"name":"interfaceId","type":"bytes4","internalType":"bytes4"}],"outputs":[{"name":"","type":"bool","internalType":"bool"}],"stateMutability":"view"},{"type":"function","name":"totalSupply","inputs":[{"name":"id","type":"uint256","internalType":"uint256"}],"outputs":[{"name":"","type":"uint256","internalType":"uint256"}],"stateMutability":"view"},{"type":"function","name":"transferOwnership","inputs":[{"name":"newOwner","type":"address","internalType":"address"}],"outputs":[],"stateMutability":"nonpayable"},{"type":"function","name":"uri","inputs":[{"name":"","type":"uint256","internalType":"uint256"}],"outputs":[{"name":"","type":"string","internalType":"string"}],"stateMutability":"view"},{"type":"event","name":"ApprovalForAll","inputs":[{"name":"account","type":"address","indexed":true,"internalType":"address"},{"name":"operator","type":"address","indexed":true,"internalType":"address"},{"name":"approved","type":"bool","indexed":false,"internalType":"bool"}],"anonymous":false},{"type":"event","name":"AssetAttributeAdded","inputs":[{"name":"hash","type":"bytes32","indexed":true,"internalType":"bytes32"},{"name":"attributeIndex","type":"uint256","indexed":true,"internalType":"uint256"},{"name":"name","type":"string","indexed":false,"internalType":"string"},{"name":"values","type":"string[]","indexed":false,"internalType":"string[]"},{"name":"description","type":"string","indexed":false,"internalType":"string"}],"anonymous":false},{"type":"event","name":"MintedAsset","inputs":[{"name":"account","type":"address","indexed":true,"internalType":"address"},{"name":"hash","type":"bytes32","indexed":true,"internalType":"bytes32"},{"name":"tokenId","type":"uint256","indexed":true,"internalType":"uint256"},{"name":"name","type":"string","indexed":false,"internalType":"string"},{"name":"assetClass","type":"string","indexed":false,"internalType":"string"},{"name":"className","type":"string","indexed":false,"internalType":"string"}],"anonymous":false},{"type":"event","name":"OwnershipTransferred","inputs":[{"name":"previousOwner","type":"address","indexed":true,"internalType":"address"},{"name":"newOwner","type":"address","indexed":true,"internalType":"address"}],"anonymous":false},{"type":"event","name":"TransferBatch","inputs":[{"name":"operator","type":"address","indexed":true,"internalType":"address"},{"name":"from","type":"address","indexed":true,"internalType":"address"},{"name":"to","type":"address","indexed":true,"internalType":"address"},{"name":"ids","type":"uint256[]","indexed":false,"internalType":"uint256[]"},{"name":"values","type":"uint256[]","indexed":false,"internalType":"uint256[]"}],"anonymous":false},{"type":"event","name":"TransferSingle","inputs":[{"name":"operator","type":"address","indexed":true,"internalType":"address"},{"name":"from","type":"address","indexed":true,"internalType":"address"},{"name":"to","type":"address","indexed":true,"internalType":"address"},{"name":"id","type":"uint256","indexed":false,"internalType":"uint256"},{"name":"value","type":"uint256","indexed":false,"internalType":"uint256"}],"anonymous":false},{"type":"event","name":"URI","inputs":[{"name":"value","type":"string","indexed":false,"internalType":"string"},{"name":"id","type":"uint256","indexed":true,"internalType":"uint256"}],"anonymous":false}],"bytecode":{"object":"0x60806040526134a980380380610014816102b9565b9283398101906060818303126102b55780516001600160a01b038116036102b55760208101516001600160401b0381116102b55781019082601f830112156102b55781516001600160401b0381116101dc57610079601f8201601f19166020016102b9565b93818552602082850101116102b5576020815f9282604096018388015e8501015201516001600160a01b038116908190036102b55781516001600160401b0381116101dc576100c96002546102de565b601f811161025c575b50602092601f82116001146101fb57928192935f926101f0575b50508160011b915f199060031b1c1916176002555b60038054336001600160a01b0319821681179092556001600160a01b03167f8be0079c531659141344cd1fd0a4f28419497f9722a3daafe3b4186f6b6457e05f80a3600580546001600160a01b031916919091179055600854680100000000000000008110156101dc5760018101806008558110156101c8575f9060088252602082200161018f81546102de565b601f81116101a9575b505560405161317c908161032d8239f35b818352602083206101c291601f0160051c810190610316565b5f610198565b634e487b7160e01b5f52603260045260245ffd5b634e487b7160e01b5f52604160045260245ffd5b015190505f806100ec565b601f1982169360025f52805f20915f5b868110610244575083600195961061022c575b505050811b01600255610101565b01515f1960f88460031b161c191690555f808061021e565b9192602060018192868501518155019401920161020b565b60025f526102a5907f405787fa12a823e0f2b7631cc41b3ba8828b3321ca811111fa75cd3aa3bb5ace601f840160051c810191602085106102ab575b601f0160051c0190610316565b5f6100d2565b9091508190610298565b5f80fd5b6040519190601f01601f191682016001600160401b038111838210176101dc57604052565b90600182811c9216801561030c575b60208310146102f857565b634e487b7160e01b5f52602260045260245ffd5b91607f16916102ed565b818110610321575050565b5f815560010161031656fe60806040526004361015610011575f80fd5b5f3560e01c8062fdd58e146124b357806301ffc9a71461244557806302fe5305146122f45780630877db7f146122c75780630e89341c146121fc5780631a82d023146121225780631f7fdffa14611f0d5780632eb2c2d614611bf057806346948cd614611b825780634e1273f4146119e75780634f558e79146119bb57806359383991146119915780636b20c4541461172f578063715018a6146116d457806377ab5ecc146116a55780637a5db0c41461164f5780637c9fd810146115fa578063807c6d12146113c55780638da5cb5b1461139d578063902c50d8146111fe578063a22cb4651461111e578063b2b0017a146110c9578063bd85b0391461109f578063bf72dbe114610b0f578063c68dbb3714610adc578063caa149b714610a54578063d27e1c3e14610a12578063da5d26ac146109ac578063e6756ee4146108b0578063e985e9c514610859578063f242432a14610456578063f2fde38b1461038f5763f5298aca14610183575f80fd5b3461038b57606036600319011261038b5761019c6124e2565b6001600160a01b03166044356024353383148015610369575b6101be90612ae6565b8215926101cb8415612fc2565b6101d48261311f565b906101de8461311f565b926020955f6040516101f08982612529565b52610318575b5f5b835181101561029a5761020b8185612b49565b516102168287612b49565b5190805f526004895260405f205490828210610244579060019392915f5260048a520360405f2055016101f8565b60405162461bcd60e51b8152600481018b9052602860248201527f455243313135353a206275726e20616d6f756e74206578636565647320746f74604482015267616c537570706c7960c01b6064820152608490fd5b5f878185858a81845283855260408420838552855260408420546102c08282101561301a565b828552848652604085208486528652816040862091039055604051918252848201527fc3d58168c5ae7397731d063d5bbf3d657854427343f4c083240f7aacaa2d0f6260403392a46103156040519182612529565b52005b93905f9392935b845181101561035e578061033560019286612b49565b516103408288612b49565b515f526004895261035660405f20918254612ed7565b90550161031f565b5090939291926101f6565b505f83815260016020908152604080832033845290915290205460ff166101b5565b5f80fd5b3461038b57602036600319011261038b576103a86124e2565b6103b0612dcc565b6001600160a01b0316801561040257600380546001600160a01b0319811683179091556001600160a01b03167f8be0079c531659141344cd1fd0a4f28419497f9722a3daafe3b4186f6b6457e05f80a3005b60405162461bcd60e51b815260206004820152602660248201527f4f776e61626c653a206e6577206f776e657220697320746865207a65726f206160448201526564647265737360d01b6064820152608490fd5b3461038b5760a036600319011261038b5761046f6124e2565b6104776124f8565b60443590606435906084356001600160401b03811161038b5761049e90369060040161254a565b936001600160a01b0316923384148015610837575b6104bc90612ae6565b6001600160a01b0382169182156104d38115612f09565b6104dc8361311f565b6104e58661311f565b9187156107df575b610725575b5050815f525f60205260405f20855f5260205260405f205461051685821015612f63565b5f8381526020818152604080832089845290915280822092879003909255848152208054610545908690612ed7565b905582856040518481528660208201527fc3d58168c5ae7397731d063d5bbf3d657854427343f4c083240f7aacaa2d0f6260403392a43b61058257005b5f6020946105c36040519788968795869463f23a6e6160e01b865233600487015260248601526044850152606484015260a0608484015260a48301906126cb565b03925af15f91816106f4575b50610685576105dc613092565b6308c379a01461064e575b60405162461bcd60e51b815260206004820152603460248201527f455243313135353a207472616e7366657220746f206e6f6e2d455243313135356044820152732932b1b2b4bb32b91034b6b83632b6b2b73a32b960611b606482015280608481015b0390fd5b6106566130ad565b8061066157506105e7565b60405162461bcd60e51b81526020600482015290819061064a9060248301906126cb565b6001600160e01b031916630dc5919f60e01b0161069e57005b60405162461bcd60e51b815260206004820152602860248201527f455243313135353a204552433131353552656365697665722072656a656374656044820152676420746f6b656e7360c01b6064820152608490fd5b61071791925060203d60201161071e575b61070f8183612529565b810190613072565b90826105cf565b503d610705565b949195925f979491975b86518110156107cf576107428188612b49565b519061074e818b612b49565b51825f52600460205260405f2054818110610779576001935f5260046020520360405f20550161072f565b60405162461bcd60e51b815260206004820152602860248201527f455243313135353a206275726e20616d6f756e74206578636565647320746f74604482015267616c537570706c7960c01b6064820152608490fd5b50929591945092955086806104f2565b96939097949195925f5b895181101561082957806107ff6001928a612b49565b5161080a828d612b49565b515f52600460205261082160405f20918254612ed7565b9055016107e9565b5092959194979093966104ed565b505f84815260016020908152604080832033845290915290205460ff166104b3565b3461038b57604036600319011261038b576108726124e2565b61087a6124f8565b9060018060a01b03165f52600160205260405f209060018060a01b03165f52602052602060ff60405f2054166040519015158152f35b3461038b57602036600319011261038b576004356001600160401b03811161038b576108e09036906004016127d4565b6108e8612dcc565b61091161090b6108f88351612796565b546109066008548210612a41565b6125b5565b90612ad7565b600261091d82516127b5565b61092681612a89565b61093260018201612a89565b018054905f81558161094d575b5f61094a8451612796565b55005b81600302916003830403610998575f5260205f20908101905b8181101561093f578061097a600392612a89565b61098660018201612c50565b61099260028201612a89565b01610966565b634e487b7160e01b5f52601160045260245ffd5b3461038b57602036600319011261038b576004356001600160401b03811161038b576109de60209136906004016127d4565b604051610a07816109f9858201948686526040830190612c87565b03601f198101835282612529565b519020604051908152f35b3461038b57602036600319011261038b576004355f52600c602052610a50610a3c60405f2061261a565b6040519182916020835260208301906126cb565b0390f35b3461038b57602036600319011261038b576004356001600160401b03811161038b57602080610a8a610ace93369060040161254a565b604051928184925191829101835e81016006815203019020610a50610aba6001610ab38461261a565b930161261a565b6040519384936040855260408501906126cb565b9083820360208501526126cb565b3461038b57602036600319011261038b5760043560085481101561038b57610a3c610b09610a50926125b5565b906126ba565b3461038b5760a036600319011261038b57610b286124e2565b6024356001600160401b03811161038b57610b479036906004016127d4565b6044356064356001600160401b03811161038b57610b6990369060040161254a565b916084356001600160401b03811161038b57610b8990369060040161254a565b60055460405163b65f817760e01b81526001600160a01b0387811660048301819052939693949260209183916024918391165afa908115611094575f91611051575b506001600160f81b03199081160161038b57604051602081019060208252610bfa816109f960408201876126cb565b5190205f52600d60205260ff60405f2054161561101b57604051602081019060208252610c2e816109f96040820186612c87565b519020926040516020810190828252604080820152610c54816109f96060820187612c87565b51902092835f52600c602052610c6d8160405f20612b5d565b835f52600e6020528460405f2055610c8484612d94565b811596610c918815612e24565b610c9a8661311f565b96610ca48161311f565b995f5b8951811015610ce75780610cbd6001928e612b49565b51610cc8828d612b49565b515f526004602052610cdf60405f20918254612ed7565b905501610ca7565b508a898b610fb0575b505091869391889593865f525f60205260405f20855f5260205260405f20610d19838254612ed7565b9055845f6040518981528460208201527fc3d58168c5ae7397731d063d5bbf3d657854427343f4c083240f7aacaa2d0f6260403392a43b610eeb575b5050610dbf7fda6f2bc530afd0b181eb0ce39e70c9e83c1b63ecc85e0ad9468948ec8df9eaf791845f52600c602052610d9060405f2061261a565b90815115610ee3575b50610ddb879998975191610dcd60208c01516040519586956060875260608701906126cb565b9085820360208701526126cb565b9083820360408501526126cb565b0390a460405f9301905b81518051851015610ed35784610dfa91612b49565b5151936020610e0a828551612b49565b510151946040610e1b838651612b49565b510151610e33604051926060845260608401906126cb565b8281036020840152875180825260208201906020808260051b8501019a01925f5b828110610ea8575050505050927fee7669d5ae6caeede232f92dbff97d79fc15774e78d366962582f658cfb8c7c78280610e9c8a6001988897879b9c9d0360408501526126cb565b0390a301929190610de5565b909192939a602080610ec66001938f601f19888303018a52516126cb565b9d01950193929101610e54565b6040828582519182526020820152f35b905089610d99565b610f309395506020929450604051938492839263f23a6e6160e01b84523360048501525f60248501528b6044850152606484015260a0608484015260a48301906126cb565b03815f875af15f9181610f8f575b50610f4b576105dc613092565b6001600160e01b031916630dc5919f60e01b0161069e5784918491610dbf7fda6f2bc530afd0b181eb0ce39e70c9e83c1b63ecc85e0ad9468948ec8df9eaf7610d55565b610fa991925060203d60201161071e5761070f8183612529565b9087610f3e565b9693909895925f989592985b885181101561100657610fcf818a612b49565b5190610fdb818d612b49565b51825f52600460205260405f2054818110610779576001935f5260046020520360405f205501610fbc565b50959850939692955090939092918188610cf0565b60405162461bcd60e51b815260206004820152600e60248201526d436c61737320696e61637469766560901b6044820152606490fd5b90506020813d60201161108c575b8161106c60209383612529565b8101031261038b57516001600160f81b03198116810361038b5787610bcb565b3d915061105f565b6040513d5f823e3d90fd5b3461038b57602036600319011261038b576004355f526004602052602060405f2054604051908152f35b3461038b57602036600319011261038b576004356001600160401b03811161038b576020806110fd8193369060040161254a565b604051928184925191829101835e8101600a81520301902054604051908152f35b3461038b57604036600319011261038b576111376124e2565b6024359081151580920361038b576001600160a01b0316903382146111a757335f52600160205260405f20825f5260205260405f2060ff1981541660ff83161790556040519081527f17307eab39ab6107e8899845ad3d59bd9653f200f220920489ca2b5937696c3160203392a3005b60405162461bcd60e51b815260206004820152602960248201527f455243313135353a2073657474696e6720617070726f76616c20737461747573604482015268103337b91039b2b63360b91b6064820152608490fd5b3461038b57602036600319011261038b576004356001600160401b03811161038b5761122e90369060040161254a565b611236612dcc565b80511561136557604051611261825191602081818601948086835e81016009815203019020546125e2565b61133057816112a091600b5460405160208185518086835e8101600a815203019020556020604051809284518091835e81016009815203019020612b5d565b600b54600160401b81101561131c578060016112c19201600b55600b6125cd565b61130957816112cf91612b5d565b6040516112ec816109f960208201946020865260408301906126cb565b5190205f908152600d60205260409020805460ff19166001179055005b634e487b7160e01b5f525f60045260245ffd5b634e487b7160e01b5f52604160045260245ffd5b60405162461bcd60e51b815260206004820152600d60248201526c105b1c9958591e481859191959609a1b6044820152606490fd5b60405162461bcd60e51b815260206004820152601060248201526f456d70747920636c617373206e616d6560801b6044820152606490fd5b3461038b575f36600319011261038b576003546040516001600160a01b039091168152602090f35b3461038b57602036600319011261038b576004356001600160401b03811161038b576113f59036906004016127d4565b6113fd612dcc565b60085461140a8251612796565b5561141581516127b5565b90611421815183612b5d565b60026020820192611436845160018301612b5d565b016040820151805190600160401b821161131c57825482845580831061159a575b50602001915f5260205f20915f905b8282106114e05785856114a560405160208101906020825261148f816109f96040820187612c87565b5190209251835f52600c60205260405f20612b5d565b5190600854600160401b81101561131c578060016114c8920160085560086125cd565b611309576114de926114d991612b5d565b612d94565b005b80516114ed815186612b5d565b60018501602082015190815191600160401b831161131c57815483835580841061156d575b50602001905f5260205f20905f905b838210611550575050505060206001926115446040600394015160028901612b5d565b01940191019092611466565b600160208261156183945187612b5d565b01930191019091611521565b825f528360205f2091820191015b8181106115885750611512565b80611594600192612a89565b0161157b565b80600302906003820403610998578260030260038104840361099857845f5260205f2091820191015b8181106115d05750611457565b806115dc600392612a89565b6115e860018201612c50565b6115f460028201612a89565b016115c3565b3461038b57602036600319011261038b576004356001600160401b03811161038b5760208061162e8193369060040161254a565b604051928184925191829101835e8101600781520301902054604051908152f35b3461038b57602036600319011261038b576004356001600160401b03811161038b57610a3c602080611688610a5094369060040161254a565b604051928184925191829101835e8101600981520301902061261a565b3461038b57602036600319011261038b576004355f52600d602052602060ff60405f2054166040519015158152f35b3461038b575f36600319011261038b576116ec612dcc565b600380546001600160a01b031981169091555f906001600160a01b03167f8be0079c531659141344cd1fd0a4f28419497f9722a3daafe3b4186f6b6457e08280a3005b3461038b57606036600319011261038b576117486124e2565b6024356001600160401b03811161038b57611767903690600401612706565b906044356001600160401b03811161038b57611787903690600401612706565b6001600160a01b0390911690338214801561196f575b6117a690612ae6565b8115926117b38415612fc2565b6117c08151835114612e7a565b6020935f6040516117d18782612529565b52611926575b5f5b815181101561187b576117ec8183612b49565b516117f78285612b49565b5190805f526004875260405f205490828210611825579060019392915f52600488520360405f2055016117d9565b60405162461bcd60e51b815260048101899052602860248201527f455243313135353a206275726e20616d6f756e74206578636565647320746f74604482015267616c537570706c7960c01b6064820152608490fd5b50925f5b84518110156118de578061189560019287612b49565b516118a08286612b49565b51815f525f855260405f20875f52855260405f2054916118c28284101561301a565b5f525f855260405f20875f52855260405f20910390550161187f565b50915f937f4a39dc06d4c0dbc64b70af90fd698a233a518aa5d07e595d983b8c0526c8f7fb6119168694604051918291339583612ee4565b0390a46103156040519182612529565b905f5b8251811015611968578061193f60019284612b49565b5161194a8286612b49565b515f526004875261196060405f20918254612ed7565b905501611929565b50906117d7565b505f82815260016020908152604080832033845290915290205460ff1661179d565b3461038b57602036600319011261038b576004355f52600e602052602060405f2054604051908152f35b3461038b57602036600319011261038b576004355f526004602052602060405f20541515604051908152f35b3461038b57604036600319011261038b576004356001600160401b03811161038b573660238201121561038b578060040135611a22816126ef565b91611a306040519384612529565b8183526024602084019260051b8201019036821161038b57602401915b818310611b6257836024356001600160401b03811161038b57611a74903690600401612706565b908051825103611b0b57805191611a8a836126ef565b92611a986040519485612529565b808452611aa7601f19916126ef565b013660208501375f5b8251811015611af557600190611ae46001600160a01b03611ad18387612b49565b5116611add8386612b49565b51906129b9565b611aee8287612b49565b5201611ab0565b60405160208082528190610a5090820187612763565b60405162461bcd60e51b815260206004820152602960248201527f455243313135353a206163636f756e747320616e6420696473206c656e677468604482015268040dad2e6dac2e8c6d60bb1b6064820152608490fd5b82356001600160a01b038116810361038b57815260209283019201611a4d565b3461038b57602036600319011261038b57600435600f5481101561038b57600f54811015611bdc57600f5f527f8d1108e10bcb7c27dddfc02ed9d693a074039d026cf4ea4240b40f7d581ac8020154604051908152602090f35b634e487b7160e01b5f52603260045260245ffd5b3461038b5760a036600319011261038b57611c096124e2565b611c116124f8565b6044356001600160401b03811161038b57611c30903690600401612706565b6064356001600160401b03811161038b57611c4f903690600401612706565b926084356001600160401b03811161038b57611c6f90369060040161254a565b6001600160a01b03909116913383148015611eeb575b611c8e90612ae6565b611c9b8151865114612e7a565b6001600160a01b038416918215611cb28115612f09565b8415611e97575b611e3b575b5f5b8251811015611d465780611cd660019285612b49565b51611ce1828a612b49565b5190805f525f60205260405f20885f5260205260405f2054611d0583821015612f63565b815f525f60205260405f20895f526020528260405f20910390555f525f60205260405f20865f52602052611d3e60405f20918254612ed7565b905501611cc0565b509382846040517f4a39dc06d4c0dbc64b70af90fd698a233a518aa5d07e595d983b8c0526c8f7fb339180611d7c8c8983612ee4565b0390a43b611d8657005b5f611dc493611de8602096611dd6604051998a988997889663bc197c8160e01b8852336004890152602488015260a0604488015260a4870190612763565b85810360031901606487015290612763565b838103600319016084850152906126cb565b03925af15f9181611e1a575b50611e01576105dc613092565b6001600160e01b0319166343e6837f60e01b0161069e57005b611e3491925060203d60201161071e5761070f8183612529565b9082611df4565b93915f9391935b8451811015611e8c57611e558186612b49565b5190611e618189612b49565b51825f52600460205260405f2054818110610779576001935f5260046020520360405f205501611e42565b509193929092611cbe565b9492905f9492945b8551811015611edf5780611eb56001928a612b49565b51611ec08289612b49565b515f526004602052611ed760405f20918254612ed7565b905501611e9f565b50909294939193611cb9565b505f83815260016020908152604080832033845290915290205460ff16611c85565b3461038b57608036600319011261038b57611f266124e2565b6024356001600160401b03811161038b57611f45903690600401612706565b906044356001600160401b03811161038b57611f65903690600401612706565b916064356001600160401b03811161038b57611f8590369060040161254a565b91611f8e612dcc565b6001600160a01b03811680159390611fa68515612e24565b611fb38451875114612e7a565b5f5b8451811015611ff55780611fcb60019289612b49565b51611fd68288612b49565b515f526004602052611fed60405f20918254612ed7565b905501611fb5565b50919490936120ca575b5f5b835181101561204a578061201760019284612b49565b516120228287612b49565b515f525f60205260405f20855f5260205261204260405f20918254612ed7565b905501612001565b509193815f6040517f4a39dc06d4c0dbc64b70af90fd698a233a518aa5d07e595d983b8c0526c8f7fb339180612081898c83612ee4565b0390a43b61208b57005b611dc45f611dd695611de86020966040519889978896879563bc197c8160e01b875233600488015287602488015260a0604488015260a4870190612763565b9390925f5b8351811015612119576120e28185612b49565b51906120ee8188612b49565b51825f52600460205260405f2054818110610779576001935f5260046020520360405f2055016120cf565b50929093611fff565b3461038b57602036600319011261038b576004356001600160401b03811161038b5761215290369060040161254a565b61215a612dcc565b5f60405161218f61090b845192602081818801958087835e8101600a8152030190205461218a600b548210612a41565b61259d565b6121ad60405160208186518086835e81016009815203019020612a89565b6020604051809285518091835e8101600a815203019020556040516121e2816109f960208201946020865260408301906126cb565b5190205f908152600d60205260409020805460ff19169055005b3461038b57602036600319011261038b576040515f60025461221d816125e2565b80845290600181169081156122a35750600114612245575b610a5083610a3c81850382612529565b60025f9081527f405787fa12a823e0f2b7631cc41b3ba8828b3321ca811111fa75cd3aa3bb5ace939250905b80821061228957509091508101602001610a3c612235565b919260018160209254838588010152019101909291612271565b60ff191660208086019190915291151560051b84019091019150610a3c9050612235565b3461038b57602036600319011261038b57600435600b5481101561038b57610a3c610b09610a509261259d565b3461038b57602036600319011261038b576004356001600160401b03811161038b5761232490369060040161254a565b61232c612dcc565b80516001600160401b03811161131c576123476002546125e2565b601f81116123ec575b50602091601f821160011461238f5761237f925f9183612384575b50508160011b915f199060031b1c19161790565b600255005b01519050838061236b565b601f1982169260025f52805f20915f5b8581106123d4575083600195106123bc575b505050811b01600255005b01515f1960f88460031b161c191690558280806123b1565b9192602060018192868501518155019401920161239f565b60025f52612435907f405787fa12a823e0f2b7631cc41b3ba8828b3321ca811111fa75cd3aa3bb5ace601f840160051c8101916020851061243b575b601f0160051c0190612a73565b82612350565b9091508190612428565b3461038b57602036600319011261038b5760043563ffffffff60e01b811680910361038b57602090636cdb3d1360e11b81149081156124a2575b8115612491575b506040519015158152f35b6301ffc9a760e01b14905082612486565b6303a24d0760e21b8114915061247f565b3461038b57604036600319011261038b5760206124da6124d16124e2565b602435906129b9565b604051908152f35b600435906001600160a01b038216820361038b57565b602435906001600160a01b038216820361038b57565b606081019081106001600160401b0382111761131c57604052565b90601f801991011681019081106001600160401b0382111761131c57604052565b81601f8201121561038b576020813591016001600160401b03821161131c5760405192612581601f8401601f191660200185612529565b8284528282011161038b57815f92602092838601378301015290565b600b54811015611bdc57600b5f5260205f2001905f90565b600854811015611bdc5760085f5260205f2001905f90565b8054821015611bdc575f5260205f2001905f90565b90600182811c92168015612610575b60208310146125fc57565b634e487b7160e01b5f52602260045260245ffd5b91607f16916125f1565b9060405191825f82549261262d846125e2565b80845293600181169081156126985750600114612654575b5061265292500383612529565b565b90505f9291925260205f20905f915b81831061267c575050906020612652928201015f612645565b6020919350806001915483858901015201910190918492612663565b90506020925061265294915060ff191682840152151560051b8201015f612645565b90611309576126c89061261a565b90565b805180835260209291819084018484015e5f828201840152601f01601f1916010190565b6001600160401b03811161131c5760051b60200190565b9080601f8301121561038b57813561271d816126ef565b9261272b6040519485612529565b81845260208085019260051b82010192831161038b57602001905b8282106127535750505090565b8135815260209182019101612746565b90602080835192838152019201905f5b8181106127805750505090565b8251845260209384019390920191600101612773565b60208091604051928184925191829101835e8101600781520301902090565b60208091604051928184925191829101835e8101600681520301902090565b919060608382031261038b576040516127ec8161250e565b809380356001600160401b03811161038b578361280a91830161254a565b825260208101356001600160401b03811161038b578361282b91830161254a565b60208301526040810135906001600160401b03821161038b57019180601f8401121561038b5782359261285d846126ef565b9361286b6040519586612529565b80855260208086019160051b8301019183831161038b5760208101915b83831061289a57505050505060400152565b82356001600160401b03811161038b578201906060828703601f19011261038b57604051906128c88261250e565b60208301356001600160401b03811161038b578760206128ea9286010161254a565b825260408301356001600160401b03811161038b5760209084010187601f8201121561038b57803561291b816126ef565b916129296040519384612529565b81835260208084019260051b820101918a831161038b5760208201905b83821061298c575050505060208301526060830135916001600160401b03831161038b5761297c8860208096958196010161254a565b6040820152815201920191612888565b81356001600160401b03811161038b576020916129ae8e84809488010161254a565b815201910190612946565b906001600160a01b038216156129e9575f525f60205260405f209060018060a01b03165f5260205260405f205490565b60405162461bcd60e51b815260206004820152602a60248201527f455243313135353a2061646472657373207a65726f206973206e6f742061207660448201526930b634b21037bbb732b960b11b6064820152608490fd5b15612a4857565b60405162461bcd60e51b815260206004820152600360248201526227a7a160e91b6044820152606490fd5b818110612a7e575050565b5f8155600101612a73565b612a9381546125e2565b9081612a9d575050565b81601f5f9311600114612aae575055565b81835260208320612aca91601f0160051c810190600101612a73565b8082528160208120915555565b9061130957612a9381546125e2565b15612aed57565b60405162461bcd60e51b815260206004820152602e60248201527f455243313135353a2063616c6c6572206973206e6f7420746f6b656e206f776e60448201526d195c881bdc88185c1c1c9bdd995960921b6064820152608490fd5b8051821015611bdc5760209160051b010190565b91909182516001600160401b03811161131c57612b7a82546125e2565b601f8111612c20575b506020601f8211600114612bc2578190612bb39394955f92612bb75750508160011b915f199060031b1c19161790565b9055565b015190505f8061236b565b601f19821690835f52805f20915f5b818110612c0857509583600195969710612bf0575b505050811b019055565b01515f1960f88460031b161c191690555f8080612be6565b9192602060018192868b015181550194019201612bd1565b612c4a90835f5260205f20601f840160051c8101916020851061243b57601f0160051c0190612a73565b5f612b83565b8054905f815581612c5f575050565b5f5260205f20908101905b818110612c75575050565b80612c81600192612a89565b01612c6a565b6040612cb1612c9f83516060865260608601906126cb565b602084015185820360208701526126cb565b910151916040818303910152815180825260208201916020808360051b8301019401925f915b838310612ce657505050505090565b9091929394601f19828203018352855190612d0a82516060835260608301906126cb565b9160208101519282810360208401528351808252602082016020808360051b8501019601925f5b838110612d69575050505050612d5a6001936020936040859401519060408184039101526126cb565b97019301930191939290612cd7565b9091929396602080612d87600193601f198782030188528b516126cb565b9901959401929101612d31565b600f54600160401b81101561131c57806001612db59201600f55600f6125cd565b819291549060031b91821b915f19901b1916179055565b6003546001600160a01b03163303612de057565b606460405162461bcd60e51b815260206004820152602060248201527f4f776e61626c653a2063616c6c6572206973206e6f7420746865206f776e65726044820152fd5b15612e2b57565b60405162461bcd60e51b815260206004820152602160248201527f455243313135353a206d696e7420746f20746865207a65726f206164647265736044820152607360f81b6064820152608490fd5b15612e8157565b60405162461bcd60e51b815260206004820152602860248201527f455243313135353a2069647320616e6420616d6f756e7473206c656e677468206044820152670dad2e6dac2e8c6d60c31b6064820152608490fd5b9190820180921161099857565b9091612efb6126c893604084526040840190612763565b916020818403910152612763565b15612f1057565b60405162461bcd60e51b815260206004820152602560248201527f455243313135353a207472616e7366657220746f20746865207a65726f206164604482015264647265737360d81b6064820152608490fd5b15612f6a57565b60405162461bcd60e51b815260206004820152602a60248201527f455243313135353a20696e73756666696369656e742062616c616e636520666f60448201526939103a3930b739b332b960b11b6064820152608490fd5b15612fc957565b60405162461bcd60e51b815260206004820152602360248201527f455243313135353a206275726e2066726f6d20746865207a65726f206164647260448201526265737360e81b6064820152608490fd5b1561302157565b60405162461bcd60e51b8152602060048201526024808201527f455243313135353a206275726e20616d6f756e7420657863656564732062616c604482015263616e636560e01b6064820152608490fd5b9081602091031261038b57516001600160e01b03198116810361038b5790565b5f9060033d1161309e57565b905060045f803e5f5160e01c90565b5f60443d106126c8576040513d600319016004823e8051913d60248401116001600160401b0384111761311957828201928351916001600160401b038311613111573d8401600319018584016020011161311157506126c892910160200190612529565b949350505050565b92915050565b6040519061312e604083612529565b60018252602080830190368237825115611bdc57529056fea26469706673582212209e02d054d922bb2511966b31f0a5b260c3686b2af7a0bead2f2e887e3ce0bf8f64736f6c634300081c0033","linkReferences":{}},"methodIdentifiers":{"addSupportedAsset((string,string,(string,string[],string)[]))":"807c6d12","addSupportedClass(string)":"902c50d8","balanceOf(address,uint256)":"00fdd58e","balanceOfBatch(address[],uint256[])":"4e1273f4","burn(address,uint256,uint256)":"f5298aca","burnBatch(address,uint256[],uint256[])":"6b20c454","exists(uint256)":"4f558e79","hashToClass(bytes32)":"d27e1c3e","hashToTokenID(bytes32)":"59383991","ipfsID(uint256)":"46948cd6","isApprovedForAll(address,address)":"e985e9c5","isClassActive(bytes32)":"77ab5ecc","lookupHash((string,string,(string,string[],string)[]))":"da5d26ac","mintBatch(address,uint256[],uint256[],bytes)":"1f7fdffa","nameToSupportedAssetIndex(string)":"7c9fd810","nameToSupportedAssets(string)":"caa149b7","nameToSupportedClass(string)":"7a5db0c4","nameToSupportedClassIndex(string)":"b2b0017a","nodeMint(address,(string,string,(string,string[],string)[]),uint256,string,bytes)":"bf72dbe1","owner()":"8da5cb5b","removeSupportedAsset((string,string,(string,string[],string)[]))":"e6756ee4","removeSupportedClass(string)":"1a82d023","renounceOwnership()":"715018a6","safeBatchTransferFrom(address,address,uint256[],uint256[],bytes)":"2eb2c2d6","safeTransferFrom(address,address,uint256,uint256,bytes)":"f242432a","setApprovalForAll(address,bool)":"a22cb465","setURI(string)":"02fe5305","supportedAssets(uint256)":"c68dbb37","supportedClasses(uint256)":"0877db7f","supportsInterface(bytes4)":"01ffc9a7","totalSupply(uint256)":"bd85b039","transferOwnership(address)":"f2fde38b","uri(uint256)":"0e89341c"},"id":3}