{
  "_format": "hh-sol-artifact-1",
  "contractName": "aurumNode",
  "sourceName": "contracts/Aurum.sol",
  "abi": [
    {
      "inputs": [
        {
          "internalType": "address",
          "name": "_owner",
          "type": "address"
        },
        {
          "internalType": "contract Ausys",
          "name": "_ausys",
          "type": "address"
        },
        {
          "internalType": "contract AuraAsset",
          "name": "_auraAsset",
          "type": "address"
        },
        {
          "internalType": "contract AurumNodeManager",
          "name": "_manager",
          "type": "address"
        }
      ],
      "stateMutability": "nonpayable",
      "type": "constructor"
    },
    {
      "anonymous": false,
      "inputs": [
        {
          "indexed": true,
          "internalType": "address",
          "name": "previousOwner",
          "type": "address"
        },
        {
          "indexed": true,
          "internalType": "address",
          "name": "newOwner",
          "type": "address"
        }
      ],
      "name": "OwnershipTransferred",
      "type": "event"
    },
    {
      "inputs": [
        {
          "internalType": "address",
          "name": "itemOwner",
          "type": "address"
        },
        {
          "internalType": "uint256",
          "name": "amount",
          "type": "uint256"
        },
        {
          "components": [
            {
              "internalType": "string",
              "name": "name",
              "type": "string"
            },
            {
              "internalType": "string",
              "name": "assetClass",
              "type": "string"
            },
            {
              "components": [
                {
                  "internalType": "string",
                  "name": "name",
                  "type": "string"
                },
                {
                  "internalType": "string[]",
                  "name": "values",
                  "type": "string[]"
                },
                {
                  "internalType": "string",
                  "name": "description",
                  "type": "string"
                }
              ],
              "internalType": "struct AuraAsset.Attribute[]",
              "name": "attributes",
              "type": "tuple[]"
            }
          ],
          "internalType": "struct AuraAsset.Asset",
          "name": "asset",
          "type": "tuple"
        },
        {
          "internalType": "string",
          "name": "className",
          "type": "string"
        },
        {
          "internalType": "bytes",
          "name": "data",
          "type": "bytes"
        }
      ],
      "name": "addItem",
      "outputs": [
        {
          "internalType": "uint256",
          "name": "tokenId",
          "type": "uint256"
        }
      ],
      "stateMutability": "nonpayable",
      "type": "function"
    },
    {
      "inputs": [],
      "name": "approveAusysForTokens",
      "outputs": [],
      "stateMutability": "nonpayable",
      "type": "function"
    },
    {
      "inputs": [
        {
          "internalType": "bytes32",
          "name": "id",
          "type": "bytes32"
        }
      ],
      "name": "nodeHandOn",
      "outputs": [],
      "stateMutability": "nonpayable",
      "type": "function"
    },
    {
      "inputs": [
        {
          "internalType": "bytes32",
          "name": "id",
          "type": "bytes32"
        }
      ],
      "name": "nodeHandoff",
      "outputs": [],
      "stateMutability": "nonpayable",
      "type": "function"
    },
    {
      "inputs": [
        {
          "internalType": "bytes32",
          "name": "id",
          "type": "bytes32"
        }
      ],
      "name": "nodeSign",
      "outputs": [],
      "stateMutability": "nonpayable",
      "type": "function"
    },
    {
      "inputs": [
        {
          "internalType": "address",
          "name": "",
          "type": "address"
        },
        {
          "internalType": "address",
          "name": "",
          "type": "address"
        },
        {
          "internalType": "uint256[]",
          "name": "",
          "type": "uint256[]"
        },
        {
          "internalType": "uint256[]",
          "name": "",
          "type": "uint256[]"
        },
        {
          "internalType": "bytes",
          "name": "",
          "type": "bytes"
        }
      ],
      "name": "onERC1155BatchReceived",
      "outputs": [
        {
          "internalType": "bytes4",
          "name": "",
          "type": "bytes4"
        }
      ],
      "stateMutability": "nonpayable",
      "type": "function"
    },
    {
      "inputs": [
        {
          "internalType": "address",
          "name": "",
          "type": "address"
        },
        {
          "internalType": "address",
          "name": "",
          "type": "address"
        },
        {
          "internalType": "uint256",
          "name": "",
          "type": "uint256"
        },
        {
          "internalType": "uint256",
          "name": "",
          "type": "uint256"
        },
        {
          "internalType": "bytes",
          "name": "",
          "type": "bytes"
        }
      ],
      "name": "onERC1155Received",
      "outputs": [
        {
          "internalType": "bytes4",
          "name": "",
          "type": "bytes4"
        }
      ],
      "stateMutability": "nonpayable",
      "type": "function"
    },
    {
      "inputs": [],
      "name": "owner",
      "outputs": [
        {
          "internalType": "address",
          "name": "",
          "type": "address"
        }
      ],
      "stateMutability": "view",
      "type": "function"
    },
    {
      "inputs": [],
      "name": "renounceOwnership",
      "outputs": [],
      "stateMutability": "nonpayable",
      "type": "function"
    },
    {
      "inputs": [],
      "name": "revokeAusysApproval",
      "outputs": [],
      "stateMutability": "nonpayable",
      "type": "function"
    },
    {
      "inputs": [
        {
          "internalType": "bytes4",
          "name": "interfaceId",
          "type": "bytes4"
        }
      ],
      "name": "supportsInterface",
      "outputs": [
        {
          "internalType": "bool",
          "name": "",
          "type": "bool"
        }
      ],
      "stateMutability": "view",
      "type": "function"
    },
    {
      "inputs": [
        {
          "internalType": "address",
          "name": "newOwner",
          "type": "address"
        }
      ],
      "name": "transferOwnership",
      "outputs": [],
      "stateMutability": "nonpayable",
      "type": "function"
    }
  ],
  "bytecode": "0x6080346100e857601f610d7638819003918201601f19168301916001600160401b038311848410176100ed578084926080946040528339810103126100e8578051906001600160a01b03821682036100e85760208101516001600160a01b038116908190036100e85760408201516001600160a01b03811692908390036100e857606001516001600160a01b03811693908490036100e8576100a9906100a433610103565b610103565b60018060a01b0319600154161760015560018060a01b0319600254161760025560018060a01b03196003541617600355604051610c2b908161014b8239f35b600080fd5b634e487b7160e01b600052604160045260246000fd5b600080546001600160a01b039283166001600160a01b03198216811783559216907f8be0079c531659141344cd1fd0a4f28419497f9722a3daafe3b4186f6b6457e09080a356fe608080604052600436101561001357600080fd5b600090813560e01c90816301ffc9a7146109a0575080632eb27f3e146109485780634af3b6da146108c65780635a50a5421461085a578063715018a6146108005780637cb87a591461077c5780638da5cb5b14610755578063a2f9e738146102d8578063bc09fca81461025d578063bc197c81146101c7578063f23a6e611461016d5763f2fde38b146100a557600080fd5b3461016a57602036600319011261016a576100be6109f9565b6100c6610b9d565b6001600160a01b031680156101165781546001600160a01b03198116821783556001600160a01b03167f8be0079c531659141344cd1fd0a4f28419497f9722a3daafe3b4186f6b6457e08380a380f35b60405162461bcd60e51b815260206004820152602660248201527f4f776e61626c653a206e6577206f776e657220697320746865207a65726f206160448201526564647265737360d01b6064820152608490fd5b80fd5b503461016a5760a036600319011261016a576101876109f9565b50610190610a14565b506084356001600160401b0381116101c3576101b0903690600401610a7c565b5060405163f23a6e6160e01b8152602090f35b5080fd5b503461016a5760a036600319011261016a576101e16109f9565b506101ea610a14565b506044356001600160401b0381116101c35761020a903690600401610ae7565b506064356001600160401b0381116101c35761022a903690600401610ae7565b506084356001600160401b0381116101c35761024a903690600401610a7c565b5060405163bc197c8160e01b8152602090f35b503461016a57602036600319011261016a57610277610b9d565b60015481906001600160a01b0316803b156102d5578180916024604051809481936314c1aec560e21b835260043560048401525af180156102ca576102b95750f35b816102c391610a5b565b61016a5780f35b6040513d84823e3d90fd5b50fd5b503461016a5760a036600319011261016a576102f26109f9565b906044356001600160401b0381116101c357606060031982360301126101c3576040519061031f82610a2a565b80600401356001600160401b038111610751576103429060043691840101610a7c565b825260248101356001600160401b038111610751576103679060043691840101610a7c565b90602083019182526044810135906001600160401b03821161061357013660238201121561075157600481013561039d81610ad0565b916103ab6040519384610a5b565b818352602060048185019360051b830101019036821161074d5760248101925b8284106106175750505050604083019081526064356001600160401b038111610613576103fc903690600401610a7c565b6084356001600160401b03811161060f57916104218692959794933690600401610a7c565b9061042a610b9d565b60025460405163bf72dbe160e01b81526001600160a01b03968716600482015260a060248201529851606060a48b01528996909116946104869161047390610104890190610b5c565b905187820360a3190160c4890152610b5c565b90519060a3198682030160e4870152815180825260208201916020808360051b83010194019286915b8383106105555750505050506104f48593926104e285936040996024356044870152600319868303016064870152610b5c565b83810360031901608485015290610b5c565b03925af1908115610549578091610511575b602082604051908152f35b90506040823d604011610541575b8161052c60409383610a5b565b8101031261016a575060208091015138610506565b3d915061051f565b604051903d90823e3d90fd5b92959850929698955092601f1982820301835286519061057e8251606083526060830190610b5c565b918b602082015193838103602085015284519081815260208101906020808460051b8301019701935b8381106105e45750505050506105d0600193602093604085940151906040818403910152610b5c565b98019301930189959896938b9895926104af565b9091929396602080610602600193601f198782030188528b51610b5c565b99019594019291016105a7565b8580fd5b8480fd5b83356001600160401b038111610749576004908301016060601f198236030112610749576040519061064882610a2a565b60208101356001600160401b03811161070f5761066b9060203691840101610a7c565b825260408101356001600160401b03811161070f5760209082010136601f8201121561070f5780359061069d82610ad0565b916106ab6040519384610a5b565b80835260208084019160051b830101903682116107455760208301905b8282106107135750505050602083015260608101356001600160401b03811161070f57916106ff6020949285809536920101610a7c565b60408201528152019301926103cb565b8a80fd5b81356001600160401b038111610741576020916107368392833691890101610a7c565b8152019101906106c8565b8f80fd5b8d80fd5b8880fd5b8680fd5b8380fd5b503461016a578060031936011261016a57546040516001600160a01b039091168152602090f35b503461016a57602036600319011261016a57610796610b9d565b6001546040516313b33c8360e31b81526004803590820152906020908290602490829086906001600160a01b03165af180156102ca576107d4575080f35b6107f59060203d6020116107f9575b6107ed8183610a5b565b810190610b44565b5080f35b503d6107e3565b503461016a578060031936011261016a57610819610b9d565b80546001600160a01b03198116825581906001600160a01b03167f8be0079c531659141344cd1fd0a4f28419497f9722a3daafe3b4186f6b6457e08280a380f35b503461016a578060031936011261016a57610873610b9d565b60025460015482916001600160a01b039081169116813b156108c257829160448392604051948593849263a22cb46560e01b84526004840152600160248401525af180156102ca576102b95750f35b5050fd5b503461016a578060031936011261016a576108df610b9d565b60025460015482916001600160a01b039081169116813b156108c257829160448392604051958693849263a22cb46560e01b845260048401528160248401525af1801561093b5761092d5780f35b61093691610a5b565b388180f35b50604051903d90823e3d90fd5b503461016a57602036600319011261016a57610962610b9d565b600154604051632f5633a960e21b81526004803590820152906020908290602490829086906001600160a01b03165af180156102ca576107d4575080f35b9050346101c35760203660031901126101c35760043563ffffffff60e01b81168091036109f55760209250630271189760e51b81149081156109e4575b5015158152f35b6301ffc9a760e01b149050386109dd565b8280fd5b600435906001600160a01b0382168203610a0f57565b600080fd5b602435906001600160a01b0382168203610a0f57565b606081019081106001600160401b03821117610a4557604052565b634e487b7160e01b600052604160045260246000fd5b90601f801991011681019081106001600160401b03821117610a4557604052565b81601f82011215610a0f576020813591016001600160401b038211610a455760405192610ab3601f8401601f191660200185610a5b565b82845282820111610a0f5781600092602092838601378301015290565b6001600160401b038111610a455760051b60200190565b9080601f83011215610a0f578135610afe81610ad0565b92610b0c6040519485610a5b565b81845260208085019260051b820101928311610a0f57602001905b828210610b345750505090565b8135815260209182019101610b27565b90816020910312610a0f57518015158103610a0f5790565b919082519283825260005b848110610b88575050826000602080949584010152601f8019910116010190565b80602080928401015182828601015201610b67565b6000546001600160a01b03163303610bb157565b606460405162461bcd60e51b815260206004820152602060248201527f4f776e61626c653a2063616c6c6572206973206e6f7420746865206f776e65726044820152fdfea2646970667358221220bf0b9479a34c3c156585795196acf28f4be91c3174bf1890297110f7512bc42664736f6c634300081c0033",
  "linkReferences": {},
  "deployedLinkReferences": {}
}