{
  "_format": "hh-sol-artifact-1",
  "contractName": "AurumNodeManager",
  "sourceName": "contracts/Aurum.sol",
  "abi": [
    {
      "inputs": [
        {
          "internalType": "contract locationContract",
          "name": "_ausys",
          "type": "address"
        },
        {
          "internalType": "address",
          "name": "_admin",
          "type": "address"
        }
      ],
      "stateMutability": "nonpayable",
      "type": "constructor"
    },
    {
      "anonymous": false,
      "inputs": [
        {
          "indexed": false,
          "internalType": "address",
          "name": "admin",
          "type": "address"
        }
      ],
      "name": "eventUpdateAdmin",
      "type": "event"
    },
    {
      "anonymous": false,
      "inputs": [
        {
          "indexed": false,
          "internalType": "string",
          "name": "location",
          "type": "string"
        },
        {
          "indexed": false,
          "internalType": "address",
          "name": "node",
          "type": "address"
        }
      ],
      "name": "eventUpdateLocation",
      "type": "event"
    },
    {
      "anonymous": false,
      "inputs": [
        {
          "indexed": false,
          "internalType": "address",
          "name": "owner",
          "type": "address"
        },
        {
          "indexed": false,
          "internalType": "address",
          "name": "node",
          "type": "address"
        }
      ],
      "name": "eventUpdateOwner",
      "type": "event"
    },
    {
      "anonymous": false,
      "inputs": [
        {
          "indexed": false,
          "internalType": "bytes1",
          "name": "status",
          "type": "bytes1"
        },
        {
          "indexed": false,
          "internalType": "address",
          "name": "node",
          "type": "address"
        }
      ],
      "name": "eventUpdateStatus",
      "type": "event"
    },
    {
      "anonymous": false,
      "inputs": [
        {
          "indexed": false,
          "internalType": "string[]",
          "name": "supportedAssets",
          "type": "string[]"
        },
        {
          "indexed": false,
          "internalType": "uint256[]",
          "name": "capacity",
          "type": "uint256[]"
        }
      ],
      "name": "eventUpdateSupportedAssets",
      "type": "event"
    },
    {
      "inputs": [
        {
          "internalType": "address",
          "name": "",
          "type": "address"
        }
      ],
      "name": "AllNodes",
      "outputs": [
        {
          "components": [
            {
              "internalType": "string",
              "name": "addressName",
              "type": "string"
            },
            {
              "components": [
                {
                  "internalType": "string",
                  "name": "lat",
                  "type": "string"
                },
                {
                  "internalType": "string",
                  "name": "lng",
                  "type": "string"
                }
              ],
              "internalType": "struct AurumNodeManager.Location",
              "name": "location",
              "type": "tuple"
            }
          ],
          "internalType": "struct AurumNodeManager.NodeLocationData",
          "name": "location",
          "type": "tuple"
        },
        {
          "internalType": "bytes1",
          "name": "validNode",
          "type": "bytes1"
        },
        {
          "internalType": "address",
          "name": "owner",
          "type": "address"
        },
        {
          "internalType": "bytes1",
          "name": "status",
          "type": "bytes1"
        }
      ],
      "stateMutability": "view",
      "type": "function"
    },
    {
      "inputs": [
        {
          "internalType": "contract AuraGoat",
          "name": "_auraGoat",
          "type": "address"
        }
      ],
      "name": "addToken",
      "outputs": [],
      "stateMutability": "nonpayable",
      "type": "function"
    },
    {
      "inputs": [
        {
          "internalType": "address",
          "name": "node",
          "type": "address"
        },
        {
          "internalType": "uint256[]",
          "name": "quantities",
          "type": "uint256[]"
        },
        {
          "internalType": "uint256[]",
          "name": "assets",
          "type": "uint256[]"
        }
      ],
      "name": "expensiveFuzzyUpdateCapacity",
      "outputs": [],
      "stateMutability": "nonpayable",
      "type": "function"
    },
    {
      "inputs": [
        {
          "internalType": "address",
          "name": "nodeAddress",
          "type": "address"
        }
      ],
      "name": "getNode",
      "outputs": [
        {
          "components": [
            {
              "components": [
                {
                  "internalType": "string",
                  "name": "addressName",
                  "type": "string"
                },
                {
                  "components": [
                    {
                      "internalType": "string",
                      "name": "lat",
                      "type": "string"
                    },
                    {
                      "internalType": "string",
                      "name": "lng",
                      "type": "string"
                    }
                  ],
                  "internalType": "struct AurumNodeManager.Location",
                  "name": "location",
                  "type": "tuple"
                }
              ],
              "internalType": "struct AurumNodeManager.NodeLocationData",
              "name": "location",
              "type": "tuple"
            },
            {
              "internalType": "bytes1",
              "name": "validNode",
              "type": "bytes1"
            },
            {
              "internalType": "address",
              "name": "owner",
              "type": "address"
            },
            {
              "internalType": "uint256[]",
              "name": "supportedAssets",
              "type": "uint256[]"
            },
            {
              "internalType": "bytes1",
              "name": "status",
              "type": "bytes1"
            },
            {
              "internalType": "uint256[]",
              "name": "capacity",
              "type": "uint256[]"
            }
          ],
          "internalType": "struct AurumNodeManager.Node",
          "name": "node",
          "type": "tuple"
        }
      ],
      "stateMutability": "view",
      "type": "function"
    },
    {
      "inputs": [
        {
          "internalType": "address",
          "name": "node",
          "type": "address"
        },
        {
          "internalType": "address",
          "name": "driver",
          "type": "address"
        },
        {
          "internalType": "address",
          "name": "reciever",
          "type": "address"
        },
        {
          "internalType": "bytes32",
          "name": "id",
          "type": "bytes32"
        },
        {
          "internalType": "uint256[]",
          "name": "tokenIds",
          "type": "uint256[]"
        },
        {
          "internalType": "address",
          "name": "token",
          "type": "address"
        },
        {
          "internalType": "uint256[]",
          "name": "quantities",
          "type": "uint256[]"
        },
        {
          "internalType": "bytes",
          "name": "data",
          "type": "bytes"
        }
      ],
      "name": "nodeHandoff",
      "outputs": [],
      "stateMutability": "nonpayable",
      "type": "function"
    },
    {
      "inputs": [],
      "name": "nodeIdCounter",
      "outputs": [
        {
          "internalType": "uint256",
          "name": "",
          "type": "uint256"
        }
      ],
      "stateMutability": "view",
      "type": "function"
    },
    {
      "inputs": [
        {
          "internalType": "uint256",
          "name": "",
          "type": "uint256"
        }
      ],
      "name": "nodeList",
      "outputs": [
        {
          "internalType": "address",
          "name": "",
          "type": "address"
        }
      ],
      "stateMutability": "view",
      "type": "function"
    },
    {
      "inputs": [
        {
          "internalType": "address",
          "name": "",
          "type": "address"
        },
        {
          "internalType": "uint256",
          "name": "",
          "type": "uint256"
        }
      ],
      "name": "ownedNodes",
      "outputs": [
        {
          "internalType": "address",
          "name": "",
          "type": "address"
        }
      ],
      "stateMutability": "view",
      "type": "function"
    },
    {
      "inputs": [
        {
          "components": [
            {
              "components": [
                {
                  "internalType": "string",
                  "name": "addressName",
                  "type": "string"
                },
                {
                  "components": [
                    {
                      "internalType": "string",
                      "name": "lat",
                      "type": "string"
                    },
                    {
                      "internalType": "string",
                      "name": "lng",
                      "type": "string"
                    }
                  ],
                  "internalType": "struct AurumNodeManager.Location",
                  "name": "location",
                  "type": "tuple"
                }
              ],
              "internalType": "struct AurumNodeManager.NodeLocationData",
              "name": "location",
              "type": "tuple"
            },
            {
              "internalType": "bytes1",
              "name": "validNode",
              "type": "bytes1"
            },
            {
              "internalType": "address",
              "name": "owner",
              "type": "address"
            },
            {
              "internalType": "uint256[]",
              "name": "supportedAssets",
              "type": "uint256[]"
            },
            {
              "internalType": "bytes1",
              "name": "status",
              "type": "bytes1"
            },
            {
              "internalType": "uint256[]",
              "name": "capacity",
              "type": "uint256[]"
            }
          ],
          "internalType": "struct AurumNodeManager.Node",
          "name": "node",
          "type": "tuple"
        }
      ],
      "name": "registerNode",
      "outputs": [
        {
          "internalType": "address",
          "name": "id",
          "type": "address"
        }
      ],
      "stateMutability": "nonpayable",
      "type": "function"
    },
    {
      "inputs": [
        {
          "internalType": "uint256",
          "name": "",
          "type": "uint256"
        }
      ],
      "name": "resourceExists",
      "outputs": [
        {
          "internalType": "bool",
          "name": "",
          "type": "bool"
        }
      ],
      "stateMutability": "view",
      "type": "function"
    },
    {
      "inputs": [
        {
          "internalType": "uint256",
          "name": "",
          "type": "uint256"
        }
      ],
      "name": "resourceList",
      "outputs": [
        {
          "internalType": "uint256",
          "name": "",
          "type": "uint256"
        }
      ],
      "stateMutability": "view",
      "type": "function"
    },
    {
      "inputs": [
        {
          "internalType": "address",
          "name": "_admin",
          "type": "address"
        }
      ],
      "name": "setAdmin",
      "outputs": [],
      "stateMutability": "nonpayable",
      "type": "function"
    },
    {
      "inputs": [
        {
          "internalType": "uint256",
          "name": "",
          "type": "uint256"
        }
      ],
      "name": "supplyPerResource",
      "outputs": [
        {
          "internalType": "uint256",
          "name": "",
          "type": "uint256"
        }
      ],
      "stateMutability": "view",
      "type": "function"
    },
    {
      "inputs": [
        {
          "components": [
            {
              "internalType": "string",
              "name": "addressName",
              "type": "string"
            },
            {
              "components": [
                {
                  "internalType": "string",
                  "name": "lat",
                  "type": "string"
                },
                {
                  "internalType": "string",
                  "name": "lng",
                  "type": "string"
                }
              ],
              "internalType": "struct AurumNodeManager.Location",
              "name": "location",
              "type": "tuple"
            }
          ],
          "internalType": "struct AurumNodeManager.NodeLocationData",
          "name": "newLocation",
          "type": "tuple"
        },
        {
          "internalType": "address",
          "name": "node",
          "type": "address"
        }
      ],
      "name": "updateLocation",
      "outputs": [],
      "stateMutability": "nonpayable",
      "type": "function"
    },
    {
      "inputs": [
        {
          "internalType": "address",
          "name": "owner",
          "type": "address"
        },
        {
          "internalType": "address",
          "name": "node",
          "type": "address"
        }
      ],
      "name": "updateOwner",
      "outputs": [],
      "stateMutability": "nonpayable",
      "type": "function"
    },
    {
      "inputs": [
        {
          "internalType": "bytes1",
          "name": "status",
          "type": "bytes1"
        },
        {
          "internalType": "address",
          "name": "node",
          "type": "address"
        }
      ],
      "name": "updateStatus",
      "outputs": [],
      "stateMutability": "nonpayable",
      "type": "function"
    },
    {
      "inputs": [
        {
          "internalType": "address",
          "name": "node",
          "type": "address"
        },
        {
          "internalType": "uint256[]",
          "name": "quantities",
          "type": "uint256[]"
        },
        {
          "internalType": "uint256[]",
          "name": "assets",
          "type": "uint256[]"
        }
      ],
      "name": "updateSupportedAssets",
      "outputs": [],
      "stateMutability": "nonpayable",
      "type": "function"
    }
  ],
  "bytecode": "0x608060405260008055348015601357600080fd5b506040516131293803806131298339810160408190526030916077565b600480546001600160a01b039384166001600160a01b0319918216179091556006805492909316911617905560ac565b6001600160a01b0381168114607457600080fd5b50565b60008060408385031215608957600080fd5b82516092816060565b602084015190925060a1816060565b809150509250929050565b61306e806100bb6000396000f3fe608060405234801561001057600080fd5b506004361061010b5760003560e01c8063739c58de116100a2578063a6348c8011610071578063a6348c8014610251578063c19da39614610264578063cbd5c3ad14610287578063d48bfca71461029a578063daa8d0d8146102ca57600080fd5b8063739c58de146101d85780639c366c2b146101eb5780639d209048146101fe578063a13268d81461021e57600080fd5b8063619b2a34116100de578063619b2a341461018a578063627dd5ca1461019f57806362cbb030146101b2578063704b6c02146101c557600080fd5b8063027ab6fe14610110578063208f2a31146101435780632a0fe7ab1461016e5780633baacc4414610181575b600080fd5b61013061011e366004611422565b60086020526000908152604090205481565b6040519081526020015b60405180910390f35b610156610151366004611422565b6102dd565b6040516001600160a01b03909116815260200161013a565b61013061017c366004611422565b610307565b61013060005481565b61019d6101983660046115ba565b610328565b005b6101566101ad366004611633565b61064a565b61019d6101c0366004611677565b610682565b61019d6101d33660046116ae565b610729565b61019d6101e6366004611824565b610794565b6101566101f936600461186a565b610856565b61021161020c3660046116ae565b610ac4565b60405161013a9190611a40565b61024161022c366004611422565b60096020526000908152604090205460ff1681565b604051901515815260200161013a565b61019d61025f366004611ad2565b610dc4565b6102776102723660046116ae565b610e8c565b60405161013a9493929190611af0565b61019d610295366004611b36565b6110a1565b61019d6102a83660046116ae565b600580546001600160a01b0319166001600160a01b0392909216919091179055565b61019d6102d83660046115ba565b61121d565b600381815481106102ed57600080fd5b6000918252602090912001546001600160a01b0316905081565b6007818154811061031757600080fd5b600091825260209091200154905081565b805182511461037e5760405162461bcd60e51b815260206004820152601860248201527f4172726179206c656e67746873206d757374206d61746368000000000000000060448201526064015b60405180910390fd5b6001600160a01b038316600090815260026020526040902060048101548251146103e25760405162461bcd60e51b8152602060048201526015602482015274092dcecc2d8d2c840c2e6e6cae8e640d8cadccee8d605b1b6044820152606401610375565b60005b60048201548110156105a25782818151811061040357610403611c14565b602002602001015182600401828154811061042057610420611c14565b90600052602060002001540361059a5783818151811061044257610442611c14565b602002602001015182600601828154811061045f5761045f611c14565b906000526020600020015411156104e95783818151811061048257610482611c14565b602002602001015182600601828154811061049f5761049f611c14565b90600052602060002001546104b49190611c40565b600860008584815181106104ca576104ca611c14565b602002602001015181526020019081526020016000208190555061055e565b8381815181106104fb576104fb611c14565b602002602001015182600601828154811061051857610518611c14565b906000526020600020015461052d9190611c59565b6008600085848151811061054357610543611c14565b60200260200101518152602001908152602001600020819055505b83818151811061057057610570611c14565b602002602001015182600601828154811061058d5761058d611c14565b6000918252602090912001555b6001016103e5565b5060005b60048201548110156106435760008260040182815481106105c9576105c9611c14565b6000918252602080832090910154808352600990915260409091205490915060ff1661063a576007805460018181019092557fa66cc928b5edb82af9bd49922954155ab7b0942694bea4ce44661d9a8736c688018290556000828152600960205260409020805460ff191690911790555b506001016105a6565b5050505050565b6001602052816000526040600020818154811061066657600080fd5b6000918252602090912001546001600160a01b03169150829050565b6001600160a01b038082166000908152600260205260409020600301548291610100909104163381146106b457600080fd5b6001600160a01b038316600081815260026020908152604091829020600501805460ff191660f889901c17905581516001600160f81b031988168152908101929092527f761187c31aa19914b2510bad920f3879e7fb0632efc0e144fe2e86f02d75928991015b60405180910390a150505050565b6006546001600160a01b0316331461074057600080fd5b600680546001600160a01b0319166001600160a01b0383169081179091556040519081527f7bea7afb08874f274fedb30b8cee2e132288bb699cc48dfaa85333812345cab79060200160405180910390a150565b6001600160a01b038082166000908152600260205260409020600301548291610100909104163381146107c657600080fd5b6001600160a01b0383166000908152600260205260409020845185919081906107ef9082611cf2565b5060208201518051600183019081906108089082611cf2565b506020820151600182019061081d9082611cf2565b505086516040517fa854bc140a169881c96dd777042310050a8f73286a46eaa67ad884ea81400fd9945061071b93509091508690611db0565b60408082015160045460055492516000938493926001600160a01b0390811692911690309061088490611343565b6001600160a01b039485168152928416602084015290831660408301529091166060820152608001604051809103906000f0801580156108c8573d6000803e3d6000fd5b506001600160a01b0381166000908152600260205260409020845180519294508493508592829081906108fb9082611cf2565b5060208201518051600183019081906109149082611cf2565b50602082015160018201906109299082611cf2565b5050505060208381015160038401805460408701516001600160a01b0316610100026001600160a81b031990911660f89390931c9290921791909117905560608401518051610982935060048501929190910190611350565b50608082015160058201805460ff191660f89290921c91909117905560a082015180516109b9916006840191602090910190611350565b5050506001600160a01b03821660009081526002602052604090819020600301805460ff191660011790558301516109f19083610dc4565b600380546001808201835560009283527fc2575a0e9e593c00f959f8c92f12db2869c3395a3b0502d05e2516446f71f85b90910180546001600160a01b0319166001600160a01b03861617905581549091908190610a50908490611c59565b92505081905550610a6a818460a001518560600151610328565b60005b836060015151811015610abd57600784606001518281518110610a9257610a92611c14565b6020908102919091018101518254600181810185556000948552929093209092019190915501610a6d565b5050919050565b610acc61139b565b6001600160a01b03821660009081526002602052604090819020815161010081019092528054829060c0820190839082908290610b0890611c6c565b80601f0160208091040260200160405190810160405280929190818152602001828054610b3490611c6c565b8015610b815780601f10610b5657610100808354040283529160200191610b81565b820191906000526020600020905b815481529060010190602001808311610b6457829003601f168201915b5050505050815260200160018201604051806040016040529081600082018054610baa90611c6c565b80601f0160208091040260200160405190810160405280929190818152602001828054610bd690611c6c565b8015610c235780601f10610bf857610100808354040283529160200191610c23565b820191906000526020600020905b815481529060010190602001808311610c0657829003601f168201915b50505050508152602001600182018054610c3c90611c6c565b80601f0160208091040260200160405190810160405280929190818152602001828054610c6890611c6c565b8015610cb55780601f10610c8a57610100808354040283529160200191610cb5565b820191906000526020600020905b815481529060010190602001808311610c9857829003601f168201915b505050919092525050509052508152600382015460f881901b6001600160f81b0319166020808401919091526101009091046001600160a01b03166040808401919091526004840180548251818502810185019093528083526060909401939192909190830182828015610d4857602002820191906000526020600020905b815481526020019060010190808311610d34575b5050509183525050600582015460f81b6001600160f81b0319166020808301919091526006830180546040805182850281018501825282815294019392830182828015610db457602002820191906000526020600020905b815481526020019060010190808311610da0575b5050505050815250509050919050565b6001600160a01b03808216600090815260026020526040902060030154829161010090910416338114610df657600080fd5b6001600160a01b0383811660008181526002602090815260408083206003018054610100600160a81b031916610100968b1696870217905584835260018083528184208054918201815584529282902090920180546001600160a01b0319168417905581519384528301919091527f7325a7a200c9a6b8dd8cb775eac1cc6a5b400c3a205ed65e91d0c021bfd3412c910161071b565b600260205280600052604060002060009150905080600001604051806040016040529081600082018054610ebf90611c6c565b80601f0160208091040260200160405190810160405280929190818152602001828054610eeb90611c6c565b8015610f385780601f10610f0d57610100808354040283529160200191610f38565b820191906000526020600020905b815481529060010190602001808311610f1b57829003601f168201915b5050505050815260200160018201604051806040016040529081600082018054610f6190611c6c565b80601f0160208091040260200160405190810160405280929190818152602001828054610f8d90611c6c565b8015610fda5780601f10610faf57610100808354040283529160200191610fda565b820191906000526020600020905b815481529060010190602001808311610fbd57829003601f168201915b50505050508152602001600182018054610ff390611c6c565b80601f016020809104026020016040519081016040528092919081815260200182805461101f90611c6c565b801561106c5780601f106110415761010080835404028352916020019161106c565b820191906000526020600020905b81548152906001019060200180831161104f57829003601f168201915b505050919092525050509052506003820154600590920154909160f881811b926101009092046001600160a01b031691901b84565b6004805460405163046d1cfb60e51b81529182018790526000916001600160a01b0390911690638da39f6090602401600060405180830381865afa1580156110ed573d6000803e3d6000fd5b505050506040513d6000823e601f3d908101601f191682016040526111159190810190611f7b565b606001519050336001600160a01b03821614801561115e57506001600160a01b03891660009081526002602052604090206003015460f81b6001600160f81b031916600160f81b145b801561118b57506001600160a01b0389811660009081526002602052604090206003015461010090041633145b1561121257600480546040516374fb05f560e01b81526001600160a01b03909116916374fb05f5916111cd9133918d918d918d918d918d918d918d9101612065565b6020604051808303816000875af11580156111ec573d6000803e3d6000fd5b505050506040513d601f19601f8201168201806040525081019061121091906120e5565b505b505050505050505050565b6001600160a01b0380841660009081526002602052604090206003015484916101009091041633811461124f57600080fd5b6001600160a01b0385166000908152600260205260409020600481015484511461127857600080fd5b60005b845181101561133a5760005b6001600160a01b038816600090815260026020526040902060040154811015611331578582815181106112bc576112bc611c14565b60200260200101518360040182815481106112d9576112d9611c14565b906000526020600020015403611329578681815181106112fb576112fb611c14565b602002602001015183600601828154811061131857611318611c14565b600091825260209091200155611331565b600101611287565b5060010161127b565b50505050505050565b610f318061210883390190565b82805482825590600052602060002090810192821561138b579160200282015b8281111561138b578251825591602001919060010190611370565b506113979291506113d9565b5090565b6040518060c001604052806113ae6113ee565b8152600060208201819052604082018190526060808301819052608083019190915260a09091015290565b5b8082111561139757600081556001016113da565b60405180604001604052806060815260200161141d604051806040016040528060608152602001606081525090565b905290565b60006020828403121561143457600080fd5b5035919050565b6001600160a01b038116811461145057600080fd5b50565b803561145e8161143b565b919050565b634e487b7160e01b600052604160045260246000fd5b604080519081016001600160401b038111828210171561149b5761149b611463565b60405290565b60405160c081016001600160401b038111828210171561149b5761149b611463565b604051608081016001600160401b038111828210171561149b5761149b611463565b60405161014081016001600160401b038111828210171561149b5761149b611463565b604051601f8201601f191681016001600160401b038111828210171561153057611530611463565b604052919050565b600082601f83011261154957600080fd5b81356001600160401b0381111561156257611562611463565b8060051b61157260208201611508565b9182526020818501810192908101908684111561158e57600080fd5b6020860192505b838310156115b0578235825260209283019290910190611595565b9695505050505050565b6000806000606084860312156115cf57600080fd5b83356115da8161143b565b925060208401356001600160401b038111156115f557600080fd5b61160186828701611538565b92505060408401356001600160401b0381111561161d57600080fd5b61162986828701611538565b9150509250925092565b6000806040838503121561164657600080fd5b82356116518161143b565b946020939093013593505050565b80356001600160f81b03198116811461145e57600080fd5b6000806040838503121561168a57600080fd5b6116938361165f565b915060208301356116a38161143b565b809150509250929050565b6000602082840312156116c057600080fd5b81356116cb8161143b565b9392505050565b60006001600160401b038211156116eb576116eb611463565b50601f01601f191660200190565b600082601f83011261170a57600080fd5b813560208301600061172361171e846116d2565b611508565b905082815285838301111561173757600080fd5b82826020830137600092810160200192909252509392505050565b60006040828403121561176457600080fd5b61176c611479565b905081356001600160401b0381111561178457600080fd5b611790848285016116f9565b82525060208201356001600160401b038111156117ac57600080fd5b8201604081850312156117be57600080fd5b6117c6611479565b81356001600160401b038111156117dc57600080fd5b6117e8868285016116f9565b82525060208201356001600160401b0381111561180457600080fd5b611810868285016116f9565b602083015250806020840152505092915050565b6000806040838503121561183757600080fd5b82356001600160401b0381111561184d57600080fd5b61185985828601611752565b92505060208301356116a38161143b565b60006020828403121561187c57600080fd5b81356001600160401b0381111561189257600080fd5b820160c081850312156118a457600080fd5b6118ac6114a1565b81356001600160401b038111156118c257600080fd5b6118ce86828501611752565b8252506118dd6020830161165f565b60208201526118ee60408301611453565b604082015260608201356001600160401b0381111561190c57600080fd5b61191886828501611538565b60608301525061192a6080830161165f565b608082015260a08201356001600160401b0381111561194857600080fd5b61195486828501611538565b60a083015250949350505050565b60005b8381101561197d578181015183820152602001611965565b50506000910152565b6000815180845261199e816020860160208601611962565b601f01601f19169290920160200192915050565b60008151604084526119c76040850182611986565b9050602083015184820360208601528051604083526119e96040840182611986565b90506020820151915082810360208401526115b08183611986565b600081518084526020840193506020830160005b82811015611a36578151865260209586019590910190600101611a18565b5093949350505050565b602081526000825160c06020840152611a5c60e08401826119b2565b905060ff60f81b602085015116604084015260018060a01b0360408501511660608401526060840151601f19848303016080850152611a9b8282611a04565b91505060ff60f81b60808501511660a084015260a0840151601f198483030160c0850152611ac98282611a04565b95945050505050565b60008060408385031215611ae557600080fd5b82356116938161143b565b608081526000611b0360808301876119b2565b6001600160f81b031995861660208401526001600160a01b03949094166040830152509216606090920191909152919050565b600080600080600080600080610100898b031215611b5357600080fd5b611b5c89611453565b9750611b6a60208a01611453565b9650611b7860408a01611453565b95506060890135945060808901356001600160401b03811115611b9a57600080fd5b611ba68b828c01611538565b945050611bb560a08a01611453565b925060c08901356001600160401b03811115611bd057600080fd5b611bdc8b828c01611538565b92505060e08901356001600160401b03811115611bf857600080fd5b611c048b828c016116f9565b9150509295985092959890939650565b634e487b7160e01b600052603260045260246000fd5b634e487b7160e01b600052601160045260246000fd5b81810381811115611c5357611c53611c2a565b92915050565b80820180821115611c5357611c53611c2a565b600181811c90821680611c8057607f821691505b602082108103611ca057634e487b7160e01b600052602260045260246000fd5b50919050565b601f821115611ced57806000526020600020601f840160051c81016020851015611ccd5750805b601f840160051c820191505b818110156106435760008155600101611cd9565b505050565b81516001600160401b03811115611d0b57611d0b611463565b611d1f81611d198454611c6c565b84611ca6565b6020601f821160018114611d535760008315611d3b5750848201515b600019600385901b1c1916600184901b178455610643565b600084815260208120601f198516915b82811015611d835787850151825560209485019460019092019101611d63565b5084821015611da15786840151600019600387901b60f8161c191681555b50505050600190811b01905550565b604081526000611dc36040830185611986565b905060018060a01b03831660208301529392505050565b600082601f830112611deb57600080fd5b8151611df961171e826116d2565b818152846020838601011115611e0e57600080fd5b611e1f826020830160208701611962565b949350505050565b600060408284031215611e3957600080fd5b611e41611479565b905081516001600160401b03811115611e5957600080fd5b611e6584828501611dda565b82525060208201516001600160401b03811115611e8157600080fd5b611e8d84828501611dda565b60208301525092915050565b600060808284031215611eab57600080fd5b611eb36114c3565b905081516001600160401b03811115611ecb57600080fd5b611ed784828501611e27565b82525060208201516001600160401b03811115611ef357600080fd5b611eff84828501611e27565b60208301525060408201516001600160401b03811115611f1e57600080fd5b611f2a84828501611dda565b60408301525060608201516001600160401b03811115611f4957600080fd5b611f5584828501611dda565b60608301525092915050565b80516004811061145e57600080fd5b805161145e8161143b565b600060208284031215611f8d57600080fd5b81516001600160401b03811115611fa357600080fd5b82016101408185031215611fb657600080fd5b611fbe6114e5565b81516001600160401b03811115611fd457600080fd5b611fe086828501611e99565b82525060208281015190820152611ff960408301611f61565b604082015261200a60608301611f70565b606082015261201b60808301611f70565b608082015261202c60a08301611f70565b60a082015260c0828101519082015260e08083015190820152610100808301519082015261012091820151918101919091529392505050565b6001600160a01b03898116825288811660208301528716604082015260608101869052610100608082018190526000906120a190830187611a04565b6001600160a01b03861660a084015282810360c08401526120c28186611a04565b905082810360e08401526120d68185611986565b9b9a5050505050505050505050565b6000602082840312156120f757600080fd5b815180151581146116cb57600080fdfe608060405234801561001057600080fd5b50604051610f31380380610f3183398101604081905261002f9161009a565b600080546001600160a01b039586166001600160a01b03199182161790915560018054948616948216949094179093556002805492851692841692909217909155600380549190931691161790556100f9565b6001600160a01b038116811461009757600080fd5b50565b600080600080608085870312156100b057600080fd5b84516100bb81610082565b60208601519094506100cc81610082565b60408601519093506100dd81610082565b60608601519092506100ee81610082565b939692955090935050565b610e29806101086000396000f3fe608060405234801561001057600080fd5b50600436106100575760003560e01c806314f8c7431461005c5780638c42bdb8146100715780638da5cb5b14610084578063cbd5c3ad146100b3578063efba26aa146100c6575b600080fd5b61006f61006a3660046104af565b6100d9565b005b61006f61007f3660046104af565b61015e565b600054610097906001600160a01b031681565b6040516001600160a01b03909116815260200160405180910390f35b61006f6100c13660046106cd565b6101d1565b61006f6100d43660046107ab565b6103fd565b60015460405163210ff84d60e01b81526001600160a01b0385811660048301528481166024830152604482018490529091169063210ff84d906064016020604051808303816000875af1158015610134573d6000803e3d6000fd5b505050506040513d601f19601f820116820180604052508101906101589190610828565b50505050565b60015460405163380110e760e21b81526001600160a01b0384811660048301528581166024830152604482018490529091169063e004439c90606401600060405180830381600087803b1580156101b457600080fd5b505af11580156101c8573d6000803e3d6000fd5b50505050505050565b60015460405163046d1cfb60e51b8152600481018790526000916001600160a01b031690638da39f6090602401600060405180830381865afa15801561021b573d6000803e3d6000fd5b505050506040513d6000823e601f3d908101601f191682016040526102439190810190610a16565b606001519050336001600160a01b0382161480156102e257506003546040516313a4120960e31b81526001600160a01b038b81166004830152600160f81b921690639d20904890602401600060405180830381865afa1580156102aa573d6000803e3d6000fd5b505050506040513d6000823e601f3d908101601f191682016040526102d29190810190610bdc565b602001516001600160f81b031916145b801561036a57506003546040516313a4120960e31b81526001600160a01b038b8116600483015233921690639d20904890602401600060405180830381865afa158015610333573d6000803e3d6000fd5b505050506040513d6000823e601f3d908101601f1916820160405261035b9190810190610bdc565b604001516001600160a01b0316145b156103f2576001546040516374fb05f560e01b81526001600160a01b03909116906374fb05f5906103ad9033908c908c908c908c908c908c908c90600401610d3c565b6020604051808303816000875af11580156103cc573d6000803e3d6000fd5b505050506040513d601f19601f820116820180604052508101906103f09190610828565b505b505050505050505050565b60005433906001600160a01b0316811461041657600080fd5b60025460405163de740d4960e01b81526001600160a01b039091169063de740d499061044c908a90899089908890600401610dbc565b600060405180830381600087803b15801561046657600080fd5b505af115801561047a573d6000803e3d6000fd5b5050505050505050505050565b6001600160a01b038116811461049c57600080fd5b50565b80356104aa81610487565b919050565b6000806000606084860312156104c457600080fd5b83356104cf81610487565b925060208401356104df81610487565b929592945050506040919091013590565b634e487b7160e01b600052604160045260246000fd5b604080519081016001600160401b0381118282101715610528576105286104f0565b60405290565b604051608081016001600160401b0381118282101715610528576105286104f0565b60405161014081016001600160401b0381118282101715610528576105286104f0565b60405160c081016001600160401b0381118282101715610528576105286104f0565b604051601f8201601f191681016001600160401b03811182821017156105bd576105bd6104f0565b604052919050565b60006001600160401b038211156105de576105de6104f0565b5060051b60200190565b600082601f8301126105f957600080fd5b813561060c610607826105c5565b610595565b8082825260208201915060208360051b86010192508583111561062e57600080fd5b602085015b8381101561064b578035835260209283019201610633565b5095945050505050565b60006001600160401b0382111561066e5761066e6104f0565b50601f01601f191660200190565b600082601f83011261068d57600080fd5b813561069b61060782610655565b8181528460208386010111156106b057600080fd5b816020850160208301376000918101602001919091529392505050565b600080600080600080600080610100898b0312156106ea57600080fd5b6106f38961049f565b975061070160208a0161049f565b965061070f60408a0161049f565b95506060890135945060808901356001600160401b0381111561073157600080fd5b61073d8b828c016105e8565b94505061074c60a08a0161049f565b925060c08901356001600160401b0381111561076757600080fd5b6107738b828c016105e8565b92505060e08901356001600160401b0381111561078f57600080fd5b61079b8b828c0161067c565b9150509295985092959890939650565b60008060008060008060c087890312156107c457600080fd5b86356107cf81610487565b955060208701359450604087013593506060870135925060808701356107f481610487565b915060a08701356001600160401b0381111561080f57600080fd5b61081b89828a0161067c565b9150509295509295509295565b60006020828403121561083a57600080fd5b8151801515811461084a57600080fd5b9392505050565b60005b8381101561086c578181015183820152602001610854565b50506000910152565b600082601f83011261088657600080fd5b815161089461060782610655565b8181528460208386010111156108a957600080fd5b6108ba826020830160208701610851565b949350505050565b6000604082840312156108d457600080fd5b6108dc610506565b905081516001600160401b038111156108f457600080fd5b61090084828501610875565b82525060208201516001600160401b0381111561091c57600080fd5b61092884828501610875565b60208301525092915050565b60006080828403121561094657600080fd5b61094e61052e565b905081516001600160401b0381111561096657600080fd5b610972848285016108c2565b82525060208201516001600160401b0381111561098e57600080fd5b61099a848285016108c2565b60208301525060408201516001600160401b038111156109b957600080fd5b6109c584828501610875565b60408301525060608201516001600160401b038111156109e457600080fd5b6109f084828501610875565b60608301525092915050565b8051600481106104aa57600080fd5b80516104aa81610487565b600060208284031215610a2857600080fd5b81516001600160401b03811115610a3e57600080fd5b82016101408185031215610a5157600080fd5b610a59610550565b81516001600160401b03811115610a6f57600080fd5b610a7b86828501610934565b82525060208281015190820152610a94604083016109fc565b6040820152610aa560608301610a0b565b6060820152610ab660808301610a0b565b6080820152610ac760a08301610a0b565b60a082015260c0828101519082015260e08083015190820152610100808301519082015261012091820151918101919091529392505050565b600060408284031215610b1257600080fd5b610b1a610506565b905081516001600160401b03811115610b3257600080fd5b610b3e84828501610875565b82525060208201516001600160401b03811115610b5a57600080fd5b610928848285016108c2565b80516001600160f81b0319811681146104aa57600080fd5b600082601f830112610b8f57600080fd5b8151610b9d610607826105c5565b8082825260208201915060208360051b860101925085831115610bbf57600080fd5b602085015b8381101561064b578051835260209283019201610bc4565b600060208284031215610bee57600080fd5b81516001600160401b03811115610c0457600080fd5b820160c08185031215610c1657600080fd5b610c1e610573565b81516001600160401b03811115610c3457600080fd5b610c4086828501610b00565b825250610c4f60208301610b66565b6020820152610c6060408301610a0b565b604082015260608201516001600160401b03811115610c7e57600080fd5b610c8a86828501610b7e565b606083015250610c9c60808301610b66565b608082015260a08201516001600160401b03811115610cba57600080fd5b610cc686828501610b7e565b60a083015250949350505050565b600081518084526020840193506020830160005b82811015610d06578151865260209586019590910190600101610ce8565b5093949350505050565b60008151808452610d28816020860160208601610851565b601f01601f19169290920160200192915050565b6001600160a01b0389811682528881166020830152871660408201526060810186905261010060808201819052600090610d7890830187610cd4565b6001600160a01b03861660a084015282810360c0840152610d998186610cd4565b905082810360e0840152610dad8185610d10565b9b9a5050505050505050505050565b60018060a01b0385168152836020820152826040820152608060608201526000610de96080830184610d10565b969550505050505056fea264697066735822122044632106046764fa8bc3760c5dd46e63079cb9bea128078144792d3dd954098e64736f6c634300081c0033a2646970667358221220567ae32e0468cdc505131bb886140d91a94116aacc9f828f05b8afdb25c56af964736f6c634300081c0033",
  "linkReferences": {},
  "deployedLinkReferences": {}
}