{
  "_format": "hh-sol-artifact-1",
  "contractName": "AurumNodeManager",
  "sourceName": "contracts/Aurum.sol",
  "abi": [
    {
      "inputs": [
        {
          "internalType": "contract locationContract",
          "name": "_ausys",
          "type": "address"
        },
        {
          "internalType": "address",
          "name": "_admin",
          "type": "address"
        }
      ],
      "stateMutability": "nonpayable",
      "type": "constructor"
    },
    {
      "anonymous": false,
      "inputs": [
        {
          "indexed": true,
          "internalType": "address",
          "name": "node",
          "type": "address"
        },
        {
          "indexed": false,
          "internalType": "uint256[]",
          "name": "quantities",
          "type": "uint256[]"
        }
      ],
      "name": "NodeCapacityUpdated",
      "type": "event"
    },
    {
      "anonymous": false,
      "inputs": [
        {
          "indexed": true,
          "internalType": "address",
          "name": "nodeAddress",
          "type": "address"
        },
        {
          "indexed": true,
          "internalType": "address",
          "name": "owner",
          "type": "address"
        }
      ],
      "name": "NodeRegistered",
      "type": "event"
    },
    {
      "anonymous": false,
      "inputs": [
        {
          "indexed": false,
          "internalType": "address",
          "name": "admin",
          "type": "address"
        }
      ],
      "name": "eventUpdateAdmin",
      "type": "event"
    },
    {
      "anonymous": false,
      "inputs": [
        {
          "indexed": false,
          "internalType": "string",
          "name": "location",
          "type": "string"
        },
        {
          "indexed": false,
          "internalType": "address",
          "name": "node",
          "type": "address"
        }
      ],
      "name": "eventUpdateLocation",
      "type": "event"
    },
    {
      "anonymous": false,
      "inputs": [
        {
          "indexed": false,
          "internalType": "address",
          "name": "owner",
          "type": "address"
        },
        {
          "indexed": false,
          "internalType": "address",
          "name": "node",
          "type": "address"
        }
      ],
      "name": "eventUpdateOwner",
      "type": "event"
    },
    {
      "anonymous": false,
      "inputs": [
        {
          "indexed": false,
          "internalType": "bytes1",
          "name": "status",
          "type": "bytes1"
        },
        {
          "indexed": false,
          "internalType": "address",
          "name": "node",
          "type": "address"
        }
      ],
      "name": "eventUpdateStatus",
      "type": "event"
    },
    {
      "anonymous": false,
      "inputs": [
        {
          "indexed": false,
          "internalType": "string[]",
          "name": "supportedAssets",
          "type": "string[]"
        },
        {
          "indexed": false,
          "internalType": "uint256[]",
          "name": "capacity",
          "type": "uint256[]"
        }
      ],
      "name": "eventUpdateSupportedAssets",
      "type": "event"
    },
    {
      "inputs": [
        {
          "internalType": "address",
          "name": "",
          "type": "address"
        }
      ],
      "name": "AllNodes",
      "outputs": [
        {
          "components": [
            {
              "internalType": "string",
              "name": "addressName",
              "type": "string"
            },
            {
              "components": [
                {
                  "internalType": "string",
                  "name": "lat",
                  "type": "string"
                },
                {
                  "internalType": "string",
                  "name": "lng",
                  "type": "string"
                }
              ],
              "internalType": "struct AurumNodeManager.Location",
              "name": "location",
              "type": "tuple"
            }
          ],
          "internalType": "struct AurumNodeManager.NodeLocationData",
          "name": "location",
          "type": "tuple"
        },
        {
          "internalType": "bytes1",
          "name": "validNode",
          "type": "bytes1"
        },
        {
          "internalType": "address",
          "name": "owner",
          "type": "address"
        },
        {
          "internalType": "bytes1",
          "name": "status",
          "type": "bytes1"
        }
      ],
      "stateMutability": "view",
      "type": "function"
    },
    {
      "inputs": [
        {
          "internalType": "contract AuraGoat",
          "name": "_auraGoat",
          "type": "address"
        }
      ],
      "name": "addToken",
      "outputs": [],
      "stateMutability": "nonpayable",
      "type": "function"
    },
    {
      "inputs": [
        {
          "internalType": "address",
          "name": "node",
          "type": "address"
        },
        {
          "internalType": "uint256[]",
          "name": "quantities",
          "type": "uint256[]"
        },
        {
          "internalType": "uint256[]",
          "name": "assets",
          "type": "uint256[]"
        }
      ],
      "name": "expensiveFuzzyUpdateCapacity",
      "outputs": [],
      "stateMutability": "nonpayable",
      "type": "function"
    },
    {
      "inputs": [
        {
          "internalType": "address",
          "name": "node",
          "type": "address"
        },
        {
          "internalType": "uint256",
          "name": "assetId",
          "type": "uint256"
        }
      ],
      "name": "getAssetPrice",
      "outputs": [
        {
          "internalType": "uint256",
          "name": "",
          "type": "uint256"
        }
      ],
      "stateMutability": "view",
      "type": "function"
    },
    {
      "inputs": [
        {
          "internalType": "address",
          "name": "nodeAddress",
          "type": "address"
        }
      ],
      "name": "getNode",
      "outputs": [
        {
          "components": [
            {
              "components": [
                {
                  "internalType": "string",
                  "name": "addressName",
                  "type": "string"
                },
                {
                  "components": [
                    {
                      "internalType": "string",
                      "name": "lat",
                      "type": "string"
                    },
                    {
                      "internalType": "string",
                      "name": "lng",
                      "type": "string"
                    }
                  ],
                  "internalType": "struct AurumNodeManager.Location",
                  "name": "location",
                  "type": "tuple"
                }
              ],
              "internalType": "struct AurumNodeManager.NodeLocationData",
              "name": "location",
              "type": "tuple"
            },
            {
              "internalType": "bytes1",
              "name": "validNode",
              "type": "bytes1"
            },
            {
              "internalType": "address",
              "name": "owner",
              "type": "address"
            },
            {
              "internalType": "uint256[]",
              "name": "supportedAssets",
              "type": "uint256[]"
            },
            {
              "internalType": "bytes1",
              "name": "status",
              "type": "bytes1"
            },
            {
              "internalType": "uint256[]",
              "name": "capacity",
              "type": "uint256[]"
            },
            {
              "internalType": "uint256[]",
              "name": "assetPrices",
              "type": "uint256[]"
            }
          ],
          "internalType": "struct AurumNodeManager.Node",
          "name": "node",
          "type": "tuple"
        }
      ],
      "stateMutability": "view",
      "type": "function"
    },
    {
      "inputs": [
        {
          "internalType": "address",
          "name": "node",
          "type": "address"
        },
        {
          "internalType": "address",
          "name": "driver",
          "type": "address"
        },
        {
          "internalType": "address",
          "name": "reciever",
          "type": "address"
        },
        {
          "internalType": "bytes32",
          "name": "id",
          "type": "bytes32"
        },
        {
          "internalType": "uint256[]",
          "name": "tokenIds",
          "type": "uint256[]"
        },
        {
          "internalType": "address",
          "name": "token",
          "type": "address"
        },
        {
          "internalType": "uint256[]",
          "name": "quantities",
          "type": "uint256[]"
        },
        {
          "internalType": "bytes",
          "name": "data",
          "type": "bytes"
        }
      ],
      "name": "nodeHandoff",
      "outputs": [],
      "stateMutability": "nonpayable",
      "type": "function"
    },
    {
      "inputs": [],
      "name": "nodeIdCounter",
      "outputs": [
        {
          "internalType": "uint256",
          "name": "",
          "type": "uint256"
        }
      ],
      "stateMutability": "view",
      "type": "function"
    },
    {
      "inputs": [
        {
          "internalType": "uint256",
          "name": "",
          "type": "uint256"
        }
      ],
      "name": "nodeList",
      "outputs": [
        {
          "internalType": "address",
          "name": "",
          "type": "address"
        }
      ],
      "stateMutability": "view",
      "type": "function"
    },
    {
      "inputs": [
        {
          "internalType": "address",
          "name": "",
          "type": "address"
        },
        {
          "internalType": "uint256",
          "name": "",
          "type": "uint256"
        }
      ],
      "name": "ownedNodes",
      "outputs": [
        {
          "internalType": "address",
          "name": "",
          "type": "address"
        }
      ],
      "stateMutability": "view",
      "type": "function"
    },
    {
      "inputs": [
        {
          "components": [
            {
              "components": [
                {
                  "internalType": "string",
                  "name": "addressName",
                  "type": "string"
                },
                {
                  "components": [
                    {
                      "internalType": "string",
                      "name": "lat",
                      "type": "string"
                    },
                    {
                      "internalType": "string",
                      "name": "lng",
                      "type": "string"
                    }
                  ],
                  "internalType": "struct AurumNodeManager.Location",
                  "name": "location",
                  "type": "tuple"
                }
              ],
              "internalType": "struct AurumNodeManager.NodeLocationData",
              "name": "location",
              "type": "tuple"
            },
            {
              "internalType": "bytes1",
              "name": "validNode",
              "type": "bytes1"
            },
            {
              "internalType": "address",
              "name": "owner",
              "type": "address"
            },
            {
              "internalType": "uint256[]",
              "name": "supportedAssets",
              "type": "uint256[]"
            },
            {
              "internalType": "bytes1",
              "name": "status",
              "type": "bytes1"
            },
            {
              "internalType": "uint256[]",
              "name": "capacity",
              "type": "uint256[]"
            },
            {
              "internalType": "uint256[]",
              "name": "assetPrices",
              "type": "uint256[]"
            }
          ],
          "internalType": "struct AurumNodeManager.Node",
          "name": "node",
          "type": "tuple"
        }
      ],
      "name": "registerNode",
      "outputs": [
        {
          "internalType": "address",
          "name": "id",
          "type": "address"
        }
      ],
      "stateMutability": "nonpayable",
      "type": "function"
    },
    {
      "inputs": [
        {
          "internalType": "uint256",
          "name": "",
          "type": "uint256"
        }
      ],
      "name": "resourceExists",
      "outputs": [
        {
          "internalType": "bool",
          "name": "",
          "type": "bool"
        }
      ],
      "stateMutability": "view",
      "type": "function"
    },
    {
      "inputs": [
        {
          "internalType": "uint256",
          "name": "",
          "type": "uint256"
        }
      ],
      "name": "resourceList",
      "outputs": [
        {
          "internalType": "uint256",
          "name": "",
          "type": "uint256"
        }
      ],
      "stateMutability": "view",
      "type": "function"
    },
    {
      "inputs": [
        {
          "internalType": "address",
          "name": "_admin",
          "type": "address"
        }
      ],
      "name": "setAdmin",
      "outputs": [],
      "stateMutability": "nonpayable",
      "type": "function"
    },
    {
      "inputs": [
        {
          "internalType": "uint256",
          "name": "",
          "type": "uint256"
        }
      ],
      "name": "supplyPerResource",
      "outputs": [
        {
          "internalType": "uint256",
          "name": "",
          "type": "uint256"
        }
      ],
      "stateMutability": "view",
      "type": "function"
    },
    {
      "inputs": [
        {
          "components": [
            {
              "internalType": "string",
              "name": "addressName",
              "type": "string"
            },
            {
              "components": [
                {
                  "internalType": "string",
                  "name": "lat",
                  "type": "string"
                },
                {
                  "internalType": "string",
                  "name": "lng",
                  "type": "string"
                }
              ],
              "internalType": "struct AurumNodeManager.Location",
              "name": "location",
              "type": "tuple"
            }
          ],
          "internalType": "struct AurumNodeManager.NodeLocationData",
          "name": "newLocation",
          "type": "tuple"
        },
        {
          "internalType": "address",
          "name": "node",
          "type": "address"
        }
      ],
      "name": "updateLocation",
      "outputs": [],
      "stateMutability": "nonpayable",
      "type": "function"
    },
    {
      "inputs": [
        {
          "internalType": "address",
          "name": "owner",
          "type": "address"
        },
        {
          "internalType": "address",
          "name": "node",
          "type": "address"
        }
      ],
      "name": "updateOwner",
      "outputs": [],
      "stateMutability": "nonpayable",
      "type": "function"
    },
    {
      "inputs": [
        {
          "internalType": "bytes1",
          "name": "status",
          "type": "bytes1"
        },
        {
          "internalType": "address",
          "name": "node",
          "type": "address"
        }
      ],
      "name": "updateStatus",
      "outputs": [],
      "stateMutability": "nonpayable",
      "type": "function"
    },
    {
      "inputs": [
        {
          "internalType": "address",
          "name": "node",
          "type": "address"
        },
        {
          "internalType": "uint256[]",
          "name": "quantities",
          "type": "uint256[]"
        },
        {
          "internalType": "uint256[]",
          "name": "assets",
          "type": "uint256[]"
        },
        {
          "internalType": "uint256[]",
          "name": "prices",
          "type": "uint256[]"
        }
      ],
      "name": "updateSupportedAssets",
      "outputs": [],
      "stateMutability": "nonpayable",
      "type": "function"
    }
  ],
  "bytecode": "0x608034609757601f6132d938819003918201601f19168301916001600160401b03831184841017609c57808492604094855283398101031260975780516001600160a01b0381169190829003609757602001516001600160a01b03811691908290036097576000805560018060a01b0319600454161760045560018060a01b0319600654161760065560405161322690816100b38239f35b600080fd5b634e487b7160e01b600052604160045260246000fdfe608080604052600436101561001357600080fd5b60003560e01c908163027ab6fe146119e657508063034e5c9c14611147578063208f2a31146110df57806320d7b0a61461105e5780632a0fe7ab1461100c5780633baacc4414610fee57806355634a0b14610fbf578063627dd5ca14610f5c57806362cbb03014610eae578063704b6c0214610e38578063739c58de14610a2c5780639d2090481461086f578063a13268d81461083e578063a6348c801461076c578063c19da396146106da578063cbd5c3ad146102b4578063d48bfca71461022e5763daa8d0d8146100e557600080fd5b34610229576060366003190112610229576100fe611b97565b6024356001600160401b0381116102295761011d903690600401611bc3565b906044356001600160401b0381116102295761013d903690600401611bc3565b9060018060a01b03169081600052600260205261016e60018060a01b0360036040600020015460081c163314612207565b81600052600260205260406000208151936004820194855403610229576000925b80518410156102275760005b85600052600260205260046040600020015481101561021d576101be8188611c2a565b90549060031b1c6101cf8684611e98565b51146101dd5760010161019b565b93610216856101fd6101f26001959887611e98565b519160068801611c2a565b90919082549060031b91821b91600019901b1916179055565b019261018f565b5092600190610216565b005b600080fd5b34610229576020366003190112610229576004356001600160a01b03811690819003610229578015610277576bffffffffffffffffffffffff60a01b6005541617600555600080f35b60405162461bcd60e51b8152602060048201526015602482015274496e76616c696420746f6b656e206164647265737360581b6044820152606490fd5b3461022957610100366003190112610229576102ce611b97565b6102d6611bad565b6044356001600160a01b038116929083900361022957606435906084356001600160401b0381116102295761030f903690600401611bc3565b9360a4356001600160a01b03811694908590036102295760c4356001600160401b03811161022957610345903690600401611bc3565b9060e4356001600160401b038111610229573660238201121561022957610376903690602481600401359101611a80565b9560018060a01b03600454169460405163046d1cfb60e51b81528760048201526000816024818a5afa90811561049357600091610500575b50606001516001600160a01b0316331490816104ca575b8161049f575b506103d257005b60209661043d61044f926000956104266040519c8d9b8c9a8b996374fb05f560e01b8b523360048c015260018060a01b031660248b015260448a015260648901526101006084890152610104880190611cec565b9160a48701526003198683030160c4870152611cec565b8381036003190160e485015290611c7b565b03925af180156104935761045f57005b6020813d60201161048b575b8161047860209383611a44565b8101031261022957518015150361022957005b3d915061046b565b6040513d6000823e3d90fd5b6001600160a01b0390811660009081526002602052604090206003015460081c1633149050896103cb565b6001600160a01b03811660009081526002602052604090206003015460f81b6001600160f81b031916600160f81b1491506103c5565b903d8082843e6105108184611a44565b8201916020818403126106d6578051906001600160401b0382116106be570190610140828403126106a3576040519261014084018481106001600160401b038211176106c25760405282516001600160401b0381116106be578301906080828203126106be5760405191608083018381106001600160401b038211176106aa5760405280516001600160401b0381116106a657826105af9183016122d0565b835260208101516001600160401b0381116106a657826105d09183016122d0565b602084015260408101516001600160401b0381116106a657826105f491830161228e565b60408401526060810151906001600160401b0382116106a65761061892910161228e565b606082015283526020820151602084015260408201519060048210156106a3575060408301526101209061064e6060820161232f565b606084015261065f6080820161232f565b608084015261067060a0820161232f565b60a084015260c081015160c084015260e081015160e084015261010081015161010084015201516101208201528a6103ae565b80fd5b8480fd5b634e487b7160e01b85526041600452602485fd5b8280fd5b634e487b7160e01b83526041600452602483fd5b5080fd5b34610229576020366003190112610229576001600160a01b036106fb611b97565b166000526002602052610737604060002061071581611dfe565b906005600382015491015460f81b604051938493608085526080850190611ca0565b60f883901b6001600160f81b0319908116602086015260089390931c6001600160a01b03166040850152911660608301520390f35b34610229576040366003190112610229577f7325a7a200c9a6b8dd8cb775eac1cc6a5b400c3a205ed65e91d0c021bfd3412c60406107a8611b97565b6107b0611bad565b9061083160018060a01b038316918260005260026020526107e460018060a01b03600387600020015460081c163314612207565b600083815260026020528590206003018054610100600160a81b031916600883901b610100600160a81b03161790556001600160a01b031660008181526001602052859020909390611e57565b82519182526020820152a1005b34610229576020366003190112610229576004356000526009602052602060ff604060002054166040519015158152f35b3461022957602036600319011261022957610888611b97565b606060c060405161089881611a0e565b6040516108a481611a29565b8381526040516108b381611a29565b8481528460208201526020820152815260006020820152600060408201528280820152600060808201528260a0820152015260018060a01b031660005260026020526109c06040600020610a286040519161090d83611a0e565b61091681611dfe565b8352600381015460f881901b6001600160f81b0319166020850190815260089190911c6001600160a01b03166040850190815291610a1591906109f261095e60048301612243565b9260608801938452600583015460f81b93608089019460ff60f81b16855261099b600761098d60068701612243565b9560a08c0196875201612243565b9660c08a019788526040519a8b9a60208c525160e060208d01526101008c0190611ca0565b92516001600160f81b03191660408b0152516001600160a01b031660608a015251888203601f190160808a0152611cec565b91516001600160f81b03191660a087015251858203601f190160c0870152611cec565b9051838203601f190160e0850152611cec565b0390f35b34610229576040366003190112610229576004356001600160401b03811161022957610a5c903690600401611ad5565b6001600160a01b03610a6c611bad565b16806000526002602052610a9460018060a01b0360036040600020015460081c163314612207565b80600052600260205260406000209082519283516001600160401b038111610cd657610ac08454611d20565b601f8111610e06575b50602094601f8211600114610da157948192939495600092610d96575b50508160011b916000199060031b1c19161783555b600183019260208201519384518051906001600160401b038211610cd657610b238354611d20565b601f8111610d64575b50602090601f8311600114610cf75791806002949260209694600092610cec575b50508160011b916000199060031b1c19161790555b019301519283516001600160401b038111610cd657610b818254611d20565b601f8111610c99575b506020601f8211600114610c0c579080610bf6959493927fa854bc140a169881c96dd777042310050a8f73286a46eaa67ad884ea81400fd997600092610c01575b50508160011b916000199060031b1c19161790555b5190604051928392604084526040840190611c7b565b9060208301520390a1005b015190508780610bcb565b601f1982169583600052816000209660005b818110610c815750966001928492610bf6989796957fa854bc140a169881c96dd777042310050a8f73286a46eaa67ad884ea81400fd99a10610c68575b505050811b019055610be0565b015160001960f88460031b161c19169055878080610c5b565b83830151895560019098019760209384019301610c1e565b610cc690836000526020600020601f840160051c81019160208510610ccc575b601f0160051c0190611e40565b85610b8a565b9091508190610cb9565b634e487b7160e01b600052604160045260246000fd5b015190508980610b4d565b90601f1983169184600052816000209260005b818110610d4c5750926001928592602098966002989610610d33575b505050811b019055610b62565b015160001960f88460031b161c19169055898080610d26565b92936020600181928786015181550195019301610d0a565b610d9090846000526020600020601f850160051c81019160208610610ccc57601f0160051c0190611e40565b87610b2c565b015190508580610ae6565b601f1982169585600052806000209160005b888110610dee57508360019596979810610dd5575b505050811b018355610afb565b015160001960f88460031b161c19169055858080610dc8565b91926020600181928685015181550194019201610db3565b610e3290856000526020600020601f840160051c81019160208510610ccc57601f0160051c0190611e40565b85610ac9565b3461022957602036600319011261022957610e51611b97565b600654906001600160a01b0382163303610229576001600160a01b03166001600160a01b03199190911681176006556040519081527f7bea7afb08874f274fedb30b8cee2e132288bb699cc48dfaa85333812345cab790602090a1005b34610229576040366003190112610229576004356001600160f81b0319811690818103610229577f761187c31aa19914b2510bad920f3879e7fb0632efc0e144fe2e86f02d759289916040916001600160a01b03610f0a611bad565b1690816000526002602052610f3260018060a01b03600386600020015460081c163314612207565b816000526002602052600584600020019060f81c60ff1982541617905582519182526020820152a1005b3461022957604036600319011261022957610f75611b97565b6001600160a01b031660009081526001602052604090208054602435919082101561022957602091610fa691611c2a565b905460405160039290921b1c6001600160a01b03168152f35b34610229576040366003190112610229576020610fe6610fdd611b97565b6024359061216d565b604051908152f35b34610229576000366003190112610229576020600054604051908152f35b34610229576020366003190112610229576004356007548110156102295760009060075481101561104a576020826007829452200154604051908152f35b634e487b7160e01b82526032600452602482fd5b3461022957608036600319011261022957611077611b97565b6024356001600160401b03811161022957611096903690600401611bc3565b906044356001600160401b038111610229576110b6903690600401611bc3565b606435926001600160401b038411610229576110d9610227943690600401611bc3565b92611ed1565b34610229576020366003190112610229576004356003548110156102295760009060035481101561104a5760039091527fc2575a0e9e593c00f959f8c92f12db2869c3395a3b0502d05e2516446f71f85b01546040516001600160a01b039091168152602090f35b34610229576020366003190112610229576004356001600160401b0381116102295760e060031982360301126102295760405161118381611a0e565b81600401356001600160401b038111610229576111a69060043691850101611ad5565b81526111b460248301611b82565b602082019081526044830135926001600160a01b0384168403610229576040830193845260648101356001600160401b038111610229576111fb9060043691840101611bc3565b926060810193845261120f60848301611b82565b906080810191825260a48301356001600160401b0381116102295761123a9060043691860101611bc3565b9260a0820193845260c4810135906001600160401b0382116102295760046112659236920101611bc3565b60c0820190815286519092906001600160a01b0316156119a9578551518451518114908161199d575b501561195f578651600454600554604051926001600160a01b0390811692610ead928386019290811691166001600160401b03831186841017610cd657608094869461234486398352602083015260408201523060608201520301906000f08015610493576001600160a01b03166000818152600260205260409020925180518051929792906001600160401b038211610cd657819061132e8754611d20565b601f811161192d575b50602090601f83116001146118c8576000926118bd575b50508160011b916000199060031b1c19161784555b602001518051805160018601916001600160401b038211610cd657819061138a8454611d20565b601f811161188b575b50602090601f83116001146118265760009261181b575b50508160011b916000199060031b1c19161790555b60200151805160028501916001600160401b038211610cd6576113e28354611d20565b601f81116117e9575b50602090601f831160011461177d576114539493929160009183611772575b50508160011b916000199060031b1c19161790555b516003840180548a51610100600160a81b0360089190911b1660f89390931c6001600160a81b031990911617919091179055565b600482018651908151916001600160401b038311610cd657600160401b8311610cd6576020908254848455808510611755575b500190600052602060002060005b838110611741575050505060ff60f81b905116600582019060f81c60ff19825416179055600681018351908151916001600160401b038311610cd657600160401b8311610cd6576020908254848455808510611724575b500190600052602060002060005b83811061171057505050506007018151908151916001600160401b038311610cd657600160401b8311610cd65760209082548484558085106116f3575b500190600052602060002060005b8381106116df5750505060008481526002602052604090819020600301805460ff19166001179081905587517f7325a7a200c9a6b8dd8cb775eac1cc6a5b400c3a205ed65e91d0c021bfd3412c93506001600160a01b03908116916115b1913360089290921c1614612207565b600086815260026020528290206003018054610100600160a81b031916600883901b610100600160a81b03161790558060005260016020526115f68683600020611e57565b8151908152856020820152a1600354600160401b811015610cd65780600161162392016003556003611c2a565b81546001600160a01b0360039290921b91821b19169085901b17905560005460018101929083106116c957611662926000555190845190519184611ed1565b60005b8251805182101561168c579061168661168082600194611e98565b51611eac565b01611665565b845160405160209185906001600160a01b0316817fb12a4432edda4c492451b8f21f2f55773eff7a89db313ca40c0509f7b2900a1f600080a38152f35b634e487b7160e01b600052601160045260246000fd5b600190602084519401938184015501611544565b61170a908460005285846000209182019101611e40565b89611536565b6001906020845194019381840155016114f9565b61173b908460005285846000209182019101611e40565b8a6114eb565b600190602084519401938184015501611494565b61176c908460005285846000209182019101611e40565b8b611486565b015190508c8061140a565b90601f1983169184600052816000209260005b8181106117d1575091600193918561145398979694106117b8575b505050811b01905561141f565b015160001960f88460031b161c191690558c80806117ab565b92936020600181928786015181550195019301611790565b61181590846000526020600020601f850160051c81019160208610610ccc57601f0160051c0190611e40565b8b6113eb565b015190508c806113aa565b60008581528281209350601f198516905b818110611873575090846001959493921061185a575b505050811b0190556113bf565b015160001960f88460031b161c191690558c808061184d565b92936020600181928786015181550195019301611837565b6118b790856000526020600020601f850160051c81019160208610610ccc57601f0160051c0190611e40565b8d611393565b015190508b8061134e565b60008881528281209350601f198516905b81811061191557509084600195949392106118fc575b505050811b018455611363565b015160001960f88460031b161c191690558b80806118ef565b929360206001819287860151815501950193016118d9565b61195990886000526020600020601f850160051c81019160208610610ccc57601f0160051c0190611e40565b8c611337565b60405162461bcd60e51b8152602060048201526016602482015275082e4e4c2f2e640d8cadccee8d040dad2e6dac2e8c6d60531b6044820152606490fd5b9050835151148861128e565b60405162461bcd60e51b8152602060048201526015602482015274496e76616c6964206f776e6572206164647265737360581b6044820152606490fd5b3461022957602036600319011261022957602090600435600052600882526040600020548152f35b60e081019081106001600160401b03821117610cd657604052565b604081019081106001600160401b03821117610cd657604052565b90601f801991011681019081106001600160401b03821117610cd657604052565b6001600160401b038111610cd657601f01601f191660200190565b929192611a8c82611a65565b91611a9a6040519384611a44565b829481845281830111610229578281602093846000960137010152565b9080601f8301121561022957816020611ad293359101611a80565b90565b91906040838203126102295760405190611aee82611a29565b819380356001600160401b0381116102295782611b0c918301611ab7565b83526020810135906001600160401b0382116102295701916040838303126102295760405192611b3b84611a29565b80356001600160401b0381116102295783611b57918301611ab7565b84526020810135926001600160401b03841161022957602093611b7a9201611ab7565b828401520152565b35906001600160f81b03198216820361022957565b600435906001600160a01b038216820361022957565b602435906001600160a01b038216820361022957565b9080601f83011215610229578135916001600160401b038311610cd6578260051b9060405193611bf66020840186611a44565b845260208085019282010192831161022957602001905b828210611c1a5750505090565b8135815260209182019101611c0d565b8054821015611c425760005260206000200190600090565b634e487b7160e01b600052603260045260246000fd5b60005b838110611c6b5750506000910152565b8181015183820152602001611c5b565b90602091611c9481518092818552858086019101611c58565b601f01601f1916010190565b90611ad2916020611cba8251604085526040850190611c7b565b9101519160208183039101526020611cdb8351604084526040840190611c7b565b920151906020818403910152611c7b565b906020808351928381520192019060005b818110611d0a5750505090565b8251845260209384019390920191600101611cfd565b90600182811c92168015611d50575b6020831014611d3a57565b634e487b7160e01b600052602260045260246000fd5b91607f1691611d2f565b9060405191826000825492611d6e84611d20565b8084529360018116908115611ddc5750600114611d95575b50611d9392500383611a44565b565b90506000929192526020600020906000915b818310611dc0575050906020611d939282010138611d86565b6020919350806001915483858901015201910190918492611da7565b905060209250611d9394915060ff191682840152151560051b82010138611d86565b9060405191611e0c83611a29565b602083611e1883611d5a565b8152611b7a600260405194611e2c86611a29565b611e3860018201611d5a565b865201611d5a565b818110611e4b575050565b60008155600101611e40565b8054600160401b811015610cd657611e7491600182018155611c2a565b81546001600160a01b0393841660039290921b91821b9390911b1916919091179055565b8051821015611c425760209160051b010190565b60075490600160401b821015610cd6576101fd826001611d9394016007556007611c2a565b93929091938251855181149081612162575b501561211d5760018060a01b03169283600052600260205260406000209085519060048301918254036120e05760005b825481101561203057611f268184611c2a565b90549060031b1c611f37828a611e98565b5114611f46575b600101611f13565b611f508187611e98565b51611f6360068601916101fd8484611c2a565b611f7e611f708388611e98565b516101fd8460078901611c2a565b81611f898183611c2a565b90549060031b1c611f9a828a611e98565b511015611fea57611faa91611c2a565b90549060031b1c90611fbc8188611e98565b5182039182116116c957600191611fd3828b611e98565b5160005260086020526040600020555b9050611f3e565b611ff391611c2a565b90549060031b1c906120058188611e98565b5182018092116116c95760019161201c828b611e98565b516000526008602052604060002055611fe3565b509394925094505060005b845481101561209d578061205160019287611c2a565b90549060031b1c80600052600960205260ff6040600020541615612077575b500161203b565b61208081611eac565b600052600960205260406000208260ff1982541617905538612070565b50917f885da20c6a16c976ea9662f755344f1f43d86ad6321916ea5bfe905a197609e29193506120db90604051918291602083526020830190611cec565b0390a2565b60405162461bcd60e51b8152602060048201526015602482015274092dcecc2d8d2c840c2e6e6cae8e640d8cadccee8d605b1b6044820152606490fd5b60405162461bcd60e51b815260206004820152601860248201527f4172726179206c656e67746873206d757374206d6174636800000000000000006044820152606490fd5b905082511438611ee3565b6001600160a01b031660009081526002602052604081206004810180549391925b8481106121cc5760405162461bcd60e51b815260206004820152600f60248201526e105cdcd95d081b9bdd08199bdd5b99608a1b6044820152606490fd5b826121d78284611c2a565b90549060031b1c146121eb5760010161218e565b9290506121fd93506007915001611c2a565b90549060031b1c90565b1561220e57565b60405162461bcd60e51b815260206004820152600d60248201526c2737ba103a34329037bbb732b960991b6044820152606490fd5b906040519182815491828252602082019060005260206000209260005b818110612275575050611d9392500383611a44565b8454835260019485019487945060209093019201612260565b81601f820112156102295780516122a481611a65565b926122b26040519485611a44565b8184526020828401011161022957611ad29160208085019101611c58565b919060408382031261022957604051906122e982611a29565b819380516001600160401b038111610229578261230791830161228e565b83526020810151916001600160401b0383116102295760209261232a920161228e565b910152565b51906001600160a01b03821682036102295756fe6080346100e857601f610ead38819003918201601f19168301916001600160401b038311848410176100ed578084926080946040528339810103126100e85780516001600160a01b03811691908290036100e85760208101516001600160a01b038116908190036100e85760408201516001600160a01b03811692908390036100e857606001516001600160a01b03811693908490036100e85760018060a01b0319600054161760005560018060a01b0319600154161760015560018060a01b0319600254161760025560018060a01b03196003541617600355604051610da990816101048239f35b600080fd5b634e487b7160e01b600052604160045260246000fdfe608080604052600436101561001357600080fd5b600090813560e01c90816301ffc9a7146108665750806314f8c743146107df5780638c42bdb8146107555780638da5cb5b1461072e578063bc197c8114610698578063cbd5c3ad146101b9578063efba26aa146100d35763f23a6e611461007957600080fd5b346100d05760a03660031901126100d0576100926108bb565b5061009b6108d6565b506084356001600160401b0381116100ce576100bb903690600401610a1d565b5060405163f23a6e6160e01b8152602090f35b505b80fd5b50346100d05760c03660031901126100d057806100ee6108bb565b6100f66108ec565b5060a4356001600160401b0381116101b557610116903690600401610a1d565b82549091906001600160a01b031633036101b5576002546001600160a01b031691823b156101b3576101869284928360405180968195829463de740d4960e01b845260018060a01b0316600484015260443560248401526064356044840152608060648401526084830190610d4e565b03925af180156101a8576101975750f35b816101a19161096d565b6100d05780f35b6040513d84823e3d90fd5b505b5050fd5b50346100d0576101003660031901126100d0576101d46108bb565b906101dd6108d6565b6044356001600160a01b0381169190829003610694576064356084356001600160401b038111610690576102159036906004016109a5565b9260a4356001600160a01b038116919082900361068c5760c4356001600160401b0381116106885761024b9036906004016109a5565b9360e4356001600160401b0381116106455761026b903690600401610a1d565b60015460405163046d1cfb60e51b815260048101879052996001600160a01b03909116949190898b602481895afa801561067d578a90610496575b8a9b50606060018060a09d98999a9b9c9d1b039101511633149081610418575b81610399575b506102d5578380f35b61033d61034f926020996103266040519c8d9b8c9a8b996374fb05f560e01b8b523360048c015260018060a01b031660248b015260448a015260648901526101006084890152610104880190610d1a565b9160a48701526003198683030160c4870152610d1a565b8381036003190160e485015290610d4e565b03925af180156101a85761036a575b80808080858180808380f35b61038b9060203d602011610392575b610383818361096d565b810190610a64565b503861035e565b503d610379565b6003546040516313a4120960e31b81526001600160a01b0392831660048201529250869183916024918391165afa90811561040d5785916103eb575b50604001516001600160a01b03163314386102cc565b61040791503d8087833e6103ff818361096d565b810190610bc9565b386103d5565b6040513d87823e3d90fd5b6003546040516313a4120960e31b81526001600160a01b03808416600483015292935091879183916024918391165afa90811561048b578691610471575b50602001516001600160f81b031916600160f81b14906102c6565b61048591503d8088833e6103ff818361096d565b38610456565b6040513d88823e3d90fd5b503d808b8d3e6104a6818d61096d565b8b019a6020818d0312610649578051906001600160401b0382116106795701610140818d0312610649576040519061014082018281106001600160401b038211176106655760405280516001600160401b0381116106615781016080818f03126106615760405190608082019e8f6001600160401b0384821091111761064d578e9f9d9e999a9b9c9d60405281516001600160401b038111610649578161054e918401610ae4565b835260208201516001600160401b038111610649578161056f918401610ae4565b602084015260408201516001600160401b0381116106495781610593918401610a9f565b604084015260608201516001600160401b038111610649576105b59201610a9f565b60608201528252602081015160208301526040810151906004821015610645576101209160408401526105ea60608201610b43565b60608401526105fb60808201610b43565b608084015261060c60a08201610b43565b60a084015260c081015160c084015260e081015160e08401526101008101516101008401520151610120820152999897969594996102a6565b8780fd5b8a80fd5b634e487b7160e01b8f52604160045260248ffd5b8c80fd5b634e487b7160e01b8d52604160045260248dfd5b8b80fd5b6040513d8c823e3d90fd5b8680fd5b8580fd5b8480fd5b8280fd5b50346100d05760a03660031901126100d0576106b26108bb565b506106bb6108d6565b506044356001600160401b0381116100ce576106db9036906004016109a5565b506064356001600160401b0381116100ce576106fb9036906004016109a5565b506084356001600160401b0381116100ce5761071b903690600401610a1d565b5060405163bc197c8160e01b8152602090f35b50346100d057806003193601126100d057546040516001600160a01b039091168152602090f35b50346100d0578061076536610902565b6001549293926001600160a01b0316803b156107db5760405163380110e760e21b81526001600160a01b039384166004820152949092166024850152604484015281908390606490829084905af180156107ce576107c05780f35b6107c99161096d565b388180f35b50604051903d90823e3d90fd5b8380fd5b50346100d05761083860206107f336610902565b60015460405163210ff84d60e01b81526001600160a01b0394851660048201529284166024840152604483019190915290938492909116908290869082906064820190565b03925af180156101a85761084a575080f35b6108629060203d60201161039257610383818361096d565b5080f35b9050346100ce5760203660031901126100ce5760043563ffffffff60e01b81168091036106945760209250630271189760e51b81149081156108aa575b5015158152f35b6301ffc9a760e01b149050386108a3565b600435906001600160a01b03821682036108d157565b600080fd5b602435906001600160a01b03821682036108d157565b608435906001600160a01b03821682036108d157565b60609060031901126108d1576004356001600160a01b03811681036108d157906024356001600160a01b03811681036108d1579060443590565b604081019081106001600160401b0382111761095757604052565b634e487b7160e01b600052604160045260246000fd5b90601f801991011681019081106001600160401b0382111761095757604052565b6001600160401b0381116109575760051b60200190565b9080601f830112156108d15781356109bc8161098e565b926109ca604051948561096d565b81845260208085019260051b8201019283116108d157602001905b8282106109f25750505090565b81358152602091820191016109e5565b6001600160401b03811161095757601f01601f191660200190565b81601f820112156108d157803590610a3482610a02565b92610a42604051948561096d565b828452602083830101116108d157816000926020809301838601378301015290565b908160209103126108d1575180151581036108d15790565b60005b838110610a8f5750506000910152565b8181015183820152602001610a7f565b81601f820112156108d1578051610ab581610a02565b92610ac3604051948561096d565b818452602082840101116108d157610ae19160208085019101610a7c565b90565b91906040838203126108d15760405190610afd8261093c565b819380516001600160401b0381116108d15782610b1b918301610a9f565b83526020810151916001600160401b0383116108d157602092610b3e9201610a9f565b910152565b51906001600160a01b03821682036108d157565b51906001600160f81b0319821682036108d157565b9080601f830112156108d1578151610b838161098e565b92610b91604051948561096d565b81845260208085019260051b8201019283116108d157602001905b828210610bb95750505090565b8151815260209182019101610bac565b6020818303126108d1578051906001600160401b0382116108d1570160e0818303126108d1576040519160e083018381106001600160401b038211176109575760405281516001600160401b0381116108d15782016040818303126108d15760405190610c358261093c565b80516001600160401b0381116108d15783610c51918301610a9f565b82526020810151906001600160401b0382116108d157610c7391849101610ae4565b60208201528352610c8660208301610b57565b6020840152610c9760408301610b43565b604084015260608201516001600160401b0381116108d15781610cbb918401610b6c565b6060840152610ccc60808301610b57565b608084015260a08201516001600160401b0381116108d15781610cf0918401610b6c565b60a084015260c08201516001600160401b0381116108d157610d129201610b6c565b60c082015290565b906020808351928381520192019060005b818110610d385750505090565b8251845260209384019390920191600101610d2b565b90602091610d6781518092818552858086019101610a7c565b601f01601f191601019056fea26469706673582212203093371a058053b304d1bcd653b4f6dc5599ca81c141db93425adfe2d3ee05ec64736f6c634300081c0033a26469706673582212200ea913ca9c913e3c1896f3d2f7660dc67dd451afc6f9be42f5faf1f2612165b964736f6c634300081c0033",
  "linkReferences": {},
  "deployedLinkReferences": {}
}