{
  "_format": "hh-sol-artifact-1",
  "contractName": "AuStake",
  "sourceName": "contracts/AuStake.sol",
  "abi": [
    {
      "inputs": [
        {
          "internalType": "address payable",
          "name": "_projectWallet",
          "type": "address"
        },
        {
          "internalType": "address",
          "name": "initialOwner",
          "type": "address"
        }
      ],
      "stateMutability": "nonpayable",
      "type": "constructor"
    },
    {
      "anonymous": false,
      "inputs": [
        {
          "indexed": true,
          "internalType": "address",
          "name": "admin",
          "type": "address"
        },
        {
          "indexed": false,
          "internalType": "bool",
          "name": "status",
          "type": "bool"
        }
      ],
      "name": "AdminStatusChanged",
      "type": "event"
    },
    {
      "anonymous": false,
      "inputs": [
        {
          "indexed": true,
          "internalType": "bytes32",
          "name": "operationId",
          "type": "bytes32"
        },
        {
          "indexed": true,
          "internalType": "address",
          "name": "provider",
          "type": "address"
        },
        {
          "indexed": false,
          "internalType": "uint256",
          "name": "amount",
          "type": "uint256"
        }
      ],
      "name": "FundsWithdrawn",
      "type": "event"
    },
    {
      "anonymous": false,
      "inputs": [
        {
          "indexed": true,
          "internalType": "bytes32",
          "name": "operationId",
          "type": "bytes32"
        },
        {
          "indexed": false,
          "internalType": "string",
          "name": "name",
          "type": "string"
        },
        {
          "indexed": false,
          "internalType": "address",
          "name": "token",
          "type": "address"
        }
      ],
      "name": "OperationCreated",
      "type": "event"
    },
    {
      "anonymous": false,
      "inputs": [
        {
          "indexed": true,
          "internalType": "bytes32",
          "name": "operationId",
          "type": "bytes32"
        },
        {
          "indexed": true,
          "internalType": "bytes32",
          "name": "orderId",
          "type": "bytes32"
        }
      ],
      "name": "OrderCancelled",
      "type": "event"
    },
    {
      "anonymous": false,
      "inputs": [
        {
          "indexed": true,
          "internalType": "bytes32",
          "name": "operationId",
          "type": "bytes32"
        },
        {
          "indexed": true,
          "internalType": "bytes32",
          "name": "orderId",
          "type": "bytes32"
        },
        {
          "indexed": false,
          "internalType": "uint256",
          "name": "paymentAmount",
          "type": "uint256"
        }
      ],
      "name": "OrderSettled",
      "type": "event"
    },
    {
      "anonymous": false,
      "inputs": [
        {
          "indexed": true,
          "internalType": "address",
          "name": "previousOwner",
          "type": "address"
        },
        {
          "indexed": true,
          "internalType": "address",
          "name": "newOwner",
          "type": "address"
        }
      ],
      "name": "OwnershipTransferred",
      "type": "event"
    },
    {
      "anonymous": false,
      "inputs": [
        {
          "indexed": true,
          "internalType": "address",
          "name": "user",
          "type": "address"
        },
        {
          "indexed": false,
          "internalType": "uint256",
          "name": "amount",
          "type": "uint256"
        },
        {
          "indexed": true,
          "internalType": "bytes32",
          "name": "operationId",
          "type": "bytes32"
        }
      ],
      "name": "RewardPaid",
      "type": "event"
    },
    {
      "anonymous": false,
      "inputs": [
        {
          "indexed": true,
          "internalType": "address",
          "name": "token",
          "type": "address"
        },
        {
          "indexed": true,
          "internalType": "address",
          "name": "user",
          "type": "address"
        },
        {
          "indexed": false,
          "internalType": "uint256",
          "name": "amount",
          "type": "uint256"
        },
        {
          "indexed": true,
          "internalType": "bytes32",
          "name": "operationId",
          "type": "bytes32"
        },
        {
          "indexed": false,
          "internalType": "string",
          "name": "eType",
          "type": "string"
        },
        {
          "indexed": false,
          "internalType": "uint256",
          "name": "time",
          "type": "uint256"
        }
      ],
      "name": "Staked",
      "type": "event"
    },
    {
      "anonymous": false,
      "inputs": [
        {
          "indexed": true,
          "internalType": "address",
          "name": "token",
          "type": "address"
        },
        {
          "indexed": true,
          "internalType": "address",
          "name": "user",
          "type": "address"
        },
        {
          "indexed": false,
          "internalType": "uint256",
          "name": "amount",
          "type": "uint256"
        },
        {
          "indexed": true,
          "internalType": "bytes32",
          "name": "operationId",
          "type": "bytes32"
        },
        {
          "indexed": false,
          "internalType": "string",
          "name": "eType",
          "type": "string"
        },
        {
          "indexed": false,
          "internalType": "uint256",
          "name": "time",
          "type": "uint256"
        }
      ],
      "name": "Unstaked",
      "type": "event"
    },
    {
      "inputs": [
        {
          "internalType": "uint256",
          "name": "",
          "type": "uint256"
        }
      ],
      "name": "activeOperations",
      "outputs": [
        {
          "internalType": "bytes32",
          "name": "",
          "type": "bytes32"
        }
      ],
      "stateMutability": "view",
      "type": "function"
    },
    {
      "inputs": [
        {
          "internalType": "address",
          "name": "",
          "type": "address"
        }
      ],
      "name": "admins",
      "outputs": [
        {
          "internalType": "bool",
          "name": "",
          "type": "bool"
        }
      ],
      "stateMutability": "view",
      "type": "function"
    },
    {
      "inputs": [],
      "name": "ausys",
      "outputs": [
        {
          "internalType": "contract Ausys",
          "name": "",
          "type": "address"
        }
      ],
      "stateMutability": "view",
      "type": "function"
    },
    {
      "inputs": [
        {
          "internalType": "address",
          "name": "token",
          "type": "address"
        },
        {
          "internalType": "address",
          "name": "user",
          "type": "address"
        },
        {
          "internalType": "bytes32",
          "name": "operationId",
          "type": "bytes32"
        }
      ],
      "name": "burn",
      "outputs": [],
      "stateMutability": "nonpayable",
      "type": "function"
    },
    {
      "inputs": [
        {
          "internalType": "address",
          "name": "token",
          "type": "address"
        },
        {
          "internalType": "bytes32",
          "name": "operationId",
          "type": "bytes32"
        },
        {
          "internalType": "address",
          "name": "user",
          "type": "address"
        }
      ],
      "name": "claimReward",
      "outputs": [],
      "stateMutability": "nonpayable",
      "type": "function"
    },
    {
      "inputs": [
        {
          "internalType": "address",
          "name": "token",
          "type": "address"
        },
        {
          "internalType": "bytes32",
          "name": "operationId",
          "type": "bytes32"
        },
        {
          "internalType": "address",
          "name": "user",
          "type": "address"
        }
      ],
      "name": "claimRewardForOrderPool",
      "outputs": [],
      "stateMutability": "nonpayable",
      "type": "function"
    },
    {
      "inputs": [
        {
          "internalType": "string",
          "name": "name",
          "type": "string"
        },
        {
          "internalType": "string",
          "name": "description",
          "type": "string"
        },
        {
          "internalType": "address",
          "name": "token",
          "type": "address"
        },
        {
          "internalType": "address",
          "name": "provider",
          "type": "address"
        },
        {
          "internalType": "uint256",
          "name": "deadline",
          "type": "uint256"
        },
        {
          "internalType": "uint256",
          "name": "reward",
          "type": "uint256"
        },
        {
          "internalType": "string",
          "name": "rwaName",
          "type": "string"
        },
        {
          "internalType": "uint256",
          "name": "fundingGoal",
          "type": "uint256"
        },
        {
          "internalType": "uint256",
          "name": "assetPrice",
          "type": "uint256"
        }
      ],
      "name": "createOperation",
      "outputs": [
        {
          "internalType": "bytes32",
          "name": "",
          "type": "bytes32"
        }
      ],
      "stateMutability": "nonpayable",
      "type": "function"
    },
    {
      "inputs": [
        {
          "internalType": "bytes32",
          "name": "orderId",
          "type": "bytes32"
        },
        {
          "internalType": "string",
          "name": "name",
          "type": "string"
        },
        {
          "internalType": "string",
          "name": "description",
          "type": "string"
        },
        {
          "internalType": "address",
          "name": "token",
          "type": "address"
        },
        {
          "internalType": "address",
          "name": "provider",
          "type": "address"
        },
        {
          "internalType": "uint256",
          "name": "deadline",
          "type": "uint256"
        },
        {
          "internalType": "uint256",
          "name": "reward",
          "type": "uint256"
        },
        {
          "internalType": "string",
          "name": "rwaName",
          "type": "string"
        },
        {
          "internalType": "uint256",
          "name": "fundingGoal",
          "type": "uint256"
        },
        {
          "internalType": "uint256",
          "name": "assetPrice",
          "type": "uint256"
        }
      ],
      "name": "createOperationForOrder",
      "outputs": [
        {
          "internalType": "bytes32",
          "name": "",
          "type": "bytes32"
        }
      ],
      "stateMutability": "nonpayable",
      "type": "function"
    },
    {
      "inputs": [
        {
          "internalType": "bytes32",
          "name": "poolId",
          "type": "bytes32"
        }
      ],
      "name": "getAvailableBalance",
      "outputs": [
        {
          "internalType": "uint256",
          "name": "",
          "type": "uint256"
        }
      ],
      "stateMutability": "view",
      "type": "function"
    },
    {
      "inputs": [
        {
          "internalType": "bytes32",
          "name": "id",
          "type": "bytes32"
        }
      ],
      "name": "getOperation",
      "outputs": [
        {
          "components": [
            {
              "internalType": "bytes32",
              "name": "id",
              "type": "bytes32"
            },
            {
              "internalType": "string",
              "name": "name",
              "type": "string"
            },
            {
              "internalType": "string",
              "name": "description",
              "type": "string"
            },
            {
              "internalType": "address",
              "name": "token",
              "type": "address"
            },
            {
              "internalType": "address",
              "name": "provider",
              "type": "address"
            },
            {
              "internalType": "uint256",
              "name": "deadline",
              "type": "uint256"
            },
            {
              "internalType": "uint256",
              "name": "startDate",
              "type": "uint256"
            },
            {
              "internalType": "string",
              "name": "rwaName",
              "type": "string"
            },
            {
              "internalType": "uint256",
              "name": "reward",
              "type": "uint256"
            },
            {
              "internalType": "uint256",
              "name": "tokenTvl",
              "type": "uint256"
            },
            {
              "internalType": "enum AuStake.OperationStatus",
              "name": "operationStatus",
              "type": "uint8"
            },
            {
              "internalType": "uint256",
              "name": "fundingGoal",
              "type": "uint256"
            },
            {
              "internalType": "uint256",
              "name": "assetPrice",
              "type": "uint256"
            },
            {
              "internalType": "bytes32",
              "name": "orderId",
              "type": "bytes32"
            },
            {
              "internalType": "uint256",
              "name": "withdrawnAmount",
              "type": "uint256"
            }
          ],
          "internalType": "struct AuStake.Operation",
          "name": "operation",
          "type": "tuple"
        }
      ],
      "stateMutability": "view",
      "type": "function"
    },
    {
      "inputs": [
        {
          "internalType": "bytes32",
          "name": "",
          "type": "bytes32"
        }
      ],
      "name": "idToOperation",
      "outputs": [
        {
          "internalType": "bytes32",
          "name": "id",
          "type": "bytes32"
        },
        {
          "internalType": "string",
          "name": "name",
          "type": "string"
        },
        {
          "internalType": "string",
          "name": "description",
          "type": "string"
        },
        {
          "internalType": "address",
          "name": "token",
          "type": "address"
        },
        {
          "internalType": "address",
          "name": "provider",
          "type": "address"
        },
        {
          "internalType": "uint256",
          "name": "deadline",
          "type": "uint256"
        },
        {
          "internalType": "uint256",
          "name": "startDate",
          "type": "uint256"
        },
        {
          "internalType": "string",
          "name": "rwaName",
          "type": "string"
        },
        {
          "internalType": "uint256",
          "name": "reward",
          "type": "uint256"
        },
        {
          "internalType": "uint256",
          "name": "tokenTvl",
          "type": "uint256"
        },
        {
          "internalType": "enum AuStake.OperationStatus",
          "name": "operationStatus",
          "type": "uint8"
        },
        {
          "internalType": "uint256",
          "name": "fundingGoal",
          "type": "uint256"
        },
        {
          "internalType": "uint256",
          "name": "assetPrice",
          "type": "uint256"
        },
        {
          "internalType": "bytes32",
          "name": "orderId",
          "type": "bytes32"
        },
        {
          "internalType": "uint256",
          "name": "withdrawnAmount",
          "type": "uint256"
        }
      ],
      "stateMutability": "view",
      "type": "function"
    },
    {
      "inputs": [],
      "name": "lockPeriod",
      "outputs": [
        {
          "internalType": "uint256",
          "name": "",
          "type": "uint256"
        }
      ],
      "stateMutability": "view",
      "type": "function"
    },
    {
      "inputs": [
        {
          "internalType": "bytes32",
          "name": "orderId",
          "type": "bytes32"
        }
      ],
      "name": "onOrderCancelled",
      "outputs": [],
      "stateMutability": "nonpayable",
      "type": "function"
    },
    {
      "inputs": [
        {
          "internalType": "bytes32",
          "name": "orderId",
          "type": "bytes32"
        },
        {
          "internalType": "uint256",
          "name": "paymentAmount",
          "type": "uint256"
        }
      ],
      "name": "onOrderSettled",
      "outputs": [],
      "stateMutability": "nonpayable",
      "type": "function"
    },
    {
      "inputs": [
        {
          "internalType": "bytes32",
          "name": "",
          "type": "bytes32"
        },
        {
          "internalType": "address",
          "name": "",
          "type": "address"
        }
      ],
      "name": "operationStakes",
      "outputs": [
        {
          "internalType": "uint256",
          "name": "amount",
          "type": "uint256"
        },
        {
          "internalType": "uint256",
          "name": "timestamp",
          "type": "uint256"
        },
        {
          "internalType": "bool",
          "name": "isActive",
          "type": "bool"
        }
      ],
      "stateMutability": "view",
      "type": "function"
    },
    {
      "inputs": [
        {
          "internalType": "bytes32",
          "name": "",
          "type": "bytes32"
        }
      ],
      "name": "orderToPool",
      "outputs": [
        {
          "internalType": "bytes32",
          "name": "",
          "type": "bytes32"
        }
      ],
      "stateMutability": "view",
      "type": "function"
    },
    {
      "inputs": [],
      "name": "owner",
      "outputs": [
        {
          "internalType": "address",
          "name": "",
          "type": "address"
        }
      ],
      "stateMutability": "view",
      "type": "function"
    },
    {
      "inputs": [
        {
          "internalType": "bytes32",
          "name": "",
          "type": "bytes32"
        }
      ],
      "name": "poolPaymentAmount",
      "outputs": [
        {
          "internalType": "uint256",
          "name": "",
          "type": "uint256"
        }
      ],
      "stateMutability": "view",
      "type": "function"
    },
    {
      "inputs": [],
      "name": "projectWallet",
      "outputs": [
        {
          "internalType": "address payable",
          "name": "",
          "type": "address"
        }
      ],
      "stateMutability": "view",
      "type": "function"
    },
    {
      "inputs": [
        {
          "internalType": "address",
          "name": "",
          "type": "address"
        },
        {
          "internalType": "uint256",
          "name": "",
          "type": "uint256"
        }
      ],
      "name": "providerToOperationIds",
      "outputs": [
        {
          "internalType": "bytes32",
          "name": "",
          "type": "bytes32"
        }
      ],
      "stateMutability": "view",
      "type": "function"
    },
    {
      "inputs": [],
      "name": "renounceOwnership",
      "outputs": [],
      "stateMutability": "nonpayable",
      "type": "function"
    },
    {
      "inputs": [
        {
          "internalType": "address",
          "name": "user",
          "type": "address"
        },
        {
          "internalType": "bool",
          "name": "status",
          "type": "bool"
        }
      ],
      "name": "setAdmin",
      "outputs": [],
      "stateMutability": "nonpayable",
      "type": "function"
    },
    {
      "inputs": [
        {
          "internalType": "contract Ausys",
          "name": "_ausys",
          "type": "address"
        }
      ],
      "name": "setAusys",
      "outputs": [],
      "stateMutability": "nonpayable",
      "type": "function"
    },
    {
      "inputs": [
        {
          "internalType": "uint256",
          "name": "_lockPeriod",
          "type": "uint256"
        }
      ],
      "name": "setLockPeriod",
      "outputs": [],
      "stateMutability": "nonpayable",
      "type": "function"
    },
    {
      "inputs": [
        {
          "internalType": "bytes32",
          "name": "id",
          "type": "bytes32"
        },
        {
          "internalType": "uint256",
          "name": "amount",
          "type": "uint256"
        }
      ],
      "name": "setOperationReward",
      "outputs": [],
      "stateMutability": "nonpayable",
      "type": "function"
    },
    {
      "inputs": [
        {
          "internalType": "address payable",
          "name": "_projectWallet",
          "type": "address"
        }
      ],
      "name": "setProjectWallet",
      "outputs": [],
      "stateMutability": "nonpayable",
      "type": "function"
    },
    {
      "inputs": [
        {
          "internalType": "address",
          "name": "token",
          "type": "address"
        },
        {
          "internalType": "bytes32",
          "name": "operationId",
          "type": "bytes32"
        },
        {
          "internalType": "uint256",
          "name": "amount",
          "type": "uint256"
        }
      ],
      "name": "stake",
      "outputs": [],
      "stateMutability": "nonpayable",
      "type": "function"
    },
    {
      "inputs": [
        {
          "internalType": "address",
          "name": "",
          "type": "address"
        },
        {
          "internalType": "address",
          "name": "",
          "type": "address"
        }
      ],
      "name": "stakes",
      "outputs": [
        {
          "internalType": "uint256",
          "name": "amount",
          "type": "uint256"
        },
        {
          "internalType": "uint256",
          "name": "timestamp",
          "type": "uint256"
        },
        {
          "internalType": "bool",
          "name": "isActive",
          "type": "bool"
        }
      ],
      "stateMutability": "view",
      "type": "function"
    },
    {
      "inputs": [
        {
          "internalType": "address",
          "name": "",
          "type": "address"
        }
      ],
      "name": "tokenToOperationIds",
      "outputs": [
        {
          "internalType": "bytes32",
          "name": "",
          "type": "bytes32"
        }
      ],
      "stateMutability": "view",
      "type": "function"
    },
    {
      "inputs": [
        {
          "internalType": "address",
          "name": "",
          "type": "address"
        }
      ],
      "name": "tokenTvl",
      "outputs": [
        {
          "internalType": "uint256",
          "name": "",
          "type": "uint256"
        }
      ],
      "stateMutability": "view",
      "type": "function"
    },
    {
      "inputs": [
        {
          "internalType": "address",
          "name": "newOwner",
          "type": "address"
        }
      ],
      "name": "transferOwnership",
      "outputs": [],
      "stateMutability": "nonpayable",
      "type": "function"
    },
    {
      "inputs": [
        {
          "internalType": "address",
          "name": "token",
          "type": "address"
        },
        {
          "internalType": "bytes32",
          "name": "operationId",
          "type": "bytes32"
        }
      ],
      "name": "unlockReward",
      "outputs": [],
      "stateMutability": "nonpayable",
      "type": "function"
    },
    {
      "inputs": [
        {
          "internalType": "bytes32",
          "name": "poolId",
          "type": "bytes32"
        },
        {
          "internalType": "uint256",
          "name": "amount",
          "type": "uint256"
        }
      ],
      "name": "withdrawFunds",
      "outputs": [],
      "stateMutability": "nonpayable",
      "type": "function"
    }
  ],
  "bytecode": "0x60803461013857601f61368f38819003918201601f19168301916001600160401b0383118484101761013d5780849260409485528339810103126101385780516001600160a01b038116919082900361013857602001516001600160a01b038116919082900361013857600160008181558154336001600160a01b03198216811790935560405192916001600160a01b03909116907f8be0079c531659141344cd1fd0a4f28419497f9722a3daafe3b4186f6b6457e09080a381156100f6575060018060a01b0319600254161760025560005260056020526040600020600160ff1982541617905560405161353b90816101548239f35b62461bcd60e51b815260206004820152601660248201527f496e76616c69642070726f6a6563742077616c6c6574000000000000000000006044820152606490fd5b600080fd5b634e487b7160e01b600052604160045260246000fdfe6080604052600436101561001257600080fd5b60003560e01c80630cb9ca061461282657806323a3afa2146127dc57806324c963a2146126af578063279412c5146124495780632f3df17714611f435780633fd8b02f14611f255780634097905714611ef957806341b7bd3214611ed0578063429b62e514611e9157806343273eec14611e235780634affc8e6146119c35780634b0bddd21461192f5780634bb1383b146118d65780636f37a2c91461168d578063715018a614611630578063779972da1461160f57806379dbebfa146113ba5780637bd44ecf146112ba5780638a780447146112695780638da5cb5b146112405780639bdb5ab1146111b7578063a4e47b6614611137578063aad9712114610fcb578063b836f52114610dd5578063beb08ab914610dac578063c93c3d0c14610d01578063cb2489bb14610cd8578063da26d2b914610cac578063dbeee39714610c72578063e32baad91461048d578063ef68de491461028e578063f2fde38b146101c65763fea47a1c1461018757600080fd5b346101c15760203660031901126101c1576001600160a01b036101a8612b05565b1660005260086020526020604060002054604051908152f35b600080fd5b346101c15760203660031901126101c1576101df612b05565b6101e761348d565b6001600160a01b0316801561023a57600180546001600160a01b0319811683179091556001600160a01b03167f8be0079c531659141344cd1fd0a4f28419497f9722a3daafe3b4186f6b6457e0600080a3005b60405162461bcd60e51b815260206004820152602660248201527f4f776e61626c653a206e6577206f776e657220697320746865207a65726f206160448201526564647265737360d01b6064820152608490fd5b346101c15761029c366128d9565b906102a5613437565b80600052600460205260406000206102bf81541515612c8e565b60048101546001600160a01b03163303610448578215610403576009810154600e8201906102ef82548092612cd0565b85116103be57846102ff9161335a565b90556003015460405163a9059cbb60e01b81523360048201526024810184905290602090829060449082906000906001600160a01b03165af180156103b25761035091600091610383575b506133f9565b6040519182527f13e7ed68a0fe9e4bcafdde5f49381514a9ee7e34ff7d926eadab64c1e0e77f1660203393a36001600055005b6103a5915060203d6020116103ab575b61039d8183612960565b8101906132fd565b8461034a565b503d610393565b6040513d6000823e3d90fd5b60405162461bcd60e51b815260206004820152601e60248201527f496e73756666696369656e7420617661696c61626c652062616c616e636500006044820152606490fd5b60405162461bcd60e51b815260206004820152601d60248201527f416d6f756e74206d7573742062652067726561746572207468616e20300000006044820152606490fd5b60405162461bcd60e51b815260206004820152601a60248201527f4f6e6c792070726f76696465722063616e2077697468647261770000000000006044820152606490fd5b346101c1576101403660031901126101c1576004356024356001600160401b0381116101c1576104c1903690600401612aa8565b906044356001600160401b0381116101c1576104e1903690600401612aa8565b6104e9612aef565b926084356001600160a01b03811693908490036101c15760a4359360c4359160e4356001600160401b0381116101c157610527903690600401612aa8565b33600052600560205261054160ff60406000205416612cdd565b600e546001600160a01b0316938415610c34578215610bfc576001600160a01b03891694610570861515612d22565b61057b851515612d66565b610586891515612db2565b81151580610bf0575b61059890612def565b83600052600c602052604060002054610bab57600060249160405192838092632bbc239560e11b82528860048301525afa9081156103b257600091610b88575b50805115610b4c57610160810180516105f081612a6d565b6105f981612a6d565b15908115610b2e575b5015610add5760e001516001600160a01b0316849003610a8e57610627600f54612e53565b80600f556040516020810191825260208152610644604082612960565b519020978860005260046020526040600020976001890188516001600160401b0381116108fd5761067582546128ef565b601f8111610a46575b50806020601f82116001146109e1576000916109d6575b508160011b916000199060031b1c19161790555b805160028a01916001600160401b0382116108fd5781906106ca84546128ef565b601f8111610983575b50602090601f831160011461091e57600092610913575b50508160011b916000199060031b1c19161790555b6003880180546001600160a01b031990811688179091556004890180549091168617905560058801556008870155600a8601805460ff19166001179055868655426006870155805160078701916001600160401b0382116108fd5761076483546128ef565b601f81116108b5575b5091602099959391899795938b90601f8311600114610834579282600e936000805160206134e68339815191529b9c936000968792610829575b50508160011b9186199060031b1c19161790555b61010435600b82015561012435600c82015583600d8201550155600052600c885285604060002055600052600787526107f8856040600020612e8a565b600052600886528360406000205561080f84612e62565b61081e60405192839283612eac565b0390a2604051908152f35b015190508f806107a7565b99929190601f1982169a83600052816000209b60005b81811061089b5750926000805160206134e68339815191529b9c600e9593600193836000999710610883575b505050811b0190556107bb565b0151871960f88460031b161c191690558f8080610876565b838301518e556001909d019c8e9c50928f01928f0161084a565b836000526020600020601f840160051c810191602085106108f3575b601f0160051c01905b8181106108e7575061076d565b600081556001016108da565b90915081906108d1565b634e487b7160e01b600052604160045260246000fd5b015190508d806106ea565b60008581528281209350601f198516905b81811061096b5750908460019594939210610952575b505050811b0190556106ff565b015160001960f88460031b161c191690558d8080610945565b9293602060018192878601518155019501930161092f565b909150836000526020600020601f840160051c810191602085106109cc575b90601f859493920160051c01905b8181106109bd57506106d3565b600081558493506001016109b0565b90915081906109a2565b90508a01518e610695565b60008481528181209250601f198416905b8d828210610a2e5750509083600194939210610a15575b5050811b0190556106a9565b8c015160001960f88460031b161c191690558e80610a09565b600184956020939584930151815501940192016109f2565b826000526020600020601f830160051c81019160208410610a84575b601f0160051c01905b818110610a78575061067e565b60008155600101610a6b565b9091508190610a62565b60405162461bcd60e51b815260206004820152602160248201527f50726f7669646572206d75737420626520746865206f726465722073656c6c656044820152603960f91b6064820152608490fd5b60405162461bcd60e51b815260206004820152602360248201527f4f72646572206d7573742062652043726561746564206f722050726f63657373604482015262696e6760e81b6064820152608490fd5b6001915051610b3c81612a6d565b610b4581612a6d565b148b610602565b60405162461bcd60e51b815260206004820152601460248201527313dc99195c88191bd95cc81b9bdd08195e1a5cdd60621b6044820152606490fd5b610ba591503d806000833e610b9d8183612960565b810190613073565b8a6105d8565b60405162461bcd60e51b815260206004820152601860248201527f4f7264657220616c726561647920686173206120706f6f6c00000000000000006044820152606490fd5b5061271082111561058f565b60405162461bcd60e51b815260206004820152601060248201526f125b9d985b1a59081bdc99195c88125160821b6044820152606490fd5b60405162461bcd60e51b8152602060048201526016602482015275105d5cde5cc818dbdb9d1c9858dd081b9bdd081cd95d60521b6044820152606490fd5b346101c15760203660031901126101c1576001600160a01b03610c93612b05565b16600052600b6020526020604060002054604051908152f35b346101c15760203660031901126101c157600435600052600d6020526020604060002054604051908152f35b346101c15760003660031901126101c157600e546040516001600160a01b039091168152602090f35b346101c15760203660031901126101c157600435610d1d613437565b610d3260018060a01b03600e54163314612bb4565b80600052600c602052604060002054610d4c811515612c00565b806000526004602052600a60406000200160028154610d79600160ff8316610d7381612a6d565b14612c4c565b60ff19161790557f0b751d7bc7e902e8c7f5ae3b5a5cfaf6469fadd348681b2cdf779031fb629adc600080a36001600055005b346101c15760003660031901126101c1576002546040516001600160a01b039091168152602090f35b346101c15760603660031901126101c157610dee612b05565b610df6612b1b565b60443591610e02613437565b336000526005602052610e1c60ff60406000205416612cdd565b60018060a01b0316806000526009602052604060002060018060a01b03831660005260205260406000209160028301805493610e5a60ff8616612f56565b600086815260046020526040902060030154610e80906001600160a01b03168514612ed4565b5460ff19909416905560025460405163a9059cbb60e01b81526001600160a01b03919091166004820152602481018490526020816044816000875af19081156103b257600091610fac575b5015610f675760a07fc9cafbcc8a194bb7bf2482b42aaccaf0cf4f7b8fd768cbab6600fb5a5dc84ee59183600052600b6020526040600020610f0e868254612cd0565b90558560005260046020526009604060002001610f2c868254612cd0565b9055604051948552606060208601526006606086015265109d5c9b995960d21b6080860152426040860152600180831b031693a46001600055005b60405162461bcd60e51b815260206004820152601960248201527f4661696c656420746f207472616e7366657220746f6b656e73000000000000006044820152606490fd5b610fc5915060203d6020116103ab5761039d8183612960565b85610ecb565b346101c15760403660031901126101c157610fe4612b05565b6024359081600052600460205260018060a01b036004604060002001541633036110f25761107160209160009384526004835260408420600a60646110326009840154600885015490613367565b91909201805460ff191660021790556040516323b872dd60e01b8152336004820152306024820152919004604482015293849283919082906064820190565b03926001600160a01b03165af19081156103b2576000916110d3575b501561109557005b60405162461bcd60e51b815260206004820152601660248201527514995dd85c99081d1c985b9cd9995c8819985a5b195960521b6044820152606490fd5b6110ec915060203d6020116103ab5761039d8183612960565b8161108d565b60405162461bcd60e51b815260206004820152601a60248201527f73656e646572206973206e6f74207468652070726f76696465720000000000006044820152606490fd5b346101c15760403660031901126101c1576040611152612b05565b61115a612b1b565b9060018060a01b031660005260096020528160002060009160018060a01b031682526020522080546111b360ff600260018501549401541660405193849384919260409194936060840195845260208401521515910152565b0390f35b346101c15760203660031901126101c1576004356001600160a01b038116908190036101c1576111e561348d565b8015611203576001600160601b0360a01b600e541617600e55600080f35b60405162461bcd60e51b8152602060048201526015602482015274496e76616c6964204175737973206164647265737360581b6044820152606490fd5b346101c15760003660031901126101c1576001546040516001600160a01b039091168152602090f35b346101c15760203660031901126101c1576004356001600160a01b038116908190036101c15761129761348d565b6112a28115156133bb565b6001600160601b0360a01b6002541617600255600080f35b346101c1576112c8366128d9565b903360005260056020526112e360ff60406000205416612cdd565b6000818152600460205260409020600301546001600160a01b03161561137557811561131f576000526004602052600860406000200155600080f35b60405162461bcd60e51b815260206004820152602860248201527f5265776172642070657263656e74616765206d75737420626520677265617465604482015267072207468616e20360c41b6064820152608490fd5b60405162461bcd60e51b815260206004820152601860248201527f4f7065726174696f6e20646f6573206e6f7420657869737400000000000000006044820152606490fd5b346101c1576113c836612b7a565b60008281526004602052604090206003015491926001600160a01b03908116926113f491168314612ed4565b82600052600460205261141d600260ff600a604060002001541661141781612a6d565b14612f11565b82600052600a602052604060002060018060a01b038216600052602052604060002090600282019283549261145460ff8516612f56565b856000526004602052604060002090546064611474600884015483613367565b0495611480878361335a565b9560ff1916905561149660098301918254612cd0565b80915515611543575b5060405163a9059cbb60e01b81526001600160a01b03831660048201526024810193909352602090839081600081604481015b03925af19081156103b2576115136020927f25d820333c9a561247c10864c5a61ff35d1b52a4d260cd78ffd379c9921a418794600091611526575b50613315565b6040519384526001600160a01b031692a3005b61153d9150843d86116103ab5761039d8183612960565b8761150d565b6003549390600080805b8781106115e6575b50611563575b50509261149f565b61156f90939193612b31565b90549060031b1c9160001986019586116115d057600a6020946114d2946115b161159a60009a612b31565b819391549060031b91821b91600019901b19161790565b90556115bb61337a565b01600360ff198254161790559181935061155b565b634e487b7160e01b600052601160045260246000fd5b896115f082612b31565b90549060031b1c146116045760010161154d565b915050600189611555565b346101c15760203660031901126101c15761162861348d565b600435600655005b346101c15760003660031901126101c15761164961348d565b600180546001600160a01b031981169091556000906001600160a01b03167f8be0079c531659141344cd1fd0a4f28419497f9722a3daafe3b4186f6b6457e08280a3005b346101c15760603660031901126101c1576116a6612b05565b60243590604435906116b6613437565b81156118a0576000838152600460205260409020600301546001600160a01b03918216916116e691168214612ed4565b6040516323b872dd60e01b8152336004820152306024820152604481018390526020816064816000865af180156103b2576117289160009161188157506133f9565b61178d60405161173781612945565b83815260026020820142815260408301906001825285600052600960205260408060002060009060018060a01b0333168252602052209351845551600184015551151591019060ff801983541691151516179055565b6117f260405161179c81612945565b83815260026020820142815260408301906001825287600052600a60205260408060002060009060018060a01b0333168252602052209351845551600184015551151591019060ff801983541691151516179055565b826000526004602052600960406000200161180e83825461335a565b905580600052600b602052604060002061182983825461335a565b905560405191825260606020830152600660608301526514dd185ad95960d21b60808301524260408301527f70d34e4a1cffdadaa1ca80104ed9f15ffb4114c859f8c9e89ef302a72862fb2560a03393a46001600055005b61189a915060203d6020116103ab5761039d8183612960565b8561034a565b60405162461bcd60e51b815260206004820152600e60248201526d043616e6e6f74207374616b6520360941b6044820152606490fd5b346101c15760403660031901126101c1576118ef612b05565b6001600160a01b03166000908152600760205260409020805460243591908210156101c15760209161192091612b62565b90549060031b1c604051908152f35b346101c15760403660031901126101c157611948612b05565b60243590811515908183036101c1577fc63c72d6995119c079ef24c02679d49838905c8e81df9e632011b914e6f592f6916119ba60209261198761348d565b6001600160a01b03169461199c8615156133bb565b856000526005845260406000209060ff801983541691151516179055565b604051908152a2005b346101c1576119d136612b7a565b6000828152600460205260409020600301546001600160a01b03938416936119fb91168414612ed4565b816000526004602052604060002090600a820193611a22600260ff87541661141781612a6d565b600d830154908115611dde5784600052600a602052604060002060018060a01b0384166000526020526040600020916002830192835491611a6560ff8416612f56565b60098701968754925493600060018060a01b03600e541693602460405180968193632bbc239560e11b835260048301525afa9283156103b257600093611dc1575b5089600052600d602052610160604060002054930160028151611ac881612a6d565b611ad181612a6d565b1480611db8575b15611ca457505060080154612710019081612710116115d057612710611b01611b129385613367565b0490818110611c9d57505b83613367565b60008215611c89575092602092611b4f611b849360009604918083118714611c8257611b3e8184612cd0565b975b805460ff191690558954612cd0565b885560405163a9059cbb60e01b81526001600160a01b0388166004820152602481019190915293849283919082906044820190565b03925af180156103b2578593611bc56020927f25d820333c9a561247c10864c5a61ff35d1b52a4d260cd78ffd379c9921a418794600091611c655750613315565b6040519384526001600160a01b031692a35b5415611bdf57005b600080600092600354935b848110611c3a575b5050611bfa57005b611c0390612b31565b90549060031b1c9060001981019081116115d05761159a611c2391612b31565b9055611c2d61337a565b805460ff19166003179055005b81611c4482612b31565b90549060031b1c14611c5857600101611bea565b9250505060018480611bf2565b611c7c9150843d86116103ab5761039d8183612960565b8a61150d565b8697611b40565b634e487b7160e01b81526012600452602490fd5b9050611b0c565b9150959692506003915093929351611cbb81612a6d565b611cc481612a6d565b03611d5a57611d1b9460209460ff19169055611ce1838754612cd0565b865560405163a9059cbb60e01b81526001600160a01b03909116600482015260248101929092529092839190829060009082906044820190565b03925af180156103b257611d3691600091611d3b5750613315565b611bd7565b611d54915060203d6020116103ab5761039d8183612960565b8561150d565b60405162461bcd60e51b815260206004820152603060248201527f4f72646572206e6f7420696e2066696e616c207374617465206f72207061796d60448201526f195b9d081b9bdd081c9958d95a5d995960821b6064820152608490fd5b50831515611ad8565b611dd79193503d806000833e610b9d8183612960565b918b611aa6565b60405162461bcd60e51b815260206004820152601860248201527f4e6f7420616e206f726465722d6c696e6b656420706f6f6c00000000000000006044820152606490fd5b346101c15760403660031901126101c1576040611e3e612b1b565b600435600052600a6020528160002060009160018060a01b031682526020522080546111b360ff600260018501549401541660405193849384919260409194936060840195845260208401521515910152565b346101c15760203660031901126101c1576001600160a01b03611eb2612b05565b166000526005602052602060ff604060002054166040519015158152f35b346101c15760203660031901126101c1576004356003548110156101c157611920602091612b31565b346101c15760203660031901126101c157600435600052600c6020526020604060002054604051908152f35b346101c15760003660031901126101c1576020600654604051908152f35b346101c1576101203660031901126101c1576004356001600160401b0381116101c157611f74903690600401612aa8565b6024356001600160401b0381116101c157611f93903690600401612aa8565b604435916001600160a01b038316908184036101c157611fb1612aef565b916084359360a4359060c4356001600160401b0381116101c157611fd9903690600401612aa8565b94336000526005602052611ff460ff60406000205416612cdd565b611fff841515612d22565b6001600160a01b031691612014831515612d66565b61201f871515612db2565b8015158061243d575b61203190612def565b61203c600f54612e53565b80600f556040516020810191825260208152612059604082612960565b519020968760005260046020526040600020926001840187516001600160401b0381116108fd5761208a82546128ef565b601f81116123f5575b50806020601f821160011461239057600091612385575b508160011b916000199060031b1c19161790555b805160028501916001600160401b0382116108fd5781906120df84546128ef565b601f8111612332575b50602090601f83116001146122cd576000926122c2575b50508160011b916000199060031b1c19161790555b60038301856001600160601b0360a01b82541617905560048301846001600160601b0360a01b82541617905560058301556008820155600a8101600160ff198254161790558581554260068201556007810185516001600160401b0381116108fd5761218082546128ef565b601f811161227a575b50918795939160209995938a98601f8211600114612202576000805160206134e6833981519152989982916000926121f7575b50508160011b916000199060031b1c19161790555b60e435600b820155600c61010435910155600052600787526107f8856040600020612e8a565b015190508c806121bc565b601f19821690836000528a6000209160005b81811061226057509a8392916001946000805160206134e68339815191529c9d10612247575b505050811b0190556121d1565b015160001960f88460031b161c191690558c808061223a565b828d015184559b8e019b8d9b506001909301928e01612214565b826000526020600020601f830160051c810191602084106122b8575b601f0160051c01905b8181106122ac5750612189565b6000815560010161229f565b9091508190612296565b015190508c806120ff565b60008581528281209350601f198516905b81811061231a5750908460019594939210612301575b505050811b019055612114565b015160001960f88460031b161c191690558c80806122f4565b929360206001819287860151815501950193016122de565b909150836000526020600020601f840160051c8101916020851061237b575b90601f859493920160051c01905b81811061236c57506120e8565b6000815584935060010161235f565b9091508190612351565b90508901518d6120aa565b60008481528181209250601f198416905b8c8282106123dd57505090836001949392106123c4575b5050811b0190556120be565b8b015160001960f88460031b161c191690558d806123b8565b600184956020939584930151815501940192016123a1565b826000526020600020601f830160051c81019160208410612433575b601f0160051c01905b8181106124275750612093565b6000815560010161241a565b9091508190612411565b50612710811115612028565b346101c15760203660031901126101c15760405161246681612929565b60008152602081016060905260408101606090526060810160009052608081016000905260a081016000905260c081016000905260e08101606090526101008101600090526101208101600090526101408101600090526101608101600090526101808101600090526101a08101600090526101c0016000905260043560005260046020526040600020604051906124fd82612929565b8054825261250d60018201612981565b602083019081529061252160028201612981565b6040840190815260038201546001600160a01b0390811660608601908152600484015490911660808601908152600584015460a08701908152600685015460c0880190815293969294929361257860078501612981565b60e0860190815260088501549661010087019788526009860154916101208801928352600a87015460ff16936101408901946125b381612a6d565b8552600b880154956101608a01968752600c890154976101808b01988952600d8a0154996101a08c019a8b52600e01549a6101c081019b8c526040519e8f9e8f926020845251602084015251604083016101e09052610200830161261691612a48565b9051828203601f1901606084015261262e9190612a48565b95516001600160a01b0390811660809092019190915290511660a08d01525160c08c01525160e08b015251898203601f19016101008b01526126709190612a48565b9651610120890152516101408801525161268981612a6d565b61016087015251610180860152516101a0850152516101c0840152516101e08301520390f35b346101c15760203660031901126101c157600435600052600460205260406000208054600182016126df90612981565b906126ec60028401612981565b600384015460048501546005860154600687015493966001600160a01b039384169490939092169161272060078501612981565b95600885015496600986015491600a87015460ff1693600b88015495600c89015497600d8a015499600e01549a6040519e8f9e8f968752602087016101e090526101e0870161276e91612a48565b868103604088015261277f91612a48565b946060015260808d015260a08c015260c08b015289810360e08b01526127a491612a48565b966101008901526101208801526127ba81612a6d565b6101408701526101608601526101808501526101a08401526101c08301520390f35b346101c15760203660031901126101c1576004356000526004602052602061281e604060002061280e81541515612c8e565b600e600982015491015490612cd0565b604051908152f35b346101c157612834366128d9565b61283c613437565b61285160018060a01b03600e54163314612bb4565b81600052600c6020527f7ed55b9fbf369285e206ea6648f69241a36dc45c1efcd3ac57882569bf85b14160206040600020549261288f841515612c00565b8360005260048252600a604060002001600281546128b5600160ff8316610d7381612a6d565b60ff191617905583600052600d825280604060002055604051908152a36001600055005b60409060031901126101c1576004359060243590565b90600182811c9216801561291f575b602083101461290957565b634e487b7160e01b600052602260045260246000fd5b91607f16916128fe565b6101e081019081106001600160401b038211176108fd57604052565b606081019081106001600160401b038211176108fd57604052565b90601f801991011681019081106001600160401b038211176108fd57604052565b9060405191826000825492612995846128ef565b8084529360018116908115612a0357506001146129bc575b506129ba92500383612960565b565b90506000929192526020600020906000915b8183106129e75750509060206129ba92820101386129ad565b60209193508060019154838589010152019101909184926129ce565b9050602092506129ba94915060ff191682840152151560051b820101386129ad565b60005b838110612a385750506000910152565b8181015183820152602001612a28565b90602091612a6181518092818552858086019101612a25565b601f01601f1916010190565b60041115612a7757565b634e487b7160e01b600052602160045260246000fd5b6001600160401b0381116108fd57601f01601f191660200190565b81601f820112156101c157803590612abf82612a8d565b92612acd6040519485612960565b828452602083830101116101c157816000926020809301838601378301015290565b606435906001600160a01b03821682036101c157565b600435906001600160a01b03821682036101c157565b602435906001600160a01b03821682036101c157565b600354811015612b4c57600360005260206000200190600090565b634e487b7160e01b600052603260045260246000fd5b8054821015612b4c5760005260206000200190600090565b60609060031901126101c1576004356001600160a01b03811681036101c15790602435906044356001600160a01b03811681036101c15790565b15612bbb57565b60405162461bcd60e51b815260206004820152601860248201527f4f6e6c792041757379732063616e2063616c6c207468697300000000000000006044820152606490fd5b15612c0757565b60405162461bcd60e51b815260206004820152601c60248201527f4e6f20706f6f6c206c696e6b656420746f2074686973206f72646572000000006044820152606490fd5b15612c5357565b60405162461bcd60e51b8152602060048201526013602482015272506f6f6c206d7573742062652061637469766560681b6044820152606490fd5b15612c9557565b60405162461bcd60e51b8152602060048201526013602482015272141bdbdb08191bd95cc81b9bdd08195e1a5cdd606a1b6044820152606490fd5b919082039182116115d057565b15612ce457565b60405162461bcd60e51b815260206004820152601660248201527521b0b63632b91034b9903737ba1030b71030b236b4b760511b6044820152606490fd5b15612d2957565b60405162461bcd60e51b8152602060048201526015602482015274496e76616c696420746f6b656e206164647265737360581b6044820152606490fd5b15612d6d57565b60405162461bcd60e51b815260206004820152601860248201527f496e76616c69642070726f7669646572206164647265737300000000000000006044820152606490fd5b15612db957565b60405162461bcd60e51b815260206004820152600e60248201526d092dcecc2d8d2c840d8cadccee8d60931b6044820152606490fd5b15612df657565b60405162461bcd60e51b815260206004820152602f60248201527f526577617264206d757374206265206265747765656e203020616e642031303060448201526e303020626173697320706f696e747360881b6064820152608490fd5b60001981146115d05760010190565b600354600160401b8110156108fd5761159a816001612e8693016003556003612b62565b9055565b805490600160401b8210156108fd578161159a916001612e8694018155612b62565b90612ec4602091949394604084526040840190612a48565b6001600160a01b03909416910152565b15612edb57565b60405162461bcd60e51b815260206004820152600e60248201526d0a8ded6cadc40dad2e6dac2e8c6d60931b6044820152606490fd5b15612f1857565b60405162461bcd60e51b81526020600482015260166024820152754f7065726174696f6e206e6f7420636f6d706c65746560501b6044820152606490fd5b15612f5d57565b60405162461bcd60e51b815260206004820152600f60248201526e4e6f20616374697665207374616b6560881b6044820152606490fd5b51906001600160a01b03821682036101c157565b6001600160401b0381116108fd5760051b60200190565b81601f820112156101c1578051612fd581612a8d565b92612fe36040519485612960565b818452602082840101116101c1576130019160208085019101612a25565b90565b91906040838203126101c15760405190604082018281106001600160401b038211176108fd57604052819380516001600160401b0381116101c1578261304b918301612fbf565b83526020810151916001600160401b0383116101c15760209261306e9201612fbf565b910152565b6020818303126101c1578051906001600160401b0382116101c157016101a0818303126101c157604051916101a083018381106001600160401b038211176108fd57604052815183526130c860208301612f94565b602084015260408201516040840152606082015160608401526080820151608084015260a082015160a084015261310160c08301612f94565b60c084015261311260e08301612f94565b60e08401526101008201516001600160401b0381116101c157820181601f820112156101c15780519061314482612fa8565b916131526040519384612960565b80835260208084019160051b830101918483116101c157602001905b8282106132ed575050506101008401526101208201516001600160401b0381116101c157820181601f820112156101c1578051906131ab82612fa8565b916131b96040519384612960565b80835260208084019160051b830101918483116101c157602001905b8282106132d5575050506101208401526101408201516001600160401b0381116101c15782016080818303126101c15760405191608083018381106001600160401b038211176108fd5760405281516001600160401b0381116101c1578161323e918401613004565b835260208201516001600160401b0381116101c1578161325f918401613004565b602084015260408201516001600160401b0381116101c15781613283918401612fbf565b604084015260608201516001600160401b0381116101c1576132a59201612fbf565b60608201526101408301526101608101519060048210156101c15761018091610160840152015161018082015290565b602080916132e284612f94565b8152019101906131d5565b815181526020918201910161316e565b908160209103126101c1575180151581036101c15790565b1561331c57565b60405162461bcd60e51b815260206004820152601660248201527514995d1d5c9b881d1c985b9cd9995c8819985a5b195960521b6044820152606490fd5b919082018092116115d057565b818102929181159184041417156115d057565b60035480156133a55760001901613392816003612b62565b8154600019600392831b1b191690915555565b634e487b7160e01b600052603160045260246000fd5b156133c257565b60405162461bcd60e51b815260206004820152600f60248201526e496e76616c6964206164647265737360881b6044820152606490fd5b1561340057565b60405162461bcd60e51b815260206004820152600f60248201526e151c985b9cd9995c8819985a5b1959608a1b6044820152606490fd5b600260005414613448576002600055565b60405162461bcd60e51b815260206004820152601f60248201527f5265656e7472616e637947756172643a207265656e7472616e742063616c6c006044820152606490fd5b6001546001600160a01b031633036134a157565b606460405162461bcd60e51b815260206004820152602060248201527f4f776e61626c653a2063616c6c6572206973206e6f7420746865206f776e65726044820152fdfe2690fca832a7d48acb6433d8af47a3d184803d8e82c5971c2484a99c5825af05a26469706673582212201761361fa04a925d0952ca15786b549dbbb547a4769c6656cd8e03cd676a1e9f64736f6c634300081c0033",
  "linkReferences": {},
  "deployedLinkReferences": {}
}