{"abi":[{"type":"constructor","inputs":[{"name":"_feeRecipient","type":"address","internalType":"address"}],"stateMutability":"nonpayable"},{"type":"function","name":"addLiquidity","inputs":[{"name":"poolId","type":"bytes32","internalType":"bytes32"},{"name":"baseAmount","type":"uint256","internalType":"uint256"},{"name":"quoteAmount","type":"uint256","internalType":"uint256"}],"outputs":[],"stateMutability":"nonpayable"},{"type":"function","name":"buyOrders","inputs":[{"name":"","type":"bytes32","internalType":"bytes32"},{"name":"","type":"uint256","internalType":"uint256"}],"outputs":[{"name":"","type":"bytes32","internalType":"bytes32"}],"stateMutability":"view"},{"type":"function","name":"cancelOrder","inputs":[{"name":"orderId","type":"bytes32","internalType":"bytes32"}],"outputs":[],"stateMutability":"nonpayable"},{"type":"function","name":"createPool","inputs":[{"name":"baseToken","type":"address","internalType":"address"},{"name":"baseTokenId","type":"uint256","internalType":"uint256"},{"name":"quoteToken","type":"address","internalType":"address"}],"outputs":[{"name":"","type":"bytes32","internalType":"bytes32"}],"stateMutability":"nonpayable"},{"type":"function","name":"feeRecipient","inputs":[],"outputs":[{"name":"","type":"address","internalType":"address"}],"stateMutability":"view"},{"type":"function","name":"getBestAsk","inputs":[{"name":"marketId","type":"bytes32","internalType":"bytes32"}],"outputs":[{"name":"price","type":"uint256","internalType":"uint256"},{"name":"amount","type":"uint256","internalType":"uint256"}],"stateMutability":"view"},{"type":"function","name":"getBestBid","inputs":[{"name":"marketId","type":"bytes32","internalType":"bytes32"}],"outputs":[{"name":"price","type":"uint256","internalType":"uint256"},{"name":"amount","type":"uint256","internalType":"uint256"}],"stateMutability":"view"},{"type":"function","name":"getLiquidityPosition","inputs":[{"name":"poolId","type":"bytes32","internalType":"bytes32"},{"name":"provider","type":"address","internalType":"address"}],"outputs":[{"name":"","type":"tuple","internalType":"struct CLOB.LiquidityPosition","components":[{"name":"provider","type":"address","internalType":"address"},{"name":"poolId","type":"bytes32","internalType":"bytes32"},{"name":"lpTokens","type":"uint256","internalType":"uint256"},{"name":"depositedAt","type":"uint256","internalType":"uint256"}]}],"stateMutability":"view"},{"type":"function","name":"getMarketId","inputs":[{"name":"baseToken","type":"address","internalType":"address"},{"name":"baseTokenId","type":"uint256","internalType":"uint256"},{"name":"quoteToken","type":"address","internalType":"address"}],"outputs":[{"name":"","type":"bytes32","internalType":"bytes32"}],"stateMutability":"pure"},{"type":"function","name":"getOrder","inputs":[{"name":"orderId","type":"bytes32","internalType":"bytes32"}],"outputs":[{"name":"","type":"tuple","internalType":"struct CLOB.Order","components":[{"name":"id","type":"bytes32","internalType":"bytes32"},{"name":"maker","type":"address","internalType":"address"},{"name":"baseToken","type":"address","internalType":"address"},{"name":"baseTokenId","type":"uint256","internalType":"uint256"},{"name":"quoteToken","type":"address","internalType":"address"},{"name":"price","type":"uint256","internalType":"uint256"},{"name":"amount","type":"uint256","internalType":"uint256"},{"name":"filledAmount","type":"uint256","internalType":"uint256"},{"name":"isBuy","type":"bool","internalType":"bool"},{"name":"orderType","type":"uint8","internalType":"enum CLOB.OrderType"},{"name":"status","type":"uint8","internalType":"enum CLOB.OrderStatus"},{"name":"createdAt","type":"uint256","internalType":"uint256"},{"name":"updatedAt","type":"uint256","internalType":"uint256"}]}],"stateMutability":"view"},{"type":"function","name":"getPool","inputs":[{"name":"poolId","type":"bytes32","internalType":"bytes32"}],"outputs":[{"name":"","type":"tuple","internalType":"struct CLOB.LiquidityPool","components":[{"name":"id","type":"bytes32","internalType":"bytes32"},{"name":"baseToken","type":"address","internalType":"address"},{"name":"baseTokenId","type":"uint256","internalType":"uint256"},{"name":"quoteToken","type":"address","internalType":"address"},{"name":"baseReserve","type":"uint256","internalType":"uint256"},{"name":"quoteReserve","type":"uint256","internalType":"uint256"},{"name":"totalLpTokens","type":"uint256","internalType":"uint256"},{"name":"isActive","type":"bool","internalType":"bool"}]}],"stateMutability":"view"},{"type":"function","name":"getTrade","inputs":[{"name":"tradeId","type":"bytes32","internalType":"bytes32"}],"outputs":[{"name":"","type":"tuple","internalType":"struct CLOB.Trade","components":[{"name":"id","type":"bytes32","internalType":"bytes32"},{"name":"takerOrderId","type":"bytes32","internalType":"bytes32"},{"name":"makerOrderId","type":"bytes32","internalType":"bytes32"},{"name":"taker","type":"address","internalType":"address"},{"name":"maker","type":"address","internalType":"address"},{"name":"baseToken","type":"address","internalType":"address"},{"name":"baseTokenId","type":"uint256","internalType":"uint256"},{"name":"quoteToken","type":"address","internalType":"address"},{"name":"price","type":"uint256","internalType":"uint256"},{"name":"amount","type":"uint256","internalType":"uint256"},{"name":"quoteAmount","type":"uint256","internalType":"uint256"},{"name":"timestamp","type":"uint256","internalType":"uint256"}]}],"stateMutability":"view"},{"type":"function","name":"liquidityPositions","inputs":[{"name":"","type":"bytes32","internalType":"bytes32"}],"outputs":[{"name":"provider","type":"address","internalType":"address"},{"name":"poolId","type":"bytes32","internalType":"bytes32"},{"name":"lpTokens","type":"uint256","internalType":"uint256"},{"name":"depositedAt","type":"uint256","internalType":"uint256"}],"stateMutability":"view"},{"type":"function","name":"lpFee","inputs":[],"outputs":[{"name":"","type":"uint256","internalType":"uint256"}],"stateMutability":"view"},{"type":"function","name":"makerFee","inputs":[],"outputs":[{"name":"","type":"uint256","internalType":"uint256"}],"stateMutability":"view"},{"type":"function","name":"onERC1155BatchReceived","inputs":[{"name":"","type":"address","internalType":"address"},{"name":"","type":"address","internalType":"address"},{"name":"","type":"uint256[]","internalType":"uint256[]"},{"name":"","type":"uint256[]","internalType":"uint256[]"},{"name":"","type":"bytes","internalType":"bytes"}],"outputs":[{"name":"","type":"bytes4","internalType":"bytes4"}],"stateMutability":"nonpayable"},{"type":"function","name":"onERC1155Received","inputs":[{"name":"","type":"address","internalType":"address"},{"name":"","type":"address","internalType":"address"},{"name":"","type":"uint256","internalType":"uint256"},{"name":"","type":"uint256","internalType":"uint256"},{"name":"","type":"bytes","internalType":"bytes"}],"outputs":[{"name":"","type":"bytes4","internalType":"bytes4"}],"stateMutability":"nonpayable"},{"type":"function","name":"orderIdCounter","inputs":[],"outputs":[{"name":"","type":"uint256","internalType":"uint256"}],"stateMutability":"view"},{"type":"function","name":"orderIds","inputs":[{"name":"","type":"uint256","internalType":"uint256"}],"outputs":[{"name":"","type":"bytes32","internalType":"bytes32"}],"stateMutability":"view"},{"type":"function","name":"orders","inputs":[{"name":"","type":"bytes32","internalType":"bytes32"}],"outputs":[{"name":"id","type":"bytes32","internalType":"bytes32"},{"name":"maker","type":"address","internalType":"address"},{"name":"baseToken","type":"address","internalType":"address"},{"name":"baseTokenId","type":"uint256","internalType":"uint256"},{"name":"quoteToken","type":"address","internalType":"address"},{"name":"price","type":"uint256","internalType":"uint256"},{"name":"amount","type":"uint256","internalType":"uint256"},{"name":"filledAmount","type":"uint256","internalType":"uint256"},{"name":"isBuy","type":"bool","internalType":"bool"},{"name":"orderType","type":"uint8","internalType":"enum CLOB.OrderType"},{"name":"status","type":"uint8","internalType":"enum CLOB.OrderStatus"},{"name":"createdAt","type":"uint256","internalType":"uint256"},{"name":"updatedAt","type":"uint256","internalType":"uint256"}],"stateMutability":"view"},{"type":"function","name":"owner","inputs":[],"outputs":[{"name":"","type":"address","internalType":"address"}],"stateMutability":"view"},{"type":"function","name":"pause","inputs":[],"outputs":[],"stateMutability":"nonpayable"},{"type":"function","name":"paused","inputs":[],"outputs":[{"name":"","type":"bool","internalType":"bool"}],"stateMutability":"view"},{"type":"function","name":"placeLimitOrder","inputs":[{"name":"baseToken","type":"address","internalType":"address"},{"name":"baseTokenId","type":"uint256","internalType":"uint256"},{"name":"quoteToken","type":"address","internalType":"address"},{"name":"price","type":"uint256","internalType":"uint256"},{"name":"amount","type":"uint256","internalType":"uint256"},{"name":"isBuy","type":"bool","internalType":"bool"}],"outputs":[{"name":"","type":"bytes32","internalType":"bytes32"}],"stateMutability":"nonpayable"},{"type":"function","name":"placeMarketOrder","inputs":[{"name":"baseToken","type":"address","internalType":"address"},{"name":"baseTokenId","type":"uint256","internalType":"uint256"},{"name":"quoteToken","type":"address","internalType":"address"},{"name":"amount","type":"uint256","internalType":"uint256"},{"name":"isBuy","type":"bool","internalType":"bool"},{"name":"maxPrice","type":"uint256","internalType":"uint256"}],"outputs":[{"name":"","type":"bytes32","internalType":"bytes32"}],"stateMutability":"nonpayable"},{"type":"function","name":"poolIds","inputs":[{"name":"","type":"uint256","internalType":"uint256"}],"outputs":[{"name":"","type":"bytes32","internalType":"bytes32"}],"stateMutability":"view"},{"type":"function","name":"pools","inputs":[{"name":"","type":"bytes32","internalType":"bytes32"}],"outputs":[{"name":"id","type":"bytes32","internalType":"bytes32"},{"name":"baseToken","type":"address","internalType":"address"},{"name":"baseTokenId","type":"uint256","internalType":"uint256"},{"name":"quoteToken","type":"address","internalType":"address"},{"name":"baseReserve","type":"uint256","internalType":"uint256"},{"name":"quoteReserve","type":"uint256","internalType":"uint256"},{"name":"totalLpTokens","type":"uint256","internalType":"uint256"},{"name":"isActive","type":"bool","internalType":"bool"}],"stateMutability":"view"},{"type":"function","name":"removeLiquidity","inputs":[{"name":"poolId","type":"bytes32","internalType":"bytes32"},{"name":"lpTokens","type":"uint256","internalType":"uint256"}],"outputs":[],"stateMutability":"nonpayable"},{"type":"function","name":"renounceOwnership","inputs":[],"outputs":[],"stateMutability":"nonpayable"},{"type":"function","name":"sellOrders","inputs":[{"name":"","type":"bytes32","internalType":"bytes32"},{"name":"","type":"uint256","internalType":"uint256"}],"outputs":[{"name":"","type":"bytes32","internalType":"bytes32"}],"stateMutability":"view"},{"type":"function","name":"setFeeRecipient","inputs":[{"name":"_feeRecipient","type":"address","internalType":"address"}],"outputs":[],"stateMutability":"nonpayable"},{"type":"function","name":"setFees","inputs":[{"name":"_takerFee","type":"uint256","internalType":"uint256"},{"name":"_makerFee","type":"uint256","internalType":"uint256"},{"name":"_lpFee","type":"uint256","internalType":"uint256"}],"outputs":[],"stateMutability":"nonpayable"},{"type":"function","name":"supportsInterface","inputs":[{"name":"interfaceId","type":"bytes4","internalType":"bytes4"}],"outputs":[{"name":"","type":"bool","internalType":"bool"}],"stateMutability":"view"},{"type":"function","name":"takerFee","inputs":[],"outputs":[{"name":"","type":"uint256","internalType":"uint256"}],"stateMutability":"view"},{"type":"function","name":"tradeIdCounter","inputs":[],"outputs":[{"name":"","type":"uint256","internalType":"uint256"}],"stateMutability":"view"},{"type":"function","name":"tradeIds","inputs":[{"name":"","type":"uint256","internalType":"uint256"}],"outputs":[{"name":"","type":"bytes32","internalType":"bytes32"}],"stateMutability":"view"},{"type":"function","name":"trades","inputs":[{"name":"","type":"bytes32","internalType":"bytes32"}],"outputs":[{"name":"id","type":"bytes32","internalType":"bytes32"},{"name":"takerOrderId","type":"bytes32","internalType":"bytes32"},{"name":"makerOrderId","type":"bytes32","internalType":"bytes32"},{"name":"taker","type":"address","internalType":"address"},{"name":"maker","type":"address","internalType":"address"},{"name":"baseToken","type":"address","internalType":"address"},{"name":"baseTokenId","type":"uint256","internalType":"uint256"},{"name":"quoteToken","type":"address","internalType":"address"},{"name":"price","type":"uint256","internalType":"uint256"},{"name":"amount","type":"uint256","internalType":"uint256"},{"name":"quoteAmount","type":"uint256","internalType":"uint256"},{"name":"timestamp","type":"uint256","internalType":"uint256"}],"stateMutability":"view"},{"type":"function","name":"transferOwnership","inputs":[{"name":"newOwner","type":"address","internalType":"address"}],"outputs":[],"stateMutability":"nonpayable"},{"type":"function","name":"unpause","inputs":[],"outputs":[],"stateMutability":"nonpayable"},{"type":"event","name":"FeesCollected","inputs":[{"name":"tradeId","type":"bytes32","indexed":true,"internalType":"bytes32"},{"name":"takerFeeAmount","type":"uint256","indexed":false,"internalType":"uint256"},{"name":"makerFeeAmount","type":"uint256","indexed":false,"internalType":"uint256"},{"name":"lpFeeAmount","type":"uint256","indexed":false,"internalType":"uint256"}],"anonymous":false},{"type":"event","name":"LiquidityAdded","inputs":[{"name":"poolId","type":"bytes32","indexed":true,"internalType":"bytes32"},{"name":"provider","type":"address","indexed":true,"internalType":"address"},{"name":"baseAmount","type":"uint256","indexed":false,"internalType":"uint256"},{"name":"quoteAmount","type":"uint256","indexed":false,"internalType":"uint256"},{"name":"lpTokensMinted","type":"uint256","indexed":false,"internalType":"uint256"}],"anonymous":false},{"type":"event","name":"LiquidityRemoved","inputs":[{"name":"poolId","type":"bytes32","indexed":true,"internalType":"bytes32"},{"name":"provider","type":"address","indexed":true,"internalType":"address"},{"name":"baseAmount","type":"uint256","indexed":false,"internalType":"uint256"},{"name":"quoteAmount","type":"uint256","indexed":false,"internalType":"uint256"},{"name":"lpTokensBurned","type":"uint256","indexed":false,"internalType":"uint256"}],"anonymous":false},{"type":"event","name":"OrderCancelled","inputs":[{"name":"orderId","type":"bytes32","indexed":true,"internalType":"bytes32"},{"name":"maker","type":"address","indexed":true,"internalType":"address"},{"name":"remainingAmount","type":"uint256","indexed":false,"internalType":"uint256"}],"anonymous":false},{"type":"event","name":"OrderMatched","inputs":[{"name":"takerOrderId","type":"bytes32","indexed":true,"internalType":"bytes32"},{"name":"makerOrderId","type":"bytes32","indexed":true,"internalType":"bytes32"},{"name":"tradeId","type":"bytes32","indexed":true,"internalType":"bytes32"},{"name":"fillAmount","type":"uint256","indexed":false,"internalType":"uint256"},{"name":"fillPrice","type":"uint256","indexed":false,"internalType":"uint256"},{"name":"quoteAmount","type":"uint256","indexed":false,"internalType":"uint256"}],"anonymous":false},{"type":"event","name":"OrderPlaced","inputs":[{"name":"orderId","type":"bytes32","indexed":true,"internalType":"bytes32"},{"name":"maker","type":"address","indexed":true,"internalType":"address"},{"name":"baseToken","type":"address","indexed":true,"internalType":"address"},{"name":"baseTokenId","type":"uint256","indexed":false,"internalType":"uint256"},{"name":"quoteToken","type":"address","indexed":false,"internalType":"address"},{"name":"price","type":"uint256","indexed":false,"internalType":"uint256"},{"name":"amount","type":"uint256","indexed":false,"internalType":"uint256"},{"name":"isBuy","type":"bool","indexed":false,"internalType":"bool"},{"name":"orderType","type":"uint8","indexed":false,"internalType":"enum CLOB.OrderType"}],"anonymous":false},{"type":"event","name":"OrderUpdated","inputs":[{"name":"orderId","type":"bytes32","indexed":true,"internalType":"bytes32"},{"name":"newStatus","type":"uint8","indexed":false,"internalType":"enum CLOB.OrderStatus"},{"name":"filledAmount","type":"uint256","indexed":false,"internalType":"uint256"},{"name":"remainingAmount","type":"uint256","indexed":false,"internalType":"uint256"}],"anonymous":false},{"type":"event","name":"OwnershipTransferred","inputs":[{"name":"previousOwner","type":"address","indexed":true,"internalType":"address"},{"name":"newOwner","type":"address","indexed":true,"internalType":"address"}],"anonymous":false},{"type":"event","name":"Paused","inputs":[{"name":"account","type":"address","indexed":false,"internalType":"address"}],"anonymous":false},{"type":"event","name":"PoolCreated","inputs":[{"name":"poolId","type":"bytes32","indexed":true,"internalType":"bytes32"},{"name":"baseToken","type":"address","indexed":true,"internalType":"address"},{"name":"baseTokenId","type":"uint256","indexed":false,"internalType":"uint256"},{"name":"quoteToken","type":"address","indexed":true,"internalType":"address"}],"anonymous":false},{"type":"event","name":"TradeExecuted","inputs":[{"name":"tradeId","type":"bytes32","indexed":true,"internalType":"bytes32"},{"name":"taker","type":"address","indexed":true,"internalType":"address"},{"name":"maker","type":"address","indexed":true,"internalType":"address"},{"name":"baseToken","type":"address","indexed":false,"internalType":"address"},{"name":"baseTokenId","type":"uint256","indexed":false,"internalType":"uint256"},{"name":"price","type":"uint256","indexed":false,"internalType":"uint256"},{"name":"amount","type":"uint256","indexed":false,"internalType":"uint256"},{"name":"quoteAmount","type":"uint256","indexed":false,"internalType":"uint256"},{"name":"timestamp","type":"uint256","indexed":false,"internalType":"uint256"}],"anonymous":false},{"type":"event","name":"Unpaused","inputs":[{"name":"account","type":"address","indexed":false,"internalType":"address"}],"anonymous":false},{"type":"error","name":"InsufficientBalance","inputs":[]},{"type":"error","name":"InsufficientLiquidity","inputs":[]},{"type":"error","name":"InvalidAmount","inputs":[]},{"type":"error","name":"InvalidFeeConfiguration","inputs":[]},{"type":"error","name":"InvalidPrice","inputs":[]},{"type":"error","name":"NotOrderOwner","inputs":[]},{"type":"error","name":"OrderNotFound","inputs":[]},{"type":"error","name":"OrderNotOpen","inputs":[]},{"type":"error","name":"PoolNotActive","inputs":[]},{"type":"error","name":"PoolNotFound","inputs":[]}],"bytecode":{"object":"0x60803460cc57601f6133f238819003918201601f19168301916001600160401b0383118484101760d05780849260209460405283398101031260cc57516001600160a01b0381169081900360cc5760015f5560015490604051913360018060a01b0382167f8be0079c531659141344cd1fd0a4f28419497f9722a3daafe3b4186f6b6457e05f80a36001600160a81b0319163360ff60a01b191617600155601e600d55600a600e556019600f55601080546001600160a01b03191691909117905561330d90816100e58239f35b5f80fd5b634e487b7160e01b5f52604160045260245ffdfe60c0806040526004361015610012575f80fd5b5f905f3560e01c90816216242014611d8b5750806301bd4fa414611b9757806301ffc9a714611b405780630dfe72d614611a705780632372208414611a2d578063241cb060146119fb57806336f0b24d146116065780633f4ba83a1461156957806343f0179b1461154b57806346904840146115225780634fe6e142146115085780635778472a146113195780635c975abb146112f357806367b3a29d1461129e57806369883b4e1461125b5780636a7cf8451461123c578063704ce43e1461121e578063715018a6146111c157806371ace7ec14610e8b5780637489ec2314610dc85780638456cb5914610d655780638da5cb5b14610d3c5780639bb62b7614610d125780639c3f1e9014610c32578063a3b1379914610a8c578063a893fb1814610a6e578063b5217bb4146109e1578063bc197c8114610948578063be3744231461092a578063cec10c11146108da578063d50d458f146108af578063e23df6ee14610502578063e74b981b146104c2578063f099082814610481578063f23a6e6114610426578063f2fde38b1461035d578063f6c0092714610241578063fc741c7c146102235763ff52c484146101ca575f80fd5b3461022057602036600319011261022057600435906006548210156102205760065482101561020c576020916006825282822001549060031b1c604051908152f35b634e487b7160e01b81526032600452602490fd5b80fd5b50346102205780600319360112610220576020600e54604051908152f35b5034610220576020366003190112610220576040816101009260e0835161026781611f8b565b82815282602082015282858201528260608201528260808201528260a08201528260c082015201526004358152600a602052206040516102a681611f8b565b81549182825260018060a01b036001820154166020830190815260028201546040840190815260018060a01b03600384015416606085019081526004840154916080860192835260058501549360a0870194855260e060ff600760068901549860c08b01998a520154169701961515875260405197885260018060a01b03905116602088015251604087015260018060a01b0390511660608601525160808501525160a08401525160c083015251151560e0820152f35b503461022057602036600319011261022057610377611e78565b61037f612f0d565b6001600160a01b031680156103d257600180546001600160a01b0319811683179091556001600160a01b03167f8be0079c531659141344cd1fd0a4f28419497f9722a3daafe3b4186f6b6457e08380a380f35b60405162461bcd60e51b815260206004820152602660248201527f4f776e61626c653a206e6577206f776e657220697320746865207a65726f206160448201526564647265737360d01b6064820152608490fd5b50346102205760a036600319011261022057610440611e78565b50610449611e62565b5060843567ffffffffffffffff811161047d5761046a90369060040161204e565b5060405163f23a6e6160e01b8152602090f35b5080fd5b50346102205761049036611e4c565b919081526008602052604081209081548310156102205760206104b38484611ea4565b90549060031b1c604051908152f35b5034610220576020366003190112610220576104dc611e78565b6104e4612f0d565b60018060a01b03166001600160601b0360a01b601054161760105580f35b50346102205760c03660031901126102205761051c611e78565b610524611e8e565b60a4359182151583036108835761053961248a565b61054161251e565b608435156108a0576064351561089257821561081f57610579610568608435606435612094565b30336001600160a01b038616612565565b600454610585816125a9565b600455604051602081019182526001600160601b03193360601b166040820152426054820152605481526105ba607482611fa8565b519020926040516105ca81611f51565b848152602081019033825285876040830160018060a01b03871681526106e26060850160243581526080860160018060a01b038b16815260a08701606435815260c0880190608435825260e08901928784526101008a01948c151586526101208b01976106378a8a612165565b6101408c018a8152426101608e018181526101808f01919091529b8b52600260208190526040909b208d5181559d5160018f0180546001600160a01b039283166001600160a01b03199182161790915592519b8f0180549c82169c84169c909c17909b55915160038e0155915160048d01805491909a169216919091179097555160058a01555160068901555160078801555160088701805460ff191691151560ff16919091179055565b51600281101561080b5761ff0060088601549160081b169061ff0019161760088501555160048110156107f7576101806001979593859361072c600a94600860209e9b99016125b7565b516009850155015191015561074086612215565b61074d836024358461211e565b81156107df57845260088752610766866040862061313a565b604051926024358452858060a01b031687840152606435604084015260843560608401521515608083015261079e60a0830184611f07565b838060a01b031690847ff56f9365c7c8105f65df67c4e15540f72e12389f8e75e43662f326ceaf51e8d560c03393a46107d6836125d8565b55604051908152f35b8452600987526107f2866040862061307d565b610766565b634e487b7160e01b89526021600452602489fd5b634e487b7160e01b8a52602160045260248afd5b836001600160a01b038216803b1561047d57816040518092637921219560e11b82528183816108586084356024353033600486016120e6565b03925af180156108875761086e575b5050610579565b8161087891611fa8565b61088357835f610867565b8380fd5b6040513d84823e3d90fd5b62bfc92160e01b8452600484fd5b63162908e360e11b8452600484fd5b50346102205760203660031901126102205760406108ce600435612416565b82519182526020820152f35b5034610220576060366003190112610220576024356004356108fa612f0d565b6103e86109078383612208565b1161091b57600d55600e55604435600f5580f35b63369276d760e11b8352600483fd5b50346102205780600319360112610220576020600454604051908152f35b50346102205760a036600319011261022057610962611e78565b5061096b611e62565b5060443567ffffffffffffffff811161047d5761098c903690600401611fca565b5060643567ffffffffffffffff811161047d576109ad903690600401611fca565b5060843567ffffffffffffffff811161047d576109ce90369060040161204e565b5060405163bc197c8160e01b8152602090f35b5034610220576020366003190112610220576040610100916004358152600a6020522080549060018060a01b0360018201541690600281015460018060a01b0360038301541660048301549060058401549260ff600760068701549601541695604051978852602088015260408701526060860152608085015260a084015260c0830152151560e0820152f35b50346102205780600319360112610220576020600754604051908152f35b503461022057602036600319011261022057604081610180926101608351610ab381611f6e565b82815282602082015282858201528260608201528260808201528260a08201528260c08201528260e082015282610100820152826101208201528261014082015201526004358152600560205220604051610b0d81611f6e565b8082549283825260018101546020830190815260028201546040840190815260018060a01b036003840154166060850190815260018060a01b036004850154166080860190815260018060a01b036005860154169060a0870191825260068601549260c0880193845260018060a01b036007880154169460e089019586526008880154966101008a01978852610160600b60098b01549a6101208d019b8c52610140600a8201549d019c8d5201549b019a8b526040519b8c525160208c01525160408b015260018060a01b0390511660608a015260018060a01b03905116608089015260018060a01b0390511660a08801525160c087015260018060a01b0390511660e086015251610100850152516101208401525161014083015251610160820152f35b50346102205760203660031901126102205760406101a091600435815260026020522080549060018060a01b0360018201541690610d0460018060a01b03600283015416600383015460018060a01b036004850154166005850154600686015491600787015493600888015495600a60098a0154990154996040519b8c5260208c015260408b015260608a0152608089015260a088015260c087015260e086015260ff81161515610100860152610cf3610120860160ff8360081c16611f07565b60ff61014086019160101c16611f14565b610160830152610180820152f35b5034610220576020610d34610d2636611ecd565b91610d2f612f0d565b612277565b604051908152f35b50346102205780600319360112610220576001546040516001600160a01b039091168152602090f35b5034610220578060031936011261022057610d7e612f0d565b610d8661251e565b6001805460ff60a01b1916600160a01b1790556040513381527f62e78cea01bee320cd4e420270b5ea74000d11b0c9f74754ebdbfc544b05a25890602090a180f35b503461022057602036600319011261022057600435610de561248a565b808252600260205260408220805415610e7c5760018101546001600160a01b03163303610e6d576008015460101c60ff166004811015610e59578015159081610e4d575b50610e3e57610e3790612d35565b6001815580f35b63206931ef60e01b8252600482fd5b6001915014155f610e29565b634e487b7160e01b83526021600452602483fd5b637b2095ad60e11b8352600483fd5b63d36d896560e01b8352600483fd5b503461022057606036600319011261022057602435600435604435610eae61248a565b610eb661251e565b818452600a602052604084208054156111b25760ff600782015416156111a3578315801561119b575b61118c576001810154600282015486916001600160a01b0316803b1561118857868391610f259383604051809681958294637921219560e11b84523033600486016120e6565b03925af180156108875761116f575b5050610f4e82303360018060a01b03600386015416612565565b6006810190815480155f146110fd57610f678487612094565b8760038211156110c45750808060011c600181018091116110b057905b8282106110915750507f9c8e2178a53b464e8c6d21c6d0d1f5189e5d2f6f6a79237ba611cf996a6e6b32949260059492610fe1925b9586925b60048101610fcc8c8254612208565b905501610fda868254612208565b9055612208565b905560408051602081018681523360601b6001600160601b0319169282019290925261101a81605481015b03601f198101835282611fa8565b5190208652600b602052604086208054600291906001600160a01b03161561106f575b01611049838254612208565b9055604080519586526020860191909152840152339280606081015b0390a36001815580f35b80546001600160a01b031916331781556001810186905542600382015561103d565b9091506110a7826110a281846120bb565b612208565b60011c90610f84565b634e487b7160e01b8a52601160045260248afd5b92600594927f9c8e2178a53b464e8c6d21c6d0d1f5189e5d2f6f6a79237ba611cf996a6e6b329694610fe19315610fb957506001610fb9565b91610fe17f9c8e2178a53b464e8c6d21c6d0d1f5189e5d2f6f6a79237ba611cf996a6e6b3294928461113f6111346005978b612094565b6004840154906120bb565b61115661114c8388612094565b88850154906120bb565b8082101561116857505b958692610fbd565b9050611160565b8161117991611fa8565b61118457845f610f34565b8480fd5b8280fd5b63162908e360e11b8552600485fd5b508115610edf565b6338c0a90160e11b8552600485fd5b6301dbb3ff60e61b8552600485fd5b50346102205780600319360112610220576111da612f0d565b600180546001600160a01b0319811690915581906001600160a01b03167f8be0079c531659141344cd1fd0a4f28419497f9722a3daafe3b4186f6b6457e08280a380f35b50346102205780600319360112610220576020600f54604051908152f35b50346102205760203660031901126102205760406108ce600435612171565b50346102205760203660031901126102205760043590600c5482101561022057600c5482101561020c57602091600c825282822001549060031b1c604051908152f35b50346102205760203660031901126102205760406080916004358152600b6020522060018060a01b03815416906001810154906003600282015491015491604051938452602084015260408301526060820152f35b5034610220578060031936011261022057602060ff60015460a01c166040519015158152f35b5034610220576020366003190112610220578061018060405161133b81611f51565b8281528260208201528260408201528260608201528260808201528260a08201528260c08201528260e0820152826101008201528261012082015282610140820152826101608201520152600435815260026020526040812090604051916113a283611f51565b8054835260018060a01b03600182015416916020840192835260018060a01b03600283015416604085019081526003830154906060860191825260018060a01b0360048501541660808701908152600585015460a0880190815260068601549060c0890191825260078701549260e08a019384526008880154956101008b019560ff88161515875260ff6101208d0198611441828260081c168b612165565b60101c166101408d019960048210156114f45750895260098a01546101608d01908152600a909a01546101808d01908152604080519d518e529b516001600160a01b0390811660208f0152915182169b8d019b909b52905160608c015290511660808a01525160a08901525160c08801525160e0870152511515610100860152516114d190610120860190611f07565b5161014084016114e091611f14565b51610160830152516101808201526101a090f35b634e487b7160e01b81526021600452602490fd5b5034610220576020610d3461151c36611ecd565b9161211e565b50346102205780600319360112610220576010546040516001600160a01b039091168152602090f35b50346102205780600319360112610220576020600d54604051908152f35b5034610220578060031936011261022057611582612f0d565b60015460ff8160a01c16156115ca5760ff60a01b19166001556040513381527f5db9ee0a495bf2e6ff9c91a7834c1ba4fdd244a5e8aa4e537bd38aeae4b073aa90602090a180f35b60405162461bcd60e51b815260206004820152601460248201527314185d5cd8589b194e881b9bdd081c185d5cd95960621b6044820152606490fd5b50346102205760c036600319011261022057611620611e78565b6024359061162c611e8e565b916064359260843593841515918286036119e85761164861248a565b61165061251e565b81156119ec5785156119885761167c61166b8360a435612094565b30336001600160a01b038516612565565b600454611688816125a9565b600455604051602081019182526001600160601b03193360601b166040820152426054820152605481526116bd607482611fa8565b51902095604051916116ce83611f51565b878352602083019633885260408401938960018060a01b038316998a8752888d60608501988c8a5260808601998b60018060a01b038a169b8c815260a089019060a435825260c08a0192835260e08a01938685526101008b019788526101208b0195600260011015611932578b996040896101806101608e60018d5261014081019d8e52019d8e429052019d8e42905281526002602052209c518d5560018060a01b0390511660018d019060018060a01b03166001600160601b0360a01b82541617905560018060a01b0390511660028c019060018060a01b03166001600160601b0360a01b8254161790555160038b015560018060a01b0390511660048a019060018060a01b03166001600160601b0360a01b8254161790555160058901555160068801555160078701556118176008870193511515849060ff801983541691151516179055565b5160028110156119735761ff0083549160081b169061ff0019161782555190600482101561195f57928b9492611854600a9361186c9998966125b7565b516009840155519101556118678b612215565b61211e565b90156119465787526008602052611886866040892061313a565b60408051948552602085019190915260a4359084015260608301526080820152600160a0820152827ff56f9365c7c8105f65df67c4e15540f72e12389f8e75e43662f326ceaf51e8d560c03393a46118dd816125d8565b808252600260205260ff600860408420015460101c166004811015610e59576020928160019215908115611928575b5061191a5755604051908152f35b61192383612d35565b6107d6565b839150145f61190c565b634e487b7160e01b5f52602160045260245ffd5b8752600960205261195a866040892061307d565b611886565b634e487b7160e01b8f52602160045260248ffd5b50634e487b7160e01b8f52602160045260248ffd5b866001600160a01b038616803b1561047d57816040518092637921219560e11b82528183816119bd8a8d3033600486016120e6565b03925af18015610887576119d3575b505061167c565b816119dd91611fa8565b6119e857865f6119cc565b8680fd5b63162908e360e11b8752600487fd5b503461022057611a0a36611e4c565b919081526009602052604081209081548310156102205760206104b38484611ea4565b503461022057602036600319011261022057600435906003548210156102205760035482101561020c576020916003825282822001549060031b1c604051908152f35b5034610220576040366003190112610220576040608091611a8f611e62565b8160608451611a9d81611f21565b828152826020820152828682015201528251611add8161100c602082019460043586909160349282526001600160601b03199060601b1660208201520190565b5190208152600b60205220604051611af481611f21565b60018060a01b0382541691828252600181015460208301908152606060036002840154936040860194855201549301928352604051938452516020840152516040830152516060820152f35b50346102205760203660031901126102205760043563ffffffff60e01b811680910361047d57602090630271189760e51b8114908115611b86575b506040519015158152f35b6301ffc9a760e01b14905082611b7b565b5034611d6957611ba636611e4c565b90611baf61248a565b805f52600a60205260405f2091825415611d7c5760408051602081018481523360601b6001600160601b03191692820192909252611bf0816054810161100c565b5190205f52600b602052600260405f200181815410611d6d57836004611c5d950191825492611c6485611c238682612094565b6006860193611c34855480936120bb565b9a8b986005890192835490611c5d611c5587611c50858b612094565b6120bb565b9c8d946120d9565b90556120d9565b9055611c718482546120d9565b905560018101546002820154906001600160a01b0316803b15611d6957865f91611cb49383604051809681958294637921219560e11b84523330600486016120e6565b03925af18015611d5e57611d20575b50600301547f1644e236c5520c62ce0dee793b42f87f940781d55b02c890fbbcdfff1ee5e251929190611d0290829033906001600160a01b03166124de565b60408051958652602086019190915284015233928060608101611065565b7f1644e236c5520c62ce0dee793b42f87f940781d55b02c890fbbcdfff1ee5e25193929196505f611d5091611fa8565b5f9591925090611d02611cc3565b6040513d5f823e3d90fd5b5f80fd5b631e9acf1760e31b5f5260045ffd5b6301dbb3ff60e61b5f5260045ffd5b34611d69576020366003190112611d6957610180906004355f52600560205260405f208054906001810154600282015460018060a01b0360038401541660018060a01b0360048501541660018060a01b0360058601541660068601549160018060a01b0360078801541693600888015495600989015497600b600a8b01549a01549a8c5260208c015260408b015260608a0152608089015260a088015260c087015260e0860152610100850152610120840152610140830152610160820152f35b6040906003190112611d69576004359060243590565b602435906001600160a01b0382168203611d6957565b600435906001600160a01b0382168203611d6957565b604435906001600160a01b0382168203611d6957565b8054821015611eb9575f5260205f2001905f90565b634e487b7160e01b5f52603260045260245ffd5b6060906003190112611d69576004356001600160a01b0381168103611d695790602435906044356001600160a01b0381168103611d695790565b9060028210156119325752565b9060048210156119325752565b6080810190811067ffffffffffffffff821117611f3d57604052565b634e487b7160e01b5f52604160045260245ffd5b6101a0810190811067ffffffffffffffff821117611f3d57604052565b610180810190811067ffffffffffffffff821117611f3d57604052565b610100810190811067ffffffffffffffff821117611f3d57604052565b90601f8019910116810190811067ffffffffffffffff821117611f3d57604052565b9080601f83011215611d695781359167ffffffffffffffff8311611f3d578260051b9060405193611ffe6020840186611fa8565b8452602080850192820101928311611d6957602001905b8282106120225750505090565b8135815260209182019101612015565b67ffffffffffffffff8111611f3d57601f01601f191660200190565b81601f82011215611d695780359061206582612032565b926120736040519485611fa8565b82845260208383010111611d6957815f926020809301838601378301015290565b818102929181159184041417156120a757565b634e487b7160e01b5f52601160045260245ffd5b81156120c5570490565b634e487b7160e01b5f52601260045260245ffd5b919082039182116120a757565b6001600160a01b039182168152911660208201526040810191909152606081019190915260a0608082018190525f9082015260c00190565b916040519160208301936001600160601b03199060601b16845260348301526001600160601b03199060601b1660548201526048815261215f606882611fa8565b51902090565b60028210156119325752565b5f52600960205260405f205f908054915b828110612192575050505f905f90565b61219c8183611ea4565b90549060031b1c5f52600260205260405f2060ff600882015460101c1660048110156119325780159081156121fd575b506121da5750600101612182565b809493506121fa92506005915001549260076006820154910154906120d9565b90565b60019150145f6121cc565b919082018092116120a757565b60035490600160401b821015611f3d5761223a82600161225294016003556003611ea4565b90919082549060031b91821b915f19901b1916179055565b565b90815491600160401b831015611f3d578261223a91600161225295018155611ea4565b604051631c1bdbdb60e21b602082019081526001600160601b0319606084811b821660248501526038840186905286901b166058830152604c825292936001600160a01b0390811693921691906122cf606c82611fa8565b51902092835f52600a60205260405f2054612410576123bb6040516122f381611f8b565b8581526007602082018581526040830185815260608401888152608085015f815260a08601915f835260c08701935f855260e0880195600187528d5f52600a60205260405f209851895560018060a01b03905116600189019060018060a01b03166001600160601b0360a01b82541617905551600288015560018060a01b03905116600387019060018060a01b03166001600160601b0360a01b82541617905551600486015551600585015551600684015551151591019060ff801983541691151516179055565b600c5490600160401b821015611f3d5760207fc7d2f5d284e3e83c6f4e64072799c2c021ed525ea65a71a56ccb34d31b541376916124068761223a866001839801600c55600c611ea4565b604051908152a490565b50505090565b5f52600860205260405f205f908054915b828110612437575050505f905f90565b6124418183611ea4565b90549060031b1c5f52600260205260405f2060ff600882015460101c16600481101561193257801590811561247f575b506121da5750600101612427565b60019150145f612471565b60025f54146124995760025f55565b60405162461bcd60e51b815260206004820152601f60248201527f5265656e7472616e637947756172643a207265656e7472616e742063616c6c006044820152606490fd5b60405163a9059cbb60e01b60208201526001600160a01b03909216602483015260448083019390935291815261225291612519606483611fa8565b612f65565b60ff60015460a01c1661252d57565b60405162461bcd60e51b815260206004820152601060248201526f14185d5cd8589b194e881c185d5cd95960821b6044820152606490fd5b6040516323b872dd60e01b60208201526001600160a01b03928316602482015292909116604483015260648083019390935291815261225291612519608483611fa8565b5f1981146120a75760010190565b9060048110156119325762ff000082549160101b169062ff00001916179055565b6080526080515f52600260205260405f2061261160018060a01b03600283015416600383015460018060a01b036004850154169161211e565b91600882019260ff8454165f14612d25575f52600960205260405f205b61264160068401546007850154906120d9565b915f5b8254811080612d1c575b15612d145761265d8184611ea4565b90549060031b1c5f52600260205260405f2060ff600882015460101c166004811015611932578015159081612d08575b50612cfe57865460ff1615612ce5576005810154600587015410612cdc575b6126bf60068201546007830154906120d9565b80861015612cd75750845b806126e0575b50506126db906125a9565b612644565b60056126f0848798949598611ea4565b90549060031b1c930154916080515f52600260205260405f2093805f52600260205260405f2060a052600754612725816125a9565b6007556040516020810191825242604082015260408152612747606082611fa8565b519020946127558486612094565b95612764856007840154612208565b600783015561277985600760a0510154612208565b600760a051015542600a83015542600a60a05101556007820154600683015411155f14612cbf5760088201805462ff00001916620200001790555b60a051600781015460069091015411612ca55760a051600801805462ff00001916620200001790555b6127106127ec600d5489612094565b046127106127fc600e548a612094565b049760ff6008850154165f14612c0d576002840154600185015460038601546001600160a01b0392831692909116823b15611d6957612858925f92838c9360405196879586948593637921219560e11b855230600486016120e6565b03925af18015611d5e57612bfd575b50600484015460a05160010154612895916001600160a01b03908116911661288f8c856120d9565b916124de565b61289f8983612208565b612bd5575b60018060a01b03600185015416600b84878a8c60018060a01b03600160a05101541660018060a01b0360028c01541660038c0154908c600460018060a01b039101541692604051996128f58b611f6e565b888b5260208b0197608051895260408c0190815260608c0191825260808c0192835260a08c0193845260c08c0194855260e08c019586526101008c019687526101208c019788526101408c01988d8a526101608d019a428c525f52600560205260405f209c518d555160018d01555160028c015560018060a01b0390511660038b019060018060a01b03166001600160601b0360a01b82541617905560018060a01b0390511660048a019060018060a01b03166001600160601b0360a01b82541617905560018060a01b03905116600589019060018060a01b03166001600160601b0360a01b82541617905551600688015560018060a01b03905116600787019060018060a01b03166001600160601b0360a01b82541617905551600886015551600985015551600a8401555191015560065491600160401b831015611f3d576126db99612bcd9989867f9866e5d59a0eb53df5a0fd585d490f8bdddf8e29e38efc7596bcca4c3a17808e60c08a606098848e612a9f8261223a7ff2157d9acd14e67f414f1635f8643fa9628b9dc99ddf69358510bb7d2045c9269f600181016006556006611ea4565b604080516080518a8252602082018c90529181018590527f26e28f7ff914ff6e5bb6c995fdb96ff95d3e3eb88e9b9b09569385d3793fc32390606090a460018060a01b036001830154169560018060a01b03600160a05101541697600360018060a01b03600286015416940154604051948552602085015260408401528a83015260808201524260a0820152a460405191825260208201525f6040820152a25f5160206132b85f395f51905f526006612b6c60ff600885015460101c1693600781015492839101546120d9565b90612b8060405192839260805196846131e6565b0390a25f5160206132b85f395f51905f5260ff600860a051015460101c16600760a051015490612bc5612bb983600660a05101546120d9565b604051938493846131e6565b0390a26120d9565b93905f6126d0565b6004840154601054612bf8916001600160a01b03908116911661288f8c86612208565b6128a4565b5f612c0791611fa8565b5f612867565b600284015460a0516001015460038601546001600160a01b0392831692909116823b15611d6957612c5b925f92838c9360405196879586948593637921219560e11b855230600486016120e6565b03925af18015611d5e57612c95575b5060048401546001850154612c90916001600160a01b03908116911661288f85856120d9565b612895565b5f612c9f91611fa8565b5f612c6a565b60a051600801805462ff00001916620100001790556127dd565b60088201805462ff00001916620100001790556127b4565b6126ca565b50509350505050565b6005810154600587015411156126ac5750509350505050565b506126db906125a9565b6001915014155f61268d565b509350505050565b5083151561264e565b5f52600860205260405f2061262e565b5f815f52600260205260405f20906006820154612d5860078401918254906120d9565b84600885016203000062ff00001982541617815542600a87015582612ddc575b509060609392917fb2705df32ac67fc3101f496cd7036bf59074a603544d97d73650b6f09744986a60205f5160206132b85f395f51905f52976001808060a01b039101541693604051908152a35490604051916003835260208301526040820152a2565b5460ff1615612e57579060609392917fb2705df32ac67fc3101f496cd7036bf59074a603544d97d73650b6f09744986a602087612e4a612e2e8660055f5160206132b85f395f51905f529c0154612094565b600483015460018401546001600160a01b0390811691166124de565b9750505090919293612d78565b506002840154600185015460038601546001600160a01b0392831695949392909116853b15611d6957612ea7955f92838593604051998a9586948593637921219560e11b855230600486016120e6565b03925af18015611d5e575f5160206132b85f395f51905f52956060958892612ef4575b5060207fb2705df32ac67fc3101f496cd7036bf59074a603544d97d73650b6f09744986a91612e4a565b5f919550612f029250611fa8565b5f9286906020612eca565b6001546001600160a01b03163303612f2157565b606460405162461bcd60e51b815260206004820152602060248201527f4f776e61626c653a2063616c6c6572206973206e6f7420746865206f776e65726044820152fd5b90612fe49160018060a01b03165f8060405193612f83604086611fa8565b602085527f5361666545524332303a206c6f772d6c6576656c2063616c6c206661696c6564602086015260208151910182855af13d15613075573d91612fc883612032565b92612fd66040519485611fa8565b83523d5f602085013e613203565b8051908115918215613052575b505015612ffa57565b60405162461bcd60e51b815260206004820152602a60248201527f5361666545524332303a204552433230206f7065726174696f6e20646964206e6044820152691bdd081cdd58d8d9595960b21b6064820152608490fd5b8192509060209181010312611d6957602001518015158103611d69575f80612ff1565b606091613203565b5f828152600260205260408120600501549291905b8154811015613132576130a58183611ea4565b90549060031b1c5f526002602052600560405f20015484106130c957600101613092565b9192505b6130d78382612254565b80545f1981019081116120a7575b8281116130fb5750612252929161223a91611ea4565b5f1981018181116120a7576131136131249184611ea4565b90549060031b1c61223a8385611ea4565b80156120a7575f19016130e5565b9192506130cd565b5f828152600260205260408120600501549291905b81548110156131de576131628183611ea4565b90549060031b1c5f526002602052600560405f20015484116131865760010161314f565b9192505b6131948382612254565b80545f1981019081116120a7575b8281116131b85750612252929161223a91611ea4565b5f1981018181116120a7576131136131d09184611ea4565b80156120a7575f19016131a2565b91925061318a565b6040919493926131fa826060810197611f14565b60208201520152565b919290156132655750815115613217575090565b3b156132205790565b60405162461bcd60e51b815260206004820152601d60248201527f416464726573733a2063616c6c20746f206e6f6e2d636f6e74726163740000006044820152606490fd5b8251909150156132785750805190602001fd5b604460209160405192839162461bcd60e51b83528160048401528051918291826024860152018484015e5f828201840152601f01601f19168101030190fdfe39d87542c7ecd619c7f7b80744eae19dad5d555818089816c04dc2f8b19c51d0a26469706673582212200f88958361dcb73377b683514a0b68bf330de8110da9f5ccb803e5c532470d3364736f6c634300081c0033","linkReferences":{}},"methodIdentifiers":{"addLiquidity(bytes32,uint256,uint256)":"71ace7ec","buyOrders(bytes32,uint256)":"f0990828","cancelOrder(bytes32)":"7489ec23","createPool(address,uint256,address)":"9bb62b76","feeRecipient()":"46904840","getBestAsk(bytes32)":"6a7cf845","getBestBid(bytes32)":"d50d458f","getLiquidityPosition(bytes32,address)":"0dfe72d6","getMarketId(address,uint256,address)":"4fe6e142","getOrder(bytes32)":"5778472a","getPool(bytes32)":"f6c00927","getTrade(bytes32)":"a3b13799","liquidityPositions(bytes32)":"67b3a29d","lpFee()":"704ce43e","makerFee()":"fc741c7c","onERC1155BatchReceived(address,address,uint256[],uint256[],bytes)":"bc197c81","onERC1155Received(address,address,uint256,uint256,bytes)":"f23a6e61","orderIdCounter()":"be374423","orderIds(uint256)":"23722084","orders(bytes32)":"9c3f1e90","owner()":"8da5cb5b","pause()":"8456cb59","paused()":"5c975abb","placeLimitOrder(address,uint256,address,uint256,uint256,bool)":"e23df6ee","placeMarketOrder(address,uint256,address,uint256,bool,uint256)":"36f0b24d","poolIds(uint256)":"69883b4e","pools(bytes32)":"b5217bb4","removeLiquidity(bytes32,uint256)":"01bd4fa4","renounceOwnership()":"715018a6","sellOrders(bytes32,uint256)":"241cb060","setFeeRecipient(address)":"e74b981b","setFees(uint256,uint256,uint256)":"cec10c11","supportsInterface(bytes4)":"01ffc9a7","takerFee()":"43f0179b","tradeIdCounter()":"a893fb18","tradeIds(uint256)":"ff52c484","trades(bytes32)":"00162420","transferOwnership(address)":"f2fde38b","unpause()":"3f4ba83a"},"id":6}