{
  "_format": "hh-sol-artifact-1",
  "contractName": "Aura",
  "sourceName": "contracts/Aura.sol",
  "abi": [
    {
      "inputs": [],
      "stateMutability": "nonpayable",
      "type": "constructor"
    },
    {
      "anonymous": false,
      "inputs": [
        {
          "indexed": true,
          "internalType": "address",
          "name": "owner",
          "type": "address"
        },
        {
          "indexed": true,
          "internalType": "address",
          "name": "spender",
          "type": "address"
        },
        {
          "indexed": false,
          "internalType": "uint256",
          "name": "value",
          "type": "uint256"
        }
      ],
      "name": "Approval",
      "type": "event"
    },
    {
      "anonymous": false,
      "inputs": [
        {
          "indexed": true,
          "internalType": "address",
          "name": "from",
          "type": "address"
        },
        {
          "indexed": true,
          "internalType": "address",
          "name": "to",
          "type": "address"
        },
        {
          "indexed": false,
          "internalType": "uint256",
          "name": "value",
          "type": "uint256"
        }
      ],
      "name": "Transfer",
      "type": "event"
    },
    {
      "inputs": [],
      "name": "_deployer",
      "outputs": [
        {
          "internalType": "address",
          "name": "",
          "type": "address"
        }
      ],
      "stateMutability": "view",
      "type": "function"
    },
    {
      "inputs": [
        {
          "internalType": "address",
          "name": "owner",
          "type": "address"
        },
        {
          "internalType": "address",
          "name": "spender",
          "type": "address"
        }
      ],
      "name": "allowance",
      "outputs": [
        {
          "internalType": "uint256",
          "name": "",
          "type": "uint256"
        }
      ],
      "stateMutability": "view",
      "type": "function"
    },
    {
      "inputs": [
        {
          "internalType": "address",
          "name": "spender",
          "type": "address"
        },
        {
          "internalType": "uint256",
          "name": "amount",
          "type": "uint256"
        }
      ],
      "name": "approve",
      "outputs": [
        {
          "internalType": "bool",
          "name": "",
          "type": "bool"
        }
      ],
      "stateMutability": "nonpayable",
      "type": "function"
    },
    {
      "inputs": [
        {
          "internalType": "address",
          "name": "account",
          "type": "address"
        }
      ],
      "name": "balanceOf",
      "outputs": [
        {
          "internalType": "uint256",
          "name": "",
          "type": "uint256"
        }
      ],
      "stateMutability": "view",
      "type": "function"
    },
    {
      "inputs": [],
      "name": "decimals",
      "outputs": [
        {
          "internalType": "uint8",
          "name": "",
          "type": "uint8"
        }
      ],
      "stateMutability": "view",
      "type": "function"
    },
    {
      "inputs": [
        {
          "internalType": "address",
          "name": "spender",
          "type": "address"
        },
        {
          "internalType": "uint256",
          "name": "subtractedValue",
          "type": "uint256"
        }
      ],
      "name": "decreaseAllowance",
      "outputs": [
        {
          "internalType": "bool",
          "name": "",
          "type": "bool"
        }
      ],
      "stateMutability": "nonpayable",
      "type": "function"
    },
    {
      "inputs": [
        {
          "internalType": "address",
          "name": "spender",
          "type": "address"
        },
        {
          "internalType": "uint256",
          "name": "addedValue",
          "type": "uint256"
        }
      ],
      "name": "increaseAllowance",
      "outputs": [
        {
          "internalType": "bool",
          "name": "",
          "type": "bool"
        }
      ],
      "stateMutability": "nonpayable",
      "type": "function"
    },
    {
      "inputs": [
        {
          "internalType": "uint256",
          "name": "amount",
          "type": "uint256"
        }
      ],
      "name": "mintTokenToTreasury",
      "outputs": [],
      "stateMutability": "nonpayable",
      "type": "function"
    },
    {
      "inputs": [],
      "name": "name",
      "outputs": [
        {
          "internalType": "string",
          "name": "",
          "type": "string"
        }
      ],
      "stateMutability": "view",
      "type": "function"
    },
    {
      "inputs": [
        {
          "internalType": "address",
          "name": "treasuryAddress",
          "type": "address"
        }
      ],
      "name": "setTreasuryAddress",
      "outputs": [],
      "stateMutability": "nonpayable",
      "type": "function"
    },
    {
      "inputs": [],
      "name": "symbol",
      "outputs": [
        {
          "internalType": "string",
          "name": "",
          "type": "string"
        }
      ],
      "stateMutability": "view",
      "type": "function"
    },
    {
      "inputs": [],
      "name": "totalSupply",
      "outputs": [
        {
          "internalType": "uint256",
          "name": "",
          "type": "uint256"
        }
      ],
      "stateMutability": "view",
      "type": "function"
    },
    {
      "inputs": [
        {
          "internalType": "address",
          "name": "to",
          "type": "address"
        },
        {
          "internalType": "uint256",
          "name": "amount",
          "type": "uint256"
        }
      ],
      "name": "transfer",
      "outputs": [
        {
          "internalType": "bool",
          "name": "",
          "type": "bool"
        }
      ],
      "stateMutability": "nonpayable",
      "type": "function"
    },
    {
      "inputs": [
        {
          "internalType": "address",
          "name": "from",
          "type": "address"
        },
        {
          "internalType": "address",
          "name": "to",
          "type": "address"
        },
        {
          "internalType": "uint256",
          "name": "amount",
          "type": "uint256"
        }
      ],
      "name": "transferFrom",
      "outputs": [
        {
          "internalType": "bool",
          "name": "",
          "type": "bool"
        }
      ],
      "stateMutability": "nonpayable",
      "type": "function"
    }
  ],
  "bytecode": "0x60806040523461010457610014600354610109565b601f81116100ba575b506008634175726160e01b0160035560045461003890610109565b601f8111610070575b6008634155524160e01b01600455600680546001600160a01b03191633179055604051610a1590816101448239f35b6004600052601f0160051c7f8a35acfbc15ff81a39ae7d344fd709f28e8600b4aa8c65c6b64bfe7fe36bd19b908101905b8181106100ae5750610041565b600081556001016100a1565b6003600052601f0160051c7fc2575a0e9e593c00f959f8c92f12db2869c3395a3b0502d05e2516446f71f85b908101905b8181106100f8575061001d565b600081556001016100eb565b600080fd5b90600182811c92168015610139575b602083101461012357565b634e487b7160e01b600052602260045260246000fd5b91607f169161011856fe608080604052600436101561001357600080fd5b60003560e01c90816306fdde031461060357508063095ea7b3146105dd57806318160ddd146105bf57806320294888146104d657806323b872dd14610418578063313ce567146103fc57806339509351146103aa5780636605bfda1461036b57806370a082311461033157806395d89b4114610210578063a457c2d714610169578063a9059cbb14610138578063d310556b1461010f5763dd62ed3e146100b957600080fd5b3461010a57604036600319011261010a576100d261071f565b6100da610735565b6001600160a01b039182166000908152600160209081526040808320949093168252928352819020549051908152f35b600080fd5b3461010a57600036600319011261010a576006546040516001600160a01b039091168152602090f35b3461010a57604036600319011261010a5761015e61015461071f565b6024359033610860565b602060405160018152f35b3461010a57604036600319011261010a5761018261071f565b60243590336000526001602052604060002060018060a01b038216600052602052604060002054918083106101bd5761015e92039033610758565b60405162461bcd60e51b815260206004820152602560248201527f45524332303a2064656372656173656420616c6c6f77616e63652062656c6f77604482015264207a65726f60d81b6064820152608490fd5b3461010a57600036600319011261010a5760405160006004548060011c90600181168015610327575b602083108114610313578285529081156102f757506001146102a0575b50819003601f01601f191681019067ffffffffffffffff82118183101761028a57610286829182604052826106d6565b0390f35b634e487b7160e01b600052604160045260246000fd5b905060046000527f8a35acfbc15ff81a39ae7d344fd709f28e8600b4aa8c65c6b64bfe7fe36bd19b6000905b8282106102e157506020915082010182610256565b60018160209254838588010152019101906102cc565b90506020925060ff191682840152151560051b82010182610256565b634e487b7160e01b84526022600452602484fd5b91607f1691610239565b3461010a57602036600319011261010a576001600160a01b0361035261071f565b1660005260006020526020604060002054604051908152f35b3461010a57602036600319011261010a576001600160a01b0361038c61071f565b166bffffffffffffffffffffffff60a01b6005541617600555600080f35b3461010a57604036600319011261010a5761015e6103c661071f565b336000526001602052604060002060018060a01b0382166000526020526103f56040600020602435905461074b565b9033610758565b3461010a57600036600319011261010a57602060405160128152f35b3461010a57606036600319011261010a5761043161071f565b610439610735565b6001600160a01b0382166000908152600160208181526040808420338552909152909120549260443592918401610475575b61015e9350610860565b8284106104915761048c8361015e95033383610758565b61046b565b60405162461bcd60e51b815260206004820152601d60248201527f45524332303a20696e73756666696369656e7420616c6c6f77616e63650000006044820152606490fd5b3461010a57602036600319011261010a57600435670de0b6b3a7640000810290808204670de0b6b3a764000014901517156105a95733156105645761051d8160025461074b565b600255336000526000602052604060002081815401905560405190815260007fddf252ad1be2c89b69c2b068fc378daa952ba7f163c4a11628f55a4df523b3ef60203393a3005b60405162461bcd60e51b815260206004820152601f60248201527f45524332303a206d696e7420746f20746865207a65726f2061646472657373006044820152606490fd5b634e487b7160e01b600052601160045260246000fd5b3461010a57600036600319011261010a576020600254604051908152f35b3461010a57604036600319011261010a5761015e6105f961071f565b6024359033610758565b3461010a57600036600319011261010a5760006003548060011c906001811680156106cc575b602083108114610313578285529081156102f757506001146106755750819003601f01601f191681019067ffffffffffffffff82118183101761028a57610286829182604052826106d6565b905060036000527fc2575a0e9e593c00f959f8c92f12db2869c3395a3b0502d05e2516446f71f85b6000905b8282106106b657506020915082010182610256565b60018160209254838588010152019101906106a1565b91607f1691610629565b91909160208152825180602083015260005b818110610709575060409293506000838284010152601f8019910116010190565b80602080928701015160408286010152016106e8565b600435906001600160a01b038216820361010a57565b602435906001600160a01b038216820361010a57565b919082018092116105a957565b6001600160a01b031690811561080f576001600160a01b03169182156107bf5760207f8c5be1e5ebec7d5bd14f71427d1e84f3dd0314c0f7b2291e5b200ac8c7c3b925918360005260018252604060002085600052825280604060002055604051908152a3565b60405162461bcd60e51b815260206004820152602260248201527f45524332303a20617070726f766520746f20746865207a65726f206164647265604482015261737360f01b6064820152608490fd5b60405162461bcd60e51b8152602060048201526024808201527f45524332303a20617070726f76652066726f6d20746865207a65726f206164646044820152637265737360e01b6064820152608490fd5b6001600160a01b031690811561098c576001600160a01b031691821561093b578160005260006020526040600020548181106108e757817fddf252ad1be2c89b69c2b068fc378daa952ba7f163c4a11628f55a4df523b3ef9260209285600052600084520360406000205584600052600082526040600020818154019055604051908152a3565b60405162461bcd60e51b815260206004820152602660248201527f45524332303a207472616e7366657220616d6f756e7420657863656564732062604482015265616c616e636560d01b6064820152608490fd5b60405162461bcd60e51b815260206004820152602360248201527f45524332303a207472616e7366657220746f20746865207a65726f206164647260448201526265737360e81b6064820152608490fd5b60405162461bcd60e51b815260206004820152602560248201527f45524332303a207472616e736665722066726f6d20746865207a65726f206164604482015264647265737360d81b6064820152608490fdfea26469706673582212204c752066f1cf872fc5eb8cdbd0c7692525acebd5256d8579d4a59ee5554f6ba764736f6c634300081c0033",
  "linkReferences": {},
  "deployedLinkReferences": {}
}