{
  "_format": "hh-sol-artifact-1",
  "contractName": "AuStake",
  "sourceName": "contracts/AuStake.sol",
  "abi": [
    {
      "inputs": [
        {
          "internalType": "address payable",
          "name": "_projectWallet",
          "type": "address"
        },
        {
          "internalType": "address",
          "name": "initialOwner",
          "type": "address"
        }
      ],
      "stateMutability": "nonpayable",
      "type": "constructor"
    },
    {
      "anonymous": false,
      "inputs": [
        {
          "indexed": true,
          "internalType": "address",
          "name": "admin",
          "type": "address"
        },
        {
          "indexed": false,
          "internalType": "bool",
          "name": "status",
          "type": "bool"
        }
      ],
      "name": "AdminStatusChanged",
      "type": "event"
    },
    {
      "anonymous": false,
      "inputs": [
        {
          "indexed": true,
          "internalType": "bytes32",
          "name": "operationId",
          "type": "bytes32"
        },
        {
          "indexed": false,
          "internalType": "string",
          "name": "name",
          "type": "string"
        },
        {
          "indexed": false,
          "internalType": "address",
          "name": "token",
          "type": "address"
        }
      ],
      "name": "OperationCreated",
      "type": "event"
    },
    {
      "anonymous": false,
      "inputs": [
        {
          "indexed": true,
          "internalType": "address",
          "name": "previousOwner",
          "type": "address"
        },
        {
          "indexed": true,
          "internalType": "address",
          "name": "newOwner",
          "type": "address"
        }
      ],
      "name": "OwnershipTransferred",
      "type": "event"
    },
    {
      "anonymous": false,
      "inputs": [
        {
          "indexed": true,
          "internalType": "address",
          "name": "user",
          "type": "address"
        },
        {
          "indexed": false,
          "internalType": "uint256",
          "name": "amount",
          "type": "uint256"
        },
        {
          "indexed": true,
          "internalType": "bytes32",
          "name": "operationId",
          "type": "bytes32"
        }
      ],
      "name": "RewardPaid",
      "type": "event"
    },
    {
      "anonymous": false,
      "inputs": [
        {
          "indexed": true,
          "internalType": "address",
          "name": "token",
          "type": "address"
        },
        {
          "indexed": true,
          "internalType": "address",
          "name": "user",
          "type": "address"
        },
        {
          "indexed": false,
          "internalType": "uint256",
          "name": "amount",
          "type": "uint256"
        },
        {
          "indexed": true,
          "internalType": "bytes32",
          "name": "operationId",
          "type": "bytes32"
        },
        {
          "indexed": false,
          "internalType": "string",
          "name": "eType",
          "type": "string"
        },
        {
          "indexed": false,
          "internalType": "uint256",
          "name": "time",
          "type": "uint256"
        }
      ],
      "name": "Staked",
      "type": "event"
    },
    {
      "anonymous": false,
      "inputs": [
        {
          "indexed": true,
          "internalType": "address",
          "name": "token",
          "type": "address"
        },
        {
          "indexed": true,
          "internalType": "address",
          "name": "user",
          "type": "address"
        },
        {
          "indexed": false,
          "internalType": "uint256",
          "name": "amount",
          "type": "uint256"
        },
        {
          "indexed": true,
          "internalType": "bytes32",
          "name": "operationId",
          "type": "bytes32"
        },
        {
          "indexed": false,
          "internalType": "string",
          "name": "eType",
          "type": "string"
        },
        {
          "indexed": false,
          "internalType": "uint256",
          "name": "time",
          "type": "uint256"
        }
      ],
      "name": "Unstaked",
      "type": "event"
    },
    {
      "inputs": [
        {
          "internalType": "uint256",
          "name": "",
          "type": "uint256"
        }
      ],
      "name": "activeOperations",
      "outputs": [
        {
          "internalType": "bytes32",
          "name": "",
          "type": "bytes32"
        }
      ],
      "stateMutability": "view",
      "type": "function"
    },
    {
      "inputs": [
        {
          "internalType": "address",
          "name": "",
          "type": "address"
        }
      ],
      "name": "admins",
      "outputs": [
        {
          "internalType": "bool",
          "name": "",
          "type": "bool"
        }
      ],
      "stateMutability": "view",
      "type": "function"
    },
    {
      "inputs": [
        {
          "internalType": "address",
          "name": "token",
          "type": "address"
        },
        {
          "internalType": "address",
          "name": "user",
          "type": "address"
        },
        {
          "internalType": "bytes32",
          "name": "operationId",
          "type": "bytes32"
        }
      ],
      "name": "burn",
      "outputs": [],
      "stateMutability": "nonpayable",
      "type": "function"
    },
    {
      "inputs": [
        {
          "internalType": "address",
          "name": "token",
          "type": "address"
        },
        {
          "internalType": "bytes32",
          "name": "operationId",
          "type": "bytes32"
        },
        {
          "internalType": "address",
          "name": "user",
          "type": "address"
        }
      ],
      "name": "claimReward",
      "outputs": [],
      "stateMutability": "nonpayable",
      "type": "function"
    },
    {
      "inputs": [
        {
          "internalType": "string",
          "name": "name",
          "type": "string"
        },
        {
          "internalType": "address",
          "name": "token",
          "type": "address"
        },
        {
          "internalType": "address",
          "name": "provider",
          "type": "address"
        },
        {
          "internalType": "uint256",
          "name": "deadline",
          "type": "uint256"
        },
        {
          "internalType": "uint256",
          "name": "reward",
          "type": "uint256"
        },
        {
          "internalType": "string",
          "name": "rwaName",
          "type": "string"
        }
      ],
      "name": "createOperation",
      "outputs": [
        {
          "internalType": "bytes32",
          "name": "",
          "type": "bytes32"
        }
      ],
      "stateMutability": "nonpayable",
      "type": "function"
    },
    {
      "inputs": [
        {
          "internalType": "bytes32",
          "name": "id",
          "type": "bytes32"
        }
      ],
      "name": "getOperation",
      "outputs": [
        {
          "internalType": "bytes32",
          "name": "returnId",
          "type": "bytes32"
        },
        {
          "internalType": "string",
          "name": "name",
          "type": "string"
        },
        {
          "internalType": "address",
          "name": "token",
          "type": "address"
        },
        {
          "internalType": "address",
          "name": "provider",
          "type": "address"
        },
        {
          "internalType": "uint256",
          "name": "deadline",
          "type": "uint256"
        },
        {
          "internalType": "uint256",
          "name": "startDate",
          "type": "uint256"
        },
        {
          "internalType": "string",
          "name": "rwaName",
          "type": "string"
        },
        {
          "internalType": "uint256",
          "name": "reward",
          "type": "uint256"
        },
        {
          "internalType": "uint256",
          "name": "tokenTvl",
          "type": "uint256"
        },
        {
          "internalType": "enum AuStake.OperationStatus",
          "name": "operationStatus",
          "type": "uint8"
        }
      ],
      "stateMutability": "view",
      "type": "function"
    },
    {
      "inputs": [
        {
          "internalType": "bytes32",
          "name": "",
          "type": "bytes32"
        }
      ],
      "name": "idToOperation",
      "outputs": [
        {
          "internalType": "bytes32",
          "name": "id",
          "type": "bytes32"
        },
        {
          "internalType": "string",
          "name": "name",
          "type": "string"
        },
        {
          "internalType": "address",
          "name": "token",
          "type": "address"
        },
        {
          "internalType": "address",
          "name": "provider",
          "type": "address"
        },
        {
          "internalType": "uint256",
          "name": "deadline",
          "type": "uint256"
        },
        {
          "internalType": "uint256",
          "name": "startDate",
          "type": "uint256"
        },
        {
          "internalType": "string",
          "name": "rwaName",
          "type": "string"
        },
        {
          "internalType": "uint256",
          "name": "reward",
          "type": "uint256"
        },
        {
          "internalType": "uint256",
          "name": "tokenTvl",
          "type": "uint256"
        },
        {
          "internalType": "enum AuStake.OperationStatus",
          "name": "operationStatus",
          "type": "uint8"
        }
      ],
      "stateMutability": "view",
      "type": "function"
    },
    {
      "inputs": [],
      "name": "lockPeriod",
      "outputs": [
        {
          "internalType": "uint256",
          "name": "",
          "type": "uint256"
        }
      ],
      "stateMutability": "view",
      "type": "function"
    },
    {
      "inputs": [
        {
          "internalType": "bytes32",
          "name": "",
          "type": "bytes32"
        },
        {
          "internalType": "address",
          "name": "",
          "type": "address"
        }
      ],
      "name": "operationStakes",
      "outputs": [
        {
          "internalType": "uint256",
          "name": "amount",
          "type": "uint256"
        },
        {
          "internalType": "uint256",
          "name": "timestamp",
          "type": "uint256"
        },
        {
          "internalType": "bool",
          "name": "isActive",
          "type": "bool"
        }
      ],
      "stateMutability": "view",
      "type": "function"
    },
    {
      "inputs": [],
      "name": "owner",
      "outputs": [
        {
          "internalType": "address",
          "name": "",
          "type": "address"
        }
      ],
      "stateMutability": "view",
      "type": "function"
    },
    {
      "inputs": [],
      "name": "projectWallet",
      "outputs": [
        {
          "internalType": "address payable",
          "name": "",
          "type": "address"
        }
      ],
      "stateMutability": "view",
      "type": "function"
    },
    {
      "inputs": [
        {
          "internalType": "address",
          "name": "",
          "type": "address"
        },
        {
          "internalType": "uint256",
          "name": "",
          "type": "uint256"
        }
      ],
      "name": "providerToOperationIds",
      "outputs": [
        {
          "internalType": "bytes32",
          "name": "",
          "type": "bytes32"
        }
      ],
      "stateMutability": "view",
      "type": "function"
    },
    {
      "inputs": [],
      "name": "renounceOwnership",
      "outputs": [],
      "stateMutability": "nonpayable",
      "type": "function"
    },
    {
      "inputs": [
        {
          "internalType": "address",
          "name": "user",
          "type": "address"
        },
        {
          "internalType": "bool",
          "name": "status",
          "type": "bool"
        }
      ],
      "name": "setAdmin",
      "outputs": [],
      "stateMutability": "nonpayable",
      "type": "function"
    },
    {
      "inputs": [
        {
          "internalType": "uint256",
          "name": "_lockPeriod",
          "type": "uint256"
        }
      ],
      "name": "setLockPeriod",
      "outputs": [],
      "stateMutability": "nonpayable",
      "type": "function"
    },
    {
      "inputs": [
        {
          "internalType": "bytes32",
          "name": "id",
          "type": "bytes32"
        },
        {
          "internalType": "uint256",
          "name": "amount",
          "type": "uint256"
        }
      ],
      "name": "setOperationReward",
      "outputs": [],
      "stateMutability": "nonpayable",
      "type": "function"
    },
    {
      "inputs": [
        {
          "internalType": "address payable",
          "name": "_projectWallet",
          "type": "address"
        }
      ],
      "name": "setProjectWallet",
      "outputs": [],
      "stateMutability": "nonpayable",
      "type": "function"
    },
    {
      "inputs": [
        {
          "internalType": "address",
          "name": "token",
          "type": "address"
        },
        {
          "internalType": "bytes32",
          "name": "operationId",
          "type": "bytes32"
        },
        {
          "internalType": "uint256",
          "name": "amount",
          "type": "uint256"
        }
      ],
      "name": "stake",
      "outputs": [],
      "stateMutability": "nonpayable",
      "type": "function"
    },
    {
      "inputs": [
        {
          "internalType": "address",
          "name": "",
          "type": "address"
        },
        {
          "internalType": "address",
          "name": "",
          "type": "address"
        }
      ],
      "name": "stakes",
      "outputs": [
        {
          "internalType": "uint256",
          "name": "amount",
          "type": "uint256"
        },
        {
          "internalType": "uint256",
          "name": "timestamp",
          "type": "uint256"
        },
        {
          "internalType": "bool",
          "name": "isActive",
          "type": "bool"
        }
      ],
      "stateMutability": "view",
      "type": "function"
    },
    {
      "inputs": [
        {
          "internalType": "address",
          "name": "",
          "type": "address"
        }
      ],
      "name": "tokenToOperationIds",
      "outputs": [
        {
          "internalType": "bytes32",
          "name": "",
          "type": "bytes32"
        }
      ],
      "stateMutability": "view",
      "type": "function"
    },
    {
      "inputs": [
        {
          "internalType": "address",
          "name": "",
          "type": "address"
        }
      ],
      "name": "tokenTvl",
      "outputs": [
        {
          "internalType": "uint256",
          "name": "",
          "type": "uint256"
        }
      ],
      "stateMutability": "view",
      "type": "function"
    },
    {
      "inputs": [
        {
          "internalType": "address",
          "name": "newOwner",
          "type": "address"
        }
      ],
      "name": "transferOwnership",
      "outputs": [],
      "stateMutability": "nonpayable",
      "type": "function"
    },
    {
      "inputs": [
        {
          "internalType": "address",
          "name": "token",
          "type": "address"
        },
        {
          "internalType": "bytes32",
          "name": "operationId",
          "type": "bytes32"
        }
      ],
      "name": "unlockReward",
      "outputs": [],
      "stateMutability": "nonpayable",
      "type": "function"
    }
  ],
  "bytecode": "0x608060405234801561001057600080fd5b5060405161209c38038061209c83398101604081905261002f9161013c565b600160005561003d336100d2565b6001600160a01b0382166100975760405162461bcd60e51b815260206004820152601660248201527f496e76616c69642070726f6a6563742077616c6c657400000000000000000000604482015260640160405180910390fd5b600280546001600160a01b0319166001600160a01b03938416179055166000908152600560205260409020805460ff19166001179055610176565b600180546001600160a01b038381166001600160a01b0319831681179093556040519116919082907f8be0079c531659141344cd1fd0a4f28419497f9722a3daafe3b4186f6b6457e090600090a35050565b6001600160a01b038116811461013957600080fd5b50565b6000806040838503121561014f57600080fd5b825161015a81610124565b602084015190925061016b81610124565b809150509250929050565b611f17806101856000396000f3fe608060405234801561001057600080fd5b506004361061014d5760003560e01c8063779972da116100c3578063aad971211161007c578063aad9712114610352578063b836f52114610365578063beb08ab914610378578063dbeee3971461038b578063f2fde38b146103ab578063fea47a1c146103be57600080fd5b8063779972da146102a457806379dbebfa146102b75780637bd44ecf146102ca5780638a780447146102dd5780638da5cb5b146102f0578063a4e47b661461031557600080fd5b806343273eec1161011557806343273eec146101f45780634b0bddd21461024e5780634bb1383b146102635780636548ad56146102765780636f37a2c914610289578063715018a61461029c57600080fd5b806324c963a214610152578063279412c5146101845780633fd8b02f1461019757806341b7bd32146101ae578063429b62e5146101c1575b600080fd5b6101656101603660046117d1565b6103de565b60405161017b9a99989796959493929190611846565b60405180910390f35b6101656101923660046117d1565b610552565b6101a060065481565b60405190815260200161017b565b6101a06101bc3660046117d1565b6106fa565b6101e46101cf3660046118f1565b60056020526000908152604090205460ff1681565b604051901515815260200161017b565b610231610202366004611915565b600a60209081526000928352604080842090915290825290208054600182015460029092015490919060ff1683565b60408051938452602084019290925215159082015260600161017b565b61026161025c366004611953565b61071b565b005b6101a0610271366004611981565b6107cf565b6101a0610284366004611a52565b610800565b610261610297366004611af2565b610ab7565b610261610d61565b6102616102b23660046117d1565b610d75565b6102616102c5366004611b27565b610d82565b6102616102d8366004611b69565b611129565b6102616102eb3660046118f1565b6111f4565b6001546001600160a01b03165b6040516001600160a01b03909116815260200161017b565b610231610323366004611b8b565b600960209081526000928352604080842090915290825290208054600182015460029092015490919060ff1683565b610261610360366004611981565b611266565b610261610373366004611bb9565b6113d6565b6002546102fd906001600160a01b031681565b6101a06103993660046118f1565b600b6020526000908152604090205481565b6102616103b93660046118f1565b611653565b6101a06103cc3660046118f1565b60086020526000908152604090205481565b6004602052600090815260409020805460018201805491929161040090611bfa565b80601f016020809104026020016040519081016040528092919081815260200182805461042c90611bfa565b80156104795780601f1061044e57610100808354040283529160200191610479565b820191906000526020600020905b81548152906001019060200180831161045c57829003601f168201915b505050600284015460038501546004860154600587015460068801805497986001600160a01b039586169894909516965091945092916104b890611bfa565b80601f01602080910402602001604051908101604052809291908181526020018280546104e490611bfa565b80156105315780601f1061050657610100808354040283529160200191610531565b820191906000526020600020905b81548152906001019060200180831161051457829003601f168201915b50505050600783015460088401546009909401549293909290915060ff168a565b6000818152600460208190526040822080546002820154600383015493830154600584015460078501546008860154600987015460018801805460609a8c9a8b9a8b9a8b9a8f9a8c9a8b9a8b9a9699959895976001600160a01b03958616979516959394929360068b019360ff169089906105cc90611bfa565b80601f01602080910402602001604051908101604052809291908181526020018280546105f890611bfa565b80156106455780601f1061061a57610100808354040283529160200191610645565b820191906000526020600020905b81548152906001019060200180831161062857829003601f168201915b5050505050985083805461065890611bfa565b80601f016020809104026020016040519081016040528092919081815260200182805461068490611bfa565b80156106d15780601f106106a6576101008083540402835291602001916106d1565b820191906000526020600020905b8154815290600101906020018083116106b457829003601f168201915b505050505093509a509a509a509a509a509a509a509a509a509a50509193959799509193959799565b6003818154811061070a57600080fd5b600091825260209091200154905081565b6107236116cc565b6001600160a01b0382166107705760405162461bcd60e51b815260206004820152600f60248201526e496e76616c6964206164647265737360881b60448201526064015b60405180910390fd5b6001600160a01b038216600081815260056020908152604091829020805460ff191685151590811790915591519182527fc63c72d6995119c079ef24c02679d49838905c8e81df9e632011b914e6f592f6910160405180910390a25050565b600760205281600052604060002081815481106107eb57600080fd5b90600052602060002001600091509150505481565b3360009081526005602052604081205460ff1661082f5760405162461bcd60e51b815260040161076790611c34565b6001600160a01b03861661087d5760405162461bcd60e51b8152602060048201526015602482015274496e76616c696420746f6b656e206164647265737360581b6044820152606401610767565b6001600160a01b0385166108d35760405162461bcd60e51b815260206004820152601860248201527f496e76616c69642070726f7669646572206164647265737300000000000000006044820152606401610767565b600084116109145760405162461bcd60e51b815260206004820152600e60248201526d092dcecc2d8d2c840d8cadccee8d60931b6044820152606401610767565b600083116109345760405162461bcd60e51b815260040161076790611c64565b600c805490600061094483611cc2565b91905055506000600c5460405160200161096091815260200190565b60408051601f198184030181529181528151602092830120600081815260049093529120909150600181016109958a82611d22565b506002810180546001600160a01b038a81166001600160a01b031992831617909255600383018054928a1692909116919091179055600481018690556007810185905560098101805460ff19166001179055818155426005820155600681016109fe8582611d22565b506001600160a01b03808816600090815260076020908152604080832080546001818101835591855283852001879055938c16835260089091528082208590556003805493840181559091527fc2575a0e9e593c00f959f8c92f12db2869c3395a3b0502d05e2516446f71f85b9091018390555182907f2690fca832a7d48acb6433d8af47a3d184803d8e82c5971c2484a99c5825af0590610aa3908c908c90611de1565b60405180910390a250979650505050505050565b610abf611726565b60008111610b005760405162461bcd60e51b815260206004820152600e60248201526d043616e6e6f74207374616b6520360941b6044820152606401610767565b6000828152600460205260409020600201546001600160a01b03848116911614610b3c5760405162461bcd60e51b815260040161076790611e0b565b6040516323b872dd60e01b81523360048201523060248201526044810182905283906001600160a01b038216906323b872dd906064016020604051808303816000875af1158015610b91573d6000803e3d6000fd5b505050506040513d601f19601f82011682018060405250810190610bb59190611e33565b610bf35760405162461bcd60e51b815260206004820152600f60248201526e151c985b9cd9995c8819985a5b1959608a1b6044820152606401610767565b604080516060808201835284825242602080840182815260018587018181526001600160a01b038c16600090815260098552888120338083529086528982209851895593518884015590516002978801805491151560ff19928316179055885196870189528a87528685019586528689018381528c8352600a865289832094835293855288822096518755945191860191909155905193909401805493151593909216929092179055858252600490529081206008018054849290610cb9908490611e50565b90915550506001600160a01b0384166000908152600b602052604081208054849290610ce6908490611e50565b9091555050604080518381526060602082018190526006908201526514dd185ad95960d21b608082015242818301529051849133916001600160a01b038816917f70d34e4a1cffdadaa1ca80104ed9f15ffb4114c859f8c9e89ef302a72862fb25919081900360a00190a450610d5c6001600055565b505050565b610d696116cc565b610d73600061177f565b565b610d7d6116cc565b600655565b6000828152600460205260409020600201546001600160a01b03848116911614610dbe5760405162461bcd60e51b815260040161076790611e0b565b600260008381526004602052604090206009015460ff166003811115610de657610de6611830565b14610e2c5760405162461bcd60e51b81526020600482015260166024820152754f7065726174696f6e206e6f7420636f6d706c65746560501b6044820152606401610767565b6000828152600a602090815260408083206001600160a01b03851684529091529020600281015460ff16610e945760405162461bcd60e51b815260206004820152600f60248201526e4e6f20616374697665207374616b6560881b6044820152606401610767565b600083815260046020526040812060078101548354879391606491610eb99190611e69565b610ec39190611e80565b90506000818560000154610ed79190611e50565b60028601805460ff1916905585546008850180549293509091600090610efe908490611ea2565b9091555050600883015460000361102357600080805b600354811015610f56578960038281548110610f3257610f32611eb5565b906000526020600020015403610f4e5780925060019150610f56565b600101610f14565b5080610f9d5760405162461bcd60e51b815260206004820152601660248201527513dc195c985d1a5bdb881259081b9bdd08199bdd5b9960521b6044820152606401610767565b60038281548110610fb057610fb0611eb5565b60009182526020909120015460038054610fcc90600190611ea2565b81548110610fdc57610fdc611eb5565b6000918252602090912001556003805480610ff957610ff9611ecb565b600082815260208120600019908301810191909155019055505060098301805460ff191660031790555b60405163a9059cbb60e01b81526001600160a01b0387811660048301526024820183905285169063a9059cbb906044016020604051808303816000875af1158015611072573d6000803e3d6000fd5b505050506040513d601f19601f820116820180604052508101906110969190611e33565b6110db5760405162461bcd60e51b815260206004820152601660248201527514995d1d5c9b881d1c985b9cd9995c8819985a5b195960521b6044820152606401610767565b86866001600160a01b03167f25d820333c9a561247c10864c5a61ff35d1b52a4d260cd78ffd379c9921a41878460405161111791815260200190565b60405180910390a35050505050505050565b3360009081526005602052604090205460ff166111585760405162461bcd60e51b815260040161076790611c34565b6000828152600460205260409020600201546001600160a01b03166111bf5760405162461bcd60e51b815260206004820152601860248201527f4f7065726174696f6e20646f6573206e6f7420657869737400000000000000006044820152606401610767565b600081116111df5760405162461bcd60e51b815260040161076790611c64565b60009182526004602052604090912060070155565b6111fc6116cc565b6001600160a01b0381166112445760405162461bcd60e51b815260206004820152600f60248201526e496e76616c6964206164647265737360881b6044820152606401610767565b600280546001600160a01b0319166001600160a01b0392909216919091179055565b6000818152600460205260409020600301546001600160a01b031633146112cf5760405162461bcd60e51b815260206004820152601a60248201527f73656e646572206973206e6f74207468652070726f76696465720000000000006044820152606401610767565b6000818152600460205260408120600781015460088201548593916064916112f79190611e69565b6113019190611e80565b60098301805460ff191660021790556040516323b872dd60e01b8152336004820152306024820152604481018290529091506001600160a01b038416906323b872dd906064016020604051808303816000875af1158015611366573d6000803e3d6000fd5b505050506040513d601f19601f8201168201806040525081019061138a9190611e33565b6113cf5760405162461bcd60e51b815260206004820152601660248201527514995dd85c99081d1c985b9cd9995c8819985a5b195960521b6044820152606401610767565b5050505050565b6113de611726565b3360009081526005602052604090205460ff1661140d5760405162461bcd60e51b815260040161076790611c34565b6001600160a01b038084166000908152600960209081526040808320938616835292905220600281015460ff166114785760405162461bcd60e51b815260206004820152600f60248201526e4e6f20616374697665207374616b6560881b6044820152606401610767565b6000828152600460205260409020600201546001600160a01b038581169116146114b45760405162461bcd60e51b815260040161076790611e0b565b805460028201805460ff19169055604051632770a7eb60e21b81526001600160a01b03858116600483015260248201839052869190821690639dc29fac906044016020604051808303816000875af1158015611514573d6000803e3d6000fd5b505050506040513d601f19601f820116820180604052508101906115389190611e33565b61157c5760405162461bcd60e51b81526020600482015260156024820152744661696c656420746f206275726e20746f6b656e7360581b6044820152606401610767565b6001600160a01b0386166000908152600b6020526040812080548492906115a4908490611ea2565b9091555050600084815260046020526040812060080180548492906115ca908490611ea2565b9250508190555083856001600160a01b0316876001600160a01b03167fc9cafbcc8a194bb7bf2482b42aaccaf0cf4f7b8fd768cbab6600fb5a5dc84ee5854260405161163e92919091825260606020830181905260069083015265109d5c9b995960d21b6080830152604082015260a00190565b60405180910390a4505050610d5c6001600055565b61165b6116cc565b6001600160a01b0381166116c05760405162461bcd60e51b815260206004820152602660248201527f4f776e61626c653a206e6577206f776e657220697320746865207a65726f206160448201526564647265737360d01b6064820152608401610767565b6116c98161177f565b50565b6001546001600160a01b03163314610d735760405162461bcd60e51b815260206004820181905260248201527f4f776e61626c653a2063616c6c6572206973206e6f7420746865206f776e65726044820152606401610767565b6002600054036117785760405162461bcd60e51b815260206004820152601f60248201527f5265656e7472616e637947756172643a207265656e7472616e742063616c6c006044820152606401610767565b6002600055565b600180546001600160a01b038381166001600160a01b0319831681179093556040519116919082907f8be0079c531659141344cd1fd0a4f28419497f9722a3daafe3b4186f6b6457e090600090a35050565b6000602082840312156117e357600080fd5b5035919050565b6000815180845260005b81811015611810576020818501810151868301820152016117f4565b506000602082860101526020601f19601f83011685010191505092915050565b634e487b7160e01b600052602160045260246000fd5b8a81526101406020820152600061186161014083018c6117ea565b6001600160a01b038b811660408501528a1660608401526080830189905260a0830188905282810360c084015261189881886117ea565b9150508460e083015283610100830152600483106118c657634e487b7160e01b600052602160045260246000fd5b826101208301529b9a5050505050505050505050565b6001600160a01b03811681146116c957600080fd5b60006020828403121561190357600080fd5b813561190e816118dc565b9392505050565b6000806040838503121561192857600080fd5b82359150602083013561193a816118dc565b809150509250929050565b80151581146116c957600080fd5b6000806040838503121561196657600080fd5b8235611971816118dc565b9150602083013561193a81611945565b6000806040838503121561199457600080fd5b823561199f816118dc565b946020939093013593505050565b634e487b7160e01b600052604160045260246000fd5b600082601f8301126119d457600080fd5b813567ffffffffffffffff8111156119ee576119ee6119ad565b604051601f8201601f19908116603f0116810167ffffffffffffffff81118282101715611a1d57611a1d6119ad565b604052818152838201602001851015611a3557600080fd5b816020850160208301376000918101602001919091529392505050565b60008060008060008060c08789031215611a6b57600080fd5b863567ffffffffffffffff811115611a8257600080fd5b611a8e89828a016119c3565b9650506020870135611a9f816118dc565b94506040870135611aaf816118dc565b9350606087013592506080870135915060a087013567ffffffffffffffff811115611ad957600080fd5b611ae589828a016119c3565b9150509295509295509295565b600080600060608486031215611b0757600080fd5b8335611b12816118dc565b95602085013595506040909401359392505050565b600080600060608486031215611b3c57600080fd5b8335611b47816118dc565b9250602084013591506040840135611b5e816118dc565b809150509250925092565b60008060408385031215611b7c57600080fd5b50508035926020909101359150565b60008060408385031215611b9e57600080fd5b8235611ba9816118dc565b9150602083013561193a816118dc565b600080600060608486031215611bce57600080fd5b8335611bd9816118dc565b92506020840135611be9816118dc565b929592945050506040919091013590565b600181811c90821680611c0e57607f821691505b602082108103611c2e57634e487b7160e01b600052602260045260246000fd5b50919050565b60208082526016908201527521b0b63632b91034b9903737ba1030b71030b236b4b760511b604082015260600190565b60208082526028908201527f5265776172642070657263656e74616765206d75737420626520677265617465604082015267072207468616e20360c41b606082015260800190565b634e487b7160e01b600052601160045260246000fd5b600060018201611cd457611cd4611cac565b5060010190565b601f821115610d5c57806000526020600020601f840160051c81016020851015611d025750805b601f840160051c820191505b818110156113cf5760008155600101611d0e565b815167ffffffffffffffff811115611d3c57611d3c6119ad565b611d5081611d4a8454611bfa565b84611cdb565b6020601f821160018114611d845760008315611d6c5750848201515b600019600385901b1c1916600184901b1784556113cf565b600084815260208120601f198516915b82811015611db45787850151825560209485019460019092019101611d94565b5084821015611dd25786840151600019600387901b60f8161c191681555b50505050600190811b01905550565b604081526000611df460408301856117ea565b905060018060a01b03831660208301529392505050565b6020808252600e908201526d0a8ded6cadc40dad2e6dac2e8c6d60931b604082015260600190565b600060208284031215611e4557600080fd5b815161190e81611945565b80820180821115611e6357611e63611cac565b92915050565b8082028115828204841417611e6357611e63611cac565b600082611e9d57634e487b7160e01b600052601260045260246000fd5b500490565b81810381811115611e6357611e63611cac565b634e487b7160e01b600052603260045260246000fd5b634e487b7160e01b600052603160045260246000fdfea26469706673582212205a976176a2ff244ce4cec92087231eb95e46c1befc7afa730898867faeb0228464736f6c634300081c0033",
  "linkReferences": {},
  "deployedLinkReferences": {}
}