{
  "_format": "hh-sol-artifact-1",
  "contractName": "AuStake",
  "sourceName": "contracts/AuStake.sol",
  "abi": [
    {
      "inputs": [
        {
          "internalType": "address payable",
          "name": "_projectWallet",
          "type": "address"
        },
        {
          "internalType": "address",
          "name": "initialOwner",
          "type": "address"
        }
      ],
      "stateMutability": "nonpayable",
      "type": "constructor"
    },
    {
      "anonymous": false,
      "inputs": [
        {
          "indexed": true,
          "internalType": "address",
          "name": "admin",
          "type": "address"
        },
        {
          "indexed": false,
          "internalType": "bool",
          "name": "status",
          "type": "bool"
        }
      ],
      "name": "AdminStatusChanged",
      "type": "event"
    },
    {
      "anonymous": false,
      "inputs": [
        {
          "indexed": true,
          "internalType": "bytes32",
          "name": "operationId",
          "type": "bytes32"
        },
        {
          "indexed": false,
          "internalType": "string",
          "name": "name",
          "type": "string"
        },
        {
          "indexed": false,
          "internalType": "address",
          "name": "token",
          "type": "address"
        }
      ],
      "name": "OperationCreated",
      "type": "event"
    },
    {
      "anonymous": false,
      "inputs": [
        {
          "indexed": true,
          "internalType": "address",
          "name": "previousOwner",
          "type": "address"
        },
        {
          "indexed": true,
          "internalType": "address",
          "name": "newOwner",
          "type": "address"
        }
      ],
      "name": "OwnershipTransferred",
      "type": "event"
    },
    {
      "anonymous": false,
      "inputs": [
        {
          "indexed": true,
          "internalType": "address",
          "name": "user",
          "type": "address"
        },
        {
          "indexed": false,
          "internalType": "uint256",
          "name": "amount",
          "type": "uint256"
        },
        {
          "indexed": true,
          "internalType": "bytes32",
          "name": "operationId",
          "type": "bytes32"
        }
      ],
      "name": "RewardPaid",
      "type": "event"
    },
    {
      "anonymous": false,
      "inputs": [
        {
          "indexed": true,
          "internalType": "address",
          "name": "token",
          "type": "address"
        },
        {
          "indexed": true,
          "internalType": "address",
          "name": "user",
          "type": "address"
        },
        {
          "indexed": false,
          "internalType": "uint256",
          "name": "amount",
          "type": "uint256"
        },
        {
          "indexed": true,
          "internalType": "bytes32",
          "name": "operationId",
          "type": "bytes32"
        },
        {
          "indexed": false,
          "internalType": "string",
          "name": "eType",
          "type": "string"
        },
        {
          "indexed": false,
          "internalType": "uint256",
          "name": "time",
          "type": "uint256"
        }
      ],
      "name": "Staked",
      "type": "event"
    },
    {
      "anonymous": false,
      "inputs": [
        {
          "indexed": true,
          "internalType": "address",
          "name": "token",
          "type": "address"
        },
        {
          "indexed": true,
          "internalType": "address",
          "name": "user",
          "type": "address"
        },
        {
          "indexed": false,
          "internalType": "uint256",
          "name": "amount",
          "type": "uint256"
        },
        {
          "indexed": true,
          "internalType": "bytes32",
          "name": "operationId",
          "type": "bytes32"
        },
        {
          "indexed": false,
          "internalType": "string",
          "name": "eType",
          "type": "string"
        },
        {
          "indexed": false,
          "internalType": "uint256",
          "name": "time",
          "type": "uint256"
        }
      ],
      "name": "Unstaked",
      "type": "event"
    },
    {
      "inputs": [
        {
          "internalType": "uint256",
          "name": "",
          "type": "uint256"
        }
      ],
      "name": "activeOperations",
      "outputs": [
        {
          "internalType": "bytes32",
          "name": "",
          "type": "bytes32"
        }
      ],
      "stateMutability": "view",
      "type": "function"
    },
    {
      "inputs": [
        {
          "internalType": "address",
          "name": "",
          "type": "address"
        }
      ],
      "name": "admins",
      "outputs": [
        {
          "internalType": "bool",
          "name": "",
          "type": "bool"
        }
      ],
      "stateMutability": "view",
      "type": "function"
    },
    {
      "inputs": [
        {
          "internalType": "address",
          "name": "token",
          "type": "address"
        },
        {
          "internalType": "address",
          "name": "user",
          "type": "address"
        },
        {
          "internalType": "bytes32",
          "name": "operationId",
          "type": "bytes32"
        }
      ],
      "name": "burn",
      "outputs": [],
      "stateMutability": "nonpayable",
      "type": "function"
    },
    {
      "inputs": [
        {
          "internalType": "address",
          "name": "token",
          "type": "address"
        },
        {
          "internalType": "bytes32",
          "name": "operationId",
          "type": "bytes32"
        },
        {
          "internalType": "address",
          "name": "user",
          "type": "address"
        }
      ],
      "name": "claimReward",
      "outputs": [],
      "stateMutability": "nonpayable",
      "type": "function"
    },
    {
      "inputs": [
        {
          "internalType": "string",
          "name": "name",
          "type": "string"
        },
        {
          "internalType": "string",
          "name": "description",
          "type": "string"
        },
        {
          "internalType": "address",
          "name": "token",
          "type": "address"
        },
        {
          "internalType": "address",
          "name": "provider",
          "type": "address"
        },
        {
          "internalType": "uint256",
          "name": "deadline",
          "type": "uint256"
        },
        {
          "internalType": "uint256",
          "name": "reward",
          "type": "uint256"
        },
        {
          "internalType": "string",
          "name": "rwaName",
          "type": "string"
        },
        {
          "internalType": "uint256",
          "name": "fundingGoal",
          "type": "uint256"
        },
        {
          "internalType": "uint256",
          "name": "assetPrice",
          "type": "uint256"
        }
      ],
      "name": "createOperation",
      "outputs": [
        {
          "internalType": "bytes32",
          "name": "",
          "type": "bytes32"
        }
      ],
      "stateMutability": "nonpayable",
      "type": "function"
    },
    {
      "inputs": [
        {
          "internalType": "bytes32",
          "name": "id",
          "type": "bytes32"
        }
      ],
      "name": "getOperation",
      "outputs": [
        {
          "components": [
            {
              "internalType": "bytes32",
              "name": "id",
              "type": "bytes32"
            },
            {
              "internalType": "string",
              "name": "name",
              "type": "string"
            },
            {
              "internalType": "string",
              "name": "description",
              "type": "string"
            },
            {
              "internalType": "address",
              "name": "token",
              "type": "address"
            },
            {
              "internalType": "address",
              "name": "provider",
              "type": "address"
            },
            {
              "internalType": "uint256",
              "name": "deadline",
              "type": "uint256"
            },
            {
              "internalType": "uint256",
              "name": "startDate",
              "type": "uint256"
            },
            {
              "internalType": "string",
              "name": "rwaName",
              "type": "string"
            },
            {
              "internalType": "uint256",
              "name": "reward",
              "type": "uint256"
            },
            {
              "internalType": "uint256",
              "name": "tokenTvl",
              "type": "uint256"
            },
            {
              "internalType": "enum AuStake.OperationStatus",
              "name": "operationStatus",
              "type": "uint8"
            },
            {
              "internalType": "uint256",
              "name": "fundingGoal",
              "type": "uint256"
            },
            {
              "internalType": "uint256",
              "name": "assetPrice",
              "type": "uint256"
            }
          ],
          "internalType": "struct AuStake.Operation",
          "name": "operation",
          "type": "tuple"
        }
      ],
      "stateMutability": "view",
      "type": "function"
    },
    {
      "inputs": [
        {
          "internalType": "bytes32",
          "name": "",
          "type": "bytes32"
        }
      ],
      "name": "idToOperation",
      "outputs": [
        {
          "internalType": "bytes32",
          "name": "id",
          "type": "bytes32"
        },
        {
          "internalType": "string",
          "name": "name",
          "type": "string"
        },
        {
          "internalType": "string",
          "name": "description",
          "type": "string"
        },
        {
          "internalType": "address",
          "name": "token",
          "type": "address"
        },
        {
          "internalType": "address",
          "name": "provider",
          "type": "address"
        },
        {
          "internalType": "uint256",
          "name": "deadline",
          "type": "uint256"
        },
        {
          "internalType": "uint256",
          "name": "startDate",
          "type": "uint256"
        },
        {
          "internalType": "string",
          "name": "rwaName",
          "type": "string"
        },
        {
          "internalType": "uint256",
          "name": "reward",
          "type": "uint256"
        },
        {
          "internalType": "uint256",
          "name": "tokenTvl",
          "type": "uint256"
        },
        {
          "internalType": "enum AuStake.OperationStatus",
          "name": "operationStatus",
          "type": "uint8"
        },
        {
          "internalType": "uint256",
          "name": "fundingGoal",
          "type": "uint256"
        },
        {
          "internalType": "uint256",
          "name": "assetPrice",
          "type": "uint256"
        }
      ],
      "stateMutability": "view",
      "type": "function"
    },
    {
      "inputs": [],
      "name": "lockPeriod",
      "outputs": [
        {
          "internalType": "uint256",
          "name": "",
          "type": "uint256"
        }
      ],
      "stateMutability": "view",
      "type": "function"
    },
    {
      "inputs": [
        {
          "internalType": "bytes32",
          "name": "",
          "type": "bytes32"
        },
        {
          "internalType": "address",
          "name": "",
          "type": "address"
        }
      ],
      "name": "operationStakes",
      "outputs": [
        {
          "internalType": "uint256",
          "name": "amount",
          "type": "uint256"
        },
        {
          "internalType": "uint256",
          "name": "timestamp",
          "type": "uint256"
        },
        {
          "internalType": "bool",
          "name": "isActive",
          "type": "bool"
        }
      ],
      "stateMutability": "view",
      "type": "function"
    },
    {
      "inputs": [],
      "name": "owner",
      "outputs": [
        {
          "internalType": "address",
          "name": "",
          "type": "address"
        }
      ],
      "stateMutability": "view",
      "type": "function"
    },
    {
      "inputs": [],
      "name": "projectWallet",
      "outputs": [
        {
          "internalType": "address payable",
          "name": "",
          "type": "address"
        }
      ],
      "stateMutability": "view",
      "type": "function"
    },
    {
      "inputs": [
        {
          "internalType": "address",
          "name": "",
          "type": "address"
        },
        {
          "internalType": "uint256",
          "name": "",
          "type": "uint256"
        }
      ],
      "name": "providerToOperationIds",
      "outputs": [
        {
          "internalType": "bytes32",
          "name": "",
          "type": "bytes32"
        }
      ],
      "stateMutability": "view",
      "type": "function"
    },
    {
      "inputs": [],
      "name": "renounceOwnership",
      "outputs": [],
      "stateMutability": "nonpayable",
      "type": "function"
    },
    {
      "inputs": [
        {
          "internalType": "address",
          "name": "user",
          "type": "address"
        },
        {
          "internalType": "bool",
          "name": "status",
          "type": "bool"
        }
      ],
      "name": "setAdmin",
      "outputs": [],
      "stateMutability": "nonpayable",
      "type": "function"
    },
    {
      "inputs": [
        {
          "internalType": "uint256",
          "name": "_lockPeriod",
          "type": "uint256"
        }
      ],
      "name": "setLockPeriod",
      "outputs": [],
      "stateMutability": "nonpayable",
      "type": "function"
    },
    {
      "inputs": [
        {
          "internalType": "bytes32",
          "name": "id",
          "type": "bytes32"
        },
        {
          "internalType": "uint256",
          "name": "amount",
          "type": "uint256"
        }
      ],
      "name": "setOperationReward",
      "outputs": [],
      "stateMutability": "nonpayable",
      "type": "function"
    },
    {
      "inputs": [
        {
          "internalType": "address payable",
          "name": "_projectWallet",
          "type": "address"
        }
      ],
      "name": "setProjectWallet",
      "outputs": [],
      "stateMutability": "nonpayable",
      "type": "function"
    },
    {
      "inputs": [
        {
          "internalType": "address",
          "name": "token",
          "type": "address"
        },
        {
          "internalType": "bytes32",
          "name": "operationId",
          "type": "bytes32"
        },
        {
          "internalType": "uint256",
          "name": "amount",
          "type": "uint256"
        }
      ],
      "name": "stake",
      "outputs": [],
      "stateMutability": "nonpayable",
      "type": "function"
    },
    {
      "inputs": [
        {
          "internalType": "address",
          "name": "",
          "type": "address"
        },
        {
          "internalType": "address",
          "name": "",
          "type": "address"
        }
      ],
      "name": "stakes",
      "outputs": [
        {
          "internalType": "uint256",
          "name": "amount",
          "type": "uint256"
        },
        {
          "internalType": "uint256",
          "name": "timestamp",
          "type": "uint256"
        },
        {
          "internalType": "bool",
          "name": "isActive",
          "type": "bool"
        }
      ],
      "stateMutability": "view",
      "type": "function"
    },
    {
      "inputs": [
        {
          "internalType": "address",
          "name": "",
          "type": "address"
        }
      ],
      "name": "tokenToOperationIds",
      "outputs": [
        {
          "internalType": "bytes32",
          "name": "",
          "type": "bytes32"
        }
      ],
      "stateMutability": "view",
      "type": "function"
    },
    {
      "inputs": [
        {
          "internalType": "address",
          "name": "",
          "type": "address"
        }
      ],
      "name": "tokenTvl",
      "outputs": [
        {
          "internalType": "uint256",
          "name": "",
          "type": "uint256"
        }
      ],
      "stateMutability": "view",
      "type": "function"
    },
    {
      "inputs": [
        {
          "internalType": "address",
          "name": "newOwner",
          "type": "address"
        }
      ],
      "name": "transferOwnership",
      "outputs": [],
      "stateMutability": "nonpayable",
      "type": "function"
    },
    {
      "inputs": [
        {
          "internalType": "address",
          "name": "token",
          "type": "address"
        },
        {
          "internalType": "bytes32",
          "name": "operationId",
          "type": "bytes32"
        }
      ],
      "name": "unlockReward",
      "outputs": [],
      "stateMutability": "nonpayable",
      "type": "function"
    }
  ],
  "bytecode": "0x60803461013857601f611fa138819003918201601f19168301916001600160401b0383118484101761013d5780849260409485528339810103126101385780516001600160a01b038116919082900361013857602001516001600160a01b038116919082900361013857600160008181558154336001600160a01b03198216811790935560405192916001600160a01b03909116907f8be0079c531659141344cd1fd0a4f28419497f9722a3daafe3b4186f6b6457e09080a381156100f6575060018060a01b0319600254161760025560005260056020526040600020600160ff19825416179055604051611e4d90816101548239f35b62461bcd60e51b815260206004820152601660248201527f496e76616c69642070726f6a6563742077616c6c6574000000000000000000006044820152606490fd5b600080fd5b634e487b7160e01b600052604160045260246000fdfe6080604052600436101561001257600080fd5b60003560e01c806324c963a2146118af578063279412c5146116a55780632f3df177146110065780633fd8b02f14610fe857806341b7bd3214610fbf578063429b62e514610f8057806343273eec14610f125780634b0bddd214610e7e5780634bb1383b14610e255780636f37a2c914610ba7578063715018a614610b4a578063779972da14610b2957806379dbebfa146108095780637bd44ecf146107005780638a780447146106aa5780638da5cb5b14610681578063a4e47b6614610601578063aad9712114610495578063b836f52114610283578063beb08ab91461025a578063dbeee39714610220578063f2fde38b146101585763fea47a1c1461011957600080fd5b34610153576020366003190112610153576001600160a01b0361013a611bb1565b1660005260086020526020604060002054604051908152f35b600080fd5b3461015357602036600319011261015357610171611bb1565b610179611d69565b6001600160a01b031680156101cc57600180546001600160a01b0319811683179091556001600160a01b03167f8be0079c531659141344cd1fd0a4f28419497f9722a3daafe3b4186f6b6457e0600080a3005b60405162461bcd60e51b815260206004820152602660248201527f4f776e61626c653a206e6577206f776e657220697320746865207a65726f206160448201526564647265737360d01b6064820152608490fd5b34610153576020366003190112610153576001600160a01b03610241611bb1565b16600052600b6020526020604060002054604051908152f35b34610153576000366003190112610153576002546040516001600160a01b039091168152602090f35b346101535760603660031901126101535761029c611bb1565b6102a4611bc7565b604435916102b0611dc1565b3360005260056020526102ca60ff60406000205416611c26565b60018060a01b0316806000526009602052604060002060018060a01b0383166000526020526040600020916002830180549361030860ff8616611d0b565b60008681526004602052604090206003015461032e906001600160a01b03168514611ca9565b5460ff19909416905560025460405163a9059cbb60e01b81526001600160a01b03919091166004820152602481018490526020816044816000875af19081156104895760009161045a575b50156104155760a07fc9cafbcc8a194bb7bf2482b42aaccaf0cf4f7b8fd768cbab6600fb5a5dc84ee59183600052600b60205260406000206103bc868254611d5c565b905585600052600460205260096040600020016103da868254611d5c565b9055604051948552606060208601526006606086015265109d5c9b995960d21b6080860152426040860152600180831b031693a46001600055005b60405162461bcd60e51b815260206004820152601960248201527f4661696c656420746f207472616e7366657220746f6b656e73000000000000006044820152606490fd5b61047c915060203d602011610482575b6104748183611a30565b810190611ce6565b85610379565b503d61046a565b6040513d6000823e3d90fd5b34610153576040366003190112610153576104ae611bb1565b6024359081600052600460205260018060a01b036004604060002001541633036105bc5761053b60209160009384526004835260408420600a60646104fc6009840154600885015490611d49565b91909201805460ff191660021790556040516323b872dd60e01b8152336004820152306024820152919004604482015293849283919082906064820190565b03926001600160a01b03165af19081156104895760009161059d575b501561055f57005b60405162461bcd60e51b815260206004820152601660248201527514995dd85c99081d1c985b9cd9995c8819985a5b195960521b6044820152606490fd5b6105b6915060203d602011610482576104748183611a30565b81610557565b60405162461bcd60e51b815260206004820152601a60248201527f73656e646572206973206e6f74207468652070726f76696465720000000000006044820152606490fd5b3461015357604036600319011261015357604061061c611bb1565b610624611bc7565b9060018060a01b031660005260096020528160002060009160018060a01b0316825260205220805461067d60ff600260018501549401541660405193849384919260409194936060840195845260208401521515910152565b0390f35b34610153576000366003190112610153576001546040516001600160a01b039091168152602090f35b34610153576020366003190112610153576004356001600160a01b03811690819003610153576106d8611d69565b6106e3811515611c6b565b6bffffffffffffffffffffffff60a01b6002541617600255600080f35b34610153576040366003190112610153576004356024359033600052600560205261073260ff60406000205416611c26565b6000818152600460205260409020600301546001600160a01b0316156107c457811561076e576000526004602052600860406000200155600080f35b60405162461bcd60e51b815260206004820152602860248201527f5265776172642070657263656e74616765206d75737420626520677265617465604482015267072207468616e20360c41b6064820152608490fd5b60405162461bcd60e51b815260206004820152601860248201527f4f7065726174696f6e20646f6573206e6f7420657869737400000000000000006044820152606490fd5b3461015357606036600319011261015357610822611bb1565b6024359061082e611b9b565b60008381526004602052604090206003015490916001600160a01b039081169161085a91168214611ca9565b82600052600460205260ff600a60406000200154166004811015610b1357600203610ad55782600052600a602052604060002060018060a01b03831660005260205260406000209160028301918254936108b660ff8616611d0b565b8560005260046020526040600020905460646108d6600884015483611d49565b04946108e28683611cfe565b9660ff191690556108f860098301918254611d5c565b809155156109d7575b5060405163a9059cbb60e01b81526001600160a01b03909216600483018190526024830194909452602090829060449082906000905af1908115610489576000916109b8575b501561097a5760207f25d820333c9a561247c10864c5a61ff35d1b52a4d260cd78ffd379c9921a418791604051908152a3005b60405162461bcd60e51b815260206004820152601660248201527514995d1d5c9b881d1c985b9cd9995c8819985a5b195960521b6044820152606490fd5b6109d1915060203d602011610482576104748183611a30565b84610947565b600354600080805b838110610aac575b506109f4575b5050610901565b610a0090939293611bdd565b90549060031b1c906000198101908111610a9657610a20610a3791611bdd565b819391549060031b91821b91600019901b19161790565b9055600354918215610a8057600093600a604492602095871901610a5a81611bdd565b8154908a199060031b1b1916905560035501600360ff19825416179055938293506109ed565b634e487b7160e01b600052603160045260246000fd5b634e487b7160e01b600052601160045260246000fd5b89610ab682611bdd565b90549060031b1c14610aca576001016109df565b9150506001896109e7565b60405162461bcd60e51b81526020600482015260166024820152754f7065726174696f6e206e6f7420636f6d706c65746560501b6044820152606490fd5b634e487b7160e01b600052602160045260246000fd5b3461015357602036600319011261015357610b42611d69565b600435600655005b3461015357600036600319011261015357610b63611d69565b600180546001600160a01b031981169091556000906001600160a01b03167f8be0079c531659141344cd1fd0a4f28419497f9722a3daafe3b4186f6b6457e08280a3005b3461015357606036600319011261015357610bc0611bb1565b6024359060443590610bd0611dc1565b8115610def576000838152600460205260409020600301546001600160a01b0391821691610c0091168214611ca9565b6040516323b872dd60e01b8152336004820152306024820152604481018390526020816064816000865af190811561048957600091610dd0575b5015610d9957610ca5604051610c4f81611a14565b83815260026020820142815260408301906001825285600052600960205260408060002060009060018060a01b0333168252602052209351845551600184015551151591019060ff801983541691151516179055565b610d0a604051610cb481611a14565b83815260026020820142815260408301906001825287600052600a60205260408060002060009060018060a01b0333168252602052209351845551600184015551151591019060ff801983541691151516179055565b8260005260046020526009604060002001610d26838254611cfe565b905580600052600b6020526040600020610d41838254611cfe565b905560405191825260606020830152600660608301526514dd185ad95960d21b60808301524260408301527f70d34e4a1cffdadaa1ca80104ed9f15ffb4114c859f8c9e89ef302a72862fb2560a03393a46001600055005b60405162461bcd60e51b815260206004820152600f60248201526e151c985b9cd9995c8819985a5b1959608a1b6044820152606490fd5b610de9915060203d602011610482576104748183611a30565b84610c3a565b60405162461bcd60e51b815260206004820152600e60248201526d043616e6e6f74207374616b6520360941b6044820152606490fd5b3461015357604036600319011261015357610e3e611bb1565b6001600160a01b031660009081526007602052604090208054602435919082101561015357602091610e6f91611c0e565b90549060031b1c604051908152f35b3461015357604036600319011261015357610e97611bb1565b6024359081151590818303610153577fc63c72d6995119c079ef24c02679d49838905c8e81df9e632011b914e6f592f691610f09602092610ed6611d69565b6001600160a01b031694610eeb861515611c6b565b856000526005845260406000209060ff801983541691151516179055565b604051908152a2005b34610153576040366003190112610153576040610f2d611bc7565b600435600052600a6020528160002060009160018060a01b0316825260205220805461067d60ff600260018501549401541660405193849384919260409194936060840195845260208401521515910152565b34610153576020366003190112610153576001600160a01b03610fa1611bb1565b166000526005602052602060ff604060002054166040519015158152f35b346101535760203660031901126101535760043560035481101561015357610e6f602091611bdd565b34610153576000366003190112610153576020600654604051908152f35b34610153576101203660031901126101535760043567ffffffffffffffff811161015357611038903690600401611b44565b60243567ffffffffffffffff811161015357611058903690600401611b44565b611060611b9b565b916064356001600160a01b03811690819003610153576084359260a4359460c43567ffffffffffffffff81116101535761109e903690600401611b44565b903360005260056020526110b960ff60406000205416611c26565b6001600160a01b03169586156116685783156116235785156115ed57801515806115e1575b1561158457600c546000198114610a965760010180600c55604051602081019182526020815261110f604082611a30565b5190209586600052600460205260406000209360018501875167ffffffffffffffff81116113305761114182546119bd565b601f811161153c575b50806020601f82116001146114d7576000916114cc575b508160011b916000199060031b1c19161790555b8051600286019167ffffffffffffffff821161133057819061119784546119bd565b601f8111611479575b50602090601f831160011461141457600092611409575b50508160011b916000199060031b1c19161790555b6003840180546001600160a01b03199081168a179091556004850180549091168617905560058401556008830155600a8201805460ff191660011790558482554260068301558051600783019167ffffffffffffffff821161133057819061123484546119bd565b601f81116113b6575b50602090601f831160011461135157600092611346575b50508160011b916000199060031b1c19161790555b60e435600b820155600c61010435910155600052600760205260406000208054600160401b81101561133057610a2081859360016112a994018155611c0e565b90558260005260086020528160406000205560035492600160401b8410156113305761132083927f2690fca832a7d48acb6433d8af47a3d184803d8e82c5971c2484a99c5825af05928461130a610a2089600160209b016003556003611c0e565b9055604051928392604084526040840190611af6565b90878301520390a2604051908152f35b634e487b7160e01b600052604160045260246000fd5b015190508880611254565b60008581528281209350601f198516905b81811061139e5750908460019594939210611385575b505050811b019055611269565b015160001960f88460031b161c19169055888080611378565b92936020600181928786015181550195019301611362565b909150836000526020600020601f840160051c810191602085106113ff575b90601f859493920160051c01905b8181106113f0575061123d565b600081558493506001016113e3565b90915081906113d5565b015190508b806111b7565b60008581528281209350601f198516905b8181106114615750908460019594939210611448575b505050811b0190556111cc565b015160001960f88460031b161c191690558b808061143b565b92936020600181928786015181550195019301611425565b909150836000526020600020601f840160051c810191602085106114c2575b90601f859493920160051c01905b8181106114b357506111a0565b600081558493506001016114a6565b9091508190611498565b90508901518c611161565b60008481528181209250601f198416905b8c828210611524575050908360019493921061150b575b5050811b019055611175565b8b015160001960f88460031b161c191690558c806114ff565b600184956020939584930151815501940192016114e8565b826000526020600020601f830160051c8101916020841061157a575b601f0160051c01905b81811061156e575061114a565b60008155600101611561565b9091508190611558565b60405162461bcd60e51b815260206004820152602f60248201527f526577617264206d757374206265206265747765656e203020616e642031303060448201526e303020626173697320706f696e747360881b6064820152608490fd5b506127108111156110de565b60405162461bcd60e51b815260206004820152600e60248201526d092dcecc2d8d2c840d8cadccee8d60931b6044820152606490fd5b60405162461bcd60e51b815260206004820152601860248201527f496e76616c69642070726f7669646572206164647265737300000000000000006044820152606490fd5b60405162461bcd60e51b8152602060048201526015602482015274496e76616c696420746f6b656e206164647265737360581b6044820152606490fd5b346101535760203660031901126101535760006101806040516116c7816119f7565b82815260606020820152606060408201528260608201528260808201528260a08201528260c0820152606060e082015282610100820152826101208201528261014082015282610160820152015260043560005260046020526040600020604051611731816119f7565b8154815261174160018301611a52565b916020820192835261175560028201611a52565b6040830190815260038201546001600160a01b0390811660608501908152600484015490911660808501908152600584015460a08601908152600685015460c0870190815294926117a860078501611a52565b60e0880190815260088501549661010089019788526009860154936101208a0194855260ff600a88015416956101408b01966004811015610b13578752600b880154976101608c01988952600c0154986101808c01998a526040519c8d809d602082525190602001525160408d016101a090526101c08d0161182991611af6565b90518c8203601f190160608e01526118419190611af6565b94516001600160a01b0390811660808d015290511660a08b01525160c08a01525160e089015251878203601f190161010089015261187f9190611af6565b94516101208701525161014086015251610160850161189d91611b37565b51610180840152516101a08301520390f35b3461015357602036600319011261015357600435600052600460205260406000208054600182016118df90611a52565b916118ec60028201611a52565b600382015460048301546005840154600685015494926001600160a01b03928316921661191b60078501611a52565b90600885015496600986015493600a87015460ff1695600b88015497600c0154986040519c8d9c8d5260208d016101a090526101a08d0161195b91611af6565b8c810360408e015261196c91611af6565b9360608c015260808b015260a08a015260c089015287810360e089015261199291611af6565b9461010087015261012086015261014085016119ad91611b37565b6101608401526101808301520390f35b90600182811c921680156119ed575b60208310146119d757565b634e487b7160e01b600052602260045260246000fd5b91607f16916119cc565b6101a0810190811067ffffffffffffffff82111761133057604052565b6060810190811067ffffffffffffffff82111761133057604052565b90601f8019910116810190811067ffffffffffffffff82111761133057604052565b9060405191826000825492611a66846119bd565b8084529360018116908115611ad45750600114611a8d575b50611a8b92500383611a30565b565b90506000929192526020600020906000915b818310611ab8575050906020611a8b9282010138611a7e565b6020919350806001915483858901015201910190918492611a9f565b905060209250611a8b94915060ff191682840152151560051b82010138611a7e565b919082519283825260005b848110611b22575050826000602080949584010152601f8019910116010190565b80602080928401015182828601015201611b01565b906004821015610b135752565b81601f820112156101535780359067ffffffffffffffff82116113305760405192611b79601f8401601f191660200185611a30565b8284526020838301011161015357816000926020809301838601378301015290565b604435906001600160a01b038216820361015357565b600435906001600160a01b038216820361015357565b602435906001600160a01b038216820361015357565b600354811015611bf857600360005260206000200190600090565b634e487b7160e01b600052603260045260246000fd5b8054821015611bf85760005260206000200190600090565b15611c2d57565b60405162461bcd60e51b815260206004820152601660248201527521b0b63632b91034b9903737ba1030b71030b236b4b760511b6044820152606490fd5b15611c7257565b60405162461bcd60e51b815260206004820152600f60248201526e496e76616c6964206164647265737360881b6044820152606490fd5b15611cb057565b60405162461bcd60e51b815260206004820152600e60248201526d0a8ded6cadc40dad2e6dac2e8c6d60931b6044820152606490fd5b90816020910312610153575180151581036101535790565b91908201809211610a9657565b15611d1257565b60405162461bcd60e51b815260206004820152600f60248201526e4e6f20616374697665207374616b6560881b6044820152606490fd5b81810292918115918404141715610a9657565b91908203918211610a9657565b6001546001600160a01b03163303611d7d57565b606460405162461bcd60e51b815260206004820152602060248201527f4f776e61626c653a2063616c6c6572206973206e6f7420746865206f776e65726044820152fd5b600260005414611dd2576002600055565b60405162461bcd60e51b815260206004820152601f60248201527f5265656e7472616e637947756172643a207265656e7472616e742063616c6c006044820152606490fdfea2646970667358221220d682120d0d3bf368e13354736c0153a06c53516cd063fcaca89416e1adf3014f64736f6c634300081c0033",
  "linkReferences": {},
  "deployedLinkReferences": {}
}