{
  "_format": "hh-sol-artifact-1",
  "contractName": "AuStake",
  "sourceName": "contracts/AuStake.sol",
  "abi": [
    {
      "inputs": [
        {
          "internalType": "address payable",
          "name": "_projectWallet",
          "type": "address"
        },
        {
          "internalType": "address",
          "name": "initialOwner",
          "type": "address"
        }
      ],
      "stateMutability": "nonpayable",
      "type": "constructor"
    },
    {
      "anonymous": false,
      "inputs": [
        {
          "indexed": true,
          "internalType": "address",
          "name": "admin",
          "type": "address"
        },
        {
          "indexed": false,
          "internalType": "bool",
          "name": "status",
          "type": "bool"
        }
      ],
      "name": "AdminStatusChanged",
      "type": "event"
    },
    {
      "anonymous": false,
      "inputs": [
        {
          "indexed": true,
          "internalType": "bytes32",
          "name": "operationId",
          "type": "bytes32"
        },
        {
          "indexed": false,
          "internalType": "string",
          "name": "name",
          "type": "string"
        },
        {
          "indexed": false,
          "internalType": "address",
          "name": "token",
          "type": "address"
        }
      ],
      "name": "OperationCreated",
      "type": "event"
    },
    {
      "anonymous": false,
      "inputs": [
        {
          "indexed": true,
          "internalType": "address",
          "name": "previousOwner",
          "type": "address"
        },
        {
          "indexed": true,
          "internalType": "address",
          "name": "newOwner",
          "type": "address"
        }
      ],
      "name": "OwnershipTransferred",
      "type": "event"
    },
    {
      "anonymous": false,
      "inputs": [
        {
          "indexed": true,
          "internalType": "address",
          "name": "user",
          "type": "address"
        },
        {
          "indexed": false,
          "internalType": "uint256",
          "name": "amount",
          "type": "uint256"
        },
        {
          "indexed": true,
          "internalType": "bytes32",
          "name": "operationId",
          "type": "bytes32"
        }
      ],
      "name": "RewardPaid",
      "type": "event"
    },
    {
      "anonymous": false,
      "inputs": [
        {
          "indexed": true,
          "internalType": "address",
          "name": "token",
          "type": "address"
        },
        {
          "indexed": true,
          "internalType": "address",
          "name": "user",
          "type": "address"
        },
        {
          "indexed": false,
          "internalType": "uint256",
          "name": "amount",
          "type": "uint256"
        },
        {
          "indexed": true,
          "internalType": "bytes32",
          "name": "operationId",
          "type": "bytes32"
        },
        {
          "indexed": false,
          "internalType": "string",
          "name": "eType",
          "type": "string"
        },
        {
          "indexed": false,
          "internalType": "uint256",
          "name": "time",
          "type": "uint256"
        }
      ],
      "name": "Staked",
      "type": "event"
    },
    {
      "anonymous": false,
      "inputs": [
        {
          "indexed": true,
          "internalType": "address",
          "name": "token",
          "type": "address"
        },
        {
          "indexed": true,
          "internalType": "address",
          "name": "user",
          "type": "address"
        },
        {
          "indexed": false,
          "internalType": "uint256",
          "name": "amount",
          "type": "uint256"
        },
        {
          "indexed": true,
          "internalType": "bytes32",
          "name": "operationId",
          "type": "bytes32"
        },
        {
          "indexed": false,
          "internalType": "string",
          "name": "eType",
          "type": "string"
        },
        {
          "indexed": false,
          "internalType": "uint256",
          "name": "time",
          "type": "uint256"
        }
      ],
      "name": "Unstaked",
      "type": "event"
    },
    {
      "inputs": [
        {
          "internalType": "uint256",
          "name": "",
          "type": "uint256"
        }
      ],
      "name": "activeOperations",
      "outputs": [
        {
          "internalType": "bytes32",
          "name": "",
          "type": "bytes32"
        }
      ],
      "stateMutability": "view",
      "type": "function"
    },
    {
      "inputs": [
        {
          "internalType": "address",
          "name": "",
          "type": "address"
        }
      ],
      "name": "admins",
      "outputs": [
        {
          "internalType": "bool",
          "name": "",
          "type": "bool"
        }
      ],
      "stateMutability": "view",
      "type": "function"
    },
    {
      "inputs": [
        {
          "internalType": "address",
          "name": "token",
          "type": "address"
        },
        {
          "internalType": "bytes32",
          "name": "operationId",
          "type": "bytes32"
        },
        {
          "internalType": "address",
          "name": "user",
          "type": "address"
        }
      ],
      "name": "claimReward",
      "outputs": [],
      "stateMutability": "nonpayable",
      "type": "function"
    },
    {
      "inputs": [
        {
          "internalType": "string",
          "name": "name",
          "type": "string"
        },
        {
          "internalType": "address",
          "name": "token",
          "type": "address"
        },
        {
          "internalType": "address",
          "name": "provider",
          "type": "address"
        },
        {
          "internalType": "uint256",
          "name": "deadline",
          "type": "uint256"
        },
        {
          "internalType": "uint256",
          "name": "reward",
          "type": "uint256"
        },
        {
          "internalType": "string",
          "name": "rwaName",
          "type": "string"
        }
      ],
      "name": "createOperation",
      "outputs": [
        {
          "internalType": "bytes32",
          "name": "",
          "type": "bytes32"
        }
      ],
      "stateMutability": "nonpayable",
      "type": "function"
    },
    {
      "inputs": [
        {
          "internalType": "bytes32",
          "name": "id",
          "type": "bytes32"
        }
      ],
      "name": "getOperation",
      "outputs": [
        {
          "internalType": "bytes32",
          "name": "returnId",
          "type": "bytes32"
        },
        {
          "internalType": "string",
          "name": "name",
          "type": "string"
        },
        {
          "internalType": "address",
          "name": "token",
          "type": "address"
        },
        {
          "internalType": "address",
          "name": "provider",
          "type": "address"
        },
        {
          "internalType": "uint256",
          "name": "deadline",
          "type": "uint256"
        },
        {
          "internalType": "uint256",
          "name": "startDate",
          "type": "uint256"
        },
        {
          "internalType": "string",
          "name": "rwaName",
          "type": "string"
        },
        {
          "internalType": "uint256",
          "name": "reward",
          "type": "uint256"
        },
        {
          "internalType": "uint256",
          "name": "tokenTvl",
          "type": "uint256"
        },
        {
          "internalType": "enum AuStake.OperationStatus",
          "name": "operationStatus",
          "type": "uint8"
        }
      ],
      "stateMutability": "view",
      "type": "function"
    },
    {
      "inputs": [
        {
          "internalType": "bytes32",
          "name": "",
          "type": "bytes32"
        }
      ],
      "name": "idToOperation",
      "outputs": [
        {
          "internalType": "bytes32",
          "name": "id",
          "type": "bytes32"
        },
        {
          "internalType": "string",
          "name": "name",
          "type": "string"
        },
        {
          "internalType": "address",
          "name": "token",
          "type": "address"
        },
        {
          "internalType": "address",
          "name": "provider",
          "type": "address"
        },
        {
          "internalType": "uint256",
          "name": "deadline",
          "type": "uint256"
        },
        {
          "internalType": "uint256",
          "name": "startDate",
          "type": "uint256"
        },
        {
          "internalType": "string",
          "name": "rwaName",
          "type": "string"
        },
        {
          "internalType": "uint256",
          "name": "reward",
          "type": "uint256"
        },
        {
          "internalType": "uint256",
          "name": "tokenTvl",
          "type": "uint256"
        },
        {
          "internalType": "enum AuStake.OperationStatus",
          "name": "operationStatus",
          "type": "uint8"
        }
      ],
      "stateMutability": "view",
      "type": "function"
    },
    {
      "inputs": [],
      "name": "lockPeriod",
      "outputs": [
        {
          "internalType": "uint256",
          "name": "",
          "type": "uint256"
        }
      ],
      "stateMutability": "view",
      "type": "function"
    },
    {
      "inputs": [
        {
          "internalType": "bytes32",
          "name": "",
          "type": "bytes32"
        },
        {
          "internalType": "address",
          "name": "",
          "type": "address"
        }
      ],
      "name": "operationStakes",
      "outputs": [
        {
          "internalType": "uint256",
          "name": "amount",
          "type": "uint256"
        },
        {
          "internalType": "uint256",
          "name": "timestamp",
          "type": "uint256"
        },
        {
          "internalType": "bool",
          "name": "isActive",
          "type": "bool"
        }
      ],
      "stateMutability": "view",
      "type": "function"
    },
    {
      "inputs": [],
      "name": "owner",
      "outputs": [
        {
          "internalType": "address",
          "name": "",
          "type": "address"
        }
      ],
      "stateMutability": "view",
      "type": "function"
    },
    {
      "inputs": [],
      "name": "projectWallet",
      "outputs": [
        {
          "internalType": "address payable",
          "name": "",
          "type": "address"
        }
      ],
      "stateMutability": "view",
      "type": "function"
    },
    {
      "inputs": [
        {
          "internalType": "address",
          "name": "",
          "type": "address"
        },
        {
          "internalType": "uint256",
          "name": "",
          "type": "uint256"
        }
      ],
      "name": "providerToOperationIds",
      "outputs": [
        {
          "internalType": "bytes32",
          "name": "",
          "type": "bytes32"
        }
      ],
      "stateMutability": "view",
      "type": "function"
    },
    {
      "inputs": [],
      "name": "renounceOwnership",
      "outputs": [],
      "stateMutability": "nonpayable",
      "type": "function"
    },
    {
      "inputs": [
        {
          "internalType": "address",
          "name": "user",
          "type": "address"
        },
        {
          "internalType": "bool",
          "name": "status",
          "type": "bool"
        }
      ],
      "name": "setAdmin",
      "outputs": [],
      "stateMutability": "nonpayable",
      "type": "function"
    },
    {
      "inputs": [
        {
          "internalType": "uint256",
          "name": "_lockPeriod",
          "type": "uint256"
        }
      ],
      "name": "setLockPeriod",
      "outputs": [],
      "stateMutability": "nonpayable",
      "type": "function"
    },
    {
      "inputs": [
        {
          "internalType": "bytes32",
          "name": "id",
          "type": "bytes32"
        },
        {
          "internalType": "uint256",
          "name": "amount",
          "type": "uint256"
        }
      ],
      "name": "setOperationReward",
      "outputs": [],
      "stateMutability": "nonpayable",
      "type": "function"
    },
    {
      "inputs": [
        {
          "internalType": "address payable",
          "name": "_projectWallet",
          "type": "address"
        }
      ],
      "name": "setProjectWallet",
      "outputs": [],
      "stateMutability": "nonpayable",
      "type": "function"
    },
    {
      "inputs": [
        {
          "internalType": "address",
          "name": "token",
          "type": "address"
        },
        {
          "internalType": "bytes32",
          "name": "operationId",
          "type": "bytes32"
        },
        {
          "internalType": "uint256",
          "name": "amount",
          "type": "uint256"
        }
      ],
      "name": "stake",
      "outputs": [],
      "stateMutability": "nonpayable",
      "type": "function"
    },
    {
      "inputs": [
        {
          "internalType": "address",
          "name": "",
          "type": "address"
        },
        {
          "internalType": "address",
          "name": "",
          "type": "address"
        }
      ],
      "name": "stakes",
      "outputs": [
        {
          "internalType": "uint256",
          "name": "amount",
          "type": "uint256"
        },
        {
          "internalType": "uint256",
          "name": "timestamp",
          "type": "uint256"
        },
        {
          "internalType": "bool",
          "name": "isActive",
          "type": "bool"
        }
      ],
      "stateMutability": "view",
      "type": "function"
    },
    {
      "inputs": [
        {
          "internalType": "address",
          "name": "",
          "type": "address"
        }
      ],
      "name": "tokenToOperationIds",
      "outputs": [
        {
          "internalType": "bytes32",
          "name": "",
          "type": "bytes32"
        }
      ],
      "stateMutability": "view",
      "type": "function"
    },
    {
      "inputs": [
        {
          "internalType": "address",
          "name": "",
          "type": "address"
        }
      ],
      "name": "tokenTvl",
      "outputs": [
        {
          "internalType": "uint256",
          "name": "",
          "type": "uint256"
        }
      ],
      "stateMutability": "view",
      "type": "function"
    },
    {
      "inputs": [
        {
          "internalType": "address",
          "name": "newOwner",
          "type": "address"
        }
      ],
      "name": "transferOwnership",
      "outputs": [],
      "stateMutability": "nonpayable",
      "type": "function"
    },
    {
      "inputs": [
        {
          "internalType": "address",
          "name": "token",
          "type": "address"
        },
        {
          "internalType": "bytes32",
          "name": "operationId",
          "type": "bytes32"
        }
      ],
      "name": "unlockReward",
      "outputs": [],
      "stateMutability": "nonpayable",
      "type": "function"
    }
  ],
  "bytecode": "0x608060405234801561001057600080fd5b50604051611dfc380380611dfc83398101604081905261002f9161013c565b600160005561003d336100d2565b6001600160a01b0382166100975760405162461bcd60e51b815260206004820152601660248201527f496e76616c69642070726f6a6563742077616c6c657400000000000000000000604482015260640160405180910390fd5b600280546001600160a01b0319166001600160a01b03938416179055166000908152600560205260409020805460ff19166001179055610176565b600180546001600160a01b038381166001600160a01b0319831681179093556040519116919082907f8be0079c531659141344cd1fd0a4f28419497f9722a3daafe3b4186f6b6457e090600090a35050565b6001600160a01b038116811461013957600080fd5b50565b6000806040838503121561014f57600080fd5b825161015a81610124565b602084015190925061016b81610124565b809150509250929050565b611c77806101856000396000f3fe608060405234801561001057600080fd5b50600436106101425760003560e01c8063779972da116100b8578063a4e47b661161007c578063a4e47b661461030a578063aad9712114610347578063beb08ab91461035a578063dbeee3971461036d578063f2fde38b1461038d578063fea47a1c146103a057600080fd5b8063779972da1461029957806379dbebfa146102ac5780637bd44ecf146102bf5780638a780447146102d25780638da5cb5b146102e557600080fd5b806343273eec1161010a57806343273eec146101e95780634b0bddd2146102435780634bb1383b146102585780636548ad561461026b5780636f37a2c91461027e578063715018a61461029157600080fd5b806324c963a214610147578063279412c5146101795780633fd8b02f1461018c57806341b7bd32146101a3578063429b62e5146101b6575b600080fd5b61015a6101553660046115ca565b6103c0565b6040516101709a9998979695949392919061163f565b60405180910390f35b61015a6101873660046115ca565b610534565b61019560065481565b604051908152602001610170565b6101956101b13660046115ca565b6106dc565b6101d96101c43660046116ea565b60056020526000908152604090205460ff1681565b6040519015158152602001610170565b6102266101f736600461170e565b600a60209081526000928352604080842090915290825290208054600182015460029092015490919060ff1683565b604080519384526020840192909252151590820152606001610170565b61025661025136600461174c565b6106fd565b005b61019561026636600461177a565b6107b1565b61019561027936600461184b565b6107e2565b61025661028c3660046118eb565b610ac2565b610256610d8d565b6102566102a73660046115ca565b610da1565b6102566102ba366004611920565b610dae565b6102566102cd366004611962565b611176565b6102566102e03660046116ea565b61126a565b6001546001600160a01b03165b6040516001600160a01b039091168152602001610170565b610226610318366004611984565b600960209081526000928352604080842090915290825290208054600182015460029092015490919060ff1683565b61025661035536600461177a565b6112dc565b6002546102f2906001600160a01b031681565b61019561037b3660046116ea565b600b6020526000908152604090205481565b61025661039b3660046116ea565b61144c565b6101956103ae3660046116ea565b60086020526000908152604090205481565b600460205260009081526040902080546001820180549192916103e2906119b2565b80601f016020809104026020016040519081016040528092919081815260200182805461040e906119b2565b801561045b5780601f106104305761010080835404028352916020019161045b565b820191906000526020600020905b81548152906001019060200180831161043e57829003601f168201915b505050600284015460038501546004860154600587015460068801805497986001600160a01b0395861698949095169650919450929161049a906119b2565b80601f01602080910402602001604051908101604052809291908181526020018280546104c6906119b2565b80156105135780601f106104e857610100808354040283529160200191610513565b820191906000526020600020905b8154815290600101906020018083116104f657829003601f168201915b50505050600783015460088401546009909401549293909290915060ff168a565b6000818152600460208190526040822080546002820154600383015493830154600584015460078501546008860154600987015460018801805460609a8c9a8b9a8b9a8b9a8f9a8c9a8b9a8b9a9699959895976001600160a01b03958616979516959394929360068b019360ff169089906105ae906119b2565b80601f01602080910402602001604051908101604052809291908181526020018280546105da906119b2565b80156106275780601f106105fc57610100808354040283529160200191610627565b820191906000526020600020905b81548152906001019060200180831161060a57829003601f168201915b5050505050985083805461063a906119b2565b80601f0160208091040260200160405190810160405280929190818152602001828054610666906119b2565b80156106b35780601f10610688576101008083540402835291602001916106b3565b820191906000526020600020905b81548152906001019060200180831161069657829003601f168201915b505050505093509a509a509a509a509a509a509a509a509a509a50509193959799509193959799565b600381815481106106ec57600080fd5b600091825260209091200154905081565b6107056114c5565b6001600160a01b0382166107525760405162461bcd60e51b815260206004820152600f60248201526e496e76616c6964206164647265737360881b60448201526064015b60405180910390fd5b6001600160a01b038216600081815260056020908152604091829020805460ff191685151590811790915591519182527fc63c72d6995119c079ef24c02679d49838905c8e81df9e632011b914e6f592f6910160405180910390a25050565b600760205281600052604060002081815481106107cd57600080fd5b90600052602060002001600091509150505481565b3360009081526005602052604081205460ff1661083a5760405162461bcd60e51b815260206004820152601660248201527521b0b63632b91034b9903737ba1030b71030b236b4b760511b6044820152606401610749565b6001600160a01b0386166108885760405162461bcd60e51b8152602060048201526015602482015274496e76616c696420746f6b656e206164647265737360581b6044820152606401610749565b6001600160a01b0385166108de5760405162461bcd60e51b815260206004820152601860248201527f496e76616c69642070726f7669646572206164647265737300000000000000006044820152606401610749565b6000841161091f5760405162461bcd60e51b815260206004820152600e60248201526d092dcecc2d8d2c840d8cadccee8d60931b6044820152606401610749565b6000831161093f5760405162461bcd60e51b8152600401610749906119ec565b600c805490600061094f83611a4a565b91905055506000600c5460405160200161096b91815260200190565b60408051601f198184030181529181528151602092830120600081815260049093529120909150600181016109a08a82611aaa565b506002810180546001600160a01b038a81166001600160a01b031992831617909255600383018054928a1692909116919091179055600481018690556007810185905560098101805460ff1916600117905581815542600582015560068101610a098582611aaa565b506001600160a01b03808816600090815260076020908152604080832080546001818101835591855283852001879055938c16835260089091528082208590556003805493840181559091527fc2575a0e9e593c00f959f8c92f12db2869c3395a3b0502d05e2516446f71f85b9091018390555182907f2690fca832a7d48acb6433d8af47a3d184803d8e82c5971c2484a99c5825af0590610aae908c908c90611b69565b60405180910390a250979650505050505050565b610aca61151f565b60008111610b0b5760405162461bcd60e51b815260206004820152600e60248201526d043616e6e6f74207374616b6520360941b6044820152606401610749565b6000828152600460205260409020600201546001600160a01b03848116911614610b685760405162461bcd60e51b815260206004820152600e60248201526d0a8ded6cadc40dad2e6dac2e8c6d60931b6044820152606401610749565b6040516323b872dd60e01b81523360048201523060248201526044810182905283906001600160a01b038216906323b872dd906064016020604051808303816000875af1158015610bbd573d6000803e3d6000fd5b505050506040513d601f19601f82011682018060405250810190610be19190611b93565b610c1f5760405162461bcd60e51b815260206004820152600f60248201526e151c985b9cd9995c8819985a5b1959608a1b6044820152606401610749565b604080516060808201835284825242602080840182815260018587018181526001600160a01b038c16600090815260098552888120338083529086528982209851895593518884015590516002978801805491151560ff19928316179055885196870189528a87528685019586528689018381528c8352600a865289832094835293855288822096518755945191860191909155905193909401805493151593909216929092179055858252600490529081206008018054849290610ce5908490611bb0565b90915550506001600160a01b0384166000908152600b602052604081208054849290610d12908490611bb0565b9091555050604080518381526060602082018190526006908201526514dd185ad95960d21b608082015242818301529051849133916001600160a01b038816917f70d34e4a1cffdadaa1ca80104ed9f15ffb4114c859f8c9e89ef302a72862fb25919081900360a00190a450610d886001600055565b505050565b610d956114c5565b610d9f6000611578565b565b610da96114c5565b600655565b6000828152600460205260409020600201546001600160a01b03848116911614610e0b5760405162461bcd60e51b815260206004820152600e60248201526d0a8ded6cadc40dad2e6dac2e8c6d60931b6044820152606401610749565b600260008381526004602052604090206009015460ff166003811115610e3357610e33611629565b14610e795760405162461bcd60e51b81526020600482015260166024820152754f7065726174696f6e206e6f7420636f6d706c65746560501b6044820152606401610749565b6000828152600a602090815260408083206001600160a01b03851684529091529020600281015460ff16610ee15760405162461bcd60e51b815260206004820152600f60248201526e4e6f20616374697665207374616b6560881b6044820152606401610749565b600083815260046020526040812060078101548354879391606491610f069190611bc9565b610f109190611be0565b90506000818560000154610f249190611bb0565b60028601805460ff1916905585546008850180549293509091600090610f4b908490611c02565b9091555050600883015460000361107057600080805b600354811015610fa3578960038281548110610f7f57610f7f611c15565b906000526020600020015403610f9b5780925060019150610fa3565b600101610f61565b5080610fea5760405162461bcd60e51b815260206004820152601660248201527513dc195c985d1a5bdb881259081b9bdd08199bdd5b9960521b6044820152606401610749565b60038281548110610ffd57610ffd611c15565b6000918252602090912001546003805461101990600190611c02565b8154811061102957611029611c15565b600091825260209091200155600380548061104657611046611c2b565b600082815260208120600019908301810191909155019055505060098301805460ff191660031790555b60405163a9059cbb60e01b81526001600160a01b0387811660048301526024820183905285169063a9059cbb906044016020604051808303816000875af11580156110bf573d6000803e3d6000fd5b505050506040513d601f19601f820116820180604052508101906110e39190611b93565b6111285760405162461bcd60e51b815260206004820152601660248201527514995d1d5c9b881d1c985b9cd9995c8819985a5b195960521b6044820152606401610749565b86866001600160a01b03167f25d820333c9a561247c10864c5a61ff35d1b52a4d260cd78ffd379c9921a41878460405161116491815260200190565b60405180910390a35050505050505050565b3360009081526005602052604090205460ff166111ce5760405162461bcd60e51b815260206004820152601660248201527521b0b63632b91034b9903737ba1030b71030b236b4b760511b6044820152606401610749565b6000828152600460205260409020600201546001600160a01b03166112355760405162461bcd60e51b815260206004820152601860248201527f4f7065726174696f6e20646f6573206e6f7420657869737400000000000000006044820152606401610749565b600081116112555760405162461bcd60e51b8152600401610749906119ec565b60009182526004602052604090912060070155565b6112726114c5565b6001600160a01b0381166112ba5760405162461bcd60e51b815260206004820152600f60248201526e496e76616c6964206164647265737360881b6044820152606401610749565b600280546001600160a01b0319166001600160a01b0392909216919091179055565b6000818152600460205260409020600301546001600160a01b031633146113455760405162461bcd60e51b815260206004820152601a60248201527f73656e646572206973206e6f74207468652070726f76696465720000000000006044820152606401610749565b60008181526004602052604081206007810154600882015485939160649161136d9190611bc9565b6113779190611be0565b60098301805460ff191660021790556040516323b872dd60e01b8152336004820152306024820152604481018290529091506001600160a01b038416906323b872dd906064016020604051808303816000875af11580156113dc573d6000803e3d6000fd5b505050506040513d601f19601f820116820180604052508101906114009190611b93565b6114455760405162461bcd60e51b815260206004820152601660248201527514995dd85c99081d1c985b9cd9995c8819985a5b195960521b6044820152606401610749565b5050505050565b6114546114c5565b6001600160a01b0381166114b95760405162461bcd60e51b815260206004820152602660248201527f4f776e61626c653a206e6577206f776e657220697320746865207a65726f206160448201526564647265737360d01b6064820152608401610749565b6114c281611578565b50565b6001546001600160a01b03163314610d9f5760405162461bcd60e51b815260206004820181905260248201527f4f776e61626c653a2063616c6c6572206973206e6f7420746865206f776e65726044820152606401610749565b6002600054036115715760405162461bcd60e51b815260206004820152601f60248201527f5265656e7472616e637947756172643a207265656e7472616e742063616c6c006044820152606401610749565b6002600055565b600180546001600160a01b038381166001600160a01b0319831681179093556040519116919082907f8be0079c531659141344cd1fd0a4f28419497f9722a3daafe3b4186f6b6457e090600090a35050565b6000602082840312156115dc57600080fd5b5035919050565b6000815180845260005b81811015611609576020818501810151868301820152016115ed565b506000602082860101526020601f19601f83011685010191505092915050565b634e487b7160e01b600052602160045260246000fd5b8a81526101406020820152600061165a61014083018c6115e3565b6001600160a01b038b811660408501528a1660608401526080830189905260a0830188905282810360c084015261169181886115e3565b9150508460e083015283610100830152600483106116bf57634e487b7160e01b600052602160045260246000fd5b826101208301529b9a5050505050505050505050565b6001600160a01b03811681146114c257600080fd5b6000602082840312156116fc57600080fd5b8135611707816116d5565b9392505050565b6000806040838503121561172157600080fd5b823591506020830135611733816116d5565b809150509250929050565b80151581146114c257600080fd5b6000806040838503121561175f57600080fd5b823561176a816116d5565b915060208301356117338161173e565b6000806040838503121561178d57600080fd5b8235611798816116d5565b946020939093013593505050565b634e487b7160e01b600052604160045260246000fd5b600082601f8301126117cd57600080fd5b813567ffffffffffffffff8111156117e7576117e76117a6565b604051601f8201601f19908116603f0116810167ffffffffffffffff81118282101715611816576118166117a6565b60405281815283820160200185101561182e57600080fd5b816020850160208301376000918101602001919091529392505050565b60008060008060008060c0878903121561186457600080fd5b863567ffffffffffffffff81111561187b57600080fd5b61188789828a016117bc565b9650506020870135611898816116d5565b945060408701356118a8816116d5565b9350606087013592506080870135915060a087013567ffffffffffffffff8111156118d257600080fd5b6118de89828a016117bc565b9150509295509295509295565b60008060006060848603121561190057600080fd5b833561190b816116d5565b95602085013595506040909401359392505050565b60008060006060848603121561193557600080fd5b8335611940816116d5565b9250602084013591506040840135611957816116d5565b809150509250925092565b6000806040838503121561197557600080fd5b50508035926020909101359150565b6000806040838503121561199757600080fd5b82356119a2816116d5565b91506020830135611733816116d5565b600181811c908216806119c657607f821691505b6020821081036119e657634e487b7160e01b600052602260045260246000fd5b50919050565b60208082526028908201527f5265776172642070657263656e74616765206d75737420626520677265617465604082015267072207468616e20360c41b606082015260800190565b634e487b7160e01b600052601160045260246000fd5b600060018201611a5c57611a5c611a34565b5060010190565b601f821115610d8857806000526020600020601f840160051c81016020851015611a8a5750805b601f840160051c820191505b818110156114455760008155600101611a96565b815167ffffffffffffffff811115611ac457611ac46117a6565b611ad881611ad284546119b2565b84611a63565b6020601f821160018114611b0c5760008315611af45750848201515b600019600385901b1c1916600184901b178455611445565b600084815260208120601f198516915b82811015611b3c5787850151825560209485019460019092019101611b1c565b5084821015611b5a5786840151600019600387901b60f8161c191681555b50505050600190811b01905550565b604081526000611b7c60408301856115e3565b905060018060a01b03831660208301529392505050565b600060208284031215611ba557600080fd5b81516117078161173e565b80820180821115611bc357611bc3611a34565b92915050565b8082028115828204841417611bc357611bc3611a34565b600082611bfd57634e487b7160e01b600052601260045260246000fd5b500490565b81810381811115611bc357611bc3611a34565b634e487b7160e01b600052603260045260246000fd5b634e487b7160e01b600052603160045260246000fdfea2646970667358221220b871629ab0a2ba339277d75b3981f3985cb0277bc6dfa8934256cddc3eba210764736f6c634300081c0033",
  "linkReferences": {},
  "deployedLinkReferences": {}
}