{"abi":[{"type":"constructor","inputs":[],"stateMutability":"nonpayable"},{"type":"function","name":"_deployer","inputs":[],"outputs":[{"name":"","type":"address","internalType":"address"}],"stateMutability":"view"},{"type":"function","name":"allowance","inputs":[{"name":"owner","type":"address","internalType":"address"},{"name":"spender","type":"address","internalType":"address"}],"outputs":[{"name":"","type":"uint256","internalType":"uint256"}],"stateMutability":"view"},{"type":"function","name":"approve","inputs":[{"name":"spender","type":"address","internalType":"address"},{"name":"amount","type":"uint256","internalType":"uint256"}],"outputs":[{"name":"","type":"bool","internalType":"bool"}],"stateMutability":"nonpayable"},{"type":"function","name":"balanceOf","inputs":[{"name":"account","type":"address","internalType":"address"}],"outputs":[{"name":"","type":"uint256","internalType":"uint256"}],"stateMutability":"view"},{"type":"function","name":"burn","inputs":[{"name":"account","type":"address","internalType":"address"},{"name":"amount","type":"uint256","internalType":"uint256"}],"outputs":[{"name":"","type":"bool","internalType":"bool"}],"stateMutability":"nonpayable"},{"type":"function","name":"decimals","inputs":[],"outputs":[{"name":"","type":"uint8","internalType":"uint8"}],"stateMutability":"view"},{"type":"function","name":"decreaseAllowance","inputs":[{"name":"spender","type":"address","internalType":"address"},{"name":"subtractedValue","type":"uint256","internalType":"uint256"}],"outputs":[{"name":"","type":"bool","internalType":"bool"}],"stateMutability":"nonpayable"},{"type":"function","name":"increaseAllowance","inputs":[{"name":"spender","type":"address","internalType":"address"},{"name":"addedValue","type":"uint256","internalType":"uint256"}],"outputs":[{"name":"","type":"bool","internalType":"bool"}],"stateMutability":"nonpayable"},{"type":"function","name":"mintTokenToTreasury","inputs":[{"name":"amount","type":"uint256","internalType":"uint256"}],"outputs":[],"stateMutability":"nonpayable"},{"type":"function","name":"name","inputs":[],"outputs":[{"name":"","type":"string","internalType":"string"}],"stateMutability":"view"},{"type":"function","name":"setAdmin","inputs":[{"name":"user","type":"address","internalType":"address"}],"outputs":[],"stateMutability":"nonpayable"},{"type":"function","name":"setTreasuryAddress","inputs":[{"name":"treasuryAddress","type":"address","internalType":"address"}],"outputs":[],"stateMutability":"nonpayable"},{"type":"function","name":"symbol","inputs":[],"outputs":[{"name":"","type":"string","internalType":"string"}],"stateMutability":"view"},{"type":"function","name":"totalSupply","inputs":[],"outputs":[{"name":"","type":"uint256","internalType":"uint256"}],"stateMutability":"view"},{"type":"function","name":"transfer","inputs":[{"name":"to","type":"address","internalType":"address"},{"name":"amount","type":"uint256","internalType":"uint256"}],"outputs":[{"name":"","type":"bool","internalType":"bool"}],"stateMutability":"nonpayable"},{"type":"function","name":"transferFrom","inputs":[{"name":"from","type":"address","internalType":"address"},{"name":"to","type":"address","internalType":"address"},{"name":"amount","type":"uint256","internalType":"uint256"}],"outputs":[{"name":"","type":"bool","internalType":"bool"}],"stateMutability":"nonpayable"},{"type":"event","name":"Approval","inputs":[{"name":"owner","type":"address","indexed":true,"internalType":"address"},{"name":"spender","type":"address","indexed":true,"internalType":"address"},{"name":"value","type":"uint256","indexed":false,"internalType":"uint256"}],"anonymous":false},{"type":"event","name":"Transfer","inputs":[{"name":"from","type":"address","indexed":true,"internalType":"address"},{"name":"to","type":"address","indexed":true,"internalType":"address"},{"name":"value","type":"uint256","indexed":false,"internalType":"uint256"}],"anonymous":false}],"bytecode":{"object":"0x60806040523461010057610014600354610104565b601f81116100b8575b506008634175726160e01b0160035560045461003890610104565b601f8111610070575b6008634155524160e01b01600455600680546001600160a01b03191633179055604051610b42908161013d8239f35b60045f52601f0160051c7f8a35acfbc15ff81a39ae7d344fd709f28e8600b4aa8c65c6b64bfe7fe36bd19b908101905b8181106100ad5750610041565b5f81556001016100a0565b60035f52601f0160051c7fc2575a0e9e593c00f959f8c92f12db2869c3395a3b0502d05e2516446f71f85b908101905b8181106100f5575061001d565b5f81556001016100e8565b5f80fd5b90600182811c92168015610132575b602083101461011e57565b634e487b7160e01b5f52602260045260245ffd5b91607f169161011356fe6080806040526004361015610012575f80fd5b5f3560e01c90816306fdde031461076057508063095ea7b31461073a57806318160ddd1461071d578063202948881461063a57806323b872dd1461057d578063313ce5671461056257806339509351146105145780636605bfda146104d6578063704b6c021461049a57806370a082311461046357806395d89b41146103485780639dc29fac1461021c578063a457c2d714610179578063a9059cbb14610148578063d310556b146101205763dd62ed3e146100cc575f80fd5b3461011c57604036600319011261011c576100e5610859565b6100ed61086f565b6001600160a01b039182165f908152600160209081526040808320949093168252928352819020549051908152f35b5f80fd5b3461011c575f36600319011261011c576006546040516001600160a01b039091168152602090f35b3461011c57604036600319011261011c5761016e610164610859565b6024359033610996565b602060405160018152f35b3461011c57604036600319011261011c57610192610859565b60243590335f52600160205260405f2060018060a01b0382165f5260205260405f2054918083106101c95761016e92039033610892565b60405162461bcd60e51b815260206004820152602560248201527f45524332303a2064656372656173656420616c6c6f77616e63652062656c6f77604482015264207a65726f60d81b6064820152608490fd5b3461011c57604036600319011261011c57610235610859565b602435906001600160a01b031680156102f957805f525f60205260405f2054918083106102a9576020817fddf252ad1be2c89b69c2b068fc378daa952ba7f163c4a11628f55a4df523b3ef925f958587528684520360408620558060025403600255604051908152a3602060405160018152f35b60405162461bcd60e51b815260206004820152602260248201527f45524332303a206275726e20616d6f756e7420657863656564732062616c616e604482015261636560f01b6064820152608490fd5b60405162461bcd60e51b815260206004820152602160248201527f45524332303a206275726e2066726f6d20746865207a65726f206164647265736044820152607360f81b6064820152608490fd5b3461011c575f36600319011261011c576040515f6004548060011c90600181168015610459575b6020831081146104455782855290811561042957506001146103d4575b50819003601f01601f191681019067ffffffffffffffff8211818310176103c0576103bc8291826040528261082f565b0390f35b634e487b7160e01b5f52604160045260245ffd5b905060045f527f8a35acfbc15ff81a39ae7d344fd709f28e8600b4aa8c65c6b64bfe7fe36bd19b5f905b8282106104135750602091508201018261038c565b60018160209254838588010152019101906103fe565b90506020925060ff191682840152151560051b8201018261038c565b634e487b7160e01b5f52602260045260245ffd5b91607f169161036f565b3461011c57602036600319011261011c576001600160a01b03610484610859565b165f525f602052602060405f2054604051908152f35b3461011c57602036600319011261011c576001600160a01b036104bb610859565b165f908152600760205260409020805460ff19166001179055005b3461011c57602036600319011261011c576001600160a01b036104f7610859565b166bffffffffffffffffffffffff60a01b60055416176005555f80f35b3461011c57604036600319011261011c5761016e610530610859565b335f52600160205260405f2060018060a01b0382165f5260205261055b60405f206024359054610885565b9033610892565b3461011c575f36600319011261011c57602060405160128152f35b3461011c57606036600319011261011c57610596610859565b61059e61086f565b6001600160a01b0382165f9081526001602081815260408084203385529091529091205492604435929184016105d9575b61016e9350610996565b8284106105f5576105f08361016e95033383610892565b6105cf565b60405162461bcd60e51b815260206004820152601d60248201527f45524332303a20696e73756666696369656e7420616c6c6f77616e63650000006044820152606490fd5b3461011c57602036600319011261011c57600435670de0b6b3a7640000810290808204670de0b6b3a764000014901517156107095733156106c45761068181600254610885565b600255335f525f60205260405f208181540190556040519081525f7fddf252ad1be2c89b69c2b068fc378daa952ba7f163c4a11628f55a4df523b3ef60203393a3005b60405162461bcd60e51b815260206004820152601f60248201527f45524332303a206d696e7420746f20746865207a65726f2061646472657373006044820152606490fd5b634e487b7160e01b5f52601160045260245ffd5b3461011c575f36600319011261011c576020600254604051908152f35b3461011c57604036600319011261011c5761016e610756610859565b6024359033610892565b3461011c575f36600319011261011c575f6003548060011c90600181168015610825575b6020831081146104455782855290811561042957506001146107d05750819003601f01601f191681019067ffffffffffffffff8211818310176103c0576103bc8291826040528261082f565b905060035f527fc2575a0e9e593c00f959f8c92f12db2869c3395a3b0502d05e2516446f71f85b5f905b82821061080f5750602091508201018261038c565b60018160209254838588010152019101906107fa565b91607f1691610784565b602060409281835280519182918282860152018484015e5f828201840152601f01601f1916010190565b600435906001600160a01b038216820361011c57565b602435906001600160a01b038216820361011c57565b9190820180921161070957565b6001600160a01b0316908115610945576001600160a01b03169182156108f55760207f8c5be1e5ebec7d5bd14f71427d1e84f3dd0314c0f7b2291e5b200ac8c7c3b92591835f526001825260405f20855f5282528060405f2055604051908152a3565b60405162461bcd60e51b815260206004820152602260248201527f45524332303a20617070726f766520746f20746865207a65726f206164647265604482015261737360f01b6064820152608490fd5b60405162461bcd60e51b8152602060048201526024808201527f45524332303a20617070726f76652066726f6d20746865207a65726f206164646044820152637265737360e01b6064820152608490fd5b6001600160a01b0316908115610ab9576001600160a01b0316918215610a6857815f525f60205260405f2054818110610a1457817fddf252ad1be2c89b69c2b068fc378daa952ba7f163c4a11628f55a4df523b3ef92602092855f525f84520360405f2055845f525f825260405f20818154019055604051908152a3565b60405162461bcd60e51b815260206004820152602660248201527f45524332303a207472616e7366657220616d6f756e7420657863656564732062604482015265616c616e636560d01b6064820152608490fd5b60405162461bcd60e51b815260206004820152602360248201527f45524332303a207472616e7366657220746f20746865207a65726f206164647260448201526265737360e81b6064820152608490fd5b60405162461bcd60e51b815260206004820152602560248201527f45524332303a207472616e736665722066726f6d20746865207a65726f206164604482015264647265737360d81b6064820152608490fdfea2646970667358221220d8b693926adcb4df50335d8444e8eb48610632f75de40a2b8b4d2724b2d4711464736f6c634300081c0033","linkReferences":{}},"methodIdentifiers":{"_deployer()":"d310556b","allowance(address,address)":"dd62ed3e","approve(address,uint256)":"095ea7b3","balanceOf(address)":"70a08231","burn(address,uint256)":"9dc29fac","decimals()":"313ce567","decreaseAllowance(address,uint256)":"a457c2d7","increaseAllowance(address,uint256)":"39509351","mintTokenToTreasury(uint256)":"20294888","name()":"06fdde03","setAdmin(address)":"704b6c02","setTreasuryAddress(address)":"6605bfda","symbol()":"95d89b41","totalSupply()":"18160ddd","transfer(address,uint256)":"a9059cbb","transferFrom(address,address,uint256)":"23b872dd"},"id":4}