{
  "_format": "hh-sol-artifact-1",
  "contractName": "CLOBFacet",
  "sourceName": "contracts/diamond/facets/CLOBFacet.sol",
  "abi": [
    {
      "inputs": [],
      "name": "InvalidInitialization",
      "type": "error"
    },
    {
      "inputs": [],
      "name": "NotInitializing",
      "type": "error"
    },
    {
      "anonymous": false,
      "inputs": [
        {
          "indexed": true,
          "internalType": "bytes32",
          "name": "tradeId",
          "type": "bytes32"
        },
        {
          "indexed": false,
          "internalType": "uint256",
          "name": "takerFeeAmount",
          "type": "uint256"
        },
        {
          "indexed": false,
          "internalType": "uint256",
          "name": "makerFeeAmount",
          "type": "uint256"
        },
        {
          "indexed": false,
          "internalType": "uint256",
          "name": "lpFeeAmount",
          "type": "uint256"
        }
      ],
      "name": "FeesCollected",
      "type": "event"
    },
    {
      "anonymous": false,
      "inputs": [
        {
          "indexed": false,
          "internalType": "uint64",
          "name": "version",
          "type": "uint64"
        }
      ],
      "name": "Initialized",
      "type": "event"
    },
    {
      "anonymous": false,
      "inputs": [
        {
          "indexed": true,
          "internalType": "bytes32",
          "name": "poolId",
          "type": "bytes32"
        },
        {
          "indexed": true,
          "internalType": "address",
          "name": "provider",
          "type": "address"
        },
        {
          "indexed": false,
          "internalType": "uint256",
          "name": "baseAmount",
          "type": "uint256"
        },
        {
          "indexed": false,
          "internalType": "uint256",
          "name": "quoteAmount",
          "type": "uint256"
        },
        {
          "indexed": false,
          "internalType": "uint256",
          "name": "lpTokensMinted",
          "type": "uint256"
        }
      ],
      "name": "LiquidityAdded",
      "type": "event"
    },
    {
      "anonymous": false,
      "inputs": [
        {
          "indexed": true,
          "internalType": "bytes32",
          "name": "poolId",
          "type": "bytes32"
        },
        {
          "indexed": true,
          "internalType": "address",
          "name": "provider",
          "type": "address"
        },
        {
          "indexed": false,
          "internalType": "uint256",
          "name": "baseAmount",
          "type": "uint256"
        },
        {
          "indexed": false,
          "internalType": "uint256",
          "name": "quoteAmount",
          "type": "uint256"
        },
        {
          "indexed": false,
          "internalType": "uint256",
          "name": "lpTokensBurned",
          "type": "uint256"
        }
      ],
      "name": "LiquidityRemoved",
      "type": "event"
    },
    {
      "anonymous": false,
      "inputs": [
        {
          "indexed": true,
          "internalType": "bytes32",
          "name": "orderId",
          "type": "bytes32"
        },
        {
          "indexed": true,
          "internalType": "address",
          "name": "maker",
          "type": "address"
        },
        {
          "indexed": false,
          "internalType": "uint256",
          "name": "remainingAmount",
          "type": "uint256"
        }
      ],
      "name": "OrderCancelled",
      "type": "event"
    },
    {
      "anonymous": false,
      "inputs": [
        {
          "indexed": true,
          "internalType": "bytes32",
          "name": "takerOrderId",
          "type": "bytes32"
        },
        {
          "indexed": true,
          "internalType": "bytes32",
          "name": "makerOrderId",
          "type": "bytes32"
        },
        {
          "indexed": true,
          "internalType": "bytes32",
          "name": "tradeId",
          "type": "bytes32"
        },
        {
          "indexed": false,
          "internalType": "uint256",
          "name": "fillAmount",
          "type": "uint256"
        },
        {
          "indexed": false,
          "internalType": "uint256",
          "name": "fillPrice",
          "type": "uint256"
        },
        {
          "indexed": false,
          "internalType": "uint256",
          "name": "quoteAmount",
          "type": "uint256"
        }
      ],
      "name": "OrderMatched",
      "type": "event"
    },
    {
      "anonymous": false,
      "inputs": [
        {
          "indexed": true,
          "internalType": "bytes32",
          "name": "orderId",
          "type": "bytes32"
        },
        {
          "indexed": true,
          "internalType": "address",
          "name": "maker",
          "type": "address"
        },
        {
          "indexed": true,
          "internalType": "bytes32",
          "name": "marketId",
          "type": "bytes32"
        },
        {
          "indexed": false,
          "internalType": "uint256",
          "name": "price",
          "type": "uint256"
        },
        {
          "indexed": false,
          "internalType": "uint256",
          "name": "amount",
          "type": "uint256"
        },
        {
          "indexed": false,
          "internalType": "bool",
          "name": "isBuy",
          "type": "bool"
        },
        {
          "indexed": false,
          "internalType": "uint8",
          "name": "orderType",
          "type": "uint8"
        }
      ],
      "name": "OrderPlaced",
      "type": "event"
    },
    {
      "anonymous": false,
      "inputs": [
        {
          "indexed": true,
          "internalType": "bytes32",
          "name": "poolId",
          "type": "bytes32"
        },
        {
          "indexed": false,
          "internalType": "string",
          "name": "baseToken",
          "type": "string"
        },
        {
          "indexed": false,
          "internalType": "uint256",
          "name": "baseTokenId",
          "type": "uint256"
        },
        {
          "indexed": false,
          "internalType": "string",
          "name": "quoteToken",
          "type": "string"
        }
      ],
      "name": "PoolCreated",
      "type": "event"
    },
    {
      "anonymous": false,
      "inputs": [
        {
          "indexed": true,
          "internalType": "bytes32",
          "name": "tradeId",
          "type": "bytes32"
        },
        {
          "indexed": true,
          "internalType": "address",
          "name": "taker",
          "type": "address"
        },
        {
          "indexed": true,
          "internalType": "address",
          "name": "maker",
          "type": "address"
        },
        {
          "indexed": false,
          "internalType": "bytes32",
          "name": "marketId",
          "type": "bytes32"
        },
        {
          "indexed": false,
          "internalType": "uint256",
          "name": "price",
          "type": "uint256"
        },
        {
          "indexed": false,
          "internalType": "uint256",
          "name": "amount",
          "type": "uint256"
        },
        {
          "indexed": false,
          "internalType": "uint256",
          "name": "quoteAmount",
          "type": "uint256"
        },
        {
          "indexed": false,
          "internalType": "uint256",
          "name": "timestamp",
          "type": "uint256"
        }
      ],
      "name": "TradeExecuted",
      "type": "event"
    },
    {
      "inputs": [],
      "name": "LP_FEE",
      "outputs": [
        {
          "internalType": "uint8",
          "name": "",
          "type": "uint8"
        }
      ],
      "stateMutability": "view",
      "type": "function"
    },
    {
      "inputs": [],
      "name": "MAKER_FEE",
      "outputs": [
        {
          "internalType": "uint8",
          "name": "",
          "type": "uint8"
        }
      ],
      "stateMutability": "view",
      "type": "function"
    },
    {
      "inputs": [],
      "name": "TAKER_FEE",
      "outputs": [
        {
          "internalType": "uint8",
          "name": "",
          "type": "uint8"
        }
      ],
      "stateMutability": "view",
      "type": "function"
    },
    {
      "inputs": [
        {
          "internalType": "bytes32",
          "name": "_orderId",
          "type": "bytes32"
        }
      ],
      "name": "cancelOrder",
      "outputs": [],
      "stateMutability": "nonpayable",
      "type": "function"
    },
    {
      "inputs": [
        {
          "internalType": "string",
          "name": "_baseToken",
          "type": "string"
        },
        {
          "internalType": "uint256",
          "name": "_baseTokenId",
          "type": "uint256"
        },
        {
          "internalType": "string",
          "name": "_quoteToken",
          "type": "string"
        }
      ],
      "name": "createMarket",
      "outputs": [
        {
          "internalType": "bytes32",
          "name": "marketId",
          "type": "bytes32"
        }
      ],
      "stateMutability": "nonpayable",
      "type": "function"
    },
    {
      "inputs": [
        {
          "internalType": "string",
          "name": "_baseToken",
          "type": "string"
        },
        {
          "internalType": "uint256",
          "name": "_baseTokenId",
          "type": "uint256"
        },
        {
          "internalType": "string",
          "name": "_quoteToken",
          "type": "string"
        },
        {
          "internalType": "uint256",
          "name": "_baseAmount",
          "type": "uint256"
        },
        {
          "internalType": "uint256",
          "name": "_quoteAmount",
          "type": "uint256"
        }
      ],
      "name": "createPool",
      "outputs": [
        {
          "internalType": "bytes32",
          "name": "poolId",
          "type": "bytes32"
        },
        {
          "internalType": "uint256",
          "name": "lpTokens",
          "type": "uint256"
        }
      ],
      "stateMutability": "nonpayable",
      "type": "function"
    },
    {
      "inputs": [
        {
          "internalType": "bytes32",
          "name": "_marketId",
          "type": "bytes32"
        }
      ],
      "name": "getMarket",
      "outputs": [
        {
          "internalType": "string",
          "name": "baseToken",
          "type": "string"
        },
        {
          "internalType": "uint256",
          "name": "baseTokenId",
          "type": "uint256"
        },
        {
          "internalType": "string",
          "name": "quoteToken",
          "type": "string"
        },
        {
          "internalType": "bool",
          "name": "active",
          "type": "bool"
        }
      ],
      "stateMutability": "view",
      "type": "function"
    },
    {
      "inputs": [
        {
          "internalType": "bytes32",
          "name": "_orderId",
          "type": "bytes32"
        }
      ],
      "name": "getOrder",
      "outputs": [
        {
          "internalType": "address",
          "name": "maker",
          "type": "address"
        },
        {
          "internalType": "bytes32",
          "name": "marketId",
          "type": "bytes32"
        },
        {
          "internalType": "uint256",
          "name": "price",
          "type": "uint256"
        },
        {
          "internalType": "uint256",
          "name": "amount",
          "type": "uint256"
        },
        {
          "internalType": "uint256",
          "name": "filledAmount",
          "type": "uint256"
        },
        {
          "internalType": "bool",
          "name": "isBuy",
          "type": "bool"
        },
        {
          "internalType": "uint8",
          "name": "orderType",
          "type": "uint8"
        },
        {
          "internalType": "uint8",
          "name": "status",
          "type": "uint8"
        },
        {
          "internalType": "uint256",
          "name": "createdAt",
          "type": "uint256"
        },
        {
          "internalType": "uint256",
          "name": "updatedAt",
          "type": "uint256"
        }
      ],
      "stateMutability": "view",
      "type": "function"
    },
    {
      "inputs": [
        {
          "internalType": "bytes32",
          "name": "_poolId",
          "type": "bytes32"
        }
      ],
      "name": "getPool",
      "outputs": [
        {
          "internalType": "string",
          "name": "baseToken",
          "type": "string"
        },
        {
          "internalType": "uint256",
          "name": "baseTokenId",
          "type": "uint256"
        },
        {
          "internalType": "string",
          "name": "quoteToken",
          "type": "string"
        },
        {
          "internalType": "uint256",
          "name": "baseReserve",
          "type": "uint256"
        },
        {
          "internalType": "uint256",
          "name": "quoteReserve",
          "type": "uint256"
        },
        {
          "internalType": "uint256",
          "name": "totalLpTokens",
          "type": "uint256"
        },
        {
          "internalType": "bool",
          "name": "isActive",
          "type": "bool"
        }
      ],
      "stateMutability": "view",
      "type": "function"
    },
    {
      "inputs": [],
      "name": "getTotalMarkets",
      "outputs": [
        {
          "internalType": "uint256",
          "name": "",
          "type": "uint256"
        }
      ],
      "stateMutability": "view",
      "type": "function"
    },
    {
      "inputs": [],
      "name": "getTotalTrades",
      "outputs": [
        {
          "internalType": "uint256",
          "name": "",
          "type": "uint256"
        }
      ],
      "stateMutability": "view",
      "type": "function"
    },
    {
      "inputs": [
        {
          "internalType": "bytes32",
          "name": "_tradeId",
          "type": "bytes32"
        }
      ],
      "name": "getTrade",
      "outputs": [
        {
          "internalType": "bytes32",
          "name": "takerOrderId",
          "type": "bytes32"
        },
        {
          "internalType": "bytes32",
          "name": "makerOrderId",
          "type": "bytes32"
        },
        {
          "internalType": "address",
          "name": "taker",
          "type": "address"
        },
        {
          "internalType": "address",
          "name": "maker",
          "type": "address"
        },
        {
          "internalType": "bytes32",
          "name": "marketId",
          "type": "bytes32"
        },
        {
          "internalType": "uint256",
          "name": "price",
          "type": "uint256"
        },
        {
          "internalType": "uint256",
          "name": "amount",
          "type": "uint256"
        },
        {
          "internalType": "uint256",
          "name": "quoteAmount",
          "type": "uint256"
        },
        {
          "internalType": "uint256",
          "name": "timestamp",
          "type": "uint256"
        }
      ],
      "stateMutability": "view",
      "type": "function"
    },
    {
      "inputs": [],
      "name": "initialize",
      "outputs": [],
      "stateMutability": "nonpayable",
      "type": "function"
    },
    {
      "inputs": [
        {
          "internalType": "bytes32",
          "name": "_marketId",
          "type": "bytes32"
        },
        {
          "internalType": "uint256",
          "name": "_price",
          "type": "uint256"
        },
        {
          "internalType": "uint256",
          "name": "_amount",
          "type": "uint256"
        },
        {
          "internalType": "bool",
          "name": "_isBuy",
          "type": "bool"
        },
        {
          "internalType": "uint8",
          "name": "_orderType",
          "type": "uint8"
        }
      ],
      "name": "placeOrder",
      "outputs": [
        {
          "internalType": "bytes32",
          "name": "orderId",
          "type": "bytes32"
        }
      ],
      "stateMutability": "nonpayable",
      "type": "function"
    }
  ],
  "bytecode": "0x60808060405234601557611e6c908161001b8239f35b600080fdfe6080604052600436101561001257600080fd5b60003560e01c80632b3e88261461158b5780635778472a146114e05780635e3f27271461023e5780637489ec23146113895780638129fc1c1461125757806381ebf2091461121a5780638707e0311461090b5780639fa5bc24146108ef578063a3b137991461083c578063b3d29d4214610243578063b537889c1461023e578063c3c95c7b146101b4578063ebd34f50146101775763f6c00927146100b657600080fd5b34610172576020366003190112610172576004356000527f31c1f8402397e5b1e3d75f3da7207ce6f54556b27afe723742768c4e4be50d0d60205261014460406000206001810154600382015490600483015460058401549061015760ff60068701541693610130600261012989611ca7565b9801611ca7565b60405198899860e08a5260e08a0190611ba9565b9160208901528782036040890152611ba9565b936060860152608085015260a0840152151560c08301520390f35b600080fd5b346101725760003660031901126101725760207f31c1f8402397e5b1e3d75f3da7207ce6f54556b27afe723742768c4e4be50d0c54604051908152f35b3461017257602036600319011261017257600435600052600080516020611db783398151915260205261021f6040600020600181015461023260ff6003840154169161020b600261020486611ca7565b9501611ca7565b604051958695608087526080870190611ba9565b9160208601528482036040860152611ba9565b90151560608301520390f35b611b6a565b346101725760a0366003190112610172576004356001600160401b03811161017257610273903690600401611b14565b6024356044356001600160401b03811161017257610295903690600401611b14565b916064356084359360405160208101906102f3601460208381806102bf8b89815193849201611b86565b82018b828201528851906102d98260408301858d01611b86565b01013360601b838201520301600b19810184520182611af3565b51902093846000527f31c1f8402397e5b1e3d75f3da7207ce6f54556b27afe723742768c4e4be50d0d60205260ff6006604060002001541661080157821515806107f8575b156107c15761034f61034a8785611c94565b611d58565b9360405161010081018181106001600160401b0382111761062357604052818152602081018381526040820185815260608301878152608084018b815260a08501918a835260c08601936001855260e08701954287528d6000527f31c1f8402397e5b1e3d75f3da7207ce6f54556b27afe723742768c4e4be50d0d602052604060002097518051906001600160401b0382116106235781906103f18b54611bce565b601f811161076e575b50602090601f8311600114610709576000926106fe575b50508160011b916000199060031b1c19161788555b51600188015551805160028801916001600160401b0382116106235761044c8354611bce565b601f81116106b6575b50602090601f8311600114610644579180600799989694926104ba989694600092610639575b50508160011b916000199060031b1c19161790555b516003880155516004870155516005860155511515600685019060ff801983541691151516179055565b519101557f31c1f8402397e5b1e3d75f3da7207ce6f54556b27afe723742768c4e4be50d0e5496600160401b88101561062357867fae3c8890c4e9dbaae94d48a008582ed84daf62eb392009391b821fe41fc48b827f9c8e2178a53b464e8c6d21c6d0d1f5189e5d2f6f6a79237ba611cf996a6e6b329488946105ff8498856105a660409f80600161058f92017f31c1f8402397e5b1e3d75f3da7207ce6f54556b27afe723742768c4e4be50d0e557f31c1f8402397e5b1e3d75f3da7207ce6f54556b27afe723742768c4e4be50d0e611c08565b819391549060031b91821b91600019901b19161790565b90556105d27f31c1f8402397e5b1e3d75f3da7207ce6f54556b27afe723742768c4e4be50d0f54611c36565b7f31c1f8402397e5b1e3d75f3da7207ce6f54556b27afe723742768c4e4be50d0f558d5193849384611c5b565b0390a28751948552602085015260408401523392606090a382519182526020820152f35b634e487b7160e01b600052604160045260246000fd5b01519050388061047b565b90601f1983169184600052816000209260005b81811061069e57509260019285926104ba9a989660079d9c9a989610610685575b505050811b019055610490565b015160001960f88460031b161c19169055388080610678565b92936020600181928786015181550195019301610657565b836000526020600020601f840160051c810191602085106106f4575b601f0160051c01905b8181106106e85750610455565b600081556001016106db565b90915081906106d2565b015190503880610411565b60008c81528281209350601f198516905b818110610756575090846001959493921061073d575b505050811b018855610426565b015160001960f88460031b161c19169055388080610730565b9293602060018192878601518155019501930161071a565b9091508a6000526020600020601f840160051c810191602085106107b7575b90601f859493920160051c01905b8181106107a857506103fa565b6000815584935060010161079b565b909150819061078d565b60405162461bcd60e51b815260206004820152600f60248201526e496e76616c696420616d6f756e747360881b6044820152606490fd5b50851515610338565b60405162461bcd60e51b8152602060048201526013602482015272506f6f6c20616c72656164792065786973747360681b6044820152606490fd5b34610172576020366003190112610172576004356000527f31c1f8402397e5b1e3d75f3da7207ce6f54556b27afe723742768c4e4be50d0a602052610120604060002080549060018101549060018060a01b0360028201541660018060a01b0360038301541660048301546005840154916006850154936008600787015496015496604051988952602089015260408801526060870152608086015260a085015260c084015260e0830152610100820152f35b34610172576000366003190112610172576020604051600a8152f35b346101725760a03660031901126101725760243560443590606435801515809103610172576084359060ff82169182810361017257600435600052600080516020611db783398151915260205260ff60036040600020015416156111e157831515806111d8575b156111a25760405160208101913360601b835260043560348301528560548301528660748301528360f81b609483015260ff60f81b9060f81b166095820152426096820152609681526109c660b682611af3565b519020936040516109d681611ad7565b33815260078660208301600435815260408401888152606085019086825260808601916000835260a087019289845260c08801918b835260e0890193600085526101008a01964288526101208b0198428a52600052600080516020611df783398151915260205260406000209a60018060a01b039060018060a01b03905116166bffffffffffffffffffffffff60a01b8c5416178b555160018b01555160028a0155516003890155516004880155610aa16005880193511515849060ff801983541691151516179055565b518254915162ffff001990921660089190911b61ff00161760109190911b62ff00001617905551600684015551910155600080516020611dd783398151915254600160401b81101561062357610b1d61058f826001899401600080516020611dd783398151915255600080516020611dd7833981519152611c08565b9055610b497f31c1f8402397e5b1e3d75f3da7207ce6f54556b27afe723742768c4e4be50d0954611c36565b7f31c1f8402397e5b1e3d75f3da7207ce6f54556b27afe723742768c4e4be50d095560405193845260208401526040830152606082015260043590827ff16cef2837371bf450ee6f4ed3c65f78b4ecefce218085fe4786b3253fddabb260803393a480600052600080516020611df783398151915260205260406000209060ff600583015460101c168015908115611197575b501561115c57600382015491610bf86004820193845490611c87565b6000905b600080516020611dd783398151915254821080611153575b15611148576000600080516020611dd78339815191525483101561113457602081600080516020611dd7833981519152859352200160009054808252600080516020611df78339815191526020526040822092600584015460ff8160101c168015159081611128575b506110f8576004356001860154036110f85760ff60058801541680159160ff831591161515146111185780611107575b6110f857806110e7575b6110d957610cce6003850154600486015490611c87565b808210156110d15750915b604051602081019088825283604082015242606082015260608152610cff608082611af3565b5190209260028701549188600986610d178686611c94565b9560018060a01b038c541660018060a01b038b541660405195610d3987611ad7565b865260208087018b81526040808901948552606089019384526004803560808b0190815260a08b0197885260c08b018d815260e08c018f8152426101008e018181526101208f019182529b8f527f31c1f8402397e5b1e3d75f3da7207ce6f54556b27afe723742768c4e4be50d0a909752938d209b518c55935160018c0155955160028b0180546001600160a01b03199081166001600160a01b0393841617909155955160038c0180549097169116179094559351928801929092559251600587015551600686015551600785015590516008840155519101557f31c1f8402397e5b1e3d75f3da7207ce6f54556b27afe723742768c4e4be50d0b54600160401b8110156110bd57610e9561058f8260018994017f31c1f8402397e5b1e3d75f3da7207ce6f54556b27afe723742768c4e4be50d0b557f31c1f8402397e5b1e3d75f3da7207ce6f54556b27afe723742768c4e4be50d0b611c08565b9055610ec17f31c1f8402397e5b1e3d75f3da7207ce6f54556b27afe723742768c4e4be50d0c54611c36565b7f31c1f8402397e5b1e3d75f3da7207ce6f54556b27afe723742768c4e4be50d0c55610eee828b54611d4b565b8a55426007890155610f04826004880154611d4b565b6004870155426007870155600a8302908315848304600a148117156110a957600585029085820460051417156110a9577ff2157d9acd14e67f414f1635f8643fa9628b9dc99ddf69358510bb7d2045c92660608c96947f26e28f7ff914ff6e5bb6c995fdb96ff95d3e3eb88e9b9b09569385d3793fc32396946127108b9581604051940484520460208301526040820152a261101660018060a01b038a54169260018060a01b0389541660028c015494897f151dd1a21f8b1826f07b17c2d919dcf5aed1a460a8dfff507f10f2ffe599696d60a06040516004358152896020820152886040820152866060820152426080820152a4604051938493846040919493926060820195825260208201520152565b0390a484546003840154116110915760058301805462ff00001916620200001790555b600481015460038201541161107a57600501805462ff00001916620200001790555b61107461106e6003840154865490611c87565b91611c36565b90610bfc565b600501805462ff000019166201000017905561105b565b60058301805462ff0000191662010000179055611039565b634e487b7160e01b82526011600452602482fd5b634e487b7160e01b82526041600452602482fd5b905091610cd9565b939150506110749150611c36565b506002840154600287015411610cb7565b50939150506110749150611c36565b506002850154600288015410610cad565b5050939150506110749150611c36565b6001915014158a610c7d565b634e487b7160e01b81526032600452602490fd5b602084604051908152f35b50801515610c14565b60405162461bcd60e51b81526020600482015260136024820152724f72646572206e6f74206d6174636861626c6560681b6044820152606490fd5b600191501483610bdc565b60405162461bcd60e51b815260206004820152600e60248201526d496e76616c696420706172616d7360901b6044820152606490fd5b50841515610972565b60405162461bcd60e51b81526020600482015260116024820152704d61726b6574206e6f742061637469766560781b6044820152606490fd5b346101725760003660031901126101725760207f31c1f8402397e5b1e3d75f3da7207ce6f54556b27afe723742768c4e4be50d0654604051908152f35b3461017257600036600319011261017257600080516020611e178339815191525460ff8160401c1615906001600160401b03811680159081611381575b6001149081611377575b15908161136e575b5061135d5767ffffffffffffffff198116600117600080516020611e178339815191525581611330575b506112d757005b68ff000000000000000019600080516020611e178339815191525416600080516020611e17833981519152557fc7f505b2f371ae2175ee4913f4499e1f2633a7b5936321eed1cdaeb6115181d2602060405160018152a1005b68ffffffffffffffffff19166801000000000000000117600080516020611e1783398151915255816112d0565b63f92ee8a960e01b60005260046000fd5b905015836112a6565b303b15915061129e565b839150611294565b34610172576020366003190112610172576004356000818152600080516020611df783398151915260205260409020546001600160a01b031633036114a55780600052600080516020611df783398151915260205260ff60056040600020015460101c16611468576000818152600080516020611df78339815191526020526040902060058101805462ff0000191662030000179055426007820155600381015460049091015461143991611c87565b906040519182527fb2705df32ac67fc3101f496cd7036bf59074a603544d97d73650b6f09744986a60203393a3005b60405162461bcd60e51b81526020600482015260156024820152744f72646572206e6f742063616e63656c6c61626c6560581b6044820152606490fd5b60405162461bcd60e51b81526020600482015260136024820152722737ba103a34329037b93232b91036b0b5b2b960691b6044820152606490fd5b3461017257602036600319011261017257600435600052600080516020611df7833981519152602052610140604060002060018060a01b038154169060018101549060ff6002820154600383015460048401549060058501549260076006870154960154966040519889526020890152604088015260608701526080860152818116151560a0860152818160081c1660c086015260101c1660e0840152610100830152610120820152f35b34610172576060366003190112610172576004356001600160401b038111610172576115bb903690600401611b14565b6024356044356001600160401b038111610172576115dd903690600401611b14565b7fc8fcad8db84d3cc18b4c41d551ea0ee66dd599cde068d998e57d5e09332c131f549091906001600160a01b03163303611a8757604051602081019061165a60208281885161162f8188848d01611b86565b820187828201528851906116498260408301858d01611b86565b01010301601f198101835282611af3565b5190209182600052600080516020611db783398151915260205260ff60036040600020015416611a4a5760405160a081018181106001600160401b03821117610623576040528481526020810183815260408201838152606083019060018252608084019242845287600052600080516020611db7833981519152602052604060002094518051906001600160401b0382116106235781906116fc8854611bce565b601f81116119f7575b50602090601f831160011461199257600092611987575b50508160011b916000199060031b1c19161785555b51600185015551805160028501916001600160401b038211610623576117578354611bce565b601f811161193f575b50602090601f83116001146118d05791806117b0949260049796946000926118c5575b50508160011b916000199060031b1c19161790555b511515600385019060ff801983541691151516179055565b519101557f31c1f8402397e5b1e3d75f3da7207ce6f54556b27afe723742768c4e4be50d055491600160401b831015610623576020946118ba7fae3c8890c4e9dbaae94d48a008582ed84daf62eb392009391b821fe41fc48b82938661186061058f886001849a017f31c1f8402397e5b1e3d75f3da7207ce6f54556b27afe723742768c4e4be50d05557f31c1f8402397e5b1e3d75f3da7207ce6f54556b27afe723742768c4e4be50d05611c08565b905561188c7f31c1f8402397e5b1e3d75f3da7207ce6f54556b27afe723742768c4e4be50d0654611c36565b7f31c1f8402397e5b1e3d75f3da7207ce6f54556b27afe723742768c4e4be50d065560405193849384611c5b565b0390a2604051908152f35b015190508c80611783565b90601f1983169184600052816000209260005b818110611927575092600192859260049998966117b098961061190e575b505050811b019055611798565b015160001960f88460031b161c191690558c8080611901565b929360206001819287860151815501950193016118e3565b836000526020600020601f840160051c8101916020851061197d575b601f0160051c01905b8181106119715750611760565b60008155600101611964565b909150819061195b565b015190508b8061171c565b60008981528281209350601f198516905b8181106119df57509084600195949392106119c6575b505050811b018555611731565b015160001960f88460031b161c191690558b80806119b9565b929360206001819287860151815501950193016119a3565b909150876000526020600020601f840160051c81019160208510611a40575b90601f859493920160051c01905b818110611a315750611705565b60008155849350600101611a24565b9091508190611a16565b60405162461bcd60e51b81526020600482015260156024820152744d61726b657420616c72656164792065786973747360581b6044820152606490fd5b60405162461bcd60e51b815260206004820152602260248201527f4c69624469616d6f6e643a204d75737420626520636f6e7472616374206f776e60448201526132b960f11b6064820152608490fd5b61014081019081106001600160401b0382111761062357604052565b90601f801991011681019081106001600160401b0382111761062357604052565b81601f82011215610172578035906001600160401b0382116106235760405192611b48601f8401601f191660200185611af3565b8284526020838301011161017257816000926020809301838601378301015290565b3461017257600036600319011261017257602060405160058152f35b60005b838110611b995750506000910152565b8181015183820152602001611b89565b90602091611bc281518092818552858086019101611b86565b601f01601f1916010190565b90600182811c92168015611bfe575b6020831014611be857565b634e487b7160e01b600052602260045260246000fd5b91607f1691611bdd565b8054821015611c205760005260206000200190600090565b634e487b7160e01b600052603260045260246000fd5b6000198114611c455760010190565b634e487b7160e01b600052601160045260246000fd5b611c71611c849492606083526060830190611ba9565b9260208201526040818403910152611ba9565b90565b91908203918211611c4557565b81810292918115918404141715611c4557565b9060405191826000825492611cbb84611bce565b8084529360018116908115611d295750600114611ce2575b50611ce092500383611af3565b565b90506000929192526020600020906000915b818310611d0d575050906020611ce09282010138611cd3565b6020919350806001915483858901015201910190918492611cf4565b905060209250611ce094915060ff191682840152151560051b82010138611cd3565b91908201809211611c4557565b8015611db05760018101808211611c455760011c815b828210611d7a57505090565b9091508160008115611d9c575080611d93918304611d4b565b60011c90611d6e565b634e487b7160e01b81526012600452602490fd5b5060009056fe31c1f8402397e5b1e3d75f3da7207ce6f54556b27afe723742768c4e4be50d0431c1f8402397e5b1e3d75f3da7207ce6f54556b27afe723742768c4e4be50d0831c1f8402397e5b1e3d75f3da7207ce6f54556b27afe723742768c4e4be50d07f0c57e16840df040f15088dc2f81fe391c3923bec73e23a9662efc9c229c6a00a2646970667358221220af95a4fcfcbec6fc9ec6bc558246b58a401877bd03ce165eed520f6d74b5f6ba64736f6c634300081c0033",
  "linkReferences": {},
  "deployedLinkReferences": {}
}