{"abi":[{"type":"constructor","inputs":[{"name":"_projectWallet","type":"address","internalType":"address payable"},{"name":"initialOwner","type":"address","internalType":"address"}],"stateMutability":"nonpayable"},{"type":"function","name":"activeOperations","inputs":[{"name":"","type":"uint256","internalType":"uint256"}],"outputs":[{"name":"","type":"bytes32","internalType":"bytes32"}],"stateMutability":"view"},{"type":"function","name":"admins","inputs":[{"name":"","type":"address","internalType":"address"}],"outputs":[{"name":"","type":"bool","internalType":"bool"}],"stateMutability":"view"},{"type":"function","name":"burn","inputs":[{"name":"token","type":"address","internalType":"address"},{"name":"user","type":"address","internalType":"address"},{"name":"operationId","type":"bytes32","internalType":"bytes32"}],"outputs":[],"stateMutability":"nonpayable"},{"type":"function","name":"claimReward","inputs":[{"name":"token","type":"address","internalType":"address"},{"name":"operationId","type":"bytes32","internalType":"bytes32"},{"name":"user","type":"address","internalType":"address"}],"outputs":[],"stateMutability":"nonpayable"},{"type":"function","name":"createOperation","inputs":[{"name":"name","type":"string","internalType":"string"},{"name":"description","type":"string","internalType":"string"},{"name":"token","type":"address","internalType":"address"},{"name":"provider","type":"address","internalType":"address"},{"name":"deadline","type":"uint256","internalType":"uint256"},{"name":"reward","type":"uint256","internalType":"uint256"},{"name":"rwaName","type":"string","internalType":"string"},{"name":"fundingGoal","type":"uint256","internalType":"uint256"},{"name":"assetPrice","type":"uint256","internalType":"uint256"}],"outputs":[{"name":"","type":"bytes32","internalType":"bytes32"}],"stateMutability":"nonpayable"},{"type":"function","name":"getOperation","inputs":[{"name":"id","type":"bytes32","internalType":"bytes32"}],"outputs":[{"name":"operation","type":"tuple","internalType":"struct AuStake.Operation","components":[{"name":"id","type":"bytes32","internalType":"bytes32"},{"name":"name","type":"string","internalType":"string"},{"name":"description","type":"string","internalType":"string"},{"name":"token","type":"address","internalType":"address"},{"name":"provider","type":"address","internalType":"address"},{"name":"deadline","type":"uint256","internalType":"uint256"},{"name":"startDate","type":"uint256","internalType":"uint256"},{"name":"rwaName","type":"string","internalType":"string"},{"name":"reward","type":"uint256","internalType":"uint256"},{"name":"tokenTvl","type":"uint256","internalType":"uint256"},{"name":"operationStatus","type":"uint8","internalType":"enum AuStake.OperationStatus"},{"name":"fundingGoal","type":"uint256","internalType":"uint256"},{"name":"assetPrice","type":"uint256","internalType":"uint256"}]}],"stateMutability":"view"},{"type":"function","name":"idToOperation","inputs":[{"name":"","type":"bytes32","internalType":"bytes32"}],"outputs":[{"name":"id","type":"bytes32","internalType":"bytes32"},{"name":"name","type":"string","internalType":"string"},{"name":"description","type":"string","internalType":"string"},{"name":"token","type":"address","internalType":"address"},{"name":"provider","type":"address","internalType":"address"},{"name":"deadline","type":"uint256","internalType":"uint256"},{"name":"startDate","type":"uint256","internalType":"uint256"},{"name":"rwaName","type":"string","internalType":"string"},{"name":"reward","type":"uint256","internalType":"uint256"},{"name":"tokenTvl","type":"uint256","internalType":"uint256"},{"name":"operationStatus","type":"uint8","internalType":"enum AuStake.OperationStatus"},{"name":"fundingGoal","type":"uint256","internalType":"uint256"},{"name":"assetPrice","type":"uint256","internalType":"uint256"}],"stateMutability":"view"},{"type":"function","name":"lockPeriod","inputs":[],"outputs":[{"name":"","type":"uint256","internalType":"uint256"}],"stateMutability":"view"},{"type":"function","name":"operationStakes","inputs":[{"name":"","type":"bytes32","internalType":"bytes32"},{"name":"","type":"address","internalType":"address"}],"outputs":[{"name":"amount","type":"uint256","internalType":"uint256"},{"name":"timestamp","type":"uint256","internalType":"uint256"},{"name":"isActive","type":"bool","internalType":"bool"}],"stateMutability":"view"},{"type":"function","name":"owner","inputs":[],"outputs":[{"name":"","type":"address","internalType":"address"}],"stateMutability":"view"},{"type":"function","name":"projectWallet","inputs":[],"outputs":[{"name":"","type":"address","internalType":"address payable"}],"stateMutability":"view"},{"type":"function","name":"providerToOperationIds","inputs":[{"name":"","type":"address","internalType":"address"},{"name":"","type":"uint256","internalType":"uint256"}],"outputs":[{"name":"","type":"bytes32","internalType":"bytes32"}],"stateMutability":"view"},{"type":"function","name":"renounceOwnership","inputs":[],"outputs":[],"stateMutability":"nonpayable"},{"type":"function","name":"setAdmin","inputs":[{"name":"user","type":"address","internalType":"address"},{"name":"status","type":"bool","internalType":"bool"}],"outputs":[],"stateMutability":"nonpayable"},{"type":"function","name":"setLockPeriod","inputs":[{"name":"_lockPeriod","type":"uint256","internalType":"uint256"}],"outputs":[],"stateMutability":"nonpayable"},{"type":"function","name":"setOperationReward","inputs":[{"name":"id","type":"bytes32","internalType":"bytes32"},{"name":"amount","type":"uint256","internalType":"uint256"}],"outputs":[],"stateMutability":"nonpayable"},{"type":"function","name":"setProjectWallet","inputs":[{"name":"_projectWallet","type":"address","internalType":"address payable"}],"outputs":[],"stateMutability":"nonpayable"},{"type":"function","name":"stake","inputs":[{"name":"token","type":"address","internalType":"address"},{"name":"operationId","type":"bytes32","internalType":"bytes32"},{"name":"amount","type":"uint256","internalType":"uint256"}],"outputs":[],"stateMutability":"nonpayable"},{"type":"function","name":"stakes","inputs":[{"name":"","type":"address","internalType":"address"},{"name":"","type":"address","internalType":"address"}],"outputs":[{"name":"amount","type":"uint256","internalType":"uint256"},{"name":"timestamp","type":"uint256","internalType":"uint256"},{"name":"isActive","type":"bool","internalType":"bool"}],"stateMutability":"view"},{"type":"function","name":"tokenToOperationIds","inputs":[{"name":"","type":"address","internalType":"address"}],"outputs":[{"name":"","type":"bytes32","internalType":"bytes32"}],"stateMutability":"view"},{"type":"function","name":"tokenTvl","inputs":[{"name":"","type":"address","internalType":"address"}],"outputs":[{"name":"","type":"uint256","internalType":"uint256"}],"stateMutability":"view"},{"type":"function","name":"transferOwnership","inputs":[{"name":"newOwner","type":"address","internalType":"address"}],"outputs":[],"stateMutability":"nonpayable"},{"type":"function","name":"unlockReward","inputs":[{"name":"token","type":"address","internalType":"address"},{"name":"operationId","type":"bytes32","internalType":"bytes32"}],"outputs":[],"stateMutability":"nonpayable"},{"type":"event","name":"AdminStatusChanged","inputs":[{"name":"admin","type":"address","indexed":true,"internalType":"address"},{"name":"status","type":"bool","indexed":false,"internalType":"bool"}],"anonymous":false},{"type":"event","name":"OperationCreated","inputs":[{"name":"operationId","type":"bytes32","indexed":true,"internalType":"bytes32"},{"name":"name","type":"string","indexed":false,"internalType":"string"},{"name":"token","type":"address","indexed":false,"internalType":"address"}],"anonymous":false},{"type":"event","name":"OwnershipTransferred","inputs":[{"name":"previousOwner","type":"address","indexed":true,"internalType":"address"},{"name":"newOwner","type":"address","indexed":true,"internalType":"address"}],"anonymous":false},{"type":"event","name":"RewardPaid","inputs":[{"name":"user","type":"address","indexed":true,"internalType":"address"},{"name":"amount","type":"uint256","indexed":false,"internalType":"uint256"},{"name":"operationId","type":"bytes32","indexed":true,"internalType":"bytes32"}],"anonymous":false},{"type":"event","name":"Staked","inputs":[{"name":"token","type":"address","indexed":true,"internalType":"address"},{"name":"user","type":"address","indexed":true,"internalType":"address"},{"name":"amount","type":"uint256","indexed":false,"internalType":"uint256"},{"name":"operationId","type":"bytes32","indexed":true,"internalType":"bytes32"},{"name":"eType","type":"string","indexed":false,"internalType":"string"},{"name":"time","type":"uint256","indexed":false,"internalType":"uint256"}],"anonymous":false},{"type":"event","name":"Unstaked","inputs":[{"name":"token","type":"address","indexed":true,"internalType":"address"},{"name":"user","type":"address","indexed":true,"internalType":"address"},{"name":"amount","type":"uint256","indexed":false,"internalType":"uint256"},{"name":"operationId","type":"bytes32","indexed":true,"internalType":"bytes32"},{"name":"eType","type":"string","indexed":false,"internalType":"string"},{"name":"time","type":"uint256","indexed":false,"internalType":"uint256"}],"anonymous":false}],"bytecode":{"object":"0x60803461013557601f611eed38819003918201601f19168301916001600160401b038311848410176101395780849260409485528339810103126101355780516001600160a01b038116919082900361013557602001516001600160a01b03811691908290036101355760015f8181558154336001600160a01b03198216811790935560405192916001600160a01b03909116907f8be0079c531659141344cd1fd0a4f28419497f9722a3daafe3b4186f6b6457e09080a381156100f3575060018060a01b031960025416176002555f52600560205260405f20600160ff19825416179055604051611d9f908161014e8239f35b62461bcd60e51b815260206004820152601660248201527f496e76616c69642070726f6a6563742077616c6c6574000000000000000000006044820152606490fd5b5f80fd5b634e487b7160e01b5f52604160045260245ffdfe60806040526004361015610011575f80fd5b5f3560e01c806324c963a214611831578063279412c51461162a5780632f3df17714610fab5780633fd8b02f14610f8e57806341b7bd3214610f65578063429b62e514610f2857806343273eec14610ebc5780634b0bddd214610e2a5780634bb1383b14610dd25780636f37a2c914610b62578063715018a614610b07578063779972da14610ae657806379dbebfa146107db5780637bd44ecf146106d85780638a780447146106835780638da5cb5b1461065b578063a4e47b66146105e4578063aad971211461047c578063b836f52114610279578063beb08ab914610251578063dbeee39714610219578063f2fde38b146101525763fea47a1c14610116575f80fd5b3461014e57602036600319011261014e576001600160a01b03610137611b0d565b165f526008602052602060405f2054604051908152f35b5f80fd5b3461014e57602036600319011261014e5761016b611b0d565b610173611cbd565b6001600160a01b031680156101c557600180546001600160a01b0319811683179091556001600160a01b03167f8be0079c531659141344cd1fd0a4f28419497f9722a3daafe3b4186f6b6457e05f80a3005b60405162461bcd60e51b815260206004820152602660248201527f4f776e61626c653a206e6577206f776e657220697320746865207a65726f206160448201526564647265737360d01b6064820152608490fd5b3461014e57602036600319011261014e576001600160a01b0361023a611b0d565b165f52600b602052602060405f2054604051908152f35b3461014e575f36600319011261014e576002546040516001600160a01b039091168152602090f35b3461014e57606036600319011261014e57610292611b0d565b61029a611b23565b604435916102a6611d15565b335f5260056020526102be60ff60405f205416611b7a565b60018060a01b0316805f52600960205260405f2060018060a01b0383165f5260205260405f2091600283018054936102f860ff8616611c5f565b5f8681526004602052604090206003015461031d906001600160a01b03168514611bfd565b5460ff19909416905560025460405163a9059cbb60e01b81526001600160a01b03919091166004820152602481018490526020816044815f875af1908115610471575f91610442575b50156103fd5760a07fc9cafbcc8a194bb7bf2482b42aaccaf0cf4f7b8fd768cbab6600fb5a5dc84ee591835f52600b60205260405f206103a7868254611cb0565b9055855f526004602052600960405f20016103c3868254611cb0565b9055604051948552606060208601526006606086015265109d5c9b995960d21b6080860152426040860152600180831b031693a460015f55005b60405162461bcd60e51b815260206004820152601960248201527f4661696c656420746f207472616e7366657220746f6b656e73000000000000006044820152606490fd5b610464915060203d60201161046a575b61045c81836119ae565b810190611c3a565b85610366565b503d610452565b6040513d5f823e3d90fd5b3461014e57604036600319011261014e57610495611b0d565b60243590815f52600460205260018060a01b03600460405f20015416330361059f5761051f6020915f9384526004835260408420600a60646104e06009840154600885015490611c9d565b91909201805460ff191660021790556040516323b872dd60e01b8152336004820152306024820152919004604482015293849283919082906064820190565b03926001600160a01b03165af1908115610471575f91610580575b501561054257005b60405162461bcd60e51b815260206004820152601660248201527514995dd85c99081d1c985b9cd9995c8819985a5b195960521b6044820152606490fd5b610599915060203d60201161046a5761045c81836119ae565b8161053a565b60405162461bcd60e51b815260206004820152601a60248201527f73656e646572206973206e6f74207468652070726f76696465720000000000006044820152606490fd5b3461014e57604036600319011261014e576105fd611b0d565b610605611b23565b6001600160a01b039182165f9081526009602090815260408083209490931682529283528190208054600182015460029092015483519182529381019190915260ff9290921615159082015280606081015b0390f35b3461014e575f36600319011261014e576001546040516001600160a01b039091168152602090f35b3461014e57602036600319011261014e576004356001600160a01b0381169081900361014e576106b1611cbd565b6106bc811515611bbf565b6bffffffffffffffffffffffff60a01b60025416176002555f80f35b3461014e57604036600319011261014e5760043560243590335f52600560205261070860ff60405f205416611b7a565b5f818152600460205260409020600301546001600160a01b031615610796578115610740575f526004602052600860405f2001555f80f35b60405162461bcd60e51b815260206004820152602860248201527f5265776172642070657263656e74616765206d75737420626520677265617465604482015267072207468616e20360c41b6064820152608490fd5b60405162461bcd60e51b815260206004820152601860248201527f4f7065726174696f6e20646f6573206e6f7420657869737400000000000000006044820152606490fd5b3461014e57606036600319011261014e576107f4611b0d565b60243590610800611af7565b5f8381526004602052604090206003015490916001600160a01b039081169161082b91168214611bfd565b825f52600460205260ff600a60405f200154166004811015610ad257600203610a9457825f52600a60205260405f2060018060a01b0383165f5260205260405f2091600283019182549361088160ff8616611c5f565b855f52600460205260405f209054606461089f600884015483611c9d565b04946108ab8683611c52565b9660ff191690556108c160098301918254611cb0565b8091551561099e575b5060405163a9059cbb60e01b81526001600160a01b03909216600483018190526024830194909452602090829060449082905f905af1908115610471575f9161097f575b50156109415760207f25d820333c9a561247c10864c5a61ff35d1b52a4d260cd78ffd379c9921a418791604051908152a3005b60405162461bcd60e51b815260206004820152601660248201527514995d1d5c9b881d1c985b9cd9995c8819985a5b195960521b6044820152606490fd5b610998915060203d60201161046a5761045c81836119ae565b8461090e565b6003545f80805b838110610a6b575b506109ba575b50506108ca565b6109c690939293611b39565b90549060031b1c905f198101908111610a57576109e56109fb91611b39565b819391549060031b91821b915f19901b19161790565b9055600354918215610a43575f93600a604492602095871901610a1d81611b39565b8154908a199060031b1b1916905560035501600360ff19825416179055938293506109b3565b634e487b7160e01b5f52603160045260245ffd5b634e487b7160e01b5f52601160045260245ffd5b89610a7582611b39565b90549060031b1c14610a89576001016109a5565b9150506001896109ad565b60405162461bcd60e51b81526020600482015260166024820152754f7065726174696f6e206e6f7420636f6d706c65746560501b6044820152606490fd5b634e487b7160e01b5f52602160045260245ffd5b3461014e57602036600319011261014e57610aff611cbd565b600435600655005b3461014e575f36600319011261014e57610b1f611cbd565b600180546001600160a01b031981169091555f906001600160a01b03167f8be0079c531659141344cd1fd0a4f28419497f9722a3daafe3b4186f6b6457e08280a3005b3461014e57606036600319011261014e57610b7b611b0d565b6024359060443590610b8b611d15565b8115610d9c575f838152600460205260409020600301546001600160a01b0391821691610bba91168214611bfd565b6040516323b872dd60e01b8152336004820152306024820152604481018390526020816064815f865af1908115610471575f91610d7d575b5015610d4657610c5a604051610c0781611992565b838152600260208201428152604083019060018252855f52600960205260405f2060018060a01b0333165f5260205260405f209351845551600184015551151591019060ff801983541691151516179055565b610cbc604051610c6981611992565b838152600260208201428152604083019060018252875f52600a60205260405f2060018060a01b0333165f5260205260405f209351845551600184015551151591019060ff801983541691151516179055565b825f526004602052600960405f2001610cd6838254611c52565b9055805f52600b60205260405f20610cef838254611c52565b905560405191825260606020830152600660608301526514dd185ad95960d21b60808301524260408301527f70d34e4a1cffdadaa1ca80104ed9f15ffb4114c859f8c9e89ef302a72862fb2560a03393a460015f55005b60405162461bcd60e51b815260206004820152600f60248201526e151c985b9cd9995c8819985a5b1959608a1b6044820152606490fd5b610d96915060203d60201161046a5761045c81836119ae565b84610bf2565b60405162461bcd60e51b815260206004820152600e60248201526d043616e6e6f74207374616b6520360941b6044820152606490fd5b3461014e57604036600319011261014e57610deb611b0d565b6001600160a01b03165f9081526007602052604090208054602435919082101561014e57602091610e1b91611b65565b90549060031b1c604051908152f35b3461014e57604036600319011261014e57610e43611b0d565b602435908115159081830361014e577fc63c72d6995119c079ef24c02679d49838905c8e81df9e632011b914e6f592f691610eb3602092610e82611cbd565b6001600160a01b031694610e97861515611bbf565b855f526005845260405f209060ff801983541691151516179055565b604051908152a2005b3461014e57604036600319011261014e57610ed5611b23565b6004355f52600a60205260405f209060018060a01b03165f5260205260405f20805461065760ff600260018501549401541660405193849384919260409194936060840195845260208401521515910152565b3461014e57602036600319011261014e576001600160a01b03610f49611b0d565b165f526005602052602060ff60405f2054166040519015158152f35b3461014e57602036600319011261014e5760043560035481101561014e57610e1b602091611b39565b3461014e575f36600319011261014e576020600654604051908152f35b3461014e5761012036600319011261014e5760043567ffffffffffffffff811161014e57610fdd903690600401611aa1565b60243567ffffffffffffffff811161014e57610ffd903690600401611aa1565b611005611af7565b916064356001600160a01b0381169081900361014e576084359260a4359460c43567ffffffffffffffff811161014e57611043903690600401611aa1565b90335f52600560205261105c60ff60405f205416611b7a565b6001600160a01b03169586156115ed5783156115a85785156115725780151580611566575b1561150957600c545f198114610a575760010180600c5560405160208101918252602081526110b16040826119ae565b51902095865f52600460205260405f209360018501875167ffffffffffffffff81116112c6576110e1825461193d565b601f81116114c4575b50806020601f8211600114611461575f91611456575b508160011b915f199060031b1c19161790555b8051600286019167ffffffffffffffff82116112c6578190611135845461193d565b601f8111611406575b50602090601f83116001146113a3575f92611398575b50508160011b915f199060031b1c19161790555b6003840180546001600160a01b03199081168a179091556004850180549091168617905560058401556008830155600a8201805460ff191660011790558482554260068301558051600783019167ffffffffffffffff82116112c65781906111d0845461193d565b601f8111611348575b50602090601f83116001146112e5575f926112da575b50508160011b915f199060031b1c19161790555b60e435600b820155600c610104359101555f52600760205260405f208054600160401b8110156112c6576109e5818593600161124194018155611b65565b9055825f5260086020528160405f205560035492600160401b8410156112c6576112b683927f2690fca832a7d48acb6433d8af47a3d184803d8e82c5971c2484a99c5825af0592846112a06109e589600160209b016003556003611b65565b9055604051928392604084526040840190611a70565b90878301520390a2604051908152f35b634e487b7160e01b5f52604160045260245ffd5b0151905088806111ef565b5f8581528281209350601f198516905b8181106113305750908460019594939210611318575b505050811b019055611203565b01515f1960f88460031b161c1916905588808061130b565b929360206001819287860151815501950193016112f5565b909150835f5260205f20601f840160051c8101916020851061138e575b90601f859493920160051c01905b81811061138057506111d9565b5f8155849350600101611373565b9091508190611365565b015190508b80611154565b5f8581528281209350601f198516905b8181106113ee57509084600195949392106113d6575b505050811b019055611168565b01515f1960f88460031b161c191690558b80806113c9565b929360206001819287860151815501950193016113b3565b909150835f5260205f20601f840160051c8101916020851061144c575b90601f859493920160051c01905b81811061143e575061113e565b5f8155849350600101611431565b9091508190611423565b90508901518c611100565b5f8481528181209250601f198416905b8c8282106114ac5750509083600194939210611494575b5050811b019055611113565b8b01515f1960f88460031b161c191690558c80611488565b60018495602093958493015181550194019201611471565b825f5260205f20601f830160051c810191602084106114ff575b601f0160051c01905b8181106114f457506110ea565b5f81556001016114e7565b90915081906114de565b60405162461bcd60e51b815260206004820152602f60248201527f526577617264206d757374206265206265747765656e203020616e642031303060448201526e303020626173697320706f696e747360881b6064820152608490fd5b50612710811115611081565b60405162461bcd60e51b815260206004820152600e60248201526d092dcecc2d8d2c840d8cadccee8d60931b6044820152606490fd5b60405162461bcd60e51b815260206004820152601860248201527f496e76616c69642070726f7669646572206164647265737300000000000000006044820152606490fd5b60405162461bcd60e51b8152602060048201526015602482015274496e76616c696420746f6b656e206164647265737360581b6044820152606490fd5b3461014e57602036600319011261014e575f61018060405161164b81611975565b82815260606020820152606060408201528260608201528260808201528260a08201528260c0820152606060e08201528261010082015282610120820152826101408201528261016082015201526004355f52600460205260405f206040516116b381611975565b815481526116c3600183016119d0565b91602082019283526116d7600282016119d0565b6040830190815260038201546001600160a01b0390811660608501908152600484015490911660808501908152600584015460a08601908152600685015460c08701908152949261172a600785016119d0565b60e0880190815260088501549661010089019788526009860154936101208a0194855260ff600a88015416956101408b01966004811015610ad2578752600b880154976101608c01988952600c0154986101808c01998a526040519c8d809d602082525190602001525160408d016101a090526101c08d016117ab91611a70565b90518c8203601f190160608e01526117c39190611a70565b94516001600160a01b0390811660808d015290511660a08b01525160c08a01525160e089015251878203601f19016101008901526118019190611a70565b94516101208701525161014086015251610160850161181f91611a94565b51610180840152516101a08301520390f35b3461014e57602036600319011261014e576004355f52600460205260405f2080546001820161185f906119d0565b9161186c600282016119d0565b600382015460048301546005840154600685015494926001600160a01b03928316921661189b600785016119d0565b90600885015496600986015493600a87015460ff1695600b88015497600c0154986040519c8d9c8d5260208d016101a090526101a08d016118db91611a70565b8c810360408e01526118ec91611a70565b9360608c015260808b015260a08a015260c089015287810360e089015261191291611a70565b94610100870152610120860152610140850161192d91611a94565b6101608401526101808301520390f35b90600182811c9216801561196b575b602083101461195757565b634e487b7160e01b5f52602260045260245ffd5b91607f169161194c565b6101a0810190811067ffffffffffffffff8211176112c657604052565b6060810190811067ffffffffffffffff8211176112c657604052565b90601f8019910116810190811067ffffffffffffffff8211176112c657604052565b9060405191825f8254926119e38461193d565b8084529360018116908115611a4e5750600114611a0a575b50611a08925003836119ae565b565b90505f9291925260205f20905f915b818310611a32575050906020611a08928201015f6119fb565b6020919350806001915483858901015201910190918492611a19565b905060209250611a0894915060ff191682840152151560051b8201015f6119fb565b805180835260209291819084018484015e5f828201840152601f01601f1916010190565b906004821015610ad25752565b81601f8201121561014e5780359067ffffffffffffffff82116112c65760405192611ad6601f8401601f1916602001856119ae565b8284526020838301011161014e57815f926020809301838601378301015290565b604435906001600160a01b038216820361014e57565b600435906001600160a01b038216820361014e57565b602435906001600160a01b038216820361014e57565b600354811015611b515760035f5260205f2001905f90565b634e487b7160e01b5f52603260045260245ffd5b8054821015611b51575f5260205f2001905f90565b15611b8157565b60405162461bcd60e51b815260206004820152601660248201527521b0b63632b91034b9903737ba1030b71030b236b4b760511b6044820152606490fd5b15611bc657565b60405162461bcd60e51b815260206004820152600f60248201526e496e76616c6964206164647265737360881b6044820152606490fd5b15611c0457565b60405162461bcd60e51b815260206004820152600e60248201526d0a8ded6cadc40dad2e6dac2e8c6d60931b6044820152606490fd5b9081602091031261014e5751801515810361014e5790565b91908201809211610a5757565b15611c6657565b60405162461bcd60e51b815260206004820152600f60248201526e4e6f20616374697665207374616b6560881b6044820152606490fd5b81810292918115918404141715610a5757565b91908203918211610a5757565b6001546001600160a01b03163303611cd157565b606460405162461bcd60e51b815260206004820152602060248201527f4f776e61626c653a2063616c6c6572206973206e6f7420746865206f776e65726044820152fd5b60025f5414611d245760025f55565b60405162461bcd60e51b815260206004820152601f60248201527f5265656e7472616e637947756172643a207265656e7472616e742063616c6c006044820152606490fdfea264697066735822122085e928cac00daca24fe14d91970ee88902a2a42f085544311d144d3fa108935264736f6c634300081c0033","linkReferences":{}},"methodIdentifiers":{"activeOperations(uint256)":"41b7bd32","admins(address)":"429b62e5","burn(address,address,bytes32)":"b836f521","claimReward(address,bytes32,address)":"79dbebfa","createOperation(string,string,address,address,uint256,uint256,string,uint256,uint256)":"2f3df177","getOperation(bytes32)":"279412c5","idToOperation(bytes32)":"24c963a2","lockPeriod()":"3fd8b02f","operationStakes(bytes32,address)":"43273eec","owner()":"8da5cb5b","projectWallet()":"beb08ab9","providerToOperationIds(address,uint256)":"4bb1383b","renounceOwnership()":"715018a6","setAdmin(address,bool)":"4b0bddd2","setLockPeriod(uint256)":"779972da","setOperationReward(bytes32,uint256)":"7bd44ecf","setProjectWallet(address)":"8a780447","stake(address,bytes32,uint256)":"6f37a2c9","stakes(address,address)":"a4e47b66","tokenToOperationIds(address)":"fea47a1c","tokenTvl(address)":"dbeee397","transferOwnership(address)":"f2fde38b","unlockReward(address,bytes32)":"aad97121"},"id":0}